{
	"Week8/Ex6_17.sol": {
		"Buttons": {
			"abi": [
				{
					"inputs": [
						{
							"internalType": "address",
							"name": "_address",
							"type": "address"
						},
						{
							"internalType": "uint256",
							"name": "_num1",
							"type": "uint256"
						},
						{
							"internalType": "uint256",
							"name": "_num2",
							"type": "uint256"
						}
					],
					"name": "addButtons",
					"outputs": [],
					"stateMutability": "nonpayable",
					"type": "function"
				},
				{
					"inputs": [
						{
							"internalType": "address",
							"name": "_address",
							"type": "address"
						}
					],
					"name": "showResult",
					"outputs": [
						{
							"internalType": "bytes",
							"name": "",
							"type": "bytes"
						}
					],
					"stateMutability": "nonpayable",
					"type": "function"
				}
			],
			"devdoc": {
				"kind": "dev",
				"methods": {},
				"version": 1
			},
			"evm": {
				"assembly": "    /* \"Week8/Ex6_17.sol\":397:842  contract Buttons {... */\n  mstore(0x40, 0x80)\n  callvalue\n  dup1\n  iszero\n  tag_1\n  jumpi\n  revert(0x00, 0x00)\ntag_1:\n  pop\n  dataSize(sub_0)\n  dup1\n  dataOffset(sub_0)\n  0x00\n  codecopy\n  0x00\n  return\nstop\n\nsub_0: assembly {\n        /* \"Week8/Ex6_17.sol\":397:842  contract Buttons {... */\n      mstore(0x40, 0x80)\n      callvalue\n      dup1\n      iszero\n      tag_1\n      jumpi\n      revert(0x00, 0x00)\n    tag_1:\n      pop\n      jumpi(tag_2, lt(calldatasize, 0x04))\n      shr(0xe0, calldataload(0x00))\n      dup1\n      0x7302951b\n      eq\n      tag_3\n      jumpi\n      dup1\n      0xe07f47ba\n      eq\n      tag_4\n      jumpi\n    tag_2:\n      revert(0x00, 0x00)\n        /* \"Week8/Ex6_17.sol\":622:839  function showResult(address _address) public returns(bytes memory) {... */\n    tag_3:\n      tag_5\n      0x04\n      dup1\n      calldatasize\n      sub\n      dup2\n      add\n      swap1\n      tag_6\n      swap2\n      swap1\n      tag_7\n      jump\t// in\n    tag_6:\n      tag_8\n      jump\t// in\n    tag_5:\n      mload(0x40)\n      tag_9\n      swap2\n      swap1\n      tag_10\n      jump\t// in\n    tag_9:\n      mload(0x40)\n      dup1\n      swap2\n      sub\n      swap1\n      return\n        /* \"Week8/Ex6_17.sol\":417:620  function addButtons(address _address, uint _num1, uint _num2) public {... */\n    tag_4:\n      tag_11\n      0x04\n      dup1\n      calldatasize\n      sub\n      dup2\n      add\n      swap1\n      tag_12\n      swap2\n      swap1\n      tag_13\n      jump\t// in\n    tag_12:\n      tag_14\n      jump\t// in\n    tag_11:\n      stop\n        /* \"Week8/Ex6_17.sol\":622:839  function showResult(address _address) public returns(bytes memory) {... */\n    tag_8:\n        /* \"Week8/Ex6_17.sol\":675:687  bytes memory */\n      0x60\n        /* \"Week8/Ex6_17.sol\":693:705  bool success */\n      0x00\n        /* \"Week8/Ex6_17.sol\":707:726  bytes memory result */\n      0x00\n        /* \"Week8/Ex6_17.sol\":730:738  _address */\n      dup4\n        /* \"Week8/Ex6_17.sol\":730:743  _address.call */\n      0xffffffffffffffffffffffffffffffffffffffff\n      and\n        /* \"Week8/Ex6_17.sol\":746:787  abi.encodeWithSignature(\"returnResult()\") */\n      add(0x24, mload(0x40))\n      mload(0x40)\n      0x20\n      dup2\n      dup4\n      sub\n      sub\n      dup2\n      mstore\n      swap1\n      0x40\n      mstore\n      and(not(0xffffffffffffffffffffffffffffffffffffffffffffffffffffffff), 0x1801a34600000000000000000000000000000000000000000000000000000000)\n      0x20\n      dup3\n      add\n      dup1\n      mload\n      0xffffffffffffffffffffffffffffffffffffffffffffffffffffffff\n      dup4\n      dup2\n      dup4\n      and\n      or\n      dup4\n      mstore\n      pop\n      pop\n      pop\n      pop\n        /* \"Week8/Ex6_17.sol\":730:790  _address.call(... */\n      mload(0x40)\n      tag_16\n      swap2\n      swap1\n      tag_17\n      jump\t// in\n    tag_16:\n      0x00\n      mload(0x40)\n      dup1\n      dup4\n      sub\n      dup2\n      0x00\n      dup7\n      gas\n      call\n      swap2\n      pop\n      pop\n      returndatasize\n      dup1\n      0x00\n      dup2\n      eq\n      tag_20\n      jumpi\n      mload(0x40)\n      swap2\n      pop\n      and(add(returndatasize, 0x3f), not(0x1f))\n      dup3\n      add\n      0x40\n      mstore\n      returndatasize\n      dup3\n      mstore\n      returndatasize\n      0x00\n      0x20\n      dup5\n      add\n      returndatacopy\n      jump(tag_19)\n    tag_20:\n      0x60\n      swap2\n      pop\n    tag_19:\n      pop\n        /* \"Week8/Ex6_17.sol\":692:790  (bool success, bytes memory result) = _address.call(... */\n      swap2\n      pop\n      swap2\n      pop\n        /* \"Week8/Ex6_17.sol\":801:808  success */\n      dup2\n        /* \"Week8/Ex6_17.sol\":793:819  require(success, \"Failed\") */\n      tag_21\n      jumpi\n      mload(0x40)\n      0x08c379a000000000000000000000000000000000000000000000000000000000\n      dup2\n      mstore\n      0x04\n      add\n      tag_22\n      swap1\n      tag_23\n      jump\t// in\n    tag_22:\n      mload(0x40)\n      dup1\n      swap2\n      sub\n      swap1\n      revert\n    tag_21:\n        /* \"Week8/Ex6_17.sol\":829:835  result */\n      dup1\n        /* \"Week8/Ex6_17.sol\":822:835  return result */\n      swap3\n      pop\n      pop\n      pop\n        /* \"Week8/Ex6_17.sol\":622:839  function showResult(address _address) public returns(bytes memory) {... */\n      swap2\n      swap1\n      pop\n      jump\t// out\n        /* \"Week8/Ex6_17.sol\":417:620  function addButtons(address _address, uint _num1, uint _num2) public {... */\n    tag_14:\n        /* \"Week8/Ex6_17.sol\":490:502  bool success */\n      0x00\n        /* \"Week8/Ex6_17.sol\":508:516  _address */\n      dup4\n        /* \"Week8/Ex6_17.sol\":508:521  _address.call */\n      0xffffffffffffffffffffffffffffffffffffffff\n      and\n        /* \"Week8/Ex6_17.sol\":571:576  _num1 */\n      dup4\n        /* \"Week8/Ex6_17.sol\":578:583  _num2 */\n      dup4\n        /* \"Week8/Ex6_17.sol\":524:584  abi.encodeWithSignature(\"add(uint256,uint256)\",_num1 ,_num2) */\n      add(0x24, mload(0x40))\n      tag_25\n      swap3\n      swap2\n      swap1\n      tag_26\n      jump\t// in\n    tag_25:\n      mload(0x40)\n      0x20\n      dup2\n      dup4\n      sub\n      sub\n      dup2\n      mstore\n      swap1\n      0x40\n      mstore\n      and(not(0xffffffffffffffffffffffffffffffffffffffffffffffffffffffff), 0x771602f700000000000000000000000000000000000000000000000000000000)\n      0x20\n      dup3\n      add\n      dup1\n      mload\n      0xffffffffffffffffffffffffffffffffffffffffffffffffffffffff\n      dup4\n      dup2\n      dup4\n      and\n      or\n      dup4\n      mstore\n      pop\n      pop\n      pop\n      pop\n        /* \"Week8/Ex6_17.sol\":508:587  _address.call(... */\n      mload(0x40)\n      tag_27\n      swap2\n      swap1\n      tag_17\n      jump\t// in\n    tag_27:\n      0x00\n      mload(0x40)\n      dup1\n      dup4\n      sub\n      dup2\n      0x00\n      dup7\n      gas\n      call\n      swap2\n      pop\n      pop\n      returndatasize\n      dup1\n      0x00\n      dup2\n      eq\n      tag_30\n      jumpi\n      mload(0x40)\n      swap2\n      pop\n      and(add(returndatasize, 0x3f), not(0x1f))\n      dup3\n      add\n      0x40\n      mstore\n      returndatasize\n      dup3\n      mstore\n      returndatasize\n      0x00\n      0x20\n      dup5\n      add\n      returndatacopy\n      jump(tag_29)\n    tag_30:\n      0x60\n      swap2\n      pop\n    tag_29:\n      pop\n        /* \"Week8/Ex6_17.sol\":489:587  (bool success, ) = _address.call(... */\n      pop\n      swap1\n      pop\n        /* \"Week8/Ex6_17.sol\":598:605  success */\n      dup1\n        /* \"Week8/Ex6_17.sol\":590:616  require(success, \"Failed\") */\n      tag_31\n      jumpi\n      mload(0x40)\n      0x08c379a000000000000000000000000000000000000000000000000000000000\n      dup2\n      mstore\n      0x04\n      add\n      tag_32\n      swap1\n      tag_23\n      jump\t// in\n    tag_32:\n      mload(0x40)\n      dup1\n      swap2\n      sub\n      swap1\n      revert\n    tag_31:\n        /* \"Week8/Ex6_17.sol\":486:620  {... */\n      pop\n        /* \"Week8/Ex6_17.sol\":417:620  function addButtons(address _address, uint _num1, uint _num2) public {... */\n      pop\n      pop\n      pop\n      jump\t// out\n        /* \"#utility.yul\":88:205   */\n    tag_34:\n        /* \"#utility.yul\":197:198   */\n      0x00\n        /* \"#utility.yul\":194:195   */\n      0x00\n        /* \"#utility.yul\":187:199   */\n      revert\n        /* \"#utility.yul\":334:460   */\n    tag_36:\n        /* \"#utility.yul\":371:378   */\n      0x00\n        /* \"#utility.yul\":411:453   */\n      0xffffffffffffffffffffffffffffffffffffffff\n        /* \"#utility.yul\":404:409   */\n      dup3\n        /* \"#utility.yul\":400:454   */\n      and\n        /* \"#utility.yul\":389:454   */\n      swap1\n      pop\n        /* \"#utility.yul\":334:460   */\n      swap2\n      swap1\n      pop\n      jump\t// out\n        /* \"#utility.yul\":466:562   */\n    tag_37:\n        /* \"#utility.yul\":503:510   */\n      0x00\n        /* \"#utility.yul\":532:556   */\n      tag_60\n        /* \"#utility.yul\":550:555   */\n      dup3\n        /* \"#utility.yul\":532:556   */\n      tag_36\n      jump\t// in\n    tag_60:\n        /* \"#utility.yul\":521:556   */\n      swap1\n      pop\n        /* \"#utility.yul\":466:562   */\n      swap2\n      swap1\n      pop\n      jump\t// out\n        /* \"#utility.yul\":568:690   */\n    tag_38:\n        /* \"#utility.yul\":641:665   */\n      tag_62\n        /* \"#utility.yul\":659:664   */\n      dup2\n        /* \"#utility.yul\":641:665   */\n      tag_37\n      jump\t// in\n    tag_62:\n        /* \"#utility.yul\":634:639   */\n      dup2\n        /* \"#utility.yul\":631:666   */\n      eq\n        /* \"#utility.yul\":621:684   */\n      tag_63\n      jumpi\n        /* \"#utility.yul\":680:681   */\n      0x00\n        /* \"#utility.yul\":677:678   */\n      0x00\n        /* \"#utility.yul\":670:682   */\n      revert\n        /* \"#utility.yul\":621:684   */\n    tag_63:\n        /* \"#utility.yul\":568:690   */\n      pop\n      jump\t// out\n        /* \"#utility.yul\":696:835   */\n    tag_39:\n        /* \"#utility.yul\":742:747   */\n      0x00\n        /* \"#utility.yul\":780:786   */\n      dup2\n        /* \"#utility.yul\":767:787   */\n      calldataload\n        /* \"#utility.yul\":758:787   */\n      swap1\n      pop\n        /* \"#utility.yul\":796:829   */\n      tag_65\n        /* \"#utility.yul\":823:828   */\n      dup2\n        /* \"#utility.yul\":796:829   */\n      tag_38\n      jump\t// in\n    tag_65:\n        /* \"#utility.yul\":696:835   */\n      swap3\n      swap2\n      pop\n      pop\n      jump\t// out\n        /* \"#utility.yul\":841:1170   */\n    tag_7:\n        /* \"#utility.yul\":900:906   */\n      0x00\n        /* \"#utility.yul\":949:951   */\n      0x20\n        /* \"#utility.yul\":937:946   */\n      dup3\n        /* \"#utility.yul\":928:935   */\n      dup5\n        /* \"#utility.yul\":924:947   */\n      sub\n        /* \"#utility.yul\":920:952   */\n      slt\n        /* \"#utility.yul\":917:1036   */\n      iszero\n      tag_67\n      jumpi\n        /* \"#utility.yul\":955:1034   */\n      tag_68\n      tag_34\n      jump\t// in\n    tag_68:\n        /* \"#utility.yul\":917:1036   */\n    tag_67:\n        /* \"#utility.yul\":1075:1076   */\n      0x00\n        /* \"#utility.yul\":1100:1153   */\n      tag_69\n        /* \"#utility.yul\":1145:1152   */\n      dup5\n        /* \"#utility.yul\":1136:1142   */\n      dup3\n        /* \"#utility.yul\":1125:1134   */\n      dup6\n        /* \"#utility.yul\":1121:1143   */\n      add\n        /* \"#utility.yul\":1100:1153   */\n      tag_39\n      jump\t// in\n    tag_69:\n        /* \"#utility.yul\":1090:1153   */\n      swap2\n      pop\n        /* \"#utility.yul\":1046:1163   */\n      pop\n        /* \"#utility.yul\":841:1170   */\n      swap3\n      swap2\n      pop\n      pop\n      jump\t// out\n        /* \"#utility.yul\":1176:1274   */\n    tag_40:\n        /* \"#utility.yul\":1227:1233   */\n      0x00\n        /* \"#utility.yul\":1261:1266   */\n      dup2\n        /* \"#utility.yul\":1255:1267   */\n      mload\n        /* \"#utility.yul\":1245:1267   */\n      swap1\n      pop\n        /* \"#utility.yul\":1176:1274   */\n      swap2\n      swap1\n      pop\n      jump\t// out\n        /* \"#utility.yul\":1280:1448   */\n    tag_41:\n        /* \"#utility.yul\":1363:1374   */\n      0x00\n        /* \"#utility.yul\":1397:1403   */\n      dup3\n        /* \"#utility.yul\":1392:1395   */\n      dup3\n        /* \"#utility.yul\":1385:1404   */\n      mstore\n        /* \"#utility.yul\":1437:1441   */\n      0x20\n        /* \"#utility.yul\":1432:1435   */\n      dup3\n        /* \"#utility.yul\":1428:1442   */\n      add\n        /* \"#utility.yul\":1413:1442   */\n      swap1\n      pop\n        /* \"#utility.yul\":1280:1448   */\n      swap3\n      swap2\n      pop\n      pop\n      jump\t// out\n        /* \"#utility.yul\":1454:1593   */\n    tag_42:\n        /* \"#utility.yul\":1543:1549   */\n      dup3\n        /* \"#utility.yul\":1538:1541   */\n      dup2\n        /* \"#utility.yul\":1533:1536   */\n      dup4\n        /* \"#utility.yul\":1527:1550   */\n      mcopy\n        /* \"#utility.yul\":1584:1585   */\n      0x00\n        /* \"#utility.yul\":1575:1581   */\n      dup4\n        /* \"#utility.yul\":1570:1573   */\n      dup4\n        /* \"#utility.yul\":1566:1582   */\n      add\n        /* \"#utility.yul\":1559:1586   */\n      mstore\n        /* \"#utility.yul\":1454:1593   */\n      pop\n      pop\n      pop\n      jump\t// out\n        /* \"#utility.yul\":1599:1701   */\n    tag_43:\n        /* \"#utility.yul\":1640:1646   */\n      0x00\n        /* \"#utility.yul\":1691:1693   */\n      0x1f\n        /* \"#utility.yul\":1687:1694   */\n      not\n        /* \"#utility.yul\":1682:1684   */\n      0x1f\n        /* \"#utility.yul\":1675:1680   */\n      dup4\n        /* \"#utility.yul\":1671:1685   */\n      add\n        /* \"#utility.yul\":1667:1695   */\n      and\n        /* \"#utility.yul\":1657:1695   */\n      swap1\n      pop\n        /* \"#utility.yul\":1599:1701   */\n      swap2\n      swap1\n      pop\n      jump\t// out\n        /* \"#utility.yul\":1707:2080   */\n    tag_44:\n        /* \"#utility.yul\":1793:1796   */\n      0x00\n        /* \"#utility.yul\":1821:1859   */\n      tag_75\n        /* \"#utility.yul\":1853:1858   */\n      dup3\n        /* \"#utility.yul\":1821:1859   */\n      tag_40\n      jump\t// in\n    tag_75:\n        /* \"#utility.yul\":1875:1945   */\n      tag_76\n        /* \"#utility.yul\":1938:1944   */\n      dup2\n        /* \"#utility.yul\":1933:1936   */\n      dup6\n        /* \"#utility.yul\":1875:1945   */\n      tag_41\n      jump\t// in\n    tag_76:\n        /* \"#utility.yul\":1868:1945   */\n      swap4\n      pop\n        /* \"#utility.yul\":1954:2019   */\n      tag_77\n        /* \"#utility.yul\":2012:2018   */\n      dup2\n        /* \"#utility.yul\":2007:2010   */\n      dup6\n        /* \"#utility.yul\":2000:2004   */\n      0x20\n        /* \"#utility.yul\":1993:1998   */\n      dup7\n        /* \"#utility.yul\":1989:2005   */\n      add\n        /* \"#utility.yul\":1954:2019   */\n      tag_42\n      jump\t// in\n    tag_77:\n        /* \"#utility.yul\":2044:2073   */\n      tag_78\n        /* \"#utility.yul\":2066:2072   */\n      dup2\n        /* \"#utility.yul\":2044:2073   */\n      tag_43\n      jump\t// in\n    tag_78:\n        /* \"#utility.yul\":2039:2042   */\n      dup5\n        /* \"#utility.yul\":2035:2074   */\n      add\n        /* \"#utility.yul\":2028:2074   */\n      swap2\n      pop\n        /* \"#utility.yul\":1797:2080   */\n      pop\n        /* \"#utility.yul\":1707:2080   */\n      swap3\n      swap2\n      pop\n      pop\n      jump\t// out\n        /* \"#utility.yul\":2086:2395   */\n    tag_10:\n        /* \"#utility.yul\":2197:2201   */\n      0x00\n        /* \"#utility.yul\":2235:2237   */\n      0x20\n        /* \"#utility.yul\":2224:2233   */\n      dup3\n        /* \"#utility.yul\":2220:2238   */\n      add\n        /* \"#utility.yul\":2212:2238   */\n      swap1\n      pop\n        /* \"#utility.yul\":2284:2293   */\n      dup2\n        /* \"#utility.yul\":2278:2282   */\n      dup2\n        /* \"#utility.yul\":2274:2294   */\n      sub\n        /* \"#utility.yul\":2270:2271   */\n      0x00\n        /* \"#utility.yul\":2259:2268   */\n      dup4\n        /* \"#utility.yul\":2255:2272   */\n      add\n        /* \"#utility.yul\":2248:2295   */\n      mstore\n        /* \"#utility.yul\":2312:2388   */\n      tag_80\n        /* \"#utility.yul\":2383:2387   */\n      dup2\n        /* \"#utility.yul\":2374:2380   */\n      dup5\n        /* \"#utility.yul\":2312:2388   */\n      tag_44\n      jump\t// in\n    tag_80:\n        /* \"#utility.yul\":2304:2388   */\n      swap1\n      pop\n        /* \"#utility.yul\":2086:2395   */\n      swap3\n      swap2\n      pop\n      pop\n      jump\t// out\n        /* \"#utility.yul\":2401:2478   */\n    tag_45:\n        /* \"#utility.yul\":2438:2445   */\n      0x00\n        /* \"#utility.yul\":2467:2472   */\n      dup2\n        /* \"#utility.yul\":2456:2472   */\n      swap1\n      pop\n        /* \"#utility.yul\":2401:2478   */\n      swap2\n      swap1\n      pop\n      jump\t// out\n        /* \"#utility.yul\":2484:2606   */\n    tag_46:\n        /* \"#utility.yul\":2557:2581   */\n      tag_83\n        /* \"#utility.yul\":2575:2580   */\n      dup2\n        /* \"#utility.yul\":2557:2581   */\n      tag_45\n      jump\t// in\n    tag_83:\n        /* \"#utility.yul\":2550:2555   */\n      dup2\n        /* \"#utility.yul\":2547:2582   */\n      eq\n        /* \"#utility.yul\":2537:2600   */\n      tag_84\n      jumpi\n        /* \"#utility.yul\":2596:2597   */\n      0x00\n        /* \"#utility.yul\":2593:2594   */\n      0x00\n        /* \"#utility.yul\":2586:2598   */\n      revert\n        /* \"#utility.yul\":2537:2600   */\n    tag_84:\n        /* \"#utility.yul\":2484:2606   */\n      pop\n      jump\t// out\n        /* \"#utility.yul\":2612:2751   */\n    tag_47:\n        /* \"#utility.yul\":2658:2663   */\n      0x00\n        /* \"#utility.yul\":2696:2702   */\n      dup2\n        /* \"#utility.yul\":2683:2703   */\n      calldataload\n        /* \"#utility.yul\":2674:2703   */\n      swap1\n      pop\n        /* \"#utility.yul\":2712:2745   */\n      tag_86\n        /* \"#utility.yul\":2739:2744   */\n      dup2\n        /* \"#utility.yul\":2712:2745   */\n      tag_46\n      jump\t// in\n    tag_86:\n        /* \"#utility.yul\":2612:2751   */\n      swap3\n      swap2\n      pop\n      pop\n      jump\t// out\n        /* \"#utility.yul\":2757:3376   */\n    tag_13:\n        /* \"#utility.yul\":2834:2840   */\n      0x00\n        /* \"#utility.yul\":2842:2848   */\n      0x00\n        /* \"#utility.yul\":2850:2856   */\n      0x00\n        /* \"#utility.yul\":2899:2901   */\n      0x60\n        /* \"#utility.yul\":2887:2896   */\n      dup5\n        /* \"#utility.yul\":2878:2885   */\n      dup7\n        /* \"#utility.yul\":2874:2897   */\n      sub\n        /* \"#utility.yul\":2870:2902   */\n      slt\n        /* \"#utility.yul\":2867:2986   */\n      iszero\n      tag_88\n      jumpi\n        /* \"#utility.yul\":2905:2984   */\n      tag_89\n      tag_34\n      jump\t// in\n    tag_89:\n        /* \"#utility.yul\":2867:2986   */\n    tag_88:\n        /* \"#utility.yul\":3025:3026   */\n      0x00\n        /* \"#utility.yul\":3050:3103   */\n      tag_90\n        /* \"#utility.yul\":3095:3102   */\n      dup7\n        /* \"#utility.yul\":3086:3092   */\n      dup3\n        /* \"#utility.yul\":3075:3084   */\n      dup8\n        /* \"#utility.yul\":3071:3093   */\n      add\n        /* \"#utility.yul\":3050:3103   */\n      tag_39\n      jump\t// in\n    tag_90:\n        /* \"#utility.yul\":3040:3103   */\n      swap4\n      pop\n        /* \"#utility.yul\":2996:3113   */\n      pop\n        /* \"#utility.yul\":3152:3154   */\n      0x20\n        /* \"#utility.yul\":3178:3231   */\n      tag_91\n        /* \"#utility.yul\":3223:3230   */\n      dup7\n        /* \"#utility.yul\":3214:3220   */\n      dup3\n        /* \"#utility.yul\":3203:3212   */\n      dup8\n        /* \"#utility.yul\":3199:3221   */\n      add\n        /* \"#utility.yul\":3178:3231   */\n      tag_47\n      jump\t// in\n    tag_91:\n        /* \"#utility.yul\":3168:3231   */\n      swap3\n      pop\n        /* \"#utility.yul\":3123:3241   */\n      pop\n        /* \"#utility.yul\":3280:3282   */\n      0x40\n        /* \"#utility.yul\":3306:3359   */\n      tag_92\n        /* \"#utility.yul\":3351:3358   */\n      dup7\n        /* \"#utility.yul\":3342:3348   */\n      dup3\n        /* \"#utility.yul\":3331:3340   */\n      dup8\n        /* \"#utility.yul\":3327:3349   */\n      add\n        /* \"#utility.yul\":3306:3359   */\n      tag_47\n      jump\t// in\n    tag_92:\n        /* \"#utility.yul\":3296:3359   */\n      swap2\n      pop\n        /* \"#utility.yul\":3251:3369   */\n      pop\n        /* \"#utility.yul\":2757:3376   */\n      swap3\n      pop\n      swap3\n      pop\n      swap3\n      jump\t// out\n        /* \"#utility.yul\":3382:3529   */\n    tag_48:\n        /* \"#utility.yul\":3483:3494   */\n      0x00\n        /* \"#utility.yul\":3520:3523   */\n      dup2\n        /* \"#utility.yul\":3505:3523   */\n      swap1\n      pop\n        /* \"#utility.yul\":3382:3529   */\n      swap3\n      swap2\n      pop\n      pop\n      jump\t// out\n        /* \"#utility.yul\":3535:3921   */\n    tag_49:\n        /* \"#utility.yul\":3639:3642   */\n      0x00\n        /* \"#utility.yul\":3667:3705   */\n      tag_95\n        /* \"#utility.yul\":3699:3704   */\n      dup3\n        /* \"#utility.yul\":3667:3705   */\n      tag_40\n      jump\t// in\n    tag_95:\n        /* \"#utility.yul\":3721:3809   */\n      tag_96\n        /* \"#utility.yul\":3802:3808   */\n      dup2\n        /* \"#utility.yul\":3797:3800   */\n      dup6\n        /* \"#utility.yul\":3721:3809   */\n      tag_48\n      jump\t// in\n    tag_96:\n        /* \"#utility.yul\":3714:3809   */\n      swap4\n      pop\n        /* \"#utility.yul\":3818:3883   */\n      tag_97\n        /* \"#utility.yul\":3876:3882   */\n      dup2\n        /* \"#utility.yul\":3871:3874   */\n      dup6\n        /* \"#utility.yul\":3864:3868   */\n      0x20\n        /* \"#utility.yul\":3857:3862   */\n      dup7\n        /* \"#utility.yul\":3853:3869   */\n      add\n        /* \"#utility.yul\":3818:3883   */\n      tag_42\n      jump\t// in\n    tag_97:\n        /* \"#utility.yul\":3908:3914   */\n      dup1\n        /* \"#utility.yul\":3903:3906   */\n      dup5\n        /* \"#utility.yul\":3899:3915   */\n      add\n        /* \"#utility.yul\":3892:3915   */\n      swap2\n      pop\n        /* \"#utility.yul\":3643:3921   */\n      pop\n        /* \"#utility.yul\":3535:3921   */\n      swap3\n      swap2\n      pop\n      pop\n      jump\t// out\n        /* \"#utility.yul\":3927:4198   */\n    tag_17:\n        /* \"#utility.yul\":4057:4060   */\n      0x00\n        /* \"#utility.yul\":4079:4172   */\n      tag_99\n        /* \"#utility.yul\":4168:4171   */\n      dup3\n        /* \"#utility.yul\":4159:4165   */\n      dup5\n        /* \"#utility.yul\":4079:4172   */\n      tag_49\n      jump\t// in\n    tag_99:\n        /* \"#utility.yul\":4072:4172   */\n      swap2\n      pop\n        /* \"#utility.yul\":4189:4192   */\n      dup2\n        /* \"#utility.yul\":4182:4192   */\n      swap1\n      pop\n        /* \"#utility.yul\":3927:4198   */\n      swap3\n      swap2\n      pop\n      pop\n      jump\t// out\n        /* \"#utility.yul\":4204:4373   */\n    tag_50:\n        /* \"#utility.yul\":4288:4299   */\n      0x00\n        /* \"#utility.yul\":4322:4328   */\n      dup3\n        /* \"#utility.yul\":4317:4320   */\n      dup3\n        /* \"#utility.yul\":4310:4329   */\n      mstore\n        /* \"#utility.yul\":4362:4366   */\n      0x20\n        /* \"#utility.yul\":4357:4360   */\n      dup3\n        /* \"#utility.yul\":4353:4367   */\n      add\n        /* \"#utility.yul\":4338:4367   */\n      swap1\n      pop\n        /* \"#utility.yul\":4204:4373   */\n      swap3\n      swap2\n      pop\n      pop\n      jump\t// out\n        /* \"#utility.yul\":4379:4535   */\n    tag_51:\n        /* \"#utility.yul\":4519:4527   */\n      0x4661696c65640000000000000000000000000000000000000000000000000000\n        /* \"#utility.yul\":4515:4516   */\n      0x00\n        /* \"#utility.yul\":4507:4513   */\n      dup3\n        /* \"#utility.yul\":4503:4517   */\n      add\n        /* \"#utility.yul\":4496:4528   */\n      mstore\n        /* \"#utility.yul\":4379:4535   */\n      pop\n      jump\t// out\n        /* \"#utility.yul\":4541:4906   */\n    tag_52:\n        /* \"#utility.yul\":4683:4686   */\n      0x00\n        /* \"#utility.yul\":4704:4770   */\n      tag_103\n        /* \"#utility.yul\":4768:4769   */\n      0x06\n        /* \"#utility.yul\":4763:4766   */\n      dup4\n        /* \"#utility.yul\":4704:4770   */\n      tag_50\n      jump\t// in\n    tag_103:\n        /* \"#utility.yul\":4697:4770   */\n      swap2\n      pop\n        /* \"#utility.yul\":4779:4872   */\n      tag_104\n        /* \"#utility.yul\":4868:4871   */\n      dup3\n        /* \"#utility.yul\":4779:4872   */\n      tag_51\n      jump\t// in\n    tag_104:\n        /* \"#utility.yul\":4897:4899   */\n      0x20\n        /* \"#utility.yul\":4892:4895   */\n      dup3\n        /* \"#utility.yul\":4888:4900   */\n      add\n        /* \"#utility.yul\":4881:4900   */\n      swap1\n      pop\n        /* \"#utility.yul\":4541:4906   */\n      swap2\n      swap1\n      pop\n      jump\t// out\n        /* \"#utility.yul\":4912:5331   */\n    tag_23:\n        /* \"#utility.yul\":5078:5082   */\n      0x00\n        /* \"#utility.yul\":5116:5118   */\n      0x20\n        /* \"#utility.yul\":5105:5114   */\n      dup3\n        /* \"#utility.yul\":5101:5119   */\n      add\n        /* \"#utility.yul\":5093:5119   */\n      swap1\n      pop\n        /* \"#utility.yul\":5165:5174   */\n      dup2\n        /* \"#utility.yul\":5159:5163   */\n      dup2\n        /* \"#utility.yul\":5155:5175   */\n      sub\n        /* \"#utility.yul\":5151:5152   */\n      0x00\n        /* \"#utility.yul\":5140:5149   */\n      dup4\n        /* \"#utility.yul\":5136:5153   */\n      add\n        /* \"#utility.yul\":5129:5176   */\n      mstore\n        /* \"#utility.yul\":5193:5324   */\n      tag_106\n        /* \"#utility.yul\":5319:5323   */\n      dup2\n        /* \"#utility.yul\":5193:5324   */\n      tag_52\n      jump\t// in\n    tag_106:\n        /* \"#utility.yul\":5185:5324   */\n      swap1\n      pop\n        /* \"#utility.yul\":4912:5331   */\n      swap2\n      swap1\n      pop\n      jump\t// out\n        /* \"#utility.yul\":5337:5455   */\n    tag_53:\n        /* \"#utility.yul\":5424:5448   */\n      tag_108\n        /* \"#utility.yul\":5442:5447   */\n      dup2\n        /* \"#utility.yul\":5424:5448   */\n      tag_45\n      jump\t// in\n    tag_108:\n        /* \"#utility.yul\":5419:5422   */\n      dup3\n        /* \"#utility.yul\":5412:5449   */\n      mstore\n        /* \"#utility.yul\":5337:5455   */\n      pop\n      pop\n      jump\t// out\n        /* \"#utility.yul\":5461:5793   */\n    tag_26:\n        /* \"#utility.yul\":5582:5586   */\n      0x00\n        /* \"#utility.yul\":5620:5622   */\n      0x40\n        /* \"#utility.yul\":5609:5618   */\n      dup3\n        /* \"#utility.yul\":5605:5623   */\n      add\n        /* \"#utility.yul\":5597:5623   */\n      swap1\n      pop\n        /* \"#utility.yul\":5633:5704   */\n      tag_110\n        /* \"#utility.yul\":5701:5702   */\n      0x00\n        /* \"#utility.yul\":5690:5699   */\n      dup4\n        /* \"#utility.yul\":5686:5703   */\n      add\n        /* \"#utility.yul\":5677:5683   */\n      dup6\n        /* \"#utility.yul\":5633:5704   */\n      tag_53\n      jump\t// in\n    tag_110:\n        /* \"#utility.yul\":5714:5786   */\n      tag_111\n        /* \"#utility.yul\":5782:5784   */\n      0x20\n        /* \"#utility.yul\":5771:5780   */\n      dup4\n        /* \"#utility.yul\":5767:5785   */\n      add\n        /* \"#utility.yul\":5758:5764   */\n      dup5\n        /* \"#utility.yul\":5714:5786   */\n      tag_53\n      jump\t// in\n    tag_111:\n        /* \"#utility.yul\":5461:5793   */\n      swap4\n      swap3\n      pop\n      pop\n      pop\n      jump\t// out\n\n    auxdata: 0xa26469706673582212201ec16372ecacfca662ec5ceb65f1674869b4cab6aa3f83d9196cf6a63dffacf764736f6c634300081e0033\n}\n",
				"bytecode": {
					"linkReferences": {},
					"object": "6080604052348015600e575f5ffd5b506105c98061001c5f395ff3fe608060405234801561000f575f5ffd5b5060043610610034575f3560e01c80637302951b14610038578063e07f47ba14610068575b5f5ffd5b610052600480360381019061004d9190610357565b610084565b60405161005f91906103f2565b60405180910390f35b610082600480360381019061007d9190610445565b6101bc565b005b60605f5f8373ffffffffffffffffffffffffffffffffffffffff166040516024016040516020818303038152906040527f1801a346000000000000000000000000000000000000000000000000000000007bffffffffffffffffffffffffffffffffffffffffffffffffffffffff19166020820180517bffffffffffffffffffffffffffffffffffffffffffffffffffffffff838183161783525050505060405161012f91906104cf565b5f604051808303815f865af19150503d805f8114610168576040519150601f19603f3d011682016040523d82523d5f602084013e61016d565b606091505b5091509150816101b2576040517f08c379a00000000000000000000000000000000000000000000000000000000081526004016101a99061053f565b60405180910390fd5b8092505050919050565b5f8373ffffffffffffffffffffffffffffffffffffffff1683836040516024016101e792919061056c565b6040516020818303038152906040527f771602f7000000000000000000000000000000000000000000000000000000007bffffffffffffffffffffffffffffffffffffffffffffffffffffffff19166020820180517bffffffffffffffffffffffffffffffffffffffffffffffffffffffff838183161783525050505060405161027191906104cf565b5f604051808303815f865af19150503d805f81146102aa576040519150601f19603f3d011682016040523d82523d5f602084013e6102af565b606091505b50509050806102f3576040517f08c379a00000000000000000000000000000000000000000000000000000000081526004016102ea9061053f565b60405180910390fd5b50505050565b5f5ffd5b5f73ffffffffffffffffffffffffffffffffffffffff82169050919050565b5f610326826102fd565b9050919050565b6103368161031c565b8114610340575f5ffd5b50565b5f813590506103518161032d565b92915050565b5f6020828403121561036c5761036b6102f9565b5b5f61037984828501610343565b91505092915050565b5f81519050919050565b5f82825260208201905092915050565b8281835e5f83830152505050565b5f601f19601f8301169050919050565b5f6103c482610382565b6103ce818561038c565b93506103de81856020860161039c565b6103e7816103aa565b840191505092915050565b5f6020820190508181035f83015261040a81846103ba565b905092915050565b5f819050919050565b61042481610412565b811461042e575f5ffd5b50565b5f8135905061043f8161041b565b92915050565b5f5f5f6060848603121561045c5761045b6102f9565b5b5f61046986828701610343565b935050602061047a86828701610431565b925050604061048b86828701610431565b9150509250925092565b5f81905092915050565b5f6104a982610382565b6104b38185610495565b93506104c381856020860161039c565b80840191505092915050565b5f6104da828461049f565b915081905092915050565b5f82825260208201905092915050565b7f4661696c656400000000000000000000000000000000000000000000000000005f82015250565b5f6105296006836104e5565b9150610534826104f5565b602082019050919050565b5f6020820190508181035f8301526105568161051d565b9050919050565b61056681610412565b82525050565b5f60408201905061057f5f83018561055d565b61058c602083018461055d565b939250505056fea26469706673582212201ec16372ecacfca662ec5ceb65f1674869b4cab6aa3f83d9196cf6a63dffacf764736f6c634300081e0033",
					"opcodes": "PUSH1 0x80 PUSH1 0x40 MSTORE CALLVALUE DUP1 ISZERO PUSH1 0xE JUMPI PUSH0 PUSH0 REVERT JUMPDEST POP PUSH2 0x5C9 DUP1 PUSH2 0x1C PUSH0 CODECOPY PUSH0 RETURN INVALID PUSH1 0x80 PUSH1 0x40 MSTORE CALLVALUE DUP1 ISZERO PUSH2 0xF JUMPI PUSH0 PUSH0 REVERT JUMPDEST POP PUSH1 0x4 CALLDATASIZE LT PUSH2 0x34 JUMPI PUSH0 CALLDATALOAD PUSH1 0xE0 SHR DUP1 PUSH4 0x7302951B EQ PUSH2 0x38 JUMPI DUP1 PUSH4 0xE07F47BA EQ PUSH2 0x68 JUMPI JUMPDEST PUSH0 PUSH0 REVERT JUMPDEST PUSH2 0x52 PUSH1 0x4 DUP1 CALLDATASIZE SUB DUP2 ADD SWAP1 PUSH2 0x4D SWAP2 SWAP1 PUSH2 0x357 JUMP JUMPDEST PUSH2 0x84 JUMP JUMPDEST PUSH1 0x40 MLOAD PUSH2 0x5F SWAP2 SWAP1 PUSH2 0x3F2 JUMP JUMPDEST PUSH1 0x40 MLOAD DUP1 SWAP2 SUB SWAP1 RETURN JUMPDEST PUSH2 0x82 PUSH1 0x4 DUP1 CALLDATASIZE SUB DUP2 ADD SWAP1 PUSH2 0x7D SWAP2 SWAP1 PUSH2 0x445 JUMP JUMPDEST PUSH2 0x1BC JUMP JUMPDEST STOP JUMPDEST PUSH1 0x60 PUSH0 PUSH0 DUP4 PUSH20 0xFFFFFFFFFFFFFFFFFFFFFFFFFFFFFFFFFFFFFFFF AND PUSH1 0x40 MLOAD PUSH1 0x24 ADD PUSH1 0x40 MLOAD PUSH1 0x20 DUP2 DUP4 SUB SUB DUP2 MSTORE SWAP1 PUSH1 0x40 MSTORE PUSH32 0x1801A34600000000000000000000000000000000000000000000000000000000 PUSH28 0xFFFFFFFFFFFFFFFFFFFFFFFFFFFFFFFFFFFFFFFFFFFFFFFFFFFFFFFF NOT AND PUSH1 0x20 DUP3 ADD DUP1 MLOAD PUSH28 0xFFFFFFFFFFFFFFFFFFFFFFFFFFFFFFFFFFFFFFFFFFFFFFFFFFFFFFFF DUP4 DUP2 DUP4 AND OR DUP4 MSTORE POP POP POP POP PUSH1 0x40 MLOAD PUSH2 0x12F SWAP2 SWAP1 PUSH2 0x4CF JUMP JUMPDEST PUSH0 PUSH1 0x40 MLOAD DUP1 DUP4 SUB DUP2 PUSH0 DUP7 GAS CALL SWAP2 POP POP RETURNDATASIZE DUP1 PUSH0 DUP2 EQ PUSH2 0x168 JUMPI PUSH1 0x40 MLOAD SWAP2 POP PUSH1 0x1F NOT PUSH1 0x3F RETURNDATASIZE ADD AND DUP3 ADD PUSH1 0x40 MSTORE RETURNDATASIZE DUP3 MSTORE RETURNDATASIZE PUSH0 PUSH1 0x20 DUP5 ADD RETURNDATACOPY PUSH2 0x16D JUMP JUMPDEST PUSH1 0x60 SWAP2 POP JUMPDEST POP SWAP2 POP SWAP2 POP DUP2 PUSH2 0x1B2 JUMPI PUSH1 0x40 MLOAD PUSH32 0x8C379A000000000000000000000000000000000000000000000000000000000 DUP2 MSTORE PUSH1 0x4 ADD PUSH2 0x1A9 SWAP1 PUSH2 0x53F JUMP JUMPDEST PUSH1 0x40 MLOAD DUP1 SWAP2 SUB SWAP1 REVERT JUMPDEST DUP1 SWAP3 POP POP POP SWAP2 SWAP1 POP JUMP JUMPDEST PUSH0 DUP4 PUSH20 0xFFFFFFFFFFFFFFFFFFFFFFFFFFFFFFFFFFFFFFFF AND DUP4 DUP4 PUSH1 0x40 MLOAD PUSH1 0x24 ADD PUSH2 0x1E7 SWAP3 SWAP2 SWAP1 PUSH2 0x56C JUMP JUMPDEST PUSH1 0x40 MLOAD PUSH1 0x20 DUP2 DUP4 SUB SUB DUP2 MSTORE SWAP1 PUSH1 0x40 MSTORE PUSH32 0x771602F700000000000000000000000000000000000000000000000000000000 PUSH28 0xFFFFFFFFFFFFFFFFFFFFFFFFFFFFFFFFFFFFFFFFFFFFFFFFFFFFFFFF NOT AND PUSH1 0x20 DUP3 ADD DUP1 MLOAD PUSH28 0xFFFFFFFFFFFFFFFFFFFFFFFFFFFFFFFFFFFFFFFFFFFFFFFFFFFFFFFF DUP4 DUP2 DUP4 AND OR DUP4 MSTORE POP POP POP POP PUSH1 0x40 MLOAD PUSH2 0x271 SWAP2 SWAP1 PUSH2 0x4CF JUMP JUMPDEST PUSH0 PUSH1 0x40 MLOAD DUP1 DUP4 SUB DUP2 PUSH0 DUP7 GAS CALL SWAP2 POP POP RETURNDATASIZE DUP1 PUSH0 DUP2 EQ PUSH2 0x2AA JUMPI PUSH1 0x40 MLOAD SWAP2 POP PUSH1 0x1F NOT PUSH1 0x3F RETURNDATASIZE ADD AND DUP3 ADD PUSH1 0x40 MSTORE RETURNDATASIZE DUP3 MSTORE RETURNDATASIZE PUSH0 PUSH1 0x20 DUP5 ADD RETURNDATACOPY PUSH2 0x2AF JUMP JUMPDEST PUSH1 0x60 SWAP2 POP JUMPDEST POP POP SWAP1 POP DUP1 PUSH2 0x2F3 JUMPI PUSH1 0x40 MLOAD PUSH32 0x8C379A000000000000000000000000000000000000000000000000000000000 DUP2 MSTORE PUSH1 0x4 ADD PUSH2 0x2EA SWAP1 PUSH2 0x53F JUMP JUMPDEST PUSH1 0x40 MLOAD DUP1 SWAP2 SUB SWAP1 REVERT JUMPDEST POP POP POP POP JUMP JUMPDEST PUSH0 PUSH0 REVERT JUMPDEST PUSH0 PUSH20 0xFFFFFFFFFFFFFFFFFFFFFFFFFFFFFFFFFFFFFFFF DUP3 AND SWAP1 POP SWAP2 SWAP1 POP JUMP JUMPDEST PUSH0 PUSH2 0x326 DUP3 PUSH2 0x2FD JUMP JUMPDEST SWAP1 POP SWAP2 SWAP1 POP JUMP JUMPDEST PUSH2 0x336 DUP2 PUSH2 0x31C JUMP JUMPDEST DUP2 EQ PUSH2 0x340 JUMPI PUSH0 PUSH0 REVERT JUMPDEST POP JUMP JUMPDEST PUSH0 DUP2 CALLDATALOAD SWAP1 POP PUSH2 0x351 DUP2 PUSH2 0x32D JUMP JUMPDEST SWAP3 SWAP2 POP POP JUMP JUMPDEST PUSH0 PUSH1 0x20 DUP3 DUP5 SUB SLT ISZERO PUSH2 0x36C JUMPI PUSH2 0x36B PUSH2 0x2F9 JUMP JUMPDEST JUMPDEST PUSH0 PUSH2 0x379 DUP5 DUP3 DUP6 ADD PUSH2 0x343 JUMP JUMPDEST SWAP2 POP POP SWAP3 SWAP2 POP POP JUMP JUMPDEST PUSH0 DUP2 MLOAD SWAP1 POP SWAP2 SWAP1 POP JUMP JUMPDEST PUSH0 DUP3 DUP3 MSTORE PUSH1 0x20 DUP3 ADD SWAP1 POP SWAP3 SWAP2 POP POP JUMP JUMPDEST DUP3 DUP2 DUP4 MCOPY PUSH0 DUP4 DUP4 ADD MSTORE POP POP POP JUMP JUMPDEST PUSH0 PUSH1 0x1F NOT PUSH1 0x1F DUP4 ADD AND SWAP1 POP SWAP2 SWAP1 POP JUMP JUMPDEST PUSH0 PUSH2 0x3C4 DUP3 PUSH2 0x382 JUMP JUMPDEST PUSH2 0x3CE DUP2 DUP6 PUSH2 0x38C JUMP JUMPDEST SWAP4 POP PUSH2 0x3DE DUP2 DUP6 PUSH1 0x20 DUP7 ADD PUSH2 0x39C JUMP JUMPDEST PUSH2 0x3E7 DUP2 PUSH2 0x3AA JUMP JUMPDEST DUP5 ADD SWAP2 POP POP SWAP3 SWAP2 POP POP JUMP JUMPDEST PUSH0 PUSH1 0x20 DUP3 ADD SWAP1 POP DUP2 DUP2 SUB PUSH0 DUP4 ADD MSTORE PUSH2 0x40A DUP2 DUP5 PUSH2 0x3BA JUMP JUMPDEST SWAP1 POP SWAP3 SWAP2 POP POP JUMP JUMPDEST PUSH0 DUP2 SWAP1 POP SWAP2 SWAP1 POP JUMP JUMPDEST PUSH2 0x424 DUP2 PUSH2 0x412 JUMP JUMPDEST DUP2 EQ PUSH2 0x42E JUMPI PUSH0 PUSH0 REVERT JUMPDEST POP JUMP JUMPDEST PUSH0 DUP2 CALLDATALOAD SWAP1 POP PUSH2 0x43F DUP2 PUSH2 0x41B JUMP JUMPDEST SWAP3 SWAP2 POP POP JUMP JUMPDEST PUSH0 PUSH0 PUSH0 PUSH1 0x60 DUP5 DUP7 SUB SLT ISZERO PUSH2 0x45C JUMPI PUSH2 0x45B PUSH2 0x2F9 JUMP JUMPDEST JUMPDEST PUSH0 PUSH2 0x469 DUP7 DUP3 DUP8 ADD PUSH2 0x343 JUMP JUMPDEST SWAP4 POP POP PUSH1 0x20 PUSH2 0x47A DUP7 DUP3 DUP8 ADD PUSH2 0x431 JUMP JUMPDEST SWAP3 POP POP PUSH1 0x40 PUSH2 0x48B DUP7 DUP3 DUP8 ADD PUSH2 0x431 JUMP JUMPDEST SWAP2 POP POP SWAP3 POP SWAP3 POP SWAP3 JUMP JUMPDEST PUSH0 DUP2 SWAP1 POP SWAP3 SWAP2 POP POP JUMP JUMPDEST PUSH0 PUSH2 0x4A9 DUP3 PUSH2 0x382 JUMP JUMPDEST PUSH2 0x4B3 DUP2 DUP6 PUSH2 0x495 JUMP JUMPDEST SWAP4 POP PUSH2 0x4C3 DUP2 DUP6 PUSH1 0x20 DUP7 ADD PUSH2 0x39C JUMP JUMPDEST DUP1 DUP5 ADD SWAP2 POP POP SWAP3 SWAP2 POP POP JUMP JUMPDEST PUSH0 PUSH2 0x4DA DUP3 DUP5 PUSH2 0x49F JUMP JUMPDEST SWAP2 POP DUP2 SWAP1 POP SWAP3 SWAP2 POP POP JUMP JUMPDEST PUSH0 DUP3 DUP3 MSTORE PUSH1 0x20 DUP3 ADD SWAP1 POP SWAP3 SWAP2 POP POP JUMP JUMPDEST PUSH32 0x4661696C65640000000000000000000000000000000000000000000000000000 PUSH0 DUP3 ADD MSTORE POP JUMP JUMPDEST PUSH0 PUSH2 0x529 PUSH1 0x6 DUP4 PUSH2 0x4E5 JUMP JUMPDEST SWAP2 POP PUSH2 0x534 DUP3 PUSH2 0x4F5 JUMP JUMPDEST PUSH1 0x20 DUP3 ADD SWAP1 POP SWAP2 SWAP1 POP JUMP JUMPDEST PUSH0 PUSH1 0x20 DUP3 ADD SWAP1 POP DUP2 DUP2 SUB PUSH0 DUP4 ADD MSTORE PUSH2 0x556 DUP2 PUSH2 0x51D JUMP JUMPDEST SWAP1 POP SWAP2 SWAP1 POP JUMP JUMPDEST PUSH2 0x566 DUP2 PUSH2 0x412 JUMP JUMPDEST DUP3 MSTORE POP POP JUMP JUMPDEST PUSH0 PUSH1 0x40 DUP3 ADD SWAP1 POP PUSH2 0x57F PUSH0 DUP4 ADD DUP6 PUSH2 0x55D JUMP JUMPDEST PUSH2 0x58C PUSH1 0x20 DUP4 ADD DUP5 PUSH2 0x55D JUMP JUMPDEST SWAP4 SWAP3 POP POP POP JUMP INVALID LOG2 PUSH5 0x6970667358 0x22 SLT KECCAK256 0x1E 0xC1 PUSH4 0x72ECACFC 0xA6 PUSH3 0xEC5CEB PUSH6 0xF1674869B4CA 0xB6 0xAA EXTCODEHASH DUP4 0xD9 NOT PUSH13 0xF6A63DFFACF764736F6C634300 ADDMOD 0x1E STOP CALLER "
				},
				"gasEstimates": {
					"creation": {
						"codeDepositCost": "296200",
						"executionCost": "335",
						"totalCost": "296535"
					},
					"external": {
						"addButtons(address,uint256,uint256)": "infinite",
						"showResult(address)": "infinite"
					}
				},
				"methodIdentifiers": {
					"addButtons(address,uint256,uint256)": "e07f47ba",
					"showResult(address)": "7302951b"
				}
			},
			"storageLayout": {
				"storage": [],
				"types": null
			},
			"userdoc": {
				"kind": "user",
				"methods": {},
				"version": 1
			}
		}
	}
}