{
	"overflow_underflow/Ex6_16.sol": {
		"Ex6_16": {
			"abi": [
				{
					"anonymous": false,
					"inputs": [
						{
							"indexed": false,
							"internalType": "address",
							"name": "from",
							"type": "address"
						},
						{
							"indexed": false,
							"internalType": "uint256",
							"name": "amount",
							"type": "uint256"
						}
					],
					"name": "Obtain",
					"type": "event"
				},
				{
					"inputs": [],
					"name": "getBalance",
					"outputs": [
						{
							"internalType": "uint256",
							"name": "",
							"type": "uint256"
						}
					],
					"stateMutability": "view",
					"type": "function"
				},
				{
					"inputs": [],
					"name": "sendEther",
					"outputs": [],
					"stateMutability": "payable",
					"type": "function"
				},
				{
					"stateMutability": "payable",
					"type": "receive"
				}
			],
			"devdoc": {
				"kind": "dev",
				"methods": {},
				"version": 1
			},
			"evm": {
				"assembly": "    /* \"overflow_underflow/Ex6_16.sol\":72:376  contract Ex6_16 {\r... */\n  mstore(0x40, 0x80)\n  callvalue\n  dup1\n  iszero\n  tag_1\n  jumpi\n  0x00\n  dup1\n  revert\ntag_1:\n  pop\n  dataSize(sub_0)\n  dup1\n  dataOffset(sub_0)\n  0x00\n  codecopy\n  0x00\n  return\nstop\n\nsub_0: assembly {\n        /* \"overflow_underflow/Ex6_16.sol\":72:376  contract Ex6_16 {\r... */\n      mstore(0x40, 0x80)\n      jumpi(tag_1, lt(calldatasize, 0x04))\n      shr(0xe0, calldataload(0x00))\n      dup1\n      0x0e29df22\n      eq\n      tag_3\n      jumpi\n      dup1\n      0x12065fe0\n      eq\n      tag_4\n      jumpi\n      jump(tag_2)\n    tag_1:\n      jumpi(tag_2, calldatasize)\n        /* \"overflow_underflow/Ex6_16.sol\":168:197  Obtain(msg.sender, msg.value) */\n      0x0368838220383a15f8cb55f018fd7c72a2a7b39241ce69b3633d92b2dcb3aca7\n        /* \"overflow_underflow/Ex6_16.sol\":175:185  msg.sender */\n      caller\n        /* \"overflow_underflow/Ex6_16.sol\":187:196  msg.value */\n      callvalue\n        /* \"overflow_underflow/Ex6_16.sol\":168:197  Obtain(msg.sender, msg.value) */\n      mload(0x40)\n      dup1\n      dup4\n      0xffffffffffffffffffffffffffffffffffffffff\n      and\n      dup2\n      mstore\n      0x20\n      add\n      dup3\n      dup2\n      mstore\n      0x20\n      add\n      swap3\n      pop\n      pop\n      pop\n      mload(0x40)\n      dup1\n      swap2\n      sub\n      swap1\n      log1\n        /* \"overflow_underflow/Ex6_16.sol\":72:376  contract Ex6_16 {\r... */\n      stop\n    tag_2:\n      0x00\n      dup1\n      revert\n        /* \"overflow_underflow/Ex6_16.sol\":288:373  function sendEther() public payable {\r... */\n    tag_3:\n      tag_7\n      tag_8\n      jump\t// in\n    tag_7:\n      stop\n        /* \"overflow_underflow/Ex6_16.sol\":203:286  function getBalance() public view returns(uint) {\r... */\n    tag_4:\n      callvalue\n      dup1\n      iszero\n      tag_9\n      jumpi\n      0x00\n      dup1\n      revert\n    tag_9:\n      pop\n      tag_10\n      tag_11\n      jump\t// in\n    tag_10:\n      mload(0x40)\n      dup1\n      dup3\n      dup2\n      mstore\n      0x20\n      add\n      swap2\n      pop\n      pop\n      mload(0x40)\n      dup1\n      swap2\n      sub\n      swap1\n      return\n        /* \"overflow_underflow/Ex6_16.sol\":288:373  function sendEther() public payable {\r... */\n    tag_8:\n        /* \"overflow_underflow/Ex6_16.sol\":343:347  this */\n      address\n        /* \"overflow_underflow/Ex6_16.sol\":327:358  payable(address(this)).transfer */\n      0xffffffffffffffffffffffffffffffffffffffff\n      and\n        /* \"overflow_underflow/Ex6_16.sol\":327:369  payable(address(this)).transfer(msg.value) */\n      0x08fc\n        /* \"overflow_underflow/Ex6_16.sol\":359:368  msg.value */\n      callvalue\n        /* \"overflow_underflow/Ex6_16.sol\":327:369  payable(address(this)).transfer(msg.value) */\n      swap1\n      dup2\n      iszero\n      mul\n      swap1\n      mload(0x40)\n      0x00\n      mload(0x40)\n      dup1\n      dup4\n      sub\n      dup2\n      dup6\n      dup9\n      dup9\n      call\n      swap4\n      pop\n      pop\n      pop\n      pop\n      iszero\n      dup1\n      iszero\n      tag_14\n      jumpi\n      returndatasize\n      0x00\n      dup1\n      returndatacopy\n      revert(0x00, returndatasize)\n    tag_14:\n      pop\n        /* \"overflow_underflow/Ex6_16.sol\":288:373  function sendEther() public payable {\r... */\n      jump\t// out\n        /* \"overflow_underflow/Ex6_16.sol\":203:286  function getBalance() public view returns(uint) {\r... */\n    tag_11:\n        /* \"overflow_underflow/Ex6_16.sol\":245:249  uint */\n      0x00\n        /* \"overflow_underflow/Ex6_16.sol\":261:282  address(this).balance */\n      selfbalance\n        /* \"overflow_underflow/Ex6_16.sol\":254:282  return address(this).balance */\n      swap1\n      pop\n        /* \"overflow_underflow/Ex6_16.sol\":203:286  function getBalance() public view returns(uint) {\r... */\n      swap1\n      jump\t// out\n\n    auxdata: 0xa2646970667358221220d47f96c17b21bfb329eaaa322ec50ee2c52d62c0cb59901a0afafeb332e5582064736f6c63430007060033\n}\n",
				"bytecode": {
					"linkReferences": {},
					"object": "608060405234801561001057600080fd5b5061014a806100206000396000f3fe60806040526004361061002d5760003560e01c80630e29df221461008e57806312065fe01461009857610089565b36610089577f0368838220383a15f8cb55f018fd7c72a2a7b39241ce69b3633d92b2dcb3aca73334604051808373ffffffffffffffffffffffffffffffffffffffff1681526020018281526020019250505060405180910390a1005b600080fd5b6100966100c3565b005b3480156100a457600080fd5b506100ad61010c565b6040518082815260200191505060405180910390f35b3073ffffffffffffffffffffffffffffffffffffffff166108fc349081150290604051600060405180830381858888f19350505050158015610109573d6000803e3d6000fd5b50565b60004790509056fea2646970667358221220d47f96c17b21bfb329eaaa322ec50ee2c52d62c0cb59901a0afafeb332e5582064736f6c63430007060033",
					"opcodes": "PUSH1 0x80 PUSH1 0x40 MSTORE CALLVALUE DUP1 ISZERO PUSH2 0x10 JUMPI PUSH1 0x0 DUP1 REVERT JUMPDEST POP PUSH2 0x14A DUP1 PUSH2 0x20 PUSH1 0x0 CODECOPY PUSH1 0x0 RETURN INVALID PUSH1 0x80 PUSH1 0x40 MSTORE PUSH1 0x4 CALLDATASIZE LT PUSH2 0x2D JUMPI PUSH1 0x0 CALLDATALOAD PUSH1 0xE0 SHR DUP1 PUSH4 0xE29DF22 EQ PUSH2 0x8E JUMPI DUP1 PUSH4 0x12065FE0 EQ PUSH2 0x98 JUMPI PUSH2 0x89 JUMP JUMPDEST CALLDATASIZE PUSH2 0x89 JUMPI PUSH32 0x368838220383A15F8CB55F018FD7C72A2A7B39241CE69B3633D92B2DCB3ACA7 CALLER CALLVALUE PUSH1 0x40 MLOAD DUP1 DUP4 PUSH20 0xFFFFFFFFFFFFFFFFFFFFFFFFFFFFFFFFFFFFFFFF AND DUP2 MSTORE PUSH1 0x20 ADD DUP3 DUP2 MSTORE PUSH1 0x20 ADD SWAP3 POP POP POP PUSH1 0x40 MLOAD DUP1 SWAP2 SUB SWAP1 LOG1 STOP JUMPDEST PUSH1 0x0 DUP1 REVERT JUMPDEST PUSH2 0x96 PUSH2 0xC3 JUMP JUMPDEST STOP JUMPDEST CALLVALUE DUP1 ISZERO PUSH2 0xA4 JUMPI PUSH1 0x0 DUP1 REVERT JUMPDEST POP PUSH2 0xAD PUSH2 0x10C JUMP JUMPDEST PUSH1 0x40 MLOAD DUP1 DUP3 DUP2 MSTORE PUSH1 0x20 ADD SWAP2 POP POP PUSH1 0x40 MLOAD DUP1 SWAP2 SUB SWAP1 RETURN JUMPDEST ADDRESS PUSH20 0xFFFFFFFFFFFFFFFFFFFFFFFFFFFFFFFFFFFFFFFF AND PUSH2 0x8FC CALLVALUE SWAP1 DUP2 ISZERO MUL SWAP1 PUSH1 0x40 MLOAD PUSH1 0x0 PUSH1 0x40 MLOAD DUP1 DUP4 SUB DUP2 DUP6 DUP9 DUP9 CALL SWAP4 POP POP POP POP ISZERO DUP1 ISZERO PUSH2 0x109 JUMPI RETURNDATASIZE PUSH1 0x0 DUP1 RETURNDATACOPY RETURNDATASIZE PUSH1 0x0 REVERT JUMPDEST POP JUMP JUMPDEST PUSH1 0x0 SELFBALANCE SWAP1 POP SWAP1 JUMP INVALID LOG2 PUSH5 0x6970667358 0x22 SLT KECCAK256 0xD4 PUSH32 0x96C17B21BFB329EAAA322EC50EE2C52D62C0CB59901A0AFAFEB332E558206473 PUSH16 0x6C634300070600330000000000000000 "
				},
				"gasEstimates": {
					"creation": {
						"codeDepositCost": "66000",
						"executionCost": "117",
						"totalCost": "66117"
					},
					"external": {
						"getBalance()": "215",
						"sendEther()": "infinite"
					}
				},
				"methodIdentifiers": {
					"getBalance()": "12065fe0",
					"sendEther()": "0e29df22"
				}
			},
			"storageLayout": {
				"storage": [],
				"types": null
			},
			"userdoc": {
				"kind": "user",
				"methods": {},
				"version": 1
			}
		}
	}
}