{
	"DAO_attack.sol": {
		"SimpleDAO": {
			"abi": [
				{
					"inputs": [
						{
							"internalType": "address",
							"name": "",
							"type": "address"
						}
					],
					"name": "balances",
					"outputs": [
						{
							"internalType": "uint256",
							"name": "",
							"type": "uint256"
						}
					],
					"stateMutability": "view",
					"type": "function"
				},
				{
					"inputs": [],
					"name": "deposit",
					"outputs": [],
					"stateMutability": "payable",
					"type": "function"
				},
				{
					"inputs": [],
					"name": "getBalance",
					"outputs": [
						{
							"internalType": "uint256",
							"name": "",
							"type": "uint256"
						}
					],
					"stateMutability": "view",
					"type": "function"
				},
				{
					"inputs": [],
					"name": "withdraw",
					"outputs": [],
					"stateMutability": "nonpayable",
					"type": "function"
				}
			],
			"devdoc": {
				"kind": "dev",
				"methods": {},
				"version": 1
			},
			"evm": {
				"assembly": "    /* \"DAO_attack.sol\":61:603  contract SimpleDAO... */\n  mstore(0x40, 0x80)\n  callvalue\n  dup1\n  iszero\n  tag_1\n  jumpi\n  revert(0x00, 0x00)\ntag_1:\n  pop\n  dataSize(sub_0)\n  dup1\n  dataOffset(sub_0)\n  0x00\n  codecopy\n  0x00\n  return\nstop\n\nsub_0: assembly {\n        /* \"DAO_attack.sol\":61:603  contract SimpleDAO... */\n      mstore(0x40, 0x80)\n      jumpi(tag_1, lt(calldatasize, 0x04))\n      shr(0xe0, calldataload(0x00))\n      dup1\n      0x12065fe0\n      eq\n      tag_2\n      jumpi\n      dup1\n      0x27e235e3\n      eq\n      tag_3\n      jumpi\n      dup1\n      0x3ccfd60b\n      eq\n      tag_4\n      jumpi\n      dup1\n      0xd0e30db0\n      eq\n      tag_5\n      jumpi\n    tag_1:\n      revert(0x00, 0x00)\n        /* \"DAO_attack.sol\":499:600  function getBalance() public view returns (uint)... */\n    tag_2:\n      callvalue\n      dup1\n      iszero\n      tag_6\n      jumpi\n      revert(0x00, 0x00)\n    tag_6:\n      pop\n      tag_7\n      tag_8\n      jump\t// in\n    tag_7:\n      mload(0x40)\n      tag_9\n      swap2\n      swap1\n      tag_10\n      jump\t// in\n    tag_9:\n      mload(0x40)\n      dup1\n      swap2\n      sub\n      swap1\n      return\n        /* \"DAO_attack.sol\":88:128  mapping(address => uint) public balances */\n    tag_3:\n      callvalue\n      dup1\n      iszero\n      tag_11\n      jumpi\n      revert(0x00, 0x00)\n    tag_11:\n      pop\n      tag_12\n      0x04\n      dup1\n      calldatasize\n      sub\n      dup2\n      add\n      swap1\n      tag_13\n      swap2\n      swap1\n      tag_14\n      jump\t// in\n    tag_13:\n      tag_15\n      jump\t// in\n    tag_12:\n      mload(0x40)\n      tag_16\n      swap2\n      swap1\n      tag_10\n      jump\t// in\n    tag_16:\n      mload(0x40)\n      dup1\n      swap2\n      sub\n      swap1\n      return\n        /* \"DAO_attack.sol\":236:491  function withdraw() public ... */\n    tag_4:\n      callvalue\n      dup1\n      iszero\n      tag_17\n      jumpi\n      revert(0x00, 0x00)\n    tag_17:\n      pop\n      tag_18\n      tag_19\n      jump\t// in\n    tag_18:\n      stop\n        /* \"DAO_attack.sol\":137:228  function deposit() public payable ... */\n    tag_5:\n      tag_20\n      tag_21\n      jump\t// in\n    tag_20:\n      stop\n        /* \"DAO_attack.sol\":499:600  function getBalance() public view returns (uint)... */\n    tag_8:\n        /* \"DAO_attack.sol\":542:546  uint */\n      0x00\n        /* \"DAO_attack.sol\":571:592  address(this).balance */\n      selfbalance\n        /* \"DAO_attack.sol\":564:592  return address(this).balance */\n      swap1\n      pop\n        /* \"DAO_attack.sol\":499:600  function getBalance() public view returns (uint)... */\n      swap1\n      jump\t// out\n        /* \"DAO_attack.sol\":88:128  mapping(address => uint) public balances */\n    tag_15:\n      mstore(0x20, 0x00)\n      dup1\n      0x00\n      mstore\n      keccak256(0x00, 0x40)\n      0x00\n      swap2\n      pop\n      swap1\n      pop\n      sload\n      dup2\n      jump\t// out\n        /* \"DAO_attack.sol\":236:491  function withdraw() public ... */\n    tag_19:\n        /* \"DAO_attack.sol\":280:288  uint bal */\n      0x00\n        /* \"DAO_attack.sol\":291:299  balances */\n      0x00\n        /* \"DAO_attack.sol\":291:311  balances[msg.sender] */\n      0x00\n        /* \"DAO_attack.sol\":300:310  msg.sender */\n      caller\n        /* \"DAO_attack.sol\":291:311  balances[msg.sender] */\n      0xffffffffffffffffffffffffffffffffffffffff\n      and\n      0xffffffffffffffffffffffffffffffffffffffff\n      and\n      dup2\n      mstore\n      0x20\n      add\n      swap1\n      dup2\n      mstore\n      0x20\n      add\n      0x00\n      keccak256\n      sload\n        /* \"DAO_attack.sol\":280:311  uint bal = balances[msg.sender] */\n      swap1\n      pop\n        /* \"DAO_attack.sol\":336:337  0 */\n      0x00\n        /* \"DAO_attack.sol\":330:333  bal */\n      dup2\n        /* \"DAO_attack.sol\":330:337  bal > 0 */\n      gt\n        /* \"DAO_attack.sol\":322:338  require(bal > 0) */\n      tag_24\n      jumpi\n      revert(0x00, 0x00)\n    tag_24:\n        /* \"DAO_attack.sol\":352:361  bool sent */\n      0x00\n        /* \"DAO_attack.sol\":367:377  msg.sender */\n      caller\n        /* \"DAO_attack.sol\":367:382  msg.sender.call */\n      0xffffffffffffffffffffffffffffffffffffffff\n      and\n        /* \"DAO_attack.sol\":390:393  bal */\n      dup3\n        /* \"DAO_attack.sol\":367:398  msg.sender.call{value: bal}(\"\") */\n      mload(0x40)\n      tag_25\n      swap1\n      tag_26\n      jump\t// in\n    tag_25:\n      0x00\n      mload(0x40)\n      dup1\n      dup4\n      sub\n      dup2\n      dup6\n      dup8\n      gas\n      call\n      swap3\n      pop\n      pop\n      pop\n      returndatasize\n      dup1\n      0x00\n      dup2\n      eq\n      tag_29\n      jumpi\n      mload(0x40)\n      swap2\n      pop\n      and(add(returndatasize, 0x3f), not(0x1f))\n      dup3\n      add\n      0x40\n      mstore\n      returndatasize\n      dup3\n      mstore\n      returndatasize\n      0x00\n      0x20\n      dup5\n      add\n      returndatacopy\n      jump(tag_28)\n    tag_29:\n      0x60\n      swap2\n      pop\n    tag_28:\n      pop\n        /* \"DAO_attack.sol\":351:398  (bool sent, ) = msg.sender.call{value: bal}(\"\") */\n      pop\n      swap1\n      pop\n        /* \"DAO_attack.sol\":417:421  sent */\n      dup1\n        /* \"DAO_attack.sol\":409:446  require(sent, \"Failed to send Ether\") */\n      tag_30\n      jumpi\n      mload(0x40)\n      0x08c379a000000000000000000000000000000000000000000000000000000000\n      dup2\n      mstore\n      0x04\n      add\n      tag_31\n      swap1\n      tag_32\n      jump\t// in\n    tag_31:\n      mload(0x40)\n      dup1\n      swap2\n      sub\n      swap1\n      revert\n    tag_30:\n        /* \"DAO_attack.sol\":482:483  0 */\n      0x00\n        /* \"DAO_attack.sol\":459:467  balances */\n      0x00\n        /* \"DAO_attack.sol\":459:479  balances[msg.sender] */\n      0x00\n        /* \"DAO_attack.sol\":468:478  msg.sender */\n      caller\n        /* \"DAO_attack.sol\":459:479  balances[msg.sender] */\n      0xffffffffffffffffffffffffffffffffffffffff\n      and\n      0xffffffffffffffffffffffffffffffffffffffff\n      and\n      dup2\n      mstore\n      0x20\n      add\n      swap1\n      dup2\n      mstore\n      0x20\n      add\n      0x00\n      keccak256\n        /* \"DAO_attack.sol\":459:483  balances[msg.sender] = 0 */\n      dup2\n      swap1\n      sstore\n      pop\n        /* \"DAO_attack.sol\":269:491  {... */\n      pop\n      pop\n        /* \"DAO_attack.sol\":236:491  function withdraw() public ... */\n      jump\t// out\n        /* \"DAO_attack.sol\":137:228  function deposit() public payable ... */\n    tag_21:\n        /* \"DAO_attack.sol\":211:220  msg.value */\n      callvalue\n        /* \"DAO_attack.sol\":188:196  balances */\n      0x00\n        /* \"DAO_attack.sol\":188:208  balances[msg.sender] */\n      0x00\n        /* \"DAO_attack.sol\":197:207  msg.sender */\n      caller\n        /* \"DAO_attack.sol\":188:208  balances[msg.sender] */\n      0xffffffffffffffffffffffffffffffffffffffff\n      and\n      0xffffffffffffffffffffffffffffffffffffffff\n      and\n      dup2\n      mstore\n      0x20\n      add\n      swap1\n      dup2\n      mstore\n      0x20\n      add\n      0x00\n      keccak256\n        /* \"DAO_attack.sol\":188:220  balances[msg.sender] = msg.value */\n      dup2\n      swap1\n      sstore\n      pop\n        /* \"DAO_attack.sol\":137:228  function deposit() public payable ... */\n      jump\t// out\n        /* \"#utility.yul\":7:84   */\n    tag_34:\n        /* \"#utility.yul\":44:51   */\n      0x00\n        /* \"#utility.yul\":73:78   */\n      dup2\n        /* \"#utility.yul\":62:78   */\n      swap1\n      pop\n        /* \"#utility.yul\":7:84   */\n      swap2\n      swap1\n      pop\n      jump\t// out\n        /* \"#utility.yul\":90:208   */\n    tag_35:\n        /* \"#utility.yul\":177:201   */\n      tag_52\n        /* \"#utility.yul\":195:200   */\n      dup2\n        /* \"#utility.yul\":177:201   */\n      tag_34\n      jump\t// in\n    tag_52:\n        /* \"#utility.yul\":172:175   */\n      dup3\n        /* \"#utility.yul\":165:202   */\n      mstore\n        /* \"#utility.yul\":90:208   */\n      pop\n      pop\n      jump\t// out\n        /* \"#utility.yul\":214:436   */\n    tag_10:\n        /* \"#utility.yul\":307:311   */\n      0x00\n        /* \"#utility.yul\":345:347   */\n      0x20\n        /* \"#utility.yul\":334:343   */\n      dup3\n        /* \"#utility.yul\":330:348   */\n      add\n        /* \"#utility.yul\":322:348   */\n      swap1\n      pop\n        /* \"#utility.yul\":358:429   */\n      tag_54\n        /* \"#utility.yul\":426:427   */\n      0x00\n        /* \"#utility.yul\":415:424   */\n      dup4\n        /* \"#utility.yul\":411:428   */\n      add\n        /* \"#utility.yul\":402:408   */\n      dup5\n        /* \"#utility.yul\":358:429   */\n      tag_35\n      jump\t// in\n    tag_54:\n        /* \"#utility.yul\":214:436   */\n      swap3\n      swap2\n      pop\n      pop\n      jump\t// out\n        /* \"#utility.yul\":523:640   */\n    tag_37:\n        /* \"#utility.yul\":632:633   */\n      0x00\n        /* \"#utility.yul\":629:630   */\n      0x00\n        /* \"#utility.yul\":622:634   */\n      revert\n        /* \"#utility.yul\":769:895   */\n    tag_39:\n        /* \"#utility.yul\":806:813   */\n      0x00\n        /* \"#utility.yul\":846:888   */\n      0xffffffffffffffffffffffffffffffffffffffff\n        /* \"#utility.yul\":839:844   */\n      dup3\n        /* \"#utility.yul\":835:889   */\n      and\n        /* \"#utility.yul\":824:889   */\n      swap1\n      pop\n        /* \"#utility.yul\":769:895   */\n      swap2\n      swap1\n      pop\n      jump\t// out\n        /* \"#utility.yul\":901:997   */\n    tag_40:\n        /* \"#utility.yul\":938:945   */\n      0x00\n        /* \"#utility.yul\":967:991   */\n      tag_60\n        /* \"#utility.yul\":985:990   */\n      dup3\n        /* \"#utility.yul\":967:991   */\n      tag_39\n      jump\t// in\n    tag_60:\n        /* \"#utility.yul\":956:991   */\n      swap1\n      pop\n        /* \"#utility.yul\":901:997   */\n      swap2\n      swap1\n      pop\n      jump\t// out\n        /* \"#utility.yul\":1003:1125   */\n    tag_41:\n        /* \"#utility.yul\":1076:1100   */\n      tag_62\n        /* \"#utility.yul\":1094:1099   */\n      dup2\n        /* \"#utility.yul\":1076:1100   */\n      tag_40\n      jump\t// in\n    tag_62:\n        /* \"#utility.yul\":1069:1074   */\n      dup2\n        /* \"#utility.yul\":1066:1101   */\n      eq\n        /* \"#utility.yul\":1056:1119   */\n      tag_63\n      jumpi\n        /* \"#utility.yul\":1115:1116   */\n      0x00\n        /* \"#utility.yul\":1112:1113   */\n      0x00\n        /* \"#utility.yul\":1105:1117   */\n      revert\n        /* \"#utility.yul\":1056:1119   */\n    tag_63:\n        /* \"#utility.yul\":1003:1125   */\n      pop\n      jump\t// out\n        /* \"#utility.yul\":1131:1270   */\n    tag_42:\n        /* \"#utility.yul\":1177:1182   */\n      0x00\n        /* \"#utility.yul\":1215:1221   */\n      dup2\n        /* \"#utility.yul\":1202:1222   */\n      calldataload\n        /* \"#utility.yul\":1193:1222   */\n      swap1\n      pop\n        /* \"#utility.yul\":1231:1264   */\n      tag_65\n        /* \"#utility.yul\":1258:1263   */\n      dup2\n        /* \"#utility.yul\":1231:1264   */\n      tag_41\n      jump\t// in\n    tag_65:\n        /* \"#utility.yul\":1131:1270   */\n      swap3\n      swap2\n      pop\n      pop\n      jump\t// out\n        /* \"#utility.yul\":1276:1605   */\n    tag_14:\n        /* \"#utility.yul\":1335:1341   */\n      0x00\n        /* \"#utility.yul\":1384:1386   */\n      0x20\n        /* \"#utility.yul\":1372:1381   */\n      dup3\n        /* \"#utility.yul\":1363:1370   */\n      dup5\n        /* \"#utility.yul\":1359:1382   */\n      sub\n        /* \"#utility.yul\":1355:1387   */\n      slt\n        /* \"#utility.yul\":1352:1471   */\n      iszero\n      tag_67\n      jumpi\n        /* \"#utility.yul\":1390:1469   */\n      tag_68\n      tag_37\n      jump\t// in\n    tag_68:\n        /* \"#utility.yul\":1352:1471   */\n    tag_67:\n        /* \"#utility.yul\":1510:1511   */\n      0x00\n        /* \"#utility.yul\":1535:1588   */\n      tag_69\n        /* \"#utility.yul\":1580:1587   */\n      dup5\n        /* \"#utility.yul\":1571:1577   */\n      dup3\n        /* \"#utility.yul\":1560:1569   */\n      dup6\n        /* \"#utility.yul\":1556:1578   */\n      add\n        /* \"#utility.yul\":1535:1588   */\n      tag_42\n      jump\t// in\n    tag_69:\n        /* \"#utility.yul\":1525:1588   */\n      swap2\n      pop\n        /* \"#utility.yul\":1481:1598   */\n      pop\n        /* \"#utility.yul\":1276:1605   */\n      swap3\n      swap2\n      pop\n      pop\n      jump\t// out\n        /* \"#utility.yul\":1611:1758   */\n    tag_43:\n        /* \"#utility.yul\":1712:1723   */\n      0x00\n        /* \"#utility.yul\":1749:1752   */\n      dup2\n        /* \"#utility.yul\":1734:1752   */\n      swap1\n      pop\n        /* \"#utility.yul\":1611:1758   */\n      swap3\n      swap2\n      pop\n      pop\n      jump\t// out\n        /* \"#utility.yul\":1764:1878   */\n    tag_44:\n      pop\n      jump\t// out\n        /* \"#utility.yul\":1884:2282   */\n    tag_45:\n        /* \"#utility.yul\":2043:2046   */\n      0x00\n        /* \"#utility.yul\":2064:2147   */\n      tag_73\n        /* \"#utility.yul\":2145:2146   */\n      0x00\n        /* \"#utility.yul\":2140:2143   */\n      dup4\n        /* \"#utility.yul\":2064:2147   */\n      tag_43\n      jump\t// in\n    tag_73:\n        /* \"#utility.yul\":2057:2147   */\n      swap2\n      pop\n        /* \"#utility.yul\":2156:2249   */\n      tag_74\n        /* \"#utility.yul\":2245:2248   */\n      dup3\n        /* \"#utility.yul\":2156:2249   */\n      tag_44\n      jump\t// in\n    tag_74:\n        /* \"#utility.yul\":2274:2275   */\n      0x00\n        /* \"#utility.yul\":2269:2272   */\n      dup3\n        /* \"#utility.yul\":2265:2276   */\n      add\n        /* \"#utility.yul\":2258:2276   */\n      swap1\n      pop\n        /* \"#utility.yul\":1884:2282   */\n      swap2\n      swap1\n      pop\n      jump\t// out\n        /* \"#utility.yul\":2288:2667   */\n    tag_26:\n        /* \"#utility.yul\":2472:2475   */\n      0x00\n        /* \"#utility.yul\":2494:2641   */\n      tag_76\n        /* \"#utility.yul\":2637:2640   */\n      dup3\n        /* \"#utility.yul\":2494:2641   */\n      tag_45\n      jump\t// in\n    tag_76:\n        /* \"#utility.yul\":2487:2641   */\n      swap2\n      pop\n        /* \"#utility.yul\":2658:2661   */\n      dup2\n        /* \"#utility.yul\":2651:2661   */\n      swap1\n      pop\n        /* \"#utility.yul\":2288:2667   */\n      swap2\n      swap1\n      pop\n      jump\t// out\n        /* \"#utility.yul\":2673:2842   */\n    tag_46:\n        /* \"#utility.yul\":2757:2768   */\n      0x00\n        /* \"#utility.yul\":2791:2797   */\n      dup3\n        /* \"#utility.yul\":2786:2789   */\n      dup3\n        /* \"#utility.yul\":2779:2798   */\n      mstore\n        /* \"#utility.yul\":2831:2835   */\n      0x20\n        /* \"#utility.yul\":2826:2829   */\n      dup3\n        /* \"#utility.yul\":2822:2836   */\n      add\n        /* \"#utility.yul\":2807:2836   */\n      swap1\n      pop\n        /* \"#utility.yul\":2673:2842   */\n      swap3\n      swap2\n      pop\n      pop\n      jump\t// out\n        /* \"#utility.yul\":2848:3018   */\n    tag_47:\n        /* \"#utility.yul\":2988:3010   */\n      0x4661696c656420746f2073656e64204574686572000000000000000000000000\n        /* \"#utility.yul\":2984:2985   */\n      0x00\n        /* \"#utility.yul\":2976:2982   */\n      dup3\n        /* \"#utility.yul\":2972:2986   */\n      add\n        /* \"#utility.yul\":2965:3011   */\n      mstore\n        /* \"#utility.yul\":2848:3018   */\n      pop\n      jump\t// out\n        /* \"#utility.yul\":3024:3390   */\n    tag_48:\n        /* \"#utility.yul\":3166:3169   */\n      0x00\n        /* \"#utility.yul\":3187:3254   */\n      tag_80\n        /* \"#utility.yul\":3251:3253   */\n      0x14\n        /* \"#utility.yul\":3246:3249   */\n      dup4\n        /* \"#utility.yul\":3187:3254   */\n      tag_46\n      jump\t// in\n    tag_80:\n        /* \"#utility.yul\":3180:3254   */\n      swap2\n      pop\n        /* \"#utility.yul\":3263:3356   */\n      tag_81\n        /* \"#utility.yul\":3352:3355   */\n      dup3\n        /* \"#utility.yul\":3263:3356   */\n      tag_47\n      jump\t// in\n    tag_81:\n        /* \"#utility.yul\":3381:3383   */\n      0x20\n        /* \"#utility.yul\":3376:3379   */\n      dup3\n        /* \"#utility.yul\":3372:3384   */\n      add\n        /* \"#utility.yul\":3365:3384   */\n      swap1\n      pop\n        /* \"#utility.yul\":3024:3390   */\n      swap2\n      swap1\n      pop\n      jump\t// out\n        /* \"#utility.yul\":3396:3815   */\n    tag_32:\n        /* \"#utility.yul\":3562:3566   */\n      0x00\n        /* \"#utility.yul\":3600:3602   */\n      0x20\n        /* \"#utility.yul\":3589:3598   */\n      dup3\n        /* \"#utility.yul\":3585:3603   */\n      add\n        /* \"#utility.yul\":3577:3603   */\n      swap1\n      pop\n        /* \"#utility.yul\":3649:3658   */\n      dup2\n        /* \"#utility.yul\":3643:3647   */\n      dup2\n        /* \"#utility.yul\":3639:3659   */\n      sub\n        /* \"#utility.yul\":3635:3636   */\n      0x00\n        /* \"#utility.yul\":3624:3633   */\n      dup4\n        /* \"#utility.yul\":3620:3637   */\n      add\n        /* \"#utility.yul\":3613:3660   */\n      mstore\n        /* \"#utility.yul\":3677:3808   */\n      tag_83\n        /* \"#utility.yul\":3803:3807   */\n      dup2\n        /* \"#utility.yul\":3677:3808   */\n      tag_48\n      jump\t// in\n    tag_83:\n        /* \"#utility.yul\":3669:3808   */\n      swap1\n      pop\n        /* \"#utility.yul\":3396:3815   */\n      swap2\n      swap1\n      pop\n      jump\t// out\n\n    auxdata: 0xa264697066735822122038d993e9f793e76f36fafdfc7e0c0eaac6ffdbd45bb97a69f4faae81cd7ae43d64736f6c63430008200033\n}\n",
				"bytecode": {
					"linkReferences": {},
					"object": "6080604052348015600e575f5ffd5b506104078061001c5f395ff3fe60806040526004361061003e575f3560e01c806312065fe01461004257806327e235e31461006c5780633ccfd60b146100a8578063d0e30db0146100be575b5f5ffd5b34801561004d575f5ffd5b506100566100c8565b6040516100639190610276565b60405180910390f35b348015610077575f5ffd5b50610092600480360381019061008d91906102ed565b6100cf565b60405161009f9190610276565b60405180910390f35b3480156100b3575f5ffd5b506100bc6100e3565b005b6100c661021b565b005b5f47905090565b5f602052805f5260405f205f915090505481565b5f5f5f3373ffffffffffffffffffffffffffffffffffffffff1673ffffffffffffffffffffffffffffffffffffffff1681526020019081526020015f205490505f811161012e575f5ffd5b5f3373ffffffffffffffffffffffffffffffffffffffff168260405161015390610345565b5f6040518083038185875af1925050503d805f811461018d576040519150601f19603f3d011682016040523d82523d5f602084013e610192565b606091505b50509050806101d6576040517f08c379a00000000000000000000000000000000000000000000000000000000081526004016101cd906103b3565b60405180910390fd5b5f5f5f3373ffffffffffffffffffffffffffffffffffffffff1673ffffffffffffffffffffffffffffffffffffffff1681526020019081526020015f20819055505050565b345f5f3373ffffffffffffffffffffffffffffffffffffffff1673ffffffffffffffffffffffffffffffffffffffff1681526020019081526020015f2081905550565b5f819050919050565b6102708161025e565b82525050565b5f6020820190506102895f830184610267565b92915050565b5f5ffd5b5f73ffffffffffffffffffffffffffffffffffffffff82169050919050565b5f6102bc82610293565b9050919050565b6102cc816102b2565b81146102d6575f5ffd5b50565b5f813590506102e7816102c3565b92915050565b5f602082840312156103025761030161028f565b5b5f61030f848285016102d9565b91505092915050565b5f81905092915050565b50565b5f6103305f83610318565b915061033b82610322565b5f82019050919050565b5f61034f82610325565b9150819050919050565b5f82825260208201905092915050565b7f4661696c656420746f2073656e642045746865720000000000000000000000005f82015250565b5f61039d601483610359565b91506103a882610369565b602082019050919050565b5f6020820190508181035f8301526103ca81610391565b905091905056fea264697066735822122038d993e9f793e76f36fafdfc7e0c0eaac6ffdbd45bb97a69f4faae81cd7ae43d64736f6c63430008200033",
					"opcodes": "PUSH1 0x80 PUSH1 0x40 MSTORE CALLVALUE DUP1 ISZERO PUSH1 0xE JUMPI PUSH0 PUSH0 REVERT JUMPDEST POP PUSH2 0x407 DUP1 PUSH2 0x1C PUSH0 CODECOPY PUSH0 RETURN INVALID PUSH1 0x80 PUSH1 0x40 MSTORE PUSH1 0x4 CALLDATASIZE LT PUSH2 0x3E JUMPI PUSH0 CALLDATALOAD PUSH1 0xE0 SHR DUP1 PUSH4 0x12065FE0 EQ PUSH2 0x42 JUMPI DUP1 PUSH4 0x27E235E3 EQ PUSH2 0x6C JUMPI DUP1 PUSH4 0x3CCFD60B EQ PUSH2 0xA8 JUMPI DUP1 PUSH4 0xD0E30DB0 EQ PUSH2 0xBE JUMPI JUMPDEST PUSH0 PUSH0 REVERT JUMPDEST CALLVALUE DUP1 ISZERO PUSH2 0x4D JUMPI PUSH0 PUSH0 REVERT JUMPDEST POP PUSH2 0x56 PUSH2 0xC8 JUMP JUMPDEST PUSH1 0x40 MLOAD PUSH2 0x63 SWAP2 SWAP1 PUSH2 0x276 JUMP JUMPDEST PUSH1 0x40 MLOAD DUP1 SWAP2 SUB SWAP1 RETURN JUMPDEST CALLVALUE DUP1 ISZERO PUSH2 0x77 JUMPI PUSH0 PUSH0 REVERT JUMPDEST POP PUSH2 0x92 PUSH1 0x4 DUP1 CALLDATASIZE SUB DUP2 ADD SWAP1 PUSH2 0x8D SWAP2 SWAP1 PUSH2 0x2ED JUMP JUMPDEST PUSH2 0xCF JUMP JUMPDEST PUSH1 0x40 MLOAD PUSH2 0x9F SWAP2 SWAP1 PUSH2 0x276 JUMP JUMPDEST PUSH1 0x40 MLOAD DUP1 SWAP2 SUB SWAP1 RETURN JUMPDEST CALLVALUE DUP1 ISZERO PUSH2 0xB3 JUMPI PUSH0 PUSH0 REVERT JUMPDEST POP PUSH2 0xBC PUSH2 0xE3 JUMP JUMPDEST STOP JUMPDEST PUSH2 0xC6 PUSH2 0x21B JUMP JUMPDEST STOP JUMPDEST PUSH0 SELFBALANCE SWAP1 POP SWAP1 JUMP JUMPDEST PUSH0 PUSH1 0x20 MSTORE DUP1 PUSH0 MSTORE PUSH1 0x40 PUSH0 KECCAK256 PUSH0 SWAP2 POP SWAP1 POP SLOAD DUP2 JUMP JUMPDEST PUSH0 PUSH0 PUSH0 CALLER PUSH20 0xFFFFFFFFFFFFFFFFFFFFFFFFFFFFFFFFFFFFFFFF AND PUSH20 0xFFFFFFFFFFFFFFFFFFFFFFFFFFFFFFFFFFFFFFFF AND DUP2 MSTORE PUSH1 0x20 ADD SWAP1 DUP2 MSTORE PUSH1 0x20 ADD PUSH0 KECCAK256 SLOAD SWAP1 POP PUSH0 DUP2 GT PUSH2 0x12E JUMPI PUSH0 PUSH0 REVERT JUMPDEST PUSH0 CALLER PUSH20 0xFFFFFFFFFFFFFFFFFFFFFFFFFFFFFFFFFFFFFFFF AND DUP3 PUSH1 0x40 MLOAD PUSH2 0x153 SWAP1 PUSH2 0x345 JUMP JUMPDEST PUSH0 PUSH1 0x40 MLOAD DUP1 DUP4 SUB DUP2 DUP6 DUP8 GAS CALL SWAP3 POP POP POP RETURNDATASIZE DUP1 PUSH0 DUP2 EQ PUSH2 0x18D JUMPI PUSH1 0x40 MLOAD SWAP2 POP PUSH1 0x1F NOT PUSH1 0x3F RETURNDATASIZE ADD AND DUP3 ADD PUSH1 0x40 MSTORE RETURNDATASIZE DUP3 MSTORE RETURNDATASIZE PUSH0 PUSH1 0x20 DUP5 ADD RETURNDATACOPY PUSH2 0x192 JUMP JUMPDEST PUSH1 0x60 SWAP2 POP JUMPDEST POP POP SWAP1 POP DUP1 PUSH2 0x1D6 JUMPI PUSH1 0x40 MLOAD PUSH32 0x8C379A000000000000000000000000000000000000000000000000000000000 DUP2 MSTORE PUSH1 0x4 ADD PUSH2 0x1CD SWAP1 PUSH2 0x3B3 JUMP JUMPDEST PUSH1 0x40 MLOAD DUP1 SWAP2 SUB SWAP1 REVERT JUMPDEST PUSH0 PUSH0 PUSH0 CALLER PUSH20 0xFFFFFFFFFFFFFFFFFFFFFFFFFFFFFFFFFFFFFFFF AND PUSH20 0xFFFFFFFFFFFFFFFFFFFFFFFFFFFFFFFFFFFFFFFF AND DUP2 MSTORE PUSH1 0x20 ADD SWAP1 DUP2 MSTORE PUSH1 0x20 ADD PUSH0 KECCAK256 DUP2 SWAP1 SSTORE POP POP POP JUMP JUMPDEST CALLVALUE PUSH0 PUSH0 CALLER PUSH20 0xFFFFFFFFFFFFFFFFFFFFFFFFFFFFFFFFFFFFFFFF AND PUSH20 0xFFFFFFFFFFFFFFFFFFFFFFFFFFFFFFFFFFFFFFFF AND DUP2 MSTORE PUSH1 0x20 ADD SWAP1 DUP2 MSTORE PUSH1 0x20 ADD PUSH0 KECCAK256 DUP2 SWAP1 SSTORE POP JUMP JUMPDEST PUSH0 DUP2 SWAP1 POP SWAP2 SWAP1 POP JUMP JUMPDEST PUSH2 0x270 DUP2 PUSH2 0x25E JUMP JUMPDEST DUP3 MSTORE POP POP JUMP JUMPDEST PUSH0 PUSH1 0x20 DUP3 ADD SWAP1 POP PUSH2 0x289 PUSH0 DUP4 ADD DUP5 PUSH2 0x267 JUMP JUMPDEST SWAP3 SWAP2 POP POP JUMP JUMPDEST PUSH0 PUSH0 REVERT JUMPDEST PUSH0 PUSH20 0xFFFFFFFFFFFFFFFFFFFFFFFFFFFFFFFFFFFFFFFF DUP3 AND SWAP1 POP SWAP2 SWAP1 POP JUMP JUMPDEST PUSH0 PUSH2 0x2BC DUP3 PUSH2 0x293 JUMP JUMPDEST SWAP1 POP SWAP2 SWAP1 POP JUMP JUMPDEST PUSH2 0x2CC DUP2 PUSH2 0x2B2 JUMP JUMPDEST DUP2 EQ PUSH2 0x2D6 JUMPI PUSH0 PUSH0 REVERT JUMPDEST POP JUMP JUMPDEST PUSH0 DUP2 CALLDATALOAD SWAP1 POP PUSH2 0x2E7 DUP2 PUSH2 0x2C3 JUMP JUMPDEST SWAP3 SWAP2 POP POP JUMP JUMPDEST PUSH0 PUSH1 0x20 DUP3 DUP5 SUB SLT ISZERO PUSH2 0x302 JUMPI PUSH2 0x301 PUSH2 0x28F JUMP JUMPDEST JUMPDEST PUSH0 PUSH2 0x30F DUP5 DUP3 DUP6 ADD PUSH2 0x2D9 JUMP JUMPDEST SWAP2 POP POP SWAP3 SWAP2 POP POP JUMP JUMPDEST PUSH0 DUP2 SWAP1 POP SWAP3 SWAP2 POP POP JUMP JUMPDEST POP JUMP JUMPDEST PUSH0 PUSH2 0x330 PUSH0 DUP4 PUSH2 0x318 JUMP JUMPDEST SWAP2 POP PUSH2 0x33B DUP3 PUSH2 0x322 JUMP JUMPDEST PUSH0 DUP3 ADD SWAP1 POP SWAP2 SWAP1 POP JUMP JUMPDEST PUSH0 PUSH2 0x34F DUP3 PUSH2 0x325 JUMP JUMPDEST SWAP2 POP DUP2 SWAP1 POP SWAP2 SWAP1 POP JUMP JUMPDEST PUSH0 DUP3 DUP3 MSTORE PUSH1 0x20 DUP3 ADD SWAP1 POP SWAP3 SWAP2 POP POP JUMP JUMPDEST PUSH32 0x4661696C656420746F2073656E64204574686572000000000000000000000000 PUSH0 DUP3 ADD MSTORE POP JUMP JUMPDEST PUSH0 PUSH2 0x39D PUSH1 0x14 DUP4 PUSH2 0x359 JUMP JUMPDEST SWAP2 POP PUSH2 0x3A8 DUP3 PUSH2 0x369 JUMP JUMPDEST PUSH1 0x20 DUP3 ADD SWAP1 POP SWAP2 SWAP1 POP JUMP JUMPDEST PUSH0 PUSH1 0x20 DUP3 ADD SWAP1 POP DUP2 DUP2 SUB PUSH0 DUP4 ADD MSTORE PUSH2 0x3CA DUP2 PUSH2 0x391 JUMP JUMPDEST SWAP1 POP SWAP2 SWAP1 POP JUMP INVALID LOG2 PUSH5 0x6970667358 0x22 SLT KECCAK256 CODESIZE 0xD9 SWAP4 0xE9 0xF7 SWAP4 SWAPN 0x6F CALLDATASIZE STATICCALL REVERT 0xFC PUSH31 0xC0EAAC6FFDBD45BB97A69F4FAAE81CD7AE43D64736F6C6343000820003300 "
				},
				"gasEstimates": {
					"creation": {
						"codeDepositCost": "206200",
						"executionCost": "249",
						"totalCost": "206449"
					},
					"external": {
						"balances(address)": "2801",
						"deposit()": "22362",
						"getBalance()": "312",
						"withdraw()": "infinite"
					}
				},
				"methodIdentifiers": {
					"balances(address)": "27e235e3",
					"deposit()": "d0e30db0",
					"getBalance()": "12065fe0",
					"withdraw()": "3ccfd60b"
				}
			},
			"storageLayout": {
				"storage": [
					{
						"astId": 5,
						"contract": "DAO_attack.sol:SimpleDAO",
						"label": "balances",
						"offset": 0,
						"slot": "0",
						"type": "t_mapping(t_address,t_uint256)"
					}
				],
				"types": {
					"t_address": {
						"encoding": "inplace",
						"label": "address",
						"numberOfBytes": "20"
					},
					"t_mapping(t_address,t_uint256)": {
						"encoding": "mapping",
						"key": "t_address",
						"label": "mapping(address => uint256)",
						"numberOfBytes": "32",
						"value": "t_uint256"
					},
					"t_uint256": {
						"encoding": "inplace",
						"label": "uint256",
						"numberOfBytes": "32"
					}
				}
			},
			"userdoc": {
				"kind": "user",
				"methods": {},
				"version": 1
			}
		}
	}
}