{
	"overflow_underflow/overflow_underflow.sol": {
		"SimpleStrorage": {
			"abi": [
				{
					"inputs": [],
					"name": "uint_max_overflow",
					"outputs": [
						{
							"internalType": "uint256",
							"name": "",
							"type": "uint256"
						}
					],
					"stateMutability": "view",
					"type": "function"
				},
				{
					"inputs": [],
					"name": "uint_min_underflow",
					"outputs": [
						{
							"internalType": "uint256",
							"name": "",
							"type": "uint256"
						}
					],
					"stateMutability": "view",
					"type": "function"
				}
			],
			"devdoc": {
				"kind": "dev",
				"methods": {},
				"version": 1
			},
			"evm": {
				"assembly": "    /* \"overflow_underflow/overflow_underflow.sol\":64:360  contract SimpleStrorage\r... */\n  mstore(0x40, 0x80)\n    /* \"overflow_underflow/overflow_underflow.sol\":107:121  type(uint).min */\n  0x00\n    /* \"overflow_underflow/overflow_underflow.sol\":96:121  uint min = type(uint).min */\n  dup1\n  sstore\n    /* \"overflow_underflow/overflow_underflow.sol\":139:153  type(uint).max */\n  0xffffffffffffffffffffffffffffffffffffffffffffffffffffffffffffffff\n    /* \"overflow_underflow/overflow_underflow.sol\":128:153  uint max = type(uint).max */\n  0x01\n  sstore\n    /* \"overflow_underflow/overflow_underflow.sol\":64:360  contract SimpleStrorage\r... */\n  callvalue\n  dup1\n  iszero\n  tag_1\n  jumpi\n  0x00\n  dup1\n  revert\ntag_1:\n  pop\n  dataSize(sub_0)\n  dup1\n  dataOffset(sub_0)\n  0x00\n  codecopy\n  0x00\n  return\nstop\n\nsub_0: assembly {\n        /* \"overflow_underflow/overflow_underflow.sol\":64:360  contract SimpleStrorage\r... */\n      mstore(0x40, 0x80)\n      callvalue\n      dup1\n      iszero\n      tag_1\n      jumpi\n      0x00\n      dup1\n      revert\n    tag_1:\n      pop\n      jumpi(tag_2, lt(calldatasize, 0x04))\n      shr(0xe0, calldataload(0x00))\n      dup1\n      0x4ed939c2\n      eq\n      tag_3\n      jumpi\n      dup1\n      0xe2c31055\n      eq\n      tag_4\n      jumpi\n    tag_2:\n      0x00\n      dup1\n      revert\n        /* \"overflow_underflow/overflow_underflow.sol\":162:256  function uint_min_underflow() public view returns(uint)\r... */\n    tag_3:\n      tag_5\n      tag_6\n      jump\t// in\n    tag_5:\n      mload(0x40)\n      dup1\n      dup3\n      dup2\n      mstore\n      0x20\n      add\n      swap2\n      pop\n      pop\n      mload(0x40)\n      dup1\n      swap2\n      sub\n      swap1\n      return\n        /* \"overflow_underflow/overflow_underflow.sol\":264:357  function uint_max_overflow() public view returns(uint)\r... */\n    tag_4:\n      tag_7\n      tag_8\n      jump\t// in\n    tag_7:\n      mload(0x40)\n      dup1\n      dup3\n      dup2\n      mstore\n      0x20\n      add\n      swap2\n      pop\n      pop\n      mload(0x40)\n      dup1\n      swap2\n      sub\n      swap1\n      return\n        /* \"overflow_underflow/overflow_underflow.sol\":162:256  function uint_min_underflow() public view returns(uint)\r... */\n    tag_6:\n        /* \"overflow_underflow/overflow_underflow.sol\":212:216  uint */\n      0x00\n        /* \"overflow_underflow/overflow_underflow.sol\":247:248  1 */\n      0x01\n        /* \"overflow_underflow/overflow_underflow.sol\":241:244  min */\n      sload(0x00)\n        /* \"overflow_underflow/overflow_underflow.sol\":241:248  min - 1 */\n      sub\n        /* \"overflow_underflow/overflow_underflow.sol\":234:248  return min - 1 */\n      swap1\n      pop\n        /* \"overflow_underflow/overflow_underflow.sol\":162:256  function uint_min_underflow() public view returns(uint)\r... */\n      swap1\n      jump\t// out\n        /* \"overflow_underflow/overflow_underflow.sol\":264:357  function uint_max_overflow() public view returns(uint)\r... */\n    tag_8:\n        /* \"overflow_underflow/overflow_underflow.sol\":313:317  uint */\n      0x00\n        /* \"overflow_underflow/overflow_underflow.sol\":348:349  1 */\n      0x01\n        /* \"overflow_underflow/overflow_underflow.sol\":342:345  max */\n      dup1\n      sload\n        /* \"overflow_underflow/overflow_underflow.sol\":342:349  max + 1 */\n      add\n        /* \"overflow_underflow/overflow_underflow.sol\":335:349  return max + 1 */\n      swap1\n      pop\n        /* \"overflow_underflow/overflow_underflow.sol\":264:357  function uint_max_overflow() public view returns(uint)\r... */\n      swap1\n      jump\t// out\n\n    auxdata: 0xa26469706673582212202a83845364c272dcf7259347de37a47efd849955cc8ac25654b9e309e401bd7364736f6c63430007060033\n}\n",
				"bytecode": {
					"linkReferences": {},
					"object": "6080604052600080557fffffffffffffffffffffffffffffffffffffffffffffffffffffffffffffffff60015534801561003857600080fd5b5060be806100476000396000f3fe6080604052348015600f57600080fd5b506004361060325760003560e01c80634ed939c2146037578063e2c31055146053575b600080fd5b603d606f565b6040518082815260200191505060405180910390f35b6059607c565b6040518082815260200191505060405180910390f35b6000600160005403905090565b6000600180540190509056fea26469706673582212202a83845364c272dcf7259347de37a47efd849955cc8ac25654b9e309e401bd7364736f6c63430007060033",
					"opcodes": "PUSH1 0x80 PUSH1 0x40 MSTORE PUSH1 0x0 DUP1 SSTORE PUSH32 0xFFFFFFFFFFFFFFFFFFFFFFFFFFFFFFFFFFFFFFFFFFFFFFFFFFFFFFFFFFFFFFFF PUSH1 0x1 SSTORE CALLVALUE DUP1 ISZERO PUSH2 0x38 JUMPI PUSH1 0x0 DUP1 REVERT JUMPDEST POP PUSH1 0xBE DUP1 PUSH2 0x47 PUSH1 0x0 CODECOPY PUSH1 0x0 RETURN INVALID PUSH1 0x80 PUSH1 0x40 MSTORE CALLVALUE DUP1 ISZERO PUSH1 0xF JUMPI PUSH1 0x0 DUP1 REVERT JUMPDEST POP PUSH1 0x4 CALLDATASIZE LT PUSH1 0x32 JUMPI PUSH1 0x0 CALLDATALOAD PUSH1 0xE0 SHR DUP1 PUSH4 0x4ED939C2 EQ PUSH1 0x37 JUMPI DUP1 PUSH4 0xE2C31055 EQ PUSH1 0x53 JUMPI JUMPDEST PUSH1 0x0 DUP1 REVERT JUMPDEST PUSH1 0x3D PUSH1 0x6F JUMP JUMPDEST PUSH1 0x40 MLOAD DUP1 DUP3 DUP2 MSTORE PUSH1 0x20 ADD SWAP2 POP POP PUSH1 0x40 MLOAD DUP1 SWAP2 SUB SWAP1 RETURN JUMPDEST PUSH1 0x59 PUSH1 0x7C JUMP JUMPDEST PUSH1 0x40 MLOAD DUP1 DUP3 DUP2 MSTORE PUSH1 0x20 ADD SWAP2 POP POP PUSH1 0x40 MLOAD DUP1 SWAP2 SUB SWAP1 RETURN JUMPDEST PUSH1 0x0 PUSH1 0x1 PUSH1 0x0 SLOAD SUB SWAP1 POP SWAP1 JUMP JUMPDEST PUSH1 0x0 PUSH1 0x1 DUP1 SLOAD ADD SWAP1 POP SWAP1 JUMP INVALID LOG2 PUSH5 0x6970667358 0x22 SLT KECCAK256 0x2A DUP4 DUP5 MSTORE8 PUSH5 0xC272DCF725 SWAP4 SELFBALANCE 0xDE CALLDATACOPY LOG4 PUSH31 0xFD849955CC8AC25654B9E309E401BD7364736F6C6343000706003300000000 "
				},
				"gasEstimates": {
					"creation": {
						"codeDepositCost": "38000",
						"executionCost": "25099",
						"totalCost": "63099"
					},
					"external": {
						"uint_max_overflow()": "1019",
						"uint_min_underflow()": "997"
					}
				},
				"methodIdentifiers": {
					"uint_max_overflow()": "e2c31055",
					"uint_min_underflow()": "4ed939c2"
				}
			},
			"storageLayout": {
				"storage": [
					{
						"astId": 8,
						"contract": "overflow_underflow/overflow_underflow.sol:SimpleStrorage",
						"label": "min",
						"offset": 0,
						"slot": "0",
						"type": "t_uint256"
					},
					{
						"astId": 15,
						"contract": "overflow_underflow/overflow_underflow.sol:SimpleStrorage",
						"label": "max",
						"offset": 0,
						"slot": "1",
						"type": "t_uint256"
					}
				],
				"types": {
					"t_uint256": {
						"encoding": "inplace",
						"label": "uint256",
						"numberOfBytes": "32"
					}
				}
			},
			"userdoc": {
				"kind": "user",
				"methods": {},
				"version": 1
			}
		}
	}
}