{
	"overflow_underflow/Ex6_17.sol": {
		"Math": {
			"abi": [
				{
					"inputs": [
						{
							"internalType": "uint256",
							"name": "_num1",
							"type": "uint256"
						},
						{
							"internalType": "uint256",
							"name": "_num2",
							"type": "uint256"
						}
					],
					"name": "add",
					"outputs": [],
					"stateMutability": "nonpayable",
					"type": "function"
				},
				{
					"inputs": [],
					"name": "returnResult",
					"outputs": [
						{
							"internalType": "uint256",
							"name": "",
							"type": "uint256"
						}
					],
					"stateMutability": "view",
					"type": "function"
				}
			],
			"devdoc": {
				"kind": "dev",
				"methods": {},
				"version": 1
			},
			"evm": {
				"assembly": "    /* \"overflow_underflow/Ex6_17.sol\":207:396  contract Math {\r... */\n  mstore(0x40, 0x80)\n    /* \"overflow_underflow/Ex6_17.sol\":238:239  0 */\n  0x00\n    /* \"overflow_underflow/Ex6_17.sol\":224:239  uint result = 0 */\n  dup1\n  sstore\n    /* \"overflow_underflow/Ex6_17.sol\":207:396  contract Math {\r... */\n  callvalue\n  dup1\n  iszero\n  tag_1\n  jumpi\n  0x00\n  dup1\n  revert\ntag_1:\n  pop\n  dataSize(sub_0)\n  dup1\n  dataOffset(sub_0)\n  0x00\n  codecopy\n  0x00\n  return\nstop\n\nsub_0: assembly {\n        /* \"overflow_underflow/Ex6_17.sol\":207:396  contract Math {\r... */\n      mstore(0x40, 0x80)\n      callvalue\n      dup1\n      iszero\n      tag_1\n      jumpi\n      0x00\n      dup1\n      revert\n    tag_1:\n      pop\n      jumpi(tag_2, lt(calldatasize, 0x04))\n      shr(0xe0, calldataload(0x00))\n      dup1\n      0x1801a346\n      eq\n      tag_3\n      jumpi\n      dup1\n      0x771602f7\n      eq\n      tag_4\n      jumpi\n    tag_2:\n      0x00\n      dup1\n      revert\n        /* \"overflow_underflow/Ex6_17.sol\":323:393  function returnResult() public view returns(uint) {\r... */\n    tag_3:\n      tag_5\n      tag_6\n      jump\t// in\n    tag_5:\n      mload(0x40)\n      dup1\n      dup3\n      dup2\n      mstore\n      0x20\n      add\n      swap2\n      pop\n      pop\n      mload(0x40)\n      dup1\n      swap2\n      sub\n      swap1\n      return\n        /* \"overflow_underflow/Ex6_17.sol\":242:321  function add(uint256 _num1, uint256 _num2) public {\r... */\n    tag_4:\n      tag_7\n      0x04\n      dup1\n      calldatasize\n      sub\n      0x40\n      dup2\n      lt\n      iszero\n      tag_8\n      jumpi\n      0x00\n      dup1\n      revert\n    tag_8:\n      dup2\n      add\n      swap1\n      dup1\n      dup1\n      calldataload\n      swap1\n      0x20\n      add\n      swap1\n      swap3\n      swap2\n      swap1\n      dup1\n      calldataload\n      swap1\n      0x20\n      add\n      swap1\n      swap3\n      swap2\n      swap1\n      pop\n      pop\n      pop\n      tag_9\n      jump\t// in\n    tag_7:\n      stop\n        /* \"overflow_underflow/Ex6_17.sol\":323:393  function returnResult() public view returns(uint) {\r... */\n    tag_6:\n        /* \"overflow_underflow/Ex6_17.sol\":367:371  uint */\n      0x00\n        /* \"overflow_underflow/Ex6_17.sol\":383:389  result */\n      dup1\n      sload\n        /* \"overflow_underflow/Ex6_17.sol\":376:389  return result */\n      swap1\n      pop\n        /* \"overflow_underflow/Ex6_17.sol\":323:393  function returnResult() public view returns(uint) {\r... */\n      swap1\n      jump\t// out\n        /* \"overflow_underflow/Ex6_17.sol\":242:321  function add(uint256 _num1, uint256 _num2) public {\r... */\n    tag_9:\n        /* \"overflow_underflow/Ex6_17.sol\":312:317  _num2 */\n      dup1\n        /* \"overflow_underflow/Ex6_17.sol\":304:309  _num1 */\n      dup3\n        /* \"overflow_underflow/Ex6_17.sol\":304:317  _num1 + _num2 */\n      add\n        /* \"overflow_underflow/Ex6_17.sol\":295:301  result */\n      0x00\n        /* \"overflow_underflow/Ex6_17.sol\":295:317  result = _num1 + _num2 */\n      dup2\n      swap1\n      sstore\n      pop\n        /* \"overflow_underflow/Ex6_17.sol\":242:321  function add(uint256 _num1, uint256 _num2) public {\r... */\n      pop\n      pop\n      jump\t// out\n\n    auxdata: 0xa2646970667358221220e9405384a0c6c1c8b191fe158631930568f1e4dbc6b99bfee48eb8c70b2cbd9464736f6c63430007060033\n}\n",
				"bytecode": {
					"linkReferences": {},
					"object": "60806040526000805534801561001457600080fd5b5060d4806100236000396000f3fe6080604052348015600f57600080fd5b506004361060325760003560e01c80631801a346146037578063771602f7146053575b600080fd5b603d6088565b6040518082815260200191505060405180910390f35b608660048036036040811015606757600080fd5b8101908080359060200190929190803590602001909291905050506091565b005b60008054905090565b808201600081905550505056fea2646970667358221220e9405384a0c6c1c8b191fe158631930568f1e4dbc6b99bfee48eb8c70b2cbd9464736f6c63430007060033",
					"opcodes": "PUSH1 0x80 PUSH1 0x40 MSTORE PUSH1 0x0 DUP1 SSTORE CALLVALUE DUP1 ISZERO PUSH2 0x14 JUMPI PUSH1 0x0 DUP1 REVERT JUMPDEST POP PUSH1 0xD4 DUP1 PUSH2 0x23 PUSH1 0x0 CODECOPY PUSH1 0x0 RETURN INVALID PUSH1 0x80 PUSH1 0x40 MSTORE CALLVALUE DUP1 ISZERO PUSH1 0xF JUMPI PUSH1 0x0 DUP1 REVERT JUMPDEST POP PUSH1 0x4 CALLDATASIZE LT PUSH1 0x32 JUMPI PUSH1 0x0 CALLDATALOAD PUSH1 0xE0 SHR DUP1 PUSH4 0x1801A346 EQ PUSH1 0x37 JUMPI DUP1 PUSH4 0x771602F7 EQ PUSH1 0x53 JUMPI JUMPDEST PUSH1 0x0 DUP1 REVERT JUMPDEST PUSH1 0x3D PUSH1 0x88 JUMP JUMPDEST PUSH1 0x40 MLOAD DUP1 DUP3 DUP2 MSTORE PUSH1 0x20 ADD SWAP2 POP POP PUSH1 0x40 MLOAD DUP1 SWAP2 SUB SWAP1 RETURN JUMPDEST PUSH1 0x86 PUSH1 0x4 DUP1 CALLDATASIZE SUB PUSH1 0x40 DUP2 LT ISZERO PUSH1 0x67 JUMPI PUSH1 0x0 DUP1 REVERT JUMPDEST DUP2 ADD SWAP1 DUP1 DUP1 CALLDATALOAD SWAP1 PUSH1 0x20 ADD SWAP1 SWAP3 SWAP2 SWAP1 DUP1 CALLDATALOAD SWAP1 PUSH1 0x20 ADD SWAP1 SWAP3 SWAP2 SWAP1 POP POP POP PUSH1 0x91 JUMP JUMPDEST STOP JUMPDEST PUSH1 0x0 DUP1 SLOAD SWAP1 POP SWAP1 JUMP JUMPDEST DUP1 DUP3 ADD PUSH1 0x0 DUP2 SWAP1 SSTORE POP POP POP JUMP INVALID LOG2 PUSH5 0x6970667358 0x22 SLT KECCAK256 0xE9 BLOCKHASH MSTORE8 DUP5 LOG0 0xC6 0xC1 0xC8 0xB1 SWAP2 INVALID ISZERO DUP7 BALANCE SWAP4 SDIV PUSH9 0xF1E4DBC6B99BFEE48E 0xB8 0xC7 SIGNEXTEND 0x2C 0xBD SWAP5 PUSH5 0x736F6C6343 STOP SMOD MOD STOP CALLER "
				},
				"gasEstimates": {
					"creation": {
						"codeDepositCost": "42400",
						"executionCost": "5099",
						"totalCost": "47499"
					},
					"external": {
						"add(uint256,uint256)": "20277",
						"returnResult()": "991"
					}
				},
				"methodIdentifiers": {
					"add(uint256,uint256)": "771602f7",
					"returnResult()": "1801a346"
				}
			},
			"storageLayout": {
				"storage": [
					{
						"astId": 21,
						"contract": "overflow_underflow/Ex6_17.sol:Math",
						"label": "result",
						"offset": 0,
						"slot": "0",
						"type": "t_uint256"
					}
				],
				"types": {
					"t_uint256": {
						"encoding": "inplace",
						"label": "uint256",
						"numberOfBytes": "32"
					}
				}
			},
			"userdoc": {
				"kind": "user",
				"methods": {},
				"version": 1
			}
		}
	}
}