{
	"과제2/NameRegistry.sol": {
		"NameRegistry": {
			"abi": [
				{
					"inputs": [],
					"stateMutability": "nonpayable",
					"type": "constructor"
				},
				{
					"anonymous": false,
					"inputs": [
						{
							"indexed": true,
							"internalType": "string",
							"name": "name",
							"type": "string"
						},
						{
							"indexed": true,
							"internalType": "address",
							"name": "owner",
							"type": "address"
						},
						{
							"indexed": false,
							"internalType": "address",
							"name": "contractAddress",
							"type": "address"
						}
					],
					"name": "ContractDeleted",
					"type": "event"
				},
				{
					"anonymous": false,
					"inputs": [
						{
							"indexed": true,
							"internalType": "string",
							"name": "name",
							"type": "string"
						},
						{
							"indexed": true,
							"internalType": "address",
							"name": "owner",
							"type": "address"
						},
						{
							"indexed": false,
							"internalType": "address",
							"name": "contractAddress",
							"type": "address"
						},
						{
							"indexed": false,
							"internalType": "string",
							"name": "description",
							"type": "string"
						}
					],
					"name": "ContractRegistered",
					"type": "event"
				},
				{
					"anonymous": false,
					"inputs": [
						{
							"indexed": true,
							"internalType": "string",
							"name": "name",
							"type": "string"
						},
						{
							"indexed": false,
							"internalType": "string",
							"name": "updateType",
							"type": "string"
						}
					],
					"name": "ContractUpdated",
					"type": "event"
				},
				{
					"inputs": [
						{
							"internalType": "string",
							"name": "_name",
							"type": "string"
						},
						{
							"internalType": "address",
							"name": "_newOwner",
							"type": "address"
						}
					],
					"name": "changeOwner",
					"outputs": [],
					"stateMutability": "nonpayable",
					"type": "function"
				},
				{
					"inputs": [
						{
							"internalType": "string",
							"name": "_name",
							"type": "string"
						}
					],
					"name": "getAddr",
					"outputs": [
						{
							"internalType": "address",
							"name": "",
							"type": "address"
						}
					],
					"stateMutability": "view",
					"type": "function"
				},
				{
					"inputs": [
						{
							"internalType": "string",
							"name": "_name",
							"type": "string"
						}
					],
					"name": "getDescription",
					"outputs": [
						{
							"internalType": "string",
							"name": "",
							"type": "string"
						}
					],
					"stateMutability": "view",
					"type": "function"
				},
				{
					"inputs": [
						{
							"internalType": "string",
							"name": "_name",
							"type": "string"
						}
					],
					"name": "getOwner",
					"outputs": [
						{
							"internalType": "address",
							"name": "",
							"type": "address"
						}
					],
					"stateMutability": "view",
					"type": "function"
				},
				{
					"inputs": [],
					"name": "numContracts",
					"outputs": [
						{
							"internalType": "uint256",
							"name": "",
							"type": "uint256"
						}
					],
					"stateMutability": "view",
					"type": "function"
				},
				{
					"inputs": [
						{
							"internalType": "string",
							"name": "_name",
							"type": "string"
						},
						{
							"internalType": "address",
							"name": "_contractAddress",
							"type": "address"
						},
						{
							"internalType": "string",
							"name": "_description",
							"type": "string"
						}
					],
					"name": "registerContract",
					"outputs": [],
					"stateMutability": "nonpayable",
					"type": "function"
				},
				{
					"inputs": [
						{
							"internalType": "string",
							"name": "",
							"type": "string"
						}
					],
					"name": "registeredContracts",
					"outputs": [
						{
							"internalType": "address",
							"name": "contractOwner",
							"type": "address"
						},
						{
							"internalType": "address",
							"name": "contractAddress",
							"type": "address"
						},
						{
							"internalType": "string",
							"name": "description",
							"type": "string"
						}
					],
					"stateMutability": "view",
					"type": "function"
				},
				{
					"inputs": [
						{
							"internalType": "string",
							"name": "_name",
							"type": "string"
						},
						{
							"internalType": "address",
							"name": "_addr",
							"type": "address"
						}
					],
					"name": "setAddr",
					"outputs": [],
					"stateMutability": "nonpayable",
					"type": "function"
				},
				{
					"inputs": [
						{
							"internalType": "string",
							"name": "_name",
							"type": "string"
						},
						{
							"internalType": "string",
							"name": "_description",
							"type": "string"
						}
					],
					"name": "setDescription",
					"outputs": [],
					"stateMutability": "nonpayable",
					"type": "function"
				},
				{
					"inputs": [
						{
							"internalType": "string",
							"name": "_name",
							"type": "string"
						}
					],
					"name": "unregisterContract",
					"outputs": [],
					"stateMutability": "nonpayable",
					"type": "function"
				}
			],
			"devdoc": {
				"kind": "dev",
				"methods": {},
				"version": 1
			},
			"evm": {
				"assembly": "    /* \"\\xea\\xb3\\xbc\\xec\\xa0\\x9c2/NameRegistry.sol\":61:4949  contract NameRegistry {... */\n  mstore(0x40, 0x80)\n    /* \"\\xea\\xb3\\xbc\\xec\\xa0\\x9c2/NameRegistry.sol\":1578:1633  constructor() ... */\n  callvalue\n  dup1\n  iszero\n  tag_1\n  jumpi\n  revert(0x00, 0x00)\ntag_1:\n  pop\n    /* \"\\xea\\xb3\\xbc\\xec\\xa0\\x9c2/NameRegistry.sol\":1624:1625  0 */\n  0x00\n    /* \"\\xea\\xb3\\xbc\\xec\\xa0\\x9c2/NameRegistry.sol\":1609:1621  numContracts */\n  0x00\n    /* \"\\xea\\xb3\\xbc\\xec\\xa0\\x9c2/NameRegistry.sol\":1609:1625  numContracts = 0 */\n  dup2\n  swap1\n  sstore\n  pop\n    /* \"\\xea\\xb3\\xbc\\xec\\xa0\\x9c2/NameRegistry.sol\":61:4949  contract NameRegistry {... */\n  dataSize(sub_0)\n  dup1\n  dataOffset(sub_0)\n  0x00\n  codecopy\n  0x00\n  return\nstop\n\nsub_0: assembly {\n        /* \"\\xea\\xb3\\xbc\\xec\\xa0\\x9c2/NameRegistry.sol\":61:4949  contract NameRegistry {... */\n      mstore(0x40, 0x80)\n      callvalue\n      dup1\n      iszero\n      tag_1\n      jumpi\n      revert(0x00, 0x00)\n    tag_1:\n      pop\n      jumpi(tag_2, lt(calldatasize, 0x04))\n      shr(0xe0, calldataload(0x00))\n      dup1\n      0x6755d456\n      gt\n      tag_13\n      jumpi\n      dup1\n      0x6755d456\n      eq\n      tag_8\n      jumpi\n      dup1\n      0x98fd3835\n      eq\n      tag_9\n      jumpi\n      dup1\n      0xa738e975\n      eq\n      tag_10\n      jumpi\n      dup1\n      0xd502db97\n      eq\n      tag_11\n      jumpi\n      dup1\n      0xd8f9d144\n      eq\n      tag_12\n      jumpi\n      jump(tag_2)\n    tag_13:\n      dup1\n      0x035e7709\n      eq\n      tag_3\n      jumpi\n      dup1\n      0x213b9eb8\n      eq\n      tag_4\n      jumpi\n      dup1\n      0x45de2ca0\n      eq\n      tag_5\n      jumpi\n      dup1\n      0x4aaf4a12\n      eq\n      tag_6\n      jumpi\n      dup1\n      0x524d81d3\n      eq\n      tag_7\n      jumpi\n    tag_2:\n      revert(0x00, 0x00)\n        /* \"\\xea\\xb3\\xbc\\xec\\xa0\\x9c2/NameRegistry.sol\":2505:2995  function unregisterContract(string memory _name) public onlyOwner(_name)... */\n    tag_3:\n      tag_14\n      0x04\n      dup1\n      calldatasize\n      sub\n      dup2\n      add\n      swap1\n      tag_15\n      swap2\n      swap1\n      tag_16\n      jump\t// in\n    tag_15:\n      tag_17\n      jump\t// in\n    tag_14:\n      stop\n        /* \"\\xea\\xb3\\xbc\\xec\\xa0\\x9c2/NameRegistry.sol\":3701:4033  function setAddr(string memory _name, address _addr) public onlyOwner(_name)... */\n    tag_4:\n      tag_18\n      0x04\n      dup1\n      calldatasize\n      sub\n      dup2\n      add\n      swap1\n      tag_19\n      swap2\n      swap1\n      tag_20\n      jump\t// in\n    tag_19:\n      tag_21\n      jump\t// in\n    tag_18:\n      stop\n        /* \"\\xea\\xb3\\xbc\\xec\\xa0\\x9c2/NameRegistry.sol\":4744:4946  function getDescription(string memory _name) public view returns (string memory)... */\n    tag_5:\n      tag_22\n      0x04\n      dup1\n      calldatasize\n      sub\n      dup2\n      add\n      swap1\n      tag_23\n      swap2\n      swap1\n      tag_16\n      jump\t// in\n    tag_23:\n      tag_24\n      jump\t// in\n    tag_22:\n      mload(0x40)\n      tag_25\n      swap2\n      swap1\n      tag_26\n      jump\t// in\n    tag_25:\n      mload(0x40)\n      dup1\n      swap2\n      sub\n      swap1\n      return\n        /* \"\\xea\\xb3\\xbc\\xec\\xa0\\x9c2/NameRegistry.sol\":3441:3636  function getOwner(string memory _name) public view returns (address)... */\n    tag_6:\n      tag_27\n      0x04\n      dup1\n      calldatasize\n      sub\n      dup2\n      add\n      swap1\n      tag_28\n      swap2\n      swap1\n      tag_16\n      jump\t// in\n    tag_28:\n      tag_29\n      jump\t// in\n    tag_27:\n      mload(0x40)\n      tag_30\n      swap2\n      swap1\n      tag_31\n      jump\t// in\n    tag_30:\n      mload(0x40)\n      dup1\n      swap2\n      sub\n      swap1\n      return\n        /* \"\\xea\\xb3\\xbc\\xec\\xa0\\x9c2/NameRegistry.sol\":432:456  uint public numContracts */\n    tag_7:\n      tag_32\n      tag_33\n      jump\t// in\n    tag_32:\n      mload(0x40)\n      tag_34\n      swap2\n      swap1\n      tag_35\n      jump\t// in\n    tag_34:\n      mload(0x40)\n      dup1\n      swap2\n      sub\n      swap1\n      return\n        /* \"\\xea\\xb3\\xbc\\xec\\xa0\\x9c2/NameRegistry.sol\":4334:4701  function setDescription(string memory _name,string memory _description) public onlyOwner(_name)... */\n    tag_8:\n      tag_36\n      0x04\n      dup1\n      calldatasize\n      sub\n      dup2\n      add\n      swap1\n      tag_37\n      swap2\n      swap1\n      tag_38\n      jump\t// in\n    tag_37:\n      tag_39\n      jump\t// in\n    tag_36:\n      stop\n        /* \"\\xea\\xb3\\xbc\\xec\\xa0\\x9c2/NameRegistry.sol\":556:614  mapping(string => ContractInfo) public registeredContracts */\n    tag_9:\n      tag_40\n      0x04\n      dup1\n      calldatasize\n      sub\n      dup2\n      add\n      swap1\n      tag_41\n      swap2\n      swap1\n      tag_16\n      jump\t// in\n    tag_41:\n      tag_42\n      jump\t// in\n    tag_40:\n      mload(0x40)\n      tag_43\n      swap4\n      swap3\n      swap2\n      swap1\n      tag_44\n      jump\t// in\n    tag_43:\n      mload(0x40)\n      dup1\n      swap2\n      sub\n      swap1\n      return\n        /* \"\\xea\\xb3\\xbc\\xec\\xa0\\x9c2/NameRegistry.sol\":1718:2447  function registerContract(string memory _name,address _contractAddress,string memory _description) public ... */\n    tag_10:\n      tag_45\n      0x04\n      dup1\n      calldatasize\n      sub\n      dup2\n      add\n      swap1\n      tag_46\n      swap2\n      swap1\n      tag_47\n      jump\t// in\n    tag_46:\n      tag_48\n      jump\t// in\n    tag_45:\n      stop\n        /* \"\\xea\\xb3\\xbc\\xec\\xa0\\x9c2/NameRegistry.sol\":4076:4269  function getAddr(string memory _name) public view returns (address)... */\n    tag_11:\n      tag_49\n      0x04\n      dup1\n      calldatasize\n      sub\n      dup2\n      add\n      swap1\n      tag_50\n      swap2\n      swap1\n      tag_16\n      jump\t// in\n    tag_50:\n      tag_51\n      jump\t// in\n    tag_49:\n      mload(0x40)\n      tag_52\n      swap2\n      swap1\n      tag_31\n      jump\t// in\n    tag_52:\n      mload(0x40)\n      dup1\n      swap2\n      sub\n      swap1\n      return\n        /* \"\\xea\\xb3\\xbc\\xec\\xa0\\x9c2/NameRegistry.sol\":3063:3395  function changeOwner(string memory _name, address _newOwner) public onlyOwner(_name)... */\n    tag_12:\n      tag_53\n      0x04\n      dup1\n      calldatasize\n      sub\n      dup2\n      add\n      swap1\n      tag_54\n      swap2\n      swap1\n      tag_20\n      jump\t// in\n    tag_54:\n      tag_55\n      jump\t// in\n    tag_53:\n      stop\n        /* \"\\xea\\xb3\\xbc\\xec\\xa0\\x9c2/NameRegistry.sol\":2505:2995  function unregisterContract(string memory _name) public onlyOwner(_name)... */\n    tag_17:\n        /* \"\\xea\\xb3\\xbc\\xec\\xa0\\x9c2/NameRegistry.sol\":2571:2576  _name */\n      dup1\n        /* \"\\xea\\xb3\\xbc\\xec\\xa0\\x9c2/NameRegistry.sol\":1480:1490  msg.sender */\n      caller\n        /* \"\\xea\\xb3\\xbc\\xec\\xa0\\x9c2/NameRegistry.sol\":1436:1490  registeredContracts[_name].contractOwner == msg.sender */\n      0xffffffffffffffffffffffffffffffffffffffff\n      and\n        /* \"\\xea\\xb3\\xbc\\xec\\xa0\\x9c2/NameRegistry.sol\":1436:1455  registeredContracts */\n      0x01\n        /* \"\\xea\\xb3\\xbc\\xec\\xa0\\x9c2/NameRegistry.sol\":1456:1461  _name */\n      dup3\n        /* \"\\xea\\xb3\\xbc\\xec\\xa0\\x9c2/NameRegistry.sol\":1436:1462  registeredContracts[_name] */\n      mload(0x40)\n      tag_57\n      swap2\n      swap1\n      tag_58\n      jump\t// in\n    tag_57:\n      swap1\n      dup2\n      mstore\n      0x20\n      add\n      mload(0x40)\n      dup1\n      swap2\n      sub\n      swap1\n      keccak256\n        /* \"\\xea\\xb3\\xbc\\xec\\xa0\\x9c2/NameRegistry.sol\":1436:1476  registeredContracts[_name].contractOwner */\n      0x00\n      add\n      0x00\n      swap1\n      sload\n      swap1\n      0x0100\n      exp\n      swap1\n      div\n      0xffffffffffffffffffffffffffffffffffffffff\n      and\n        /* \"\\xea\\xb3\\xbc\\xec\\xa0\\x9c2/NameRegistry.sol\":1436:1490  registeredContracts[_name].contractOwner == msg.sender */\n      0xffffffffffffffffffffffffffffffffffffffff\n      and\n      eq\n        /* \"\\xea\\xb3\\xbc\\xec\\xa0\\x9c2/NameRegistry.sol\":1428:1512  require(registeredContracts[_name].contractOwner == msg.sender,\"Not contract owner\") */\n      tag_59\n      jumpi\n      mload(0x40)\n      0x08c379a000000000000000000000000000000000000000000000000000000000\n      dup2\n      mstore\n      0x04\n      add\n      tag_60\n      swap1\n      tag_61\n      jump\t// in\n    tag_60:\n      mload(0x40)\n      dup1\n      swap2\n      sub\n      swap1\n      revert\n    tag_59:\n        /* \"\\xea\\xb3\\xbc\\xec\\xa0\\x9c2/NameRegistry.sol\":2659:2674  address oldAddr */\n      0x00\n        /* \"\\xea\\xb3\\xbc\\xec\\xa0\\x9c2/NameRegistry.sol\":2677:2696  registeredContracts */\n      0x01\n        /* \"\\xea\\xb3\\xbc\\xec\\xa0\\x9c2/NameRegistry.sol\":2697:2702  _name */\n      dup4\n        /* \"\\xea\\xb3\\xbc\\xec\\xa0\\x9c2/NameRegistry.sol\":2677:2703  registeredContracts[_name] */\n      mload(0x40)\n      tag_63\n      swap2\n      swap1\n      tag_58\n      jump\t// in\n    tag_63:\n      swap1\n      dup2\n      mstore\n      0x20\n      add\n      mload(0x40)\n      dup1\n      swap2\n      sub\n      swap1\n      keccak256\n        /* \"\\xea\\xb3\\xbc\\xec\\xa0\\x9c2/NameRegistry.sol\":2677:2719  registeredContracts[_name].contractAddress */\n      0x01\n      add\n      0x00\n      swap1\n      sload\n      swap1\n      0x0100\n      exp\n      swap1\n      div\n      0xffffffffffffffffffffffffffffffffffffffff\n      and\n        /* \"\\xea\\xb3\\xbc\\xec\\xa0\\x9c2/NameRegistry.sol\":2659:2719  address oldAddr = registeredContracts[_name].contractAddress */\n      swap1\n      pop\n        /* \"\\xea\\xb3\\xbc\\xec\\xa0\\x9c2/NameRegistry.sol\":2786:2805  registeredContracts */\n      0x01\n        /* \"\\xea\\xb3\\xbc\\xec\\xa0\\x9c2/NameRegistry.sol\":2806:2811  _name */\n      dup4\n        /* \"\\xea\\xb3\\xbc\\xec\\xa0\\x9c2/NameRegistry.sol\":2786:2812  registeredContracts[_name] */\n      mload(0x40)\n      tag_64\n      swap2\n      swap1\n      tag_58\n      jump\t// in\n    tag_64:\n      swap1\n      dup2\n      mstore\n      0x20\n      add\n      mload(0x40)\n      dup1\n      swap2\n      sub\n      swap1\n      keccak256\n      0x00\n        /* \"\\xea\\xb3\\xbc\\xec\\xa0\\x9c2/NameRegistry.sol\":2779:2812  delete registeredContracts[_name] */\n      0x00\n      dup3\n      add\n      exp(0x0100, 0x00)\n      dup2\n      sload\n      swap1\n      0xffffffffffffffffffffffffffffffffffffffff\n      mul\n      not\n      and\n      swap1\n      sstore\n      0x01\n      dup3\n      add\n      exp(0x0100, 0x00)\n      dup2\n      sload\n      swap1\n      0xffffffffffffffffffffffffffffffffffffffff\n      mul\n      not\n      and\n      swap1\n      sstore\n      0x02\n      dup3\n      add\n      0x00\n      tag_65\n      swap2\n      swap1\n      tag_66\n      jump\t// in\n    tag_65:\n      pop\n      pop\n        /* \"\\xea\\xb3\\xbc\\xec\\xa0\\x9c2/NameRegistry.sol\":2884:2885  1 */\n      0x01\n        /* \"\\xea\\xb3\\xbc\\xec\\xa0\\x9c2/NameRegistry.sol\":2868:2880  numContracts */\n      0x00\n      0x00\n        /* \"\\xea\\xb3\\xbc\\xec\\xa0\\x9c2/NameRegistry.sol\":2868:2885  numContracts -= 1 */\n      dup3\n      dup3\n      sload\n      tag_67\n      swap2\n      swap1\n      tag_68\n      jump\t// in\n    tag_67:\n      swap3\n      pop\n      pop\n      dup2\n      swap1\n      sstore\n      pop\n        /* \"\\xea\\xb3\\xbc\\xec\\xa0\\x9c2/NameRegistry.sol\":2967:2977  msg.sender */\n      caller\n        /* \"\\xea\\xb3\\xbc\\xec\\xa0\\x9c2/NameRegistry.sol\":2944:2987  ContractDeleted(_name, msg.sender, oldAddr) */\n      0xffffffffffffffffffffffffffffffffffffffff\n      and\n        /* \"\\xea\\xb3\\xbc\\xec\\xa0\\x9c2/NameRegistry.sol\":2960:2965  _name */\n      dup4\n        /* \"\\xea\\xb3\\xbc\\xec\\xa0\\x9c2/NameRegistry.sol\":2944:2987  ContractDeleted(_name, msg.sender, oldAddr) */\n      mload(0x40)\n      tag_69\n      swap2\n      swap1\n      tag_58\n      jump\t// in\n    tag_69:\n      mload(0x40)\n      dup1\n      swap2\n      sub\n      swap1\n      keccak256\n      0xa238383c9cda35d18e106f59b9434c34a691fa7452603473903def55bf5bf09d\n        /* \"\\xea\\xb3\\xbc\\xec\\xa0\\x9c2/NameRegistry.sol\":2979:2986  oldAddr */\n      dup4\n        /* \"\\xea\\xb3\\xbc\\xec\\xa0\\x9c2/NameRegistry.sol\":2944:2987  ContractDeleted(_name, msg.sender, oldAddr) */\n      mload(0x40)\n      tag_70\n      swap2\n      swap1\n      tag_31\n      jump\t// in\n    tag_70:\n      mload(0x40)\n      dup1\n      swap2\n      sub\n      swap1\n      log3\n        /* \"\\xea\\xb3\\xbc\\xec\\xa0\\x9c2/NameRegistry.sol\":2583:2995  {... */\n      pop\n        /* \"\\xea\\xb3\\xbc\\xec\\xa0\\x9c2/NameRegistry.sol\":2505:2995  function unregisterContract(string memory _name) public onlyOwner(_name)... */\n      pop\n      pop\n      jump\t// out\n        /* \"\\xea\\xb3\\xbc\\xec\\xa0\\x9c2/NameRegistry.sol\":3701:4033  function setAddr(string memory _name, address _addr) public onlyOwner(_name)... */\n    tag_21:\n        /* \"\\xea\\xb3\\xbc\\xec\\xa0\\x9c2/NameRegistry.sol\":3771:3776  _name */\n      dup2\n        /* \"\\xea\\xb3\\xbc\\xec\\xa0\\x9c2/NameRegistry.sol\":1480:1490  msg.sender */\n      caller\n        /* \"\\xea\\xb3\\xbc\\xec\\xa0\\x9c2/NameRegistry.sol\":1436:1490  registeredContracts[_name].contractOwner == msg.sender */\n      0xffffffffffffffffffffffffffffffffffffffff\n      and\n        /* \"\\xea\\xb3\\xbc\\xec\\xa0\\x9c2/NameRegistry.sol\":1436:1455  registeredContracts */\n      0x01\n        /* \"\\xea\\xb3\\xbc\\xec\\xa0\\x9c2/NameRegistry.sol\":1456:1461  _name */\n      dup3\n        /* \"\\xea\\xb3\\xbc\\xec\\xa0\\x9c2/NameRegistry.sol\":1436:1462  registeredContracts[_name] */\n      mload(0x40)\n      tag_72\n      swap2\n      swap1\n      tag_58\n      jump\t// in\n    tag_72:\n      swap1\n      dup2\n      mstore\n      0x20\n      add\n      mload(0x40)\n      dup1\n      swap2\n      sub\n      swap1\n      keccak256\n        /* \"\\xea\\xb3\\xbc\\xec\\xa0\\x9c2/NameRegistry.sol\":1436:1476  registeredContracts[_name].contractOwner */\n      0x00\n      add\n      0x00\n      swap1\n      sload\n      swap1\n      0x0100\n      exp\n      swap1\n      div\n      0xffffffffffffffffffffffffffffffffffffffff\n      and\n        /* \"\\xea\\xb3\\xbc\\xec\\xa0\\x9c2/NameRegistry.sol\":1436:1490  registeredContracts[_name].contractOwner == msg.sender */\n      0xffffffffffffffffffffffffffffffffffffffff\n      and\n      eq\n        /* \"\\xea\\xb3\\xbc\\xec\\xa0\\x9c2/NameRegistry.sol\":1428:1512  require(registeredContracts[_name].contractOwner == msg.sender,\"Not contract owner\") */\n      tag_73\n      jumpi\n      mload(0x40)\n      0x08c379a000000000000000000000000000000000000000000000000000000000\n      dup2\n      mstore\n      0x04\n      add\n      tag_74\n      swap1\n      tag_61\n      jump\t// in\n    tag_74:\n      mload(0x40)\n      dup1\n      swap2\n      sub\n      swap1\n      revert\n    tag_73:\n        /* \"\\xea\\xb3\\xbc\\xec\\xa0\\x9c2/NameRegistry.sol\":3904:3909  _addr */\n      dup2\n        /* \"\\xea\\xb3\\xbc\\xec\\xa0\\x9c2/NameRegistry.sol\":3859:3878  registeredContracts */\n      0x01\n        /* \"\\xea\\xb3\\xbc\\xec\\xa0\\x9c2/NameRegistry.sol\":3879:3884  _name */\n      dup5\n        /* \"\\xea\\xb3\\xbc\\xec\\xa0\\x9c2/NameRegistry.sol\":3859:3885  registeredContracts[_name] */\n      mload(0x40)\n      tag_76\n      swap2\n      swap1\n      tag_58\n      jump\t// in\n    tag_76:\n      swap1\n      dup2\n      mstore\n      0x20\n      add\n      mload(0x40)\n      dup1\n      swap2\n      sub\n      swap1\n      keccak256\n        /* \"\\xea\\xb3\\xbc\\xec\\xa0\\x9c2/NameRegistry.sol\":3859:3901  registeredContracts[_name].contractAddress */\n      0x01\n      add\n      0x00\n        /* \"\\xea\\xb3\\xbc\\xec\\xa0\\x9c2/NameRegistry.sol\":3859:3909  registeredContracts[_name].contractAddress = _addr */\n      0x0100\n      exp\n      dup2\n      sload\n      dup2\n      0xffffffffffffffffffffffffffffffffffffffff\n      mul\n      not\n      and\n      swap1\n      dup4\n      0xffffffffffffffffffffffffffffffffffffffff\n      and\n      mul\n      or\n      swap1\n      sstore\n      pop\n        /* \"\\xea\\xb3\\xbc\\xec\\xa0\\x9c2/NameRegistry.sol\":4001:4006  _name */\n      dup3\n        /* \"\\xea\\xb3\\xbc\\xec\\xa0\\x9c2/NameRegistry.sol\":3985:4025  ContractUpdated(_name, \"AddressChanged\") */\n      mload(0x40)\n      tag_77\n      swap2\n      swap1\n      tag_58\n      jump\t// in\n    tag_77:\n      mload(0x40)\n      dup1\n      swap2\n      sub\n      swap1\n      keccak256\n      0x57b75b6d8a87a5a5fb23b8661e6576421516e045c4d3cda7943d3127278e2154\n      mload(0x40)\n      tag_78\n      swap1\n      tag_79\n      jump\t// in\n    tag_78:\n      mload(0x40)\n      dup1\n      swap2\n      sub\n      swap1\n      log2\n        /* \"\\xea\\xb3\\xbc\\xec\\xa0\\x9c2/NameRegistry.sol\":3701:4033  function setAddr(string memory _name, address _addr) public onlyOwner(_name)... */\n      pop\n      pop\n      pop\n      jump\t// out\n        /* \"\\xea\\xb3\\xbc\\xec\\xa0\\x9c2/NameRegistry.sol\":4744:4946  function getDescription(string memory _name) public view returns (string memory)... */\n    tag_24:\n        /* \"\\xea\\xb3\\xbc\\xec\\xa0\\x9c2/NameRegistry.sol\":4810:4823  string memory */\n      0x60\n        /* \"\\xea\\xb3\\xbc\\xec\\xa0\\x9c2/NameRegistry.sol\":4900:4919  registeredContracts */\n      0x01\n        /* \"\\xea\\xb3\\xbc\\xec\\xa0\\x9c2/NameRegistry.sol\":4920:4925  _name */\n      dup3\n        /* \"\\xea\\xb3\\xbc\\xec\\xa0\\x9c2/NameRegistry.sol\":4900:4926  registeredContracts[_name] */\n      mload(0x40)\n      tag_81\n      swap2\n      swap1\n      tag_58\n      jump\t// in\n    tag_81:\n      swap1\n      dup2\n      mstore\n      0x20\n      add\n      mload(0x40)\n      dup1\n      swap2\n      sub\n      swap1\n      keccak256\n        /* \"\\xea\\xb3\\xbc\\xec\\xa0\\x9c2/NameRegistry.sol\":4900:4938  registeredContracts[_name].description */\n      0x02\n      add\n        /* \"\\xea\\xb3\\xbc\\xec\\xa0\\x9c2/NameRegistry.sol\":4893:4938  return registeredContracts[_name].description */\n      dup1\n      sload\n      tag_82\n      swap1\n      tag_83\n      jump\t// in\n    tag_82:\n      dup1\n      0x1f\n      add\n      0x20\n      dup1\n      swap2\n      div\n      mul\n      0x20\n      add\n      mload(0x40)\n      swap1\n      dup2\n      add\n      0x40\n      mstore\n      dup1\n      swap3\n      swap2\n      swap1\n      dup2\n      dup2\n      mstore\n      0x20\n      add\n      dup3\n      dup1\n      sload\n      tag_84\n      swap1\n      tag_83\n      jump\t// in\n    tag_84:\n      dup1\n      iszero\n      tag_85\n      jumpi\n      dup1\n      0x1f\n      lt\n      tag_86\n      jumpi\n      0x0100\n      dup1\n      dup4\n      sload\n      div\n      mul\n      dup4\n      mstore\n      swap2\n      0x20\n      add\n      swap2\n      jump(tag_85)\n    tag_86:\n      dup3\n      add\n      swap2\n      swap1\n      0x00\n      mstore\n      keccak256(0x00, 0x20)\n      swap1\n    tag_87:\n      dup2\n      sload\n      dup2\n      mstore\n      swap1\n      0x01\n      add\n      swap1\n      0x20\n      add\n      dup1\n      dup4\n      gt\n      tag_87\n      jumpi\n      dup3\n      swap1\n      sub\n      0x1f\n      and\n      dup3\n      add\n      swap2\n    tag_85:\n      pop\n      pop\n      pop\n      pop\n      pop\n      swap1\n      pop\n        /* \"\\xea\\xb3\\xbc\\xec\\xa0\\x9c2/NameRegistry.sol\":4744:4946  function getDescription(string memory _name) public view returns (string memory)... */\n      swap2\n      swap1\n      pop\n      jump\t// out\n        /* \"\\xea\\xb3\\xbc\\xec\\xa0\\x9c2/NameRegistry.sol\":3441:3636  function getOwner(string memory _name) public view returns (address)... */\n    tag_29:\n        /* \"\\xea\\xb3\\xbc\\xec\\xa0\\x9c2/NameRegistry.sol\":3501:3508  address */\n      0x00\n        /* \"\\xea\\xb3\\xbc\\xec\\xa0\\x9c2/NameRegistry.sol\":3588:3607  registeredContracts */\n      0x01\n        /* \"\\xea\\xb3\\xbc\\xec\\xa0\\x9c2/NameRegistry.sol\":3608:3613  _name */\n      dup3\n        /* \"\\xea\\xb3\\xbc\\xec\\xa0\\x9c2/NameRegistry.sol\":3588:3614  registeredContracts[_name] */\n      mload(0x40)\n      tag_89\n      swap2\n      swap1\n      tag_58\n      jump\t// in\n    tag_89:\n      swap1\n      dup2\n      mstore\n      0x20\n      add\n      mload(0x40)\n      dup1\n      swap2\n      sub\n      swap1\n      keccak256\n        /* \"\\xea\\xb3\\xbc\\xec\\xa0\\x9c2/NameRegistry.sol\":3588:3628  registeredContracts[_name].contractOwner */\n      0x00\n      add\n      0x00\n      swap1\n      sload\n      swap1\n      0x0100\n      exp\n      swap1\n      div\n      0xffffffffffffffffffffffffffffffffffffffff\n      and\n        /* \"\\xea\\xb3\\xbc\\xec\\xa0\\x9c2/NameRegistry.sol\":3581:3628  return registeredContracts[_name].contractOwner */\n      swap1\n      pop\n        /* \"\\xea\\xb3\\xbc\\xec\\xa0\\x9c2/NameRegistry.sol\":3441:3636  function getOwner(string memory _name) public view returns (address)... */\n      swap2\n      swap1\n      pop\n      jump\t// out\n        /* \"\\xea\\xb3\\xbc\\xec\\xa0\\x9c2/NameRegistry.sol\":432:456  uint public numContracts */\n    tag_33:\n      sload(0x00)\n      dup2\n      jump\t// out\n        /* \"\\xea\\xb3\\xbc\\xec\\xa0\\x9c2/NameRegistry.sol\":4334:4701  function setDescription(string memory _name,string memory _description) public onlyOwner(_name)... */\n    tag_39:\n        /* \"\\xea\\xb3\\xbc\\xec\\xa0\\x9c2/NameRegistry.sol\":4423:4428  _name */\n      dup2\n        /* \"\\xea\\xb3\\xbc\\xec\\xa0\\x9c2/NameRegistry.sol\":1480:1490  msg.sender */\n      caller\n        /* \"\\xea\\xb3\\xbc\\xec\\xa0\\x9c2/NameRegistry.sol\":1436:1490  registeredContracts[_name].contractOwner == msg.sender */\n      0xffffffffffffffffffffffffffffffffffffffff\n      and\n        /* \"\\xea\\xb3\\xbc\\xec\\xa0\\x9c2/NameRegistry.sol\":1436:1455  registeredContracts */\n      0x01\n        /* \"\\xea\\xb3\\xbc\\xec\\xa0\\x9c2/NameRegistry.sol\":1456:1461  _name */\n      dup3\n        /* \"\\xea\\xb3\\xbc\\xec\\xa0\\x9c2/NameRegistry.sol\":1436:1462  registeredContracts[_name] */\n      mload(0x40)\n      tag_91\n      swap2\n      swap1\n      tag_58\n      jump\t// in\n    tag_91:\n      swap1\n      dup2\n      mstore\n      0x20\n      add\n      mload(0x40)\n      dup1\n      swap2\n      sub\n      swap1\n      keccak256\n        /* \"\\xea\\xb3\\xbc\\xec\\xa0\\x9c2/NameRegistry.sol\":1436:1476  registeredContracts[_name].contractOwner */\n      0x00\n      add\n      0x00\n      swap1\n      sload\n      swap1\n      0x0100\n      exp\n      swap1\n      div\n      0xffffffffffffffffffffffffffffffffffffffff\n      and\n        /* \"\\xea\\xb3\\xbc\\xec\\xa0\\x9c2/NameRegistry.sol\":1436:1490  registeredContracts[_name].contractOwner == msg.sender */\n      0xffffffffffffffffffffffffffffffffffffffff\n      and\n      eq\n        /* \"\\xea\\xb3\\xbc\\xec\\xa0\\x9c2/NameRegistry.sol\":1428:1512  require(registeredContracts[_name].contractOwner == msg.sender,\"Not contract owner\") */\n      tag_92\n      jumpi\n      mload(0x40)\n      0x08c379a000000000000000000000000000000000000000000000000000000000\n      dup2\n      mstore\n      0x04\n      add\n      tag_93\n      swap1\n      tag_61\n      jump\t// in\n    tag_93:\n      mload(0x40)\n      dup1\n      swap2\n      sub\n      swap1\n      revert\n    tag_92:\n        /* \"\\xea\\xb3\\xbc\\xec\\xa0\\x9c2/NameRegistry.sol\":4555:4567  _description */\n      dup2\n        /* \"\\xea\\xb3\\xbc\\xec\\xa0\\x9c2/NameRegistry.sol\":4514:4533  registeredContracts */\n      0x01\n        /* \"\\xea\\xb3\\xbc\\xec\\xa0\\x9c2/NameRegistry.sol\":4534:4539  _name */\n      dup5\n        /* \"\\xea\\xb3\\xbc\\xec\\xa0\\x9c2/NameRegistry.sol\":4514:4540  registeredContracts[_name] */\n      mload(0x40)\n      tag_95\n      swap2\n      swap1\n      tag_58\n      jump\t// in\n    tag_95:\n      swap1\n      dup2\n      mstore\n      0x20\n      add\n      mload(0x40)\n      dup1\n      swap2\n      sub\n      swap1\n      keccak256\n        /* \"\\xea\\xb3\\xbc\\xec\\xa0\\x9c2/NameRegistry.sol\":4514:4552  registeredContracts[_name].description */\n      0x02\n      add\n        /* \"\\xea\\xb3\\xbc\\xec\\xa0\\x9c2/NameRegistry.sol\":4514:4567  registeredContracts[_name].description = _description */\n      swap1\n      dup2\n      tag_96\n      swap2\n      swap1\n      tag_97\n      jump\t// in\n    tag_96:\n      pop\n        /* \"\\xea\\xb3\\xbc\\xec\\xa0\\x9c2/NameRegistry.sol\":4665:4670  _name */\n      dup3\n        /* \"\\xea\\xb3\\xbc\\xec\\xa0\\x9c2/NameRegistry.sol\":4649:4693  ContractUpdated(_name, \"DescriptionChanged\") */\n      mload(0x40)\n      tag_98\n      swap2\n      swap1\n      tag_58\n      jump\t// in\n    tag_98:\n      mload(0x40)\n      dup1\n      swap2\n      sub\n      swap1\n      keccak256\n      0x57b75b6d8a87a5a5fb23b8661e6576421516e045c4d3cda7943d3127278e2154\n      mload(0x40)\n      tag_99\n      swap1\n      tag_100\n      jump\t// in\n    tag_99:\n      mload(0x40)\n      dup1\n      swap2\n      sub\n      swap1\n      log2\n        /* \"\\xea\\xb3\\xbc\\xec\\xa0\\x9c2/NameRegistry.sol\":4334:4701  function setDescription(string memory _name,string memory _description) public onlyOwner(_name)... */\n      pop\n      pop\n      pop\n      jump\t// out\n        /* \"\\xea\\xb3\\xbc\\xec\\xa0\\x9c2/NameRegistry.sol\":556:614  mapping(string => ContractInfo) public registeredContracts */\n    tag_42:\n      0x01\n      dup2\n      dup1\n      mload\n      0x20\n      dup2\n      add\n      dup3\n      add\n      dup1\n      mload\n      dup5\n      dup3\n      mstore\n      0x20\n      dup4\n      add\n      0x20\n      dup6\n      add\n      keccak256\n      dup2\n      dup4\n      mstore\n      dup1\n      swap6\n      pop\n      pop\n      pop\n      pop\n      pop\n      pop\n      0x00\n      swap2\n      pop\n      swap1\n      pop\n      dup1\n      0x00\n      add\n      0x00\n      swap1\n      sload\n      swap1\n      0x0100\n      exp\n      swap1\n      div\n      0xffffffffffffffffffffffffffffffffffffffff\n      and\n      swap1\n      dup1\n      0x01\n      add\n      0x00\n      swap1\n      sload\n      swap1\n      0x0100\n      exp\n      swap1\n      div\n      0xffffffffffffffffffffffffffffffffffffffff\n      and\n      swap1\n      dup1\n      0x02\n      add\n      dup1\n      sload\n      tag_101\n      swap1\n      tag_83\n      jump\t// in\n    tag_101:\n      dup1\n      0x1f\n      add\n      0x20\n      dup1\n      swap2\n      div\n      mul\n      0x20\n      add\n      mload(0x40)\n      swap1\n      dup2\n      add\n      0x40\n      mstore\n      dup1\n      swap3\n      swap2\n      swap1\n      dup2\n      dup2\n      mstore\n      0x20\n      add\n      dup3\n      dup1\n      sload\n      tag_102\n      swap1\n      tag_83\n      jump\t// in\n    tag_102:\n      dup1\n      iszero\n      tag_103\n      jumpi\n      dup1\n      0x1f\n      lt\n      tag_104\n      jumpi\n      0x0100\n      dup1\n      dup4\n      sload\n      div\n      mul\n      dup4\n      mstore\n      swap2\n      0x20\n      add\n      swap2\n      jump(tag_103)\n    tag_104:\n      dup3\n      add\n      swap2\n      swap1\n      0x00\n      mstore\n      keccak256(0x00, 0x20)\n      swap1\n    tag_105:\n      dup2\n      sload\n      dup2\n      mstore\n      swap1\n      0x01\n      add\n      swap1\n      0x20\n      add\n      dup1\n      dup4\n      gt\n      tag_105\n      jumpi\n      dup3\n      swap1\n      sub\n      0x1f\n      and\n      dup3\n      add\n      swap2\n    tag_103:\n      pop\n      pop\n      pop\n      pop\n      pop\n      swap1\n      pop\n      dup4\n      jump\t// out\n        /* \"\\xea\\xb3\\xbc\\xec\\xa0\\x9c2/NameRegistry.sol\":1718:2447  function registerContract(string memory _name,address _contractAddress,string memory _description) public ... */\n    tag_48:\n        /* \"\\xea\\xb3\\xbc\\xec\\xa0\\x9c2/NameRegistry.sol\":1952:1953  0 */\n      0x00\n        /* \"\\xea\\xb3\\xbc\\xec\\xa0\\x9c2/NameRegistry.sol\":1898:1954  registeredContracts[_name].contractAddress == address(0) */\n      0xffffffffffffffffffffffffffffffffffffffff\n      and\n        /* \"\\xea\\xb3\\xbc\\xec\\xa0\\x9c2/NameRegistry.sol\":1898:1917  registeredContracts */\n      0x01\n        /* \"\\xea\\xb3\\xbc\\xec\\xa0\\x9c2/NameRegistry.sol\":1918:1923  _name */\n      dup5\n        /* \"\\xea\\xb3\\xbc\\xec\\xa0\\x9c2/NameRegistry.sol\":1898:1924  registeredContracts[_name] */\n      mload(0x40)\n      tag_107\n      swap2\n      swap1\n      tag_58\n      jump\t// in\n    tag_107:\n      swap1\n      dup2\n      mstore\n      0x20\n      add\n      mload(0x40)\n      dup1\n      swap2\n      sub\n      swap1\n      keccak256\n        /* \"\\xea\\xb3\\xbc\\xec\\xa0\\x9c2/NameRegistry.sol\":1898:1940  registeredContracts[_name].contractAddress */\n      0x01\n      add\n      0x00\n      swap1\n      sload\n      swap1\n      0x0100\n      exp\n      swap1\n      div\n      0xffffffffffffffffffffffffffffffffffffffff\n      and\n        /* \"\\xea\\xb3\\xbc\\xec\\xa0\\x9c2/NameRegistry.sol\":1898:1954  registeredContracts[_name].contractAddress == address(0) */\n      0xffffffffffffffffffffffffffffffffffffffff\n      and\n      eq\n        /* \"\\xea\\xb3\\xbc\\xec\\xa0\\x9c2/NameRegistry.sol\":1890:1981  require(registeredContracts[_name].contractAddress == address(0),\"Name already registered\") */\n      tag_108\n      jumpi\n      mload(0x40)\n      0x08c379a000000000000000000000000000000000000000000000000000000000\n      dup2\n      mstore\n      0x04\n      add\n      tag_109\n      swap1\n      tag_110\n      jump\t// in\n    tag_109:\n      mload(0x40)\n      dup1\n      swap2\n      sub\n      swap1\n      revert\n    tag_108:\n        /* \"\\xea\\xb3\\xbc\\xec\\xa0\\x9c2/NameRegistry.sol\":2133:2234  ContractInfo({contractOwner: msg.sender,contractAddress: _contractAddress,description: _description}) */\n      mload(0x40)\n      dup1\n      0x60\n      add\n      0x40\n      mstore\n      dup1\n        /* \"\\xea\\xb3\\xbc\\xec\\xa0\\x9c2/NameRegistry.sol\":2162:2172  msg.sender */\n      caller\n        /* \"\\xea\\xb3\\xbc\\xec\\xa0\\x9c2/NameRegistry.sol\":2133:2234  ContractInfo({contractOwner: msg.sender,contractAddress: _contractAddress,description: _description}) */\n      0xffffffffffffffffffffffffffffffffffffffff\n      and\n      dup2\n      mstore\n      0x20\n      add\n        /* \"\\xea\\xb3\\xbc\\xec\\xa0\\x9c2/NameRegistry.sol\":2190:2206  _contractAddress */\n      dup4\n        /* \"\\xea\\xb3\\xbc\\xec\\xa0\\x9c2/NameRegistry.sol\":2133:2234  ContractInfo({contractOwner: msg.sender,contractAddress: _contractAddress,description: _description}) */\n      0xffffffffffffffffffffffffffffffffffffffff\n      and\n      dup2\n      mstore\n      0x20\n      add\n        /* \"\\xea\\xb3\\xbc\\xec\\xa0\\x9c2/NameRegistry.sol\":2220:2232  _description */\n      dup3\n        /* \"\\xea\\xb3\\xbc\\xec\\xa0\\x9c2/NameRegistry.sol\":2133:2234  ContractInfo({contractOwner: msg.sender,contractAddress: _contractAddress,description: _description}) */\n      dup2\n      mstore\n      pop\n        /* \"\\xea\\xb3\\xbc\\xec\\xa0\\x9c2/NameRegistry.sol\":2104:2123  registeredContracts */\n      0x01\n        /* \"\\xea\\xb3\\xbc\\xec\\xa0\\x9c2/NameRegistry.sol\":2124:2129  _name */\n      dup5\n        /* \"\\xea\\xb3\\xbc\\xec\\xa0\\x9c2/NameRegistry.sol\":2104:2130  registeredContracts[_name] */\n      mload(0x40)\n      tag_111\n      swap2\n      swap1\n      tag_58\n      jump\t// in\n    tag_111:\n      swap1\n      dup2\n      mstore\n      0x20\n      add\n      mload(0x40)\n      dup1\n      swap2\n      sub\n      swap1\n      keccak256\n        /* \"\\xea\\xb3\\xbc\\xec\\xa0\\x9c2/NameRegistry.sol\":2104:2234  registeredContracts[_name] = ContractInfo({contractOwner: msg.sender,contractAddress: _contractAddress,description: _description}) */\n      0x00\n      dup3\n      add\n      mload\n      dup2\n      0x00\n      add\n      exp(0x0100, 0x00)\n      dup2\n      sload\n      dup2\n      0xffffffffffffffffffffffffffffffffffffffff\n      mul\n      not\n      and\n      swap1\n      dup4\n      0xffffffffffffffffffffffffffffffffffffffff\n      and\n      mul\n      or\n      swap1\n      sstore\n      pop\n      0x20\n      dup3\n      add\n      mload\n      dup2\n      0x01\n      add\n      exp(0x0100, 0x00)\n      dup2\n      sload\n      dup2\n      0xffffffffffffffffffffffffffffffffffffffff\n      mul\n      not\n      and\n      swap1\n      dup4\n      0xffffffffffffffffffffffffffffffffffffffff\n      and\n      mul\n      or\n      swap1\n      sstore\n      pop\n      0x40\n      dup3\n      add\n      mload\n      dup2\n      0x02\n      add\n      swap1\n      dup2\n      tag_112\n      swap2\n      swap1\n      tag_97\n      jump\t// in\n    tag_112:\n      pop\n      swap1\n      pop\n      pop\n        /* \"\\xea\\xb3\\xbc\\xec\\xa0\\x9c2/NameRegistry.sol\":2306:2307  1 */\n      0x01\n        /* \"\\xea\\xb3\\xbc\\xec\\xa0\\x9c2/NameRegistry.sol\":2290:2302  numContracts */\n      0x00\n      0x00\n        /* \"\\xea\\xb3\\xbc\\xec\\xa0\\x9c2/NameRegistry.sol\":2290:2307  numContracts += 1 */\n      dup3\n      dup3\n      sload\n      tag_113\n      swap2\n      swap1\n      tag_114\n      jump\t// in\n    tag_113:\n      swap3\n      pop\n      pop\n      dup2\n      swap1\n      sstore\n      pop\n        /* \"\\xea\\xb3\\xbc\\xec\\xa0\\x9c2/NameRegistry.sol\":2396:2406  msg.sender */\n      caller\n        /* \"\\xea\\xb3\\xbc\\xec\\xa0\\x9c2/NameRegistry.sol\":2370:2439  ContractRegistered(_name, msg.sender, _contractAddress, _description) */\n      0xffffffffffffffffffffffffffffffffffffffff\n      and\n        /* \"\\xea\\xb3\\xbc\\xec\\xa0\\x9c2/NameRegistry.sol\":2389:2394  _name */\n      dup4\n        /* \"\\xea\\xb3\\xbc\\xec\\xa0\\x9c2/NameRegistry.sol\":2370:2439  ContractRegistered(_name, msg.sender, _contractAddress, _description) */\n      mload(0x40)\n      tag_115\n      swap2\n      swap1\n      tag_58\n      jump\t// in\n    tag_115:\n      mload(0x40)\n      dup1\n      swap2\n      sub\n      swap1\n      keccak256\n      0xbf65039f6f2acb913710b9066c428a19be4742d8d25bd116f552ace35c9b99c2\n        /* \"\\xea\\xb3\\xbc\\xec\\xa0\\x9c2/NameRegistry.sol\":2408:2424  _contractAddress */\n      dup5\n        /* \"\\xea\\xb3\\xbc\\xec\\xa0\\x9c2/NameRegistry.sol\":2426:2438  _description */\n      dup5\n        /* \"\\xea\\xb3\\xbc\\xec\\xa0\\x9c2/NameRegistry.sol\":2370:2439  ContractRegistered(_name, msg.sender, _contractAddress, _description) */\n      mload(0x40)\n      tag_116\n      swap3\n      swap2\n      swap1\n      tag_117\n      jump\t// in\n    tag_116:\n      mload(0x40)\n      dup1\n      swap2\n      sub\n      swap1\n      log3\n        /* \"\\xea\\xb3\\xbc\\xec\\xa0\\x9c2/NameRegistry.sol\":1718:2447  function registerContract(string memory _name,address _contractAddress,string memory _description) public ... */\n      pop\n      pop\n      pop\n      jump\t// out\n        /* \"\\xea\\xb3\\xbc\\xec\\xa0\\x9c2/NameRegistry.sol\":4076:4269  function getAddr(string memory _name) public view returns (address)... */\n    tag_51:\n        /* \"\\xea\\xb3\\xbc\\xec\\xa0\\x9c2/NameRegistry.sol\":4135:4142  address */\n      0x00\n        /* \"\\xea\\xb3\\xbc\\xec\\xa0\\x9c2/NameRegistry.sol\":4219:4238  registeredContracts */\n      0x01\n        /* \"\\xea\\xb3\\xbc\\xec\\xa0\\x9c2/NameRegistry.sol\":4239:4244  _name */\n      dup3\n        /* \"\\xea\\xb3\\xbc\\xec\\xa0\\x9c2/NameRegistry.sol\":4219:4245  registeredContracts[_name] */\n      mload(0x40)\n      tag_119\n      swap2\n      swap1\n      tag_58\n      jump\t// in\n    tag_119:\n      swap1\n      dup2\n      mstore\n      0x20\n      add\n      mload(0x40)\n      dup1\n      swap2\n      sub\n      swap1\n      keccak256\n        /* \"\\xea\\xb3\\xbc\\xec\\xa0\\x9c2/NameRegistry.sol\":4219:4261  registeredContracts[_name].contractAddress */\n      0x01\n      add\n      0x00\n      swap1\n      sload\n      swap1\n      0x0100\n      exp\n      swap1\n      div\n      0xffffffffffffffffffffffffffffffffffffffff\n      and\n        /* \"\\xea\\xb3\\xbc\\xec\\xa0\\x9c2/NameRegistry.sol\":4212:4261  return registeredContracts[_name].contractAddress */\n      swap1\n      pop\n        /* \"\\xea\\xb3\\xbc\\xec\\xa0\\x9c2/NameRegistry.sol\":4076:4269  function getAddr(string memory _name) public view returns (address)... */\n      swap2\n      swap1\n      pop\n      jump\t// out\n        /* \"\\xea\\xb3\\xbc\\xec\\xa0\\x9c2/NameRegistry.sol\":3063:3395  function changeOwner(string memory _name, address _newOwner) public onlyOwner(_name)... */\n    tag_55:\n        /* \"\\xea\\xb3\\xbc\\xec\\xa0\\x9c2/NameRegistry.sol\":3141:3146  _name */\n      dup2\n        /* \"\\xea\\xb3\\xbc\\xec\\xa0\\x9c2/NameRegistry.sol\":1480:1490  msg.sender */\n      caller\n        /* \"\\xea\\xb3\\xbc\\xec\\xa0\\x9c2/NameRegistry.sol\":1436:1490  registeredContracts[_name].contractOwner == msg.sender */\n      0xffffffffffffffffffffffffffffffffffffffff\n      and\n        /* \"\\xea\\xb3\\xbc\\xec\\xa0\\x9c2/NameRegistry.sol\":1436:1455  registeredContracts */\n      0x01\n        /* \"\\xea\\xb3\\xbc\\xec\\xa0\\x9c2/NameRegistry.sol\":1456:1461  _name */\n      dup3\n        /* \"\\xea\\xb3\\xbc\\xec\\xa0\\x9c2/NameRegistry.sol\":1436:1462  registeredContracts[_name] */\n      mload(0x40)\n      tag_121\n      swap2\n      swap1\n      tag_58\n      jump\t// in\n    tag_121:\n      swap1\n      dup2\n      mstore\n      0x20\n      add\n      mload(0x40)\n      dup1\n      swap2\n      sub\n      swap1\n      keccak256\n        /* \"\\xea\\xb3\\xbc\\xec\\xa0\\x9c2/NameRegistry.sol\":1436:1476  registeredContracts[_name].contractOwner */\n      0x00\n      add\n      0x00\n      swap1\n      sload\n      swap1\n      0x0100\n      exp\n      swap1\n      div\n      0xffffffffffffffffffffffffffffffffffffffff\n      and\n        /* \"\\xea\\xb3\\xbc\\xec\\xa0\\x9c2/NameRegistry.sol\":1436:1490  registeredContracts[_name].contractOwner == msg.sender */\n      0xffffffffffffffffffffffffffffffffffffffff\n      and\n      eq\n        /* \"\\xea\\xb3\\xbc\\xec\\xa0\\x9c2/NameRegistry.sol\":1428:1512  require(registeredContracts[_name].contractOwner == msg.sender,\"Not contract owner\") */\n      tag_122\n      jumpi\n      mload(0x40)\n      0x08c379a000000000000000000000000000000000000000000000000000000000\n      dup2\n      mstore\n      0x04\n      add\n      tag_123\n      swap1\n      tag_61\n      jump\t// in\n    tag_123:\n      mload(0x40)\n      dup1\n      swap2\n      sub\n      swap1\n      revert\n    tag_122:\n        /* \"\\xea\\xb3\\xbc\\xec\\xa0\\x9c2/NameRegistry.sol\":3266:3275  _newOwner */\n      dup2\n        /* \"\\xea\\xb3\\xbc\\xec\\xa0\\x9c2/NameRegistry.sol\":3223:3242  registeredContracts */\n      0x01\n        /* \"\\xea\\xb3\\xbc\\xec\\xa0\\x9c2/NameRegistry.sol\":3243:3248  _name */\n      dup5\n        /* \"\\xea\\xb3\\xbc\\xec\\xa0\\x9c2/NameRegistry.sol\":3223:3249  registeredContracts[_name] */\n      mload(0x40)\n      tag_125\n      swap2\n      swap1\n      tag_58\n      jump\t// in\n    tag_125:\n      swap1\n      dup2\n      mstore\n      0x20\n      add\n      mload(0x40)\n      dup1\n      swap2\n      sub\n      swap1\n      keccak256\n        /* \"\\xea\\xb3\\xbc\\xec\\xa0\\x9c2/NameRegistry.sol\":3223:3263  registeredContracts[_name].contractOwner */\n      0x00\n      add\n      0x00\n        /* \"\\xea\\xb3\\xbc\\xec\\xa0\\x9c2/NameRegistry.sol\":3223:3275  registeredContracts[_name].contractOwner = _newOwner */\n      0x0100\n      exp\n      dup2\n      sload\n      dup2\n      0xffffffffffffffffffffffffffffffffffffffff\n      mul\n      not\n      and\n      swap1\n      dup4\n      0xffffffffffffffffffffffffffffffffffffffff\n      and\n      mul\n      or\n      swap1\n      sstore\n      pop\n        /* \"\\xea\\xb3\\xbc\\xec\\xa0\\x9c2/NameRegistry.sol\":3365:3370  _name */\n      dup3\n        /* \"\\xea\\xb3\\xbc\\xec\\xa0\\x9c2/NameRegistry.sol\":3349:3387  ContractUpdated(_name, \"OwnerChanged\") */\n      mload(0x40)\n      tag_126\n      swap2\n      swap1\n      tag_58\n      jump\t// in\n    tag_126:\n      mload(0x40)\n      dup1\n      swap2\n      sub\n      swap1\n      keccak256\n      0x57b75b6d8a87a5a5fb23b8661e6576421516e045c4d3cda7943d3127278e2154\n      mload(0x40)\n      tag_127\n      swap1\n      tag_128\n      jump\t// in\n    tag_127:\n      mload(0x40)\n      dup1\n      swap2\n      sub\n      swap1\n      log2\n        /* \"\\xea\\xb3\\xbc\\xec\\xa0\\x9c2/NameRegistry.sol\":3063:3395  function changeOwner(string memory _name, address _newOwner) public onlyOwner(_name)... */\n      pop\n      pop\n      pop\n      jump\t// out\n    tag_66:\n      pop\n      dup1\n      sload\n      tag_129\n      swap1\n      tag_83\n      jump\t// in\n    tag_129:\n      0x00\n      dup3\n      sstore\n      dup1\n      0x1f\n      lt\n      tag_131\n      jumpi\n      pop\n      jump(tag_130)\n    tag_131:\n      0x1f\n      add\n      0x20\n      swap1\n      div\n      swap1\n      0x00\n      mstore\n      keccak256(0x00, 0x20)\n      swap1\n      tag_132\n      swap2\n      swap1\n      tag_133\n      jump\t// in\n    tag_132:\n    tag_130:\n      pop\n      jump\t// out\n    tag_133:\n      0x00\n    tag_134:\n      dup1\n      dup3\n      gt\n      iszero\n      tag_135\n      jumpi\n      dup3\n      dup2\n      add\n      0x00\n      swap1\n      sstore\n      0x01\n      add\n      jump(tag_134)\n    tag_135:\n      pop\n      pop\n      swap1\n      jump\t// out\n        /* \"#utility.yul\":7:82   */\n    tag_136:\n        /* \"#utility.yul\":40:46   */\n      0x00\n        /* \"#utility.yul\":73:75   */\n      0x40\n        /* \"#utility.yul\":67:76   */\n      mload\n        /* \"#utility.yul\":57:76   */\n      swap1\n      pop\n        /* \"#utility.yul\":7:82   */\n      swap1\n      jump\t// out\n        /* \"#utility.yul\":88:205   */\n    tag_137:\n        /* \"#utility.yul\":197:198   */\n      0x00\n        /* \"#utility.yul\":194:195   */\n      0x00\n        /* \"#utility.yul\":187:199   */\n      revert\n        /* \"#utility.yul\":211:328   */\n    tag_138:\n        /* \"#utility.yul\":320:321   */\n      0x00\n        /* \"#utility.yul\":317:318   */\n      0x00\n        /* \"#utility.yul\":310:322   */\n      revert\n        /* \"#utility.yul\":334:451   */\n    tag_139:\n        /* \"#utility.yul\":443:444   */\n      0x00\n        /* \"#utility.yul\":440:441   */\n      0x00\n        /* \"#utility.yul\":433:445   */\n      revert\n        /* \"#utility.yul\":457:574   */\n    tag_140:\n        /* \"#utility.yul\":566:567   */\n      0x00\n        /* \"#utility.yul\":563:564   */\n      0x00\n        /* \"#utility.yul\":556:568   */\n      revert\n        /* \"#utility.yul\":580:682   */\n    tag_141:\n        /* \"#utility.yul\":621:627   */\n      0x00\n        /* \"#utility.yul\":672:674   */\n      0x1f\n        /* \"#utility.yul\":668:675   */\n      not\n        /* \"#utility.yul\":663:665   */\n      0x1f\n        /* \"#utility.yul\":656:661   */\n      dup4\n        /* \"#utility.yul\":652:666   */\n      add\n        /* \"#utility.yul\":648:676   */\n      and\n        /* \"#utility.yul\":638:676   */\n      swap1\n      pop\n        /* \"#utility.yul\":580:682   */\n      swap2\n      swap1\n      pop\n      jump\t// out\n        /* \"#utility.yul\":688:868   */\n    tag_142:\n        /* \"#utility.yul\":736:813   */\n      0x4e487b7100000000000000000000000000000000000000000000000000000000\n        /* \"#utility.yul\":733:734   */\n      0x00\n        /* \"#utility.yul\":726:814   */\n      mstore\n        /* \"#utility.yul\":833:837   */\n      0x41\n        /* \"#utility.yul\":830:831   */\n      0x04\n        /* \"#utility.yul\":823:838   */\n      mstore\n        /* \"#utility.yul\":857:861   */\n      0x24\n        /* \"#utility.yul\":854:855   */\n      0x00\n        /* \"#utility.yul\":847:862   */\n      revert\n        /* \"#utility.yul\":874:1155   */\n    tag_143:\n        /* \"#utility.yul\":957:984   */\n      tag_198\n        /* \"#utility.yul\":979:983   */\n      dup3\n        /* \"#utility.yul\":957:984   */\n      tag_141\n      jump\t// in\n    tag_198:\n        /* \"#utility.yul\":949:955   */\n      dup2\n        /* \"#utility.yul\":945:985   */\n      add\n        /* \"#utility.yul\":1087:1093   */\n      dup2\n        /* \"#utility.yul\":1075:1085   */\n      dup2\n        /* \"#utility.yul\":1072:1094   */\n      lt\n        /* \"#utility.yul\":1051:1069   */\n      0xffffffffffffffff\n        /* \"#utility.yul\":1039:1049   */\n      dup3\n        /* \"#utility.yul\":1036:1070   */\n      gt\n        /* \"#utility.yul\":1033:1095   */\n      or\n        /* \"#utility.yul\":1030:1118   */\n      iszero\n      tag_199\n      jumpi\n        /* \"#utility.yul\":1098:1116   */\n      tag_200\n      tag_142\n      jump\t// in\n    tag_200:\n        /* \"#utility.yul\":1030:1118   */\n    tag_199:\n        /* \"#utility.yul\":1138:1148   */\n      dup1\n        /* \"#utility.yul\":1134:1136   */\n      0x40\n        /* \"#utility.yul\":1127:1149   */\n      mstore\n        /* \"#utility.yul\":917:1155   */\n      pop\n        /* \"#utility.yul\":874:1155   */\n      pop\n      pop\n      jump\t// out\n        /* \"#utility.yul\":1161:1290   */\n    tag_144:\n        /* \"#utility.yul\":1195:1201   */\n      0x00\n        /* \"#utility.yul\":1222:1242   */\n      tag_202\n      tag_136\n      jump\t// in\n    tag_202:\n        /* \"#utility.yul\":1212:1242   */\n      swap1\n      pop\n        /* \"#utility.yul\":1251:1284   */\n      tag_203\n        /* \"#utility.yul\":1279:1283   */\n      dup3\n        /* \"#utility.yul\":1271:1277   */\n      dup3\n        /* \"#utility.yul\":1251:1284   */\n      tag_143\n      jump\t// in\n    tag_203:\n        /* \"#utility.yul\":1161:1290   */\n      swap2\n      swap1\n      pop\n      jump\t// out\n        /* \"#utility.yul\":1296:1604   */\n    tag_145:\n        /* \"#utility.yul\":1358:1362   */\n      0x00\n        /* \"#utility.yul\":1448:1466   */\n      0xffffffffffffffff\n        /* \"#utility.yul\":1440:1446   */\n      dup3\n        /* \"#utility.yul\":1437:1467   */\n      gt\n        /* \"#utility.yul\":1434:1490   */\n      iszero\n      tag_205\n      jumpi\n        /* \"#utility.yul\":1470:1488   */\n      tag_206\n      tag_142\n      jump\t// in\n    tag_206:\n        /* \"#utility.yul\":1434:1490   */\n    tag_205:\n        /* \"#utility.yul\":1508:1537   */\n      tag_207\n        /* \"#utility.yul\":1530:1536   */\n      dup3\n        /* \"#utility.yul\":1508:1537   */\n      tag_141\n      jump\t// in\n    tag_207:\n        /* \"#utility.yul\":1500:1537   */\n      swap1\n      pop\n        /* \"#utility.yul\":1592:1596   */\n      0x20\n        /* \"#utility.yul\":1586:1590   */\n      dup2\n        /* \"#utility.yul\":1582:1597   */\n      add\n        /* \"#utility.yul\":1574:1597   */\n      swap1\n      pop\n        /* \"#utility.yul\":1296:1604   */\n      swap2\n      swap1\n      pop\n      jump\t// out\n        /* \"#utility.yul\":1610:1758   */\n    tag_146:\n        /* \"#utility.yul\":1708:1714   */\n      dup3\n        /* \"#utility.yul\":1703:1706   */\n      dup2\n        /* \"#utility.yul\":1698:1701   */\n      dup4\n        /* \"#utility.yul\":1685:1715   */\n      calldatacopy\n        /* \"#utility.yul\":1749:1750   */\n      0x00\n        /* \"#utility.yul\":1740:1746   */\n      dup4\n        /* \"#utility.yul\":1735:1738   */\n      dup4\n        /* \"#utility.yul\":1731:1747   */\n      add\n        /* \"#utility.yul\":1724:1751   */\n      mstore\n        /* \"#utility.yul\":1610:1758   */\n      pop\n      pop\n      pop\n      jump\t// out\n        /* \"#utility.yul\":1764:2189   */\n    tag_147:\n        /* \"#utility.yul\":1842:1847   */\n      0x00\n        /* \"#utility.yul\":1867:1933   */\n      tag_210\n        /* \"#utility.yul\":1883:1932   */\n      tag_211\n        /* \"#utility.yul\":1925:1931   */\n      dup5\n        /* \"#utility.yul\":1883:1932   */\n      tag_145\n      jump\t// in\n    tag_211:\n        /* \"#utility.yul\":1867:1933   */\n      tag_144\n      jump\t// in\n    tag_210:\n        /* \"#utility.yul\":1858:1933   */\n      swap1\n      pop\n        /* \"#utility.yul\":1956:1962   */\n      dup3\n        /* \"#utility.yul\":1949:1954   */\n      dup2\n        /* \"#utility.yul\":1942:1963   */\n      mstore\n        /* \"#utility.yul\":1994:1998   */\n      0x20\n        /* \"#utility.yul\":1987:1992   */\n      dup2\n        /* \"#utility.yul\":1983:1999   */\n      add\n        /* \"#utility.yul\":2032:2035   */\n      dup5\n        /* \"#utility.yul\":2023:2029   */\n      dup5\n        /* \"#utility.yul\":2018:2021   */\n      dup5\n        /* \"#utility.yul\":2014:2030   */\n      add\n        /* \"#utility.yul\":2011:2036   */\n      gt\n        /* \"#utility.yul\":2008:2120   */\n      iszero\n      tag_212\n      jumpi\n        /* \"#utility.yul\":2039:2118   */\n      tag_213\n      tag_140\n      jump\t// in\n    tag_213:\n        /* \"#utility.yul\":2008:2120   */\n    tag_212:\n        /* \"#utility.yul\":2129:2183   */\n      tag_214\n        /* \"#utility.yul\":2176:2182   */\n      dup5\n        /* \"#utility.yul\":2171:2174   */\n      dup3\n        /* \"#utility.yul\":2166:2169   */\n      dup6\n        /* \"#utility.yul\":2129:2183   */\n      tag_146\n      jump\t// in\n    tag_214:\n        /* \"#utility.yul\":1848:2189   */\n      pop\n        /* \"#utility.yul\":1764:2189   */\n      swap4\n      swap3\n      pop\n      pop\n      pop\n      jump\t// out\n        /* \"#utility.yul\":2209:2549   */\n    tag_148:\n        /* \"#utility.yul\":2265:2270   */\n      0x00\n        /* \"#utility.yul\":2314:2317   */\n      dup3\n        /* \"#utility.yul\":2307:2311   */\n      0x1f\n        /* \"#utility.yul\":2299:2305   */\n      dup4\n        /* \"#utility.yul\":2295:2312   */\n      add\n        /* \"#utility.yul\":2291:2318   */\n      slt\n        /* \"#utility.yul\":2281:2403   */\n      tag_216\n      jumpi\n        /* \"#utility.yul\":2322:2401   */\n      tag_217\n      tag_139\n      jump\t// in\n    tag_217:\n        /* \"#utility.yul\":2281:2403   */\n    tag_216:\n        /* \"#utility.yul\":2439:2445   */\n      dup2\n        /* \"#utility.yul\":2426:2446   */\n      calldataload\n        /* \"#utility.yul\":2464:2543   */\n      tag_218\n        /* \"#utility.yul\":2539:2542   */\n      dup5\n        /* \"#utility.yul\":2531:2537   */\n      dup3\n        /* \"#utility.yul\":2524:2528   */\n      0x20\n        /* \"#utility.yul\":2516:2522   */\n      dup7\n        /* \"#utility.yul\":2512:2529   */\n      add\n        /* \"#utility.yul\":2464:2543   */\n      tag_147\n      jump\t// in\n    tag_218:\n        /* \"#utility.yul\":2455:2543   */\n      swap2\n      pop\n        /* \"#utility.yul\":2271:2549   */\n      pop\n        /* \"#utility.yul\":2209:2549   */\n      swap3\n      swap2\n      pop\n      pop\n      jump\t// out\n        /* \"#utility.yul\":2555:3064   */\n    tag_16:\n        /* \"#utility.yul\":2624:2630   */\n      0x00\n        /* \"#utility.yul\":2673:2675   */\n      0x20\n        /* \"#utility.yul\":2661:2670   */\n      dup3\n        /* \"#utility.yul\":2652:2659   */\n      dup5\n        /* \"#utility.yul\":2648:2671   */\n      sub\n        /* \"#utility.yul\":2644:2676   */\n      slt\n        /* \"#utility.yul\":2641:2760   */\n      iszero\n      tag_220\n      jumpi\n        /* \"#utility.yul\":2679:2758   */\n      tag_221\n      tag_137\n      jump\t// in\n    tag_221:\n        /* \"#utility.yul\":2641:2760   */\n    tag_220:\n        /* \"#utility.yul\":2827:2828   */\n      0x00\n        /* \"#utility.yul\":2816:2825   */\n      dup3\n        /* \"#utility.yul\":2812:2829   */\n      add\n        /* \"#utility.yul\":2799:2830   */\n      calldataload\n        /* \"#utility.yul\":2857:2875   */\n      0xffffffffffffffff\n        /* \"#utility.yul\":2849:2855   */\n      dup2\n        /* \"#utility.yul\":2846:2876   */\n      gt\n        /* \"#utility.yul\":2843:2960   */\n      iszero\n      tag_222\n      jumpi\n        /* \"#utility.yul\":2879:2958   */\n      tag_223\n      tag_138\n      jump\t// in\n    tag_223:\n        /* \"#utility.yul\":2843:2960   */\n    tag_222:\n        /* \"#utility.yul\":2984:3047   */\n      tag_224\n        /* \"#utility.yul\":3039:3046   */\n      dup5\n        /* \"#utility.yul\":3030:3036   */\n      dup3\n        /* \"#utility.yul\":3019:3028   */\n      dup6\n        /* \"#utility.yul\":3015:3037   */\n      add\n        /* \"#utility.yul\":2984:3047   */\n      tag_148\n      jump\t// in\n    tag_224:\n        /* \"#utility.yul\":2974:3047   */\n      swap2\n      pop\n        /* \"#utility.yul\":2770:3057   */\n      pop\n        /* \"#utility.yul\":2555:3064   */\n      swap3\n      swap2\n      pop\n      pop\n      jump\t// out\n        /* \"#utility.yul\":3070:3196   */\n    tag_149:\n        /* \"#utility.yul\":3107:3114   */\n      0x00\n        /* \"#utility.yul\":3147:3189   */\n      0xffffffffffffffffffffffffffffffffffffffff\n        /* \"#utility.yul\":3140:3145   */\n      dup3\n        /* \"#utility.yul\":3136:3190   */\n      and\n        /* \"#utility.yul\":3125:3190   */\n      swap1\n      pop\n        /* \"#utility.yul\":3070:3196   */\n      swap2\n      swap1\n      pop\n      jump\t// out\n        /* \"#utility.yul\":3202:3298   */\n    tag_150:\n        /* \"#utility.yul\":3239:3246   */\n      0x00\n        /* \"#utility.yul\":3268:3292   */\n      tag_227\n        /* \"#utility.yul\":3286:3291   */\n      dup3\n        /* \"#utility.yul\":3268:3292   */\n      tag_149\n      jump\t// in\n    tag_227:\n        /* \"#utility.yul\":3257:3292   */\n      swap1\n      pop\n        /* \"#utility.yul\":3202:3298   */\n      swap2\n      swap1\n      pop\n      jump\t// out\n        /* \"#utility.yul\":3304:3426   */\n    tag_151:\n        /* \"#utility.yul\":3377:3401   */\n      tag_229\n        /* \"#utility.yul\":3395:3400   */\n      dup2\n        /* \"#utility.yul\":3377:3401   */\n      tag_150\n      jump\t// in\n    tag_229:\n        /* \"#utility.yul\":3370:3375   */\n      dup2\n        /* \"#utility.yul\":3367:3402   */\n      eq\n        /* \"#utility.yul\":3357:3420   */\n      tag_230\n      jumpi\n        /* \"#utility.yul\":3416:3417   */\n      0x00\n        /* \"#utility.yul\":3413:3414   */\n      0x00\n        /* \"#utility.yul\":3406:3418   */\n      revert\n        /* \"#utility.yul\":3357:3420   */\n    tag_230:\n        /* \"#utility.yul\":3304:3426   */\n      pop\n      jump\t// out\n        /* \"#utility.yul\":3432:3571   */\n    tag_152:\n        /* \"#utility.yul\":3478:3483   */\n      0x00\n        /* \"#utility.yul\":3516:3522   */\n      dup2\n        /* \"#utility.yul\":3503:3523   */\n      calldataload\n        /* \"#utility.yul\":3494:3523   */\n      swap1\n      pop\n        /* \"#utility.yul\":3532:3565   */\n      tag_232\n        /* \"#utility.yul\":3559:3564   */\n      dup2\n        /* \"#utility.yul\":3532:3565   */\n      tag_151\n      jump\t// in\n    tag_232:\n        /* \"#utility.yul\":3432:3571   */\n      swap3\n      swap2\n      pop\n      pop\n      jump\t// out\n        /* \"#utility.yul\":3577:4231   */\n    tag_20:\n        /* \"#utility.yul\":3655:3661   */\n      0x00\n        /* \"#utility.yul\":3663:3669   */\n      0x00\n        /* \"#utility.yul\":3712:3714   */\n      0x40\n        /* \"#utility.yul\":3700:3709   */\n      dup4\n        /* \"#utility.yul\":3691:3698   */\n      dup6\n        /* \"#utility.yul\":3687:3710   */\n      sub\n        /* \"#utility.yul\":3683:3715   */\n      slt\n        /* \"#utility.yul\":3680:3799   */\n      iszero\n      tag_234\n      jumpi\n        /* \"#utility.yul\":3718:3797   */\n      tag_235\n      tag_137\n      jump\t// in\n    tag_235:\n        /* \"#utility.yul\":3680:3799   */\n    tag_234:\n        /* \"#utility.yul\":3866:3867   */\n      0x00\n        /* \"#utility.yul\":3855:3864   */\n      dup4\n        /* \"#utility.yul\":3851:3868   */\n      add\n        /* \"#utility.yul\":3838:3869   */\n      calldataload\n        /* \"#utility.yul\":3896:3914   */\n      0xffffffffffffffff\n        /* \"#utility.yul\":3888:3894   */\n      dup2\n        /* \"#utility.yul\":3885:3915   */\n      gt\n        /* \"#utility.yul\":3882:3999   */\n      iszero\n      tag_236\n      jumpi\n        /* \"#utility.yul\":3918:3997   */\n      tag_237\n      tag_138\n      jump\t// in\n    tag_237:\n        /* \"#utility.yul\":3882:3999   */\n    tag_236:\n        /* \"#utility.yul\":4023:4086   */\n      tag_238\n        /* \"#utility.yul\":4078:4085   */\n      dup6\n        /* \"#utility.yul\":4069:4075   */\n      dup3\n        /* \"#utility.yul\":4058:4067   */\n      dup7\n        /* \"#utility.yul\":4054:4076   */\n      add\n        /* \"#utility.yul\":4023:4086   */\n      tag_148\n      jump\t// in\n    tag_238:\n        /* \"#utility.yul\":4013:4086   */\n      swap3\n      pop\n        /* \"#utility.yul\":3809:4096   */\n      pop\n        /* \"#utility.yul\":4135:4137   */\n      0x20\n        /* \"#utility.yul\":4161:4214   */\n      tag_239\n        /* \"#utility.yul\":4206:4213   */\n      dup6\n        /* \"#utility.yul\":4197:4203   */\n      dup3\n        /* \"#utility.yul\":4186:4195   */\n      dup7\n        /* \"#utility.yul\":4182:4204   */\n      add\n        /* \"#utility.yul\":4161:4214   */\n      tag_152\n      jump\t// in\n    tag_239:\n        /* \"#utility.yul\":4151:4214   */\n      swap2\n      pop\n        /* \"#utility.yul\":4106:4224   */\n      pop\n        /* \"#utility.yul\":3577:4231   */\n      swap3\n      pop\n      swap3\n      swap1\n      pop\n      jump\t// out\n        /* \"#utility.yul\":4237:4336   */\n    tag_153:\n        /* \"#utility.yul\":4289:4295   */\n      0x00\n        /* \"#utility.yul\":4323:4328   */\n      dup2\n        /* \"#utility.yul\":4317:4329   */\n      mload\n        /* \"#utility.yul\":4307:4329   */\n      swap1\n      pop\n        /* \"#utility.yul\":4237:4336   */\n      swap2\n      swap1\n      pop\n      jump\t// out\n        /* \"#utility.yul\":4342:4511   */\n    tag_154:\n        /* \"#utility.yul\":4426:4437   */\n      0x00\n        /* \"#utility.yul\":4460:4466   */\n      dup3\n        /* \"#utility.yul\":4455:4458   */\n      dup3\n        /* \"#utility.yul\":4448:4467   */\n      mstore\n        /* \"#utility.yul\":4500:4504   */\n      0x20\n        /* \"#utility.yul\":4495:4498   */\n      dup3\n        /* \"#utility.yul\":4491:4505   */\n      add\n        /* \"#utility.yul\":4476:4505   */\n      swap1\n      pop\n        /* \"#utility.yul\":4342:4511   */\n      swap3\n      swap2\n      pop\n      pop\n      jump\t// out\n        /* \"#utility.yul\":4517:4656   */\n    tag_155:\n        /* \"#utility.yul\":4606:4612   */\n      dup3\n        /* \"#utility.yul\":4601:4604   */\n      dup2\n        /* \"#utility.yul\":4596:4599   */\n      dup4\n        /* \"#utility.yul\":4590:4613   */\n      mcopy\n        /* \"#utility.yul\":4647:4648   */\n      0x00\n        /* \"#utility.yul\":4638:4644   */\n      dup4\n        /* \"#utility.yul\":4633:4636   */\n      dup4\n        /* \"#utility.yul\":4629:4645   */\n      add\n        /* \"#utility.yul\":4622:4649   */\n      mstore\n        /* \"#utility.yul\":4517:4656   */\n      pop\n      pop\n      pop\n      jump\t// out\n        /* \"#utility.yul\":4662:5039   */\n    tag_156:\n        /* \"#utility.yul\":4750:4753   */\n      0x00\n        /* \"#utility.yul\":4778:4817   */\n      tag_244\n        /* \"#utility.yul\":4811:4816   */\n      dup3\n        /* \"#utility.yul\":4778:4817   */\n      tag_153\n      jump\t// in\n    tag_244:\n        /* \"#utility.yul\":4833:4904   */\n      tag_245\n        /* \"#utility.yul\":4897:4903   */\n      dup2\n        /* \"#utility.yul\":4892:4895   */\n      dup6\n        /* \"#utility.yul\":4833:4904   */\n      tag_154\n      jump\t// in\n    tag_245:\n        /* \"#utility.yul\":4826:4904   */\n      swap4\n      pop\n        /* \"#utility.yul\":4913:4978   */\n      tag_246\n        /* \"#utility.yul\":4971:4977   */\n      dup2\n        /* \"#utility.yul\":4966:4969   */\n      dup6\n        /* \"#utility.yul\":4959:4963   */\n      0x20\n        /* \"#utility.yul\":4952:4957   */\n      dup7\n        /* \"#utility.yul\":4948:4964   */\n      add\n        /* \"#utility.yul\":4913:4978   */\n      tag_155\n      jump\t// in\n    tag_246:\n        /* \"#utility.yul\":5003:5032   */\n      tag_247\n        /* \"#utility.yul\":5025:5031   */\n      dup2\n        /* \"#utility.yul\":5003:5032   */\n      tag_141\n      jump\t// in\n    tag_247:\n        /* \"#utility.yul\":4998:5001   */\n      dup5\n        /* \"#utility.yul\":4994:5033   */\n      add\n        /* \"#utility.yul\":4987:5033   */\n      swap2\n      pop\n        /* \"#utility.yul\":4754:5039   */\n      pop\n        /* \"#utility.yul\":4662:5039   */\n      swap3\n      swap2\n      pop\n      pop\n      jump\t// out\n        /* \"#utility.yul\":5045:5358   */\n    tag_26:\n        /* \"#utility.yul\":5158:5162   */\n      0x00\n        /* \"#utility.yul\":5196:5198   */\n      0x20\n        /* \"#utility.yul\":5185:5194   */\n      dup3\n        /* \"#utility.yul\":5181:5199   */\n      add\n        /* \"#utility.yul\":5173:5199   */\n      swap1\n      pop\n        /* \"#utility.yul\":5245:5254   */\n      dup2\n        /* \"#utility.yul\":5239:5243   */\n      dup2\n        /* \"#utility.yul\":5235:5255   */\n      sub\n        /* \"#utility.yul\":5231:5232   */\n      0x00\n        /* \"#utility.yul\":5220:5229   */\n      dup4\n        /* \"#utility.yul\":5216:5233   */\n      add\n        /* \"#utility.yul\":5209:5256   */\n      mstore\n        /* \"#utility.yul\":5273:5351   */\n      tag_249\n        /* \"#utility.yul\":5346:5350   */\n      dup2\n        /* \"#utility.yul\":5337:5343   */\n      dup5\n        /* \"#utility.yul\":5273:5351   */\n      tag_156\n      jump\t// in\n    tag_249:\n        /* \"#utility.yul\":5265:5351   */\n      swap1\n      pop\n        /* \"#utility.yul\":5045:5358   */\n      swap3\n      swap2\n      pop\n      pop\n      jump\t// out\n        /* \"#utility.yul\":5364:5482   */\n    tag_157:\n        /* \"#utility.yul\":5451:5475   */\n      tag_251\n        /* \"#utility.yul\":5469:5474   */\n      dup2\n        /* \"#utility.yul\":5451:5475   */\n      tag_150\n      jump\t// in\n    tag_251:\n        /* \"#utility.yul\":5446:5449   */\n      dup3\n        /* \"#utility.yul\":5439:5476   */\n      mstore\n        /* \"#utility.yul\":5364:5482   */\n      pop\n      pop\n      jump\t// out\n        /* \"#utility.yul\":5488:5710   */\n    tag_31:\n        /* \"#utility.yul\":5581:5585   */\n      0x00\n        /* \"#utility.yul\":5619:5621   */\n      0x20\n        /* \"#utility.yul\":5608:5617   */\n      dup3\n        /* \"#utility.yul\":5604:5622   */\n      add\n        /* \"#utility.yul\":5596:5622   */\n      swap1\n      pop\n        /* \"#utility.yul\":5632:5703   */\n      tag_253\n        /* \"#utility.yul\":5700:5701   */\n      0x00\n        /* \"#utility.yul\":5689:5698   */\n      dup4\n        /* \"#utility.yul\":5685:5702   */\n      add\n        /* \"#utility.yul\":5676:5682   */\n      dup5\n        /* \"#utility.yul\":5632:5703   */\n      tag_157\n      jump\t// in\n    tag_253:\n        /* \"#utility.yul\":5488:5710   */\n      swap3\n      swap2\n      pop\n      pop\n      jump\t// out\n        /* \"#utility.yul\":5716:5793   */\n    tag_158:\n        /* \"#utility.yul\":5753:5760   */\n      0x00\n        /* \"#utility.yul\":5782:5787   */\n      dup2\n        /* \"#utility.yul\":5771:5787   */\n      swap1\n      pop\n        /* \"#utility.yul\":5716:5793   */\n      swap2\n      swap1\n      pop\n      jump\t// out\n        /* \"#utility.yul\":5799:5917   */\n    tag_159:\n        /* \"#utility.yul\":5886:5910   */\n      tag_256\n        /* \"#utility.yul\":5904:5909   */\n      dup2\n        /* \"#utility.yul\":5886:5910   */\n      tag_158\n      jump\t// in\n    tag_256:\n        /* \"#utility.yul\":5881:5884   */\n      dup3\n        /* \"#utility.yul\":5874:5911   */\n      mstore\n        /* \"#utility.yul\":5799:5917   */\n      pop\n      pop\n      jump\t// out\n        /* \"#utility.yul\":5923:6145   */\n    tag_35:\n        /* \"#utility.yul\":6016:6020   */\n      0x00\n        /* \"#utility.yul\":6054:6056   */\n      0x20\n        /* \"#utility.yul\":6043:6052   */\n      dup3\n        /* \"#utility.yul\":6039:6057   */\n      add\n        /* \"#utility.yul\":6031:6057   */\n      swap1\n      pop\n        /* \"#utility.yul\":6067:6138   */\n      tag_258\n        /* \"#utility.yul\":6135:6136   */\n      0x00\n        /* \"#utility.yul\":6124:6133   */\n      dup4\n        /* \"#utility.yul\":6120:6137   */\n      add\n        /* \"#utility.yul\":6111:6117   */\n      dup5\n        /* \"#utility.yul\":6067:6138   */\n      tag_159\n      jump\t// in\n    tag_258:\n        /* \"#utility.yul\":5923:6145   */\n      swap3\n      swap2\n      pop\n      pop\n      jump\t// out\n        /* \"#utility.yul\":6151:6985   */\n    tag_38:\n        /* \"#utility.yul\":6239:6245   */\n      0x00\n        /* \"#utility.yul\":6247:6253   */\n      0x00\n        /* \"#utility.yul\":6296:6298   */\n      0x40\n        /* \"#utility.yul\":6284:6293   */\n      dup4\n        /* \"#utility.yul\":6275:6282   */\n      dup6\n        /* \"#utility.yul\":6271:6294   */\n      sub\n        /* \"#utility.yul\":6267:6299   */\n      slt\n        /* \"#utility.yul\":6264:6383   */\n      iszero\n      tag_260\n      jumpi\n        /* \"#utility.yul\":6302:6381   */\n      tag_261\n      tag_137\n      jump\t// in\n    tag_261:\n        /* \"#utility.yul\":6264:6383   */\n    tag_260:\n        /* \"#utility.yul\":6450:6451   */\n      0x00\n        /* \"#utility.yul\":6439:6448   */\n      dup4\n        /* \"#utility.yul\":6435:6452   */\n      add\n        /* \"#utility.yul\":6422:6453   */\n      calldataload\n        /* \"#utility.yul\":6480:6498   */\n      0xffffffffffffffff\n        /* \"#utility.yul\":6472:6478   */\n      dup2\n        /* \"#utility.yul\":6469:6499   */\n      gt\n        /* \"#utility.yul\":6466:6583   */\n      iszero\n      tag_262\n      jumpi\n        /* \"#utility.yul\":6502:6581   */\n      tag_263\n      tag_138\n      jump\t// in\n    tag_263:\n        /* \"#utility.yul\":6466:6583   */\n    tag_262:\n        /* \"#utility.yul\":6607:6670   */\n      tag_264\n        /* \"#utility.yul\":6662:6669   */\n      dup6\n        /* \"#utility.yul\":6653:6659   */\n      dup3\n        /* \"#utility.yul\":6642:6651   */\n      dup7\n        /* \"#utility.yul\":6638:6660   */\n      add\n        /* \"#utility.yul\":6607:6670   */\n      tag_148\n      jump\t// in\n    tag_264:\n        /* \"#utility.yul\":6597:6670   */\n      swap3\n      pop\n        /* \"#utility.yul\":6393:6680   */\n      pop\n        /* \"#utility.yul\":6747:6749   */\n      0x20\n        /* \"#utility.yul\":6736:6745   */\n      dup4\n        /* \"#utility.yul\":6732:6750   */\n      add\n        /* \"#utility.yul\":6719:6751   */\n      calldataload\n        /* \"#utility.yul\":6778:6796   */\n      0xffffffffffffffff\n        /* \"#utility.yul\":6770:6776   */\n      dup2\n        /* \"#utility.yul\":6767:6797   */\n      gt\n        /* \"#utility.yul\":6764:6881   */\n      iszero\n      tag_265\n      jumpi\n        /* \"#utility.yul\":6800:6879   */\n      tag_266\n      tag_138\n      jump\t// in\n    tag_266:\n        /* \"#utility.yul\":6764:6881   */\n    tag_265:\n        /* \"#utility.yul\":6905:6968   */\n      tag_267\n        /* \"#utility.yul\":6960:6967   */\n      dup6\n        /* \"#utility.yul\":6951:6957   */\n      dup3\n        /* \"#utility.yul\":6940:6949   */\n      dup7\n        /* \"#utility.yul\":6936:6958   */\n      add\n        /* \"#utility.yul\":6905:6968   */\n      tag_148\n      jump\t// in\n    tag_267:\n        /* \"#utility.yul\":6895:6968   */\n      swap2\n      pop\n        /* \"#utility.yul\":6690:6978   */\n      pop\n        /* \"#utility.yul\":6151:6985   */\n      swap3\n      pop\n      swap3\n      swap1\n      pop\n      jump\t// out\n        /* \"#utility.yul\":6991:7524   */\n    tag_44:\n        /* \"#utility.yul\":7160:7164   */\n      0x00\n        /* \"#utility.yul\":7198:7200   */\n      0x60\n        /* \"#utility.yul\":7187:7196   */\n      dup3\n        /* \"#utility.yul\":7183:7201   */\n      add\n        /* \"#utility.yul\":7175:7201   */\n      swap1\n      pop\n        /* \"#utility.yul\":7211:7282   */\n      tag_269\n        /* \"#utility.yul\":7279:7280   */\n      0x00\n        /* \"#utility.yul\":7268:7277   */\n      dup4\n        /* \"#utility.yul\":7264:7281   */\n      add\n        /* \"#utility.yul\":7255:7261   */\n      dup7\n        /* \"#utility.yul\":7211:7282   */\n      tag_157\n      jump\t// in\n    tag_269:\n        /* \"#utility.yul\":7292:7364   */\n      tag_270\n        /* \"#utility.yul\":7360:7362   */\n      0x20\n        /* \"#utility.yul\":7349:7358   */\n      dup4\n        /* \"#utility.yul\":7345:7363   */\n      add\n        /* \"#utility.yul\":7336:7342   */\n      dup6\n        /* \"#utility.yul\":7292:7364   */\n      tag_157\n      jump\t// in\n    tag_270:\n        /* \"#utility.yul\":7411:7420   */\n      dup2\n        /* \"#utility.yul\":7405:7409   */\n      dup2\n        /* \"#utility.yul\":7401:7421   */\n      sub\n        /* \"#utility.yul\":7396:7398   */\n      0x40\n        /* \"#utility.yul\":7385:7394   */\n      dup4\n        /* \"#utility.yul\":7381:7399   */\n      add\n        /* \"#utility.yul\":7374:7422   */\n      mstore\n        /* \"#utility.yul\":7439:7517   */\n      tag_271\n        /* \"#utility.yul\":7512:7516   */\n      dup2\n        /* \"#utility.yul\":7503:7509   */\n      dup5\n        /* \"#utility.yul\":7439:7517   */\n      tag_156\n      jump\t// in\n    tag_271:\n        /* \"#utility.yul\":7431:7517   */\n      swap1\n      pop\n        /* \"#utility.yul\":6991:7524   */\n      swap5\n      swap4\n      pop\n      pop\n      pop\n      pop\n      jump\t// out\n        /* \"#utility.yul\":7530:8509   */\n    tag_47:\n        /* \"#utility.yul\":7627:7633   */\n      0x00\n        /* \"#utility.yul\":7635:7641   */\n      0x00\n        /* \"#utility.yul\":7643:7649   */\n      0x00\n        /* \"#utility.yul\":7692:7694   */\n      0x60\n        /* \"#utility.yul\":7680:7689   */\n      dup5\n        /* \"#utility.yul\":7671:7678   */\n      dup7\n        /* \"#utility.yul\":7667:7690   */\n      sub\n        /* \"#utility.yul\":7663:7695   */\n      slt\n        /* \"#utility.yul\":7660:7779   */\n      iszero\n      tag_273\n      jumpi\n        /* \"#utility.yul\":7698:7777   */\n      tag_274\n      tag_137\n      jump\t// in\n    tag_274:\n        /* \"#utility.yul\":7660:7779   */\n    tag_273:\n        /* \"#utility.yul\":7846:7847   */\n      0x00\n        /* \"#utility.yul\":7835:7844   */\n      dup5\n        /* \"#utility.yul\":7831:7848   */\n      add\n        /* \"#utility.yul\":7818:7849   */\n      calldataload\n        /* \"#utility.yul\":7876:7894   */\n      0xffffffffffffffff\n        /* \"#utility.yul\":7868:7874   */\n      dup2\n        /* \"#utility.yul\":7865:7895   */\n      gt\n        /* \"#utility.yul\":7862:7979   */\n      iszero\n      tag_275\n      jumpi\n        /* \"#utility.yul\":7898:7977   */\n      tag_276\n      tag_138\n      jump\t// in\n    tag_276:\n        /* \"#utility.yul\":7862:7979   */\n    tag_275:\n        /* \"#utility.yul\":8003:8066   */\n      tag_277\n        /* \"#utility.yul\":8058:8065   */\n      dup7\n        /* \"#utility.yul\":8049:8055   */\n      dup3\n        /* \"#utility.yul\":8038:8047   */\n      dup8\n        /* \"#utility.yul\":8034:8056   */\n      add\n        /* \"#utility.yul\":8003:8066   */\n      tag_148\n      jump\t// in\n    tag_277:\n        /* \"#utility.yul\":7993:8066   */\n      swap4\n      pop\n        /* \"#utility.yul\":7789:8076   */\n      pop\n        /* \"#utility.yul\":8115:8117   */\n      0x20\n        /* \"#utility.yul\":8141:8194   */\n      tag_278\n        /* \"#utility.yul\":8186:8193   */\n      dup7\n        /* \"#utility.yul\":8177:8183   */\n      dup3\n        /* \"#utility.yul\":8166:8175   */\n      dup8\n        /* \"#utility.yul\":8162:8184   */\n      add\n        /* \"#utility.yul\":8141:8194   */\n      tag_152\n      jump\t// in\n    tag_278:\n        /* \"#utility.yul\":8131:8194   */\n      swap3\n      pop\n        /* \"#utility.yul\":8086:8204   */\n      pop\n        /* \"#utility.yul\":8271:8273   */\n      0x40\n        /* \"#utility.yul\":8260:8269   */\n      dup5\n        /* \"#utility.yul\":8256:8274   */\n      add\n        /* \"#utility.yul\":8243:8275   */\n      calldataload\n        /* \"#utility.yul\":8302:8320   */\n      0xffffffffffffffff\n        /* \"#utility.yul\":8294:8300   */\n      dup2\n        /* \"#utility.yul\":8291:8321   */\n      gt\n        /* \"#utility.yul\":8288:8405   */\n      iszero\n      tag_279\n      jumpi\n        /* \"#utility.yul\":8324:8403   */\n      tag_280\n      tag_138\n      jump\t// in\n    tag_280:\n        /* \"#utility.yul\":8288:8405   */\n    tag_279:\n        /* \"#utility.yul\":8429:8492   */\n      tag_281\n        /* \"#utility.yul\":8484:8491   */\n      dup7\n        /* \"#utility.yul\":8475:8481   */\n      dup3\n        /* \"#utility.yul\":8464:8473   */\n      dup8\n        /* \"#utility.yul\":8460:8482   */\n      add\n        /* \"#utility.yul\":8429:8492   */\n      tag_148\n      jump\t// in\n    tag_281:\n        /* \"#utility.yul\":8419:8492   */\n      swap2\n      pop\n        /* \"#utility.yul\":8214:8502   */\n      pop\n        /* \"#utility.yul\":7530:8509   */\n      swap3\n      pop\n      swap3\n      pop\n      swap3\n      jump\t// out\n        /* \"#utility.yul\":8515:8663   */\n    tag_160:\n        /* \"#utility.yul\":8617:8628   */\n      0x00\n        /* \"#utility.yul\":8654:8657   */\n      dup2\n        /* \"#utility.yul\":8639:8657   */\n      swap1\n      pop\n        /* \"#utility.yul\":8515:8663   */\n      swap3\n      swap2\n      pop\n      pop\n      jump\t// out\n        /* \"#utility.yul\":8669:9059   */\n    tag_161:\n        /* \"#utility.yul\":8775:8778   */\n      0x00\n        /* \"#utility.yul\":8803:8842   */\n      tag_284\n        /* \"#utility.yul\":8836:8841   */\n      dup3\n        /* \"#utility.yul\":8803:8842   */\n      tag_153\n      jump\t// in\n    tag_284:\n        /* \"#utility.yul\":8858:8947   */\n      tag_285\n        /* \"#utility.yul\":8940:8946   */\n      dup2\n        /* \"#utility.yul\":8935:8938   */\n      dup6\n        /* \"#utility.yul\":8858:8947   */\n      tag_160\n      jump\t// in\n    tag_285:\n        /* \"#utility.yul\":8851:8947   */\n      swap4\n      pop\n        /* \"#utility.yul\":8956:9021   */\n      tag_286\n        /* \"#utility.yul\":9014:9020   */\n      dup2\n        /* \"#utility.yul\":9009:9012   */\n      dup6\n        /* \"#utility.yul\":9002:9006   */\n      0x20\n        /* \"#utility.yul\":8995:9000   */\n      dup7\n        /* \"#utility.yul\":8991:9007   */\n      add\n        /* \"#utility.yul\":8956:9021   */\n      tag_155\n      jump\t// in\n    tag_286:\n        /* \"#utility.yul\":9046:9052   */\n      dup1\n        /* \"#utility.yul\":9041:9044   */\n      dup5\n        /* \"#utility.yul\":9037:9053   */\n      add\n        /* \"#utility.yul\":9030:9053   */\n      swap2\n      pop\n        /* \"#utility.yul\":8779:9059   */\n      pop\n        /* \"#utility.yul\":8669:9059   */\n      swap3\n      swap2\n      pop\n      pop\n      jump\t// out\n        /* \"#utility.yul\":9065:9340   */\n    tag_58:\n        /* \"#utility.yul\":9197:9200   */\n      0x00\n        /* \"#utility.yul\":9219:9314   */\n      tag_288\n        /* \"#utility.yul\":9310:9313   */\n      dup3\n        /* \"#utility.yul\":9301:9307   */\n      dup5\n        /* \"#utility.yul\":9219:9314   */\n      tag_161\n      jump\t// in\n    tag_288:\n        /* \"#utility.yul\":9212:9314   */\n      swap2\n      pop\n        /* \"#utility.yul\":9331:9334   */\n      dup2\n        /* \"#utility.yul\":9324:9334   */\n      swap1\n      pop\n        /* \"#utility.yul\":9065:9340   */\n      swap3\n      swap2\n      pop\n      pop\n      jump\t// out\n        /* \"#utility.yul\":9346:9514   */\n    tag_162:\n        /* \"#utility.yul\":9486:9506   */\n      0x4e6f7420636f6e7472616374206f776e65720000000000000000000000000000\n        /* \"#utility.yul\":9482:9483   */\n      0x00\n        /* \"#utility.yul\":9474:9480   */\n      dup3\n        /* \"#utility.yul\":9470:9484   */\n      add\n        /* \"#utility.yul\":9463:9507   */\n      mstore\n        /* \"#utility.yul\":9346:9514   */\n      pop\n      jump\t// out\n        /* \"#utility.yul\":9520:9886   */\n    tag_163:\n        /* \"#utility.yul\":9662:9665   */\n      0x00\n        /* \"#utility.yul\":9683:9750   */\n      tag_291\n        /* \"#utility.yul\":9747:9749   */\n      0x12\n        /* \"#utility.yul\":9742:9745   */\n      dup4\n        /* \"#utility.yul\":9683:9750   */\n      tag_154\n      jump\t// in\n    tag_291:\n        /* \"#utility.yul\":9676:9750   */\n      swap2\n      pop\n        /* \"#utility.yul\":9759:9852   */\n      tag_292\n        /* \"#utility.yul\":9848:9851   */\n      dup3\n        /* \"#utility.yul\":9759:9852   */\n      tag_162\n      jump\t// in\n    tag_292:\n        /* \"#utility.yul\":9877:9879   */\n      0x20\n        /* \"#utility.yul\":9872:9875   */\n      dup3\n        /* \"#utility.yul\":9868:9880   */\n      add\n        /* \"#utility.yul\":9861:9880   */\n      swap1\n      pop\n        /* \"#utility.yul\":9520:9886   */\n      swap2\n      swap1\n      pop\n      jump\t// out\n        /* \"#utility.yul\":9892:10311   */\n    tag_61:\n        /* \"#utility.yul\":10058:10062   */\n      0x00\n        /* \"#utility.yul\":10096:10098   */\n      0x20\n        /* \"#utility.yul\":10085:10094   */\n      dup3\n        /* \"#utility.yul\":10081:10099   */\n      add\n        /* \"#utility.yul\":10073:10099   */\n      swap1\n      pop\n        /* \"#utility.yul\":10145:10154   */\n      dup2\n        /* \"#utility.yul\":10139:10143   */\n      dup2\n        /* \"#utility.yul\":10135:10155   */\n      sub\n        /* \"#utility.yul\":10131:10132   */\n      0x00\n        /* \"#utility.yul\":10120:10129   */\n      dup4\n        /* \"#utility.yul\":10116:10133   */\n      add\n        /* \"#utility.yul\":10109:10156   */\n      mstore\n        /* \"#utility.yul\":10173:10304   */\n      tag_294\n        /* \"#utility.yul\":10299:10303   */\n      dup2\n        /* \"#utility.yul\":10173:10304   */\n      tag_163\n      jump\t// in\n    tag_294:\n        /* \"#utility.yul\":10165:10304   */\n      swap1\n      pop\n        /* \"#utility.yul\":9892:10311   */\n      swap2\n      swap1\n      pop\n      jump\t// out\n        /* \"#utility.yul\":10317:10497   */\n    tag_164:\n        /* \"#utility.yul\":10365:10442   */\n      0x4e487b7100000000000000000000000000000000000000000000000000000000\n        /* \"#utility.yul\":10362:10363   */\n      0x00\n        /* \"#utility.yul\":10355:10443   */\n      mstore\n        /* \"#utility.yul\":10462:10466   */\n      0x11\n        /* \"#utility.yul\":10459:10460   */\n      0x04\n        /* \"#utility.yul\":10452:10467   */\n      mstore\n        /* \"#utility.yul\":10486:10490   */\n      0x24\n        /* \"#utility.yul\":10483:10484   */\n      0x00\n        /* \"#utility.yul\":10476:10491   */\n      revert\n        /* \"#utility.yul\":10503:10697   */\n    tag_68:\n        /* \"#utility.yul\":10543:10547   */\n      0x00\n        /* \"#utility.yul\":10563:10583   */\n      tag_297\n        /* \"#utility.yul\":10581:10582   */\n      dup3\n        /* \"#utility.yul\":10563:10583   */\n      tag_158\n      jump\t// in\n    tag_297:\n        /* \"#utility.yul\":10558:10583   */\n      swap2\n      pop\n        /* \"#utility.yul\":10597:10617   */\n      tag_298\n        /* \"#utility.yul\":10615:10616   */\n      dup4\n        /* \"#utility.yul\":10597:10617   */\n      tag_158\n      jump\t// in\n    tag_298:\n        /* \"#utility.yul\":10592:10617   */\n      swap3\n      pop\n        /* \"#utility.yul\":10641:10642   */\n      dup3\n        /* \"#utility.yul\":10638:10639   */\n      dup3\n        /* \"#utility.yul\":10634:10643   */\n      sub\n        /* \"#utility.yul\":10626:10643   */\n      swap1\n      pop\n        /* \"#utility.yul\":10665:10666   */\n      dup2\n        /* \"#utility.yul\":10659:10663   */\n      dup2\n        /* \"#utility.yul\":10656:10667   */\n      gt\n        /* \"#utility.yul\":10653:10690   */\n      iszero\n      tag_299\n      jumpi\n        /* \"#utility.yul\":10670:10688   */\n      tag_300\n      tag_164\n      jump\t// in\n    tag_300:\n        /* \"#utility.yul\":10653:10690   */\n    tag_299:\n        /* \"#utility.yul\":10503:10697   */\n      swap3\n      swap2\n      pop\n      pop\n      jump\t// out\n        /* \"#utility.yul\":10703:10867   */\n    tag_165:\n        /* \"#utility.yul\":10843:10859   */\n      0x416464726573734368616e676564000000000000000000000000000000000000\n        /* \"#utility.yul\":10839:10840   */\n      0x00\n        /* \"#utility.yul\":10831:10837   */\n      dup3\n        /* \"#utility.yul\":10827:10841   */\n      add\n        /* \"#utility.yul\":10820:10860   */\n      mstore\n        /* \"#utility.yul\":10703:10867   */\n      pop\n      jump\t// out\n        /* \"#utility.yul\":10873:11239   */\n    tag_166:\n        /* \"#utility.yul\":11015:11018   */\n      0x00\n        /* \"#utility.yul\":11036:11103   */\n      tag_303\n        /* \"#utility.yul\":11100:11102   */\n      0x0e\n        /* \"#utility.yul\":11095:11098   */\n      dup4\n        /* \"#utility.yul\":11036:11103   */\n      tag_154\n      jump\t// in\n    tag_303:\n        /* \"#utility.yul\":11029:11103   */\n      swap2\n      pop\n        /* \"#utility.yul\":11112:11205   */\n      tag_304\n        /* \"#utility.yul\":11201:11204   */\n      dup3\n        /* \"#utility.yul\":11112:11205   */\n      tag_165\n      jump\t// in\n    tag_304:\n        /* \"#utility.yul\":11230:11232   */\n      0x20\n        /* \"#utility.yul\":11225:11228   */\n      dup3\n        /* \"#utility.yul\":11221:11233   */\n      add\n        /* \"#utility.yul\":11214:11233   */\n      swap1\n      pop\n        /* \"#utility.yul\":10873:11239   */\n      swap2\n      swap1\n      pop\n      jump\t// out\n        /* \"#utility.yul\":11245:11664   */\n    tag_79:\n        /* \"#utility.yul\":11411:11415   */\n      0x00\n        /* \"#utility.yul\":11449:11451   */\n      0x20\n        /* \"#utility.yul\":11438:11447   */\n      dup3\n        /* \"#utility.yul\":11434:11452   */\n      add\n        /* \"#utility.yul\":11426:11452   */\n      swap1\n      pop\n        /* \"#utility.yul\":11498:11507   */\n      dup2\n        /* \"#utility.yul\":11492:11496   */\n      dup2\n        /* \"#utility.yul\":11488:11508   */\n      sub\n        /* \"#utility.yul\":11484:11485   */\n      0x00\n        /* \"#utility.yul\":11473:11482   */\n      dup4\n        /* \"#utility.yul\":11469:11486   */\n      add\n        /* \"#utility.yul\":11462:11509   */\n      mstore\n        /* \"#utility.yul\":11526:11657   */\n      tag_306\n        /* \"#utility.yul\":11652:11656   */\n      dup2\n        /* \"#utility.yul\":11526:11657   */\n      tag_166\n      jump\t// in\n    tag_306:\n        /* \"#utility.yul\":11518:11657   */\n      swap1\n      pop\n        /* \"#utility.yul\":11245:11664   */\n      swap2\n      swap1\n      pop\n      jump\t// out\n        /* \"#utility.yul\":11670:11850   */\n    tag_167:\n        /* \"#utility.yul\":11718:11795   */\n      0x4e487b7100000000000000000000000000000000000000000000000000000000\n        /* \"#utility.yul\":11715:11716   */\n      0x00\n        /* \"#utility.yul\":11708:11796   */\n      mstore\n        /* \"#utility.yul\":11815:11819   */\n      0x22\n        /* \"#utility.yul\":11812:11813   */\n      0x04\n        /* \"#utility.yul\":11805:11820   */\n      mstore\n        /* \"#utility.yul\":11839:11843   */\n      0x24\n        /* \"#utility.yul\":11836:11837   */\n      0x00\n        /* \"#utility.yul\":11829:11844   */\n      revert\n        /* \"#utility.yul\":11856:12176   */\n    tag_83:\n        /* \"#utility.yul\":11900:11906   */\n      0x00\n        /* \"#utility.yul\":11937:11938   */\n      0x02\n        /* \"#utility.yul\":11931:11935   */\n      dup3\n        /* \"#utility.yul\":11927:11939   */\n      div\n        /* \"#utility.yul\":11917:11939   */\n      swap1\n      pop\n        /* \"#utility.yul\":11984:11985   */\n      0x01\n        /* \"#utility.yul\":11978:11982   */\n      dup3\n        /* \"#utility.yul\":11974:11986   */\n      and\n        /* \"#utility.yul\":12005:12023   */\n      dup1\n        /* \"#utility.yul\":11995:12076   */\n      tag_309\n      jumpi\n        /* \"#utility.yul\":12061:12065   */\n      0x7f\n        /* \"#utility.yul\":12053:12059   */\n      dup3\n        /* \"#utility.yul\":12049:12066   */\n      and\n        /* \"#utility.yul\":12039:12066   */\n      swap2\n      pop\n        /* \"#utility.yul\":11995:12076   */\n    tag_309:\n        /* \"#utility.yul\":12123:12125   */\n      0x20\n        /* \"#utility.yul\":12115:12121   */\n      dup3\n        /* \"#utility.yul\":12112:12126   */\n      lt\n        /* \"#utility.yul\":12092:12110   */\n      dup2\n        /* \"#utility.yul\":12089:12127   */\n      sub\n        /* \"#utility.yul\":12086:12170   */\n      tag_310\n      jumpi\n        /* \"#utility.yul\":12142:12160   */\n      tag_311\n      tag_167\n      jump\t// in\n    tag_311:\n        /* \"#utility.yul\":12086:12170   */\n    tag_310:\n        /* \"#utility.yul\":11907:12176   */\n      pop\n        /* \"#utility.yul\":11856:12176   */\n      swap2\n      swap1\n      pop\n      jump\t// out\n        /* \"#utility.yul\":12182:12323   */\n    tag_168:\n        /* \"#utility.yul\":12231:12235   */\n      0x00\n        /* \"#utility.yul\":12254:12257   */\n      dup2\n        /* \"#utility.yul\":12246:12257   */\n      swap1\n      pop\n        /* \"#utility.yul\":12277:12280   */\n      dup2\n        /* \"#utility.yul\":12274:12275   */\n      0x00\n        /* \"#utility.yul\":12267:12281   */\n      mstore\n        /* \"#utility.yul\":12311:12315   */\n      0x20\n        /* \"#utility.yul\":12308:12309   */\n      0x00\n        /* \"#utility.yul\":12298:12316   */\n      keccak256\n        /* \"#utility.yul\":12290:12316   */\n      swap1\n      pop\n        /* \"#utility.yul\":12182:12323   */\n      swap2\n      swap1\n      pop\n      jump\t// out\n        /* \"#utility.yul\":12329:12422   */\n    tag_169:\n        /* \"#utility.yul\":12366:12372   */\n      0x00\n        /* \"#utility.yul\":12413:12415   */\n      0x20\n        /* \"#utility.yul\":12408:12410   */\n      0x1f\n        /* \"#utility.yul\":12401:12406   */\n      dup4\n        /* \"#utility.yul\":12397:12411   */\n      add\n        /* \"#utility.yul\":12393:12416   */\n      div\n        /* \"#utility.yul\":12383:12416   */\n      swap1\n      pop\n        /* \"#utility.yul\":12329:12422   */\n      swap2\n      swap1\n      pop\n      jump\t// out\n        /* \"#utility.yul\":12428:12535   */\n    tag_170:\n        /* \"#utility.yul\":12472:12480   */\n      0x00\n        /* \"#utility.yul\":12522:12527   */\n      dup3\n        /* \"#utility.yul\":12516:12520   */\n      dup3\n        /* \"#utility.yul\":12512:12528   */\n      shl\n        /* \"#utility.yul\":12491:12528   */\n      swap1\n      pop\n        /* \"#utility.yul\":12428:12535   */\n      swap3\n      swap2\n      pop\n      pop\n      jump\t// out\n        /* \"#utility.yul\":12541:12934   */\n    tag_171:\n        /* \"#utility.yul\":12610:12616   */\n      0x00\n        /* \"#utility.yul\":12660:12661   */\n      0x08\n        /* \"#utility.yul\":12648:12658   */\n      dup4\n        /* \"#utility.yul\":12644:12662   */\n      mul\n        /* \"#utility.yul\":12683:12780   */\n      tag_316\n        /* \"#utility.yul\":12713:12779   */\n      0xffffffffffffffffffffffffffffffffffffffffffffffffffffffffffffffff\n        /* \"#utility.yul\":12702:12711   */\n      dup3\n        /* \"#utility.yul\":12683:12780   */\n      tag_170\n      jump\t// in\n    tag_316:\n        /* \"#utility.yul\":12801:12840   */\n      tag_317\n        /* \"#utility.yul\":12831:12839   */\n      dup7\n        /* \"#utility.yul\":12820:12829   */\n      dup4\n        /* \"#utility.yul\":12801:12840   */\n      tag_170\n      jump\t// in\n    tag_317:\n        /* \"#utility.yul\":12789:12840   */\n      swap6\n      pop\n        /* \"#utility.yul\":12873:12877   */\n      dup1\n        /* \"#utility.yul\":12869:12878   */\n      not\n        /* \"#utility.yul\":12862:12867   */\n      dup5\n        /* \"#utility.yul\":12858:12879   */\n      and\n        /* \"#utility.yul\":12849:12879   */\n      swap4\n      pop\n        /* \"#utility.yul\":12922:12926   */\n      dup1\n        /* \"#utility.yul\":12912:12920   */\n      dup7\n        /* \"#utility.yul\":12908:12927   */\n      and\n        /* \"#utility.yul\":12901:12906   */\n      dup5\n        /* \"#utility.yul\":12898:12928   */\n      or\n        /* \"#utility.yul\":12888:12928   */\n      swap3\n      pop\n        /* \"#utility.yul\":12617:12934   */\n      pop\n      pop\n        /* \"#utility.yul\":12541:12934   */\n      swap4\n      swap3\n      pop\n      pop\n      pop\n      jump\t// out\n        /* \"#utility.yul\":12940:13000   */\n    tag_172:\n        /* \"#utility.yul\":12968:12971   */\n      0x00\n        /* \"#utility.yul\":12989:12994   */\n      dup2\n        /* \"#utility.yul\":12982:12994   */\n      swap1\n      pop\n        /* \"#utility.yul\":12940:13000   */\n      swap2\n      swap1\n      pop\n      jump\t// out\n        /* \"#utility.yul\":13006:13148   */\n    tag_173:\n        /* \"#utility.yul\":13056:13065   */\n      0x00\n        /* \"#utility.yul\":13089:13142   */\n      tag_320\n        /* \"#utility.yul\":13107:13141   */\n      tag_321\n        /* \"#utility.yul\":13116:13140   */\n      tag_322\n        /* \"#utility.yul\":13134:13139   */\n      dup5\n        /* \"#utility.yul\":13116:13140   */\n      tag_158\n      jump\t// in\n    tag_322:\n        /* \"#utility.yul\":13107:13141   */\n      tag_172\n      jump\t// in\n    tag_321:\n        /* \"#utility.yul\":13089:13142   */\n      tag_158\n      jump\t// in\n    tag_320:\n        /* \"#utility.yul\":13076:13142   */\n      swap1\n      pop\n        /* \"#utility.yul\":13006:13148   */\n      swap2\n      swap1\n      pop\n      jump\t// out\n        /* \"#utility.yul\":13154:13229   */\n    tag_174:\n        /* \"#utility.yul\":13197:13200   */\n      0x00\n        /* \"#utility.yul\":13218:13223   */\n      dup2\n        /* \"#utility.yul\":13211:13223   */\n      swap1\n      pop\n        /* \"#utility.yul\":13154:13229   */\n      swap2\n      swap1\n      pop\n      jump\t// out\n        /* \"#utility.yul\":13235:13504   */\n    tag_175:\n        /* \"#utility.yul\":13345:13384   */\n      tag_325\n        /* \"#utility.yul\":13376:13383   */\n      dup4\n        /* \"#utility.yul\":13345:13384   */\n      tag_173\n      jump\t// in\n    tag_325:\n        /* \"#utility.yul\":13406:13497   */\n      tag_326\n        /* \"#utility.yul\":13455:13496   */\n      tag_327\n        /* \"#utility.yul\":13479:13495   */\n      dup3\n        /* \"#utility.yul\":13455:13496   */\n      tag_174\n      jump\t// in\n    tag_327:\n        /* \"#utility.yul\":13447:13453   */\n      dup5\n        /* \"#utility.yul\":13440:13444   */\n      dup5\n        /* \"#utility.yul\":13434:13445   */\n      sload\n        /* \"#utility.yul\":13406:13497   */\n      tag_171\n      jump\t// in\n    tag_326:\n        /* \"#utility.yul\":13400:13404   */\n      dup3\n        /* \"#utility.yul\":13393:13498   */\n      sstore\n        /* \"#utility.yul\":13311:13504   */\n      pop\n        /* \"#utility.yul\":13235:13504   */\n      pop\n      pop\n      pop\n      jump\t// out\n        /* \"#utility.yul\":13510:13583   */\n    tag_176:\n        /* \"#utility.yul\":13555:13558   */\n      0x00\n        /* \"#utility.yul\":13576:13577   */\n      0x00\n        /* \"#utility.yul\":13569:13577   */\n      swap1\n      pop\n        /* \"#utility.yul\":13510:13583   */\n      swap1\n      jump\t// out\n        /* \"#utility.yul\":13589:13778   */\n    tag_177:\n        /* \"#utility.yul\":13666:13698   */\n      tag_330\n      tag_176\n      jump\t// in\n    tag_330:\n        /* \"#utility.yul\":13707:13772   */\n      tag_331\n        /* \"#utility.yul\":13765:13771   */\n      dup2\n        /* \"#utility.yul\":13757:13763   */\n      dup5\n        /* \"#utility.yul\":13751:13755   */\n      dup5\n        /* \"#utility.yul\":13707:13772   */\n      tag_175\n      jump\t// in\n    tag_331:\n        /* \"#utility.yul\":13642:13778   */\n      pop\n        /* \"#utility.yul\":13589:13778   */\n      pop\n      pop\n      jump\t// out\n        /* \"#utility.yul\":13784:13998   */\n    tag_178:\n        /* \"#utility.yul\":13869:13870   */\n      0x00\n        /* \"#utility.yul\":13854:13992   */\n    tag_333:\n        /* \"#utility.yul\":13879:13888   */\n      dup3\n        /* \"#utility.yul\":13876:13877   */\n      dup2\n        /* \"#utility.yul\":13873:13889   */\n      lt\n        /* \"#utility.yul\":13854:13992   */\n      iszero\n      tag_335\n      jumpi\n        /* \"#utility.yul\":13931:13982   */\n      tag_336\n        /* \"#utility.yul\":13980:13981   */\n      0x00\n        /* \"#utility.yul\":13976:13977   */\n      dup3\n        /* \"#utility.yul\":13965:13974   */\n      dup5\n        /* \"#utility.yul\":13961:13978   */\n      add\n        /* \"#utility.yul\":13931:13982   */\n      tag_177\n      jump\t// in\n    tag_336:\n        /* \"#utility.yul\":13904:13905   */\n      0x01\n        /* \"#utility.yul\":13901:13902   */\n      dup2\n        /* \"#utility.yul\":13897:13906   */\n      add\n        /* \"#utility.yul\":13892:13906   */\n      swap1\n      pop\n        /* \"#utility.yul\":13854:13992   */\n      jump(tag_333)\n    tag_335:\n        /* \"#utility.yul\":13858:13872   */\n      pop\n        /* \"#utility.yul\":13784:13998   */\n      pop\n      pop\n      jump\t// out\n        /* \"#utility.yul\":14004:14750   */\n    tag_179:\n        /* \"#utility.yul\":14105:14107   */\n      0x1f\n        /* \"#utility.yul\":14100:14103   */\n      dup3\n        /* \"#utility.yul\":14097:14108   */\n      gt\n        /* \"#utility.yul\":14094:14743   */\n      iszero\n      tag_338\n      jumpi\n        /* \"#utility.yul\":14134:14144   */\n      dup3\n        /* \"#utility.yul\":14129:14132   */\n      dup3\n        /* \"#utility.yul\":14126:14145   */\n      gt\n        /* \"#utility.yul\":14123:14733   */\n      iszero\n      tag_339\n      jumpi\n        /* \"#utility.yul\":14180:14218   */\n      tag_340\n        /* \"#utility.yul\":14212:14217   */\n      dup2\n        /* \"#utility.yul\":14180:14218   */\n      tag_168\n      jump\t// in\n    tag_340:\n        /* \"#utility.yul\":14255:14277   */\n      tag_341\n        /* \"#utility.yul\":14273:14276   */\n      dup4\n        /* \"#utility.yul\":14255:14277   */\n      tag_169\n      jump\t// in\n    tag_341:\n        /* \"#utility.yul\":14314:14343   */\n      tag_342\n        /* \"#utility.yul\":14332:14342   */\n      dup6\n        /* \"#utility.yul\":14314:14343   */\n      tag_169\n      jump\t// in\n    tag_342:\n        /* \"#utility.yul\":14504:14506   */\n      0x20\n        /* \"#utility.yul\":14492:14502   */\n      dup7\n        /* \"#utility.yul\":14489:14507   */\n      lt\n        /* \"#utility.yul\":14486:14565   */\n      iszero\n      tag_343\n      jumpi\n        /* \"#utility.yul\":14546:14547   */\n      0x00\n        /* \"#utility.yul\":14530:14547   */\n      swap1\n      pop\n        /* \"#utility.yul\":14486:14565   */\n    tag_343:\n        /* \"#utility.yul\":14615:14627   */\n      dup1\n        /* \"#utility.yul\":14605:14613   */\n      dup4\n        /* \"#utility.yul\":14601:14628   */\n      add\n        /* \"#utility.yul\":14645:14719   */\n      tag_344\n        /* \"#utility.yul\":14705:14717   */\n      dup3\n        /* \"#utility.yul\":14691:14703   */\n      dup5\n        /* \"#utility.yul\":14687:14718   */\n      sub\n        /* \"#utility.yul\":14674:14685   */\n      dup3\n        /* \"#utility.yul\":14645:14719   */\n      tag_178\n      jump\t// in\n    tag_344:\n        /* \"#utility.yul\":14146:14733   */\n      pop\n      pop\n      pop\n      pop\n        /* \"#utility.yul\":14123:14733   */\n    tag_339:\n        /* \"#utility.yul\":14094:14743   */\n    tag_338:\n        /* \"#utility.yul\":14004:14750   */\n      pop\n      pop\n      pop\n      jump\t// out\n        /* \"#utility.yul\":14756:14873   */\n    tag_180:\n        /* \"#utility.yul\":14810:14818   */\n      0x00\n        /* \"#utility.yul\":14860:14865   */\n      dup3\n        /* \"#utility.yul\":14854:14858   */\n      dup3\n        /* \"#utility.yul\":14850:14866   */\n      shr\n        /* \"#utility.yul\":14829:14866   */\n      swap1\n      pop\n        /* \"#utility.yul\":14756:14873   */\n      swap3\n      swap2\n      pop\n      pop\n      jump\t// out\n        /* \"#utility.yul\":14879:15048   */\n    tag_181:\n        /* \"#utility.yul\":14923:14929   */\n      0x00\n        /* \"#utility.yul\":14956:15007   */\n      tag_347\n        /* \"#utility.yul\":15004:15005   */\n      0x00\n        /* \"#utility.yul\":15000:15006   */\n      not\n        /* \"#utility.yul\":14992:14997   */\n      dup5\n        /* \"#utility.yul\":14989:14990   */\n      0x08\n        /* \"#utility.yul\":14985:14998   */\n      mul\n        /* \"#utility.yul\":14956:15007   */\n      tag_180\n      jump\t// in\n    tag_347:\n        /* \"#utility.yul\":14952:15008   */\n      not\n        /* \"#utility.yul\":15037:15041   */\n      dup1\n        /* \"#utility.yul\":15031:15035   */\n      dup4\n        /* \"#utility.yul\":15027:15042   */\n      and\n        /* \"#utility.yul\":15017:15042   */\n      swap2\n      pop\n        /* \"#utility.yul\":14930:15048   */\n      pop\n        /* \"#utility.yul\":14879:15048   */\n      swap3\n      swap2\n      pop\n      pop\n      jump\t// out\n        /* \"#utility.yul\":15053:15348   */\n    tag_182:\n        /* \"#utility.yul\":15129:15133   */\n      0x00\n        /* \"#utility.yul\":15275:15304   */\n      tag_349\n        /* \"#utility.yul\":15300:15303   */\n      dup4\n        /* \"#utility.yul\":15294:15298   */\n      dup4\n        /* \"#utility.yul\":15275:15304   */\n      tag_181\n      jump\t// in\n    tag_349:\n        /* \"#utility.yul\":15267:15304   */\n      swap2\n      pop\n        /* \"#utility.yul\":15337:15340   */\n      dup3\n        /* \"#utility.yul\":15334:15335   */\n      0x02\n        /* \"#utility.yul\":15330:15341   */\n      mul\n        /* \"#utility.yul\":15324:15328   */\n      dup3\n        /* \"#utility.yul\":15321:15342   */\n      or\n        /* \"#utility.yul\":15313:15342   */\n      swap1\n      pop\n        /* \"#utility.yul\":15053:15348   */\n      swap3\n      swap2\n      pop\n      pop\n      jump\t// out\n        /* \"#utility.yul\":15353:16748   */\n    tag_97:\n        /* \"#utility.yul\":15470:15507   */\n      tag_351\n        /* \"#utility.yul\":15503:15506   */\n      dup3\n        /* \"#utility.yul\":15470:15507   */\n      tag_153\n      jump\t// in\n    tag_351:\n        /* \"#utility.yul\":15572:15590   */\n      0xffffffffffffffff\n        /* \"#utility.yul\":15564:15570   */\n      dup2\n        /* \"#utility.yul\":15561:15591   */\n      gt\n        /* \"#utility.yul\":15558:15614   */\n      iszero\n      tag_352\n      jumpi\n        /* \"#utility.yul\":15594:15612   */\n      tag_353\n      tag_142\n      jump\t// in\n    tag_353:\n        /* \"#utility.yul\":15558:15614   */\n    tag_352:\n        /* \"#utility.yul\":15638:15676   */\n      tag_354\n        /* \"#utility.yul\":15670:15674   */\n      dup3\n        /* \"#utility.yul\":15664:15675   */\n      sload\n        /* \"#utility.yul\":15638:15676   */\n      tag_83\n      jump\t// in\n    tag_354:\n        /* \"#utility.yul\":15723:15790   */\n      tag_355\n        /* \"#utility.yul\":15783:15789   */\n      dup3\n        /* \"#utility.yul\":15775:15781   */\n      dup3\n        /* \"#utility.yul\":15769:15773   */\n      dup6\n        /* \"#utility.yul\":15723:15790   */\n      tag_179\n      jump\t// in\n    tag_355:\n        /* \"#utility.yul\":15817:15818   */\n      0x00\n        /* \"#utility.yul\":15841:15845   */\n      0x20\n        /* \"#utility.yul\":15828:15845   */\n      swap1\n      pop\n        /* \"#utility.yul\":15873:15875   */\n      0x1f\n        /* \"#utility.yul\":15865:15871   */\n      dup4\n        /* \"#utility.yul\":15862:15876   */\n      gt\n        /* \"#utility.yul\":15890:15891   */\n      0x01\n        /* \"#utility.yul\":15885:16503   */\n      dup2\n      eq\n      tag_357\n      jumpi\n        /* \"#utility.yul\":16547:16548   */\n      0x00\n        /* \"#utility.yul\":16564:16570   */\n      dup5\n        /* \"#utility.yul\":16561:16638   */\n      iszero\n      tag_358\n      jumpi\n        /* \"#utility.yul\":16613:16622   */\n      dup3\n        /* \"#utility.yul\":16608:16611   */\n      dup8\n        /* \"#utility.yul\":16604:16623   */\n      add\n        /* \"#utility.yul\":16598:16624   */\n      mload\n        /* \"#utility.yul\":16589:16624   */\n      swap1\n      pop\n        /* \"#utility.yul\":16561:16638   */\n    tag_358:\n        /* \"#utility.yul\":16664:16731   */\n      tag_359\n        /* \"#utility.yul\":16724:16730   */\n      dup6\n        /* \"#utility.yul\":16717:16722   */\n      dup3\n        /* \"#utility.yul\":16664:16731   */\n      tag_182\n      jump\t// in\n    tag_359:\n        /* \"#utility.yul\":16658:16662   */\n      dup7\n        /* \"#utility.yul\":16651:16732   */\n      sstore\n        /* \"#utility.yul\":16520:16742   */\n      pop\n        /* \"#utility.yul\":15855:16742   */\n      jump(tag_356)\n        /* \"#utility.yul\":15885:16503   */\n    tag_357:\n        /* \"#utility.yul\":15937:15941   */\n      0x1f\n        /* \"#utility.yul\":15933:15942   */\n      not\n        /* \"#utility.yul\":15925:15931   */\n      dup5\n        /* \"#utility.yul\":15921:15943   */\n      and\n        /* \"#utility.yul\":15971:16008   */\n      tag_360\n        /* \"#utility.yul\":16003:16007   */\n      dup7\n        /* \"#utility.yul\":15971:16008   */\n      tag_168\n      jump\t// in\n    tag_360:\n        /* \"#utility.yul\":16030:16031   */\n      0x00\n        /* \"#utility.yul\":16044:16252   */\n    tag_361:\n        /* \"#utility.yul\":16058:16065   */\n      dup3\n        /* \"#utility.yul\":16055:16056   */\n      dup2\n        /* \"#utility.yul\":16052:16066   */\n      lt\n        /* \"#utility.yul\":16044:16252   */\n      iszero\n      tag_363\n      jumpi\n        /* \"#utility.yul\":16137:16146   */\n      dup5\n        /* \"#utility.yul\":16132:16135   */\n      dup10\n        /* \"#utility.yul\":16128:16147   */\n      add\n        /* \"#utility.yul\":16122:16148   */\n      mload\n        /* \"#utility.yul\":16114:16120   */\n      dup3\n        /* \"#utility.yul\":16107:16149   */\n      sstore\n        /* \"#utility.yul\":16188:16189   */\n      0x01\n        /* \"#utility.yul\":16180:16186   */\n      dup3\n        /* \"#utility.yul\":16176:16190   */\n      add\n        /* \"#utility.yul\":16166:16190   */\n      swap2\n      pop\n        /* \"#utility.yul\":16235:16237   */\n      0x20\n        /* \"#utility.yul\":16224:16233   */\n      dup6\n        /* \"#utility.yul\":16220:16238   */\n      add\n        /* \"#utility.yul\":16207:16238   */\n      swap5\n      pop\n        /* \"#utility.yul\":16081:16085   */\n      0x20\n        /* \"#utility.yul\":16078:16079   */\n      dup2\n        /* \"#utility.yul\":16074:16086   */\n      add\n        /* \"#utility.yul\":16069:16086   */\n      swap1\n      pop\n        /* \"#utility.yul\":16044:16252   */\n      jump(tag_361)\n    tag_363:\n        /* \"#utility.yul\":16280:16286   */\n      dup7\n        /* \"#utility.yul\":16271:16278   */\n      dup4\n        /* \"#utility.yul\":16268:16287   */\n      lt\n        /* \"#utility.yul\":16265:16444   */\n      iszero\n      tag_364\n      jumpi\n        /* \"#utility.yul\":16338:16347   */\n      dup5\n        /* \"#utility.yul\":16333:16336   */\n      dup10\n        /* \"#utility.yul\":16329:16348   */\n      add\n        /* \"#utility.yul\":16323:16349   */\n      mload\n        /* \"#utility.yul\":16381:16429   */\n      tag_365\n        /* \"#utility.yul\":16423:16427   */\n      0x1f\n        /* \"#utility.yul\":16415:16421   */\n      dup10\n        /* \"#utility.yul\":16411:16428   */\n      and\n        /* \"#utility.yul\":16400:16409   */\n      dup3\n        /* \"#utility.yul\":16381:16429   */\n      tag_181\n      jump\t// in\n    tag_365:\n        /* \"#utility.yul\":16373:16379   */\n      dup4\n        /* \"#utility.yul\":16366:16430   */\n      sstore\n        /* \"#utility.yul\":16288:16444   */\n      pop\n        /* \"#utility.yul\":16265:16444   */\n    tag_364:\n        /* \"#utility.yul\":16490:16491   */\n      0x01\n        /* \"#utility.yul\":16486:16487   */\n      0x02\n        /* \"#utility.yul\":16478:16484   */\n      dup9\n        /* \"#utility.yul\":16474:16488   */\n      mul\n        /* \"#utility.yul\":16470:16492   */\n      add\n        /* \"#utility.yul\":16464:16468   */\n      dup9\n        /* \"#utility.yul\":16457:16493   */\n      sstore\n        /* \"#utility.yul\":15892:16503   */\n      pop\n      pop\n      pop\n        /* \"#utility.yul\":15855:16742   */\n    tag_356:\n      pop\n        /* \"#utility.yul\":15445:16748   */\n      pop\n      pop\n      pop\n        /* \"#utility.yul\":15353:16748   */\n      pop\n      pop\n      jump\t// out\n        /* \"#utility.yul\":16754:16922   */\n    tag_183:\n        /* \"#utility.yul\":16894:16914   */\n      0x4465736372697074696f6e4368616e6765640000000000000000000000000000\n        /* \"#utility.yul\":16890:16891   */\n      0x00\n        /* \"#utility.yul\":16882:16888   */\n      dup3\n        /* \"#utility.yul\":16878:16892   */\n      add\n        /* \"#utility.yul\":16871:16915   */\n      mstore\n        /* \"#utility.yul\":16754:16922   */\n      pop\n      jump\t// out\n        /* \"#utility.yul\":16928:17294   */\n    tag_184:\n        /* \"#utility.yul\":17070:17073   */\n      0x00\n        /* \"#utility.yul\":17091:17158   */\n      tag_368\n        /* \"#utility.yul\":17155:17157   */\n      0x12\n        /* \"#utility.yul\":17150:17153   */\n      dup4\n        /* \"#utility.yul\":17091:17158   */\n      tag_154\n      jump\t// in\n    tag_368:\n        /* \"#utility.yul\":17084:17158   */\n      swap2\n      pop\n        /* \"#utility.yul\":17167:17260   */\n      tag_369\n        /* \"#utility.yul\":17256:17259   */\n      dup3\n        /* \"#utility.yul\":17167:17260   */\n      tag_183\n      jump\t// in\n    tag_369:\n        /* \"#utility.yul\":17285:17287   */\n      0x20\n        /* \"#utility.yul\":17280:17283   */\n      dup3\n        /* \"#utility.yul\":17276:17288   */\n      add\n        /* \"#utility.yul\":17269:17288   */\n      swap1\n      pop\n        /* \"#utility.yul\":16928:17294   */\n      swap2\n      swap1\n      pop\n      jump\t// out\n        /* \"#utility.yul\":17300:17719   */\n    tag_100:\n        /* \"#utility.yul\":17466:17470   */\n      0x00\n        /* \"#utility.yul\":17504:17506   */\n      0x20\n        /* \"#utility.yul\":17493:17502   */\n      dup3\n        /* \"#utility.yul\":17489:17507   */\n      add\n        /* \"#utility.yul\":17481:17507   */\n      swap1\n      pop\n        /* \"#utility.yul\":17553:17562   */\n      dup2\n        /* \"#utility.yul\":17547:17551   */\n      dup2\n        /* \"#utility.yul\":17543:17563   */\n      sub\n        /* \"#utility.yul\":17539:17540   */\n      0x00\n        /* \"#utility.yul\":17528:17537   */\n      dup4\n        /* \"#utility.yul\":17524:17541   */\n      add\n        /* \"#utility.yul\":17517:17564   */\n      mstore\n        /* \"#utility.yul\":17581:17712   */\n      tag_371\n        /* \"#utility.yul\":17707:17711   */\n      dup2\n        /* \"#utility.yul\":17581:17712   */\n      tag_184\n      jump\t// in\n    tag_371:\n        /* \"#utility.yul\":17573:17712   */\n      swap1\n      pop\n        /* \"#utility.yul\":17300:17719   */\n      swap2\n      swap1\n      pop\n      jump\t// out\n        /* \"#utility.yul\":17725:17898   */\n    tag_185:\n        /* \"#utility.yul\":17865:17890   */\n      0x4e616d6520616c72656164792072656769737465726564000000000000000000\n        /* \"#utility.yul\":17861:17862   */\n      0x00\n        /* \"#utility.yul\":17853:17859   */\n      dup3\n        /* \"#utility.yul\":17849:17863   */\n      add\n        /* \"#utility.yul\":17842:17891   */\n      mstore\n        /* \"#utility.yul\":17725:17898   */\n      pop\n      jump\t// out\n        /* \"#utility.yul\":17904:18270   */\n    tag_186:\n        /* \"#utility.yul\":18046:18049   */\n      0x00\n        /* \"#utility.yul\":18067:18134   */\n      tag_374\n        /* \"#utility.yul\":18131:18133   */\n      0x17\n        /* \"#utility.yul\":18126:18129   */\n      dup4\n        /* \"#utility.yul\":18067:18134   */\n      tag_154\n      jump\t// in\n    tag_374:\n        /* \"#utility.yul\":18060:18134   */\n      swap2\n      pop\n        /* \"#utility.yul\":18143:18236   */\n      tag_375\n        /* \"#utility.yul\":18232:18235   */\n      dup3\n        /* \"#utility.yul\":18143:18236   */\n      tag_185\n      jump\t// in\n    tag_375:\n        /* \"#utility.yul\":18261:18263   */\n      0x20\n        /* \"#utility.yul\":18256:18259   */\n      dup3\n        /* \"#utility.yul\":18252:18264   */\n      add\n        /* \"#utility.yul\":18245:18264   */\n      swap1\n      pop\n        /* \"#utility.yul\":17904:18270   */\n      swap2\n      swap1\n      pop\n      jump\t// out\n        /* \"#utility.yul\":18276:18695   */\n    tag_110:\n        /* \"#utility.yul\":18442:18446   */\n      0x00\n        /* \"#utility.yul\":18480:18482   */\n      0x20\n        /* \"#utility.yul\":18469:18478   */\n      dup3\n        /* \"#utility.yul\":18465:18483   */\n      add\n        /* \"#utility.yul\":18457:18483   */\n      swap1\n      pop\n        /* \"#utility.yul\":18529:18538   */\n      dup2\n        /* \"#utility.yul\":18523:18527   */\n      dup2\n        /* \"#utility.yul\":18519:18539   */\n      sub\n        /* \"#utility.yul\":18515:18516   */\n      0x00\n        /* \"#utility.yul\":18504:18513   */\n      dup4\n        /* \"#utility.yul\":18500:18517   */\n      add\n        /* \"#utility.yul\":18493:18540   */\n      mstore\n        /* \"#utility.yul\":18557:18688   */\n      tag_377\n        /* \"#utility.yul\":18683:18687   */\n      dup2\n        /* \"#utility.yul\":18557:18688   */\n      tag_186\n      jump\t// in\n    tag_377:\n        /* \"#utility.yul\":18549:18688   */\n      swap1\n      pop\n        /* \"#utility.yul\":18276:18695   */\n      swap2\n      swap1\n      pop\n      jump\t// out\n        /* \"#utility.yul\":18701:18892   */\n    tag_114:\n        /* \"#utility.yul\":18741:18744   */\n      0x00\n        /* \"#utility.yul\":18760:18780   */\n      tag_379\n        /* \"#utility.yul\":18778:18779   */\n      dup3\n        /* \"#utility.yul\":18760:18780   */\n      tag_158\n      jump\t// in\n    tag_379:\n        /* \"#utility.yul\":18755:18780   */\n      swap2\n      pop\n        /* \"#utility.yul\":18794:18814   */\n      tag_380\n        /* \"#utility.yul\":18812:18813   */\n      dup4\n        /* \"#utility.yul\":18794:18814   */\n      tag_158\n      jump\t// in\n    tag_380:\n        /* \"#utility.yul\":18789:18814   */\n      swap3\n      pop\n        /* \"#utility.yul\":18837:18838   */\n      dup3\n        /* \"#utility.yul\":18834:18835   */\n      dup3\n        /* \"#utility.yul\":18830:18839   */\n      add\n        /* \"#utility.yul\":18823:18839   */\n      swap1\n      pop\n        /* \"#utility.yul\":18858:18861   */\n      dup1\n        /* \"#utility.yul\":18855:18856   */\n      dup3\n        /* \"#utility.yul\":18852:18862   */\n      gt\n        /* \"#utility.yul\":18849:18885   */\n      iszero\n      tag_381\n      jumpi\n        /* \"#utility.yul\":18865:18883   */\n      tag_382\n      tag_164\n      jump\t// in\n    tag_382:\n        /* \"#utility.yul\":18849:18885   */\n    tag_381:\n        /* \"#utility.yul\":18701:18892   */\n      swap3\n      swap2\n      pop\n      pop\n      jump\t// out\n        /* \"#utility.yul\":18898:19321   */\n    tag_117:\n        /* \"#utility.yul\":19039:19043   */\n      0x00\n        /* \"#utility.yul\":19077:19079   */\n      0x40\n        /* \"#utility.yul\":19066:19075   */\n      dup3\n        /* \"#utility.yul\":19062:19080   */\n      add\n        /* \"#utility.yul\":19054:19080   */\n      swap1\n      pop\n        /* \"#utility.yul\":19090:19161   */\n      tag_384\n        /* \"#utility.yul\":19158:19159   */\n      0x00\n        /* \"#utility.yul\":19147:19156   */\n      dup4\n        /* \"#utility.yul\":19143:19160   */\n      add\n        /* \"#utility.yul\":19134:19140   */\n      dup6\n        /* \"#utility.yul\":19090:19161   */\n      tag_157\n      jump\t// in\n    tag_384:\n        /* \"#utility.yul\":19208:19217   */\n      dup2\n        /* \"#utility.yul\":19202:19206   */\n      dup2\n        /* \"#utility.yul\":19198:19218   */\n      sub\n        /* \"#utility.yul\":19193:19195   */\n      0x20\n        /* \"#utility.yul\":19182:19191   */\n      dup4\n        /* \"#utility.yul\":19178:19196   */\n      add\n        /* \"#utility.yul\":19171:19219   */\n      mstore\n        /* \"#utility.yul\":19236:19314   */\n      tag_385\n        /* \"#utility.yul\":19309:19313   */\n      dup2\n        /* \"#utility.yul\":19300:19306   */\n      dup5\n        /* \"#utility.yul\":19236:19314   */\n      tag_156\n      jump\t// in\n    tag_385:\n        /* \"#utility.yul\":19228:19314   */\n      swap1\n      pop\n        /* \"#utility.yul\":18898:19321   */\n      swap4\n      swap3\n      pop\n      pop\n      pop\n      jump\t// out\n        /* \"#utility.yul\":19327:19489   */\n    tag_187:\n        /* \"#utility.yul\":19467:19481   */\n      0x4f776e65724368616e6765640000000000000000000000000000000000000000\n        /* \"#utility.yul\":19463:19464   */\n      0x00\n        /* \"#utility.yul\":19455:19461   */\n      dup3\n        /* \"#utility.yul\":19451:19465   */\n      add\n        /* \"#utility.yul\":19444:19482   */\n      mstore\n        /* \"#utility.yul\":19327:19489   */\n      pop\n      jump\t// out\n        /* \"#utility.yul\":19495:19861   */\n    tag_188:\n        /* \"#utility.yul\":19637:19640   */\n      0x00\n        /* \"#utility.yul\":19658:19725   */\n      tag_388\n        /* \"#utility.yul\":19722:19724   */\n      0x0c\n        /* \"#utility.yul\":19717:19720   */\n      dup4\n        /* \"#utility.yul\":19658:19725   */\n      tag_154\n      jump\t// in\n    tag_388:\n        /* \"#utility.yul\":19651:19725   */\n      swap2\n      pop\n        /* \"#utility.yul\":19734:19827   */\n      tag_389\n        /* \"#utility.yul\":19823:19826   */\n      dup3\n        /* \"#utility.yul\":19734:19827   */\n      tag_187\n      jump\t// in\n    tag_389:\n        /* \"#utility.yul\":19852:19854   */\n      0x20\n        /* \"#utility.yul\":19847:19850   */\n      dup3\n        /* \"#utility.yul\":19843:19855   */\n      add\n        /* \"#utility.yul\":19836:19855   */\n      swap1\n      pop\n        /* \"#utility.yul\":19495:19861   */\n      swap2\n      swap1\n      pop\n      jump\t// out\n        /* \"#utility.yul\":19867:20286   */\n    tag_128:\n        /* \"#utility.yul\":20033:20037   */\n      0x00\n        /* \"#utility.yul\":20071:20073   */\n      0x20\n        /* \"#utility.yul\":20060:20069   */\n      dup3\n        /* \"#utility.yul\":20056:20074   */\n      add\n        /* \"#utility.yul\":20048:20074   */\n      swap1\n      pop\n        /* \"#utility.yul\":20120:20129   */\n      dup2\n        /* \"#utility.yul\":20114:20118   */\n      dup2\n        /* \"#utility.yul\":20110:20130   */\n      sub\n        /* \"#utility.yul\":20106:20107   */\n      0x00\n        /* \"#utility.yul\":20095:20104   */\n      dup4\n        /* \"#utility.yul\":20091:20108   */\n      add\n        /* \"#utility.yul\":20084:20131   */\n      mstore\n        /* \"#utility.yul\":20148:20279   */\n      tag_391\n        /* \"#utility.yul\":20274:20278   */\n      dup2\n        /* \"#utility.yul\":20148:20279   */\n      tag_188\n      jump\t// in\n    tag_391:\n        /* \"#utility.yul\":20140:20279   */\n      swap1\n      pop\n        /* \"#utility.yul\":19867:20286   */\n      swap2\n      swap1\n      pop\n      jump\t// out\n\n    auxdata: 0xa2646970667358221220545939f7d5ea0407e24ef28f828106aaec5df63ba11149cbfff45a83511a8d1b64736f6c63430008200033\n}\n",
				"bytecode": {
					"linkReferences": {},
					"object": "6080604052348015600e575f5ffd5b505f5f81905550611740806100225f395ff3fe608060405234801561000f575f5ffd5b506004361061009c575f3560e01c80636755d456116100645780636755d4561461015657806398fd383514610172578063a738e975146101a4578063d502db97146101c0578063d8f9d144146101f05761009c565b8063035e7709146100a0578063213b9eb8146100bc57806345de2ca0146100d85780634aaf4a1214610108578063524d81d314610138575b5f5ffd5b6100ba60048036038101906100b59190610e06565b61020c565b005b6100d660048036038101906100d19190610ea7565b6103fa565b005b6100f260048036038101906100ed9190610e06565b610557565b6040516100ff9190610f61565b60405180910390f35b610122600480360381019061011d9190610e06565b610608565b60405161012f9190610f90565b60405180910390f35b610140610650565b60405161014d9190610fc1565b60405180910390f35b610170600480360381019061016b9190610fda565b610655565b005b61018c60048036038101906101879190610e06565b610782565b60405161019b93929190611050565b60405180910390f35b6101be60048036038101906101b9919061108c565b610884565b005b6101da60048036038101906101d59190610e06565b610abd565b6040516101e79190610f90565b60405180910390f35b61020a60048036038101906102059190610ea7565b610b06565b005b803373ffffffffffffffffffffffffffffffffffffffff16600182604051610234919061114e565b90815260200160405180910390205f015f9054906101000a900473ffffffffffffffffffffffffffffffffffffffff1673ffffffffffffffffffffffffffffffffffffffff16146102ba576040517f08c379a00000000000000000000000000000000000000000000000000000000081526004016102b1906111ae565b60405180910390fd5b5f6001836040516102cb919061114e565b90815260200160405180910390206001015f9054906101000a900473ffffffffffffffffffffffffffffffffffffffff16905060018360405161030e919061114e565b90815260200160405180910390205f5f82015f6101000a81549073ffffffffffffffffffffffffffffffffffffffff0219169055600182015f6101000a81549073ffffffffffffffffffffffffffffffffffffffff0219169055600282015f6103779190610c62565b505060015f5f82825461038a91906111f9565b925050819055503373ffffffffffffffffffffffffffffffffffffffff16836040516103b6919061114e565b60405180910390207fa238383c9cda35d18e106f59b9434c34a691fa7452603473903def55bf5bf09d836040516103ed9190610f90565b60405180910390a3505050565b813373ffffffffffffffffffffffffffffffffffffffff16600182604051610422919061114e565b90815260200160405180910390205f015f9054906101000a900473ffffffffffffffffffffffffffffffffffffffff1673ffffffffffffffffffffffffffffffffffffffff16146104a8576040517f08c379a000000000000000000000000000000000000000000000000000000000815260040161049f906111ae565b60405180910390fd5b816001846040516104b9919061114e565b90815260200160405180910390206001015f6101000a81548173ffffffffffffffffffffffffffffffffffffffff021916908373ffffffffffffffffffffffffffffffffffffffff16021790555082604051610515919061114e565b60405180910390207f57b75b6d8a87a5a5fb23b8661e6576421516e045c4d3cda7943d3127278e215460405161054a90611276565b60405180910390a2505050565b6060600182604051610569919061114e565b90815260200160405180910390206002018054610585906112c1565b80601f01602080910402602001604051908101604052809291908181526020018280546105b1906112c1565b80156105fc5780601f106105d3576101008083540402835291602001916105fc565b820191905f5260205f20905b8154815290600101906020018083116105df57829003601f168201915b50505050509050919050565b5f600182604051610619919061114e565b90815260200160405180910390205f015f9054906101000a900473ffffffffffffffffffffffffffffffffffffffff169050919050565b5f5481565b813373ffffffffffffffffffffffffffffffffffffffff1660018260405161067d919061114e565b90815260200160405180910390205f015f9054906101000a900473ffffffffffffffffffffffffffffffffffffffff1673ffffffffffffffffffffffffffffffffffffffff1614610703576040517f08c379a00000000000000000000000000000000000000000000000000000000081526004016106fa906111ae565b60405180910390fd5b81600184604051610714919061114e565b9081526020016040518091039020600201908161073191906114a2565b5082604051610740919061114e565b60405180910390207f57b75b6d8a87a5a5fb23b8661e6576421516e045c4d3cda7943d3127278e2154604051610775906115bb565b60405180910390a2505050565b6001818051602081018201805184825260208301602085012081835280955050505050505f91509050805f015f9054906101000a900473ffffffffffffffffffffffffffffffffffffffff1690806001015f9054906101000a900473ffffffffffffffffffffffffffffffffffffffff1690806002018054610803906112c1565b80601f016020809104026020016040519081016040528092919081815260200182805461082f906112c1565b801561087a5780601f106108515761010080835404028352916020019161087a565b820191905f5260205f20905b81548152906001019060200180831161085d57829003601f168201915b5050505050905083565b5f73ffffffffffffffffffffffffffffffffffffffff166001846040516108ab919061114e565b90815260200160405180910390206001015f9054906101000a900473ffffffffffffffffffffffffffffffffffffffff1673ffffffffffffffffffffffffffffffffffffffff1614610932576040517f08c379a000000000000000000000000000000000000000000000000000000000815260040161092990611623565b60405180910390fd5b60405180606001604052803373ffffffffffffffffffffffffffffffffffffffff1681526020018373ffffffffffffffffffffffffffffffffffffffff16815260200182815250600184604051610989919061114e565b90815260200160405180910390205f820151815f015f6101000a81548173ffffffffffffffffffffffffffffffffffffffff021916908373ffffffffffffffffffffffffffffffffffffffff1602179055506020820151816001015f6101000a81548173ffffffffffffffffffffffffffffffffffffffff021916908373ffffffffffffffffffffffffffffffffffffffff1602179055506040820151816002019081610a3691906114a2565b5090505060015f5f828254610a4b9190611641565b925050819055503373ffffffffffffffffffffffffffffffffffffffff1683604051610a77919061114e565b60405180910390207fbf65039f6f2acb913710b9066c428a19be4742d8d25bd116f552ace35c9b99c28484604051610ab0929190611674565b60405180910390a3505050565b5f600182604051610ace919061114e565b90815260200160405180910390206001015f9054906101000a900473ffffffffffffffffffffffffffffffffffffffff169050919050565b813373ffffffffffffffffffffffffffffffffffffffff16600182604051610b2e919061114e565b90815260200160405180910390205f015f9054906101000a900473ffffffffffffffffffffffffffffffffffffffff1673ffffffffffffffffffffffffffffffffffffffff1614610bb4576040517f08c379a0000000000000000000000000000000000000000000000000000000008152600401610bab906111ae565b60405180910390fd5b81600184604051610bc5919061114e565b90815260200160405180910390205f015f6101000a81548173ffffffffffffffffffffffffffffffffffffffff021916908373ffffffffffffffffffffffffffffffffffffffff16021790555082604051610c20919061114e565b60405180910390207f57b75b6d8a87a5a5fb23b8661e6576421516e045c4d3cda7943d3127278e2154604051610c55906116ec565b60405180910390a2505050565b508054610c6e906112c1565b5f825580601f10610c7f5750610c99565b601f0160209004905f5260205f2090610c989190610c9c565b5b50565b5f5b80821115610cb4578281015f9055600101610c9e565b505090565b5f604051905090565b5f5ffd5b5f5ffd5b5f5ffd5b5f5ffd5b5f601f19601f8301169050919050565b7f4e487b71000000000000000000000000000000000000000000000000000000005f52604160045260245ffd5b610d1882610cd2565b810181811067ffffffffffffffff82111715610d3757610d36610ce2565b5b80604052505050565b5f610d49610cb9565b9050610d558282610d0f565b919050565b5f67ffffffffffffffff821115610d7457610d73610ce2565b5b610d7d82610cd2565b9050602081019050919050565b828183375f83830152505050565b5f610daa610da584610d5a565b610d40565b905082815260208101848484011115610dc657610dc5610cce565b5b610dd1848285610d8a565b509392505050565b5f82601f830112610ded57610dec610cca565b5b8135610dfd848260208601610d98565b91505092915050565b5f60208284031215610e1b57610e1a610cc2565b5b5f82013567ffffffffffffffff811115610e3857610e37610cc6565b5b610e4484828501610dd9565b91505092915050565b5f73ffffffffffffffffffffffffffffffffffffffff82169050919050565b5f610e7682610e4d565b9050919050565b610e8681610e6c565b8114610e90575f5ffd5b50565b5f81359050610ea181610e7d565b92915050565b5f5f60408385031215610ebd57610ebc610cc2565b5b5f83013567ffffffffffffffff811115610eda57610ed9610cc6565b5b610ee685828601610dd9565b9250506020610ef785828601610e93565b9150509250929050565b5f81519050919050565b5f82825260208201905092915050565b8281835e5f83830152505050565b5f610f3382610f01565b610f3d8185610f0b565b9350610f4d818560208601610f1b565b610f5681610cd2565b840191505092915050565b5f6020820190508181035f830152610f798184610f29565b905092915050565b610f8a81610e6c565b82525050565b5f602082019050610fa35f830184610f81565b92915050565b5f819050919050565b610fbb81610fa9565b82525050565b5f602082019050610fd45f830184610fb2565b92915050565b5f5f60408385031215610ff057610fef610cc2565b5b5f83013567ffffffffffffffff81111561100d5761100c610cc6565b5b61101985828601610dd9565b925050602083013567ffffffffffffffff81111561103a57611039610cc6565b5b61104685828601610dd9565b9150509250929050565b5f6060820190506110635f830186610f81565b6110706020830185610f81565b81810360408301526110828184610f29565b9050949350505050565b5f5f5f606084860312156110a3576110a2610cc2565b5b5f84013567ffffffffffffffff8111156110c0576110bf610cc6565b5b6110cc86828701610dd9565b93505060206110dd86828701610e93565b925050604084013567ffffffffffffffff8111156110fe576110fd610cc6565b5b61110a86828701610dd9565b9150509250925092565b5f81905092915050565b5f61112882610f01565b6111328185611114565b9350611142818560208601610f1b565b80840191505092915050565b5f611159828461111e565b915081905092915050565b7f4e6f7420636f6e7472616374206f776e657200000000000000000000000000005f82015250565b5f611198601283610f0b565b91506111a382611164565b602082019050919050565b5f6020820190508181035f8301526111c58161118c565b9050919050565b7f4e487b71000000000000000000000000000000000000000000000000000000005f52601160045260245ffd5b5f61120382610fa9565b915061120e83610fa9565b9250828203905081811115611226576112256111cc565b5b92915050565b7f416464726573734368616e6765640000000000000000000000000000000000005f82015250565b5f611260600e83610f0b565b915061126b8261122c565b602082019050919050565b5f6020820190508181035f83015261128d81611254565b9050919050565b7f4e487b71000000000000000000000000000000000000000000000000000000005f52602260045260245ffd5b5f60028204905060018216806112d857607f821691505b6020821081036112eb576112ea611294565b5b50919050565b5f819050815f5260205f209050919050565b5f6020601f8301049050919050565b5f82821b905092915050565b5f6008830261134d7fffffffffffffffffffffffffffffffffffffffffffffffffffffffffffffffff82611312565b6113578683611312565b95508019841693508086168417925050509392505050565b5f819050919050565b5f61139261138d61138884610fa9565b61136f565b610fa9565b9050919050565b5f819050919050565b6113ab83611378565b6113bf6113b782611399565b84845461131e565b825550505050565b5f5f905090565b6113d66113c7565b6113e18184846113a2565b505050565b5f5b82811015611407576113fc5f8284016113ce565b6001810190506113e8565b505050565b601f82111561145a578282111561145957611426816112f1565b61142f83611303565b61143885611303565b6020861015611445575f90505b808301611454828403826113e6565b505050505b5b505050565b5f82821c905092915050565b5f61147a5f198460080261145f565b1980831691505092915050565b5f611492838361146b565b9150826002028217905092915050565b6114ab82610f01565b67ffffffffffffffff8111156114c4576114c3610ce2565b5b6114ce82546112c1565b6114d982828561140c565b5f60209050601f83116001811461150a575f84156114f8578287015190505b6115028582611487565b865550611569565b601f198416611518866112f1565b5f5b8281101561153f5784890151825560018201915060208501945060208101905061151a565b8683101561155c5784890151611558601f89168261146b565b8355505b6001600288020188555050505b505050505050565b7f4465736372697074696f6e4368616e67656400000000000000000000000000005f82015250565b5f6115a5601283610f0b565b91506115b082611571565b602082019050919050565b5f6020820190508181035f8301526115d281611599565b9050919050565b7f4e616d6520616c726561647920726567697374657265640000000000000000005f82015250565b5f61160d601783610f0b565b9150611618826115d9565b602082019050919050565b5f6020820190508181035f83015261163a81611601565b9050919050565b5f61164b82610fa9565b915061165683610fa9565b925082820190508082111561166e5761166d6111cc565b5b92915050565b5f6040820190506116875f830185610f81565b81810360208301526116998184610f29565b90509392505050565b7f4f776e65724368616e67656400000000000000000000000000000000000000005f82015250565b5f6116d6600c83610f0b565b91506116e1826116a2565b602082019050919050565b5f6020820190508181035f830152611703816116ca565b905091905056fea2646970667358221220545939f7d5ea0407e24ef28f828106aaec5df63ba11149cbfff45a83511a8d1b64736f6c63430008200033",
					"opcodes": "PUSH1 0x80 PUSH1 0x40 MSTORE CALLVALUE DUP1 ISZERO PUSH1 0xE JUMPI PUSH0 PUSH0 REVERT JUMPDEST POP PUSH0 PUSH0 DUP2 SWAP1 SSTORE POP PUSH2 0x1740 DUP1 PUSH2 0x22 PUSH0 CODECOPY PUSH0 RETURN INVALID PUSH1 0x80 PUSH1 0x40 MSTORE CALLVALUE DUP1 ISZERO PUSH2 0xF JUMPI PUSH0 PUSH0 REVERT JUMPDEST POP PUSH1 0x4 CALLDATASIZE LT PUSH2 0x9C JUMPI PUSH0 CALLDATALOAD PUSH1 0xE0 SHR DUP1 PUSH4 0x6755D456 GT PUSH2 0x64 JUMPI DUP1 PUSH4 0x6755D456 EQ PUSH2 0x156 JUMPI DUP1 PUSH4 0x98FD3835 EQ PUSH2 0x172 JUMPI DUP1 PUSH4 0xA738E975 EQ PUSH2 0x1A4 JUMPI DUP1 PUSH4 0xD502DB97 EQ PUSH2 0x1C0 JUMPI DUP1 PUSH4 0xD8F9D144 EQ PUSH2 0x1F0 JUMPI PUSH2 0x9C JUMP JUMPDEST DUP1 PUSH4 0x35E7709 EQ PUSH2 0xA0 JUMPI DUP1 PUSH4 0x213B9EB8 EQ PUSH2 0xBC JUMPI DUP1 PUSH4 0x45DE2CA0 EQ PUSH2 0xD8 JUMPI DUP1 PUSH4 0x4AAF4A12 EQ PUSH2 0x108 JUMPI DUP1 PUSH4 0x524D81D3 EQ PUSH2 0x138 JUMPI JUMPDEST PUSH0 PUSH0 REVERT JUMPDEST PUSH2 0xBA PUSH1 0x4 DUP1 CALLDATASIZE SUB DUP2 ADD SWAP1 PUSH2 0xB5 SWAP2 SWAP1 PUSH2 0xE06 JUMP JUMPDEST PUSH2 0x20C JUMP JUMPDEST STOP JUMPDEST PUSH2 0xD6 PUSH1 0x4 DUP1 CALLDATASIZE SUB DUP2 ADD SWAP1 PUSH2 0xD1 SWAP2 SWAP1 PUSH2 0xEA7 JUMP JUMPDEST PUSH2 0x3FA JUMP JUMPDEST STOP JUMPDEST PUSH2 0xF2 PUSH1 0x4 DUP1 CALLDATASIZE SUB DUP2 ADD SWAP1 PUSH2 0xED SWAP2 SWAP1 PUSH2 0xE06 JUMP JUMPDEST PUSH2 0x557 JUMP JUMPDEST PUSH1 0x40 MLOAD PUSH2 0xFF SWAP2 SWAP1 PUSH2 0xF61 JUMP JUMPDEST PUSH1 0x40 MLOAD DUP1 SWAP2 SUB SWAP1 RETURN JUMPDEST PUSH2 0x122 PUSH1 0x4 DUP1 CALLDATASIZE SUB DUP2 ADD SWAP1 PUSH2 0x11D SWAP2 SWAP1 PUSH2 0xE06 JUMP JUMPDEST PUSH2 0x608 JUMP JUMPDEST PUSH1 0x40 MLOAD PUSH2 0x12F SWAP2 SWAP1 PUSH2 0xF90 JUMP JUMPDEST PUSH1 0x40 MLOAD DUP1 SWAP2 SUB SWAP1 RETURN JUMPDEST PUSH2 0x140 PUSH2 0x650 JUMP JUMPDEST PUSH1 0x40 MLOAD PUSH2 0x14D SWAP2 SWAP1 PUSH2 0xFC1 JUMP JUMPDEST PUSH1 0x40 MLOAD DUP1 SWAP2 SUB SWAP1 RETURN JUMPDEST PUSH2 0x170 PUSH1 0x4 DUP1 CALLDATASIZE SUB DUP2 ADD SWAP1 PUSH2 0x16B SWAP2 SWAP1 PUSH2 0xFDA JUMP JUMPDEST PUSH2 0x655 JUMP JUMPDEST STOP JUMPDEST PUSH2 0x18C PUSH1 0x4 DUP1 CALLDATASIZE SUB DUP2 ADD SWAP1 PUSH2 0x187 SWAP2 SWAP1 PUSH2 0xE06 JUMP JUMPDEST PUSH2 0x782 JUMP JUMPDEST PUSH1 0x40 MLOAD PUSH2 0x19B SWAP4 SWAP3 SWAP2 SWAP1 PUSH2 0x1050 JUMP JUMPDEST PUSH1 0x40 MLOAD DUP1 SWAP2 SUB SWAP1 RETURN JUMPDEST PUSH2 0x1BE PUSH1 0x4 DUP1 CALLDATASIZE SUB DUP2 ADD SWAP1 PUSH2 0x1B9 SWAP2 SWAP1 PUSH2 0x108C JUMP JUMPDEST PUSH2 0x884 JUMP JUMPDEST STOP JUMPDEST PUSH2 0x1DA PUSH1 0x4 DUP1 CALLDATASIZE SUB DUP2 ADD SWAP1 PUSH2 0x1D5 SWAP2 SWAP1 PUSH2 0xE06 JUMP JUMPDEST PUSH2 0xABD JUMP JUMPDEST PUSH1 0x40 MLOAD PUSH2 0x1E7 SWAP2 SWAP1 PUSH2 0xF90 JUMP JUMPDEST PUSH1 0x40 MLOAD DUP1 SWAP2 SUB SWAP1 RETURN JUMPDEST PUSH2 0x20A PUSH1 0x4 DUP1 CALLDATASIZE SUB DUP2 ADD SWAP1 PUSH2 0x205 SWAP2 SWAP1 PUSH2 0xEA7 JUMP JUMPDEST PUSH2 0xB06 JUMP JUMPDEST STOP JUMPDEST DUP1 CALLER PUSH20 0xFFFFFFFFFFFFFFFFFFFFFFFFFFFFFFFFFFFFFFFF AND PUSH1 0x1 DUP3 PUSH1 0x40 MLOAD PUSH2 0x234 SWAP2 SWAP1 PUSH2 0x114E JUMP JUMPDEST SWAP1 DUP2 MSTORE PUSH1 0x20 ADD PUSH1 0x40 MLOAD DUP1 SWAP2 SUB SWAP1 KECCAK256 PUSH0 ADD PUSH0 SWAP1 SLOAD SWAP1 PUSH2 0x100 EXP SWAP1 DIV PUSH20 0xFFFFFFFFFFFFFFFFFFFFFFFFFFFFFFFFFFFFFFFF AND PUSH20 0xFFFFFFFFFFFFFFFFFFFFFFFFFFFFFFFFFFFFFFFF AND EQ PUSH2 0x2BA JUMPI PUSH1 0x40 MLOAD PUSH32 0x8C379A000000000000000000000000000000000000000000000000000000000 DUP2 MSTORE PUSH1 0x4 ADD PUSH2 0x2B1 SWAP1 PUSH2 0x11AE JUMP JUMPDEST PUSH1 0x40 MLOAD DUP1 SWAP2 SUB SWAP1 REVERT JUMPDEST PUSH0 PUSH1 0x1 DUP4 PUSH1 0x40 MLOAD PUSH2 0x2CB SWAP2 SWAP1 PUSH2 0x114E JUMP JUMPDEST SWAP1 DUP2 MSTORE PUSH1 0x20 ADD PUSH1 0x40 MLOAD DUP1 SWAP2 SUB SWAP1 KECCAK256 PUSH1 0x1 ADD PUSH0 SWAP1 SLOAD SWAP1 PUSH2 0x100 EXP SWAP1 DIV PUSH20 0xFFFFFFFFFFFFFFFFFFFFFFFFFFFFFFFFFFFFFFFF AND SWAP1 POP PUSH1 0x1 DUP4 PUSH1 0x40 MLOAD PUSH2 0x30E SWAP2 SWAP1 PUSH2 0x114E JUMP JUMPDEST SWAP1 DUP2 MSTORE PUSH1 0x20 ADD PUSH1 0x40 MLOAD DUP1 SWAP2 SUB SWAP1 KECCAK256 PUSH0 PUSH0 DUP3 ADD PUSH0 PUSH2 0x100 EXP DUP2 SLOAD SWAP1 PUSH20 0xFFFFFFFFFFFFFFFFFFFFFFFFFFFFFFFFFFFFFFFF MUL NOT AND SWAP1 SSTORE PUSH1 0x1 DUP3 ADD PUSH0 PUSH2 0x100 EXP DUP2 SLOAD SWAP1 PUSH20 0xFFFFFFFFFFFFFFFFFFFFFFFFFFFFFFFFFFFFFFFF MUL NOT AND SWAP1 SSTORE PUSH1 0x2 DUP3 ADD PUSH0 PUSH2 0x377 SWAP2 SWAP1 PUSH2 0xC62 JUMP JUMPDEST POP POP PUSH1 0x1 PUSH0 PUSH0 DUP3 DUP3 SLOAD PUSH2 0x38A SWAP2 SWAP1 PUSH2 0x11F9 JUMP JUMPDEST SWAP3 POP POP DUP2 SWAP1 SSTORE POP CALLER PUSH20 0xFFFFFFFFFFFFFFFFFFFFFFFFFFFFFFFFFFFFFFFF AND DUP4 PUSH1 0x40 MLOAD PUSH2 0x3B6 SWAP2 SWAP1 PUSH2 0x114E JUMP JUMPDEST PUSH1 0x40 MLOAD DUP1 SWAP2 SUB SWAP1 KECCAK256 PUSH32 0xA238383C9CDA35D18E106F59B9434C34A691FA7452603473903DEF55BF5BF09D DUP4 PUSH1 0x40 MLOAD PUSH2 0x3ED SWAP2 SWAP1 PUSH2 0xF90 JUMP JUMPDEST PUSH1 0x40 MLOAD DUP1 SWAP2 SUB SWAP1 LOG3 POP POP POP JUMP JUMPDEST DUP2 CALLER PUSH20 0xFFFFFFFFFFFFFFFFFFFFFFFFFFFFFFFFFFFFFFFF AND PUSH1 0x1 DUP3 PUSH1 0x40 MLOAD PUSH2 0x422 SWAP2 SWAP1 PUSH2 0x114E JUMP JUMPDEST SWAP1 DUP2 MSTORE PUSH1 0x20 ADD PUSH1 0x40 MLOAD DUP1 SWAP2 SUB SWAP1 KECCAK256 PUSH0 ADD PUSH0 SWAP1 SLOAD SWAP1 PUSH2 0x100 EXP SWAP1 DIV PUSH20 0xFFFFFFFFFFFFFFFFFFFFFFFFFFFFFFFFFFFFFFFF AND PUSH20 0xFFFFFFFFFFFFFFFFFFFFFFFFFFFFFFFFFFFFFFFF AND EQ PUSH2 0x4A8 JUMPI PUSH1 0x40 MLOAD PUSH32 0x8C379A000000000000000000000000000000000000000000000000000000000 DUP2 MSTORE PUSH1 0x4 ADD PUSH2 0x49F SWAP1 PUSH2 0x11AE JUMP JUMPDEST PUSH1 0x40 MLOAD DUP1 SWAP2 SUB SWAP1 REVERT JUMPDEST DUP2 PUSH1 0x1 DUP5 PUSH1 0x40 MLOAD PUSH2 0x4B9 SWAP2 SWAP1 PUSH2 0x114E JUMP JUMPDEST SWAP1 DUP2 MSTORE PUSH1 0x20 ADD PUSH1 0x40 MLOAD DUP1 SWAP2 SUB SWAP1 KECCAK256 PUSH1 0x1 ADD PUSH0 PUSH2 0x100 EXP DUP2 SLOAD DUP2 PUSH20 0xFFFFFFFFFFFFFFFFFFFFFFFFFFFFFFFFFFFFFFFF MUL NOT AND SWAP1 DUP4 PUSH20 0xFFFFFFFFFFFFFFFFFFFFFFFFFFFFFFFFFFFFFFFF AND MUL OR SWAP1 SSTORE POP DUP3 PUSH1 0x40 MLOAD PUSH2 0x515 SWAP2 SWAP1 PUSH2 0x114E JUMP JUMPDEST PUSH1 0x40 MLOAD DUP1 SWAP2 SUB SWAP1 KECCAK256 PUSH32 0x57B75B6D8A87A5A5FB23B8661E6576421516E045C4D3CDA7943D3127278E2154 PUSH1 0x40 MLOAD PUSH2 0x54A SWAP1 PUSH2 0x1276 JUMP JUMPDEST PUSH1 0x40 MLOAD DUP1 SWAP2 SUB SWAP1 LOG2 POP POP POP JUMP JUMPDEST PUSH1 0x60 PUSH1 0x1 DUP3 PUSH1 0x40 MLOAD PUSH2 0x569 SWAP2 SWAP1 PUSH2 0x114E JUMP JUMPDEST SWAP1 DUP2 MSTORE PUSH1 0x20 ADD PUSH1 0x40 MLOAD DUP1 SWAP2 SUB SWAP1 KECCAK256 PUSH1 0x2 ADD DUP1 SLOAD PUSH2 0x585 SWAP1 PUSH2 0x12C1 JUMP JUMPDEST DUP1 PUSH1 0x1F ADD PUSH1 0x20 DUP1 SWAP2 DIV MUL PUSH1 0x20 ADD PUSH1 0x40 MLOAD SWAP1 DUP2 ADD PUSH1 0x40 MSTORE DUP1 SWAP3 SWAP2 SWAP1 DUP2 DUP2 MSTORE PUSH1 0x20 ADD DUP3 DUP1 SLOAD PUSH2 0x5B1 SWAP1 PUSH2 0x12C1 JUMP JUMPDEST DUP1 ISZERO PUSH2 0x5FC JUMPI DUP1 PUSH1 0x1F LT PUSH2 0x5D3 JUMPI PUSH2 0x100 DUP1 DUP4 SLOAD DIV MUL DUP4 MSTORE SWAP2 PUSH1 0x20 ADD SWAP2 PUSH2 0x5FC JUMP JUMPDEST DUP3 ADD SWAP2 SWAP1 PUSH0 MSTORE PUSH1 0x20 PUSH0 KECCAK256 SWAP1 JUMPDEST DUP2 SLOAD DUP2 MSTORE SWAP1 PUSH1 0x1 ADD SWAP1 PUSH1 0x20 ADD DUP1 DUP4 GT PUSH2 0x5DF JUMPI DUP3 SWAP1 SUB PUSH1 0x1F AND DUP3 ADD SWAP2 JUMPDEST POP POP POP POP POP SWAP1 POP SWAP2 SWAP1 POP JUMP JUMPDEST PUSH0 PUSH1 0x1 DUP3 PUSH1 0x40 MLOAD PUSH2 0x619 SWAP2 SWAP1 PUSH2 0x114E JUMP JUMPDEST SWAP1 DUP2 MSTORE PUSH1 0x20 ADD PUSH1 0x40 MLOAD DUP1 SWAP2 SUB SWAP1 KECCAK256 PUSH0 ADD PUSH0 SWAP1 SLOAD SWAP1 PUSH2 0x100 EXP SWAP1 DIV PUSH20 0xFFFFFFFFFFFFFFFFFFFFFFFFFFFFFFFFFFFFFFFF AND SWAP1 POP SWAP2 SWAP1 POP JUMP JUMPDEST PUSH0 SLOAD DUP2 JUMP JUMPDEST DUP2 CALLER PUSH20 0xFFFFFFFFFFFFFFFFFFFFFFFFFFFFFFFFFFFFFFFF AND PUSH1 0x1 DUP3 PUSH1 0x40 MLOAD PUSH2 0x67D SWAP2 SWAP1 PUSH2 0x114E JUMP JUMPDEST SWAP1 DUP2 MSTORE PUSH1 0x20 ADD PUSH1 0x40 MLOAD DUP1 SWAP2 SUB SWAP1 KECCAK256 PUSH0 ADD PUSH0 SWAP1 SLOAD SWAP1 PUSH2 0x100 EXP SWAP1 DIV PUSH20 0xFFFFFFFFFFFFFFFFFFFFFFFFFFFFFFFFFFFFFFFF AND PUSH20 0xFFFFFFFFFFFFFFFFFFFFFFFFFFFFFFFFFFFFFFFF AND EQ PUSH2 0x703 JUMPI PUSH1 0x40 MLOAD PUSH32 0x8C379A000000000000000000000000000000000000000000000000000000000 DUP2 MSTORE PUSH1 0x4 ADD PUSH2 0x6FA SWAP1 PUSH2 0x11AE JUMP JUMPDEST PUSH1 0x40 MLOAD DUP1 SWAP2 SUB SWAP1 REVERT JUMPDEST DUP2 PUSH1 0x1 DUP5 PUSH1 0x40 MLOAD PUSH2 0x714 SWAP2 SWAP1 PUSH2 0x114E JUMP JUMPDEST SWAP1 DUP2 MSTORE PUSH1 0x20 ADD PUSH1 0x40 MLOAD DUP1 SWAP2 SUB SWAP1 KECCAK256 PUSH1 0x2 ADD SWAP1 DUP2 PUSH2 0x731 SWAP2 SWAP1 PUSH2 0x14A2 JUMP JUMPDEST POP DUP3 PUSH1 0x40 MLOAD PUSH2 0x740 SWAP2 SWAP1 PUSH2 0x114E JUMP JUMPDEST PUSH1 0x40 MLOAD DUP1 SWAP2 SUB SWAP1 KECCAK256 PUSH32 0x57B75B6D8A87A5A5FB23B8661E6576421516E045C4D3CDA7943D3127278E2154 PUSH1 0x40 MLOAD PUSH2 0x775 SWAP1 PUSH2 0x15BB JUMP JUMPDEST PUSH1 0x40 MLOAD DUP1 SWAP2 SUB SWAP1 LOG2 POP POP POP JUMP JUMPDEST PUSH1 0x1 DUP2 DUP1 MLOAD PUSH1 0x20 DUP2 ADD DUP3 ADD DUP1 MLOAD DUP5 DUP3 MSTORE PUSH1 0x20 DUP4 ADD PUSH1 0x20 DUP6 ADD KECCAK256 DUP2 DUP4 MSTORE DUP1 SWAP6 POP POP POP POP POP POP PUSH0 SWAP2 POP SWAP1 POP DUP1 PUSH0 ADD PUSH0 SWAP1 SLOAD SWAP1 PUSH2 0x100 EXP SWAP1 DIV PUSH20 0xFFFFFFFFFFFFFFFFFFFFFFFFFFFFFFFFFFFFFFFF AND SWAP1 DUP1 PUSH1 0x1 ADD PUSH0 SWAP1 SLOAD SWAP1 PUSH2 0x100 EXP SWAP1 DIV PUSH20 0xFFFFFFFFFFFFFFFFFFFFFFFFFFFFFFFFFFFFFFFF AND SWAP1 DUP1 PUSH1 0x2 ADD DUP1 SLOAD PUSH2 0x803 SWAP1 PUSH2 0x12C1 JUMP JUMPDEST DUP1 PUSH1 0x1F ADD PUSH1 0x20 DUP1 SWAP2 DIV MUL PUSH1 0x20 ADD PUSH1 0x40 MLOAD SWAP1 DUP2 ADD PUSH1 0x40 MSTORE DUP1 SWAP3 SWAP2 SWAP1 DUP2 DUP2 MSTORE PUSH1 0x20 ADD DUP3 DUP1 SLOAD PUSH2 0x82F SWAP1 PUSH2 0x12C1 JUMP JUMPDEST DUP1 ISZERO PUSH2 0x87A JUMPI DUP1 PUSH1 0x1F LT PUSH2 0x851 JUMPI PUSH2 0x100 DUP1 DUP4 SLOAD DIV MUL DUP4 MSTORE SWAP2 PUSH1 0x20 ADD SWAP2 PUSH2 0x87A JUMP JUMPDEST DUP3 ADD SWAP2 SWAP1 PUSH0 MSTORE PUSH1 0x20 PUSH0 KECCAK256 SWAP1 JUMPDEST DUP2 SLOAD DUP2 MSTORE SWAP1 PUSH1 0x1 ADD SWAP1 PUSH1 0x20 ADD DUP1 DUP4 GT PUSH2 0x85D JUMPI DUP3 SWAP1 SUB PUSH1 0x1F AND DUP3 ADD SWAP2 JUMPDEST POP POP POP POP POP SWAP1 POP DUP4 JUMP JUMPDEST PUSH0 PUSH20 0xFFFFFFFFFFFFFFFFFFFFFFFFFFFFFFFFFFFFFFFF AND PUSH1 0x1 DUP5 PUSH1 0x40 MLOAD PUSH2 0x8AB SWAP2 SWAP1 PUSH2 0x114E JUMP JUMPDEST SWAP1 DUP2 MSTORE PUSH1 0x20 ADD PUSH1 0x40 MLOAD DUP1 SWAP2 SUB SWAP1 KECCAK256 PUSH1 0x1 ADD PUSH0 SWAP1 SLOAD SWAP1 PUSH2 0x100 EXP SWAP1 DIV PUSH20 0xFFFFFFFFFFFFFFFFFFFFFFFFFFFFFFFFFFFFFFFF AND PUSH20 0xFFFFFFFFFFFFFFFFFFFFFFFFFFFFFFFFFFFFFFFF AND EQ PUSH2 0x932 JUMPI PUSH1 0x40 MLOAD PUSH32 0x8C379A000000000000000000000000000000000000000000000000000000000 DUP2 MSTORE PUSH1 0x4 ADD PUSH2 0x929 SWAP1 PUSH2 0x1623 JUMP JUMPDEST PUSH1 0x40 MLOAD DUP1 SWAP2 SUB SWAP1 REVERT JUMPDEST PUSH1 0x40 MLOAD DUP1 PUSH1 0x60 ADD PUSH1 0x40 MSTORE DUP1 CALLER PUSH20 0xFFFFFFFFFFFFFFFFFFFFFFFFFFFFFFFFFFFFFFFF AND DUP2 MSTORE PUSH1 0x20 ADD DUP4 PUSH20 0xFFFFFFFFFFFFFFFFFFFFFFFFFFFFFFFFFFFFFFFF AND DUP2 MSTORE PUSH1 0x20 ADD DUP3 DUP2 MSTORE POP PUSH1 0x1 DUP5 PUSH1 0x40 MLOAD PUSH2 0x989 SWAP2 SWAP1 PUSH2 0x114E JUMP JUMPDEST SWAP1 DUP2 MSTORE PUSH1 0x20 ADD PUSH1 0x40 MLOAD DUP1 SWAP2 SUB SWAP1 KECCAK256 PUSH0 DUP3 ADD MLOAD DUP2 PUSH0 ADD PUSH0 PUSH2 0x100 EXP DUP2 SLOAD DUP2 PUSH20 0xFFFFFFFFFFFFFFFFFFFFFFFFFFFFFFFFFFFFFFFF MUL NOT AND SWAP1 DUP4 PUSH20 0xFFFFFFFFFFFFFFFFFFFFFFFFFFFFFFFFFFFFFFFF AND MUL OR SWAP1 SSTORE POP PUSH1 0x20 DUP3 ADD MLOAD DUP2 PUSH1 0x1 ADD PUSH0 PUSH2 0x100 EXP DUP2 SLOAD DUP2 PUSH20 0xFFFFFFFFFFFFFFFFFFFFFFFFFFFFFFFFFFFFFFFF MUL NOT AND SWAP1 DUP4 PUSH20 0xFFFFFFFFFFFFFFFFFFFFFFFFFFFFFFFFFFFFFFFF AND MUL OR SWAP1 SSTORE POP PUSH1 0x40 DUP3 ADD MLOAD DUP2 PUSH1 0x2 ADD SWAP1 DUP2 PUSH2 0xA36 SWAP2 SWAP1 PUSH2 0x14A2 JUMP JUMPDEST POP SWAP1 POP POP PUSH1 0x1 PUSH0 PUSH0 DUP3 DUP3 SLOAD PUSH2 0xA4B SWAP2 SWAP1 PUSH2 0x1641 JUMP JUMPDEST SWAP3 POP POP DUP2 SWAP1 SSTORE POP CALLER PUSH20 0xFFFFFFFFFFFFFFFFFFFFFFFFFFFFFFFFFFFFFFFF AND DUP4 PUSH1 0x40 MLOAD PUSH2 0xA77 SWAP2 SWAP1 PUSH2 0x114E JUMP JUMPDEST PUSH1 0x40 MLOAD DUP1 SWAP2 SUB SWAP1 KECCAK256 PUSH32 0xBF65039F6F2ACB913710B9066C428A19BE4742D8D25BD116F552ACE35C9B99C2 DUP5 DUP5 PUSH1 0x40 MLOAD PUSH2 0xAB0 SWAP3 SWAP2 SWAP1 PUSH2 0x1674 JUMP JUMPDEST PUSH1 0x40 MLOAD DUP1 SWAP2 SUB SWAP1 LOG3 POP POP POP JUMP JUMPDEST PUSH0 PUSH1 0x1 DUP3 PUSH1 0x40 MLOAD PUSH2 0xACE SWAP2 SWAP1 PUSH2 0x114E JUMP JUMPDEST SWAP1 DUP2 MSTORE PUSH1 0x20 ADD PUSH1 0x40 MLOAD DUP1 SWAP2 SUB SWAP1 KECCAK256 PUSH1 0x1 ADD PUSH0 SWAP1 SLOAD SWAP1 PUSH2 0x100 EXP SWAP1 DIV PUSH20 0xFFFFFFFFFFFFFFFFFFFFFFFFFFFFFFFFFFFFFFFF AND SWAP1 POP SWAP2 SWAP1 POP JUMP JUMPDEST DUP2 CALLER PUSH20 0xFFFFFFFFFFFFFFFFFFFFFFFFFFFFFFFFFFFFFFFF AND PUSH1 0x1 DUP3 PUSH1 0x40 MLOAD PUSH2 0xB2E SWAP2 SWAP1 PUSH2 0x114E JUMP JUMPDEST SWAP1 DUP2 MSTORE PUSH1 0x20 ADD PUSH1 0x40 MLOAD DUP1 SWAP2 SUB SWAP1 KECCAK256 PUSH0 ADD PUSH0 SWAP1 SLOAD SWAP1 PUSH2 0x100 EXP SWAP1 DIV PUSH20 0xFFFFFFFFFFFFFFFFFFFFFFFFFFFFFFFFFFFFFFFF AND PUSH20 0xFFFFFFFFFFFFFFFFFFFFFFFFFFFFFFFFFFFFFFFF AND EQ PUSH2 0xBB4 JUMPI PUSH1 0x40 MLOAD PUSH32 0x8C379A000000000000000000000000000000000000000000000000000000000 DUP2 MSTORE PUSH1 0x4 ADD PUSH2 0xBAB SWAP1 PUSH2 0x11AE JUMP JUMPDEST PUSH1 0x40 MLOAD DUP1 SWAP2 SUB SWAP1 REVERT JUMPDEST DUP2 PUSH1 0x1 DUP5 PUSH1 0x40 MLOAD PUSH2 0xBC5 SWAP2 SWAP1 PUSH2 0x114E JUMP JUMPDEST SWAP1 DUP2 MSTORE PUSH1 0x20 ADD PUSH1 0x40 MLOAD DUP1 SWAP2 SUB SWAP1 KECCAK256 PUSH0 ADD PUSH0 PUSH2 0x100 EXP DUP2 SLOAD DUP2 PUSH20 0xFFFFFFFFFFFFFFFFFFFFFFFFFFFFFFFFFFFFFFFF MUL NOT AND SWAP1 DUP4 PUSH20 0xFFFFFFFFFFFFFFFFFFFFFFFFFFFFFFFFFFFFFFFF AND MUL OR SWAP1 SSTORE POP DUP3 PUSH1 0x40 MLOAD PUSH2 0xC20 SWAP2 SWAP1 PUSH2 0x114E JUMP JUMPDEST PUSH1 0x40 MLOAD DUP1 SWAP2 SUB SWAP1 KECCAK256 PUSH32 0x57B75B6D8A87A5A5FB23B8661E6576421516E045C4D3CDA7943D3127278E2154 PUSH1 0x40 MLOAD PUSH2 0xC55 SWAP1 PUSH2 0x16EC JUMP JUMPDEST PUSH1 0x40 MLOAD DUP1 SWAP2 SUB SWAP1 LOG2 POP POP POP JUMP JUMPDEST POP DUP1 SLOAD PUSH2 0xC6E SWAP1 PUSH2 0x12C1 JUMP JUMPDEST PUSH0 DUP3 SSTORE DUP1 PUSH1 0x1F LT PUSH2 0xC7F JUMPI POP PUSH2 0xC99 JUMP JUMPDEST PUSH1 0x1F ADD PUSH1 0x20 SWAP1 DIV SWAP1 PUSH0 MSTORE PUSH1 0x20 PUSH0 KECCAK256 SWAP1 PUSH2 0xC98 SWAP2 SWAP1 PUSH2 0xC9C JUMP JUMPDEST JUMPDEST POP JUMP JUMPDEST PUSH0 JUMPDEST DUP1 DUP3 GT ISZERO PUSH2 0xCB4 JUMPI DUP3 DUP2 ADD PUSH0 SWAP1 SSTORE PUSH1 0x1 ADD PUSH2 0xC9E JUMP JUMPDEST POP POP SWAP1 JUMP JUMPDEST PUSH0 PUSH1 0x40 MLOAD SWAP1 POP SWAP1 JUMP JUMPDEST PUSH0 PUSH0 REVERT JUMPDEST PUSH0 PUSH0 REVERT JUMPDEST PUSH0 PUSH0 REVERT JUMPDEST PUSH0 PUSH0 REVERT JUMPDEST PUSH0 PUSH1 0x1F NOT PUSH1 0x1F DUP4 ADD AND SWAP1 POP SWAP2 SWAP1 POP JUMP JUMPDEST PUSH32 0x4E487B7100000000000000000000000000000000000000000000000000000000 PUSH0 MSTORE PUSH1 0x41 PUSH1 0x4 MSTORE PUSH1 0x24 PUSH0 REVERT JUMPDEST PUSH2 0xD18 DUP3 PUSH2 0xCD2 JUMP JUMPDEST DUP2 ADD DUP2 DUP2 LT PUSH8 0xFFFFFFFFFFFFFFFF DUP3 GT OR ISZERO PUSH2 0xD37 JUMPI PUSH2 0xD36 PUSH2 0xCE2 JUMP JUMPDEST JUMPDEST DUP1 PUSH1 0x40 MSTORE POP POP POP JUMP JUMPDEST PUSH0 PUSH2 0xD49 PUSH2 0xCB9 JUMP JUMPDEST SWAP1 POP PUSH2 0xD55 DUP3 DUP3 PUSH2 0xD0F JUMP JUMPDEST SWAP2 SWAP1 POP JUMP JUMPDEST PUSH0 PUSH8 0xFFFFFFFFFFFFFFFF DUP3 GT ISZERO PUSH2 0xD74 JUMPI PUSH2 0xD73 PUSH2 0xCE2 JUMP JUMPDEST JUMPDEST PUSH2 0xD7D DUP3 PUSH2 0xCD2 JUMP JUMPDEST SWAP1 POP PUSH1 0x20 DUP2 ADD SWAP1 POP SWAP2 SWAP1 POP JUMP JUMPDEST DUP3 DUP2 DUP4 CALLDATACOPY PUSH0 DUP4 DUP4 ADD MSTORE POP POP POP JUMP JUMPDEST PUSH0 PUSH2 0xDAA PUSH2 0xDA5 DUP5 PUSH2 0xD5A JUMP JUMPDEST PUSH2 0xD40 JUMP JUMPDEST SWAP1 POP DUP3 DUP2 MSTORE PUSH1 0x20 DUP2 ADD DUP5 DUP5 DUP5 ADD GT ISZERO PUSH2 0xDC6 JUMPI PUSH2 0xDC5 PUSH2 0xCCE JUMP JUMPDEST JUMPDEST PUSH2 0xDD1 DUP5 DUP3 DUP6 PUSH2 0xD8A JUMP JUMPDEST POP SWAP4 SWAP3 POP POP POP JUMP JUMPDEST PUSH0 DUP3 PUSH1 0x1F DUP4 ADD SLT PUSH2 0xDED JUMPI PUSH2 0xDEC PUSH2 0xCCA JUMP JUMPDEST JUMPDEST DUP2 CALLDATALOAD PUSH2 0xDFD DUP5 DUP3 PUSH1 0x20 DUP7 ADD PUSH2 0xD98 JUMP JUMPDEST SWAP2 POP POP SWAP3 SWAP2 POP POP JUMP JUMPDEST PUSH0 PUSH1 0x20 DUP3 DUP5 SUB SLT ISZERO PUSH2 0xE1B JUMPI PUSH2 0xE1A PUSH2 0xCC2 JUMP JUMPDEST JUMPDEST PUSH0 DUP3 ADD CALLDATALOAD PUSH8 0xFFFFFFFFFFFFFFFF DUP2 GT ISZERO PUSH2 0xE38 JUMPI PUSH2 0xE37 PUSH2 0xCC6 JUMP JUMPDEST JUMPDEST PUSH2 0xE44 DUP5 DUP3 DUP6 ADD PUSH2 0xDD9 JUMP JUMPDEST SWAP2 POP POP SWAP3 SWAP2 POP POP JUMP JUMPDEST PUSH0 PUSH20 0xFFFFFFFFFFFFFFFFFFFFFFFFFFFFFFFFFFFFFFFF DUP3 AND SWAP1 POP SWAP2 SWAP1 POP JUMP JUMPDEST PUSH0 PUSH2 0xE76 DUP3 PUSH2 0xE4D JUMP JUMPDEST SWAP1 POP SWAP2 SWAP1 POP JUMP JUMPDEST PUSH2 0xE86 DUP2 PUSH2 0xE6C JUMP JUMPDEST DUP2 EQ PUSH2 0xE90 JUMPI PUSH0 PUSH0 REVERT JUMPDEST POP JUMP JUMPDEST PUSH0 DUP2 CALLDATALOAD SWAP1 POP PUSH2 0xEA1 DUP2 PUSH2 0xE7D JUMP JUMPDEST SWAP3 SWAP2 POP POP JUMP JUMPDEST PUSH0 PUSH0 PUSH1 0x40 DUP4 DUP6 SUB SLT ISZERO PUSH2 0xEBD JUMPI PUSH2 0xEBC PUSH2 0xCC2 JUMP JUMPDEST JUMPDEST PUSH0 DUP4 ADD CALLDATALOAD PUSH8 0xFFFFFFFFFFFFFFFF DUP2 GT ISZERO PUSH2 0xEDA JUMPI PUSH2 0xED9 PUSH2 0xCC6 JUMP JUMPDEST JUMPDEST PUSH2 0xEE6 DUP6 DUP3 DUP7 ADD PUSH2 0xDD9 JUMP JUMPDEST SWAP3 POP POP PUSH1 0x20 PUSH2 0xEF7 DUP6 DUP3 DUP7 ADD PUSH2 0xE93 JUMP JUMPDEST SWAP2 POP POP SWAP3 POP SWAP3 SWAP1 POP JUMP JUMPDEST PUSH0 DUP2 MLOAD SWAP1 POP SWAP2 SWAP1 POP JUMP JUMPDEST PUSH0 DUP3 DUP3 MSTORE PUSH1 0x20 DUP3 ADD SWAP1 POP SWAP3 SWAP2 POP POP JUMP JUMPDEST DUP3 DUP2 DUP4 MCOPY PUSH0 DUP4 DUP4 ADD MSTORE POP POP POP JUMP JUMPDEST PUSH0 PUSH2 0xF33 DUP3 PUSH2 0xF01 JUMP JUMPDEST PUSH2 0xF3D DUP2 DUP6 PUSH2 0xF0B JUMP JUMPDEST SWAP4 POP PUSH2 0xF4D DUP2 DUP6 PUSH1 0x20 DUP7 ADD PUSH2 0xF1B JUMP JUMPDEST PUSH2 0xF56 DUP2 PUSH2 0xCD2 JUMP JUMPDEST DUP5 ADD SWAP2 POP POP SWAP3 SWAP2 POP POP JUMP JUMPDEST PUSH0 PUSH1 0x20 DUP3 ADD SWAP1 POP DUP2 DUP2 SUB PUSH0 DUP4 ADD MSTORE PUSH2 0xF79 DUP2 DUP5 PUSH2 0xF29 JUMP JUMPDEST SWAP1 POP SWAP3 SWAP2 POP POP JUMP JUMPDEST PUSH2 0xF8A DUP2 PUSH2 0xE6C JUMP JUMPDEST DUP3 MSTORE POP POP JUMP JUMPDEST PUSH0 PUSH1 0x20 DUP3 ADD SWAP1 POP PUSH2 0xFA3 PUSH0 DUP4 ADD DUP5 PUSH2 0xF81 JUMP JUMPDEST SWAP3 SWAP2 POP POP JUMP JUMPDEST PUSH0 DUP2 SWAP1 POP SWAP2 SWAP1 POP JUMP JUMPDEST PUSH2 0xFBB DUP2 PUSH2 0xFA9 JUMP JUMPDEST DUP3 MSTORE POP POP JUMP JUMPDEST PUSH0 PUSH1 0x20 DUP3 ADD SWAP1 POP PUSH2 0xFD4 PUSH0 DUP4 ADD DUP5 PUSH2 0xFB2 JUMP JUMPDEST SWAP3 SWAP2 POP POP JUMP JUMPDEST PUSH0 PUSH0 PUSH1 0x40 DUP4 DUP6 SUB SLT ISZERO PUSH2 0xFF0 JUMPI PUSH2 0xFEF PUSH2 0xCC2 JUMP JUMPDEST JUMPDEST PUSH0 DUP4 ADD CALLDATALOAD PUSH8 0xFFFFFFFFFFFFFFFF DUP2 GT ISZERO PUSH2 0x100D JUMPI PUSH2 0x100C PUSH2 0xCC6 JUMP JUMPDEST JUMPDEST PUSH2 0x1019 DUP6 DUP3 DUP7 ADD PUSH2 0xDD9 JUMP JUMPDEST SWAP3 POP POP PUSH1 0x20 DUP4 ADD CALLDATALOAD PUSH8 0xFFFFFFFFFFFFFFFF DUP2 GT ISZERO PUSH2 0x103A JUMPI PUSH2 0x1039 PUSH2 0xCC6 JUMP JUMPDEST JUMPDEST PUSH2 0x1046 DUP6 DUP3 DUP7 ADD PUSH2 0xDD9 JUMP JUMPDEST SWAP2 POP POP SWAP3 POP SWAP3 SWAP1 POP JUMP JUMPDEST PUSH0 PUSH1 0x60 DUP3 ADD SWAP1 POP PUSH2 0x1063 PUSH0 DUP4 ADD DUP7 PUSH2 0xF81 JUMP JUMPDEST PUSH2 0x1070 PUSH1 0x20 DUP4 ADD DUP6 PUSH2 0xF81 JUMP JUMPDEST DUP2 DUP2 SUB PUSH1 0x40 DUP4 ADD MSTORE PUSH2 0x1082 DUP2 DUP5 PUSH2 0xF29 JUMP JUMPDEST SWAP1 POP SWAP5 SWAP4 POP POP POP POP JUMP JUMPDEST PUSH0 PUSH0 PUSH0 PUSH1 0x60 DUP5 DUP7 SUB SLT ISZERO PUSH2 0x10A3 JUMPI PUSH2 0x10A2 PUSH2 0xCC2 JUMP JUMPDEST JUMPDEST PUSH0 DUP5 ADD CALLDATALOAD PUSH8 0xFFFFFFFFFFFFFFFF DUP2 GT ISZERO PUSH2 0x10C0 JUMPI PUSH2 0x10BF PUSH2 0xCC6 JUMP JUMPDEST JUMPDEST PUSH2 0x10CC DUP7 DUP3 DUP8 ADD PUSH2 0xDD9 JUMP JUMPDEST SWAP4 POP POP PUSH1 0x20 PUSH2 0x10DD DUP7 DUP3 DUP8 ADD PUSH2 0xE93 JUMP JUMPDEST SWAP3 POP POP PUSH1 0x40 DUP5 ADD CALLDATALOAD PUSH8 0xFFFFFFFFFFFFFFFF DUP2 GT ISZERO PUSH2 0x10FE JUMPI PUSH2 0x10FD PUSH2 0xCC6 JUMP JUMPDEST JUMPDEST PUSH2 0x110A DUP7 DUP3 DUP8 ADD PUSH2 0xDD9 JUMP JUMPDEST SWAP2 POP POP SWAP3 POP SWAP3 POP SWAP3 JUMP JUMPDEST PUSH0 DUP2 SWAP1 POP SWAP3 SWAP2 POP POP JUMP JUMPDEST PUSH0 PUSH2 0x1128 DUP3 PUSH2 0xF01 JUMP JUMPDEST PUSH2 0x1132 DUP2 DUP6 PUSH2 0x1114 JUMP JUMPDEST SWAP4 POP PUSH2 0x1142 DUP2 DUP6 PUSH1 0x20 DUP7 ADD PUSH2 0xF1B JUMP JUMPDEST DUP1 DUP5 ADD SWAP2 POP POP SWAP3 SWAP2 POP POP JUMP JUMPDEST PUSH0 PUSH2 0x1159 DUP3 DUP5 PUSH2 0x111E JUMP JUMPDEST SWAP2 POP DUP2 SWAP1 POP SWAP3 SWAP2 POP POP JUMP JUMPDEST PUSH32 0x4E6F7420636F6E7472616374206F776E65720000000000000000000000000000 PUSH0 DUP3 ADD MSTORE POP JUMP JUMPDEST PUSH0 PUSH2 0x1198 PUSH1 0x12 DUP4 PUSH2 0xF0B JUMP JUMPDEST SWAP2 POP PUSH2 0x11A3 DUP3 PUSH2 0x1164 JUMP JUMPDEST PUSH1 0x20 DUP3 ADD SWAP1 POP SWAP2 SWAP1 POP JUMP JUMPDEST PUSH0 PUSH1 0x20 DUP3 ADD SWAP1 POP DUP2 DUP2 SUB PUSH0 DUP4 ADD MSTORE PUSH2 0x11C5 DUP2 PUSH2 0x118C JUMP JUMPDEST SWAP1 POP SWAP2 SWAP1 POP JUMP JUMPDEST PUSH32 0x4E487B7100000000000000000000000000000000000000000000000000000000 PUSH0 MSTORE PUSH1 0x11 PUSH1 0x4 MSTORE PUSH1 0x24 PUSH0 REVERT JUMPDEST PUSH0 PUSH2 0x1203 DUP3 PUSH2 0xFA9 JUMP JUMPDEST SWAP2 POP PUSH2 0x120E DUP4 PUSH2 0xFA9 JUMP JUMPDEST SWAP3 POP DUP3 DUP3 SUB SWAP1 POP DUP2 DUP2 GT ISZERO PUSH2 0x1226 JUMPI PUSH2 0x1225 PUSH2 0x11CC JUMP JUMPDEST JUMPDEST SWAP3 SWAP2 POP POP JUMP JUMPDEST PUSH32 0x416464726573734368616E676564000000000000000000000000000000000000 PUSH0 DUP3 ADD MSTORE POP JUMP JUMPDEST PUSH0 PUSH2 0x1260 PUSH1 0xE DUP4 PUSH2 0xF0B JUMP JUMPDEST SWAP2 POP PUSH2 0x126B DUP3 PUSH2 0x122C JUMP JUMPDEST PUSH1 0x20 DUP3 ADD SWAP1 POP SWAP2 SWAP1 POP JUMP JUMPDEST PUSH0 PUSH1 0x20 DUP3 ADD SWAP1 POP DUP2 DUP2 SUB PUSH0 DUP4 ADD MSTORE PUSH2 0x128D DUP2 PUSH2 0x1254 JUMP JUMPDEST SWAP1 POP SWAP2 SWAP1 POP JUMP JUMPDEST PUSH32 0x4E487B7100000000000000000000000000000000000000000000000000000000 PUSH0 MSTORE PUSH1 0x22 PUSH1 0x4 MSTORE PUSH1 0x24 PUSH0 REVERT JUMPDEST PUSH0 PUSH1 0x2 DUP3 DIV SWAP1 POP PUSH1 0x1 DUP3 AND DUP1 PUSH2 0x12D8 JUMPI PUSH1 0x7F DUP3 AND SWAP2 POP JUMPDEST PUSH1 0x20 DUP3 LT DUP2 SUB PUSH2 0x12EB JUMPI PUSH2 0x12EA PUSH2 0x1294 JUMP JUMPDEST JUMPDEST POP SWAP2 SWAP1 POP JUMP JUMPDEST PUSH0 DUP2 SWAP1 POP DUP2 PUSH0 MSTORE PUSH1 0x20 PUSH0 KECCAK256 SWAP1 POP SWAP2 SWAP1 POP JUMP JUMPDEST PUSH0 PUSH1 0x20 PUSH1 0x1F DUP4 ADD DIV SWAP1 POP SWAP2 SWAP1 POP JUMP JUMPDEST PUSH0 DUP3 DUP3 SHL SWAP1 POP SWAP3 SWAP2 POP POP JUMP JUMPDEST PUSH0 PUSH1 0x8 DUP4 MUL PUSH2 0x134D PUSH32 0xFFFFFFFFFFFFFFFFFFFFFFFFFFFFFFFFFFFFFFFFFFFFFFFFFFFFFFFFFFFFFFFF DUP3 PUSH2 0x1312 JUMP JUMPDEST PUSH2 0x1357 DUP7 DUP4 PUSH2 0x1312 JUMP JUMPDEST SWAP6 POP DUP1 NOT DUP5 AND SWAP4 POP DUP1 DUP7 AND DUP5 OR SWAP3 POP POP POP SWAP4 SWAP3 POP POP POP JUMP JUMPDEST PUSH0 DUP2 SWAP1 POP SWAP2 SWAP1 POP JUMP JUMPDEST PUSH0 PUSH2 0x1392 PUSH2 0x138D PUSH2 0x1388 DUP5 PUSH2 0xFA9 JUMP JUMPDEST PUSH2 0x136F JUMP JUMPDEST PUSH2 0xFA9 JUMP JUMPDEST SWAP1 POP SWAP2 SWAP1 POP JUMP JUMPDEST PUSH0 DUP2 SWAP1 POP SWAP2 SWAP1 POP JUMP JUMPDEST PUSH2 0x13AB DUP4 PUSH2 0x1378 JUMP JUMPDEST PUSH2 0x13BF PUSH2 0x13B7 DUP3 PUSH2 0x1399 JUMP JUMPDEST DUP5 DUP5 SLOAD PUSH2 0x131E JUMP JUMPDEST DUP3 SSTORE POP POP POP POP JUMP JUMPDEST PUSH0 PUSH0 SWAP1 POP SWAP1 JUMP JUMPDEST PUSH2 0x13D6 PUSH2 0x13C7 JUMP JUMPDEST PUSH2 0x13E1 DUP2 DUP5 DUP5 PUSH2 0x13A2 JUMP JUMPDEST POP POP POP JUMP JUMPDEST PUSH0 JUMPDEST DUP3 DUP2 LT ISZERO PUSH2 0x1407 JUMPI PUSH2 0x13FC PUSH0 DUP3 DUP5 ADD PUSH2 0x13CE JUMP JUMPDEST PUSH1 0x1 DUP2 ADD SWAP1 POP PUSH2 0x13E8 JUMP JUMPDEST POP POP POP JUMP JUMPDEST PUSH1 0x1F DUP3 GT ISZERO PUSH2 0x145A JUMPI DUP3 DUP3 GT ISZERO PUSH2 0x1459 JUMPI PUSH2 0x1426 DUP2 PUSH2 0x12F1 JUMP JUMPDEST PUSH2 0x142F DUP4 PUSH2 0x1303 JUMP JUMPDEST PUSH2 0x1438 DUP6 PUSH2 0x1303 JUMP JUMPDEST PUSH1 0x20 DUP7 LT ISZERO PUSH2 0x1445 JUMPI PUSH0 SWAP1 POP JUMPDEST DUP1 DUP4 ADD PUSH2 0x1454 DUP3 DUP5 SUB DUP3 PUSH2 0x13E6 JUMP JUMPDEST POP POP POP POP JUMPDEST JUMPDEST POP POP POP JUMP JUMPDEST PUSH0 DUP3 DUP3 SHR SWAP1 POP SWAP3 SWAP2 POP POP JUMP JUMPDEST PUSH0 PUSH2 0x147A PUSH0 NOT DUP5 PUSH1 0x8 MUL PUSH2 0x145F JUMP JUMPDEST NOT DUP1 DUP4 AND SWAP2 POP POP SWAP3 SWAP2 POP POP JUMP JUMPDEST PUSH0 PUSH2 0x1492 DUP4 DUP4 PUSH2 0x146B JUMP JUMPDEST SWAP2 POP DUP3 PUSH1 0x2 MUL DUP3 OR SWAP1 POP SWAP3 SWAP2 POP POP JUMP JUMPDEST PUSH2 0x14AB DUP3 PUSH2 0xF01 JUMP JUMPDEST PUSH8 0xFFFFFFFFFFFFFFFF DUP2 GT ISZERO PUSH2 0x14C4 JUMPI PUSH2 0x14C3 PUSH2 0xCE2 JUMP JUMPDEST JUMPDEST PUSH2 0x14CE DUP3 SLOAD PUSH2 0x12C1 JUMP JUMPDEST PUSH2 0x14D9 DUP3 DUP3 DUP6 PUSH2 0x140C JUMP JUMPDEST PUSH0 PUSH1 0x20 SWAP1 POP PUSH1 0x1F DUP4 GT PUSH1 0x1 DUP2 EQ PUSH2 0x150A JUMPI PUSH0 DUP5 ISZERO PUSH2 0x14F8 JUMPI DUP3 DUP8 ADD MLOAD SWAP1 POP JUMPDEST PUSH2 0x1502 DUP6 DUP3 PUSH2 0x1487 JUMP JUMPDEST DUP7 SSTORE POP PUSH2 0x1569 JUMP JUMPDEST PUSH1 0x1F NOT DUP5 AND PUSH2 0x1518 DUP7 PUSH2 0x12F1 JUMP JUMPDEST PUSH0 JUMPDEST DUP3 DUP2 LT ISZERO PUSH2 0x153F JUMPI DUP5 DUP10 ADD MLOAD DUP3 SSTORE PUSH1 0x1 DUP3 ADD SWAP2 POP PUSH1 0x20 DUP6 ADD SWAP5 POP PUSH1 0x20 DUP2 ADD SWAP1 POP PUSH2 0x151A JUMP JUMPDEST DUP7 DUP4 LT ISZERO PUSH2 0x155C JUMPI DUP5 DUP10 ADD MLOAD PUSH2 0x1558 PUSH1 0x1F DUP10 AND DUP3 PUSH2 0x146B JUMP JUMPDEST DUP4 SSTORE POP JUMPDEST PUSH1 0x1 PUSH1 0x2 DUP9 MUL ADD DUP9 SSTORE POP POP POP JUMPDEST POP POP POP POP POP POP JUMP JUMPDEST PUSH32 0x4465736372697074696F6E4368616E6765640000000000000000000000000000 PUSH0 DUP3 ADD MSTORE POP JUMP JUMPDEST PUSH0 PUSH2 0x15A5 PUSH1 0x12 DUP4 PUSH2 0xF0B JUMP JUMPDEST SWAP2 POP PUSH2 0x15B0 DUP3 PUSH2 0x1571 JUMP JUMPDEST PUSH1 0x20 DUP3 ADD SWAP1 POP SWAP2 SWAP1 POP JUMP JUMPDEST PUSH0 PUSH1 0x20 DUP3 ADD SWAP1 POP DUP2 DUP2 SUB PUSH0 DUP4 ADD MSTORE PUSH2 0x15D2 DUP2 PUSH2 0x1599 JUMP JUMPDEST SWAP1 POP SWAP2 SWAP1 POP JUMP JUMPDEST PUSH32 0x4E616D6520616C72656164792072656769737465726564000000000000000000 PUSH0 DUP3 ADD MSTORE POP JUMP JUMPDEST PUSH0 PUSH2 0x160D PUSH1 0x17 DUP4 PUSH2 0xF0B JUMP JUMPDEST SWAP2 POP PUSH2 0x1618 DUP3 PUSH2 0x15D9 JUMP JUMPDEST PUSH1 0x20 DUP3 ADD SWAP1 POP SWAP2 SWAP1 POP JUMP JUMPDEST PUSH0 PUSH1 0x20 DUP3 ADD SWAP1 POP DUP2 DUP2 SUB PUSH0 DUP4 ADD MSTORE PUSH2 0x163A DUP2 PUSH2 0x1601 JUMP JUMPDEST SWAP1 POP SWAP2 SWAP1 POP JUMP JUMPDEST PUSH0 PUSH2 0x164B DUP3 PUSH2 0xFA9 JUMP JUMPDEST SWAP2 POP PUSH2 0x1656 DUP4 PUSH2 0xFA9 JUMP JUMPDEST SWAP3 POP DUP3 DUP3 ADD SWAP1 POP DUP1 DUP3 GT ISZERO PUSH2 0x166E JUMPI PUSH2 0x166D PUSH2 0x11CC JUMP JUMPDEST JUMPDEST SWAP3 SWAP2 POP POP JUMP JUMPDEST PUSH0 PUSH1 0x40 DUP3 ADD SWAP1 POP PUSH2 0x1687 PUSH0 DUP4 ADD DUP6 PUSH2 0xF81 JUMP JUMPDEST DUP2 DUP2 SUB PUSH1 0x20 DUP4 ADD MSTORE PUSH2 0x1699 DUP2 DUP5 PUSH2 0xF29 JUMP JUMPDEST SWAP1 POP SWAP4 SWAP3 POP POP POP JUMP JUMPDEST PUSH32 0x4F776E65724368616E6765640000000000000000000000000000000000000000 PUSH0 DUP3 ADD MSTORE POP JUMP JUMPDEST PUSH0 PUSH2 0x16D6 PUSH1 0xC DUP4 PUSH2 0xF0B JUMP JUMPDEST SWAP2 POP PUSH2 0x16E1 DUP3 PUSH2 0x16A2 JUMP JUMPDEST PUSH1 0x20 DUP3 ADD SWAP1 POP SWAP2 SWAP1 POP JUMP JUMPDEST PUSH0 PUSH1 0x20 DUP3 ADD SWAP1 POP DUP2 DUP2 SUB PUSH0 DUP4 ADD MSTORE PUSH2 0x1703 DUP2 PUSH2 0x16CA JUMP JUMPDEST SWAP1 POP SWAP2 SWAP1 POP JUMP INVALID LOG2 PUSH5 0x6970667358 0x22 SLT KECCAK256 SLOAD MSIZE CODECOPY 0xF7 0xD5 0xEA DIV SMOD 0xE2 0x4E CALLCODE DUP16 DUP3 DUP2 MOD 0xAA EOFCREATE 0x5D 0xF6 EXTCODESIZE LOG1 GT BLOBHASH 0xCB SELFDESTRUCT DELEGATECALL GAS DUP4 MLOAD BYTE DUP14 SHL PUSH5 0x736F6C6343 STOP ADDMOD KECCAK256 STOP CALLER "
				},
				"gasEstimates": {
					"creation": {
						"codeDepositCost": "1190400",
						"executionCost": "6244",
						"totalCost": "1196644"
					},
					"external": {
						"changeOwner(string,address)": "infinite",
						"getAddr(string)": "infinite",
						"getDescription(string)": "infinite",
						"getOwner(string)": "infinite",
						"numContracts()": "2513",
						"registerContract(string,address,string)": "infinite",
						"registeredContracts(string)": "infinite",
						"setAddr(string,address)": "infinite",
						"setDescription(string,string)": "infinite",
						"unregisterContract(string)": "infinite"
					}
				},
				"methodIdentifiers": {
					"changeOwner(string,address)": "d8f9d144",
					"getAddr(string)": "d502db97",
					"getDescription(string)": "45de2ca0",
					"getOwner(string)": "4aaf4a12",
					"numContracts()": "524d81d3",
					"registerContract(string,address,string)": "a738e975",
					"registeredContracts(string)": "98fd3835",
					"setAddr(string,address)": "213b9eb8",
					"setDescription(string,string)": "6755d456",
					"unregisterContract(string)": "035e7709"
				}
			},
			"storageLayout": {
				"storage": [
					{
						"astId": 10,
						"contract": "과제2/NameRegistry.sol:NameRegistry",
						"label": "numContracts",
						"offset": 0,
						"slot": "0",
						"type": "t_uint256"
					},
					{
						"astId": 15,
						"contract": "과제2/NameRegistry.sol:NameRegistry",
						"label": "registeredContracts",
						"offset": 0,
						"slot": "1",
						"type": "t_mapping(t_string_memory_ptr,t_struct(ContractInfo)8_storage)"
					}
				],
				"types": {
					"t_address": {
						"encoding": "inplace",
						"label": "address",
						"numberOfBytes": "20"
					},
					"t_mapping(t_string_memory_ptr,t_struct(ContractInfo)8_storage)": {
						"encoding": "mapping",
						"key": "t_string_memory_ptr",
						"label": "mapping(string => struct NameRegistry.ContractInfo)",
						"numberOfBytes": "32",
						"value": "t_struct(ContractInfo)8_storage"
					},
					"t_string_memory_ptr": {
						"encoding": "bytes",
						"label": "string",
						"numberOfBytes": "32"
					},
					"t_string_storage": {
						"encoding": "bytes",
						"label": "string",
						"numberOfBytes": "32"
					},
					"t_struct(ContractInfo)8_storage": {
						"encoding": "inplace",
						"label": "struct NameRegistry.ContractInfo",
						"members": [
							{
								"astId": 3,
								"contract": "과제2/NameRegistry.sol:NameRegistry",
								"label": "contractOwner",
								"offset": 0,
								"slot": "0",
								"type": "t_address"
							},
							{
								"astId": 5,
								"contract": "과제2/NameRegistry.sol:NameRegistry",
								"label": "contractAddress",
								"offset": 0,
								"slot": "1",
								"type": "t_address"
							},
							{
								"astId": 7,
								"contract": "과제2/NameRegistry.sol:NameRegistry",
								"label": "description",
								"offset": 0,
								"slot": "2",
								"type": "t_string_storage"
							}
						],
						"numberOfBytes": "96"
					},
					"t_uint256": {
						"encoding": "inplace",
						"label": "uint256",
						"numberOfBytes": "32"
					}
				}
			},
			"userdoc": {
				"kind": "user",
				"methods": {},
				"version": 1
			}
		}
	}
}