{
	"reserve_hotel.sol": {
		"HotelRoom": {
			"abi": [
				{
					"inputs": [],
					"stateMutability": "nonpayable",
					"type": "constructor"
				},
				{
					"anonymous": false,
					"inputs": [
						{
							"indexed": true,
							"internalType": "address",
							"name": "reserver",
							"type": "address"
						},
						{
							"indexed": false,
							"internalType": "uint256",
							"name": "amount",
							"type": "uint256"
						}
					],
					"name": "Reserved",
					"type": "event"
				},
				{
					"inputs": [],
					"name": "MIN_RESERVATION_FEE",
					"outputs": [
						{
							"internalType": "uint256",
							"name": "",
							"type": "uint256"
						}
					],
					"stateMutability": "view",
					"type": "function"
				},
				{
					"inputs": [],
					"name": "book",
					"outputs": [],
					"stateMutability": "payable",
					"type": "function"
				},
				{
					"inputs": [],
					"name": "owner",
					"outputs": [
						{
							"internalType": "address",
							"name": "",
							"type": "address"
						}
					],
					"stateMutability": "view",
					"type": "function"
				},
				{
					"inputs": [],
					"name": "reset",
					"outputs": [],
					"stateMutability": "nonpayable",
					"type": "function"
				},
				{
					"inputs": [],
					"name": "roomStatus",
					"outputs": [
						{
							"internalType": "enum HotelRoom.status",
							"name": "",
							"type": "uint8"
						}
					],
					"stateMutability": "view",
					"type": "function"
				}
			],
			"devdoc": {
				"kind": "dev",
				"methods": {},
				"version": 1
			},
			"evm": {
				"assembly": "    /* \"reserve_hotel.sol\":61:1061  contract HotelRoom... */\n  mstore(0x40, 0x80)\n    /* \"reserve_hotel.sol\":319:414  constructor()... */\n  callvalue\n  dup1\n  iszero\n  tag_1\n  jumpi\n  revert(0x00, 0x00)\ntag_1:\n  pop\n    /* \"reserve_hotel.sol\":359:369  msg.sender */\n  caller\n    /* \"reserve_hotel.sol\":351:356  owner */\n  0x00\n  0x00\n    /* \"reserve_hotel.sol\":351:369  owner = msg.sender */\n  0x0100\n  exp\n  dup2\n  sload\n  dup2\n  0xffffffffffffffffffffffffffffffffffffffff\n  mul\n  not\n  and\n  swap1\n  dup4\n  0xffffffffffffffffffffffffffffffffffffffff\n  and\n  mul\n  or\n  swap1\n  sstore\n  pop\n    /* \"reserve_hotel.sol\":393:406  status.Vacant */\n  0x00\n    /* \"reserve_hotel.sol\":380:390  roomStatus */\n  0x00\n  0x14\n    /* \"reserve_hotel.sol\":380:406  roomStatus = status.Vacant */\n  0x0100\n  exp\n  dup2\n  sload\n  dup2\n  0xff\n  mul\n  not\n  and\n  swap1\n  dup4\n  0x01\n  dup2\n  gt\n  iszero\n  tag_4\n  jumpi\n  tag_5\n  tag_6\n  jump\t// in\ntag_5:\ntag_4:\n  mul\n  or\n  swap1\n  sstore\n  pop\n    /* \"reserve_hotel.sol\":61:1061  contract HotelRoom... */\n  jump(tag_7)\n    /* \"#utility.yul\":7:187   */\ntag_6:\n    /* \"#utility.yul\":55:132   */\n  0x4e487b7100000000000000000000000000000000000000000000000000000000\n    /* \"#utility.yul\":52:53   */\n  0x00\n    /* \"#utility.yul\":45:133   */\n  mstore\n    /* \"#utility.yul\":152:156   */\n  0x21\n    /* \"#utility.yul\":149:150   */\n  0x04\n    /* \"#utility.yul\":142:157   */\n  mstore\n    /* \"#utility.yul\":176:180   */\n  0x24\n    /* \"#utility.yul\":173:174   */\n  0x00\n    /* \"#utility.yul\":166:181   */\n  revert\n    /* \"reserve_hotel.sol\":61:1061  contract HotelRoom... */\ntag_7:\n  dataSize(sub_0)\n  dup1\n  dataOffset(sub_0)\n  0x00\n  codecopy\n  0x00\n  return\nstop\n\nsub_0: assembly {\n        /* \"reserve_hotel.sol\":61:1061  contract HotelRoom... */\n      mstore(0x40, 0x80)\n      jumpi(tag_1, lt(calldatasize, 0x04))\n      shr(0xe0, calldataload(0x00))\n      dup1\n      0x05a8da72\n      eq\n      tag_2\n      jumpi\n      dup1\n      0x8da5cb5b\n      eq\n      tag_3\n      jumpi\n      dup1\n      0x92955e28\n      eq\n      tag_4\n      jumpi\n      dup1\n      0xd826f88f\n      eq\n      tag_5\n      jumpi\n      dup1\n      0xe2e063e8\n      eq\n      tag_6\n      jumpi\n    tag_1:\n      revert(0x00, 0x00)\n        /* \"reserve_hotel.sol\":804:965  function book () public payable onlyWhileVacant cost(msg.value)... */\n    tag_2:\n      tag_7\n      tag_8\n      jump\t// in\n    tag_7:\n      stop\n        /* \"reserve_hotel.sol\":192:212  address public owner */\n    tag_3:\n      callvalue\n      dup1\n      iszero\n      tag_9\n      jumpi\n      revert(0x00, 0x00)\n    tag_9:\n      pop\n      tag_10\n      tag_11\n      jump\t// in\n    tag_10:\n      mload(0x40)\n      tag_12\n      swap2\n      swap1\n      tag_13\n      jump\t// in\n    tag_12:\n      mload(0x40)\n      dup1\n      swap2\n      sub\n      swap1\n      return\n        /* \"reserve_hotel.sol\":250:304  uint256 public constant MIN_RESERVATION_FEE = 10 ether */\n    tag_4:\n      callvalue\n      dup1\n      iszero\n      tag_14\n      jumpi\n      revert(0x00, 0x00)\n    tag_14:\n      pop\n      tag_15\n      tag_16\n      jump\t// in\n    tag_15:\n      mload(0x40)\n      tag_17\n      swap2\n      swap1\n      tag_18\n      jump\t// in\n    tag_17:\n      mload(0x40)\n      dup1\n      swap2\n      sub\n      swap1\n      return\n        /* \"reserve_hotel.sol\":973:1058  function reset () public onlyOwner... */\n    tag_5:\n      callvalue\n      dup1\n      iszero\n      tag_19\n      jumpi\n      revert(0x00, 0x00)\n    tag_19:\n      pop\n      tag_20\n      tag_21\n      jump\t// in\n    tag_20:\n      stop\n        /* \"reserve_hotel.sol\":219:243  status public roomStatus */\n    tag_6:\n      callvalue\n      dup1\n      iszero\n      tag_22\n      jumpi\n      revert(0x00, 0x00)\n    tag_22:\n      pop\n      tag_23\n      tag_24\n      jump\t// in\n    tag_23:\n      mload(0x40)\n      tag_25\n      swap2\n      swap1\n      tag_26\n      jump\t// in\n    tag_25:\n      mload(0x40)\n      dup1\n      swap2\n      sub\n      swap1\n      return\n        /* \"reserve_hotel.sol\":804:965  function book () public payable onlyWhileVacant cost(msg.value)... */\n    tag_8:\n        /* \"reserve_hotel.sol\":487:500  status.Vacant */\n      0x00\n        /* \"reserve_hotel.sol\":473:500  roomStatus == status.Vacant */\n      0x01\n      dup2\n      gt\n      iszero\n      tag_28\n      jumpi\n      tag_29\n      tag_30\n      jump\t// in\n    tag_29:\n    tag_28:\n        /* \"reserve_hotel.sol\":473:483  roomStatus */\n      0x00\n      0x14\n      swap1\n      sload\n      swap1\n      0x0100\n      exp\n      swap1\n      div\n      0xff\n      and\n        /* \"reserve_hotel.sol\":473:500  roomStatus == status.Vacant */\n      0x01\n      dup2\n      gt\n      iszero\n      tag_31\n      jumpi\n      tag_32\n      tag_30\n      jump\t// in\n    tag_32:\n    tag_31:\n      eq\n        /* \"reserve_hotel.sol\":465:523  require(roomStatus == status.Vacant, \"currently occupied\") */\n      tag_33\n      jumpi\n      mload(0x40)\n      0x08c379a000000000000000000000000000000000000000000000000000000000\n      dup2\n      mstore\n      0x04\n      add\n      tag_34\n      swap1\n      tag_35\n      jump\t// in\n    tag_34:\n      mload(0x40)\n      dup1\n      swap2\n      sub\n      swap1\n      revert\n    tag_33:\n        /* \"reserve_hotel.sol\":857:866  msg.value */\n      callvalue\n        /* \"reserve_hotel.sol\":296:304  10 ether */\n      0x8ac7230489e80000\n        /* \"reserve_hotel.sol\":603:610  _amount */\n      dup2\n        /* \"reserve_hotel.sol\":603:632  _amount > MIN_RESERVATION_FEE */\n      gt\n        /* \"reserve_hotel.sol\":595:662  require(_amount > MIN_RESERVATION_FEE, \"Not enough ether provided\") */\n      tag_37\n      jumpi\n      mload(0x40)\n      0x08c379a000000000000000000000000000000000000000000000000000000000\n      dup2\n      mstore\n      0x04\n      add\n      tag_38\n      swap1\n      tag_39\n      jump\t// in\n    tag_38:\n      mload(0x40)\n      dup1\n      swap2\n      sub\n      swap1\n      revert\n    tag_37:\n        /* \"reserve_hotel.sol\":897:912  status.Occupied */\n      0x01\n        /* \"reserve_hotel.sol\":884:894  roomStatus */\n      0x00\n      0x14\n        /* \"reserve_hotel.sol\":884:912  roomStatus = status.Occupied */\n      0x0100\n      exp\n      dup2\n      sload\n      dup2\n      0xff\n      mul\n      not\n      and\n      swap1\n      dup4\n      0x01\n      dup2\n      gt\n      iszero\n      tag_41\n      jumpi\n      tag_42\n      tag_30\n      jump\t// in\n    tag_42:\n    tag_41:\n      mul\n      or\n      swap1\n      sstore\n      pop\n        /* \"reserve_hotel.sol\":931:936  owner */\n      0x00\n      0x00\n      swap1\n      sload\n      swap1\n      0x0100\n      exp\n      swap1\n      div\n      0xffffffffffffffffffffffffffffffffffffffff\n      and\n        /* \"reserve_hotel.sol\":923:946  payable(owner).transfer */\n      0xffffffffffffffffffffffffffffffffffffffff\n      and\n        /* \"reserve_hotel.sol\":923:957  payable(owner).transfer(msg.value) */\n      0x08fc\n        /* \"reserve_hotel.sol\":947:956  msg.value */\n      callvalue\n        /* \"reserve_hotel.sol\":923:957  payable(owner).transfer(msg.value) */\n      swap1\n      dup2\n      iszero\n      mul\n      swap1\n      mload(0x40)\n      0x00\n      mload(0x40)\n      dup1\n      dup4\n      sub\n      dup2\n      dup6\n      dup9\n      dup9\n      call\n      swap4\n      pop\n      pop\n      pop\n      pop\n      iszero\n      dup1\n      iszero\n      tag_44\n      jumpi\n      returndatacopy(0x00, 0x00, returndatasize)\n      revert(0x00, returndatasize)\n    tag_44:\n      pop\n        /* \"reserve_hotel.sol\":534:535  _ */\n      pop\n        /* \"reserve_hotel.sol\":804:965  function book () public payable onlyWhileVacant cost(msg.value)... */\n      jump\t// out\n        /* \"reserve_hotel.sol\":192:212  address public owner */\n    tag_11:\n      0x00\n      0x00\n      swap1\n      sload\n      swap1\n      0x0100\n      exp\n      swap1\n      div\n      0xffffffffffffffffffffffffffffffffffffffff\n      and\n      dup2\n      jump\t// out\n        /* \"reserve_hotel.sol\":250:304  uint256 public constant MIN_RESERVATION_FEE = 10 ether */\n    tag_16:\n        /* \"reserve_hotel.sol\":296:304  10 ether */\n      0x8ac7230489e80000\n        /* \"reserve_hotel.sol\":250:304  uint256 public constant MIN_RESERVATION_FEE = 10 ether */\n      dup2\n      jump\t// out\n        /* \"reserve_hotel.sol\":973:1058  function reset () public onlyOwner... */\n    tag_21:\n        /* \"reserve_hotel.sol\":749:754  owner */\n      0x00\n      0x00\n      swap1\n      sload\n      swap1\n      0x0100\n      exp\n      swap1\n      div\n      0xffffffffffffffffffffffffffffffffffffffff\n      and\n        /* \"reserve_hotel.sol\":735:754  msg.sender == owner */\n      0xffffffffffffffffffffffffffffffffffffffff\n      and\n        /* \"reserve_hotel.sol\":735:745  msg.sender */\n      caller\n        /* \"reserve_hotel.sol\":735:754  msg.sender == owner */\n      0xffffffffffffffffffffffffffffffffffffffff\n      and\n      eq\n        /* \"reserve_hotel.sol\":727:776  require(msg.sender == owner, \"Only owner can do\") */\n      tag_46\n      jumpi\n      mload(0x40)\n      0x08c379a000000000000000000000000000000000000000000000000000000000\n      dup2\n      mstore\n      0x04\n      add\n      tag_47\n      swap1\n      tag_48\n      jump\t// in\n    tag_47:\n      mload(0x40)\n      dup1\n      swap2\n      sub\n      swap1\n      revert\n    tag_46:\n        /* \"reserve_hotel.sol\":1037:1050  status.Vacant */\n      0x00\n        /* \"reserve_hotel.sol\":1024:1034  roomStatus */\n      0x00\n      0x14\n        /* \"reserve_hotel.sol\":1024:1050  roomStatus = status.Vacant */\n      0x0100\n      exp\n      dup2\n      sload\n      dup2\n      0xff\n      mul\n      not\n      and\n      swap1\n      dup4\n      0x01\n      dup2\n      gt\n      iszero\n      tag_50\n      jumpi\n      tag_51\n      tag_30\n      jump\t// in\n    tag_51:\n    tag_50:\n      mul\n      or\n      swap1\n      sstore\n      pop\n        /* \"reserve_hotel.sol\":973:1058  function reset () public onlyOwner... */\n      jump\t// out\n        /* \"reserve_hotel.sol\":219:243  status public roomStatus */\n    tag_24:\n      0x00\n      0x14\n      swap1\n      sload\n      swap1\n      0x0100\n      exp\n      swap1\n      div\n      0xff\n      and\n      dup2\n      jump\t// out\n        /* \"#utility.yul\":7:133   */\n    tag_52:\n        /* \"#utility.yul\":44:51   */\n      0x00\n        /* \"#utility.yul\":84:126   */\n      0xffffffffffffffffffffffffffffffffffffffff\n        /* \"#utility.yul\":77:82   */\n      dup3\n        /* \"#utility.yul\":73:127   */\n      and\n        /* \"#utility.yul\":62:127   */\n      swap1\n      pop\n        /* \"#utility.yul\":7:133   */\n      swap2\n      swap1\n      pop\n      jump\t// out\n        /* \"#utility.yul\":139:235   */\n    tag_53:\n        /* \"#utility.yul\":176:183   */\n      0x00\n        /* \"#utility.yul\":205:229   */\n      tag_71\n        /* \"#utility.yul\":223:228   */\n      dup3\n        /* \"#utility.yul\":205:229   */\n      tag_52\n      jump\t// in\n    tag_71:\n        /* \"#utility.yul\":194:229   */\n      swap1\n      pop\n        /* \"#utility.yul\":139:235   */\n      swap2\n      swap1\n      pop\n      jump\t// out\n        /* \"#utility.yul\":241:359   */\n    tag_54:\n        /* \"#utility.yul\":328:352   */\n      tag_73\n        /* \"#utility.yul\":346:351   */\n      dup2\n        /* \"#utility.yul\":328:352   */\n      tag_53\n      jump\t// in\n    tag_73:\n        /* \"#utility.yul\":323:326   */\n      dup3\n        /* \"#utility.yul\":316:353   */\n      mstore\n        /* \"#utility.yul\":241:359   */\n      pop\n      pop\n      jump\t// out\n        /* \"#utility.yul\":365:587   */\n    tag_13:\n        /* \"#utility.yul\":458:462   */\n      0x00\n        /* \"#utility.yul\":496:498   */\n      0x20\n        /* \"#utility.yul\":485:494   */\n      dup3\n        /* \"#utility.yul\":481:499   */\n      add\n        /* \"#utility.yul\":473:499   */\n      swap1\n      pop\n        /* \"#utility.yul\":509:580   */\n      tag_75\n        /* \"#utility.yul\":577:578   */\n      0x00\n        /* \"#utility.yul\":566:575   */\n      dup4\n        /* \"#utility.yul\":562:579   */\n      add\n        /* \"#utility.yul\":553:559   */\n      dup5\n        /* \"#utility.yul\":509:580   */\n      tag_54\n      jump\t// in\n    tag_75:\n        /* \"#utility.yul\":365:587   */\n      swap3\n      swap2\n      pop\n      pop\n      jump\t// out\n        /* \"#utility.yul\":593:670   */\n    tag_55:\n        /* \"#utility.yul\":630:637   */\n      0x00\n        /* \"#utility.yul\":659:664   */\n      dup2\n        /* \"#utility.yul\":648:664   */\n      swap1\n      pop\n        /* \"#utility.yul\":593:670   */\n      swap2\n      swap1\n      pop\n      jump\t// out\n        /* \"#utility.yul\":676:794   */\n    tag_56:\n        /* \"#utility.yul\":763:787   */\n      tag_78\n        /* \"#utility.yul\":781:786   */\n      dup2\n        /* \"#utility.yul\":763:787   */\n      tag_55\n      jump\t// in\n    tag_78:\n        /* \"#utility.yul\":758:761   */\n      dup3\n        /* \"#utility.yul\":751:788   */\n      mstore\n        /* \"#utility.yul\":676:794   */\n      pop\n      pop\n      jump\t// out\n        /* \"#utility.yul\":800:1022   */\n    tag_18:\n        /* \"#utility.yul\":893:897   */\n      0x00\n        /* \"#utility.yul\":931:933   */\n      0x20\n        /* \"#utility.yul\":920:929   */\n      dup3\n        /* \"#utility.yul\":916:934   */\n      add\n        /* \"#utility.yul\":908:934   */\n      swap1\n      pop\n        /* \"#utility.yul\":944:1015   */\n      tag_80\n        /* \"#utility.yul\":1012:1013   */\n      0x00\n        /* \"#utility.yul\":1001:1010   */\n      dup4\n        /* \"#utility.yul\":997:1014   */\n      add\n        /* \"#utility.yul\":988:994   */\n      dup5\n        /* \"#utility.yul\":944:1015   */\n      tag_56\n      jump\t// in\n    tag_80:\n        /* \"#utility.yul\":800:1022   */\n      swap3\n      swap2\n      pop\n      pop\n      jump\t// out\n        /* \"#utility.yul\":1028:1208   */\n    tag_30:\n        /* \"#utility.yul\":1076:1153   */\n      0x4e487b7100000000000000000000000000000000000000000000000000000000\n        /* \"#utility.yul\":1073:1074   */\n      0x00\n        /* \"#utility.yul\":1066:1154   */\n      mstore\n        /* \"#utility.yul\":1173:1177   */\n      0x21\n        /* \"#utility.yul\":1170:1171   */\n      0x04\n        /* \"#utility.yul\":1163:1178   */\n      mstore\n        /* \"#utility.yul\":1197:1201   */\n      0x24\n        /* \"#utility.yul\":1194:1195   */\n      0x00\n        /* \"#utility.yul\":1187:1202   */\n      revert\n        /* \"#utility.yul\":1214:1327   */\n    tag_57:\n        /* \"#utility.yul\":1295:1296   */\n      0x02\n        /* \"#utility.yul\":1288:1293   */\n      dup2\n        /* \"#utility.yul\":1285:1297   */\n      lt\n        /* \"#utility.yul\":1275:1321   */\n      tag_83\n      jumpi\n        /* \"#utility.yul\":1301:1319   */\n      tag_84\n      tag_30\n      jump\t// in\n    tag_84:\n        /* \"#utility.yul\":1275:1321   */\n    tag_83:\n        /* \"#utility.yul\":1214:1327   */\n      pop\n      jump\t// out\n        /* \"#utility.yul\":1333:1460   */\n    tag_58:\n        /* \"#utility.yul\":1378:1385   */\n      0x00\n        /* \"#utility.yul\":1407:1412   */\n      dup2\n        /* \"#utility.yul\":1396:1412   */\n      swap1\n      pop\n        /* \"#utility.yul\":1413:1454   */\n      tag_86\n        /* \"#utility.yul\":1448:1453   */\n      dup3\n        /* \"#utility.yul\":1413:1454   */\n      tag_57\n      jump\t// in\n    tag_86:\n        /* \"#utility.yul\":1333:1460   */\n      swap2\n      swap1\n      pop\n      jump\t// out\n        /* \"#utility.yul\":1466:1593   */\n    tag_59:\n        /* \"#utility.yul\":1522:1531   */\n      0x00\n        /* \"#utility.yul\":1555:1587   */\n      tag_88\n        /* \"#utility.yul\":1581:1586   */\n      dup3\n        /* \"#utility.yul\":1555:1587   */\n      tag_58\n      jump\t// in\n    tag_88:\n        /* \"#utility.yul\":1542:1587   */\n      swap1\n      pop\n        /* \"#utility.yul\":1466:1593   */\n      swap2\n      swap1\n      pop\n      jump\t// out\n        /* \"#utility.yul\":1599:1742   */\n    tag_60:\n        /* \"#utility.yul\":1692:1735   */\n      tag_90\n        /* \"#utility.yul\":1729:1734   */\n      dup2\n        /* \"#utility.yul\":1692:1735   */\n      tag_59\n      jump\t// in\n    tag_90:\n        /* \"#utility.yul\":1687:1690   */\n      dup3\n        /* \"#utility.yul\":1680:1736   */\n      mstore\n        /* \"#utility.yul\":1599:1742   */\n      pop\n      pop\n      jump\t// out\n        /* \"#utility.yul\":1748:1982   */\n    tag_26:\n        /* \"#utility.yul\":1847:1851   */\n      0x00\n        /* \"#utility.yul\":1885:1887   */\n      0x20\n        /* \"#utility.yul\":1874:1883   */\n      dup3\n        /* \"#utility.yul\":1870:1888   */\n      add\n        /* \"#utility.yul\":1862:1888   */\n      swap1\n      pop\n        /* \"#utility.yul\":1898:1975   */\n      tag_92\n        /* \"#utility.yul\":1972:1973   */\n      0x00\n        /* \"#utility.yul\":1961:1970   */\n      dup4\n        /* \"#utility.yul\":1957:1974   */\n      add\n        /* \"#utility.yul\":1948:1954   */\n      dup5\n        /* \"#utility.yul\":1898:1975   */\n      tag_60\n      jump\t// in\n    tag_92:\n        /* \"#utility.yul\":1748:1982   */\n      swap3\n      swap2\n      pop\n      pop\n      jump\t// out\n        /* \"#utility.yul\":1988:2157   */\n    tag_61:\n        /* \"#utility.yul\":2072:2083   */\n      0x00\n        /* \"#utility.yul\":2106:2112   */\n      dup3\n        /* \"#utility.yul\":2101:2104   */\n      dup3\n        /* \"#utility.yul\":2094:2113   */\n      mstore\n        /* \"#utility.yul\":2146:2150   */\n      0x20\n        /* \"#utility.yul\":2141:2144   */\n      dup3\n        /* \"#utility.yul\":2137:2151   */\n      add\n        /* \"#utility.yul\":2122:2151   */\n      swap1\n      pop\n        /* \"#utility.yul\":1988:2157   */\n      swap3\n      swap2\n      pop\n      pop\n      jump\t// out\n        /* \"#utility.yul\":2163:2331   */\n    tag_62:\n        /* \"#utility.yul\":2303:2323   */\n      0x63757272656e746c79206f636375706965640000000000000000000000000000\n        /* \"#utility.yul\":2299:2300   */\n      0x00\n        /* \"#utility.yul\":2291:2297   */\n      dup3\n        /* \"#utility.yul\":2287:2301   */\n      add\n        /* \"#utility.yul\":2280:2324   */\n      mstore\n        /* \"#utility.yul\":2163:2331   */\n      pop\n      jump\t// out\n        /* \"#utility.yul\":2337:2703   */\n    tag_63:\n        /* \"#utility.yul\":2479:2482   */\n      0x00\n        /* \"#utility.yul\":2500:2567   */\n      tag_96\n        /* \"#utility.yul\":2564:2566   */\n      0x12\n        /* \"#utility.yul\":2559:2562   */\n      dup4\n        /* \"#utility.yul\":2500:2567   */\n      tag_61\n      jump\t// in\n    tag_96:\n        /* \"#utility.yul\":2493:2567   */\n      swap2\n      pop\n        /* \"#utility.yul\":2576:2669   */\n      tag_97\n        /* \"#utility.yul\":2665:2668   */\n      dup3\n        /* \"#utility.yul\":2576:2669   */\n      tag_62\n      jump\t// in\n    tag_97:\n        /* \"#utility.yul\":2694:2696   */\n      0x20\n        /* \"#utility.yul\":2689:2692   */\n      dup3\n        /* \"#utility.yul\":2685:2697   */\n      add\n        /* \"#utility.yul\":2678:2697   */\n      swap1\n      pop\n        /* \"#utility.yul\":2337:2703   */\n      swap2\n      swap1\n      pop\n      jump\t// out\n        /* \"#utility.yul\":2709:3128   */\n    tag_35:\n        /* \"#utility.yul\":2875:2879   */\n      0x00\n        /* \"#utility.yul\":2913:2915   */\n      0x20\n        /* \"#utility.yul\":2902:2911   */\n      dup3\n        /* \"#utility.yul\":2898:2916   */\n      add\n        /* \"#utility.yul\":2890:2916   */\n      swap1\n      pop\n        /* \"#utility.yul\":2962:2971   */\n      dup2\n        /* \"#utility.yul\":2956:2960   */\n      dup2\n        /* \"#utility.yul\":2952:2972   */\n      sub\n        /* \"#utility.yul\":2948:2949   */\n      0x00\n        /* \"#utility.yul\":2937:2946   */\n      dup4\n        /* \"#utility.yul\":2933:2950   */\n      add\n        /* \"#utility.yul\":2926:2973   */\n      mstore\n        /* \"#utility.yul\":2990:3121   */\n      tag_99\n        /* \"#utility.yul\":3116:3120   */\n      dup2\n        /* \"#utility.yul\":2990:3121   */\n      tag_63\n      jump\t// in\n    tag_99:\n        /* \"#utility.yul\":2982:3121   */\n      swap1\n      pop\n        /* \"#utility.yul\":2709:3128   */\n      swap2\n      swap1\n      pop\n      jump\t// out\n        /* \"#utility.yul\":3134:3309   */\n    tag_64:\n        /* \"#utility.yul\":3274:3301   */\n      0x4e6f7420656e6f7567682065746865722070726f766964656400000000000000\n        /* \"#utility.yul\":3270:3271   */\n      0x00\n        /* \"#utility.yul\":3262:3268   */\n      dup3\n        /* \"#utility.yul\":3258:3272   */\n      add\n        /* \"#utility.yul\":3251:3302   */\n      mstore\n        /* \"#utility.yul\":3134:3309   */\n      pop\n      jump\t// out\n        /* \"#utility.yul\":3315:3681   */\n    tag_65:\n        /* \"#utility.yul\":3457:3460   */\n      0x00\n        /* \"#utility.yul\":3478:3545   */\n      tag_102\n        /* \"#utility.yul\":3542:3544   */\n      0x19\n        /* \"#utility.yul\":3537:3540   */\n      dup4\n        /* \"#utility.yul\":3478:3545   */\n      tag_61\n      jump\t// in\n    tag_102:\n        /* \"#utility.yul\":3471:3545   */\n      swap2\n      pop\n        /* \"#utility.yul\":3554:3647   */\n      tag_103\n        /* \"#utility.yul\":3643:3646   */\n      dup3\n        /* \"#utility.yul\":3554:3647   */\n      tag_64\n      jump\t// in\n    tag_103:\n        /* \"#utility.yul\":3672:3674   */\n      0x20\n        /* \"#utility.yul\":3667:3670   */\n      dup3\n        /* \"#utility.yul\":3663:3675   */\n      add\n        /* \"#utility.yul\":3656:3675   */\n      swap1\n      pop\n        /* \"#utility.yul\":3315:3681   */\n      swap2\n      swap1\n      pop\n      jump\t// out\n        /* \"#utility.yul\":3687:4106   */\n    tag_39:\n        /* \"#utility.yul\":3853:3857   */\n      0x00\n        /* \"#utility.yul\":3891:3893   */\n      0x20\n        /* \"#utility.yul\":3880:3889   */\n      dup3\n        /* \"#utility.yul\":3876:3894   */\n      add\n        /* \"#utility.yul\":3868:3894   */\n      swap1\n      pop\n        /* \"#utility.yul\":3940:3949   */\n      dup2\n        /* \"#utility.yul\":3934:3938   */\n      dup2\n        /* \"#utility.yul\":3930:3950   */\n      sub\n        /* \"#utility.yul\":3926:3927   */\n      0x00\n        /* \"#utility.yul\":3915:3924   */\n      dup4\n        /* \"#utility.yul\":3911:3928   */\n      add\n        /* \"#utility.yul\":3904:3951   */\n      mstore\n        /* \"#utility.yul\":3968:4099   */\n      tag_105\n        /* \"#utility.yul\":4094:4098   */\n      dup2\n        /* \"#utility.yul\":3968:4099   */\n      tag_65\n      jump\t// in\n    tag_105:\n        /* \"#utility.yul\":3960:4099   */\n      swap1\n      pop\n        /* \"#utility.yul\":3687:4106   */\n      swap2\n      swap1\n      pop\n      jump\t// out\n        /* \"#utility.yul\":4112:4279   */\n    tag_66:\n        /* \"#utility.yul\":4252:4271   */\n      0x4f6e6c79206f776e65722063616e20646f000000000000000000000000000000\n        /* \"#utility.yul\":4248:4249   */\n      0x00\n        /* \"#utility.yul\":4240:4246   */\n      dup3\n        /* \"#utility.yul\":4236:4250   */\n      add\n        /* \"#utility.yul\":4229:4272   */\n      mstore\n        /* \"#utility.yul\":4112:4279   */\n      pop\n      jump\t// out\n        /* \"#utility.yul\":4285:4651   */\n    tag_67:\n        /* \"#utility.yul\":4427:4430   */\n      0x00\n        /* \"#utility.yul\":4448:4515   */\n      tag_108\n        /* \"#utility.yul\":4512:4514   */\n      0x11\n        /* \"#utility.yul\":4507:4510   */\n      dup4\n        /* \"#utility.yul\":4448:4515   */\n      tag_61\n      jump\t// in\n    tag_108:\n        /* \"#utility.yul\":4441:4515   */\n      swap2\n      pop\n        /* \"#utility.yul\":4524:4617   */\n      tag_109\n        /* \"#utility.yul\":4613:4616   */\n      dup3\n        /* \"#utility.yul\":4524:4617   */\n      tag_66\n      jump\t// in\n    tag_109:\n        /* \"#utility.yul\":4642:4644   */\n      0x20\n        /* \"#utility.yul\":4637:4640   */\n      dup3\n        /* \"#utility.yul\":4633:4645   */\n      add\n        /* \"#utility.yul\":4626:4645   */\n      swap1\n      pop\n        /* \"#utility.yul\":4285:4651   */\n      swap2\n      swap1\n      pop\n      jump\t// out\n        /* \"#utility.yul\":4657:5076   */\n    tag_48:\n        /* \"#utility.yul\":4823:4827   */\n      0x00\n        /* \"#utility.yul\":4861:4863   */\n      0x20\n        /* \"#utility.yul\":4850:4859   */\n      dup3\n        /* \"#utility.yul\":4846:4864   */\n      add\n        /* \"#utility.yul\":4838:4864   */\n      swap1\n      pop\n        /* \"#utility.yul\":4910:4919   */\n      dup2\n        /* \"#utility.yul\":4904:4908   */\n      dup2\n        /* \"#utility.yul\":4900:4920   */\n      sub\n        /* \"#utility.yul\":4896:4897   */\n      0x00\n        /* \"#utility.yul\":4885:4894   */\n      dup4\n        /* \"#utility.yul\":4881:4898   */\n      add\n        /* \"#utility.yul\":4874:4921   */\n      mstore\n        /* \"#utility.yul\":4938:5069   */\n      tag_111\n        /* \"#utility.yul\":5064:5068   */\n      dup2\n        /* \"#utility.yul\":4938:5069   */\n      tag_67\n      jump\t// in\n    tag_111:\n        /* \"#utility.yul\":4930:5069   */\n      swap1\n      pop\n        /* \"#utility.yul\":4657:5076   */\n      swap2\n      swap1\n      pop\n      jump\t// out\n\n    auxdata: 0xa264697066735822122008fc25e197892d4729239c1725cbb6bc8937f4d01b1c043a4914857de7d39b1664736f6c63430008200033\n}\n",
				"bytecode": {
					"linkReferences": {},
					"object": "6080604052348015600e575f5ffd5b50335f5f6101000a81548173ffffffffffffffffffffffffffffffffffffffff021916908373ffffffffffffffffffffffffffffffffffffffff1602179055505f5f60146101000a81548160ff02191690836001811115606f57606e6078565b5b021790555060a5565b7f4e487b71000000000000000000000000000000000000000000000000000000005f52602160045260245ffd5b6105c9806100b25f395ff3fe608060405260043610610049575f3560e01c806305a8da721461004d5780638da5cb5b1461005757806392955e2814610081578063d826f88f146100ab578063e2e063e8146100c1575b5f5ffd5b6100556100eb565b005b348015610062575f5ffd5b5061006b61023b565b6040516100789190610375565b60405180910390f35b34801561008c575f5ffd5b5061009561025f565b6040516100a291906103a6565b60405180910390f35b3480156100b6575f5ffd5b506100bf61026b565b005b3480156100cc575f5ffd5b506100d5610324565b6040516100e29190610432565b60405180910390f35b5f60018111156100fe576100fd6103bf565b5b5f60149054906101000a900460ff16600181111561011f5761011e6103bf565b5b1461015f576040517f08c379a0000000000000000000000000000000000000000000000000000000008152600401610156906104a5565b60405180910390fd5b34678ac7230489e8000081116101aa576040517f08c379a00000000000000000000000000000000000000000000000000000000081526004016101a19061050d565b60405180910390fd5b60015f60146101000a81548160ff021916908360018111156101cf576101ce6103bf565b5b02179055505f5f9054906101000a900473ffffffffffffffffffffffffffffffffffffffff1673ffffffffffffffffffffffffffffffffffffffff166108fc3490811502906040515f60405180830381858888f19350505050158015610237573d5f5f3e3d5ffd5b5050565b5f5f9054906101000a900473ffffffffffffffffffffffffffffffffffffffff1681565b678ac7230489e8000081565b5f5f9054906101000a900473ffffffffffffffffffffffffffffffffffffffff1673ffffffffffffffffffffffffffffffffffffffff163373ffffffffffffffffffffffffffffffffffffffff16146102f9576040517f08c379a00000000000000000000000000000000000000000000000000000000081526004016102f090610575565b60405180910390fd5b5f5f60146101000a81548160ff0219169083600181111561031d5761031c6103bf565b5b0217905550565b5f60149054906101000a900460ff1681565b5f73ffffffffffffffffffffffffffffffffffffffff82169050919050565b5f61035f82610336565b9050919050565b61036f81610355565b82525050565b5f6020820190506103885f830184610366565b92915050565b5f819050919050565b6103a08161038e565b82525050565b5f6020820190506103b95f830184610397565b92915050565b7f4e487b71000000000000000000000000000000000000000000000000000000005f52602160045260245ffd5b600281106103fd576103fc6103bf565b5b50565b5f81905061040d826103ec565b919050565b5f61041c82610400565b9050919050565b61042c81610412565b82525050565b5f6020820190506104455f830184610423565b92915050565b5f82825260208201905092915050565b7f63757272656e746c79206f6363757069656400000000000000000000000000005f82015250565b5f61048f60128361044b565b915061049a8261045b565b602082019050919050565b5f6020820190508181035f8301526104bc81610483565b9050919050565b7f4e6f7420656e6f7567682065746865722070726f7669646564000000000000005f82015250565b5f6104f760198361044b565b9150610502826104c3565b602082019050919050565b5f6020820190508181035f830152610524816104eb565b9050919050565b7f4f6e6c79206f776e65722063616e20646f0000000000000000000000000000005f82015250565b5f61055f60118361044b565b915061056a8261052b565b602082019050919050565b5f6020820190508181035f83015261058c81610553565b905091905056fea264697066735822122008fc25e197892d4729239c1725cbb6bc8937f4d01b1c043a4914857de7d39b1664736f6c63430008200033",
					"opcodes": "PUSH1 0x80 PUSH1 0x40 MSTORE CALLVALUE DUP1 ISZERO PUSH1 0xE JUMPI PUSH0 PUSH0 REVERT JUMPDEST POP CALLER PUSH0 PUSH0 PUSH2 0x100 EXP DUP2 SLOAD DUP2 PUSH20 0xFFFFFFFFFFFFFFFFFFFFFFFFFFFFFFFFFFFFFFFF MUL NOT AND SWAP1 DUP4 PUSH20 0xFFFFFFFFFFFFFFFFFFFFFFFFFFFFFFFFFFFFFFFF AND MUL OR SWAP1 SSTORE POP PUSH0 PUSH0 PUSH1 0x14 PUSH2 0x100 EXP DUP2 SLOAD DUP2 PUSH1 0xFF MUL NOT AND SWAP1 DUP4 PUSH1 0x1 DUP2 GT ISZERO PUSH1 0x6F JUMPI PUSH1 0x6E PUSH1 0x78 JUMP JUMPDEST JUMPDEST MUL OR SWAP1 SSTORE POP PUSH1 0xA5 JUMP JUMPDEST PUSH32 0x4E487B7100000000000000000000000000000000000000000000000000000000 PUSH0 MSTORE PUSH1 0x21 PUSH1 0x4 MSTORE PUSH1 0x24 PUSH0 REVERT JUMPDEST PUSH2 0x5C9 DUP1 PUSH2 0xB2 PUSH0 CODECOPY PUSH0 RETURN INVALID PUSH1 0x80 PUSH1 0x40 MSTORE PUSH1 0x4 CALLDATASIZE LT PUSH2 0x49 JUMPI PUSH0 CALLDATALOAD PUSH1 0xE0 SHR DUP1 PUSH4 0x5A8DA72 EQ PUSH2 0x4D JUMPI DUP1 PUSH4 0x8DA5CB5B EQ PUSH2 0x57 JUMPI DUP1 PUSH4 0x92955E28 EQ PUSH2 0x81 JUMPI DUP1 PUSH4 0xD826F88F EQ PUSH2 0xAB JUMPI DUP1 PUSH4 0xE2E063E8 EQ PUSH2 0xC1 JUMPI JUMPDEST PUSH0 PUSH0 REVERT JUMPDEST PUSH2 0x55 PUSH2 0xEB JUMP JUMPDEST STOP JUMPDEST CALLVALUE DUP1 ISZERO PUSH2 0x62 JUMPI PUSH0 PUSH0 REVERT JUMPDEST POP PUSH2 0x6B PUSH2 0x23B JUMP JUMPDEST PUSH1 0x40 MLOAD PUSH2 0x78 SWAP2 SWAP1 PUSH2 0x375 JUMP JUMPDEST PUSH1 0x40 MLOAD DUP1 SWAP2 SUB SWAP1 RETURN JUMPDEST CALLVALUE DUP1 ISZERO PUSH2 0x8C JUMPI PUSH0 PUSH0 REVERT JUMPDEST POP PUSH2 0x95 PUSH2 0x25F JUMP JUMPDEST PUSH1 0x40 MLOAD PUSH2 0xA2 SWAP2 SWAP1 PUSH2 0x3A6 JUMP JUMPDEST PUSH1 0x40 MLOAD DUP1 SWAP2 SUB SWAP1 RETURN JUMPDEST CALLVALUE DUP1 ISZERO PUSH2 0xB6 JUMPI PUSH0 PUSH0 REVERT JUMPDEST POP PUSH2 0xBF PUSH2 0x26B JUMP JUMPDEST STOP JUMPDEST CALLVALUE DUP1 ISZERO PUSH2 0xCC JUMPI PUSH0 PUSH0 REVERT JUMPDEST POP PUSH2 0xD5 PUSH2 0x324 JUMP JUMPDEST PUSH1 0x40 MLOAD PUSH2 0xE2 SWAP2 SWAP1 PUSH2 0x432 JUMP JUMPDEST PUSH1 0x40 MLOAD DUP1 SWAP2 SUB SWAP1 RETURN JUMPDEST PUSH0 PUSH1 0x1 DUP2 GT ISZERO PUSH2 0xFE JUMPI PUSH2 0xFD PUSH2 0x3BF JUMP JUMPDEST JUMPDEST PUSH0 PUSH1 0x14 SWAP1 SLOAD SWAP1 PUSH2 0x100 EXP SWAP1 DIV PUSH1 0xFF AND PUSH1 0x1 DUP2 GT ISZERO PUSH2 0x11F JUMPI PUSH2 0x11E PUSH2 0x3BF JUMP JUMPDEST JUMPDEST EQ PUSH2 0x15F JUMPI PUSH1 0x40 MLOAD PUSH32 0x8C379A000000000000000000000000000000000000000000000000000000000 DUP2 MSTORE PUSH1 0x4 ADD PUSH2 0x156 SWAP1 PUSH2 0x4A5 JUMP JUMPDEST PUSH1 0x40 MLOAD DUP1 SWAP2 SUB SWAP1 REVERT JUMPDEST CALLVALUE PUSH8 0x8AC7230489E80000 DUP2 GT PUSH2 0x1AA JUMPI PUSH1 0x40 MLOAD PUSH32 0x8C379A000000000000000000000000000000000000000000000000000000000 DUP2 MSTORE PUSH1 0x4 ADD PUSH2 0x1A1 SWAP1 PUSH2 0x50D JUMP JUMPDEST PUSH1 0x40 MLOAD DUP1 SWAP2 SUB SWAP1 REVERT JUMPDEST PUSH1 0x1 PUSH0 PUSH1 0x14 PUSH2 0x100 EXP DUP2 SLOAD DUP2 PUSH1 0xFF MUL NOT AND SWAP1 DUP4 PUSH1 0x1 DUP2 GT ISZERO PUSH2 0x1CF JUMPI PUSH2 0x1CE PUSH2 0x3BF JUMP JUMPDEST JUMPDEST MUL OR SWAP1 SSTORE POP PUSH0 PUSH0 SWAP1 SLOAD SWAP1 PUSH2 0x100 EXP SWAP1 DIV PUSH20 0xFFFFFFFFFFFFFFFFFFFFFFFFFFFFFFFFFFFFFFFF AND PUSH20 0xFFFFFFFFFFFFFFFFFFFFFFFFFFFFFFFFFFFFFFFF AND PUSH2 0x8FC CALLVALUE SWAP1 DUP2 ISZERO MUL SWAP1 PUSH1 0x40 MLOAD PUSH0 PUSH1 0x40 MLOAD DUP1 DUP4 SUB DUP2 DUP6 DUP9 DUP9 CALL SWAP4 POP POP POP POP ISZERO DUP1 ISZERO PUSH2 0x237 JUMPI RETURNDATASIZE PUSH0 PUSH0 RETURNDATACOPY RETURNDATASIZE PUSH0 REVERT JUMPDEST POP POP JUMP JUMPDEST PUSH0 PUSH0 SWAP1 SLOAD SWAP1 PUSH2 0x100 EXP SWAP1 DIV PUSH20 0xFFFFFFFFFFFFFFFFFFFFFFFFFFFFFFFFFFFFFFFF AND DUP2 JUMP JUMPDEST PUSH8 0x8AC7230489E80000 DUP2 JUMP JUMPDEST PUSH0 PUSH0 SWAP1 SLOAD SWAP1 PUSH2 0x100 EXP SWAP1 DIV PUSH20 0xFFFFFFFFFFFFFFFFFFFFFFFFFFFFFFFFFFFFFFFF AND PUSH20 0xFFFFFFFFFFFFFFFFFFFFFFFFFFFFFFFFFFFFFFFF AND CALLER PUSH20 0xFFFFFFFFFFFFFFFFFFFFFFFFFFFFFFFFFFFFFFFF AND EQ PUSH2 0x2F9 JUMPI PUSH1 0x40 MLOAD PUSH32 0x8C379A000000000000000000000000000000000000000000000000000000000 DUP2 MSTORE PUSH1 0x4 ADD PUSH2 0x2F0 SWAP1 PUSH2 0x575 JUMP JUMPDEST PUSH1 0x40 MLOAD DUP1 SWAP2 SUB SWAP1 REVERT JUMPDEST PUSH0 PUSH0 PUSH1 0x14 PUSH2 0x100 EXP DUP2 SLOAD DUP2 PUSH1 0xFF MUL NOT AND SWAP1 DUP4 PUSH1 0x1 DUP2 GT ISZERO PUSH2 0x31D JUMPI PUSH2 0x31C PUSH2 0x3BF JUMP JUMPDEST JUMPDEST MUL OR SWAP1 SSTORE POP JUMP JUMPDEST PUSH0 PUSH1 0x14 SWAP1 SLOAD SWAP1 PUSH2 0x100 EXP SWAP1 DIV PUSH1 0xFF AND DUP2 JUMP JUMPDEST PUSH0 PUSH20 0xFFFFFFFFFFFFFFFFFFFFFFFFFFFFFFFFFFFFFFFF DUP3 AND SWAP1 POP SWAP2 SWAP1 POP JUMP JUMPDEST PUSH0 PUSH2 0x35F DUP3 PUSH2 0x336 JUMP JUMPDEST SWAP1 POP SWAP2 SWAP1 POP JUMP JUMPDEST PUSH2 0x36F DUP2 PUSH2 0x355 JUMP JUMPDEST DUP3 MSTORE POP POP JUMP JUMPDEST PUSH0 PUSH1 0x20 DUP3 ADD SWAP1 POP PUSH2 0x388 PUSH0 DUP4 ADD DUP5 PUSH2 0x366 JUMP JUMPDEST SWAP3 SWAP2 POP POP JUMP JUMPDEST PUSH0 DUP2 SWAP1 POP SWAP2 SWAP1 POP JUMP JUMPDEST PUSH2 0x3A0 DUP2 PUSH2 0x38E JUMP JUMPDEST DUP3 MSTORE POP POP JUMP JUMPDEST PUSH0 PUSH1 0x20 DUP3 ADD SWAP1 POP PUSH2 0x3B9 PUSH0 DUP4 ADD DUP5 PUSH2 0x397 JUMP JUMPDEST SWAP3 SWAP2 POP POP JUMP JUMPDEST PUSH32 0x4E487B7100000000000000000000000000000000000000000000000000000000 PUSH0 MSTORE PUSH1 0x21 PUSH1 0x4 MSTORE PUSH1 0x24 PUSH0 REVERT JUMPDEST PUSH1 0x2 DUP2 LT PUSH2 0x3FD JUMPI PUSH2 0x3FC PUSH2 0x3BF JUMP JUMPDEST JUMPDEST POP JUMP JUMPDEST PUSH0 DUP2 SWAP1 POP PUSH2 0x40D DUP3 PUSH2 0x3EC JUMP JUMPDEST SWAP2 SWAP1 POP JUMP JUMPDEST PUSH0 PUSH2 0x41C DUP3 PUSH2 0x400 JUMP JUMPDEST SWAP1 POP SWAP2 SWAP1 POP JUMP JUMPDEST PUSH2 0x42C DUP2 PUSH2 0x412 JUMP JUMPDEST DUP3 MSTORE POP POP JUMP JUMPDEST PUSH0 PUSH1 0x20 DUP3 ADD SWAP1 POP PUSH2 0x445 PUSH0 DUP4 ADD DUP5 PUSH2 0x423 JUMP JUMPDEST SWAP3 SWAP2 POP POP JUMP JUMPDEST PUSH0 DUP3 DUP3 MSTORE PUSH1 0x20 DUP3 ADD SWAP1 POP SWAP3 SWAP2 POP POP JUMP JUMPDEST PUSH32 0x63757272656E746C79206F636375706965640000000000000000000000000000 PUSH0 DUP3 ADD MSTORE POP JUMP JUMPDEST PUSH0 PUSH2 0x48F PUSH1 0x12 DUP4 PUSH2 0x44B JUMP JUMPDEST SWAP2 POP PUSH2 0x49A DUP3 PUSH2 0x45B JUMP JUMPDEST PUSH1 0x20 DUP3 ADD SWAP1 POP SWAP2 SWAP1 POP JUMP JUMPDEST PUSH0 PUSH1 0x20 DUP3 ADD SWAP1 POP DUP2 DUP2 SUB PUSH0 DUP4 ADD MSTORE PUSH2 0x4BC DUP2 PUSH2 0x483 JUMP JUMPDEST SWAP1 POP SWAP2 SWAP1 POP JUMP JUMPDEST PUSH32 0x4E6F7420656E6F7567682065746865722070726F766964656400000000000000 PUSH0 DUP3 ADD MSTORE POP JUMP JUMPDEST PUSH0 PUSH2 0x4F7 PUSH1 0x19 DUP4 PUSH2 0x44B JUMP JUMPDEST SWAP2 POP PUSH2 0x502 DUP3 PUSH2 0x4C3 JUMP JUMPDEST PUSH1 0x20 DUP3 ADD SWAP1 POP SWAP2 SWAP1 POP JUMP JUMPDEST PUSH0 PUSH1 0x20 DUP3 ADD SWAP1 POP DUP2 DUP2 SUB PUSH0 DUP4 ADD MSTORE PUSH2 0x524 DUP2 PUSH2 0x4EB JUMP JUMPDEST SWAP1 POP SWAP2 SWAP1 POP JUMP JUMPDEST PUSH32 0x4F6E6C79206F776E65722063616E20646F000000000000000000000000000000 PUSH0 DUP3 ADD MSTORE POP JUMP JUMPDEST PUSH0 PUSH2 0x55F PUSH1 0x11 DUP4 PUSH2 0x44B JUMP JUMPDEST SWAP2 POP PUSH2 0x56A DUP3 PUSH2 0x52B JUMP JUMPDEST PUSH1 0x20 DUP3 ADD SWAP1 POP SWAP2 SWAP1 POP JUMP JUMPDEST PUSH0 PUSH1 0x20 DUP3 ADD SWAP1 POP DUP2 DUP2 SUB PUSH0 DUP4 ADD MSTORE PUSH2 0x58C DUP2 PUSH2 0x553 JUMP JUMPDEST SWAP1 POP SWAP2 SWAP1 POP JUMP INVALID LOG2 PUSH5 0x6970667358 0x22 SLT KECCAK256 ADDMOD 0xFC 0x25 RJUMPI 0x9789 0x2D SELFBALANCE 0x29 0x23 SWAP13 OR 0x25 0xCB 0xB6 0xBC DUP10 CALLDATACOPY DELEGATECALL 0xD0 SHL SHR DIV GASPRICE BLOBHASH EQ DUP6 PUSH30 0xE7D39B1664736F6C63430008200033000000000000000000000000000000 "
				},
				"gasEstimates": {
					"creation": {
						"codeDepositCost": "296200",
						"executionCost": "48946",
						"totalCost": "345146"
					},
					"external": {
						"MIN_RESERVATION_FEE()": "347",
						"book()": "infinite",
						"owner()": "2507",
						"reset()": "26690",
						"roomStatus()": "2670"
					}
				},
				"methodIdentifiers": {
					"MIN_RESERVATION_FEE()": "92955e28",
					"book()": "05a8da72",
					"owner()": "8da5cb5b",
					"reset()": "d826f88f",
					"roomStatus()": "e2e063e8"
				}
			},
			"storageLayout": {
				"storage": [
					{
						"astId": 12,
						"contract": "reserve_hotel.sol:HotelRoom",
						"label": "owner",
						"offset": 0,
						"slot": "0",
						"type": "t_address"
					},
					{
						"astId": 15,
						"contract": "reserve_hotel.sol:HotelRoom",
						"label": "roomStatus",
						"offset": 20,
						"slot": "0",
						"type": "t_enum(status)4"
					}
				],
				"types": {
					"t_address": {
						"encoding": "inplace",
						"label": "address",
						"numberOfBytes": "20"
					},
					"t_enum(status)4": {
						"encoding": "inplace",
						"label": "enum HotelRoom.status",
						"numberOfBytes": "1"
					}
				}
			},
			"userdoc": {
				"kind": "user",
				"methods": {},
				"version": 1
			}
		}
	}
}