{
	"counter.sol": {
		"Counter": {
			"abi": [
				{
					"inputs": [],
					"name": "dec",
					"outputs": [],
					"stateMutability": "nonpayable",
					"type": "function"
				},
				{
					"inputs": [],
					"name": "get",
					"outputs": [
						{
							"internalType": "uint8",
							"name": "",
							"type": "uint8"
						}
					],
					"stateMutability": "view",
					"type": "function"
				},
				{
					"inputs": [],
					"name": "inc",
					"outputs": [],
					"stateMutability": "nonpayable",
					"type": "function"
				},
				{
					"inputs": [],
					"name": "setToMax",
					"outputs": [],
					"stateMutability": "nonpayable",
					"type": "function"
				},
				{
					"inputs": [],
					"name": "setToMin",
					"outputs": [],
					"stateMutability": "nonpayable",
					"type": "function"
				}
			],
			"devdoc": {
				"kind": "dev",
				"methods": {},
				"version": 1
			},
			"evm": {
				"assembly": "    /* \"counter.sol\":155:970  contract Counter {... */\n  mstore(0x40, 0x80)\n    /* \"counter.sol\":282:285  100 */\n  0x64\n    /* \"counter.sol\":260:285  uint8 private count = 100 */\n  0x00\n  exp(0x0100, 0x00)\n  dup2\n  sload\n  dup2\n  0xff\n  mul\n  not\n  and\n  swap1\n  dup4\n  0xff\n  and\n  mul\n  or\n  swap1\n  sstore\n  pop\n    /* \"counter.sol\":155:970  contract Counter {... */\n  callvalue\n  dup1\n  iszero\n  tag_1\n  jumpi\n  revert(0x00, 0x00)\ntag_1:\n  pop\n  dataSize(sub_0)\n  dup1\n  dataOffset(sub_0)\n  0x00\n  codecopy\n  0x00\n  return\nstop\n\nsub_0: assembly {\n        /* \"counter.sol\":155:970  contract Counter {... */\n      mstore(0x40, 0x80)\n      callvalue\n      dup1\n      iszero\n      tag_1\n      jumpi\n      revert(0x00, 0x00)\n    tag_1:\n      pop\n      jumpi(tag_2, lt(calldatasize, 0x04))\n      shr(0xe0, calldataload(0x00))\n      dup1\n      0x371303c0\n      eq\n      tag_3\n      jumpi\n      dup1\n      0x6d4ce63c\n      eq\n      tag_4\n      jumpi\n      dup1\n      0xb3bcfa82\n      eq\n      tag_5\n      jumpi\n      dup1\n      0xc2957712\n      eq\n      tag_6\n      jumpi\n      dup1\n      0xc8cf4b78\n      eq\n      tag_7\n      jumpi\n    tag_2:\n      revert(0x00, 0x00)\n        /* \"counter.sol\":480:537  function inc() public ... */\n    tag_3:\n      tag_8\n      tag_9\n      jump\t// in\n    tag_8:\n      stop\n        /* \"counter.sol\":346:426  function get() public view returns (uint8) ... */\n    tag_4:\n      tag_10\n      tag_11\n      jump\t// in\n    tag_10:\n      mload(0x40)\n      tag_12\n      swap2\n      swap1\n      tag_13\n      jump\t// in\n    tag_12:\n      mload(0x40)\n      dup1\n      swap2\n      sub\n      swap1\n      return\n        /* \"counter.sol\":591:648  function dec() public ... */\n    tag_5:\n      tag_14\n      tag_15\n      jump\t// in\n    tag_14:\n      stop\n        /* \"counter.sol\":898:967  function setToMax() public {... */\n    tag_6:\n      tag_16\n      tag_17\n      jump\t// in\n    tag_16:\n      stop\n        /* \"counter.sol\":739:808  function setToMin() public {... */\n    tag_7:\n      tag_18\n      tag_19\n      jump\t// in\n    tag_18:\n      stop\n        /* \"counter.sol\":480:537  function inc() public ... */\n    tag_9:\n        /* \"counter.sol\":528:529  1 */\n      0x01\n        /* \"counter.sol\":519:524  count */\n      0x00\n      0x00\n        /* \"counter.sol\":519:529  count += 1 */\n      dup3\n      dup3\n      dup3\n      swap1\n      sload\n      swap1\n      0x0100\n      exp\n      swap1\n      div\n      0xff\n      and\n      tag_21\n      swap2\n      swap1\n      tag_22\n      jump\t// in\n    tag_21:\n      swap3\n      pop\n      0x0100\n      exp\n      dup2\n      sload\n      dup2\n      0xff\n      mul\n      not\n      and\n      swap1\n      dup4\n      0xff\n      and\n      mul\n      or\n      swap1\n      sstore\n      pop\n        /* \"counter.sol\":480:537  function inc() public ... */\n      jump\t// out\n        /* \"counter.sol\":346:426  function get() public view returns (uint8) ... */\n    tag_11:\n        /* \"counter.sol\":382:387  uint8 */\n      0x00\n        /* \"counter.sol\":413:418  count */\n      0x00\n      0x00\n      swap1\n      sload\n      swap1\n      0x0100\n      exp\n      swap1\n      div\n      0xff\n      and\n        /* \"counter.sol\":406:418  return count */\n      swap1\n      pop\n        /* \"counter.sol\":346:426  function get() public view returns (uint8) ... */\n      swap1\n      jump\t// out\n        /* \"counter.sol\":591:648  function dec() public ... */\n    tag_15:\n        /* \"counter.sol\":639:640  1 */\n      0x01\n        /* \"counter.sol\":630:635  count */\n      0x00\n      0x00\n        /* \"counter.sol\":630:640  count -= 1 */\n      dup3\n      dup3\n      dup3\n      swap1\n      sload\n      swap1\n      0x0100\n      exp\n      swap1\n      div\n      0xff\n      and\n      tag_25\n      swap2\n      swap1\n      tag_26\n      jump\t// in\n    tag_25:\n      swap3\n      pop\n      0x0100\n      exp\n      dup2\n      sload\n      dup2\n      0xff\n      mul\n      not\n      and\n      swap1\n      dup4\n      0xff\n      and\n      mul\n      or\n      swap1\n      sstore\n      pop\n        /* \"counter.sol\":591:648  function dec() public ... */\n      jump\t// out\n        /* \"counter.sol\":898:967  function setToMax() public {... */\n    tag_17:\n        /* \"counter.sol\":944:959  type(uint8).max */\n      0xff\n        /* \"counter.sol\":936:941  count */\n      0x00\n      0x00\n        /* \"counter.sol\":936:959  count = type(uint8).max */\n      0x0100\n      exp\n      dup2\n      sload\n      dup2\n      0xff\n      mul\n      not\n      and\n      swap1\n      dup4\n      0xff\n      and\n      mul\n      or\n      swap1\n      sstore\n      pop\n        /* \"counter.sol\":898:967  function setToMax() public {... */\n      jump\t// out\n        /* \"counter.sol\":739:808  function setToMin() public {... */\n    tag_19:\n        /* \"counter.sol\":785:800  type(uint8).min */\n      0x00\n        /* \"counter.sol\":777:782  count */\n      0x00\n      0x00\n        /* \"counter.sol\":777:800  count = type(uint8).min */\n      0x0100\n      exp\n      dup2\n      sload\n      dup2\n      0xff\n      mul\n      not\n      and\n      swap1\n      dup4\n      0xff\n      and\n      mul\n      or\n      swap1\n      sstore\n      pop\n        /* \"counter.sol\":739:808  function setToMin() public {... */\n      jump\t// out\n        /* \"#utility.yul\":7:93   */\n    tag_29:\n        /* \"#utility.yul\":42:49   */\n      0x00\n        /* \"#utility.yul\":82:86   */\n      0xff\n        /* \"#utility.yul\":75:80   */\n      dup3\n        /* \"#utility.yul\":71:87   */\n      and\n        /* \"#utility.yul\":60:87   */\n      swap1\n      pop\n        /* \"#utility.yul\":7:93   */\n      swap2\n      swap1\n      pop\n      jump\t// out\n        /* \"#utility.yul\":99:211   */\n    tag_30:\n        /* \"#utility.yul\":182:204   */\n      tag_35\n        /* \"#utility.yul\":198:203   */\n      dup2\n        /* \"#utility.yul\":182:204   */\n      tag_29\n      jump\t// in\n    tag_35:\n        /* \"#utility.yul\":177:180   */\n      dup3\n        /* \"#utility.yul\":170:205   */\n      mstore\n        /* \"#utility.yul\":99:211   */\n      pop\n      pop\n      jump\t// out\n        /* \"#utility.yul\":217:431   */\n    tag_13:\n        /* \"#utility.yul\":306:310   */\n      0x00\n        /* \"#utility.yul\":344:346   */\n      0x20\n        /* \"#utility.yul\":333:342   */\n      dup3\n        /* \"#utility.yul\":329:347   */\n      add\n        /* \"#utility.yul\":321:347   */\n      swap1\n      pop\n        /* \"#utility.yul\":357:424   */\n      tag_37\n        /* \"#utility.yul\":421:422   */\n      0x00\n        /* \"#utility.yul\":410:419   */\n      dup4\n        /* \"#utility.yul\":406:423   */\n      add\n        /* \"#utility.yul\":397:403   */\n      dup5\n        /* \"#utility.yul\":357:424   */\n      tag_30\n      jump\t// in\n    tag_37:\n        /* \"#utility.yul\":217:431   */\n      swap3\n      swap2\n      pop\n      pop\n      jump\t// out\n        /* \"#utility.yul\":437:617   */\n    tag_31:\n        /* \"#utility.yul\":485:562   */\n      0x4e487b7100000000000000000000000000000000000000000000000000000000\n        /* \"#utility.yul\":482:483   */\n      0x00\n        /* \"#utility.yul\":475:563   */\n      mstore\n        /* \"#utility.yul\":582:586   */\n      0x11\n        /* \"#utility.yul\":579:580   */\n      0x04\n        /* \"#utility.yul\":572:587   */\n      mstore\n        /* \"#utility.yul\":606:610   */\n      0x24\n        /* \"#utility.yul\":603:604   */\n      0x00\n        /* \"#utility.yul\":596:611   */\n      revert\n        /* \"#utility.yul\":623:811   */\n    tag_22:\n        /* \"#utility.yul\":661:664   */\n      0x00\n        /* \"#utility.yul\":680:698   */\n      tag_40\n        /* \"#utility.yul\":696:697   */\n      dup3\n        /* \"#utility.yul\":680:698   */\n      tag_29\n      jump\t// in\n    tag_40:\n        /* \"#utility.yul\":675:698   */\n      swap2\n      pop\n        /* \"#utility.yul\":712:730   */\n      tag_41\n        /* \"#utility.yul\":728:729   */\n      dup4\n        /* \"#utility.yul\":712:730   */\n      tag_29\n      jump\t// in\n    tag_41:\n        /* \"#utility.yul\":707:730   */\n      swap3\n      pop\n        /* \"#utility.yul\":753:754   */\n      dup3\n        /* \"#utility.yul\":750:751   */\n      dup3\n        /* \"#utility.yul\":746:755   */\n      add\n        /* \"#utility.yul\":739:755   */\n      swap1\n      pop\n        /* \"#utility.yul\":776:780   */\n      0xff\n        /* \"#utility.yul\":771:774   */\n      dup2\n        /* \"#utility.yul\":768:781   */\n      gt\n        /* \"#utility.yul\":765:804   */\n      iszero\n      tag_42\n      jumpi\n        /* \"#utility.yul\":784:802   */\n      tag_43\n      tag_31\n      jump\t// in\n    tag_43:\n        /* \"#utility.yul\":765:804   */\n    tag_42:\n        /* \"#utility.yul\":623:811   */\n      swap3\n      swap2\n      pop\n      pop\n      jump\t// out\n        /* \"#utility.yul\":817:1008   */\n    tag_26:\n        /* \"#utility.yul\":855:859   */\n      0x00\n        /* \"#utility.yul\":875:893   */\n      tag_45\n        /* \"#utility.yul\":891:892   */\n      dup3\n        /* \"#utility.yul\":875:893   */\n      tag_29\n      jump\t// in\n    tag_45:\n        /* \"#utility.yul\":870:893   */\n      swap2\n      pop\n        /* \"#utility.yul\":907:925   */\n      tag_46\n        /* \"#utility.yul\":923:924   */\n      dup4\n        /* \"#utility.yul\":907:925   */\n      tag_29\n      jump\t// in\n    tag_46:\n        /* \"#utility.yul\":902:925   */\n      swap3\n      pop\n        /* \"#utility.yul\":949:950   */\n      dup3\n        /* \"#utility.yul\":946:947   */\n      dup3\n        /* \"#utility.yul\":942:951   */\n      sub\n        /* \"#utility.yul\":934:951   */\n      swap1\n      pop\n        /* \"#utility.yul\":973:977   */\n      0xff\n        /* \"#utility.yul\":967:971   */\n      dup2\n        /* \"#utility.yul\":964:978   */\n      gt\n        /* \"#utility.yul\":961:1001   */\n      iszero\n      tag_47\n      jumpi\n        /* \"#utility.yul\":981:999   */\n      tag_48\n      tag_31\n      jump\t// in\n    tag_48:\n        /* \"#utility.yul\":961:1001   */\n    tag_47:\n        /* \"#utility.yul\":817:1008   */\n      swap3\n      swap2\n      pop\n      pop\n      jump\t// out\n\n    auxdata: 0xa26469706673582212206d595a91fc138e58cc65fa08018cd02b776b9dfe4f6c6734e4e5315f4a32487464736f6c634300081e0033\n}\n",
				"bytecode": {
					"linkReferences": {},
					"object": "608060405260645f5f6101000a81548160ff021916908360ff1602179055503480156028575f5ffd5b50610257806100365f395ff3fe608060405234801561000f575f5ffd5b5060043610610055575f3560e01c8063371303c0146100595780636d4ce63c14610063578063b3bcfa8214610081578063c29577121461008b578063c8cf4b7814610095575b5f5ffd5b61006161009f565b005b61006b6100d6565b6040516100789190610173565b60405180910390f35b6100896100ea565b005b610093610121565b005b61009d61013d565b005b60015f5f8282829054906101000a900460ff166100bc91906101b9565b92506101000a81548160ff021916908360ff160217905550565b5f5f5f9054906101000a900460ff16905090565b60015f5f8282829054906101000a900460ff1661010791906101ed565b92506101000a81548160ff021916908360ff160217905550565b60ff5f5f6101000a81548160ff021916908360ff160217905550565b5f5f5f6101000a81548160ff021916908360ff160217905550565b5f60ff82169050919050565b61016d81610158565b82525050565b5f6020820190506101865f830184610164565b92915050565b7f4e487b71000000000000000000000000000000000000000000000000000000005f52601160045260245ffd5b5f6101c382610158565b91506101ce83610158565b9250828201905060ff8111156101e7576101e661018c565b5b92915050565b5f6101f782610158565b915061020283610158565b9250828203905060ff81111561021b5761021a61018c565b5b9291505056fea26469706673582212206d595a91fc138e58cc65fa08018cd02b776b9dfe4f6c6734e4e5315f4a32487464736f6c634300081e0033",
					"opcodes": "PUSH1 0x80 PUSH1 0x40 MSTORE PUSH1 0x64 PUSH0 PUSH0 PUSH2 0x100 EXP DUP2 SLOAD DUP2 PUSH1 0xFF MUL NOT AND SWAP1 DUP4 PUSH1 0xFF AND MUL OR SWAP1 SSTORE POP CALLVALUE DUP1 ISZERO PUSH1 0x28 JUMPI PUSH0 PUSH0 REVERT JUMPDEST POP PUSH2 0x257 DUP1 PUSH2 0x36 PUSH0 CODECOPY PUSH0 RETURN INVALID PUSH1 0x80 PUSH1 0x40 MSTORE CALLVALUE DUP1 ISZERO PUSH2 0xF JUMPI PUSH0 PUSH0 REVERT JUMPDEST POP PUSH1 0x4 CALLDATASIZE LT PUSH2 0x55 JUMPI PUSH0 CALLDATALOAD PUSH1 0xE0 SHR DUP1 PUSH4 0x371303C0 EQ PUSH2 0x59 JUMPI DUP1 PUSH4 0x6D4CE63C EQ PUSH2 0x63 JUMPI DUP1 PUSH4 0xB3BCFA82 EQ PUSH2 0x81 JUMPI DUP1 PUSH4 0xC2957712 EQ PUSH2 0x8B JUMPI DUP1 PUSH4 0xC8CF4B78 EQ PUSH2 0x95 JUMPI JUMPDEST PUSH0 PUSH0 REVERT JUMPDEST PUSH2 0x61 PUSH2 0x9F JUMP JUMPDEST STOP JUMPDEST PUSH2 0x6B PUSH2 0xD6 JUMP JUMPDEST PUSH1 0x40 MLOAD PUSH2 0x78 SWAP2 SWAP1 PUSH2 0x173 JUMP JUMPDEST PUSH1 0x40 MLOAD DUP1 SWAP2 SUB SWAP1 RETURN JUMPDEST PUSH2 0x89 PUSH2 0xEA JUMP JUMPDEST STOP JUMPDEST PUSH2 0x93 PUSH2 0x121 JUMP JUMPDEST STOP JUMPDEST PUSH2 0x9D PUSH2 0x13D JUMP JUMPDEST STOP JUMPDEST PUSH1 0x1 PUSH0 PUSH0 DUP3 DUP3 DUP3 SWAP1 SLOAD SWAP1 PUSH2 0x100 EXP SWAP1 DIV PUSH1 0xFF AND PUSH2 0xBC SWAP2 SWAP1 PUSH2 0x1B9 JUMP JUMPDEST SWAP3 POP PUSH2 0x100 EXP DUP2 SLOAD DUP2 PUSH1 0xFF MUL NOT AND SWAP1 DUP4 PUSH1 0xFF AND MUL OR SWAP1 SSTORE POP JUMP JUMPDEST PUSH0 PUSH0 PUSH0 SWAP1 SLOAD SWAP1 PUSH2 0x100 EXP SWAP1 DIV PUSH1 0xFF AND SWAP1 POP SWAP1 JUMP JUMPDEST PUSH1 0x1 PUSH0 PUSH0 DUP3 DUP3 DUP3 SWAP1 SLOAD SWAP1 PUSH2 0x100 EXP SWAP1 DIV PUSH1 0xFF AND PUSH2 0x107 SWAP2 SWAP1 PUSH2 0x1ED JUMP JUMPDEST SWAP3 POP PUSH2 0x100 EXP DUP2 SLOAD DUP2 PUSH1 0xFF MUL NOT AND SWAP1 DUP4 PUSH1 0xFF AND MUL OR SWAP1 SSTORE POP JUMP JUMPDEST PUSH1 0xFF PUSH0 PUSH0 PUSH2 0x100 EXP DUP2 SLOAD DUP2 PUSH1 0xFF MUL NOT AND SWAP1 DUP4 PUSH1 0xFF AND MUL OR SWAP1 SSTORE POP JUMP JUMPDEST PUSH0 PUSH0 PUSH0 PUSH2 0x100 EXP DUP2 SLOAD DUP2 PUSH1 0xFF MUL NOT AND SWAP1 DUP4 PUSH1 0xFF AND MUL OR SWAP1 SSTORE POP JUMP JUMPDEST PUSH0 PUSH1 0xFF DUP3 AND SWAP1 POP SWAP2 SWAP1 POP JUMP JUMPDEST PUSH2 0x16D DUP2 PUSH2 0x158 JUMP JUMPDEST DUP3 MSTORE POP POP JUMP JUMPDEST PUSH0 PUSH1 0x20 DUP3 ADD SWAP1 POP PUSH2 0x186 PUSH0 DUP4 ADD DUP5 PUSH2 0x164 JUMP JUMPDEST SWAP3 SWAP2 POP POP JUMP JUMPDEST PUSH32 0x4E487B7100000000000000000000000000000000000000000000000000000000 PUSH0 MSTORE PUSH1 0x11 PUSH1 0x4 MSTORE PUSH1 0x24 PUSH0 REVERT JUMPDEST PUSH0 PUSH2 0x1C3 DUP3 PUSH2 0x158 JUMP JUMPDEST SWAP2 POP PUSH2 0x1CE DUP4 PUSH2 0x158 JUMP JUMPDEST SWAP3 POP DUP3 DUP3 ADD SWAP1 POP PUSH1 0xFF DUP2 GT ISZERO PUSH2 0x1E7 JUMPI PUSH2 0x1E6 PUSH2 0x18C JUMP JUMPDEST JUMPDEST SWAP3 SWAP2 POP POP JUMP JUMPDEST PUSH0 PUSH2 0x1F7 DUP3 PUSH2 0x158 JUMP JUMPDEST SWAP2 POP PUSH2 0x202 DUP4 PUSH2 0x158 JUMP JUMPDEST SWAP3 POP DUP3 DUP3 SUB SWAP1 POP PUSH1 0xFF DUP2 GT ISZERO PUSH2 0x21B JUMPI PUSH2 0x21A PUSH2 0x18C JUMP JUMPDEST JUMPDEST SWAP3 SWAP2 POP POP JUMP INVALID LOG2 PUSH5 0x6970667358 0x22 SLT KECCAK256 PUSH14 0x595A91FC138E58CC65FA08018CD0 0x2B PUSH24 0x6B9DFE4F6C6734E4E5315F4A32487464736F6C634300081E STOP CALLER "
				},
				"gasEstimates": {
					"creation": {
						"codeDepositCost": "119800",
						"executionCost": "24428",
						"totalCost": "144228"
					},
					"external": {
						"dec()": "infinite",
						"get()": "2472",
						"inc()": "infinite",
						"setToMax()": "24452",
						"setToMin()": "24473"
					}
				},
				"methodIdentifiers": {
					"dec()": "b3bcfa82",
					"get()": "6d4ce63c",
					"inc()": "371303c0",
					"setToMax()": "c2957712",
					"setToMin()": "c8cf4b78"
				}
			},
			"storageLayout": {
				"storage": [
					{
						"astId": 4,
						"contract": "counter.sol:Counter",
						"label": "count",
						"offset": 0,
						"slot": "0",
						"type": "t_uint8"
					}
				],
				"types": {
					"t_uint8": {
						"encoding": "inplace",
						"label": "uint8",
						"numberOfBytes": "1"
					}
				}
			},
			"userdoc": {
				"kind": "user",
				"methods": {},
				"version": 1
			}
		}
	}
}