{
	"기말 공부/easy/overflow.sol": {
		"SimpleStorage": {
			"abi": [
				{
					"inputs": [],
					"name": "getMinMax",
					"outputs": [
						{
							"internalType": "uint256",
							"name": "",
							"type": "uint256"
						},
						{
							"internalType": "uint256",
							"name": "",
							"type": "uint256"
						}
					],
					"stateMutability": "view",
					"type": "function"
				},
				{
					"inputs": [],
					"name": "over",
					"outputs": [
						{
							"internalType": "uint256",
							"name": "",
							"type": "uint256"
						}
					],
					"stateMutability": "view",
					"type": "function"
				},
				{
					"inputs": [],
					"name": "under",
					"outputs": [
						{
							"internalType": "uint256",
							"name": "",
							"type": "uint256"
						}
					],
					"stateMutability": "view",
					"type": "function"
				}
			],
			"devdoc": {
				"kind": "dev",
				"methods": {},
				"version": 1
			},
			"evm": {
				"assembly": "    /* \"\\xea\\xb8\\xb0\\xeb\\xa7\\x90 \\xea\\xb3\\xb5\\xeb\\xb6\\x80/easy/overflow.sol\":64:500  contract SimpleStorage... */\n  mstore(0x40, 0x80)\n    /* \"\\xea\\xb8\\xb0\\xeb\\xa7\\x90 \\xea\\xb3\\xb5\\xeb\\xb6\\x80/easy/overflow.sol\":106:120  type(uint).min */\n  0x00\n    /* \"\\xea\\xb8\\xb0\\xeb\\xa7\\x90 \\xea\\xb3\\xb5\\xeb\\xb6\\x80/easy/overflow.sol\":95:120  uint min = type(uint).min */\n  0x00\n  sstore\n    /* \"\\xea\\xb8\\xb0\\xeb\\xa7\\x90 \\xea\\xb3\\xb5\\xeb\\xb6\\x80/easy/overflow.sol\":138:152  type(uint).max */\n  0xffffffffffffffffffffffffffffffffffffffffffffffffffffffffffffffff\n    /* \"\\xea\\xb8\\xb0\\xeb\\xa7\\x90 \\xea\\xb3\\xb5\\xeb\\xb6\\x80/easy/overflow.sol\":127:152  uint max = type(uint).max */\n  0x01\n  sstore\n    /* \"\\xea\\xb8\\xb0\\xeb\\xa7\\x90 \\xea\\xb3\\xb5\\xeb\\xb6\\x80/easy/overflow.sol\":64:500  contract SimpleStorage... */\n  callvalue\n  dup1\n  iszero\n  tag_1\n  jumpi\n  revert(0x00, 0x00)\ntag_1:\n  pop\n  dataSize(sub_0)\n  dup1\n  dataOffset(sub_0)\n  0x00\n  codecopy\n  0x00\n  return\nstop\n\nsub_0: assembly {\n        /* \"\\xea\\xb8\\xb0\\xeb\\xa7\\x90 \\xea\\xb3\\xb5\\xeb\\xb6\\x80/easy/overflow.sol\":64:500  contract SimpleStorage... */\n      mstore(0x40, 0x80)\n      callvalue\n      dup1\n      iszero\n      tag_1\n      jumpi\n      revert(0x00, 0x00)\n    tag_1:\n      pop\n      jumpi(tag_2, lt(calldatasize, 0x04))\n      shr(0xe0, calldataload(0x00))\n      dup1\n      0x02e9e93d\n      eq\n      tag_3\n      jumpi\n      dup1\n      0x7eaef50c\n      eq\n      tag_4\n      jumpi\n      dup1\n      0xa538d287\n      eq\n      tag_5\n      jumpi\n    tag_2:\n      revert(0x00, 0x00)\n        /* \"\\xea\\xb8\\xb0\\xeb\\xa7\\x90 \\xea\\xb3\\xb5\\xeb\\xb6\\x80/easy/overflow.sol\":326:408  function under() public view returns (uint)... */\n    tag_3:\n      tag_6\n      tag_7\n      jump\t// in\n    tag_6:\n      mload(0x40)\n      tag_8\n      swap2\n      swap1\n      tag_9\n      jump\t// in\n    tag_8:\n      mload(0x40)\n      dup1\n      swap2\n      sub\n      swap1\n      return\n        /* \"\\xea\\xb8\\xb0\\xeb\\xa7\\x90 \\xea\\xb3\\xb5\\xeb\\xb6\\x80/easy/overflow.sol\":416:497  function over() public view returns (uint)... */\n    tag_4:\n      tag_10\n      tag_11\n      jump\t// in\n    tag_10:\n      mload(0x40)\n      tag_12\n      swap2\n      swap1\n      tag_9\n      jump\t// in\n    tag_12:\n      mload(0x40)\n      dup1\n      swap2\n      sub\n      swap1\n      return\n        /* \"\\xea\\xb8\\xb0\\xeb\\xa7\\x90 \\xea\\xb3\\xb5\\xeb\\xb6\\x80/easy/overflow.sol\":221:318  function getMinMax() external view returns (uint, uint)... */\n    tag_5:\n      tag_13\n      tag_14\n      jump\t// in\n    tag_13:\n      mload(0x40)\n      tag_15\n      swap3\n      swap2\n      swap1\n      tag_16\n      jump\t// in\n    tag_15:\n      mload(0x40)\n      dup1\n      swap2\n      sub\n      swap1\n      return\n        /* \"\\xea\\xb8\\xb0\\xeb\\xa7\\x90 \\xea\\xb3\\xb5\\xeb\\xb6\\x80/easy/overflow.sol\":326:408  function under() public view returns (uint)... */\n    tag_7:\n        /* \"\\xea\\xb8\\xb0\\xeb\\xa7\\x90 \\xea\\xb3\\xb5\\xeb\\xb6\\x80/easy/overflow.sol\":364:368  uint */\n      0x00\n        /* \"\\xea\\xb8\\xb0\\xeb\\xa7\\x90 \\xea\\xb3\\xb5\\xeb\\xb6\\x80/easy/overflow.sol\":399:400  1 */\n      0x01\n        /* \"\\xea\\xb8\\xb0\\xeb\\xa7\\x90 \\xea\\xb3\\xb5\\xeb\\xb6\\x80/easy/overflow.sol\":393:396  min */\n      sload(0x00)\n        /* \"\\xea\\xb8\\xb0\\xeb\\xa7\\x90 \\xea\\xb3\\xb5\\xeb\\xb6\\x80/easy/overflow.sol\":393:400  min - 1 */\n      tag_18\n      swap2\n      swap1\n      tag_19\n      jump\t// in\n    tag_18:\n        /* \"\\xea\\xb8\\xb0\\xeb\\xa7\\x90 \\xea\\xb3\\xb5\\xeb\\xb6\\x80/easy/overflow.sol\":386:400  return min - 1 */\n      swap1\n      pop\n        /* \"\\xea\\xb8\\xb0\\xeb\\xa7\\x90 \\xea\\xb3\\xb5\\xeb\\xb6\\x80/easy/overflow.sol\":326:408  function under() public view returns (uint)... */\n      swap1\n      jump\t// out\n        /* \"\\xea\\xb8\\xb0\\xeb\\xa7\\x90 \\xea\\xb3\\xb5\\xeb\\xb6\\x80/easy/overflow.sol\":416:497  function over() public view returns (uint)... */\n    tag_11:\n        /* \"\\xea\\xb8\\xb0\\xeb\\xa7\\x90 \\xea\\xb3\\xb5\\xeb\\xb6\\x80/easy/overflow.sol\":453:457  uint */\n      0x00\n        /* \"\\xea\\xb8\\xb0\\xeb\\xa7\\x90 \\xea\\xb3\\xb5\\xeb\\xb6\\x80/easy/overflow.sol\":488:489  1 */\n      0x01\n        /* \"\\xea\\xb8\\xb0\\xeb\\xa7\\x90 \\xea\\xb3\\xb5\\xeb\\xb6\\x80/easy/overflow.sol\":482:485  max */\n      dup1\n      sload\n        /* \"\\xea\\xb8\\xb0\\xeb\\xa7\\x90 \\xea\\xb3\\xb5\\xeb\\xb6\\x80/easy/overflow.sol\":482:489  max + 1 */\n      tag_21\n      swap2\n      swap1\n      tag_22\n      jump\t// in\n    tag_21:\n        /* \"\\xea\\xb8\\xb0\\xeb\\xa7\\x90 \\xea\\xb3\\xb5\\xeb\\xb6\\x80/easy/overflow.sol\":475:489  return max + 1 */\n      swap1\n      pop\n        /* \"\\xea\\xb8\\xb0\\xeb\\xa7\\x90 \\xea\\xb3\\xb5\\xeb\\xb6\\x80/easy/overflow.sol\":416:497  function over() public view returns (uint)... */\n      swap1\n      jump\t// out\n        /* \"\\xea\\xb8\\xb0\\xeb\\xa7\\x90 \\xea\\xb3\\xb5\\xeb\\xb6\\x80/easy/overflow.sol\":221:318  function getMinMax() external view returns (uint, uint)... */\n    tag_14:\n        /* \"\\xea\\xb8\\xb0\\xeb\\xa7\\x90 \\xea\\xb3\\xb5\\xeb\\xb6\\x80/easy/overflow.sol\":265:269  uint */\n      0x00\n        /* \"\\xea\\xb8\\xb0\\xeb\\xa7\\x90 \\xea\\xb3\\xb5\\xeb\\xb6\\x80/easy/overflow.sol\":271:275  uint */\n      0x00\n        /* \"\\xea\\xb8\\xb0\\xeb\\xa7\\x90 \\xea\\xb3\\xb5\\xeb\\xb6\\x80/easy/overflow.sol\":301:304  min */\n      sload(0x00)\n        /* \"\\xea\\xb8\\xb0\\xeb\\xa7\\x90 \\xea\\xb3\\xb5\\xeb\\xb6\\x80/easy/overflow.sol\":306:309  max */\n      sload(0x01)\n        /* \"\\xea\\xb8\\xb0\\xeb\\xa7\\x90 \\xea\\xb3\\xb5\\xeb\\xb6\\x80/easy/overflow.sol\":293:310  return (min, max) */\n      swap2\n      pop\n      swap2\n      pop\n        /* \"\\xea\\xb8\\xb0\\xeb\\xa7\\x90 \\xea\\xb3\\xb5\\xeb\\xb6\\x80/easy/overflow.sol\":221:318  function getMinMax() external view returns (uint, uint)... */\n      swap1\n      swap2\n      jump\t// out\n        /* \"#utility.yul\":7:84   */\n    tag_24:\n        /* \"#utility.yul\":44:51   */\n      0x00\n        /* \"#utility.yul\":73:78   */\n      dup2\n        /* \"#utility.yul\":62:78   */\n      swap1\n      pop\n        /* \"#utility.yul\":7:84   */\n      swap2\n      swap1\n      pop\n      jump\t// out\n        /* \"#utility.yul\":90:208   */\n    tag_25:\n        /* \"#utility.yul\":177:201   */\n      tag_30\n        /* \"#utility.yul\":195:200   */\n      dup2\n        /* \"#utility.yul\":177:201   */\n      tag_24\n      jump\t// in\n    tag_30:\n        /* \"#utility.yul\":172:175   */\n      dup3\n        /* \"#utility.yul\":165:202   */\n      mstore\n        /* \"#utility.yul\":90:208   */\n      pop\n      pop\n      jump\t// out\n        /* \"#utility.yul\":214:436   */\n    tag_9:\n        /* \"#utility.yul\":307:311   */\n      0x00\n        /* \"#utility.yul\":345:347   */\n      0x20\n        /* \"#utility.yul\":334:343   */\n      dup3\n        /* \"#utility.yul\":330:348   */\n      add\n        /* \"#utility.yul\":322:348   */\n      swap1\n      pop\n        /* \"#utility.yul\":358:429   */\n      tag_32\n        /* \"#utility.yul\":426:427   */\n      0x00\n        /* \"#utility.yul\":415:424   */\n      dup4\n        /* \"#utility.yul\":411:428   */\n      add\n        /* \"#utility.yul\":402:408   */\n      dup5\n        /* \"#utility.yul\":358:429   */\n      tag_25\n      jump\t// in\n    tag_32:\n        /* \"#utility.yul\":214:436   */\n      swap3\n      swap2\n      pop\n      pop\n      jump\t// out\n        /* \"#utility.yul\":442:774   */\n    tag_16:\n        /* \"#utility.yul\":563:567   */\n      0x00\n        /* \"#utility.yul\":601:603   */\n      0x40\n        /* \"#utility.yul\":590:599   */\n      dup3\n        /* \"#utility.yul\":586:604   */\n      add\n        /* \"#utility.yul\":578:604   */\n      swap1\n      pop\n        /* \"#utility.yul\":614:685   */\n      tag_34\n        /* \"#utility.yul\":682:683   */\n      0x00\n        /* \"#utility.yul\":671:680   */\n      dup4\n        /* \"#utility.yul\":667:684   */\n      add\n        /* \"#utility.yul\":658:664   */\n      dup6\n        /* \"#utility.yul\":614:685   */\n      tag_25\n      jump\t// in\n    tag_34:\n        /* \"#utility.yul\":695:767   */\n      tag_35\n        /* \"#utility.yul\":763:765   */\n      0x20\n        /* \"#utility.yul\":752:761   */\n      dup4\n        /* \"#utility.yul\":748:766   */\n      add\n        /* \"#utility.yul\":739:745   */\n      dup5\n        /* \"#utility.yul\":695:767   */\n      tag_25\n      jump\t// in\n    tag_35:\n        /* \"#utility.yul\":442:774   */\n      swap4\n      swap3\n      pop\n      pop\n      pop\n      jump\t// out\n        /* \"#utility.yul\":780:960   */\n    tag_26:\n        /* \"#utility.yul\":828:905   */\n      0x4e487b7100000000000000000000000000000000000000000000000000000000\n        /* \"#utility.yul\":825:826   */\n      0x00\n        /* \"#utility.yul\":818:906   */\n      mstore\n        /* \"#utility.yul\":925:929   */\n      0x11\n        /* \"#utility.yul\":922:923   */\n      0x04\n        /* \"#utility.yul\":915:930   */\n      mstore\n        /* \"#utility.yul\":949:953   */\n      0x24\n        /* \"#utility.yul\":946:947   */\n      0x00\n        /* \"#utility.yul\":939:954   */\n      revert\n        /* \"#utility.yul\":966:1160   */\n    tag_19:\n        /* \"#utility.yul\":1006:1010   */\n      0x00\n        /* \"#utility.yul\":1026:1046   */\n      tag_38\n        /* \"#utility.yul\":1044:1045   */\n      dup3\n        /* \"#utility.yul\":1026:1046   */\n      tag_24\n      jump\t// in\n    tag_38:\n        /* \"#utility.yul\":1021:1046   */\n      swap2\n      pop\n        /* \"#utility.yul\":1060:1080   */\n      tag_39\n        /* \"#utility.yul\":1078:1079   */\n      dup4\n        /* \"#utility.yul\":1060:1080   */\n      tag_24\n      jump\t// in\n    tag_39:\n        /* \"#utility.yul\":1055:1080   */\n      swap3\n      pop\n        /* \"#utility.yul\":1104:1105   */\n      dup3\n        /* \"#utility.yul\":1101:1102   */\n      dup3\n        /* \"#utility.yul\":1097:1106   */\n      sub\n        /* \"#utility.yul\":1089:1106   */\n      swap1\n      pop\n        /* \"#utility.yul\":1128:1129   */\n      dup2\n        /* \"#utility.yul\":1122:1126   */\n      dup2\n        /* \"#utility.yul\":1119:1130   */\n      gt\n        /* \"#utility.yul\":1116:1153   */\n      iszero\n      tag_40\n      jumpi\n        /* \"#utility.yul\":1133:1151   */\n      tag_41\n      tag_26\n      jump\t// in\n    tag_41:\n        /* \"#utility.yul\":1116:1153   */\n    tag_40:\n        /* \"#utility.yul\":966:1160   */\n      swap3\n      swap2\n      pop\n      pop\n      jump\t// out\n        /* \"#utility.yul\":1166:1357   */\n    tag_22:\n        /* \"#utility.yul\":1206:1209   */\n      0x00\n        /* \"#utility.yul\":1225:1245   */\n      tag_43\n        /* \"#utility.yul\":1243:1244   */\n      dup3\n        /* \"#utility.yul\":1225:1245   */\n      tag_24\n      jump\t// in\n    tag_43:\n        /* \"#utility.yul\":1220:1245   */\n      swap2\n      pop\n        /* \"#utility.yul\":1259:1279   */\n      tag_44\n        /* \"#utility.yul\":1277:1278   */\n      dup4\n        /* \"#utility.yul\":1259:1279   */\n      tag_24\n      jump\t// in\n    tag_44:\n        /* \"#utility.yul\":1254:1279   */\n      swap3\n      pop\n        /* \"#utility.yul\":1302:1303   */\n      dup3\n        /* \"#utility.yul\":1299:1300   */\n      dup3\n        /* \"#utility.yul\":1295:1304   */\n      add\n        /* \"#utility.yul\":1288:1304   */\n      swap1\n      pop\n        /* \"#utility.yul\":1323:1326   */\n      dup1\n        /* \"#utility.yul\":1320:1321   */\n      dup3\n        /* \"#utility.yul\":1317:1327   */\n      gt\n        /* \"#utility.yul\":1314:1350   */\n      iszero\n      tag_45\n      jumpi\n        /* \"#utility.yul\":1330:1348   */\n      tag_46\n      tag_26\n      jump\t// in\n    tag_46:\n        /* \"#utility.yul\":1314:1350   */\n    tag_45:\n        /* \"#utility.yul\":1166:1357   */\n      swap3\n      swap2\n      pop\n      pop\n      jump\t// out\n\n    auxdata: 0xa26469706673582212206b3a00ffad93154ba7609a8786b3645d08bcfaf926fb82c63edd3e7c25190d3464736f6c63430008200033\n}\n",
				"bytecode": {
					"linkReferences": {},
					"object": "60806040525f5f557fffffffffffffffffffffffffffffffffffffffffffffffffffffffffffffffff6001553480156035575f5ffd5b506101f6806100435f395ff3fe608060405234801561000f575f5ffd5b506004361061003f575f3560e01c806302e9e93d146100435780637eaef50c14610061578063a538d2871461007f575b5f5ffd5b61004b61009e565b60405161005891906100ed565b60405180910390f35b6100696100b2565b60405161007691906100ed565b60405180910390f35b6100876100c6565b604051610095929190610106565b60405180910390f35b5f60015f546100ad919061015a565b905090565b5f600180546100c1919061018d565b905090565b5f5f5f54600154915091509091565b5f819050919050565b6100e7816100d5565b82525050565b5f6020820190506101005f8301846100de565b92915050565b5f6040820190506101195f8301856100de565b61012660208301846100de565b9392505050565b7f4e487b71000000000000000000000000000000000000000000000000000000005f52601160045260245ffd5b5f610164826100d5565b915061016f836100d5565b92508282039050818111156101875761018661012d565b5b92915050565b5f610197826100d5565b91506101a2836100d5565b92508282019050808211156101ba576101b961012d565b5b9291505056fea26469706673582212206b3a00ffad93154ba7609a8786b3645d08bcfaf926fb82c63edd3e7c25190d3464736f6c63430008200033",
					"opcodes": "PUSH1 0x80 PUSH1 0x40 MSTORE PUSH0 PUSH0 SSTORE PUSH32 0xFFFFFFFFFFFFFFFFFFFFFFFFFFFFFFFFFFFFFFFFFFFFFFFFFFFFFFFFFFFFFFFF PUSH1 0x1 SSTORE CALLVALUE DUP1 ISZERO PUSH1 0x35 JUMPI PUSH0 PUSH0 REVERT JUMPDEST POP PUSH2 0x1F6 DUP1 PUSH2 0x43 PUSH0 CODECOPY PUSH0 RETURN INVALID PUSH1 0x80 PUSH1 0x40 MSTORE CALLVALUE DUP1 ISZERO PUSH2 0xF JUMPI PUSH0 PUSH0 REVERT JUMPDEST POP PUSH1 0x4 CALLDATASIZE LT PUSH2 0x3F JUMPI PUSH0 CALLDATALOAD PUSH1 0xE0 SHR DUP1 PUSH4 0x2E9E93D EQ PUSH2 0x43 JUMPI DUP1 PUSH4 0x7EAEF50C EQ PUSH2 0x61 JUMPI DUP1 PUSH4 0xA538D287 EQ PUSH2 0x7F JUMPI JUMPDEST PUSH0 PUSH0 REVERT JUMPDEST PUSH2 0x4B PUSH2 0x9E JUMP JUMPDEST PUSH1 0x40 MLOAD PUSH2 0x58 SWAP2 SWAP1 PUSH2 0xED JUMP JUMPDEST PUSH1 0x40 MLOAD DUP1 SWAP2 SUB SWAP1 RETURN JUMPDEST PUSH2 0x69 PUSH2 0xB2 JUMP JUMPDEST PUSH1 0x40 MLOAD PUSH2 0x76 SWAP2 SWAP1 PUSH2 0xED JUMP JUMPDEST PUSH1 0x40 MLOAD DUP1 SWAP2 SUB SWAP1 RETURN JUMPDEST PUSH2 0x87 PUSH2 0xC6 JUMP JUMPDEST PUSH1 0x40 MLOAD PUSH2 0x95 SWAP3 SWAP2 SWAP1 PUSH2 0x106 JUMP JUMPDEST PUSH1 0x40 MLOAD DUP1 SWAP2 SUB SWAP1 RETURN JUMPDEST PUSH0 PUSH1 0x1 PUSH0 SLOAD PUSH2 0xAD SWAP2 SWAP1 PUSH2 0x15A JUMP JUMPDEST SWAP1 POP SWAP1 JUMP JUMPDEST PUSH0 PUSH1 0x1 DUP1 SLOAD PUSH2 0xC1 SWAP2 SWAP1 PUSH2 0x18D JUMP JUMPDEST SWAP1 POP SWAP1 JUMP JUMPDEST PUSH0 PUSH0 PUSH0 SLOAD PUSH1 0x1 SLOAD SWAP2 POP SWAP2 POP SWAP1 SWAP2 JUMP JUMPDEST PUSH0 DUP2 SWAP1 POP SWAP2 SWAP1 POP JUMP JUMPDEST PUSH2 0xE7 DUP2 PUSH2 0xD5 JUMP JUMPDEST DUP3 MSTORE POP POP JUMP JUMPDEST PUSH0 PUSH1 0x20 DUP3 ADD SWAP1 POP PUSH2 0x100 PUSH0 DUP4 ADD DUP5 PUSH2 0xDE JUMP JUMPDEST SWAP3 SWAP2 POP POP JUMP JUMPDEST PUSH0 PUSH1 0x40 DUP3 ADD SWAP1 POP PUSH2 0x119 PUSH0 DUP4 ADD DUP6 PUSH2 0xDE JUMP JUMPDEST PUSH2 0x126 PUSH1 0x20 DUP4 ADD DUP5 PUSH2 0xDE JUMP JUMPDEST SWAP4 SWAP3 POP POP POP JUMP JUMPDEST PUSH32 0x4E487B7100000000000000000000000000000000000000000000000000000000 PUSH0 MSTORE PUSH1 0x11 PUSH1 0x4 MSTORE PUSH1 0x24 PUSH0 REVERT JUMPDEST PUSH0 PUSH2 0x164 DUP3 PUSH2 0xD5 JUMP JUMPDEST SWAP2 POP PUSH2 0x16F DUP4 PUSH2 0xD5 JUMP JUMPDEST SWAP3 POP DUP3 DUP3 SUB SWAP1 POP DUP2 DUP2 GT ISZERO PUSH2 0x187 JUMPI PUSH2 0x186 PUSH2 0x12D JUMP JUMPDEST JUMPDEST SWAP3 SWAP2 POP POP JUMP JUMPDEST PUSH0 PUSH2 0x197 DUP3 PUSH2 0xD5 JUMP JUMPDEST SWAP2 POP PUSH2 0x1A2 DUP4 PUSH2 0xD5 JUMP JUMPDEST SWAP3 POP DUP3 DUP3 ADD SWAP1 POP DUP1 DUP3 GT ISZERO PUSH2 0x1BA JUMPI PUSH2 0x1B9 PUSH2 0x12D JUMP JUMPDEST JUMPDEST SWAP3 SWAP2 POP POP JUMP INVALID LOG2 PUSH5 0x6970667358 0x22 SLT KECCAK256 PUSH12 0x3A00FFAD93154BA7609A8786 0xB3 PUSH5 0x5D08BCFAF9 0x26 EXTSTATICCALL DUP3 0xC6 RETURNDATACOPY 0xDD RETURNDATACOPY PUSH29 0x25190D3464736F6C634300082000330000000000000000000000000000 "
				},
				"gasEstimates": {
					"creation": {
						"codeDepositCost": "100400",
						"executionCost": "27255",
						"totalCost": "127655"
					},
					"external": {
						"getMinMax()": "infinite",
						"over()": "infinite",
						"under()": "infinite"
					}
				},
				"methodIdentifiers": {
					"getMinMax()": "a538d287",
					"over()": "7eaef50c",
					"under()": "02e9e93d"
				}
			},
			"storageLayout": {
				"storage": [
					{
						"astId": 8,
						"contract": "기말 공부/easy/overflow.sol:SimpleStorage",
						"label": "min",
						"offset": 0,
						"slot": "0",
						"type": "t_uint256"
					},
					{
						"astId": 15,
						"contract": "기말 공부/easy/overflow.sol:SimpleStorage",
						"label": "max",
						"offset": 0,
						"slot": "1",
						"type": "t_uint256"
					}
				],
				"types": {
					"t_uint256": {
						"encoding": "inplace",
						"label": "uint256",
						"numberOfBytes": "32"
					}
				}
			},
			"userdoc": {
				"kind": "user",
				"methods": {
					"getMinMax()": {
						"notice": "tuple 반환값으로 index 0 : min, index 1 : max"
					}
				},
				"version": 1
			}
		}
	}
}