{
	"lottery.sol": {
		"Lottery": {
			"abi": [
				{
					"inputs": [],
					"stateMutability": "nonpayable",
					"type": "constructor"
				},
				{
					"anonymous": false,
					"inputs": [
						{
							"indexed": true,
							"internalType": "address",
							"name": "player",
							"type": "address"
						},
						{
							"indexed": false,
							"internalType": "uint256",
							"name": "amount",
							"type": "uint256"
						}
					],
					"name": "BetEntered",
					"type": "event"
				},
				{
					"anonymous": false,
					"inputs": [
						{
							"indexed": true,
							"internalType": "address",
							"name": "winner",
							"type": "address"
						},
						{
							"indexed": false,
							"internalType": "uint256",
							"name": "amount",
							"type": "uint256"
						}
					],
					"name": "WinnerPicked",
					"type": "event"
				},
				{
					"inputs": [],
					"name": "BET_AMOUNT",
					"outputs": [
						{
							"internalType": "uint256",
							"name": "",
							"type": "uint256"
						}
					],
					"stateMutability": "view",
					"type": "function"
				},
				{
					"inputs": [],
					"name": "bettingOpen",
					"outputs": [
						{
							"internalType": "bool",
							"name": "",
							"type": "bool"
						}
					],
					"stateMutability": "view",
					"type": "function"
				},
				{
					"inputs": [],
					"name": "closeBetting",
					"outputs": [],
					"stateMutability": "nonpayable",
					"type": "function"
				},
				{
					"inputs": [],
					"name": "enter",
					"outputs": [],
					"stateMutability": "payable",
					"type": "function"
				},
				{
					"inputs": [],
					"name": "getPlayers",
					"outputs": [
						{
							"internalType": "address[]",
							"name": "",
							"type": "address[]"
						}
					],
					"stateMutability": "view",
					"type": "function"
				},
				{
					"inputs": [
						{
							"internalType": "address",
							"name": "_player",
							"type": "address"
						}
					],
					"name": "isPlayer",
					"outputs": [
						{
							"internalType": "bool",
							"name": "",
							"type": "bool"
						}
					],
					"stateMutability": "view",
					"type": "function"
				},
				{
					"inputs": [],
					"name": "manager",
					"outputs": [
						{
							"internalType": "address",
							"name": "",
							"type": "address"
						}
					],
					"stateMutability": "view",
					"type": "function"
				},
				{
					"inputs": [],
					"name": "openBetting",
					"outputs": [],
					"stateMutability": "nonpayable",
					"type": "function"
				},
				{
					"inputs": [],
					"name": "pickWinner",
					"outputs": [],
					"stateMutability": "nonpayable",
					"type": "function"
				},
				{
					"inputs": [
						{
							"internalType": "uint256",
							"name": "",
							"type": "uint256"
						}
					],
					"name": "players",
					"outputs": [
						{
							"internalType": "address",
							"name": "",
							"type": "address"
						}
					],
					"stateMutability": "view",
					"type": "function"
				}
			],
			"devdoc": {
				"kind": "dev",
				"methods": {},
				"version": 1
			},
			"evm": {
				"assembly": "    /* \"lottery.sol\":61:4114  contract Lottery ... */\n  mstore(0x40, 0x80)\n    /* \"lottery.sol\":586:770  constructor() ... */\n  callvalue\n  dup1\n  iszero\n  tag_1\n  jumpi\n  revert(0x00, 0x00)\ntag_1:\n  pop\n    /* \"lottery.sol\":627:637  msg.sender */\n  caller\n    /* \"lottery.sol\":617:624  manager */\n  0x00\n  0x00\n    /* \"lottery.sol\":617:637  manager = msg.sender */\n  0x0100\n  exp\n  dup2\n  sload\n  dup2\n  0xffffffffffffffffffffffffffffffffffffffff\n  mul\n  not\n  and\n  swap1\n  dup4\n  0xffffffffffffffffffffffffffffffffffffffff\n  and\n  mul\n  or\n  swap1\n  sstore\n  pop\n    /* \"lottery.sol\":714:719  false */\n  0x00\n    /* \"lottery.sol\":700:711  bettingOpen */\n  0x02\n  0x00\n    /* \"lottery.sol\":700:719  bettingOpen = false */\n  0x0100\n  exp\n  dup2\n  sload\n  dup2\n  0xff\n  mul\n  not\n  and\n  swap1\n  dup4\n  iszero\n  iszero\n  mul\n  or\n  swap1\n  sstore\n  pop\n    /* \"lottery.sol\":61:4114  contract Lottery ... */\n  dataSize(sub_0)\n  dup1\n  dataOffset(sub_0)\n  0x00\n  codecopy\n  0x00\n  return\nstop\n\nsub_0: assembly {\n        /* \"lottery.sol\":61:4114  contract Lottery ... */\n      mstore(0x40, 0x80)\n      jumpi(tag_1, lt(calldatasize, 0x04))\n      shr(0xe0, calldataload(0x00))\n      dup1\n      0x5d495aea\n      gt\n      tag_12\n      jumpi\n      dup1\n      0x5d495aea\n      eq\n      tag_7\n      jumpi\n      dup1\n      0x8b5b9ccc\n      eq\n      tag_8\n      jumpi\n      dup1\n      0xe10b020c\n      eq\n      tag_9\n      jumpi\n      dup1\n      0xe97dcb62\n      eq\n      tag_10\n      jumpi\n      dup1\n      0xf71d96cb\n      eq\n      tag_11\n      jumpi\n      jump(tag_1)\n    tag_12:\n      dup1\n      0x09c95e10\n      eq\n      tag_2\n      jumpi\n      dup1\n      0x15ac534d\n      eq\n      tag_3\n      jumpi\n      dup1\n      0x15b19770\n      eq\n      tag_4\n      jumpi\n      dup1\n      0x3f9326af\n      eq\n      tag_5\n      jumpi\n      dup1\n      0x481c6a75\n      eq\n      tag_6\n      jumpi\n    tag_1:\n      revert(0x00, 0x00)\n        /* \"lottery.sol\":3847:4111  function isPlayer(address _player) public view returns (bool) ... */\n    tag_2:\n      callvalue\n      dup1\n      iszero\n      tag_13\n      jumpi\n      revert(0x00, 0x00)\n    tag_13:\n      pop\n      tag_14\n      0x04\n      dup1\n      calldatasize\n      sub\n      dup2\n      add\n      swap1\n      tag_15\n      swap2\n      swap1\n      tag_16\n      jump\t// in\n    tag_15:\n      tag_17\n      jump\t// in\n    tag_14:\n      mload(0x40)\n      tag_18\n      swap2\n      swap1\n      tag_19\n      jump\t// in\n    tag_18:\n      mload(0x40)\n      dup1\n      swap2\n      sub\n      swap1\n      return\n        /* \"lottery.sol\":1899:2041  function closeBetting() public onlyOwner ... */\n    tag_3:\n      callvalue\n      dup1\n      iszero\n      tag_20\n      jumpi\n      revert(0x00, 0x00)\n    tag_20:\n      pop\n      tag_21\n      tag_22\n      jump\t// in\n    tag_21:\n      stop\n        /* \"lottery.sol\":301:324  bool public bettingOpen */\n    tag_4:\n      callvalue\n      dup1\n      iszero\n      tag_23\n      jumpi\n      revert(0x00, 0x00)\n    tag_23:\n      pop\n      tag_24\n      tag_25\n      jump\t// in\n    tag_24:\n      mload(0x40)\n      tag_26\n      swap2\n      swap1\n      tag_19\n      jump\t// in\n    tag_26:\n      mload(0x40)\n      dup1\n      swap2\n      sub\n      swap1\n      return\n        /* \"lottery.sol\":224:265  uint public constant BET_AMOUNT = 1 ether */\n    tag_5:\n      callvalue\n      dup1\n      iszero\n      tag_27\n      jumpi\n      revert(0x00, 0x00)\n    tag_27:\n      pop\n      tag_28\n      tag_29\n      jump\t// in\n    tag_28:\n      mload(0x40)\n      tag_30\n      swap2\n      swap1\n      tag_31\n      jump\t// in\n    tag_30:\n      mload(0x40)\n      dup1\n      swap2\n      sub\n      swap1\n      return\n        /* \"lottery.sol\":116:138  address public manager */\n    tag_6:\n      callvalue\n      dup1\n      iszero\n      tag_32\n      jumpi\n      revert(0x00, 0x00)\n    tag_32:\n      pop\n      tag_33\n      tag_34\n      jump\t// in\n    tag_33:\n      mload(0x40)\n      tag_35\n      swap2\n      swap1\n      tag_36\n      jump\t// in\n    tag_35:\n      mload(0x40)\n      dup1\n      swap2\n      sub\n      swap1\n      return\n        /* \"lottery.sol\":2530:3641  function pickWinner() public onlyOwner ... */\n    tag_7:\n      callvalue\n      dup1\n      iszero\n      tag_37\n      jumpi\n      revert(0x00, 0x00)\n    tag_37:\n      pop\n      tag_38\n      tag_39\n      jump\t// in\n    tag_38:\n      stop\n        /* \"lottery.sol\":3681:3781  function getPlayers() public view returns (address[] memory) ... */\n    tag_8:\n      callvalue\n      dup1\n      iszero\n      tag_40\n      jumpi\n      revert(0x00, 0x00)\n    tag_40:\n      pop\n      tag_41\n      tag_42\n      jump\t// in\n    tag_41:\n      mload(0x40)\n      tag_43\n      swap2\n      swap1\n      tag_44\n      jump\t// in\n    tag_43:\n      mload(0x40)\n      dup1\n      swap2\n      sub\n      swap1\n      return\n        /* \"lottery.sol\":1699:1838  function openBetting() public onlyOwner ... */\n    tag_9:\n      callvalue\n      dup1\n      iszero\n      tag_45\n      jumpi\n      revert(0x00, 0x00)\n    tag_45:\n      pop\n      tag_46\n      tag_47\n      jump\t// in\n    tag_46:\n      stop\n        /* \"lottery.sol\":2207:2497  function enter() public payable restricted already_enter bet_amount_restrict(msg.value) onlyWhenBettingOpen  ... */\n    tag_10:\n      tag_48\n      tag_49\n      jump\t// in\n    tag_48:\n      stop\n        /* \"lottery.sol\":170:194  address[] public players */\n    tag_11:\n      callvalue\n      dup1\n      iszero\n      tag_50\n      jumpi\n      revert(0x00, 0x00)\n    tag_50:\n      pop\n      tag_51\n      0x04\n      dup1\n      calldatasize\n      sub\n      dup2\n      add\n      swap1\n      tag_52\n      swap2\n      swap1\n      tag_53\n      jump\t// in\n    tag_52:\n      tag_54\n      jump\t// in\n    tag_51:\n      mload(0x40)\n      tag_55\n      swap2\n      swap1\n      tag_36\n      jump\t// in\n    tag_55:\n      mload(0x40)\n      dup1\n      swap2\n      sub\n      swap1\n      return\n        /* \"lottery.sol\":3847:4111  function isPlayer(address _player) public view returns (bool) ... */\n    tag_17:\n        /* \"lottery.sol\":3903:3907  bool */\n      0x00\n        /* \"lottery.sol\":3931:3937  uint i */\n      0x00\n        /* \"lottery.sol\":3940:3941  0 */\n      0x00\n        /* \"lottery.sol\":3931:3941  uint i = 0 */\n      swap1\n      pop\n        /* \"lottery.sol\":3926:4081  for (uint i = 0; i < players.length; i++) {... */\n    tag_57:\n        /* \"lottery.sol\":3947:3954  players */\n      0x01\n        /* \"lottery.sol\":3947:3961  players.length */\n      dup1\n      sload\n      swap1\n      pop\n        /* \"lottery.sol\":3943:3944  i */\n      dup2\n        /* \"lottery.sol\":3943:3961  i < players.length */\n      lt\n        /* \"lottery.sol\":3926:4081  for (uint i = 0; i < players.length; i++) {... */\n      iszero\n      tag_58\n      jumpi\n        /* \"lottery.sol\":4001:4008  _player */\n      dup3\n        /* \"lottery.sol\":3987:4008  players[i] == _player */\n      0xffffffffffffffffffffffffffffffffffffffff\n      and\n        /* \"lottery.sol\":3987:3994  players */\n      0x01\n        /* \"lottery.sol\":3995:3996  i */\n      dup3\n        /* \"lottery.sol\":3987:3997  players[i] */\n      dup2\n      sload\n      dup2\n      lt\n      tag_60\n      jumpi\n      tag_61\n      tag_62\n      jump\t// in\n    tag_61:\n    tag_60:\n      swap1\n      0x00\n      mstore\n      keccak256(0x00, 0x20)\n      add\n      0x00\n      swap1\n      sload\n      swap1\n      0x0100\n      exp\n      swap1\n      div\n      0xffffffffffffffffffffffffffffffffffffffff\n      and\n        /* \"lottery.sol\":3987:4008  players[i] == _player */\n      0xffffffffffffffffffffffffffffffffffffffff\n      and\n      sub\n        /* \"lottery.sol\":3983:4070  if (players[i] == _player) ... */\n      tag_64\n      jumpi\n        /* \"lottery.sol\":4050:4054  true */\n      0x01\n        /* \"lottery.sol\":4043:4054  return true */\n      swap2\n      pop\n      pop\n      jump(tag_56)\n        /* \"lottery.sol\":3983:4070  if (players[i] == _player) ... */\n    tag_64:\n        /* \"lottery.sol\":3963:3966  i++ */\n      dup1\n      dup1\n      0x01\n      add\n      swap2\n      pop\n      pop\n        /* \"lottery.sol\":3926:4081  for (uint i = 0; i < players.length; i++) {... */\n      jump(tag_57)\n    tag_58:\n      pop\n        /* \"lottery.sol\":4098:4103  false */\n      0x00\n        /* \"lottery.sol\":4091:4103  return false */\n      swap1\n      pop\n        /* \"lottery.sol\":3847:4111  function isPlayer(address _player) public view returns (bool) ... */\n    tag_56:\n      swap2\n      swap1\n      pop\n      jump\t// out\n        /* \"lottery.sol\":1899:2041  function closeBetting() public onlyOwner ... */\n    tag_22:\n        /* \"lottery.sol\":894:901  manager */\n      0x00\n      0x00\n      swap1\n      sload\n      swap1\n      0x0100\n      exp\n      swap1\n      div\n      0xffffffffffffffffffffffffffffffffffffffff\n      and\n        /* \"lottery.sol\":880:901  msg.sender == manager */\n      0xffffffffffffffffffffffffffffffffffffffff\n      and\n        /* \"lottery.sol\":880:890  msg.sender */\n      caller\n        /* \"lottery.sol\":880:901  msg.sender == manager */\n      0xffffffffffffffffffffffffffffffffffffffff\n      and\n      eq\n        /* \"lottery.sol\":872:941  require(msg.sender == manager, \"only the manager can call this func\") */\n      tag_66\n      jumpi\n      mload(0x40)\n      0x08c379a000000000000000000000000000000000000000000000000000000000\n      dup2\n      mstore\n      0x04\n      add\n      tag_67\n      swap1\n      tag_68\n      jump\t// in\n    tag_67:\n      mload(0x40)\n      dup1\n      swap2\n      sub\n      swap1\n      revert\n    tag_66:\n        /* \"lottery.sol\":1965:1976  bettingOpen */\n      0x02\n      0x00\n      swap1\n      sload\n      swap1\n      0x0100\n      exp\n      swap1\n      div\n      0xff\n      and\n        /* \"lottery.sol\":1957:2003  require(bettingOpen, \"Betting already closed\") */\n      tag_70\n      jumpi\n      mload(0x40)\n      0x08c379a000000000000000000000000000000000000000000000000000000000\n      dup2\n      mstore\n      0x04\n      add\n      tag_71\n      swap1\n      tag_72\n      jump\t// in\n    tag_71:\n      mload(0x40)\n      dup1\n      swap2\n      sub\n      swap1\n      revert\n    tag_70:\n        /* \"lottery.sol\":2028:2033  false */\n      0x00\n        /* \"lottery.sol\":2014:2025  bettingOpen */\n      0x02\n      0x00\n        /* \"lottery.sol\":2014:2033  bettingOpen = false */\n      0x0100\n      exp\n      dup2\n      sload\n      dup2\n      0xff\n      mul\n      not\n      and\n      swap1\n      dup4\n      iszero\n      iszero\n      mul\n      or\n      swap1\n      sstore\n      pop\n        /* \"lottery.sol\":1899:2041  function closeBetting() public onlyOwner ... */\n      jump\t// out\n        /* \"lottery.sol\":301:324  bool public bettingOpen */\n    tag_25:\n      0x02\n      0x00\n      swap1\n      sload\n      swap1\n      0x0100\n      exp\n      swap1\n      div\n      0xff\n      and\n      dup2\n      jump\t// out\n        /* \"lottery.sol\":224:265  uint public constant BET_AMOUNT = 1 ether */\n    tag_29:\n        /* \"lottery.sol\":258:265  1 ether */\n      0x0de0b6b3a7640000\n        /* \"lottery.sol\":224:265  uint public constant BET_AMOUNT = 1 ether */\n      dup2\n      jump\t// out\n        /* \"lottery.sol\":116:138  address public manager */\n    tag_34:\n      0x00\n      0x00\n      swap1\n      sload\n      swap1\n      0x0100\n      exp\n      swap1\n      div\n      0xffffffffffffffffffffffffffffffffffffffff\n      and\n      dup2\n      jump\t// out\n        /* \"lottery.sol\":2530:3641  function pickWinner() public onlyOwner ... */\n    tag_39:\n        /* \"lottery.sol\":894:901  manager */\n      0x00\n      0x00\n      swap1\n      sload\n      swap1\n      0x0100\n      exp\n      swap1\n      div\n      0xffffffffffffffffffffffffffffffffffffffff\n      and\n        /* \"lottery.sol\":880:901  msg.sender == manager */\n      0xffffffffffffffffffffffffffffffffffffffff\n      and\n        /* \"lottery.sol\":880:890  msg.sender */\n      caller\n        /* \"lottery.sol\":880:901  msg.sender == manager */\n      0xffffffffffffffffffffffffffffffffffffffff\n      and\n      eq\n        /* \"lottery.sol\":872:941  require(msg.sender == manager, \"only the manager can call this func\") */\n      tag_74\n      jumpi\n      mload(0x40)\n      0x08c379a000000000000000000000000000000000000000000000000000000000\n      dup2\n      mstore\n      0x04\n      add\n      tag_75\n      swap1\n      tag_68\n      jump\t// in\n    tag_75:\n      mload(0x40)\n      dup1\n      swap2\n      sub\n      swap1\n      revert\n    tag_74:\n        /* \"lottery.sol\":2612:2613  1 */\n      0x01\n        /* \"lottery.sol\":2594:2601  players */\n      dup1\n        /* \"lottery.sol\":2594:2608  players.length */\n      dup1\n      sload\n      swap1\n      pop\n        /* \"lottery.sol\":2594:2613  players.length >= 1 */\n      lt\n      iszero\n        /* \"lottery.sol\":2586:2628  require(players.length >= 1, \"No players\") */\n      tag_77\n      jumpi\n      mload(0x40)\n      0x08c379a000000000000000000000000000000000000000000000000000000000\n      dup2\n      mstore\n      0x04\n      add\n      tag_78\n      swap1\n      tag_79\n      jump\t// in\n    tag_78:\n      mload(0x40)\n      dup1\n      swap2\n      sub\n      swap1\n      revert\n    tag_77:\n        /* \"lottery.sol\":2719:2730  bettingOpen */\n      0x02\n      0x00\n      swap1\n      sload\n      swap1\n      0x0100\n      exp\n      swap1\n      div\n      0xff\n      and\n        /* \"lottery.sol\":2711:2754  require(bettingOpen, \"Betting is not open\") */\n      tag_80\n      jumpi\n      mload(0x40)\n      0x08c379a000000000000000000000000000000000000000000000000000000000\n      dup2\n      mstore\n      0x04\n      add\n      tag_81\n      swap1\n      tag_82\n      jump\t// in\n    tag_81:\n      mload(0x40)\n      dup1\n      swap2\n      sub\n      swap1\n      revert\n    tag_80:\n        /* \"lottery.sol\":2812:2817  false */\n      0x00\n        /* \"lottery.sol\":2798:2809  bettingOpen */\n      0x02\n      0x00\n        /* \"lottery.sol\":2798:2817  bettingOpen = false */\n      0x0100\n      exp\n      dup2\n      sload\n      dup2\n      0xff\n      mul\n      not\n      and\n      swap1\n      dup4\n      iszero\n      iszero\n      mul\n      or\n      swap1\n      sstore\n      pop\n        /* \"lottery.sol\":2877:2897  uint256 randomNumber */\n      0x00\n        /* \"lottery.sol\":2935:2947  block.number */\n      number\n        /* \"lottery.sol\":2949:2964  block.timestamp */\n      timestamp\n        /* \"lottery.sol\":2966:2973  players */\n      0x01\n        /* \"lottery.sol\":2966:2980  players.length */\n      dup1\n      sload\n      swap1\n      pop\n        /* \"lottery.sol\":2918:2981  abi.encodePacked(block.number, block.timestamp, players.length) */\n      add(0x20, mload(0x40))\n      tag_83\n      swap4\n      swap3\n      swap2\n      swap1\n      tag_84\n      jump\t// in\n    tag_83:\n      mload(0x40)\n      0x20\n      dup2\n      dup4\n      sub\n      sub\n      dup2\n      mstore\n      swap1\n      0x40\n      mstore\n        /* \"lottery.sol\":2908:2982  keccak256(abi.encodePacked(block.number, block.timestamp, players.length)) */\n      dup1\n      mload\n      swap1\n      0x20\n      add\n      keccak256\n        /* \"lottery.sol\":2900:2983  uint256(keccak256(abi.encodePacked(block.number, block.timestamp, players.length))) */\n      0x00\n      shr\n        /* \"lottery.sol\":2877:2983  uint256 randomNumber = uint256(keccak256(abi.encodePacked(block.number, block.timestamp, players.length))) */\n      swap1\n      pop\n        /* \"lottery.sol\":3051:3070  uint256 winnerIndex */\n      0x00\n        /* \"lottery.sol\":3088:3095  players */\n      0x01\n        /* \"lottery.sol\":3088:3102  players.length */\n      dup1\n      sload\n      swap1\n      pop\n        /* \"lottery.sol\":3073:3085  randomNumber */\n      dup3\n        /* \"lottery.sol\":3073:3102  randomNumber % players.length */\n      tag_85\n      swap2\n      swap1\n      tag_86\n      jump\t// in\n    tag_85:\n        /* \"lottery.sol\":3051:3102  uint256 winnerIndex = randomNumber % players.length */\n      swap1\n      pop\n        /* \"lottery.sol\":3169:3183  address winner */\n      0x00\n        /* \"lottery.sol\":3186:3193  players */\n      0x01\n        /* \"lottery.sol\":3194:3205  winnerIndex */\n      dup3\n        /* \"lottery.sol\":3186:3206  players[winnerIndex] */\n      dup2\n      sload\n      dup2\n      lt\n      tag_87\n      jumpi\n      tag_88\n      tag_62\n      jump\t// in\n    tag_88:\n    tag_87:\n      swap1\n      0x00\n      mstore\n      keccak256(0x00, 0x20)\n      add\n      0x00\n      swap1\n      sload\n      swap1\n      0x0100\n      exp\n      swap1\n      div\n      0xffffffffffffffffffffffffffffffffffffffff\n      and\n        /* \"lottery.sol\":3169:3206  address winner = players[winnerIndex] */\n      swap1\n      pop\n        /* \"lottery.sol\":3247:3260  uint256 prize */\n      0x00\n        /* \"lottery.sol\":3263:3284  address(this).balance */\n      selfbalance\n        /* \"lottery.sol\":3247:3284  uint256 prize = address(this).balance */\n      swap1\n      pop\n        /* \"lottery.sol\":3391:3397  winner */\n      dup2\n        /* \"lottery.sol\":3383:3407  payable(winner).transfer */\n      0xffffffffffffffffffffffffffffffffffffffff\n      and\n        /* \"lottery.sol\":3383:3414  payable(winner).transfer(prize) */\n      0x08fc\n        /* \"lottery.sol\":3408:3413  prize */\n      dup3\n        /* \"lottery.sol\":3383:3414  payable(winner).transfer(prize) */\n      swap1\n      dup2\n      iszero\n      mul\n      swap1\n      mload(0x40)\n      0x00\n      mload(0x40)\n      dup1\n      dup4\n      sub\n      dup2\n      dup6\n      dup9\n      dup9\n      call\n      swap4\n      pop\n      pop\n      pop\n      pop\n      iszero\n      dup1\n      iszero\n      tag_91\n      jumpi\n      returndatacopy(0x00, 0x00, returndatasize)\n      revert(0x00, returndatasize)\n    tag_91:\n      pop\n        /* \"lottery.sol\":3535:3541  winner */\n      dup2\n        /* \"lottery.sol\":3522:3549  WinnerPicked(winner, prize) */\n      0xffffffffffffffffffffffffffffffffffffffff\n      and\n      0x64791dbae5677392ba76761a5273633cec8f1d9d8cfe808da7bac6ef16a880be\n        /* \"lottery.sol\":3543:3548  prize */\n      dup3\n        /* \"lottery.sol\":3522:3549  WinnerPicked(winner, prize) */\n      mload(0x40)\n      tag_92\n      swap2\n      swap1\n      tag_31\n      jump\t// in\n    tag_92:\n      mload(0x40)\n      dup1\n      swap2\n      sub\n      swap1\n      log2\n        /* \"lottery.sol\":3626:3633  players */\n      0x01\n      0x00\n        /* \"lottery.sol\":3619:3633  delete players */\n      tag_93\n      swap2\n      swap1\n      tag_94\n      jump\t// in\n    tag_93:\n        /* \"lottery.sol\":2575:3641  {... */\n      pop\n      pop\n      pop\n      pop\n        /* \"lottery.sol\":2530:3641  function pickWinner() public onlyOwner ... */\n      jump\t// out\n        /* \"lottery.sol\":3681:3781  function getPlayers() public view returns (address[] memory) ... */\n    tag_42:\n        /* \"lottery.sol\":3724:3740  address[] memory */\n      0x60\n        /* \"lottery.sol\":3766:3773  players */\n      0x01\n        /* \"lottery.sol\":3759:3773  return players */\n      dup1\n      sload\n      dup1\n      0x20\n      mul\n      0x20\n      add\n      mload(0x40)\n      swap1\n      dup2\n      add\n      0x40\n      mstore\n      dup1\n      swap3\n      swap2\n      swap1\n      dup2\n      dup2\n      mstore\n      0x20\n      add\n      dup3\n      dup1\n      sload\n      dup1\n      iszero\n      tag_96\n      jumpi\n      0x20\n      mul\n      dup3\n      add\n      swap2\n      swap1\n      0x00\n      mstore\n      keccak256(0x00, 0x20)\n      swap1\n    tag_97:\n      dup2\n      0x00\n      swap1\n      sload\n      swap1\n      0x0100\n      exp\n      swap1\n      div\n      0xffffffffffffffffffffffffffffffffffffffff\n      and\n      0xffffffffffffffffffffffffffffffffffffffff\n      and\n      dup2\n      mstore\n      0x20\n      add\n      swap1\n      0x01\n      add\n      swap1\n      dup1\n      dup4\n      gt\n      tag_97\n      jumpi\n    tag_96:\n      pop\n      pop\n      pop\n      pop\n      pop\n      swap1\n      pop\n        /* \"lottery.sol\":3681:3781  function getPlayers() public view returns (address[] memory) ... */\n      swap1\n      jump\t// out\n        /* \"lottery.sol\":1699:1838  function openBetting() public onlyOwner ... */\n    tag_47:\n        /* \"lottery.sol\":894:901  manager */\n      0x00\n      0x00\n      swap1\n      sload\n      swap1\n      0x0100\n      exp\n      swap1\n      div\n      0xffffffffffffffffffffffffffffffffffffffff\n      and\n        /* \"lottery.sol\":880:901  msg.sender == manager */\n      0xffffffffffffffffffffffffffffffffffffffff\n      and\n        /* \"lottery.sol\":880:890  msg.sender */\n      caller\n        /* \"lottery.sol\":880:901  msg.sender == manager */\n      0xffffffffffffffffffffffffffffffffffffffff\n      and\n      eq\n        /* \"lottery.sol\":872:941  require(msg.sender == manager, \"only the manager can call this func\") */\n      tag_99\n      jumpi\n      mload(0x40)\n      0x08c379a000000000000000000000000000000000000000000000000000000000\n      dup2\n      mstore\n      0x04\n      add\n      tag_100\n      swap1\n      tag_68\n      jump\t// in\n    tag_100:\n      mload(0x40)\n      dup1\n      swap2\n      sub\n      swap1\n      revert\n    tag_99:\n        /* \"lottery.sol\":1765:1776  bettingOpen */\n      0x02\n      0x00\n      swap1\n      sload\n      swap1\n      0x0100\n      exp\n      swap1\n      div\n      0xff\n      and\n        /* \"lottery.sol\":1764:1776  !bettingOpen */\n      iszero\n        /* \"lottery.sol\":1756:1801  require(!bettingOpen, \"Betting already open\") */\n      tag_102\n      jumpi\n      mload(0x40)\n      0x08c379a000000000000000000000000000000000000000000000000000000000\n      dup2\n      mstore\n      0x04\n      add\n      tag_103\n      swap1\n      tag_104\n      jump\t// in\n    tag_103:\n      mload(0x40)\n      dup1\n      swap2\n      sub\n      swap1\n      revert\n    tag_102:\n        /* \"lottery.sol\":1826:1830  true */\n      0x01\n        /* \"lottery.sol\":1812:1823  bettingOpen */\n      0x02\n      0x00\n        /* \"lottery.sol\":1812:1830  bettingOpen = true */\n      0x0100\n      exp\n      dup2\n      sload\n      dup2\n      0xff\n      mul\n      not\n      and\n      swap1\n      dup4\n      iszero\n      iszero\n      mul\n      or\n      swap1\n      sstore\n      pop\n        /* \"lottery.sol\":1699:1838  function openBetting() public onlyOwner ... */\n      jump\t// out\n        /* \"lottery.sol\":2207:2497  function enter() public payable restricted already_enter bet_amount_restrict(msg.value) onlyWhenBettingOpen  ... */\n    tag_49:\n        /* \"lottery.sol\":1075:1082  manager */\n      0x00\n      0x00\n      swap1\n      sload\n      swap1\n      0x0100\n      exp\n      swap1\n      div\n      0xffffffffffffffffffffffffffffffffffffffff\n      and\n        /* \"lottery.sol\":1061:1082  msg.sender != manager */\n      0xffffffffffffffffffffffffffffffffffffffff\n      and\n        /* \"lottery.sol\":1061:1071  msg.sender */\n      caller\n        /* \"lottery.sol\":1061:1082  msg.sender != manager */\n      0xffffffffffffffffffffffffffffffffffffffff\n      and\n      sub\n        /* \"lottery.sol\":1053:1106  require(msg.sender != manager, \"owner can't betting\") */\n      tag_106\n      jumpi\n      mload(0x40)\n      0x08c379a000000000000000000000000000000000000000000000000000000000\n      dup2\n      mstore\n      0x04\n      add\n      tag_107\n      swap1\n      tag_108\n      jump\t// in\n    tag_107:\n      mload(0x40)\n      dup1\n      swap2\n      sub\n      swap1\n      revert\n    tag_106:\n        /* \"lottery.sol\":1414:1434  isPlayer(msg.sender) */\n      tag_110\n        /* \"lottery.sol\":1423:1433  msg.sender */\n      caller\n        /* \"lottery.sol\":1414:1422  isPlayer */\n      tag_17\n        /* \"lottery.sol\":1414:1434  isPlayer(msg.sender) */\n      jump\t// in\n    tag_110:\n        /* \"lottery.sol\":1413:1434  !isPlayer(msg.sender) */\n      iszero\n        /* \"lottery.sol\":1405:1459  require(!isPlayer(msg.sender), \"Already participated\") */\n      tag_111\n      jumpi\n      mload(0x40)\n      0x08c379a000000000000000000000000000000000000000000000000000000000\n      dup2\n      mstore\n      0x04\n      add\n      tag_112\n      swap1\n      tag_113\n      jump\t// in\n    tag_112:\n      mload(0x40)\n      dup1\n      swap2\n      sub\n      swap1\n      revert\n    tag_111:\n        /* \"lottery.sol\":2284:2293  msg.value */\n      callvalue\n        /* \"lottery.sol\":258:265  1 ether */\n      0x0de0b6b3a7640000\n        /* \"lottery.sol\":1241:1248  _amount */\n      dup2\n        /* \"lottery.sol\":1241:1262  _amount == BET_AMOUNT */\n      eq\n        /* \"lottery.sol\":1233:1294  require(_amount == BET_AMOUNT, \"Bet must be exactly 1 ether\") */\n      tag_115\n      jumpi\n      mload(0x40)\n      0x08c379a000000000000000000000000000000000000000000000000000000000\n      dup2\n      mstore\n      0x04\n      add\n      tag_116\n      swap1\n      tag_117\n      jump\t// in\n    tag_116:\n      mload(0x40)\n      dup1\n      swap2\n      sub\n      swap1\n      revert\n    tag_115:\n        /* \"lottery.sol\":1585:1596  bettingOpen */\n      0x02\n      0x00\n      swap1\n      sload\n      swap1\n      0x0100\n      exp\n      swap1\n      div\n      0xff\n      and\n        /* \"lottery.sol\":1577:1618  require(bettingOpen, \"Betting is closed\") */\n      tag_119\n      jumpi\n      mload(0x40)\n      0x08c379a000000000000000000000000000000000000000000000000000000000\n      dup2\n      mstore\n      0x04\n      add\n      tag_120\n      swap1\n      tag_121\n      jump\t// in\n    tag_120:\n      mload(0x40)\n      dup1\n      swap2\n      sub\n      swap1\n      revert\n    tag_119:\n        /* \"lottery.sol\":2373:2380  players */\n      0x01\n        /* \"lottery.sol\":2386:2396  msg.sender */\n      caller\n        /* \"lottery.sol\":2373:2397  players.push(msg.sender) */\n      swap1\n      dup1\n      0x01\n      dup2\n      sload\n      add\n      dup1\n      dup3\n      sstore\n      dup1\n      swap2\n      pop\n      pop\n      0x01\n      swap1\n      sub\n      swap1\n      0x00\n      mstore\n      keccak256(0x00, 0x20)\n      add\n      0x00\n      swap1\n      swap2\n      swap1\n      swap2\n      swap1\n      swap2\n      0x0100\n      exp\n      dup2\n      sload\n      dup2\n      0xffffffffffffffffffffffffffffffffffffffff\n      mul\n      not\n      and\n      swap1\n      dup4\n      0xffffffffffffffffffffffffffffffffffffffff\n      and\n      mul\n      or\n      swap1\n      sstore\n      pop\n        /* \"lottery.sol\":2467:2477  msg.sender */\n      caller\n        /* \"lottery.sol\":2456:2489  BetEntered(msg.sender, msg.value) */\n      0xffffffffffffffffffffffffffffffffffffffff\n      and\n      0xdfa035759b60c9f517f9eb9a5b345defa640ecf072027d1e7aba79271e7ab857\n        /* \"lottery.sol\":2479:2488  msg.value */\n      callvalue\n        /* \"lottery.sol\":2456:2489  BetEntered(msg.sender, msg.value) */\n      mload(0x40)\n      tag_124\n      swap2\n      swap1\n      tag_31\n      jump\t// in\n    tag_124:\n      mload(0x40)\n      dup1\n      swap2\n      sub\n      swap1\n      log2\n        /* \"lottery.sol\":1470:1471  _ */\n      pop\n        /* \"lottery.sol\":2207:2497  function enter() public payable restricted already_enter bet_amount_restrict(msg.value) onlyWhenBettingOpen  ... */\n      jump\t// out\n        /* \"lottery.sol\":170:194  address[] public players */\n    tag_54:\n      0x01\n      dup2\n      dup2\n      sload\n      dup2\n      lt\n      tag_125\n      jumpi\n      0x00\n      dup1\n      revert\n    tag_125:\n      swap1\n      0x00\n      mstore\n      keccak256(0x00, 0x20)\n      add\n      0x00\n      swap2\n      pop\n      sload\n      swap1\n      0x0100\n      exp\n      swap1\n      div\n      0xffffffffffffffffffffffffffffffffffffffff\n      and\n      dup2\n      jump\t// out\n    tag_94:\n      pop\n      dup1\n      sload\n      0x00\n      dup3\n      sstore\n      swap1\n      0x00\n      mstore\n      keccak256(0x00, 0x20)\n      swap1\n      tag_128\n      swap2\n      swap1\n      tag_129\n      jump\t// in\n    tag_128:\n      pop\n      jump\t// out\n    tag_129:\n      0x00\n    tag_130:\n      dup1\n      dup3\n      gt\n      iszero\n      tag_131\n      jumpi\n      dup3\n      dup2\n      add\n      0x00\n      swap1\n      sstore\n      0x01\n      add\n      jump(tag_130)\n    tag_131:\n      pop\n      pop\n      swap1\n      jump\t// out\n        /* \"#utility.yul\":88:205   */\n    tag_133:\n        /* \"#utility.yul\":197:198   */\n      0x00\n        /* \"#utility.yul\":194:195   */\n      0x00\n        /* \"#utility.yul\":187:199   */\n      revert\n        /* \"#utility.yul\":334:460   */\n    tag_135:\n        /* \"#utility.yul\":371:378   */\n      0x00\n        /* \"#utility.yul\":411:453   */\n      0xffffffffffffffffffffffffffffffffffffffff\n        /* \"#utility.yul\":404:409   */\n      dup3\n        /* \"#utility.yul\":400:454   */\n      and\n        /* \"#utility.yul\":389:454   */\n      swap1\n      pop\n        /* \"#utility.yul\":334:460   */\n      swap2\n      swap1\n      pop\n      jump\t// out\n        /* \"#utility.yul\":466:562   */\n    tag_136:\n        /* \"#utility.yul\":503:510   */\n      0x00\n        /* \"#utility.yul\":532:556   */\n      tag_181\n        /* \"#utility.yul\":550:555   */\n      dup3\n        /* \"#utility.yul\":532:556   */\n      tag_135\n      jump\t// in\n    tag_181:\n        /* \"#utility.yul\":521:556   */\n      swap1\n      pop\n        /* \"#utility.yul\":466:562   */\n      swap2\n      swap1\n      pop\n      jump\t// out\n        /* \"#utility.yul\":568:690   */\n    tag_137:\n        /* \"#utility.yul\":641:665   */\n      tag_183\n        /* \"#utility.yul\":659:664   */\n      dup2\n        /* \"#utility.yul\":641:665   */\n      tag_136\n      jump\t// in\n    tag_183:\n        /* \"#utility.yul\":634:639   */\n      dup2\n        /* \"#utility.yul\":631:666   */\n      eq\n        /* \"#utility.yul\":621:684   */\n      tag_184\n      jumpi\n        /* \"#utility.yul\":680:681   */\n      0x00\n        /* \"#utility.yul\":677:678   */\n      0x00\n        /* \"#utility.yul\":670:682   */\n      revert\n        /* \"#utility.yul\":621:684   */\n    tag_184:\n        /* \"#utility.yul\":568:690   */\n      pop\n      jump\t// out\n        /* \"#utility.yul\":696:835   */\n    tag_138:\n        /* \"#utility.yul\":742:747   */\n      0x00\n        /* \"#utility.yul\":780:786   */\n      dup2\n        /* \"#utility.yul\":767:787   */\n      calldataload\n        /* \"#utility.yul\":758:787   */\n      swap1\n      pop\n        /* \"#utility.yul\":796:829   */\n      tag_186\n        /* \"#utility.yul\":823:828   */\n      dup2\n        /* \"#utility.yul\":796:829   */\n      tag_137\n      jump\t// in\n    tag_186:\n        /* \"#utility.yul\":696:835   */\n      swap3\n      swap2\n      pop\n      pop\n      jump\t// out\n        /* \"#utility.yul\":841:1170   */\n    tag_16:\n        /* \"#utility.yul\":900:906   */\n      0x00\n        /* \"#utility.yul\":949:951   */\n      0x20\n        /* \"#utility.yul\":937:946   */\n      dup3\n        /* \"#utility.yul\":928:935   */\n      dup5\n        /* \"#utility.yul\":924:947   */\n      sub\n        /* \"#utility.yul\":920:952   */\n      slt\n        /* \"#utility.yul\":917:1036   */\n      iszero\n      tag_188\n      jumpi\n        /* \"#utility.yul\":955:1034   */\n      tag_189\n      tag_133\n      jump\t// in\n    tag_189:\n        /* \"#utility.yul\":917:1036   */\n    tag_188:\n        /* \"#utility.yul\":1075:1076   */\n      0x00\n        /* \"#utility.yul\":1100:1153   */\n      tag_190\n        /* \"#utility.yul\":1145:1152   */\n      dup5\n        /* \"#utility.yul\":1136:1142   */\n      dup3\n        /* \"#utility.yul\":1125:1134   */\n      dup6\n        /* \"#utility.yul\":1121:1143   */\n      add\n        /* \"#utility.yul\":1100:1153   */\n      tag_138\n      jump\t// in\n    tag_190:\n        /* \"#utility.yul\":1090:1153   */\n      swap2\n      pop\n        /* \"#utility.yul\":1046:1163   */\n      pop\n        /* \"#utility.yul\":841:1170   */\n      swap3\n      swap2\n      pop\n      pop\n      jump\t// out\n        /* \"#utility.yul\":1176:1266   */\n    tag_139:\n        /* \"#utility.yul\":1210:1217   */\n      0x00\n        /* \"#utility.yul\":1253:1258   */\n      dup2\n        /* \"#utility.yul\":1246:1259   */\n      iszero\n        /* \"#utility.yul\":1239:1260   */\n      iszero\n        /* \"#utility.yul\":1228:1260   */\n      swap1\n      pop\n        /* \"#utility.yul\":1176:1266   */\n      swap2\n      swap1\n      pop\n      jump\t// out\n        /* \"#utility.yul\":1272:1381   */\n    tag_140:\n        /* \"#utility.yul\":1353:1374   */\n      tag_193\n        /* \"#utility.yul\":1368:1373   */\n      dup2\n        /* \"#utility.yul\":1353:1374   */\n      tag_139\n      jump\t// in\n    tag_193:\n        /* \"#utility.yul\":1348:1351   */\n      dup3\n        /* \"#utility.yul\":1341:1375   */\n      mstore\n        /* \"#utility.yul\":1272:1381   */\n      pop\n      pop\n      jump\t// out\n        /* \"#utility.yul\":1387:1597   */\n    tag_19:\n        /* \"#utility.yul\":1474:1478   */\n      0x00\n        /* \"#utility.yul\":1512:1514   */\n      0x20\n        /* \"#utility.yul\":1501:1510   */\n      dup3\n        /* \"#utility.yul\":1497:1515   */\n      add\n        /* \"#utility.yul\":1489:1515   */\n      swap1\n      pop\n        /* \"#utility.yul\":1525:1590   */\n      tag_195\n        /* \"#utility.yul\":1587:1588   */\n      0x00\n        /* \"#utility.yul\":1576:1585   */\n      dup4\n        /* \"#utility.yul\":1572:1589   */\n      add\n        /* \"#utility.yul\":1563:1569   */\n      dup5\n        /* \"#utility.yul\":1525:1590   */\n      tag_140\n      jump\t// in\n    tag_195:\n        /* \"#utility.yul\":1387:1597   */\n      swap3\n      swap2\n      pop\n      pop\n      jump\t// out\n        /* \"#utility.yul\":1603:1680   */\n    tag_141:\n        /* \"#utility.yul\":1640:1647   */\n      0x00\n        /* \"#utility.yul\":1669:1674   */\n      dup2\n        /* \"#utility.yul\":1658:1674   */\n      swap1\n      pop\n        /* \"#utility.yul\":1603:1680   */\n      swap2\n      swap1\n      pop\n      jump\t// out\n        /* \"#utility.yul\":1686:1804   */\n    tag_142:\n        /* \"#utility.yul\":1773:1797   */\n      tag_198\n        /* \"#utility.yul\":1791:1796   */\n      dup2\n        /* \"#utility.yul\":1773:1797   */\n      tag_141\n      jump\t// in\n    tag_198:\n        /* \"#utility.yul\":1768:1771   */\n      dup3\n        /* \"#utility.yul\":1761:1798   */\n      mstore\n        /* \"#utility.yul\":1686:1804   */\n      pop\n      pop\n      jump\t// out\n        /* \"#utility.yul\":1810:2032   */\n    tag_31:\n        /* \"#utility.yul\":1903:1907   */\n      0x00\n        /* \"#utility.yul\":1941:1943   */\n      0x20\n        /* \"#utility.yul\":1930:1939   */\n      dup3\n        /* \"#utility.yul\":1926:1944   */\n      add\n        /* \"#utility.yul\":1918:1944   */\n      swap1\n      pop\n        /* \"#utility.yul\":1954:2025   */\n      tag_200\n        /* \"#utility.yul\":2022:2023   */\n      0x00\n        /* \"#utility.yul\":2011:2020   */\n      dup4\n        /* \"#utility.yul\":2007:2024   */\n      add\n        /* \"#utility.yul\":1998:2004   */\n      dup5\n        /* \"#utility.yul\":1954:2025   */\n      tag_142\n      jump\t// in\n    tag_200:\n        /* \"#utility.yul\":1810:2032   */\n      swap3\n      swap2\n      pop\n      pop\n      jump\t// out\n        /* \"#utility.yul\":2038:2156   */\n    tag_143:\n        /* \"#utility.yul\":2125:2149   */\n      tag_202\n        /* \"#utility.yul\":2143:2148   */\n      dup2\n        /* \"#utility.yul\":2125:2149   */\n      tag_136\n      jump\t// in\n    tag_202:\n        /* \"#utility.yul\":2120:2123   */\n      dup3\n        /* \"#utility.yul\":2113:2150   */\n      mstore\n        /* \"#utility.yul\":2038:2156   */\n      pop\n      pop\n      jump\t// out\n        /* \"#utility.yul\":2162:2384   */\n    tag_36:\n        /* \"#utility.yul\":2255:2259   */\n      0x00\n        /* \"#utility.yul\":2293:2295   */\n      0x20\n        /* \"#utility.yul\":2282:2291   */\n      dup3\n        /* \"#utility.yul\":2278:2296   */\n      add\n        /* \"#utility.yul\":2270:2296   */\n      swap1\n      pop\n        /* \"#utility.yul\":2306:2377   */\n      tag_204\n        /* \"#utility.yul\":2374:2375   */\n      0x00\n        /* \"#utility.yul\":2363:2372   */\n      dup4\n        /* \"#utility.yul\":2359:2376   */\n      add\n        /* \"#utility.yul\":2350:2356   */\n      dup5\n        /* \"#utility.yul\":2306:2377   */\n      tag_143\n      jump\t// in\n    tag_204:\n        /* \"#utility.yul\":2162:2384   */\n      swap3\n      swap2\n      pop\n      pop\n      jump\t// out\n        /* \"#utility.yul\":2390:2504   */\n    tag_144:\n        /* \"#utility.yul\":2457:2463   */\n      0x00\n        /* \"#utility.yul\":2491:2496   */\n      dup2\n        /* \"#utility.yul\":2485:2497   */\n      mload\n        /* \"#utility.yul\":2475:2497   */\n      swap1\n      pop\n        /* \"#utility.yul\":2390:2504   */\n      swap2\n      swap1\n      pop\n      jump\t// out\n        /* \"#utility.yul\":2510:2694   */\n    tag_145:\n        /* \"#utility.yul\":2609:2620   */\n      0x00\n        /* \"#utility.yul\":2643:2649   */\n      dup3\n        /* \"#utility.yul\":2638:2641   */\n      dup3\n        /* \"#utility.yul\":2631:2650   */\n      mstore\n        /* \"#utility.yul\":2683:2687   */\n      0x20\n        /* \"#utility.yul\":2678:2681   */\n      dup3\n        /* \"#utility.yul\":2674:2688   */\n      add\n        /* \"#utility.yul\":2659:2688   */\n      swap1\n      pop\n        /* \"#utility.yul\":2510:2694   */\n      swap3\n      swap2\n      pop\n      pop\n      jump\t// out\n        /* \"#utility.yul\":2700:2832   */\n    tag_146:\n        /* \"#utility.yul\":2767:2771   */\n      0x00\n        /* \"#utility.yul\":2790:2793   */\n      dup2\n        /* \"#utility.yul\":2782:2793   */\n      swap1\n      pop\n        /* \"#utility.yul\":2820:2824   */\n      0x20\n        /* \"#utility.yul\":2815:2818   */\n      dup3\n        /* \"#utility.yul\":2811:2825   */\n      add\n        /* \"#utility.yul\":2803:2825   */\n      swap1\n      pop\n        /* \"#utility.yul\":2700:2832   */\n      swap2\n      swap1\n      pop\n      jump\t// out\n        /* \"#utility.yul\":2838:2946   */\n    tag_147:\n        /* \"#utility.yul\":2915:2939   */\n      tag_209\n        /* \"#utility.yul\":2933:2938   */\n      dup2\n        /* \"#utility.yul\":2915:2939   */\n      tag_136\n      jump\t// in\n    tag_209:\n        /* \"#utility.yul\":2910:2913   */\n      dup3\n        /* \"#utility.yul\":2903:2940   */\n      mstore\n        /* \"#utility.yul\":2838:2946   */\n      pop\n      pop\n      jump\t// out\n        /* \"#utility.yul\":2952:3131   */\n    tag_148:\n        /* \"#utility.yul\":3021:3031   */\n      0x00\n        /* \"#utility.yul\":3042:3088   */\n      tag_211\n        /* \"#utility.yul\":3084:3087   */\n      dup4\n        /* \"#utility.yul\":3076:3082   */\n      dup4\n        /* \"#utility.yul\":3042:3088   */\n      tag_147\n      jump\t// in\n    tag_211:\n        /* \"#utility.yul\":3120:3124   */\n      0x20\n        /* \"#utility.yul\":3115:3118   */\n      dup4\n        /* \"#utility.yul\":3111:3125   */\n      add\n        /* \"#utility.yul\":3097:3125   */\n      swap1\n      pop\n        /* \"#utility.yul\":2952:3131   */\n      swap3\n      swap2\n      pop\n      pop\n      jump\t// out\n        /* \"#utility.yul\":3137:3250   */\n    tag_149:\n        /* \"#utility.yul\":3207:3211   */\n      0x00\n        /* \"#utility.yul\":3239:3243   */\n      0x20\n        /* \"#utility.yul\":3234:3237   */\n      dup3\n        /* \"#utility.yul\":3230:3244   */\n      add\n        /* \"#utility.yul\":3222:3244   */\n      swap1\n      pop\n        /* \"#utility.yul\":3137:3250   */\n      swap2\n      swap1\n      pop\n      jump\t// out\n        /* \"#utility.yul\":3286:4018   */\n    tag_150:\n        /* \"#utility.yul\":3405:3408   */\n      0x00\n        /* \"#utility.yul\":3434:3488   */\n      tag_214\n        /* \"#utility.yul\":3482:3487   */\n      dup3\n        /* \"#utility.yul\":3434:3488   */\n      tag_144\n      jump\t// in\n    tag_214:\n        /* \"#utility.yul\":3504:3590   */\n      tag_215\n        /* \"#utility.yul\":3583:3589   */\n      dup2\n        /* \"#utility.yul\":3578:3581   */\n      dup6\n        /* \"#utility.yul\":3504:3590   */\n      tag_145\n      jump\t// in\n    tag_215:\n        /* \"#utility.yul\":3497:3590   */\n      swap4\n      pop\n        /* \"#utility.yul\":3614:3670   */\n      tag_216\n        /* \"#utility.yul\":3664:3669   */\n      dup4\n        /* \"#utility.yul\":3614:3670   */\n      tag_146\n      jump\t// in\n    tag_216:\n        /* \"#utility.yul\":3693:3700   */\n      dup1\n        /* \"#utility.yul\":3724:3725   */\n      0x00\n        /* \"#utility.yul\":3709:3993   */\n    tag_217:\n        /* \"#utility.yul\":3734:3740   */\n      dup4\n        /* \"#utility.yul\":3731:3732   */\n      dup2\n        /* \"#utility.yul\":3728:3741   */\n      lt\n        /* \"#utility.yul\":3709:3993   */\n      iszero\n      tag_219\n      jumpi\n        /* \"#utility.yul\":3810:3816   */\n      dup2\n        /* \"#utility.yul\":3804:3817   */\n      mload\n        /* \"#utility.yul\":3837:3900   */\n      tag_220\n        /* \"#utility.yul\":3896:3899   */\n      dup9\n        /* \"#utility.yul\":3881:3894   */\n      dup3\n        /* \"#utility.yul\":3837:3900   */\n      tag_148\n      jump\t// in\n    tag_220:\n        /* \"#utility.yul\":3830:3900   */\n      swap8\n      pop\n        /* \"#utility.yul\":3923:3983   */\n      tag_221\n        /* \"#utility.yul\":3976:3982   */\n      dup4\n        /* \"#utility.yul\":3923:3983   */\n      tag_149\n      jump\t// in\n    tag_221:\n        /* \"#utility.yul\":3913:3983   */\n      swap3\n      pop\n        /* \"#utility.yul\":3769:3993   */\n      pop\n        /* \"#utility.yul\":3756:3757   */\n      0x01\n        /* \"#utility.yul\":3753:3754   */\n      dup2\n        /* \"#utility.yul\":3749:3758   */\n      add\n        /* \"#utility.yul\":3744:3758   */\n      swap1\n      pop\n        /* \"#utility.yul\":3709:3993   */\n      jump(tag_217)\n    tag_219:\n        /* \"#utility.yul\":3713:3727   */\n      pop\n        /* \"#utility.yul\":4009:4012   */\n      dup6\n        /* \"#utility.yul\":4002:4012   */\n      swap4\n      pop\n        /* \"#utility.yul\":3410:4018   */\n      pop\n      pop\n      pop\n        /* \"#utility.yul\":3286:4018   */\n      swap3\n      swap2\n      pop\n      pop\n      jump\t// out\n        /* \"#utility.yul\":4024:4397   */\n    tag_44:\n        /* \"#utility.yul\":4167:4171   */\n      0x00\n        /* \"#utility.yul\":4205:4207   */\n      0x20\n        /* \"#utility.yul\":4194:4203   */\n      dup3\n        /* \"#utility.yul\":4190:4208   */\n      add\n        /* \"#utility.yul\":4182:4208   */\n      swap1\n      pop\n        /* \"#utility.yul\":4254:4263   */\n      dup2\n        /* \"#utility.yul\":4248:4252   */\n      dup2\n        /* \"#utility.yul\":4244:4264   */\n      sub\n        /* \"#utility.yul\":4240:4241   */\n      0x00\n        /* \"#utility.yul\":4229:4238   */\n      dup4\n        /* \"#utility.yul\":4225:4242   */\n      add\n        /* \"#utility.yul\":4218:4265   */\n      mstore\n        /* \"#utility.yul\":4282:4390   */\n      tag_223\n        /* \"#utility.yul\":4385:4389   */\n      dup2\n        /* \"#utility.yul\":4376:4382   */\n      dup5\n        /* \"#utility.yul\":4282:4390   */\n      tag_150\n      jump\t// in\n    tag_223:\n        /* \"#utility.yul\":4274:4390   */\n      swap1\n      pop\n        /* \"#utility.yul\":4024:4397   */\n      swap3\n      swap2\n      pop\n      pop\n      jump\t// out\n        /* \"#utility.yul\":4403:4525   */\n    tag_151:\n        /* \"#utility.yul\":4476:4500   */\n      tag_225\n        /* \"#utility.yul\":4494:4499   */\n      dup2\n        /* \"#utility.yul\":4476:4500   */\n      tag_141\n      jump\t// in\n    tag_225:\n        /* \"#utility.yul\":4469:4474   */\n      dup2\n        /* \"#utility.yul\":4466:4501   */\n      eq\n        /* \"#utility.yul\":4456:4519   */\n      tag_226\n      jumpi\n        /* \"#utility.yul\":4515:4516   */\n      0x00\n        /* \"#utility.yul\":4512:4513   */\n      0x00\n        /* \"#utility.yul\":4505:4517   */\n      revert\n        /* \"#utility.yul\":4456:4519   */\n    tag_226:\n        /* \"#utility.yul\":4403:4525   */\n      pop\n      jump\t// out\n        /* \"#utility.yul\":4531:4670   */\n    tag_152:\n        /* \"#utility.yul\":4577:4582   */\n      0x00\n        /* \"#utility.yul\":4615:4621   */\n      dup2\n        /* \"#utility.yul\":4602:4622   */\n      calldataload\n        /* \"#utility.yul\":4593:4622   */\n      swap1\n      pop\n        /* \"#utility.yul\":4631:4664   */\n      tag_228\n        /* \"#utility.yul\":4658:4663   */\n      dup2\n        /* \"#utility.yul\":4631:4664   */\n      tag_151\n      jump\t// in\n    tag_228:\n        /* \"#utility.yul\":4531:4670   */\n      swap3\n      swap2\n      pop\n      pop\n      jump\t// out\n        /* \"#utility.yul\":4676:5005   */\n    tag_53:\n        /* \"#utility.yul\":4735:4741   */\n      0x00\n        /* \"#utility.yul\":4784:4786   */\n      0x20\n        /* \"#utility.yul\":4772:4781   */\n      dup3\n        /* \"#utility.yul\":4763:4770   */\n      dup5\n        /* \"#utility.yul\":4759:4782   */\n      sub\n        /* \"#utility.yul\":4755:4787   */\n      slt\n        /* \"#utility.yul\":4752:4871   */\n      iszero\n      tag_230\n      jumpi\n        /* \"#utility.yul\":4790:4869   */\n      tag_231\n      tag_133\n      jump\t// in\n    tag_231:\n        /* \"#utility.yul\":4752:4871   */\n    tag_230:\n        /* \"#utility.yul\":4910:4911   */\n      0x00\n        /* \"#utility.yul\":4935:4988   */\n      tag_232\n        /* \"#utility.yul\":4980:4987   */\n      dup5\n        /* \"#utility.yul\":4971:4977   */\n      dup3\n        /* \"#utility.yul\":4960:4969   */\n      dup6\n        /* \"#utility.yul\":4956:4978   */\n      add\n        /* \"#utility.yul\":4935:4988   */\n      tag_152\n      jump\t// in\n    tag_232:\n        /* \"#utility.yul\":4925:4988   */\n      swap2\n      pop\n        /* \"#utility.yul\":4881:4998   */\n      pop\n        /* \"#utility.yul\":4676:5005   */\n      swap3\n      swap2\n      pop\n      pop\n      jump\t// out\n        /* \"#utility.yul\":5011:5191   */\n    tag_62:\n        /* \"#utility.yul\":5059:5136   */\n      0x4e487b7100000000000000000000000000000000000000000000000000000000\n        /* \"#utility.yul\":5056:5057   */\n      0x00\n        /* \"#utility.yul\":5049:5137   */\n      mstore\n        /* \"#utility.yul\":5156:5160   */\n      0x32\n        /* \"#utility.yul\":5153:5154   */\n      0x04\n        /* \"#utility.yul\":5146:5161   */\n      mstore\n        /* \"#utility.yul\":5180:5184   */\n      0x24\n        /* \"#utility.yul\":5177:5178   */\n      0x00\n        /* \"#utility.yul\":5170:5185   */\n      revert\n        /* \"#utility.yul\":5197:5366   */\n    tag_153:\n        /* \"#utility.yul\":5281:5292   */\n      0x00\n        /* \"#utility.yul\":5315:5321   */\n      dup3\n        /* \"#utility.yul\":5310:5313   */\n      dup3\n        /* \"#utility.yul\":5303:5322   */\n      mstore\n        /* \"#utility.yul\":5355:5359   */\n      0x20\n        /* \"#utility.yul\":5350:5353   */\n      dup3\n        /* \"#utility.yul\":5346:5360   */\n      add\n        /* \"#utility.yul\":5331:5360   */\n      swap1\n      pop\n        /* \"#utility.yul\":5197:5366   */\n      swap3\n      swap2\n      pop\n      pop\n      jump\t// out\n        /* \"#utility.yul\":5372:5594   */\n    tag_154:\n        /* \"#utility.yul\":5512:5546   */\n      0x6f6e6c7920746865206d616e616765722063616e2063616c6c20746869732066\n        /* \"#utility.yul\":5508:5509   */\n      0x00\n        /* \"#utility.yul\":5500:5506   */\n      dup3\n        /* \"#utility.yul\":5496:5510   */\n      add\n        /* \"#utility.yul\":5489:5547   */\n      mstore\n        /* \"#utility.yul\":5581:5586   */\n      0x756e630000000000000000000000000000000000000000000000000000000000\n        /* \"#utility.yul\":5576:5578   */\n      0x20\n        /* \"#utility.yul\":5568:5574   */\n      dup3\n        /* \"#utility.yul\":5564:5579   */\n      add\n        /* \"#utility.yul\":5557:5587   */\n      mstore\n        /* \"#utility.yul\":5372:5594   */\n      pop\n      jump\t// out\n        /* \"#utility.yul\":5600:5966   */\n    tag_155:\n        /* \"#utility.yul\":5742:5745   */\n      0x00\n        /* \"#utility.yul\":5763:5830   */\n      tag_237\n        /* \"#utility.yul\":5827:5829   */\n      0x23\n        /* \"#utility.yul\":5822:5825   */\n      dup4\n        /* \"#utility.yul\":5763:5830   */\n      tag_153\n      jump\t// in\n    tag_237:\n        /* \"#utility.yul\":5756:5830   */\n      swap2\n      pop\n        /* \"#utility.yul\":5839:5932   */\n      tag_238\n        /* \"#utility.yul\":5928:5931   */\n      dup3\n        /* \"#utility.yul\":5839:5932   */\n      tag_154\n      jump\t// in\n    tag_238:\n        /* \"#utility.yul\":5957:5959   */\n      0x40\n        /* \"#utility.yul\":5952:5955   */\n      dup3\n        /* \"#utility.yul\":5948:5960   */\n      add\n        /* \"#utility.yul\":5941:5960   */\n      swap1\n      pop\n        /* \"#utility.yul\":5600:5966   */\n      swap2\n      swap1\n      pop\n      jump\t// out\n        /* \"#utility.yul\":5972:6391   */\n    tag_68:\n        /* \"#utility.yul\":6138:6142   */\n      0x00\n        /* \"#utility.yul\":6176:6178   */\n      0x20\n        /* \"#utility.yul\":6165:6174   */\n      dup3\n        /* \"#utility.yul\":6161:6179   */\n      add\n        /* \"#utility.yul\":6153:6179   */\n      swap1\n      pop\n        /* \"#utility.yul\":6225:6234   */\n      dup2\n        /* \"#utility.yul\":6219:6223   */\n      dup2\n        /* \"#utility.yul\":6215:6235   */\n      sub\n        /* \"#utility.yul\":6211:6212   */\n      0x00\n        /* \"#utility.yul\":6200:6209   */\n      dup4\n        /* \"#utility.yul\":6196:6213   */\n      add\n        /* \"#utility.yul\":6189:6236   */\n      mstore\n        /* \"#utility.yul\":6253:6384   */\n      tag_240\n        /* \"#utility.yul\":6379:6383   */\n      dup2\n        /* \"#utility.yul\":6253:6384   */\n      tag_155\n      jump\t// in\n    tag_240:\n        /* \"#utility.yul\":6245:6384   */\n      swap1\n      pop\n        /* \"#utility.yul\":5972:6391   */\n      swap2\n      swap1\n      pop\n      jump\t// out\n        /* \"#utility.yul\":6397:6569   */\n    tag_156:\n        /* \"#utility.yul\":6537:6561   */\n      0x42657474696e6720616c726561647920636c6f73656400000000000000000000\n        /* \"#utility.yul\":6533:6534   */\n      0x00\n        /* \"#utility.yul\":6525:6531   */\n      dup3\n        /* \"#utility.yul\":6521:6535   */\n      add\n        /* \"#utility.yul\":6514:6562   */\n      mstore\n        /* \"#utility.yul\":6397:6569   */\n      pop\n      jump\t// out\n        /* \"#utility.yul\":6575:6941   */\n    tag_157:\n        /* \"#utility.yul\":6717:6720   */\n      0x00\n        /* \"#utility.yul\":6738:6805   */\n      tag_243\n        /* \"#utility.yul\":6802:6804   */\n      0x16\n        /* \"#utility.yul\":6797:6800   */\n      dup4\n        /* \"#utility.yul\":6738:6805   */\n      tag_153\n      jump\t// in\n    tag_243:\n        /* \"#utility.yul\":6731:6805   */\n      swap2\n      pop\n        /* \"#utility.yul\":6814:6907   */\n      tag_244\n        /* \"#utility.yul\":6903:6906   */\n      dup3\n        /* \"#utility.yul\":6814:6907   */\n      tag_156\n      jump\t// in\n    tag_244:\n        /* \"#utility.yul\":6932:6934   */\n      0x20\n        /* \"#utility.yul\":6927:6930   */\n      dup3\n        /* \"#utility.yul\":6923:6935   */\n      add\n        /* \"#utility.yul\":6916:6935   */\n      swap1\n      pop\n        /* \"#utility.yul\":6575:6941   */\n      swap2\n      swap1\n      pop\n      jump\t// out\n        /* \"#utility.yul\":6947:7366   */\n    tag_72:\n        /* \"#utility.yul\":7113:7117   */\n      0x00\n        /* \"#utility.yul\":7151:7153   */\n      0x20\n        /* \"#utility.yul\":7140:7149   */\n      dup3\n        /* \"#utility.yul\":7136:7154   */\n      add\n        /* \"#utility.yul\":7128:7154   */\n      swap1\n      pop\n        /* \"#utility.yul\":7200:7209   */\n      dup2\n        /* \"#utility.yul\":7194:7198   */\n      dup2\n        /* \"#utility.yul\":7190:7210   */\n      sub\n        /* \"#utility.yul\":7186:7187   */\n      0x00\n        /* \"#utility.yul\":7175:7184   */\n      dup4\n        /* \"#utility.yul\":7171:7188   */\n      add\n        /* \"#utility.yul\":7164:7211   */\n      mstore\n        /* \"#utility.yul\":7228:7359   */\n      tag_246\n        /* \"#utility.yul\":7354:7358   */\n      dup2\n        /* \"#utility.yul\":7228:7359   */\n      tag_157\n      jump\t// in\n    tag_246:\n        /* \"#utility.yul\":7220:7359   */\n      swap1\n      pop\n        /* \"#utility.yul\":6947:7366   */\n      swap2\n      swap1\n      pop\n      jump\t// out\n        /* \"#utility.yul\":7372:7532   */\n    tag_158:\n        /* \"#utility.yul\":7512:7524   */\n      0x4e6f20706c617965727300000000000000000000000000000000000000000000\n        /* \"#utility.yul\":7508:7509   */\n      0x00\n        /* \"#utility.yul\":7500:7506   */\n      dup3\n        /* \"#utility.yul\":7496:7510   */\n      add\n        /* \"#utility.yul\":7489:7525   */\n      mstore\n        /* \"#utility.yul\":7372:7532   */\n      pop\n      jump\t// out\n        /* \"#utility.yul\":7538:7904   */\n    tag_159:\n        /* \"#utility.yul\":7680:7683   */\n      0x00\n        /* \"#utility.yul\":7701:7768   */\n      tag_249\n        /* \"#utility.yul\":7765:7767   */\n      0x0a\n        /* \"#utility.yul\":7760:7763   */\n      dup4\n        /* \"#utility.yul\":7701:7768   */\n      tag_153\n      jump\t// in\n    tag_249:\n        /* \"#utility.yul\":7694:7768   */\n      swap2\n      pop\n        /* \"#utility.yul\":7777:7870   */\n      tag_250\n        /* \"#utility.yul\":7866:7869   */\n      dup3\n        /* \"#utility.yul\":7777:7870   */\n      tag_158\n      jump\t// in\n    tag_250:\n        /* \"#utility.yul\":7895:7897   */\n      0x20\n        /* \"#utility.yul\":7890:7893   */\n      dup3\n        /* \"#utility.yul\":7886:7898   */\n      add\n        /* \"#utility.yul\":7879:7898   */\n      swap1\n      pop\n        /* \"#utility.yul\":7538:7904   */\n      swap2\n      swap1\n      pop\n      jump\t// out\n        /* \"#utility.yul\":7910:8329   */\n    tag_79:\n        /* \"#utility.yul\":8076:8080   */\n      0x00\n        /* \"#utility.yul\":8114:8116   */\n      0x20\n        /* \"#utility.yul\":8103:8112   */\n      dup3\n        /* \"#utility.yul\":8099:8117   */\n      add\n        /* \"#utility.yul\":8091:8117   */\n      swap1\n      pop\n        /* \"#utility.yul\":8163:8172   */\n      dup2\n        /* \"#utility.yul\":8157:8161   */\n      dup2\n        /* \"#utility.yul\":8153:8173   */\n      sub\n        /* \"#utility.yul\":8149:8150   */\n      0x00\n        /* \"#utility.yul\":8138:8147   */\n      dup4\n        /* \"#utility.yul\":8134:8151   */\n      add\n        /* \"#utility.yul\":8127:8174   */\n      mstore\n        /* \"#utility.yul\":8191:8322   */\n      tag_252\n        /* \"#utility.yul\":8317:8321   */\n      dup2\n        /* \"#utility.yul\":8191:8322   */\n      tag_159\n      jump\t// in\n    tag_252:\n        /* \"#utility.yul\":8183:8322   */\n      swap1\n      pop\n        /* \"#utility.yul\":7910:8329   */\n      swap2\n      swap1\n      pop\n      jump\t// out\n        /* \"#utility.yul\":8335:8504   */\n    tag_160:\n        /* \"#utility.yul\":8475:8496   */\n      0x42657474696e67206973206e6f74206f70656e00000000000000000000000000\n        /* \"#utility.yul\":8471:8472   */\n      0x00\n        /* \"#utility.yul\":8463:8469   */\n      dup3\n        /* \"#utility.yul\":8459:8473   */\n      add\n        /* \"#utility.yul\":8452:8497   */\n      mstore\n        /* \"#utility.yul\":8335:8504   */\n      pop\n      jump\t// out\n        /* \"#utility.yul\":8510:8876   */\n    tag_161:\n        /* \"#utility.yul\":8652:8655   */\n      0x00\n        /* \"#utility.yul\":8673:8740   */\n      tag_255\n        /* \"#utility.yul\":8737:8739   */\n      0x13\n        /* \"#utility.yul\":8732:8735   */\n      dup4\n        /* \"#utility.yul\":8673:8740   */\n      tag_153\n      jump\t// in\n    tag_255:\n        /* \"#utility.yul\":8666:8740   */\n      swap2\n      pop\n        /* \"#utility.yul\":8749:8842   */\n      tag_256\n        /* \"#utility.yul\":8838:8841   */\n      dup3\n        /* \"#utility.yul\":8749:8842   */\n      tag_160\n      jump\t// in\n    tag_256:\n        /* \"#utility.yul\":8867:8869   */\n      0x20\n        /* \"#utility.yul\":8862:8865   */\n      dup3\n        /* \"#utility.yul\":8858:8870   */\n      add\n        /* \"#utility.yul\":8851:8870   */\n      swap1\n      pop\n        /* \"#utility.yul\":8510:8876   */\n      swap2\n      swap1\n      pop\n      jump\t// out\n        /* \"#utility.yul\":8882:9301   */\n    tag_82:\n        /* \"#utility.yul\":9048:9052   */\n      0x00\n        /* \"#utility.yul\":9086:9088   */\n      0x20\n        /* \"#utility.yul\":9075:9084   */\n      dup3\n        /* \"#utility.yul\":9071:9089   */\n      add\n        /* \"#utility.yul\":9063:9089   */\n      swap1\n      pop\n        /* \"#utility.yul\":9135:9144   */\n      dup2\n        /* \"#utility.yul\":9129:9133   */\n      dup2\n        /* \"#utility.yul\":9125:9145   */\n      sub\n        /* \"#utility.yul\":9121:9122   */\n      0x00\n        /* \"#utility.yul\":9110:9119   */\n      dup4\n        /* \"#utility.yul\":9106:9123   */\n      add\n        /* \"#utility.yul\":9099:9146   */\n      mstore\n        /* \"#utility.yul\":9163:9294   */\n      tag_258\n        /* \"#utility.yul\":9289:9293   */\n      dup2\n        /* \"#utility.yul\":9163:9294   */\n      tag_161\n      jump\t// in\n    tag_258:\n        /* \"#utility.yul\":9155:9294   */\n      swap1\n      pop\n        /* \"#utility.yul\":8882:9301   */\n      swap2\n      swap1\n      pop\n      jump\t// out\n        /* \"#utility.yul\":9307:9386   */\n    tag_162:\n        /* \"#utility.yul\":9346:9353   */\n      0x00\n        /* \"#utility.yul\":9375:9380   */\n      dup2\n        /* \"#utility.yul\":9364:9380   */\n      swap1\n      pop\n        /* \"#utility.yul\":9307:9386   */\n      swap2\n      swap1\n      pop\n      jump\t// out\n        /* \"#utility.yul\":9392:9549   */\n    tag_163:\n        /* \"#utility.yul\":9497:9542   */\n      tag_261\n        /* \"#utility.yul\":9517:9541   */\n      tag_262\n        /* \"#utility.yul\":9535:9540   */\n      dup3\n        /* \"#utility.yul\":9517:9541   */\n      tag_141\n      jump\t// in\n    tag_262:\n        /* \"#utility.yul\":9497:9542   */\n      tag_162\n      jump\t// in\n    tag_261:\n        /* \"#utility.yul\":9492:9495   */\n      dup3\n        /* \"#utility.yul\":9485:9543   */\n      mstore\n        /* \"#utility.yul\":9392:9549   */\n      pop\n      pop\n      jump\t// out\n        /* \"#utility.yul\":9555:10093   */\n    tag_84:\n        /* \"#utility.yul\":9723:9726   */\n      0x00\n        /* \"#utility.yul\":9738:9813   */\n      tag_264\n        /* \"#utility.yul\":9809:9812   */\n      dup3\n        /* \"#utility.yul\":9800:9806   */\n      dup7\n        /* \"#utility.yul\":9738:9813   */\n      tag_163\n      jump\t// in\n    tag_264:\n        /* \"#utility.yul\":9838:9840   */\n      0x20\n        /* \"#utility.yul\":9833:9836   */\n      dup3\n        /* \"#utility.yul\":9829:9841   */\n      add\n        /* \"#utility.yul\":9822:9841   */\n      swap2\n      pop\n        /* \"#utility.yul\":9851:9926   */\n      tag_265\n        /* \"#utility.yul\":9922:9925   */\n      dup3\n        /* \"#utility.yul\":9913:9919   */\n      dup6\n        /* \"#utility.yul\":9851:9926   */\n      tag_163\n      jump\t// in\n    tag_265:\n        /* \"#utility.yul\":9951:9953   */\n      0x20\n        /* \"#utility.yul\":9946:9949   */\n      dup3\n        /* \"#utility.yul\":9942:9954   */\n      add\n        /* \"#utility.yul\":9935:9954   */\n      swap2\n      pop\n        /* \"#utility.yul\":9964:10039   */\n      tag_266\n        /* \"#utility.yul\":10035:10038   */\n      dup3\n        /* \"#utility.yul\":10026:10032   */\n      dup5\n        /* \"#utility.yul\":9964:10039   */\n      tag_163\n      jump\t// in\n    tag_266:\n        /* \"#utility.yul\":10064:10066   */\n      0x20\n        /* \"#utility.yul\":10059:10062   */\n      dup3\n        /* \"#utility.yul\":10055:10067   */\n      add\n        /* \"#utility.yul\":10048:10067   */\n      swap2\n      pop\n        /* \"#utility.yul\":10084:10087   */\n      dup2\n        /* \"#utility.yul\":10077:10087   */\n      swap1\n      pop\n        /* \"#utility.yul\":9555:10093   */\n      swap5\n      swap4\n      pop\n      pop\n      pop\n      pop\n      jump\t// out\n        /* \"#utility.yul\":10099:10279   */\n    tag_164:\n        /* \"#utility.yul\":10147:10224   */\n      0x4e487b7100000000000000000000000000000000000000000000000000000000\n        /* \"#utility.yul\":10144:10145   */\n      0x00\n        /* \"#utility.yul\":10137:10225   */\n      mstore\n        /* \"#utility.yul\":10244:10248   */\n      0x12\n        /* \"#utility.yul\":10241:10242   */\n      0x04\n        /* \"#utility.yul\":10234:10249   */\n      mstore\n        /* \"#utility.yul\":10268:10272   */\n      0x24\n        /* \"#utility.yul\":10265:10266   */\n      0x00\n        /* \"#utility.yul\":10258:10273   */\n      revert\n        /* \"#utility.yul\":10285:10461   */\n    tag_86:\n        /* \"#utility.yul\":10317:10318   */\n      0x00\n        /* \"#utility.yul\":10334:10354   */\n      tag_269\n        /* \"#utility.yul\":10352:10353   */\n      dup3\n        /* \"#utility.yul\":10334:10354   */\n      tag_141\n      jump\t// in\n    tag_269:\n        /* \"#utility.yul\":10329:10354   */\n      swap2\n      pop\n        /* \"#utility.yul\":10368:10388   */\n      tag_270\n        /* \"#utility.yul\":10386:10387   */\n      dup4\n        /* \"#utility.yul\":10368:10388   */\n      tag_141\n      jump\t// in\n    tag_270:\n        /* \"#utility.yul\":10363:10388   */\n      swap3\n      pop\n        /* \"#utility.yul\":10407:10408   */\n      dup3\n        /* \"#utility.yul\":10397:10432   */\n      tag_271\n      jumpi\n        /* \"#utility.yul\":10412:10430   */\n      tag_272\n      tag_164\n      jump\t// in\n    tag_272:\n        /* \"#utility.yul\":10397:10432   */\n    tag_271:\n        /* \"#utility.yul\":10453:10454   */\n      dup3\n        /* \"#utility.yul\":10450:10451   */\n      dup3\n        /* \"#utility.yul\":10446:10455   */\n      mod\n        /* \"#utility.yul\":10441:10455   */\n      swap1\n      pop\n        /* \"#utility.yul\":10285:10461   */\n      swap3\n      swap2\n      pop\n      pop\n      jump\t// out\n        /* \"#utility.yul\":10467:10637   */\n    tag_165:\n        /* \"#utility.yul\":10607:10629   */\n      0x42657474696e6720616c7265616479206f70656e000000000000000000000000\n        /* \"#utility.yul\":10603:10604   */\n      0x00\n        /* \"#utility.yul\":10595:10601   */\n      dup3\n        /* \"#utility.yul\":10591:10605   */\n      add\n        /* \"#utility.yul\":10584:10630   */\n      mstore\n        /* \"#utility.yul\":10467:10637   */\n      pop\n      jump\t// out\n        /* \"#utility.yul\":10643:11009   */\n    tag_166:\n        /* \"#utility.yul\":10785:10788   */\n      0x00\n        /* \"#utility.yul\":10806:10873   */\n      tag_275\n        /* \"#utility.yul\":10870:10872   */\n      0x14\n        /* \"#utility.yul\":10865:10868   */\n      dup4\n        /* \"#utility.yul\":10806:10873   */\n      tag_153\n      jump\t// in\n    tag_275:\n        /* \"#utility.yul\":10799:10873   */\n      swap2\n      pop\n        /* \"#utility.yul\":10882:10975   */\n      tag_276\n        /* \"#utility.yul\":10971:10974   */\n      dup3\n        /* \"#utility.yul\":10882:10975   */\n      tag_165\n      jump\t// in\n    tag_276:\n        /* \"#utility.yul\":11000:11002   */\n      0x20\n        /* \"#utility.yul\":10995:10998   */\n      dup3\n        /* \"#utility.yul\":10991:11003   */\n      add\n        /* \"#utility.yul\":10984:11003   */\n      swap1\n      pop\n        /* \"#utility.yul\":10643:11009   */\n      swap2\n      swap1\n      pop\n      jump\t// out\n        /* \"#utility.yul\":11015:11434   */\n    tag_104:\n        /* \"#utility.yul\":11181:11185   */\n      0x00\n        /* \"#utility.yul\":11219:11221   */\n      0x20\n        /* \"#utility.yul\":11208:11217   */\n      dup3\n        /* \"#utility.yul\":11204:11222   */\n      add\n        /* \"#utility.yul\":11196:11222   */\n      swap1\n      pop\n        /* \"#utility.yul\":11268:11277   */\n      dup2\n        /* \"#utility.yul\":11262:11266   */\n      dup2\n        /* \"#utility.yul\":11258:11278   */\n      sub\n        /* \"#utility.yul\":11254:11255   */\n      0x00\n        /* \"#utility.yul\":11243:11252   */\n      dup4\n        /* \"#utility.yul\":11239:11256   */\n      add\n        /* \"#utility.yul\":11232:11279   */\n      mstore\n        /* \"#utility.yul\":11296:11427   */\n      tag_278\n        /* \"#utility.yul\":11422:11426   */\n      dup2\n        /* \"#utility.yul\":11296:11427   */\n      tag_166\n      jump\t// in\n    tag_278:\n        /* \"#utility.yul\":11288:11427   */\n      swap1\n      pop\n        /* \"#utility.yul\":11015:11434   */\n      swap2\n      swap1\n      pop\n      jump\t// out\n        /* \"#utility.yul\":11440:11609   */\n    tag_167:\n        /* \"#utility.yul\":11580:11601   */\n      0x6f776e65722063616e27742062657474696e6700000000000000000000000000\n        /* \"#utility.yul\":11576:11577   */\n      0x00\n        /* \"#utility.yul\":11568:11574   */\n      dup3\n        /* \"#utility.yul\":11564:11578   */\n      add\n        /* \"#utility.yul\":11557:11602   */\n      mstore\n        /* \"#utility.yul\":11440:11609   */\n      pop\n      jump\t// out\n        /* \"#utility.yul\":11615:11981   */\n    tag_168:\n        /* \"#utility.yul\":11757:11760   */\n      0x00\n        /* \"#utility.yul\":11778:11845   */\n      tag_281\n        /* \"#utility.yul\":11842:11844   */\n      0x13\n        /* \"#utility.yul\":11837:11840   */\n      dup4\n        /* \"#utility.yul\":11778:11845   */\n      tag_153\n      jump\t// in\n    tag_281:\n        /* \"#utility.yul\":11771:11845   */\n      swap2\n      pop\n        /* \"#utility.yul\":11854:11947   */\n      tag_282\n        /* \"#utility.yul\":11943:11946   */\n      dup3\n        /* \"#utility.yul\":11854:11947   */\n      tag_167\n      jump\t// in\n    tag_282:\n        /* \"#utility.yul\":11972:11974   */\n      0x20\n        /* \"#utility.yul\":11967:11970   */\n      dup3\n        /* \"#utility.yul\":11963:11975   */\n      add\n        /* \"#utility.yul\":11956:11975   */\n      swap1\n      pop\n        /* \"#utility.yul\":11615:11981   */\n      swap2\n      swap1\n      pop\n      jump\t// out\n        /* \"#utility.yul\":11987:12406   */\n    tag_108:\n        /* \"#utility.yul\":12153:12157   */\n      0x00\n        /* \"#utility.yul\":12191:12193   */\n      0x20\n        /* \"#utility.yul\":12180:12189   */\n      dup3\n        /* \"#utility.yul\":12176:12194   */\n      add\n        /* \"#utility.yul\":12168:12194   */\n      swap1\n      pop\n        /* \"#utility.yul\":12240:12249   */\n      dup2\n        /* \"#utility.yul\":12234:12238   */\n      dup2\n        /* \"#utility.yul\":12230:12250   */\n      sub\n        /* \"#utility.yul\":12226:12227   */\n      0x00\n        /* \"#utility.yul\":12215:12224   */\n      dup4\n        /* \"#utility.yul\":12211:12228   */\n      add\n        /* \"#utility.yul\":12204:12251   */\n      mstore\n        /* \"#utility.yul\":12268:12399   */\n      tag_284\n        /* \"#utility.yul\":12394:12398   */\n      dup2\n        /* \"#utility.yul\":12268:12399   */\n      tag_168\n      jump\t// in\n    tag_284:\n        /* \"#utility.yul\":12260:12399   */\n      swap1\n      pop\n        /* \"#utility.yul\":11987:12406   */\n      swap2\n      swap1\n      pop\n      jump\t// out\n        /* \"#utility.yul\":12412:12582   */\n    tag_169:\n        /* \"#utility.yul\":12552:12574   */\n      0x416c726561647920706172746963697061746564000000000000000000000000\n        /* \"#utility.yul\":12548:12549   */\n      0x00\n        /* \"#utility.yul\":12540:12546   */\n      dup3\n        /* \"#utility.yul\":12536:12550   */\n      add\n        /* \"#utility.yul\":12529:12575   */\n      mstore\n        /* \"#utility.yul\":12412:12582   */\n      pop\n      jump\t// out\n        /* \"#utility.yul\":12588:12954   */\n    tag_170:\n        /* \"#utility.yul\":12730:12733   */\n      0x00\n        /* \"#utility.yul\":12751:12818   */\n      tag_287\n        /* \"#utility.yul\":12815:12817   */\n      0x14\n        /* \"#utility.yul\":12810:12813   */\n      dup4\n        /* \"#utility.yul\":12751:12818   */\n      tag_153\n      jump\t// in\n    tag_287:\n        /* \"#utility.yul\":12744:12818   */\n      swap2\n      pop\n        /* \"#utility.yul\":12827:12920   */\n      tag_288\n        /* \"#utility.yul\":12916:12919   */\n      dup3\n        /* \"#utility.yul\":12827:12920   */\n      tag_169\n      jump\t// in\n    tag_288:\n        /* \"#utility.yul\":12945:12947   */\n      0x20\n        /* \"#utility.yul\":12940:12943   */\n      dup3\n        /* \"#utility.yul\":12936:12948   */\n      add\n        /* \"#utility.yul\":12929:12948   */\n      swap1\n      pop\n        /* \"#utility.yul\":12588:12954   */\n      swap2\n      swap1\n      pop\n      jump\t// out\n        /* \"#utility.yul\":12960:13379   */\n    tag_113:\n        /* \"#utility.yul\":13126:13130   */\n      0x00\n        /* \"#utility.yul\":13164:13166   */\n      0x20\n        /* \"#utility.yul\":13153:13162   */\n      dup3\n        /* \"#utility.yul\":13149:13167   */\n      add\n        /* \"#utility.yul\":13141:13167   */\n      swap1\n      pop\n        /* \"#utility.yul\":13213:13222   */\n      dup2\n        /* \"#utility.yul\":13207:13211   */\n      dup2\n        /* \"#utility.yul\":13203:13223   */\n      sub\n        /* \"#utility.yul\":13199:13200   */\n      0x00\n        /* \"#utility.yul\":13188:13197   */\n      dup4\n        /* \"#utility.yul\":13184:13201   */\n      add\n        /* \"#utility.yul\":13177:13224   */\n      mstore\n        /* \"#utility.yul\":13241:13372   */\n      tag_290\n        /* \"#utility.yul\":13367:13371   */\n      dup2\n        /* \"#utility.yul\":13241:13372   */\n      tag_170\n      jump\t// in\n    tag_290:\n        /* \"#utility.yul\":13233:13372   */\n      swap1\n      pop\n        /* \"#utility.yul\":12960:13379   */\n      swap2\n      swap1\n      pop\n      jump\t// out\n        /* \"#utility.yul\":13385:13562   */\n    tag_171:\n        /* \"#utility.yul\":13525:13554   */\n      0x426574206d7573742062652065786163746c7920312065746865720000000000\n        /* \"#utility.yul\":13521:13522   */\n      0x00\n        /* \"#utility.yul\":13513:13519   */\n      dup3\n        /* \"#utility.yul\":13509:13523   */\n      add\n        /* \"#utility.yul\":13502:13555   */\n      mstore\n        /* \"#utility.yul\":13385:13562   */\n      pop\n      jump\t// out\n        /* \"#utility.yul\":13568:13934   */\n    tag_172:\n        /* \"#utility.yul\":13710:13713   */\n      0x00\n        /* \"#utility.yul\":13731:13798   */\n      tag_293\n        /* \"#utility.yul\":13795:13797   */\n      0x1b\n        /* \"#utility.yul\":13790:13793   */\n      dup4\n        /* \"#utility.yul\":13731:13798   */\n      tag_153\n      jump\t// in\n    tag_293:\n        /* \"#utility.yul\":13724:13798   */\n      swap2\n      pop\n        /* \"#utility.yul\":13807:13900   */\n      tag_294\n        /* \"#utility.yul\":13896:13899   */\n      dup3\n        /* \"#utility.yul\":13807:13900   */\n      tag_171\n      jump\t// in\n    tag_294:\n        /* \"#utility.yul\":13925:13927   */\n      0x20\n        /* \"#utility.yul\":13920:13923   */\n      dup3\n        /* \"#utility.yul\":13916:13928   */\n      add\n        /* \"#utility.yul\":13909:13928   */\n      swap1\n      pop\n        /* \"#utility.yul\":13568:13934   */\n      swap2\n      swap1\n      pop\n      jump\t// out\n        /* \"#utility.yul\":13940:14359   */\n    tag_117:\n        /* \"#utility.yul\":14106:14110   */\n      0x00\n        /* \"#utility.yul\":14144:14146   */\n      0x20\n        /* \"#utility.yul\":14133:14142   */\n      dup3\n        /* \"#utility.yul\":14129:14147   */\n      add\n        /* \"#utility.yul\":14121:14147   */\n      swap1\n      pop\n        /* \"#utility.yul\":14193:14202   */\n      dup2\n        /* \"#utility.yul\":14187:14191   */\n      dup2\n        /* \"#utility.yul\":14183:14203   */\n      sub\n        /* \"#utility.yul\":14179:14180   */\n      0x00\n        /* \"#utility.yul\":14168:14177   */\n      dup4\n        /* \"#utility.yul\":14164:14181   */\n      add\n        /* \"#utility.yul\":14157:14204   */\n      mstore\n        /* \"#utility.yul\":14221:14352   */\n      tag_296\n        /* \"#utility.yul\":14347:14351   */\n      dup2\n        /* \"#utility.yul\":14221:14352   */\n      tag_172\n      jump\t// in\n    tag_296:\n        /* \"#utility.yul\":14213:14352   */\n      swap1\n      pop\n        /* \"#utility.yul\":13940:14359   */\n      swap2\n      swap1\n      pop\n      jump\t// out\n        /* \"#utility.yul\":14365:14532   */\n    tag_173:\n        /* \"#utility.yul\":14505:14524   */\n      0x42657474696e6720697320636c6f736564000000000000000000000000000000\n        /* \"#utility.yul\":14501:14502   */\n      0x00\n        /* \"#utility.yul\":14493:14499   */\n      dup3\n        /* \"#utility.yul\":14489:14503   */\n      add\n        /* \"#utility.yul\":14482:14525   */\n      mstore\n        /* \"#utility.yul\":14365:14532   */\n      pop\n      jump\t// out\n        /* \"#utility.yul\":14538:14904   */\n    tag_174:\n        /* \"#utility.yul\":14680:14683   */\n      0x00\n        /* \"#utility.yul\":14701:14768   */\n      tag_299\n        /* \"#utility.yul\":14765:14767   */\n      0x11\n        /* \"#utility.yul\":14760:14763   */\n      dup4\n        /* \"#utility.yul\":14701:14768   */\n      tag_153\n      jump\t// in\n    tag_299:\n        /* \"#utility.yul\":14694:14768   */\n      swap2\n      pop\n        /* \"#utility.yul\":14777:14870   */\n      tag_300\n        /* \"#utility.yul\":14866:14869   */\n      dup3\n        /* \"#utility.yul\":14777:14870   */\n      tag_173\n      jump\t// in\n    tag_300:\n        /* \"#utility.yul\":14895:14897   */\n      0x20\n        /* \"#utility.yul\":14890:14893   */\n      dup3\n        /* \"#utility.yul\":14886:14898   */\n      add\n        /* \"#utility.yul\":14879:14898   */\n      swap1\n      pop\n        /* \"#utility.yul\":14538:14904   */\n      swap2\n      swap1\n      pop\n      jump\t// out\n        /* \"#utility.yul\":14910:15329   */\n    tag_121:\n        /* \"#utility.yul\":15076:15080   */\n      0x00\n        /* \"#utility.yul\":15114:15116   */\n      0x20\n        /* \"#utility.yul\":15103:15112   */\n      dup3\n        /* \"#utility.yul\":15099:15117   */\n      add\n        /* \"#utility.yul\":15091:15117   */\n      swap1\n      pop\n        /* \"#utility.yul\":15163:15172   */\n      dup2\n        /* \"#utility.yul\":15157:15161   */\n      dup2\n        /* \"#utility.yul\":15153:15173   */\n      sub\n        /* \"#utility.yul\":15149:15150   */\n      0x00\n        /* \"#utility.yul\":15138:15147   */\n      dup4\n        /* \"#utility.yul\":15134:15151   */\n      add\n        /* \"#utility.yul\":15127:15174   */\n      mstore\n        /* \"#utility.yul\":15191:15322   */\n      tag_302\n        /* \"#utility.yul\":15317:15321   */\n      dup2\n        /* \"#utility.yul\":15191:15322   */\n      tag_174\n      jump\t// in\n    tag_302:\n        /* \"#utility.yul\":15183:15322   */\n      swap1\n      pop\n        /* \"#utility.yul\":14910:15329   */\n      swap2\n      swap1\n      pop\n      jump\t// out\n\n    auxdata: 0xa2646970667358221220e6b7f3127e44372d0080a380d1c12ab3fb2e825bd8c24e1aa92263352a9c938264736f6c63430008200033\n}\n",
				"bytecode": {
					"linkReferences": {},
					"object": "6080604052348015600e575f5ffd5b50335f5f6101000a81548173ffffffffffffffffffffffffffffffffffffffff021916908373ffffffffffffffffffffffffffffffffffffffff1602179055505f60025f6101000a81548160ff02191690831515021790555061119c806100745f395ff3fe608060405260043610610090575f3560e01c80635d495aea116100585780635d495aea146101645780638b5b9ccc1461017a578063e10b020c146101a4578063e97dcb62146101ba578063f71d96cb146101c457610090565b806309c95e101461009457806315ac534d146100d057806315b19770146100e65780633f9326af14610110578063481c6a751461013a575b5f5ffd5b34801561009f575f5ffd5b506100ba60048036038101906100b59190610abf565b610200565b6040516100c79190610b04565b60405180910390f35b3480156100db575f5ffd5b506100e46102a2565b005b3480156100f1575f5ffd5b506100fa610399565b6040516101079190610b04565b60405180910390f35b34801561011b575f5ffd5b506101246103ab565b6040516101319190610b35565b60405180910390f35b348015610145575f5ffd5b5061014e6103b7565b60405161015b9190610b5d565b60405180910390f35b34801561016f575f5ffd5b506101786103db565b005b348015610185575f5ffd5b5061018e610649565b60405161019b9190610c2d565b60405180910390f35b3480156101af575f5ffd5b506101b86106d4565b005b6101c26107cd565b005b3480156101cf575f5ffd5b506101ea60048036038101906101e59190610c77565b6109ee565b6040516101f79190610b5d565b60405180910390f35b5f5f5f90505b600180549050811015610298578273ffffffffffffffffffffffffffffffffffffffff166001828154811061023e5761023d610ca2565b5b905f5260205f20015f9054906101000a900473ffffffffffffffffffffffffffffffffffffffff1673ffffffffffffffffffffffffffffffffffffffff160361028b57600191505061029d565b8080600101915050610206565b505f90505b919050565b5f5f9054906101000a900473ffffffffffffffffffffffffffffffffffffffff1673ffffffffffffffffffffffffffffffffffffffff163373ffffffffffffffffffffffffffffffffffffffff1614610330576040517f08c379a000000000000000000000000000000000000000000000000000000000815260040161032790610d4f565b60405180910390fd5b60025f9054906101000a900460ff1661037e576040517f08c379a000000000000000000000000000000000000000000000000000000000815260040161037590610db7565b60405180910390fd5b5f60025f6101000a81548160ff021916908315150217905550565b60025f9054906101000a900460ff1681565b670de0b6b3a764000081565b5f5f9054906101000a900473ffffffffffffffffffffffffffffffffffffffff1681565b5f5f9054906101000a900473ffffffffffffffffffffffffffffffffffffffff1673ffffffffffffffffffffffffffffffffffffffff163373ffffffffffffffffffffffffffffffffffffffff1614610469576040517f08c379a000000000000000000000000000000000000000000000000000000000815260040161046090610d4f565b60405180910390fd5b6001808054905010156104b1576040517f08c379a00000000000000000000000000000000000000000000000000000000081526004016104a890610e1f565b60405180910390fd5b60025f9054906101000a900460ff166104ff576040517f08c379a00000000000000000000000000000000000000000000000000000000081526004016104f690610e87565b60405180910390fd5b5f60025f6101000a81548160ff0219169083151502179055505f434260018054905060405160200161053393929190610ec5565b604051602081830303815290604052805190602001205f1c90505f6001805490508261055f9190610f2e565b90505f6001828154811061057657610575610ca2565b5b905f5260205f20015f9054906101000a900473ffffffffffffffffffffffffffffffffffffffff1690505f4790508173ffffffffffffffffffffffffffffffffffffffff166108fc8290811502906040515f60405180830381858888f193505050501580156105e7573d5f5f3e3d5ffd5b508173ffffffffffffffffffffffffffffffffffffffff167f64791dbae5677392ba76761a5273633cec8f1d9d8cfe808da7bac6ef16a880be8260405161062e9190610b35565b60405180910390a260015f6106439190610a29565b50505050565b606060018054806020026020016040519081016040528092919081815260200182805480156106ca57602002820191905f5260205f20905b815f9054906101000a900473ffffffffffffffffffffffffffffffffffffffff1673ffffffffffffffffffffffffffffffffffffffff1681526020019060010190808311610681575b5050505050905090565b5f5f9054906101000a900473ffffffffffffffffffffffffffffffffffffffff1673ffffffffffffffffffffffffffffffffffffffff163373ffffffffffffffffffffffffffffffffffffffff1614610762576040517f08c379a000000000000000000000000000000000000000000000000000000000815260040161075990610d4f565b60405180910390fd5b60025f9054906101000a900460ff16156107b1576040517f08c379a00000000000000000000000000000000000000000000000000000000081526004016107a890610fa8565b60405180910390fd5b600160025f6101000a81548160ff021916908315150217905550565b5f5f9054906101000a900473ffffffffffffffffffffffffffffffffffffffff1673ffffffffffffffffffffffffffffffffffffffff163373ffffffffffffffffffffffffffffffffffffffff160361085b576040517f08c379a000000000000000000000000000000000000000000000000000000000815260040161085290611010565b60405180910390fd5b61086433610200565b156108a4576040517f08c379a000000000000000000000000000000000000000000000000000000000815260040161089b90611078565b60405180910390fd5b34670de0b6b3a764000081146108ef576040517f08c379a00000000000000000000000000000000000000000000000000000000081526004016108e6906110e0565b60405180910390fd5b60025f9054906101000a900460ff1661093d576040517f08c379a000000000000000000000000000000000000000000000000000000000815260040161093490611148565b60405180910390fd5b600133908060018154018082558091505060019003905f5260205f20015f9091909190916101000a81548173ffffffffffffffffffffffffffffffffffffffff021916908373ffffffffffffffffffffffffffffffffffffffff1602179055503373ffffffffffffffffffffffffffffffffffffffff167fdfa035759b60c9f517f9eb9a5b345defa640ecf072027d1e7aba79271e7ab857346040516109e39190610b35565b60405180910390a250565b600181815481106109fd575f80fd5b905f5260205f20015f915054906101000a900473ffffffffffffffffffffffffffffffffffffffff1681565b5080545f8255905f5260205f2090610a419190610a44565b50565b5f5b80821115610a5c578281015f9055600101610a46565b505090565b5f5ffd5b5f73ffffffffffffffffffffffffffffffffffffffff82169050919050565b5f610a8e82610a65565b9050919050565b610a9e81610a84565b8114610aa8575f5ffd5b50565b5f81359050610ab981610a95565b92915050565b5f60208284031215610ad457610ad3610a61565b5b5f610ae184828501610aab565b91505092915050565b5f8115159050919050565b610afe81610aea565b82525050565b5f602082019050610b175f830184610af5565b92915050565b5f819050919050565b610b2f81610b1d565b82525050565b5f602082019050610b485f830184610b26565b92915050565b610b5781610a84565b82525050565b5f602082019050610b705f830184610b4e565b92915050565b5f81519050919050565b5f82825260208201905092915050565b5f819050602082019050919050565b610ba881610a84565b82525050565b5f610bb98383610b9f565b60208301905092915050565b5f602082019050919050565b5f610bdb82610b76565b610be58185610b80565b9350610bf083610b90565b805f5b83811015610c20578151610c078882610bae565b9750610c1283610bc5565b925050600181019050610bf3565b5085935050505092915050565b5f6020820190508181035f830152610c458184610bd1565b905092915050565b610c5681610b1d565b8114610c60575f5ffd5b50565b5f81359050610c7181610c4d565b92915050565b5f60208284031215610c8c57610c8b610a61565b5b5f610c9984828501610c63565b91505092915050565b7f4e487b71000000000000000000000000000000000000000000000000000000005f52603260045260245ffd5b5f82825260208201905092915050565b7f6f6e6c7920746865206d616e616765722063616e2063616c6c207468697320665f8201527f756e630000000000000000000000000000000000000000000000000000000000602082015250565b5f610d39602383610ccf565b9150610d4482610cdf565b604082019050919050565b5f6020820190508181035f830152610d6681610d2d565b9050919050565b7f42657474696e6720616c726561647920636c6f736564000000000000000000005f82015250565b5f610da1601683610ccf565b9150610dac82610d6d565b602082019050919050565b5f6020820190508181035f830152610dce81610d95565b9050919050565b7f4e6f20706c6179657273000000000000000000000000000000000000000000005f82015250565b5f610e09600a83610ccf565b9150610e1482610dd5565b602082019050919050565b5f6020820190508181035f830152610e3681610dfd565b9050919050565b7f42657474696e67206973206e6f74206f70656e000000000000000000000000005f82015250565b5f610e71601383610ccf565b9150610e7c82610e3d565b602082019050919050565b5f6020820190508181035f830152610e9e81610e65565b9050919050565b5f819050919050565b610ebf610eba82610b1d565b610ea5565b82525050565b5f610ed08286610eae565b602082019150610ee08285610eae565b602082019150610ef08284610eae565b602082019150819050949350505050565b7f4e487b71000000000000000000000000000000000000000000000000000000005f52601260045260245ffd5b5f610f3882610b1d565b9150610f4383610b1d565b925082610f5357610f52610f01565b5b828206905092915050565b7f42657474696e6720616c7265616479206f70656e0000000000000000000000005f82015250565b5f610f92601483610ccf565b9150610f9d82610f5e565b602082019050919050565b5f6020820190508181035f830152610fbf81610f86565b9050919050565b7f6f776e65722063616e27742062657474696e67000000000000000000000000005f82015250565b5f610ffa601383610ccf565b915061100582610fc6565b602082019050919050565b5f6020820190508181035f83015261102781610fee565b9050919050565b7f416c7265616479207061727469636970617465640000000000000000000000005f82015250565b5f611062601483610ccf565b915061106d8261102e565b602082019050919050565b5f6020820190508181035f83015261108f81611056565b9050919050565b7f426574206d7573742062652065786163746c79203120657468657200000000005f82015250565b5f6110ca601b83610ccf565b91506110d582611096565b602082019050919050565b5f6020820190508181035f8301526110f7816110be565b9050919050565b7f42657474696e6720697320636c6f7365640000000000000000000000000000005f82015250565b5f611132601183610ccf565b915061113d826110fe565b602082019050919050565b5f6020820190508181035f83015261115f81611126565b905091905056fea2646970667358221220e6b7f3127e44372d0080a380d1c12ab3fb2e825bd8c24e1aa92263352a9c938264736f6c63430008200033",
					"opcodes": "PUSH1 0x80 PUSH1 0x40 MSTORE CALLVALUE DUP1 ISZERO PUSH1 0xE JUMPI PUSH0 PUSH0 REVERT JUMPDEST POP CALLER PUSH0 PUSH0 PUSH2 0x100 EXP DUP2 SLOAD DUP2 PUSH20 0xFFFFFFFFFFFFFFFFFFFFFFFFFFFFFFFFFFFFFFFF MUL NOT AND SWAP1 DUP4 PUSH20 0xFFFFFFFFFFFFFFFFFFFFFFFFFFFFFFFFFFFFFFFF AND MUL OR SWAP1 SSTORE POP PUSH0 PUSH1 0x2 PUSH0 PUSH2 0x100 EXP DUP2 SLOAD DUP2 PUSH1 0xFF MUL NOT AND SWAP1 DUP4 ISZERO ISZERO MUL OR SWAP1 SSTORE POP PUSH2 0x119C DUP1 PUSH2 0x74 PUSH0 CODECOPY PUSH0 RETURN INVALID PUSH1 0x80 PUSH1 0x40 MSTORE PUSH1 0x4 CALLDATASIZE LT PUSH2 0x90 JUMPI PUSH0 CALLDATALOAD PUSH1 0xE0 SHR DUP1 PUSH4 0x5D495AEA GT PUSH2 0x58 JUMPI DUP1 PUSH4 0x5D495AEA EQ PUSH2 0x164 JUMPI DUP1 PUSH4 0x8B5B9CCC EQ PUSH2 0x17A JUMPI DUP1 PUSH4 0xE10B020C EQ PUSH2 0x1A4 JUMPI DUP1 PUSH4 0xE97DCB62 EQ PUSH2 0x1BA JUMPI DUP1 PUSH4 0xF71D96CB EQ PUSH2 0x1C4 JUMPI PUSH2 0x90 JUMP JUMPDEST DUP1 PUSH4 0x9C95E10 EQ PUSH2 0x94 JUMPI DUP1 PUSH4 0x15AC534D EQ PUSH2 0xD0 JUMPI DUP1 PUSH4 0x15B19770 EQ PUSH2 0xE6 JUMPI DUP1 PUSH4 0x3F9326AF EQ PUSH2 0x110 JUMPI DUP1 PUSH4 0x481C6A75 EQ PUSH2 0x13A JUMPI JUMPDEST PUSH0 PUSH0 REVERT JUMPDEST CALLVALUE DUP1 ISZERO PUSH2 0x9F JUMPI PUSH0 PUSH0 REVERT JUMPDEST POP PUSH2 0xBA PUSH1 0x4 DUP1 CALLDATASIZE SUB DUP2 ADD SWAP1 PUSH2 0xB5 SWAP2 SWAP1 PUSH2 0xABF JUMP JUMPDEST PUSH2 0x200 JUMP JUMPDEST PUSH1 0x40 MLOAD PUSH2 0xC7 SWAP2 SWAP1 PUSH2 0xB04 JUMP JUMPDEST PUSH1 0x40 MLOAD DUP1 SWAP2 SUB SWAP1 RETURN JUMPDEST CALLVALUE DUP1 ISZERO PUSH2 0xDB JUMPI PUSH0 PUSH0 REVERT JUMPDEST POP PUSH2 0xE4 PUSH2 0x2A2 JUMP JUMPDEST STOP JUMPDEST CALLVALUE DUP1 ISZERO PUSH2 0xF1 JUMPI PUSH0 PUSH0 REVERT JUMPDEST POP PUSH2 0xFA PUSH2 0x399 JUMP JUMPDEST PUSH1 0x40 MLOAD PUSH2 0x107 SWAP2 SWAP1 PUSH2 0xB04 JUMP JUMPDEST PUSH1 0x40 MLOAD DUP1 SWAP2 SUB SWAP1 RETURN JUMPDEST CALLVALUE DUP1 ISZERO PUSH2 0x11B JUMPI PUSH0 PUSH0 REVERT JUMPDEST POP PUSH2 0x124 PUSH2 0x3AB JUMP JUMPDEST PUSH1 0x40 MLOAD PUSH2 0x131 SWAP2 SWAP1 PUSH2 0xB35 JUMP JUMPDEST PUSH1 0x40 MLOAD DUP1 SWAP2 SUB SWAP1 RETURN JUMPDEST CALLVALUE DUP1 ISZERO PUSH2 0x145 JUMPI PUSH0 PUSH0 REVERT JUMPDEST POP PUSH2 0x14E PUSH2 0x3B7 JUMP JUMPDEST PUSH1 0x40 MLOAD PUSH2 0x15B SWAP2 SWAP1 PUSH2 0xB5D JUMP JUMPDEST PUSH1 0x40 MLOAD DUP1 SWAP2 SUB SWAP1 RETURN JUMPDEST CALLVALUE DUP1 ISZERO PUSH2 0x16F JUMPI PUSH0 PUSH0 REVERT JUMPDEST POP PUSH2 0x178 PUSH2 0x3DB JUMP JUMPDEST STOP JUMPDEST CALLVALUE DUP1 ISZERO PUSH2 0x185 JUMPI PUSH0 PUSH0 REVERT JUMPDEST POP PUSH2 0x18E PUSH2 0x649 JUMP JUMPDEST PUSH1 0x40 MLOAD PUSH2 0x19B SWAP2 SWAP1 PUSH2 0xC2D JUMP JUMPDEST PUSH1 0x40 MLOAD DUP1 SWAP2 SUB SWAP1 RETURN JUMPDEST CALLVALUE DUP1 ISZERO PUSH2 0x1AF JUMPI PUSH0 PUSH0 REVERT JUMPDEST POP PUSH2 0x1B8 PUSH2 0x6D4 JUMP JUMPDEST STOP JUMPDEST PUSH2 0x1C2 PUSH2 0x7CD JUMP JUMPDEST STOP JUMPDEST CALLVALUE DUP1 ISZERO PUSH2 0x1CF JUMPI PUSH0 PUSH0 REVERT JUMPDEST POP PUSH2 0x1EA PUSH1 0x4 DUP1 CALLDATASIZE SUB DUP2 ADD SWAP1 PUSH2 0x1E5 SWAP2 SWAP1 PUSH2 0xC77 JUMP JUMPDEST PUSH2 0x9EE JUMP JUMPDEST PUSH1 0x40 MLOAD PUSH2 0x1F7 SWAP2 SWAP1 PUSH2 0xB5D JUMP JUMPDEST PUSH1 0x40 MLOAD DUP1 SWAP2 SUB SWAP1 RETURN JUMPDEST PUSH0 PUSH0 PUSH0 SWAP1 POP JUMPDEST PUSH1 0x1 DUP1 SLOAD SWAP1 POP DUP2 LT ISZERO PUSH2 0x298 JUMPI DUP3 PUSH20 0xFFFFFFFFFFFFFFFFFFFFFFFFFFFFFFFFFFFFFFFF AND PUSH1 0x1 DUP3 DUP2 SLOAD DUP2 LT PUSH2 0x23E JUMPI PUSH2 0x23D PUSH2 0xCA2 JUMP JUMPDEST JUMPDEST SWAP1 PUSH0 MSTORE PUSH1 0x20 PUSH0 KECCAK256 ADD PUSH0 SWAP1 SLOAD SWAP1 PUSH2 0x100 EXP SWAP1 DIV PUSH20 0xFFFFFFFFFFFFFFFFFFFFFFFFFFFFFFFFFFFFFFFF AND PUSH20 0xFFFFFFFFFFFFFFFFFFFFFFFFFFFFFFFFFFFFFFFF AND SUB PUSH2 0x28B JUMPI PUSH1 0x1 SWAP2 POP POP PUSH2 0x29D JUMP JUMPDEST DUP1 DUP1 PUSH1 0x1 ADD SWAP2 POP POP PUSH2 0x206 JUMP JUMPDEST POP PUSH0 SWAP1 POP JUMPDEST SWAP2 SWAP1 POP JUMP JUMPDEST PUSH0 PUSH0 SWAP1 SLOAD SWAP1 PUSH2 0x100 EXP SWAP1 DIV PUSH20 0xFFFFFFFFFFFFFFFFFFFFFFFFFFFFFFFFFFFFFFFF AND PUSH20 0xFFFFFFFFFFFFFFFFFFFFFFFFFFFFFFFFFFFFFFFF AND CALLER PUSH20 0xFFFFFFFFFFFFFFFFFFFFFFFFFFFFFFFFFFFFFFFF AND EQ PUSH2 0x330 JUMPI PUSH1 0x40 MLOAD PUSH32 0x8C379A000000000000000000000000000000000000000000000000000000000 DUP2 MSTORE PUSH1 0x4 ADD PUSH2 0x327 SWAP1 PUSH2 0xD4F JUMP JUMPDEST PUSH1 0x40 MLOAD DUP1 SWAP2 SUB SWAP1 REVERT JUMPDEST PUSH1 0x2 PUSH0 SWAP1 SLOAD SWAP1 PUSH2 0x100 EXP SWAP1 DIV PUSH1 0xFF AND PUSH2 0x37E JUMPI PUSH1 0x40 MLOAD PUSH32 0x8C379A000000000000000000000000000000000000000000000000000000000 DUP2 MSTORE PUSH1 0x4 ADD PUSH2 0x375 SWAP1 PUSH2 0xDB7 JUMP JUMPDEST PUSH1 0x40 MLOAD DUP1 SWAP2 SUB SWAP1 REVERT JUMPDEST PUSH0 PUSH1 0x2 PUSH0 PUSH2 0x100 EXP DUP2 SLOAD DUP2 PUSH1 0xFF MUL NOT AND SWAP1 DUP4 ISZERO ISZERO MUL OR SWAP1 SSTORE POP JUMP JUMPDEST PUSH1 0x2 PUSH0 SWAP1 SLOAD SWAP1 PUSH2 0x100 EXP SWAP1 DIV PUSH1 0xFF AND DUP2 JUMP JUMPDEST PUSH8 0xDE0B6B3A7640000 DUP2 JUMP JUMPDEST PUSH0 PUSH0 SWAP1 SLOAD SWAP1 PUSH2 0x100 EXP SWAP1 DIV PUSH20 0xFFFFFFFFFFFFFFFFFFFFFFFFFFFFFFFFFFFFFFFF AND DUP2 JUMP JUMPDEST PUSH0 PUSH0 SWAP1 SLOAD SWAP1 PUSH2 0x100 EXP SWAP1 DIV PUSH20 0xFFFFFFFFFFFFFFFFFFFFFFFFFFFFFFFFFFFFFFFF AND PUSH20 0xFFFFFFFFFFFFFFFFFFFFFFFFFFFFFFFFFFFFFFFF AND CALLER PUSH20 0xFFFFFFFFFFFFFFFFFFFFFFFFFFFFFFFFFFFFFFFF AND EQ PUSH2 0x469 JUMPI PUSH1 0x40 MLOAD PUSH32 0x8C379A000000000000000000000000000000000000000000000000000000000 DUP2 MSTORE PUSH1 0x4 ADD PUSH2 0x460 SWAP1 PUSH2 0xD4F JUMP JUMPDEST PUSH1 0x40 MLOAD DUP1 SWAP2 SUB SWAP1 REVERT JUMPDEST PUSH1 0x1 DUP1 DUP1 SLOAD SWAP1 POP LT ISZERO PUSH2 0x4B1 JUMPI PUSH1 0x40 MLOAD PUSH32 0x8C379A000000000000000000000000000000000000000000000000000000000 DUP2 MSTORE PUSH1 0x4 ADD PUSH2 0x4A8 SWAP1 PUSH2 0xE1F JUMP JUMPDEST PUSH1 0x40 MLOAD DUP1 SWAP2 SUB SWAP1 REVERT JUMPDEST PUSH1 0x2 PUSH0 SWAP1 SLOAD SWAP1 PUSH2 0x100 EXP SWAP1 DIV PUSH1 0xFF AND PUSH2 0x4FF JUMPI PUSH1 0x40 MLOAD PUSH32 0x8C379A000000000000000000000000000000000000000000000000000000000 DUP2 MSTORE PUSH1 0x4 ADD PUSH2 0x4F6 SWAP1 PUSH2 0xE87 JUMP JUMPDEST PUSH1 0x40 MLOAD DUP1 SWAP2 SUB SWAP1 REVERT JUMPDEST PUSH0 PUSH1 0x2 PUSH0 PUSH2 0x100 EXP DUP2 SLOAD DUP2 PUSH1 0xFF MUL NOT AND SWAP1 DUP4 ISZERO ISZERO MUL OR SWAP1 SSTORE POP PUSH0 NUMBER TIMESTAMP PUSH1 0x1 DUP1 SLOAD SWAP1 POP PUSH1 0x40 MLOAD PUSH1 0x20 ADD PUSH2 0x533 SWAP4 SWAP3 SWAP2 SWAP1 PUSH2 0xEC5 JUMP JUMPDEST PUSH1 0x40 MLOAD PUSH1 0x20 DUP2 DUP4 SUB SUB DUP2 MSTORE SWAP1 PUSH1 0x40 MSTORE DUP1 MLOAD SWAP1 PUSH1 0x20 ADD KECCAK256 PUSH0 SHR SWAP1 POP PUSH0 PUSH1 0x1 DUP1 SLOAD SWAP1 POP DUP3 PUSH2 0x55F SWAP2 SWAP1 PUSH2 0xF2E JUMP JUMPDEST SWAP1 POP PUSH0 PUSH1 0x1 DUP3 DUP2 SLOAD DUP2 LT PUSH2 0x576 JUMPI PUSH2 0x575 PUSH2 0xCA2 JUMP JUMPDEST JUMPDEST SWAP1 PUSH0 MSTORE PUSH1 0x20 PUSH0 KECCAK256 ADD PUSH0 SWAP1 SLOAD SWAP1 PUSH2 0x100 EXP SWAP1 DIV PUSH20 0xFFFFFFFFFFFFFFFFFFFFFFFFFFFFFFFFFFFFFFFF AND SWAP1 POP PUSH0 SELFBALANCE SWAP1 POP DUP2 PUSH20 0xFFFFFFFFFFFFFFFFFFFFFFFFFFFFFFFFFFFFFFFF AND PUSH2 0x8FC DUP3 SWAP1 DUP2 ISZERO MUL SWAP1 PUSH1 0x40 MLOAD PUSH0 PUSH1 0x40 MLOAD DUP1 DUP4 SUB DUP2 DUP6 DUP9 DUP9 CALL SWAP4 POP POP POP POP ISZERO DUP1 ISZERO PUSH2 0x5E7 JUMPI RETURNDATASIZE PUSH0 PUSH0 RETURNDATACOPY RETURNDATASIZE PUSH0 REVERT JUMPDEST POP DUP2 PUSH20 0xFFFFFFFFFFFFFFFFFFFFFFFFFFFFFFFFFFFFFFFF AND PUSH32 0x64791DBAE5677392BA76761A5273633CEC8F1D9D8CFE808DA7BAC6EF16A880BE DUP3 PUSH1 0x40 MLOAD PUSH2 0x62E SWAP2 SWAP1 PUSH2 0xB35 JUMP JUMPDEST PUSH1 0x40 MLOAD DUP1 SWAP2 SUB SWAP1 LOG2 PUSH1 0x1 PUSH0 PUSH2 0x643 SWAP2 SWAP1 PUSH2 0xA29 JUMP JUMPDEST POP POP POP POP JUMP JUMPDEST PUSH1 0x60 PUSH1 0x1 DUP1 SLOAD DUP1 PUSH1 0x20 MUL PUSH1 0x20 ADD PUSH1 0x40 MLOAD SWAP1 DUP2 ADD PUSH1 0x40 MSTORE DUP1 SWAP3 SWAP2 SWAP1 DUP2 DUP2 MSTORE PUSH1 0x20 ADD DUP3 DUP1 SLOAD DUP1 ISZERO PUSH2 0x6CA JUMPI PUSH1 0x20 MUL DUP3 ADD SWAP2 SWAP1 PUSH0 MSTORE PUSH1 0x20 PUSH0 KECCAK256 SWAP1 JUMPDEST DUP2 PUSH0 SWAP1 SLOAD SWAP1 PUSH2 0x100 EXP SWAP1 DIV PUSH20 0xFFFFFFFFFFFFFFFFFFFFFFFFFFFFFFFFFFFFFFFF AND PUSH20 0xFFFFFFFFFFFFFFFFFFFFFFFFFFFFFFFFFFFFFFFF AND DUP2 MSTORE PUSH1 0x20 ADD SWAP1 PUSH1 0x1 ADD SWAP1 DUP1 DUP4 GT PUSH2 0x681 JUMPI JUMPDEST POP POP POP POP POP SWAP1 POP SWAP1 JUMP JUMPDEST PUSH0 PUSH0 SWAP1 SLOAD SWAP1 PUSH2 0x100 EXP SWAP1 DIV PUSH20 0xFFFFFFFFFFFFFFFFFFFFFFFFFFFFFFFFFFFFFFFF AND PUSH20 0xFFFFFFFFFFFFFFFFFFFFFFFFFFFFFFFFFFFFFFFF AND CALLER PUSH20 0xFFFFFFFFFFFFFFFFFFFFFFFFFFFFFFFFFFFFFFFF AND EQ PUSH2 0x762 JUMPI PUSH1 0x40 MLOAD PUSH32 0x8C379A000000000000000000000000000000000000000000000000000000000 DUP2 MSTORE PUSH1 0x4 ADD PUSH2 0x759 SWAP1 PUSH2 0xD4F JUMP JUMPDEST PUSH1 0x40 MLOAD DUP1 SWAP2 SUB SWAP1 REVERT JUMPDEST PUSH1 0x2 PUSH0 SWAP1 SLOAD SWAP1 PUSH2 0x100 EXP SWAP1 DIV PUSH1 0xFF AND ISZERO PUSH2 0x7B1 JUMPI PUSH1 0x40 MLOAD PUSH32 0x8C379A000000000000000000000000000000000000000000000000000000000 DUP2 MSTORE PUSH1 0x4 ADD PUSH2 0x7A8 SWAP1 PUSH2 0xFA8 JUMP JUMPDEST PUSH1 0x40 MLOAD DUP1 SWAP2 SUB SWAP1 REVERT JUMPDEST PUSH1 0x1 PUSH1 0x2 PUSH0 PUSH2 0x100 EXP DUP2 SLOAD DUP2 PUSH1 0xFF MUL NOT AND SWAP1 DUP4 ISZERO ISZERO MUL OR SWAP1 SSTORE POP JUMP JUMPDEST PUSH0 PUSH0 SWAP1 SLOAD SWAP1 PUSH2 0x100 EXP SWAP1 DIV PUSH20 0xFFFFFFFFFFFFFFFFFFFFFFFFFFFFFFFFFFFFFFFF AND PUSH20 0xFFFFFFFFFFFFFFFFFFFFFFFFFFFFFFFFFFFFFFFF AND CALLER PUSH20 0xFFFFFFFFFFFFFFFFFFFFFFFFFFFFFFFFFFFFFFFF AND SUB PUSH2 0x85B JUMPI PUSH1 0x40 MLOAD PUSH32 0x8C379A000000000000000000000000000000000000000000000000000000000 DUP2 MSTORE PUSH1 0x4 ADD PUSH2 0x852 SWAP1 PUSH2 0x1010 JUMP JUMPDEST PUSH1 0x40 MLOAD DUP1 SWAP2 SUB SWAP1 REVERT JUMPDEST PUSH2 0x864 CALLER PUSH2 0x200 JUMP JUMPDEST ISZERO PUSH2 0x8A4 JUMPI PUSH1 0x40 MLOAD PUSH32 0x8C379A000000000000000000000000000000000000000000000000000000000 DUP2 MSTORE PUSH1 0x4 ADD PUSH2 0x89B SWAP1 PUSH2 0x1078 JUMP JUMPDEST PUSH1 0x40 MLOAD DUP1 SWAP2 SUB SWAP1 REVERT JUMPDEST CALLVALUE PUSH8 0xDE0B6B3A7640000 DUP2 EQ PUSH2 0x8EF JUMPI PUSH1 0x40 MLOAD PUSH32 0x8C379A000000000000000000000000000000000000000000000000000000000 DUP2 MSTORE PUSH1 0x4 ADD PUSH2 0x8E6 SWAP1 PUSH2 0x10E0 JUMP JUMPDEST PUSH1 0x40 MLOAD DUP1 SWAP2 SUB SWAP1 REVERT JUMPDEST PUSH1 0x2 PUSH0 SWAP1 SLOAD SWAP1 PUSH2 0x100 EXP SWAP1 DIV PUSH1 0xFF AND PUSH2 0x93D JUMPI PUSH1 0x40 MLOAD PUSH32 0x8C379A000000000000000000000000000000000000000000000000000000000 DUP2 MSTORE PUSH1 0x4 ADD PUSH2 0x934 SWAP1 PUSH2 0x1148 JUMP JUMPDEST PUSH1 0x40 MLOAD DUP1 SWAP2 SUB SWAP1 REVERT JUMPDEST PUSH1 0x1 CALLER SWAP1 DUP1 PUSH1 0x1 DUP2 SLOAD ADD DUP1 DUP3 SSTORE DUP1 SWAP2 POP POP PUSH1 0x1 SWAP1 SUB SWAP1 PUSH0 MSTORE PUSH1 0x20 PUSH0 KECCAK256 ADD PUSH0 SWAP1 SWAP2 SWAP1 SWAP2 SWAP1 SWAP2 PUSH2 0x100 EXP DUP2 SLOAD DUP2 PUSH20 0xFFFFFFFFFFFFFFFFFFFFFFFFFFFFFFFFFFFFFFFF MUL NOT AND SWAP1 DUP4 PUSH20 0xFFFFFFFFFFFFFFFFFFFFFFFFFFFFFFFFFFFFFFFF AND MUL OR SWAP1 SSTORE POP CALLER PUSH20 0xFFFFFFFFFFFFFFFFFFFFFFFFFFFFFFFFFFFFFFFF AND PUSH32 0xDFA035759B60C9F517F9EB9A5B345DEFA640ECF072027D1E7ABA79271E7AB857 CALLVALUE PUSH1 0x40 MLOAD PUSH2 0x9E3 SWAP2 SWAP1 PUSH2 0xB35 JUMP JUMPDEST PUSH1 0x40 MLOAD DUP1 SWAP2 SUB SWAP1 LOG2 POP JUMP JUMPDEST PUSH1 0x1 DUP2 DUP2 SLOAD DUP2 LT PUSH2 0x9FD JUMPI PUSH0 DUP1 REVERT JUMPDEST SWAP1 PUSH0 MSTORE PUSH1 0x20 PUSH0 KECCAK256 ADD PUSH0 SWAP2 POP SLOAD SWAP1 PUSH2 0x100 EXP SWAP1 DIV PUSH20 0xFFFFFFFFFFFFFFFFFFFFFFFFFFFFFFFFFFFFFFFF AND DUP2 JUMP JUMPDEST POP DUP1 SLOAD PUSH0 DUP3 SSTORE SWAP1 PUSH0 MSTORE PUSH1 0x20 PUSH0 KECCAK256 SWAP1 PUSH2 0xA41 SWAP2 SWAP1 PUSH2 0xA44 JUMP JUMPDEST POP JUMP JUMPDEST PUSH0 JUMPDEST DUP1 DUP3 GT ISZERO PUSH2 0xA5C JUMPI DUP3 DUP2 ADD PUSH0 SWAP1 SSTORE PUSH1 0x1 ADD PUSH2 0xA46 JUMP JUMPDEST POP POP SWAP1 JUMP JUMPDEST PUSH0 PUSH0 REVERT JUMPDEST PUSH0 PUSH20 0xFFFFFFFFFFFFFFFFFFFFFFFFFFFFFFFFFFFFFFFF DUP3 AND SWAP1 POP SWAP2 SWAP1 POP JUMP JUMPDEST PUSH0 PUSH2 0xA8E DUP3 PUSH2 0xA65 JUMP JUMPDEST SWAP1 POP SWAP2 SWAP1 POP JUMP JUMPDEST PUSH2 0xA9E DUP2 PUSH2 0xA84 JUMP JUMPDEST DUP2 EQ PUSH2 0xAA8 JUMPI PUSH0 PUSH0 REVERT JUMPDEST POP JUMP JUMPDEST PUSH0 DUP2 CALLDATALOAD SWAP1 POP PUSH2 0xAB9 DUP2 PUSH2 0xA95 JUMP JUMPDEST SWAP3 SWAP2 POP POP JUMP JUMPDEST PUSH0 PUSH1 0x20 DUP3 DUP5 SUB SLT ISZERO PUSH2 0xAD4 JUMPI PUSH2 0xAD3 PUSH2 0xA61 JUMP JUMPDEST JUMPDEST PUSH0 PUSH2 0xAE1 DUP5 DUP3 DUP6 ADD PUSH2 0xAAB JUMP JUMPDEST SWAP2 POP POP SWAP3 SWAP2 POP POP JUMP JUMPDEST PUSH0 DUP2 ISZERO ISZERO SWAP1 POP SWAP2 SWAP1 POP JUMP JUMPDEST PUSH2 0xAFE DUP2 PUSH2 0xAEA JUMP JUMPDEST DUP3 MSTORE POP POP JUMP JUMPDEST PUSH0 PUSH1 0x20 DUP3 ADD SWAP1 POP PUSH2 0xB17 PUSH0 DUP4 ADD DUP5 PUSH2 0xAF5 JUMP JUMPDEST SWAP3 SWAP2 POP POP JUMP JUMPDEST PUSH0 DUP2 SWAP1 POP SWAP2 SWAP1 POP JUMP JUMPDEST PUSH2 0xB2F DUP2 PUSH2 0xB1D JUMP JUMPDEST DUP3 MSTORE POP POP JUMP JUMPDEST PUSH0 PUSH1 0x20 DUP3 ADD SWAP1 POP PUSH2 0xB48 PUSH0 DUP4 ADD DUP5 PUSH2 0xB26 JUMP JUMPDEST SWAP3 SWAP2 POP POP JUMP JUMPDEST PUSH2 0xB57 DUP2 PUSH2 0xA84 JUMP JUMPDEST DUP3 MSTORE POP POP JUMP JUMPDEST PUSH0 PUSH1 0x20 DUP3 ADD SWAP1 POP PUSH2 0xB70 PUSH0 DUP4 ADD DUP5 PUSH2 0xB4E JUMP JUMPDEST SWAP3 SWAP2 POP POP JUMP JUMPDEST PUSH0 DUP2 MLOAD SWAP1 POP SWAP2 SWAP1 POP JUMP JUMPDEST PUSH0 DUP3 DUP3 MSTORE PUSH1 0x20 DUP3 ADD SWAP1 POP SWAP3 SWAP2 POP POP JUMP JUMPDEST PUSH0 DUP2 SWAP1 POP PUSH1 0x20 DUP3 ADD SWAP1 POP SWAP2 SWAP1 POP JUMP JUMPDEST PUSH2 0xBA8 DUP2 PUSH2 0xA84 JUMP JUMPDEST DUP3 MSTORE POP POP JUMP JUMPDEST PUSH0 PUSH2 0xBB9 DUP4 DUP4 PUSH2 0xB9F JUMP JUMPDEST PUSH1 0x20 DUP4 ADD SWAP1 POP SWAP3 SWAP2 POP POP JUMP JUMPDEST PUSH0 PUSH1 0x20 DUP3 ADD SWAP1 POP SWAP2 SWAP1 POP JUMP JUMPDEST PUSH0 PUSH2 0xBDB DUP3 PUSH2 0xB76 JUMP JUMPDEST PUSH2 0xBE5 DUP2 DUP6 PUSH2 0xB80 JUMP JUMPDEST SWAP4 POP PUSH2 0xBF0 DUP4 PUSH2 0xB90 JUMP JUMPDEST DUP1 PUSH0 JUMPDEST DUP4 DUP2 LT ISZERO PUSH2 0xC20 JUMPI DUP2 MLOAD PUSH2 0xC07 DUP9 DUP3 PUSH2 0xBAE JUMP JUMPDEST SWAP8 POP PUSH2 0xC12 DUP4 PUSH2 0xBC5 JUMP JUMPDEST SWAP3 POP POP PUSH1 0x1 DUP2 ADD SWAP1 POP PUSH2 0xBF3 JUMP JUMPDEST POP DUP6 SWAP4 POP POP POP POP SWAP3 SWAP2 POP POP JUMP JUMPDEST PUSH0 PUSH1 0x20 DUP3 ADD SWAP1 POP DUP2 DUP2 SUB PUSH0 DUP4 ADD MSTORE PUSH2 0xC45 DUP2 DUP5 PUSH2 0xBD1 JUMP JUMPDEST SWAP1 POP SWAP3 SWAP2 POP POP JUMP JUMPDEST PUSH2 0xC56 DUP2 PUSH2 0xB1D JUMP JUMPDEST DUP2 EQ PUSH2 0xC60 JUMPI PUSH0 PUSH0 REVERT JUMPDEST POP JUMP JUMPDEST PUSH0 DUP2 CALLDATALOAD SWAP1 POP PUSH2 0xC71 DUP2 PUSH2 0xC4D JUMP JUMPDEST SWAP3 SWAP2 POP POP JUMP JUMPDEST PUSH0 PUSH1 0x20 DUP3 DUP5 SUB SLT ISZERO PUSH2 0xC8C JUMPI PUSH2 0xC8B PUSH2 0xA61 JUMP JUMPDEST JUMPDEST PUSH0 PUSH2 0xC99 DUP5 DUP3 DUP6 ADD PUSH2 0xC63 JUMP JUMPDEST SWAP2 POP POP SWAP3 SWAP2 POP POP JUMP JUMPDEST PUSH32 0x4E487B7100000000000000000000000000000000000000000000000000000000 PUSH0 MSTORE PUSH1 0x32 PUSH1 0x4 MSTORE PUSH1 0x24 PUSH0 REVERT JUMPDEST PUSH0 DUP3 DUP3 MSTORE PUSH1 0x20 DUP3 ADD SWAP1 POP SWAP3 SWAP2 POP POP JUMP JUMPDEST PUSH32 0x6F6E6C7920746865206D616E616765722063616E2063616C6C20746869732066 PUSH0 DUP3 ADD MSTORE PUSH32 0x756E630000000000000000000000000000000000000000000000000000000000 PUSH1 0x20 DUP3 ADD MSTORE POP JUMP JUMPDEST PUSH0 PUSH2 0xD39 PUSH1 0x23 DUP4 PUSH2 0xCCF JUMP JUMPDEST SWAP2 POP PUSH2 0xD44 DUP3 PUSH2 0xCDF JUMP JUMPDEST PUSH1 0x40 DUP3 ADD SWAP1 POP SWAP2 SWAP1 POP JUMP JUMPDEST PUSH0 PUSH1 0x20 DUP3 ADD SWAP1 POP DUP2 DUP2 SUB PUSH0 DUP4 ADD MSTORE PUSH2 0xD66 DUP2 PUSH2 0xD2D JUMP JUMPDEST SWAP1 POP SWAP2 SWAP1 POP JUMP JUMPDEST PUSH32 0x42657474696E6720616C726561647920636C6F73656400000000000000000000 PUSH0 DUP3 ADD MSTORE POP JUMP JUMPDEST PUSH0 PUSH2 0xDA1 PUSH1 0x16 DUP4 PUSH2 0xCCF JUMP JUMPDEST SWAP2 POP PUSH2 0xDAC DUP3 PUSH2 0xD6D JUMP JUMPDEST PUSH1 0x20 DUP3 ADD SWAP1 POP SWAP2 SWAP1 POP JUMP JUMPDEST PUSH0 PUSH1 0x20 DUP3 ADD SWAP1 POP DUP2 DUP2 SUB PUSH0 DUP4 ADD MSTORE PUSH2 0xDCE DUP2 PUSH2 0xD95 JUMP JUMPDEST SWAP1 POP SWAP2 SWAP1 POP JUMP JUMPDEST PUSH32 0x4E6F20706C617965727300000000000000000000000000000000000000000000 PUSH0 DUP3 ADD MSTORE POP JUMP JUMPDEST PUSH0 PUSH2 0xE09 PUSH1 0xA DUP4 PUSH2 0xCCF JUMP JUMPDEST SWAP2 POP PUSH2 0xE14 DUP3 PUSH2 0xDD5 JUMP JUMPDEST PUSH1 0x20 DUP3 ADD SWAP1 POP SWAP2 SWAP1 POP JUMP JUMPDEST PUSH0 PUSH1 0x20 DUP3 ADD SWAP1 POP DUP2 DUP2 SUB PUSH0 DUP4 ADD MSTORE PUSH2 0xE36 DUP2 PUSH2 0xDFD JUMP JUMPDEST SWAP1 POP SWAP2 SWAP1 POP JUMP JUMPDEST PUSH32 0x42657474696E67206973206E6F74206F70656E00000000000000000000000000 PUSH0 DUP3 ADD MSTORE POP JUMP JUMPDEST PUSH0 PUSH2 0xE71 PUSH1 0x13 DUP4 PUSH2 0xCCF JUMP JUMPDEST SWAP2 POP PUSH2 0xE7C DUP3 PUSH2 0xE3D JUMP JUMPDEST PUSH1 0x20 DUP3 ADD SWAP1 POP SWAP2 SWAP1 POP JUMP JUMPDEST PUSH0 PUSH1 0x20 DUP3 ADD SWAP1 POP DUP2 DUP2 SUB PUSH0 DUP4 ADD MSTORE PUSH2 0xE9E DUP2 PUSH2 0xE65 JUMP JUMPDEST SWAP1 POP SWAP2 SWAP1 POP JUMP JUMPDEST PUSH0 DUP2 SWAP1 POP SWAP2 SWAP1 POP JUMP JUMPDEST PUSH2 0xEBF PUSH2 0xEBA DUP3 PUSH2 0xB1D JUMP JUMPDEST PUSH2 0xEA5 JUMP JUMPDEST DUP3 MSTORE POP POP JUMP JUMPDEST PUSH0 PUSH2 0xED0 DUP3 DUP7 PUSH2 0xEAE JUMP JUMPDEST PUSH1 0x20 DUP3 ADD SWAP2 POP PUSH2 0xEE0 DUP3 DUP6 PUSH2 0xEAE JUMP JUMPDEST PUSH1 0x20 DUP3 ADD SWAP2 POP PUSH2 0xEF0 DUP3 DUP5 PUSH2 0xEAE JUMP JUMPDEST PUSH1 0x20 DUP3 ADD SWAP2 POP DUP2 SWAP1 POP SWAP5 SWAP4 POP POP POP POP JUMP JUMPDEST PUSH32 0x4E487B7100000000000000000000000000000000000000000000000000000000 PUSH0 MSTORE PUSH1 0x12 PUSH1 0x4 MSTORE PUSH1 0x24 PUSH0 REVERT JUMPDEST PUSH0 PUSH2 0xF38 DUP3 PUSH2 0xB1D JUMP JUMPDEST SWAP2 POP PUSH2 0xF43 DUP4 PUSH2 0xB1D JUMP JUMPDEST SWAP3 POP DUP3 PUSH2 0xF53 JUMPI PUSH2 0xF52 PUSH2 0xF01 JUMP JUMPDEST JUMPDEST DUP3 DUP3 MOD SWAP1 POP SWAP3 SWAP2 POP POP JUMP JUMPDEST PUSH32 0x42657474696E6720616C7265616479206F70656E000000000000000000000000 PUSH0 DUP3 ADD MSTORE POP JUMP JUMPDEST PUSH0 PUSH2 0xF92 PUSH1 0x14 DUP4 PUSH2 0xCCF JUMP JUMPDEST SWAP2 POP PUSH2 0xF9D DUP3 PUSH2 0xF5E JUMP JUMPDEST PUSH1 0x20 DUP3 ADD SWAP1 POP SWAP2 SWAP1 POP JUMP JUMPDEST PUSH0 PUSH1 0x20 DUP3 ADD SWAP1 POP DUP2 DUP2 SUB PUSH0 DUP4 ADD MSTORE PUSH2 0xFBF DUP2 PUSH2 0xF86 JUMP JUMPDEST SWAP1 POP SWAP2 SWAP1 POP JUMP JUMPDEST PUSH32 0x6F776E65722063616E27742062657474696E6700000000000000000000000000 PUSH0 DUP3 ADD MSTORE POP JUMP JUMPDEST PUSH0 PUSH2 0xFFA PUSH1 0x13 DUP4 PUSH2 0xCCF JUMP JUMPDEST SWAP2 POP PUSH2 0x1005 DUP3 PUSH2 0xFC6 JUMP JUMPDEST PUSH1 0x20 DUP3 ADD SWAP1 POP SWAP2 SWAP1 POP JUMP JUMPDEST PUSH0 PUSH1 0x20 DUP3 ADD SWAP1 POP DUP2 DUP2 SUB PUSH0 DUP4 ADD MSTORE PUSH2 0x1027 DUP2 PUSH2 0xFEE JUMP JUMPDEST SWAP1 POP SWAP2 SWAP1 POP JUMP JUMPDEST PUSH32 0x416C726561647920706172746963697061746564000000000000000000000000 PUSH0 DUP3 ADD MSTORE POP JUMP JUMPDEST PUSH0 PUSH2 0x1062 PUSH1 0x14 DUP4 PUSH2 0xCCF JUMP JUMPDEST SWAP2 POP PUSH2 0x106D DUP3 PUSH2 0x102E JUMP JUMPDEST PUSH1 0x20 DUP3 ADD SWAP1 POP SWAP2 SWAP1 POP JUMP JUMPDEST PUSH0 PUSH1 0x20 DUP3 ADD SWAP1 POP DUP2 DUP2 SUB PUSH0 DUP4 ADD MSTORE PUSH2 0x108F DUP2 PUSH2 0x1056 JUMP JUMPDEST SWAP1 POP SWAP2 SWAP1 POP JUMP JUMPDEST PUSH32 0x426574206D7573742062652065786163746C7920312065746865720000000000 PUSH0 DUP3 ADD MSTORE POP JUMP JUMPDEST PUSH0 PUSH2 0x10CA PUSH1 0x1B DUP4 PUSH2 0xCCF JUMP JUMPDEST SWAP2 POP PUSH2 0x10D5 DUP3 PUSH2 0x1096 JUMP JUMPDEST PUSH1 0x20 DUP3 ADD SWAP1 POP SWAP2 SWAP1 POP JUMP JUMPDEST PUSH0 PUSH1 0x20 DUP3 ADD SWAP1 POP DUP2 DUP2 SUB PUSH0 DUP4 ADD MSTORE PUSH2 0x10F7 DUP2 PUSH2 0x10BE JUMP JUMPDEST SWAP1 POP SWAP2 SWAP1 POP JUMP JUMPDEST PUSH32 0x42657474696E6720697320636C6F736564000000000000000000000000000000 PUSH0 DUP3 ADD MSTORE POP JUMP JUMPDEST PUSH0 PUSH2 0x1132 PUSH1 0x11 DUP4 PUSH2 0xCCF JUMP JUMPDEST SWAP2 POP PUSH2 0x113D DUP3 PUSH2 0x10FE JUMP JUMPDEST PUSH1 0x20 DUP3 ADD SWAP1 POP SWAP2 SWAP1 POP JUMP JUMPDEST PUSH0 PUSH1 0x20 DUP3 ADD SWAP1 POP DUP2 DUP2 SUB PUSH0 DUP4 ADD MSTORE PUSH2 0x115F DUP2 PUSH2 0x1126 JUMP JUMPDEST SWAP1 POP SWAP2 SWAP1 POP JUMP INVALID LOG2 PUSH5 0x6970667358 0x22 SLT KECCAK256 DUPN 0xB7 RETURN SLT PUSH31 0x44372D0080A380D1C12AB3FB2E825BD8C24E1AA92263352A9C938264736F6C PUSH4 0x43000820 STOP CALLER "
				},
				"gasEstimates": {
					"creation": {
						"codeDepositCost": "901600",
						"executionCost": "49462",
						"totalCost": "951062"
					},
					"external": {
						"BET_AMOUNT()": "392",
						"bettingOpen()": "2511",
						"closeBetting()": "28751",
						"enter()": "infinite",
						"getPlayers()": "infinite",
						"isPlayer(address)": "infinite",
						"manager()": "2596",
						"openBetting()": "28776",
						"pickWinner()": "infinite",
						"players(uint256)": "5032"
					}
				},
				"methodIdentifiers": {
					"BET_AMOUNT()": "3f9326af",
					"bettingOpen()": "15b19770",
					"closeBetting()": "15ac534d",
					"enter()": "e97dcb62",
					"getPlayers()": "8b5b9ccc",
					"isPlayer(address)": "09c95e10",
					"manager()": "481c6a75",
					"openBetting()": "e10b020c",
					"pickWinner()": "5d495aea",
					"players(uint256)": "f71d96cb"
				}
			},
			"storageLayout": {
				"storage": [
					{
						"astId": 3,
						"contract": "lottery.sol:Lottery",
						"label": "manager",
						"offset": 0,
						"slot": "0",
						"type": "t_address"
					},
					{
						"astId": 6,
						"contract": "lottery.sol:Lottery",
						"label": "players",
						"offset": 0,
						"slot": "1",
						"type": "t_array(t_address)dyn_storage"
					},
					{
						"astId": 11,
						"contract": "lottery.sol:Lottery",
						"label": "bettingOpen",
						"offset": 0,
						"slot": "2",
						"type": "t_bool"
					}
				],
				"types": {
					"t_address": {
						"encoding": "inplace",
						"label": "address",
						"numberOfBytes": "20"
					},
					"t_array(t_address)dyn_storage": {
						"base": "t_address",
						"encoding": "dynamic_array",
						"label": "address[]",
						"numberOfBytes": "32"
					},
					"t_bool": {
						"encoding": "inplace",
						"label": "bool",
						"numberOfBytes": "1"
					}
				}
			},
			"userdoc": {
				"kind": "user",
				"methods": {},
				"version": 1
			}
		}
	}
}