{
	"기말 공부/HW/08/counter.sol": {
		"Counter": {
			"abi": [
				{
					"inputs": [],
					"name": "dec",
					"outputs": [],
					"stateMutability": "nonpayable",
					"type": "function"
				},
				{
					"inputs": [],
					"name": "get",
					"outputs": [
						{
							"internalType": "uint256",
							"name": "",
							"type": "uint256"
						}
					],
					"stateMutability": "view",
					"type": "function"
				},
				{
					"inputs": [],
					"name": "inc",
					"outputs": [],
					"stateMutability": "nonpayable",
					"type": "function"
				}
			],
			"devdoc": {
				"kind": "dev",
				"methods": {},
				"version": 1
			},
			"evm": {
				"assembly": "    /* \"\\xea\\xb8\\xb0\\xeb\\xa7\\x90 \\xea\\xb3\\xb5\\xeb\\xb6\\x80/HW/08/counter.sol\":61:387  contract Counter... */\n  mstore(0x40, 0x80)\n  callvalue\n  dup1\n  iszero\n  tag_1\n  jumpi\n  revert(0x00, 0x00)\ntag_1:\n  pop\n  dataSize(sub_0)\n  dup1\n  dataOffset(sub_0)\n  0x00\n  codecopy\n  0x00\n  return\nstop\n\nsub_0: assembly {\n        /* \"\\xea\\xb8\\xb0\\xeb\\xa7\\x90 \\xea\\xb3\\xb5\\xeb\\xb6\\x80/HW/08/counter.sol\":61:387  contract Counter... */\n      mstore(0x40, 0x80)\n      callvalue\n      dup1\n      iszero\n      tag_1\n      jumpi\n      revert(0x00, 0x00)\n    tag_1:\n      pop\n      jumpi(tag_2, lt(calldatasize, 0x04))\n      shr(0xe0, calldataload(0x00))\n      dup1\n      0x371303c0\n      eq\n      tag_3\n      jumpi\n      dup1\n      0x6d4ce63c\n      eq\n      tag_4\n      jumpi\n      dup1\n      0xb3bcfa82\n      eq\n      tag_5\n      jumpi\n    tag_2:\n      revert(0x00, 0x00)\n        /* \"\\xea\\xb8\\xb0\\xeb\\xa7\\x90 \\xea\\xb3\\xb5\\xeb\\xb6\\x80/HW/08/counter.sol\":203:261  function inc() public... */\n    tag_3:\n      tag_6\n      tag_7\n      jump\t// in\n    tag_6:\n      stop\n        /* \"\\xea\\xb8\\xb0\\xeb\\xa7\\x90 \\xea\\xb3\\xb5\\xeb\\xb6\\x80/HW/08/counter.sol\":115:195  function get() public view returns (uint)... */\n    tag_4:\n      tag_8\n      tag_9\n      jump\t// in\n    tag_8:\n      mload(0x40)\n      tag_10\n      swap2\n      swap1\n      tag_11\n      jump\t// in\n    tag_10:\n      mload(0x40)\n      dup1\n      swap2\n      sub\n      swap1\n      return\n        /* \"\\xea\\xb8\\xb0\\xeb\\xa7\\x90 \\xea\\xb3\\xb5\\xeb\\xb6\\x80/HW/08/counter.sol\":269:382  function dec() public... */\n    tag_5:\n      tag_12\n      tag_13\n      jump\t// in\n    tag_12:\n      stop\n        /* \"\\xea\\xb8\\xb0\\xeb\\xa7\\x90 \\xea\\xb3\\xb5\\xeb\\xb6\\x80/HW/08/counter.sol\":203:261  function inc() public... */\n    tag_7:\n        /* \"\\xea\\xb8\\xb0\\xeb\\xa7\\x90 \\xea\\xb3\\xb5\\xeb\\xb6\\x80/HW/08/counter.sol\":252:253  1 */\n      0x01\n        /* \"\\xea\\xb8\\xb0\\xeb\\xa7\\x90 \\xea\\xb3\\xb5\\xeb\\xb6\\x80/HW/08/counter.sol\":241:248  counter */\n      0x00\n      0x00\n        /* \"\\xea\\xb8\\xb0\\xeb\\xa7\\x90 \\xea\\xb3\\xb5\\xeb\\xb6\\x80/HW/08/counter.sol\":241:253  counter += 1 */\n      dup3\n      dup3\n      sload\n      tag_15\n      swap2\n      swap1\n      tag_16\n      jump\t// in\n    tag_15:\n      swap3\n      pop\n      pop\n      dup2\n      swap1\n      sstore\n      pop\n        /* \"\\xea\\xb8\\xb0\\xeb\\xa7\\x90 \\xea\\xb3\\xb5\\xeb\\xb6\\x80/HW/08/counter.sol\":203:261  function inc() public... */\n      jump\t// out\n        /* \"\\xea\\xb8\\xb0\\xeb\\xa7\\x90 \\xea\\xb3\\xb5\\xeb\\xb6\\x80/HW/08/counter.sol\":115:195  function get() public view returns (uint)... */\n    tag_9:\n        /* \"\\xea\\xb8\\xb0\\xeb\\xa7\\x90 \\xea\\xb3\\xb5\\xeb\\xb6\\x80/HW/08/counter.sol\":151:155  uint */\n      0x00\n        /* \"\\xea\\xb8\\xb0\\xeb\\xa7\\x90 \\xea\\xb3\\xb5\\xeb\\xb6\\x80/HW/08/counter.sol\":180:187  counter */\n      sload(0x00)\n        /* \"\\xea\\xb8\\xb0\\xeb\\xa7\\x90 \\xea\\xb3\\xb5\\xeb\\xb6\\x80/HW/08/counter.sol\":173:187  return counter */\n      swap1\n      pop\n        /* \"\\xea\\xb8\\xb0\\xeb\\xa7\\x90 \\xea\\xb3\\xb5\\xeb\\xb6\\x80/HW/08/counter.sol\":115:195  function get() public view returns (uint)... */\n      swap1\n      jump\t// out\n        /* \"\\xea\\xb8\\xb0\\xeb\\xa7\\x90 \\xea\\xb3\\xb5\\xeb\\xb6\\x80/HW/08/counter.sol\":269:382  function dec() public... */\n    tag_13:\n        /* \"\\xea\\xb8\\xb0\\xeb\\xa7\\x90 \\xea\\xb3\\xb5\\xeb\\xb6\\x80/HW/08/counter.sol\":325:326  0 */\n      0x00\n        /* \"\\xea\\xb8\\xb0\\xeb\\xa7\\x90 \\xea\\xb3\\xb5\\xeb\\xb6\\x80/HW/08/counter.sol\":315:322  counter */\n      sload(0x00)\n        /* \"\\xea\\xb8\\xb0\\xeb\\xa7\\x90 \\xea\\xb3\\xb5\\xeb\\xb6\\x80/HW/08/counter.sol\":315:326  counter > 0 */\n      gt\n        /* \"\\xea\\xb8\\xb0\\xeb\\xa7\\x90 \\xea\\xb3\\xb5\\xeb\\xb6\\x80/HW/08/counter.sol\":307:351  require(counter > 0, \"counter already Zero\") */\n      tag_19\n      jumpi\n      mload(0x40)\n      0x08c379a000000000000000000000000000000000000000000000000000000000\n      dup2\n      mstore\n      0x04\n      add\n      tag_20\n      swap1\n      tag_21\n      jump\t// in\n    tag_20:\n      mload(0x40)\n      dup1\n      swap2\n      sub\n      swap1\n      revert\n    tag_19:\n        /* \"\\xea\\xb8\\xb0\\xeb\\xa7\\x90 \\xea\\xb3\\xb5\\xeb\\xb6\\x80/HW/08/counter.sol\":373:374  1 */\n      0x01\n        /* \"\\xea\\xb8\\xb0\\xeb\\xa7\\x90 \\xea\\xb3\\xb5\\xeb\\xb6\\x80/HW/08/counter.sol\":362:369  counter */\n      0x00\n      0x00\n        /* \"\\xea\\xb8\\xb0\\xeb\\xa7\\x90 \\xea\\xb3\\xb5\\xeb\\xb6\\x80/HW/08/counter.sol\":362:374  counter -= 1 */\n      dup3\n      dup3\n      sload\n      tag_22\n      swap2\n      swap1\n      tag_23\n      jump\t// in\n    tag_22:\n      swap3\n      pop\n      pop\n      dup2\n      swap1\n      sstore\n      pop\n        /* \"\\xea\\xb8\\xb0\\xeb\\xa7\\x90 \\xea\\xb3\\xb5\\xeb\\xb6\\x80/HW/08/counter.sol\":269:382  function dec() public... */\n      jump\t// out\n        /* \"#utility.yul\":7:84   */\n    tag_24:\n        /* \"#utility.yul\":44:51   */\n      0x00\n        /* \"#utility.yul\":73:78   */\n      dup2\n        /* \"#utility.yul\":62:78   */\n      swap1\n      pop\n        /* \"#utility.yul\":7:84   */\n      swap2\n      swap1\n      pop\n      jump\t// out\n        /* \"#utility.yul\":90:208   */\n    tag_25:\n        /* \"#utility.yul\":177:201   */\n      tag_33\n        /* \"#utility.yul\":195:200   */\n      dup2\n        /* \"#utility.yul\":177:201   */\n      tag_24\n      jump\t// in\n    tag_33:\n        /* \"#utility.yul\":172:175   */\n      dup3\n        /* \"#utility.yul\":165:202   */\n      mstore\n        /* \"#utility.yul\":90:208   */\n      pop\n      pop\n      jump\t// out\n        /* \"#utility.yul\":214:436   */\n    tag_11:\n        /* \"#utility.yul\":307:311   */\n      0x00\n        /* \"#utility.yul\":345:347   */\n      0x20\n        /* \"#utility.yul\":334:343   */\n      dup3\n        /* \"#utility.yul\":330:348   */\n      add\n        /* \"#utility.yul\":322:348   */\n      swap1\n      pop\n        /* \"#utility.yul\":358:429   */\n      tag_35\n        /* \"#utility.yul\":426:427   */\n      0x00\n        /* \"#utility.yul\":415:424   */\n      dup4\n        /* \"#utility.yul\":411:428   */\n      add\n        /* \"#utility.yul\":402:408   */\n      dup5\n        /* \"#utility.yul\":358:429   */\n      tag_25\n      jump\t// in\n    tag_35:\n        /* \"#utility.yul\":214:436   */\n      swap3\n      swap2\n      pop\n      pop\n      jump\t// out\n        /* \"#utility.yul\":442:622   */\n    tag_26:\n        /* \"#utility.yul\":490:567   */\n      0x4e487b7100000000000000000000000000000000000000000000000000000000\n        /* \"#utility.yul\":487:488   */\n      0x00\n        /* \"#utility.yul\":480:568   */\n      mstore\n        /* \"#utility.yul\":587:591   */\n      0x11\n        /* \"#utility.yul\":584:585   */\n      0x04\n        /* \"#utility.yul\":577:592   */\n      mstore\n        /* \"#utility.yul\":611:615   */\n      0x24\n        /* \"#utility.yul\":608:609   */\n      0x00\n        /* \"#utility.yul\":601:616   */\n      revert\n        /* \"#utility.yul\":628:819   */\n    tag_16:\n        /* \"#utility.yul\":668:671   */\n      0x00\n        /* \"#utility.yul\":687:707   */\n      tag_38\n        /* \"#utility.yul\":705:706   */\n      dup3\n        /* \"#utility.yul\":687:707   */\n      tag_24\n      jump\t// in\n    tag_38:\n        /* \"#utility.yul\":682:707   */\n      swap2\n      pop\n        /* \"#utility.yul\":721:741   */\n      tag_39\n        /* \"#utility.yul\":739:740   */\n      dup4\n        /* \"#utility.yul\":721:741   */\n      tag_24\n      jump\t// in\n    tag_39:\n        /* \"#utility.yul\":716:741   */\n      swap3\n      pop\n        /* \"#utility.yul\":764:765   */\n      dup3\n        /* \"#utility.yul\":761:762   */\n      dup3\n        /* \"#utility.yul\":757:766   */\n      add\n        /* \"#utility.yul\":750:766   */\n      swap1\n      pop\n        /* \"#utility.yul\":785:788   */\n      dup1\n        /* \"#utility.yul\":782:783   */\n      dup3\n        /* \"#utility.yul\":779:789   */\n      gt\n        /* \"#utility.yul\":776:812   */\n      iszero\n      tag_40\n      jumpi\n        /* \"#utility.yul\":792:810   */\n      tag_41\n      tag_26\n      jump\t// in\n    tag_41:\n        /* \"#utility.yul\":776:812   */\n    tag_40:\n        /* \"#utility.yul\":628:819   */\n      swap3\n      swap2\n      pop\n      pop\n      jump\t// out\n        /* \"#utility.yul\":825:994   */\n    tag_27:\n        /* \"#utility.yul\":909:920   */\n      0x00\n        /* \"#utility.yul\":943:949   */\n      dup3\n        /* \"#utility.yul\":938:941   */\n      dup3\n        /* \"#utility.yul\":931:950   */\n      mstore\n        /* \"#utility.yul\":983:987   */\n      0x20\n        /* \"#utility.yul\":978:981   */\n      dup3\n        /* \"#utility.yul\":974:988   */\n      add\n        /* \"#utility.yul\":959:988   */\n      swap1\n      pop\n        /* \"#utility.yul\":825:994   */\n      swap3\n      swap2\n      pop\n      pop\n      jump\t// out\n        /* \"#utility.yul\":1000:1170   */\n    tag_28:\n        /* \"#utility.yul\":1140:1162   */\n      0x636f756e74657220616c7265616479205a65726f000000000000000000000000\n        /* \"#utility.yul\":1136:1137   */\n      0x00\n        /* \"#utility.yul\":1128:1134   */\n      dup3\n        /* \"#utility.yul\":1124:1138   */\n      add\n        /* \"#utility.yul\":1117:1163   */\n      mstore\n        /* \"#utility.yul\":1000:1170   */\n      pop\n      jump\t// out\n        /* \"#utility.yul\":1176:1542   */\n    tag_29:\n        /* \"#utility.yul\":1318:1321   */\n      0x00\n        /* \"#utility.yul\":1339:1406   */\n      tag_45\n        /* \"#utility.yul\":1403:1405   */\n      0x14\n        /* \"#utility.yul\":1398:1401   */\n      dup4\n        /* \"#utility.yul\":1339:1406   */\n      tag_27\n      jump\t// in\n    tag_45:\n        /* \"#utility.yul\":1332:1406   */\n      swap2\n      pop\n        /* \"#utility.yul\":1415:1508   */\n      tag_46\n        /* \"#utility.yul\":1504:1507   */\n      dup3\n        /* \"#utility.yul\":1415:1508   */\n      tag_28\n      jump\t// in\n    tag_46:\n        /* \"#utility.yul\":1533:1535   */\n      0x20\n        /* \"#utility.yul\":1528:1531   */\n      dup3\n        /* \"#utility.yul\":1524:1536   */\n      add\n        /* \"#utility.yul\":1517:1536   */\n      swap1\n      pop\n        /* \"#utility.yul\":1176:1542   */\n      swap2\n      swap1\n      pop\n      jump\t// out\n        /* \"#utility.yul\":1548:1967   */\n    tag_21:\n        /* \"#utility.yul\":1714:1718   */\n      0x00\n        /* \"#utility.yul\":1752:1754   */\n      0x20\n        /* \"#utility.yul\":1741:1750   */\n      dup3\n        /* \"#utility.yul\":1737:1755   */\n      add\n        /* \"#utility.yul\":1729:1755   */\n      swap1\n      pop\n        /* \"#utility.yul\":1801:1810   */\n      dup2\n        /* \"#utility.yul\":1795:1799   */\n      dup2\n        /* \"#utility.yul\":1791:1811   */\n      sub\n        /* \"#utility.yul\":1787:1788   */\n      0x00\n        /* \"#utility.yul\":1776:1785   */\n      dup4\n        /* \"#utility.yul\":1772:1789   */\n      add\n        /* \"#utility.yul\":1765:1812   */\n      mstore\n        /* \"#utility.yul\":1829:1960   */\n      tag_48\n        /* \"#utility.yul\":1955:1959   */\n      dup2\n        /* \"#utility.yul\":1829:1960   */\n      tag_29\n      jump\t// in\n    tag_48:\n        /* \"#utility.yul\":1821:1960   */\n      swap1\n      pop\n        /* \"#utility.yul\":1548:1967   */\n      swap2\n      swap1\n      pop\n      jump\t// out\n        /* \"#utility.yul\":1973:2167   */\n    tag_23:\n        /* \"#utility.yul\":2013:2017   */\n      0x00\n        /* \"#utility.yul\":2033:2053   */\n      tag_50\n        /* \"#utility.yul\":2051:2052   */\n      dup3\n        /* \"#utility.yul\":2033:2053   */\n      tag_24\n      jump\t// in\n    tag_50:\n        /* \"#utility.yul\":2028:2053   */\n      swap2\n      pop\n        /* \"#utility.yul\":2067:2087   */\n      tag_51\n        /* \"#utility.yul\":2085:2086   */\n      dup4\n        /* \"#utility.yul\":2067:2087   */\n      tag_24\n      jump\t// in\n    tag_51:\n        /* \"#utility.yul\":2062:2087   */\n      swap3\n      pop\n        /* \"#utility.yul\":2111:2112   */\n      dup3\n        /* \"#utility.yul\":2108:2109   */\n      dup3\n        /* \"#utility.yul\":2104:2113   */\n      sub\n        /* \"#utility.yul\":2096:2113   */\n      swap1\n      pop\n        /* \"#utility.yul\":2135:2136   */\n      dup2\n        /* \"#utility.yul\":2129:2133   */\n      dup2\n        /* \"#utility.yul\":2126:2137   */\n      gt\n        /* \"#utility.yul\":2123:2160   */\n      iszero\n      tag_52\n      jumpi\n        /* \"#utility.yul\":2140:2158   */\n      tag_53\n      tag_26\n      jump\t// in\n    tag_53:\n        /* \"#utility.yul\":2123:2160   */\n    tag_52:\n        /* \"#utility.yul\":1973:2167   */\n      swap3\n      swap2\n      pop\n      pop\n      jump\t// out\n\n    auxdata: 0xa2646970667358221220329dd5e19d06df35e9141f6cc635ba57b04ff4eb388bd69ff8a5f42746ef853664736f6c63430008200033\n}\n",
				"bytecode": {
					"linkReferences": {},
					"object": "6080604052348015600e575f5ffd5b506102668061001c5f395ff3fe608060405234801561000f575f5ffd5b506004361061003f575f3560e01c8063371303c0146100435780636d4ce63c1461004d578063b3bcfa821461006b575b5f5ffd5b61004b610075565b005b61005561008f565b604051610062919061010c565b60405180910390f35b610073610097565b005b60015f5f8282546100869190610152565b92505081905550565b5f5f54905090565b5f5f54116100da576040517f08c379a00000000000000000000000000000000000000000000000000000000081526004016100d1906101df565b60405180910390fd5b60015f5f8282546100eb91906101fd565b92505081905550565b5f819050919050565b610106816100f4565b82525050565b5f60208201905061011f5f8301846100fd565b92915050565b7f4e487b71000000000000000000000000000000000000000000000000000000005f52601160045260245ffd5b5f61015c826100f4565b9150610167836100f4565b925082820190508082111561017f5761017e610125565b5b92915050565b5f82825260208201905092915050565b7f636f756e74657220616c7265616479205a65726f0000000000000000000000005f82015250565b5f6101c9601483610185565b91506101d482610195565b602082019050919050565b5f6020820190508181035f8301526101f6816101bd565b9050919050565b5f610207826100f4565b9150610212836100f4565b925082820390508181111561022a57610229610125565b5b9291505056fea2646970667358221220329dd5e19d06df35e9141f6cc635ba57b04ff4eb388bd69ff8a5f42746ef853664736f6c63430008200033",
					"opcodes": "PUSH1 0x80 PUSH1 0x40 MSTORE CALLVALUE DUP1 ISZERO PUSH1 0xE JUMPI PUSH0 PUSH0 REVERT JUMPDEST POP PUSH2 0x266 DUP1 PUSH2 0x1C PUSH0 CODECOPY PUSH0 RETURN INVALID PUSH1 0x80 PUSH1 0x40 MSTORE CALLVALUE DUP1 ISZERO PUSH2 0xF JUMPI PUSH0 PUSH0 REVERT JUMPDEST POP PUSH1 0x4 CALLDATASIZE LT PUSH2 0x3F JUMPI PUSH0 CALLDATALOAD PUSH1 0xE0 SHR DUP1 PUSH4 0x371303C0 EQ PUSH2 0x43 JUMPI DUP1 PUSH4 0x6D4CE63C EQ PUSH2 0x4D JUMPI DUP1 PUSH4 0xB3BCFA82 EQ PUSH2 0x6B JUMPI JUMPDEST PUSH0 PUSH0 REVERT JUMPDEST PUSH2 0x4B PUSH2 0x75 JUMP JUMPDEST STOP JUMPDEST PUSH2 0x55 PUSH2 0x8F JUMP JUMPDEST PUSH1 0x40 MLOAD PUSH2 0x62 SWAP2 SWAP1 PUSH2 0x10C JUMP JUMPDEST PUSH1 0x40 MLOAD DUP1 SWAP2 SUB SWAP1 RETURN JUMPDEST PUSH2 0x73 PUSH2 0x97 JUMP JUMPDEST STOP JUMPDEST PUSH1 0x1 PUSH0 PUSH0 DUP3 DUP3 SLOAD PUSH2 0x86 SWAP2 SWAP1 PUSH2 0x152 JUMP JUMPDEST SWAP3 POP POP DUP2 SWAP1 SSTORE POP JUMP JUMPDEST PUSH0 PUSH0 SLOAD SWAP1 POP SWAP1 JUMP JUMPDEST PUSH0 PUSH0 SLOAD GT PUSH2 0xDA JUMPI PUSH1 0x40 MLOAD PUSH32 0x8C379A000000000000000000000000000000000000000000000000000000000 DUP2 MSTORE PUSH1 0x4 ADD PUSH2 0xD1 SWAP1 PUSH2 0x1DF JUMP JUMPDEST PUSH1 0x40 MLOAD DUP1 SWAP2 SUB SWAP1 REVERT JUMPDEST PUSH1 0x1 PUSH0 PUSH0 DUP3 DUP3 SLOAD PUSH2 0xEB SWAP2 SWAP1 PUSH2 0x1FD JUMP JUMPDEST SWAP3 POP POP DUP2 SWAP1 SSTORE POP JUMP JUMPDEST PUSH0 DUP2 SWAP1 POP SWAP2 SWAP1 POP JUMP JUMPDEST PUSH2 0x106 DUP2 PUSH2 0xF4 JUMP JUMPDEST DUP3 MSTORE POP POP JUMP JUMPDEST PUSH0 PUSH1 0x20 DUP3 ADD SWAP1 POP PUSH2 0x11F PUSH0 DUP4 ADD DUP5 PUSH2 0xFD JUMP JUMPDEST SWAP3 SWAP2 POP POP JUMP JUMPDEST PUSH32 0x4E487B7100000000000000000000000000000000000000000000000000000000 PUSH0 MSTORE PUSH1 0x11 PUSH1 0x4 MSTORE PUSH1 0x24 PUSH0 REVERT JUMPDEST PUSH0 PUSH2 0x15C DUP3 PUSH2 0xF4 JUMP JUMPDEST SWAP2 POP PUSH2 0x167 DUP4 PUSH2 0xF4 JUMP JUMPDEST SWAP3 POP DUP3 DUP3 ADD SWAP1 POP DUP1 DUP3 GT ISZERO PUSH2 0x17F JUMPI PUSH2 0x17E PUSH2 0x125 JUMP JUMPDEST JUMPDEST SWAP3 SWAP2 POP POP JUMP JUMPDEST PUSH0 DUP3 DUP3 MSTORE PUSH1 0x20 DUP3 ADD SWAP1 POP SWAP3 SWAP2 POP POP JUMP JUMPDEST PUSH32 0x636F756E74657220616C7265616479205A65726F000000000000000000000000 PUSH0 DUP3 ADD MSTORE POP JUMP JUMPDEST PUSH0 PUSH2 0x1C9 PUSH1 0x14 DUP4 PUSH2 0x185 JUMP JUMPDEST SWAP2 POP PUSH2 0x1D4 DUP3 PUSH2 0x195 JUMP JUMPDEST PUSH1 0x20 DUP3 ADD SWAP1 POP SWAP2 SWAP1 POP JUMP JUMPDEST PUSH0 PUSH1 0x20 DUP3 ADD SWAP1 POP DUP2 DUP2 SUB PUSH0 DUP4 ADD MSTORE PUSH2 0x1F6 DUP2 PUSH2 0x1BD JUMP JUMPDEST SWAP1 POP SWAP2 SWAP1 POP JUMP JUMPDEST PUSH0 PUSH2 0x207 DUP3 PUSH2 0xF4 JUMP JUMPDEST SWAP2 POP PUSH2 0x212 DUP4 PUSH2 0xF4 JUMP JUMPDEST SWAP3 POP DUP3 DUP3 SUB SWAP1 POP DUP2 DUP2 GT ISZERO PUSH2 0x22A JUMPI PUSH2 0x229 PUSH2 0x125 JUMP JUMPDEST JUMPDEST SWAP3 SWAP2 POP POP JUMP INVALID LOG2 PUSH5 0x6970667358 0x22 SLT KECCAK256 ORIGIN SWAP14 0xD5 RJUMPI 0x9D06 0xDF CALLDATALOAD 0xE9 EQ 0x1F PUSH13 0xC635BA57B04FF4EB388BD69FF8 0xA5 DELEGATECALL 0x27 CHAINID 0xEF DUP6 CALLDATASIZE PUSH5 0x736F6C6343 STOP ADDMOD KECCAK256 STOP CALLER "
				},
				"gasEstimates": {
					"creation": {
						"codeDepositCost": "122800",
						"executionCost": "169",
						"totalCost": "122969"
					},
					"external": {
						"dec()": "infinite",
						"get()": "2431",
						"inc()": "infinite"
					}
				},
				"methodIdentifiers": {
					"dec()": "b3bcfa82",
					"get()": "6d4ce63c",
					"inc()": "371303c0"
				}
			},
			"storageLayout": {
				"storage": [
					{
						"astId": 3,
						"contract": "기말 공부/HW/08/counter.sol:Counter",
						"label": "counter",
						"offset": 0,
						"slot": "0",
						"type": "t_uint256"
					}
				],
				"types": {
					"t_uint256": {
						"encoding": "inplace",
						"label": "uint256",
						"numberOfBytes": "32"
					}
				}
			},
			"userdoc": {
				"kind": "user",
				"methods": {},
				"version": 1
			}
		}
	}
}