{
	"over_under_flow/compiler0.8.x/over_under_flow.sol": {
		"over_under_flow": {
			"abi": [
				{
					"inputs": [],
					"name": "overflow",
					"outputs": [
						{
							"internalType": "uint256",
							"name": "",
							"type": "uint256"
						}
					],
					"stateMutability": "view",
					"type": "function"
				},
				{
					"inputs": [],
					"name": "unchecked_overflow",
					"outputs": [
						{
							"internalType": "uint256",
							"name": "",
							"type": "uint256"
						}
					],
					"stateMutability": "view",
					"type": "function"
				},
				{
					"inputs": [],
					"name": "unchecked_underflow",
					"outputs": [
						{
							"internalType": "uint256",
							"name": "",
							"type": "uint256"
						}
					],
					"stateMutability": "view",
					"type": "function"
				},
				{
					"inputs": [],
					"name": "underflow",
					"outputs": [
						{
							"internalType": "uint256",
							"name": "",
							"type": "uint256"
						}
					],
					"stateMutability": "view",
					"type": "function"
				}
			],
			"devdoc": {
				"kind": "dev",
				"methods": {},
				"version": 1
			},
			"evm": {
				"assembly": "    /* \"over_under_flow/compiler0.8.x/over_under_flow.sol\":64:638  contract over_under_flow... */\n  mstore(0x40, 0x80)\n    /* \"over_under_flow/compiler0.8.x/over_under_flow.sol\":108:122  type(uint).min */\n  0x00\n    /* \"over_under_flow/compiler0.8.x/over_under_flow.sol\":97:122  uint min = type(uint).min */\n  0x00\n  sstore\n    /* \"over_under_flow/compiler0.8.x/over_under_flow.sol\":140:154  type(uint).max */\n  0xffffffffffffffffffffffffffffffffffffffffffffffffffffffffffffffff\n    /* \"over_under_flow/compiler0.8.x/over_under_flow.sol\":129:154  uint max = type(uint).max */\n  0x01\n  sstore\n    /* \"over_under_flow/compiler0.8.x/over_under_flow.sol\":64:638  contract over_under_flow... */\n  callvalue\n  dup1\n  iszero\n  tag_1\n  jumpi\n  revert(0x00, 0x00)\ntag_1:\n  pop\n  dataSize(sub_0)\n  dup1\n  dataOffset(sub_0)\n  0x00\n  codecopy\n  0x00\n  return\nstop\n\nsub_0: assembly {\n        /* \"over_under_flow/compiler0.8.x/over_under_flow.sol\":64:638  contract over_under_flow... */\n      mstore(0x40, 0x80)\n      callvalue\n      dup1\n      iszero\n      tag_1\n      jumpi\n      revert(0x00, 0x00)\n    tag_1:\n      pop\n      jumpi(tag_2, lt(calldatasize, 0x04))\n      shr(0xe0, calldataload(0x00))\n      dup1\n      0x4264c3\n      eq\n      tag_3\n      jumpi\n      dup1\n      0x498031a2\n      eq\n      tag_4\n      jumpi\n      dup1\n      0xdc75bec7\n      eq\n      tag_5\n      jumpi\n      dup1\n      0xf5f27f2e\n      eq\n      tag_6\n      jumpi\n    tag_2:\n      revert(0x00, 0x00)\n        /* \"over_under_flow/compiler0.8.x/over_under_flow.sol\":256:340  function overflow() public view returns(uint)... */\n    tag_3:\n      tag_7\n      tag_8\n      jump\t// in\n    tag_7:\n      mload(0x40)\n      tag_9\n      swap2\n      swap1\n      tag_10\n      jump\t// in\n    tag_9:\n      mload(0x40)\n      dup1\n      swap2\n      sub\n      swap1\n      return\n        /* \"over_under_flow/compiler0.8.x/over_under_flow.sol\":348:488  function unchecked_underflow() public view returns(uint)... */\n    tag_4:\n      tag_11\n      tag_12\n      jump\t// in\n    tag_11:\n      mload(0x40)\n      tag_13\n      swap2\n      swap1\n      tag_10\n      jump\t// in\n    tag_13:\n      mload(0x40)\n      dup1\n      swap2\n      sub\n      swap1\n      return\n        /* \"over_under_flow/compiler0.8.x/over_under_flow.sol\":163:248  function underflow() public view returns(uint)... */\n    tag_5:\n      tag_14\n      tag_15\n      jump\t// in\n    tag_14:\n      mload(0x40)\n      tag_16\n      swap2\n      swap1\n      tag_10\n      jump\t// in\n    tag_16:\n      mload(0x40)\n      dup1\n      swap2\n      sub\n      swap1\n      return\n        /* \"over_under_flow/compiler0.8.x/over_under_flow.sol\":496:635  function unchecked_overflow() public view returns(uint)... */\n    tag_6:\n      tag_17\n      tag_18\n      jump\t// in\n    tag_17:\n      mload(0x40)\n      tag_19\n      swap2\n      swap1\n      tag_10\n      jump\t// in\n    tag_19:\n      mload(0x40)\n      dup1\n      swap2\n      sub\n      swap1\n      return\n        /* \"over_under_flow/compiler0.8.x/over_under_flow.sol\":256:340  function overflow() public view returns(uint)... */\n    tag_8:\n        /* \"over_under_flow/compiler0.8.x/over_under_flow.sol\":296:300  uint */\n      0x00\n        /* \"over_under_flow/compiler0.8.x/over_under_flow.sol\":331:332  1 */\n      0x01\n        /* \"over_under_flow/compiler0.8.x/over_under_flow.sol\":325:328  max */\n      dup1\n      sload\n        /* \"over_under_flow/compiler0.8.x/over_under_flow.sol\":325:332  max + 1 */\n      tag_21\n      swap2\n      swap1\n      tag_22\n      jump\t// in\n    tag_21:\n        /* \"over_under_flow/compiler0.8.x/over_under_flow.sol\":318:332  return max + 1 */\n      swap1\n      pop\n        /* \"over_under_flow/compiler0.8.x/over_under_flow.sol\":256:340  function overflow() public view returns(uint)... */\n      swap1\n      jump\t// out\n        /* \"over_under_flow/compiler0.8.x/over_under_flow.sol\":348:488  function unchecked_underflow() public view returns(uint)... */\n    tag_12:\n        /* \"over_under_flow/compiler0.8.x/over_under_flow.sol\":399:403  uint */\n      0x00\n        /* \"over_under_flow/compiler0.8.x/over_under_flow.sol\":468:469  1 */\n      0x01\n        /* \"over_under_flow/compiler0.8.x/over_under_flow.sol\":462:465  min */\n      sload(0x00)\n        /* \"over_under_flow/compiler0.8.x/over_under_flow.sol\":462:469  min - 1 */\n      sub\n        /* \"over_under_flow/compiler0.8.x/over_under_flow.sol\":455:469  return min - 1 */\n      swap1\n      pop\n        /* \"over_under_flow/compiler0.8.x/over_under_flow.sol\":348:488  function unchecked_underflow() public view returns(uint)... */\n      swap1\n      jump\t// out\n        /* \"over_under_flow/compiler0.8.x/over_under_flow.sol\":163:248  function underflow() public view returns(uint)... */\n    tag_15:\n        /* \"over_under_flow/compiler0.8.x/over_under_flow.sol\":204:208  uint */\n      0x00\n        /* \"over_under_flow/compiler0.8.x/over_under_flow.sol\":239:240  1 */\n      0x01\n        /* \"over_under_flow/compiler0.8.x/over_under_flow.sol\":233:236  min */\n      sload(0x00)\n        /* \"over_under_flow/compiler0.8.x/over_under_flow.sol\":233:240  min - 1 */\n      tag_25\n      swap2\n      swap1\n      tag_26\n      jump\t// in\n    tag_25:\n        /* \"over_under_flow/compiler0.8.x/over_under_flow.sol\":226:240  return min - 1 */\n      swap1\n      pop\n        /* \"over_under_flow/compiler0.8.x/over_under_flow.sol\":163:248  function underflow() public view returns(uint)... */\n      swap1\n      jump\t// out\n        /* \"over_under_flow/compiler0.8.x/over_under_flow.sol\":496:635  function unchecked_overflow() public view returns(uint)... */\n    tag_18:\n        /* \"over_under_flow/compiler0.8.x/over_under_flow.sol\":546:550  uint */\n      0x00\n        /* \"over_under_flow/compiler0.8.x/over_under_flow.sol\":615:616  1 */\n      0x01\n        /* \"over_under_flow/compiler0.8.x/over_under_flow.sol\":609:612  max */\n      dup1\n      sload\n        /* \"over_under_flow/compiler0.8.x/over_under_flow.sol\":609:616  max + 1 */\n      add\n        /* \"over_under_flow/compiler0.8.x/over_under_flow.sol\":602:616  return max + 1 */\n      swap1\n      pop\n        /* \"over_under_flow/compiler0.8.x/over_under_flow.sol\":496:635  function unchecked_overflow() public view returns(uint)... */\n      swap1\n      jump\t// out\n        /* \"#utility.yul\":7:84   */\n    tag_28:\n        /* \"#utility.yul\":44:51   */\n      0x00\n        /* \"#utility.yul\":73:78   */\n      dup2\n        /* \"#utility.yul\":62:78   */\n      swap1\n      pop\n        /* \"#utility.yul\":7:84   */\n      swap2\n      swap1\n      pop\n      jump\t// out\n        /* \"#utility.yul\":90:208   */\n    tag_29:\n        /* \"#utility.yul\":177:201   */\n      tag_34\n        /* \"#utility.yul\":195:200   */\n      dup2\n        /* \"#utility.yul\":177:201   */\n      tag_28\n      jump\t// in\n    tag_34:\n        /* \"#utility.yul\":172:175   */\n      dup3\n        /* \"#utility.yul\":165:202   */\n      mstore\n        /* \"#utility.yul\":90:208   */\n      pop\n      pop\n      jump\t// out\n        /* \"#utility.yul\":214:436   */\n    tag_10:\n        /* \"#utility.yul\":307:311   */\n      0x00\n        /* \"#utility.yul\":345:347   */\n      0x20\n        /* \"#utility.yul\":334:343   */\n      dup3\n        /* \"#utility.yul\":330:348   */\n      add\n        /* \"#utility.yul\":322:348   */\n      swap1\n      pop\n        /* \"#utility.yul\":358:429   */\n      tag_36\n        /* \"#utility.yul\":426:427   */\n      0x00\n        /* \"#utility.yul\":415:424   */\n      dup4\n        /* \"#utility.yul\":411:428   */\n      add\n        /* \"#utility.yul\":402:408   */\n      dup5\n        /* \"#utility.yul\":358:429   */\n      tag_29\n      jump\t// in\n    tag_36:\n        /* \"#utility.yul\":214:436   */\n      swap3\n      swap2\n      pop\n      pop\n      jump\t// out\n        /* \"#utility.yul\":442:622   */\n    tag_30:\n        /* \"#utility.yul\":490:567   */\n      0x4e487b7100000000000000000000000000000000000000000000000000000000\n        /* \"#utility.yul\":487:488   */\n      0x00\n        /* \"#utility.yul\":480:568   */\n      mstore\n        /* \"#utility.yul\":587:591   */\n      0x11\n        /* \"#utility.yul\":584:585   */\n      0x04\n        /* \"#utility.yul\":577:592   */\n      mstore\n        /* \"#utility.yul\":611:615   */\n      0x24\n        /* \"#utility.yul\":608:609   */\n      0x00\n        /* \"#utility.yul\":601:616   */\n      revert\n        /* \"#utility.yul\":628:819   */\n    tag_22:\n        /* \"#utility.yul\":668:671   */\n      0x00\n        /* \"#utility.yul\":687:707   */\n      tag_39\n        /* \"#utility.yul\":705:706   */\n      dup3\n        /* \"#utility.yul\":687:707   */\n      tag_28\n      jump\t// in\n    tag_39:\n        /* \"#utility.yul\":682:707   */\n      swap2\n      pop\n        /* \"#utility.yul\":721:741   */\n      tag_40\n        /* \"#utility.yul\":739:740   */\n      dup4\n        /* \"#utility.yul\":721:741   */\n      tag_28\n      jump\t// in\n    tag_40:\n        /* \"#utility.yul\":716:741   */\n      swap3\n      pop\n        /* \"#utility.yul\":764:765   */\n      dup3\n        /* \"#utility.yul\":761:762   */\n      dup3\n        /* \"#utility.yul\":757:766   */\n      add\n        /* \"#utility.yul\":750:766   */\n      swap1\n      pop\n        /* \"#utility.yul\":785:788   */\n      dup1\n        /* \"#utility.yul\":782:783   */\n      dup3\n        /* \"#utility.yul\":779:789   */\n      gt\n        /* \"#utility.yul\":776:812   */\n      iszero\n      tag_41\n      jumpi\n        /* \"#utility.yul\":792:810   */\n      tag_42\n      tag_30\n      jump\t// in\n    tag_42:\n        /* \"#utility.yul\":776:812   */\n    tag_41:\n        /* \"#utility.yul\":628:819   */\n      swap3\n      swap2\n      pop\n      pop\n      jump\t// out\n        /* \"#utility.yul\":825:1019   */\n    tag_26:\n        /* \"#utility.yul\":865:869   */\n      0x00\n        /* \"#utility.yul\":885:905   */\n      tag_44\n        /* \"#utility.yul\":903:904   */\n      dup3\n        /* \"#utility.yul\":885:905   */\n      tag_28\n      jump\t// in\n    tag_44:\n        /* \"#utility.yul\":880:905   */\n      swap2\n      pop\n        /* \"#utility.yul\":919:939   */\n      tag_45\n        /* \"#utility.yul\":937:938   */\n      dup4\n        /* \"#utility.yul\":919:939   */\n      tag_28\n      jump\t// in\n    tag_45:\n        /* \"#utility.yul\":914:939   */\n      swap3\n      pop\n        /* \"#utility.yul\":963:964   */\n      dup3\n        /* \"#utility.yul\":960:961   */\n      dup3\n        /* \"#utility.yul\":956:965   */\n      sub\n        /* \"#utility.yul\":948:965   */\n      swap1\n      pop\n        /* \"#utility.yul\":987:988   */\n      dup2\n        /* \"#utility.yul\":981:985   */\n      dup2\n        /* \"#utility.yul\":978:989   */\n      gt\n        /* \"#utility.yul\":975:1012   */\n      iszero\n      tag_46\n      jumpi\n        /* \"#utility.yul\":992:1010   */\n      tag_47\n      tag_30\n      jump\t// in\n    tag_47:\n        /* \"#utility.yul\":975:1012   */\n    tag_46:\n        /* \"#utility.yul\":825:1019   */\n      swap3\n      swap2\n      pop\n      pop\n      jump\t// out\n\n    auxdata: 0xa2646970667358221220da81bb15929efbfad11f4b376b1b63f4c33d3b64b22283ee7e2a172619f295d764736f6c634300081e0033\n}\n",
				"bytecode": {
					"linkReferences": {},
					"object": "60806040525f5f557fffffffffffffffffffffffffffffffffffffffffffffffffffffffffffffffff6001553480156035575f5ffd5b506101fd806100435f395ff3fe608060405234801561000f575f5ffd5b5060043610610049575f3560e01c80624264c31461004d578063498031a21461006b578063dc75bec714610089578063f5f27f2e146100a7575b5f5ffd5b6100556100c5565b604051610062919061011b565b60405180910390f35b6100736100d9565b604051610080919061011b565b60405180910390f35b6100916100e4565b60405161009e919061011b565b60405180910390f35b6100af6100f8565b6040516100bc919061011b565b60405180910390f35b5f600180546100d49190610161565b905090565b5f60015f5403905090565b5f60015f546100f39190610194565b905090565b5f6001805401905090565b5f819050919050565b61011581610103565b82525050565b5f60208201905061012e5f83018461010c565b92915050565b7f4e487b71000000000000000000000000000000000000000000000000000000005f52601160045260245ffd5b5f61016b82610103565b915061017683610103565b925082820190508082111561018e5761018d610134565b5b92915050565b5f61019e82610103565b91506101a983610103565b92508282039050818111156101c1576101c0610134565b5b9291505056fea2646970667358221220da81bb15929efbfad11f4b376b1b63f4c33d3b64b22283ee7e2a172619f295d764736f6c634300081e0033",
					"opcodes": "PUSH1 0x80 PUSH1 0x40 MSTORE PUSH0 PUSH0 SSTORE PUSH32 0xFFFFFFFFFFFFFFFFFFFFFFFFFFFFFFFFFFFFFFFFFFFFFFFFFFFFFFFFFFFFFFFF PUSH1 0x1 SSTORE CALLVALUE DUP1 ISZERO PUSH1 0x35 JUMPI PUSH0 PUSH0 REVERT JUMPDEST POP PUSH2 0x1FD DUP1 PUSH2 0x43 PUSH0 CODECOPY PUSH0 RETURN INVALID PUSH1 0x80 PUSH1 0x40 MSTORE CALLVALUE DUP1 ISZERO PUSH2 0xF JUMPI PUSH0 PUSH0 REVERT JUMPDEST POP PUSH1 0x4 CALLDATASIZE LT PUSH2 0x49 JUMPI PUSH0 CALLDATALOAD PUSH1 0xE0 SHR DUP1 PUSH3 0x4264C3 EQ PUSH2 0x4D JUMPI DUP1 PUSH4 0x498031A2 EQ PUSH2 0x6B JUMPI DUP1 PUSH4 0xDC75BEC7 EQ PUSH2 0x89 JUMPI DUP1 PUSH4 0xF5F27F2E EQ PUSH2 0xA7 JUMPI JUMPDEST PUSH0 PUSH0 REVERT JUMPDEST PUSH2 0x55 PUSH2 0xC5 JUMP JUMPDEST PUSH1 0x40 MLOAD PUSH2 0x62 SWAP2 SWAP1 PUSH2 0x11B JUMP JUMPDEST PUSH1 0x40 MLOAD DUP1 SWAP2 SUB SWAP1 RETURN JUMPDEST PUSH2 0x73 PUSH2 0xD9 JUMP JUMPDEST PUSH1 0x40 MLOAD PUSH2 0x80 SWAP2 SWAP1 PUSH2 0x11B JUMP JUMPDEST PUSH1 0x40 MLOAD DUP1 SWAP2 SUB SWAP1 RETURN JUMPDEST PUSH2 0x91 PUSH2 0xE4 JUMP JUMPDEST PUSH1 0x40 MLOAD PUSH2 0x9E SWAP2 SWAP1 PUSH2 0x11B JUMP JUMPDEST PUSH1 0x40 MLOAD DUP1 SWAP2 SUB SWAP1 RETURN JUMPDEST PUSH2 0xAF PUSH2 0xF8 JUMP JUMPDEST PUSH1 0x40 MLOAD PUSH2 0xBC SWAP2 SWAP1 PUSH2 0x11B JUMP JUMPDEST PUSH1 0x40 MLOAD DUP1 SWAP2 SUB SWAP1 RETURN JUMPDEST PUSH0 PUSH1 0x1 DUP1 SLOAD PUSH2 0xD4 SWAP2 SWAP1 PUSH2 0x161 JUMP JUMPDEST SWAP1 POP SWAP1 JUMP JUMPDEST PUSH0 PUSH1 0x1 PUSH0 SLOAD SUB SWAP1 POP SWAP1 JUMP JUMPDEST PUSH0 PUSH1 0x1 PUSH0 SLOAD PUSH2 0xF3 SWAP2 SWAP1 PUSH2 0x194 JUMP JUMPDEST SWAP1 POP SWAP1 JUMP JUMPDEST PUSH0 PUSH1 0x1 DUP1 SLOAD ADD SWAP1 POP SWAP1 JUMP JUMPDEST PUSH0 DUP2 SWAP1 POP SWAP2 SWAP1 POP JUMP JUMPDEST PUSH2 0x115 DUP2 PUSH2 0x103 JUMP JUMPDEST DUP3 MSTORE POP POP JUMP JUMPDEST PUSH0 PUSH1 0x20 DUP3 ADD SWAP1 POP PUSH2 0x12E PUSH0 DUP4 ADD DUP5 PUSH2 0x10C JUMP JUMPDEST SWAP3 SWAP2 POP POP JUMP JUMPDEST PUSH32 0x4E487B7100000000000000000000000000000000000000000000000000000000 PUSH0 MSTORE PUSH1 0x11 PUSH1 0x4 MSTORE PUSH1 0x24 PUSH0 REVERT JUMPDEST PUSH0 PUSH2 0x16B DUP3 PUSH2 0x103 JUMP JUMPDEST SWAP2 POP PUSH2 0x176 DUP4 PUSH2 0x103 JUMP JUMPDEST SWAP3 POP DUP3 DUP3 ADD SWAP1 POP DUP1 DUP3 GT ISZERO PUSH2 0x18E JUMPI PUSH2 0x18D PUSH2 0x134 JUMP JUMPDEST JUMPDEST SWAP3 SWAP2 POP POP JUMP JUMPDEST PUSH0 PUSH2 0x19E DUP3 PUSH2 0x103 JUMP JUMPDEST SWAP2 POP PUSH2 0x1A9 DUP4 PUSH2 0x103 JUMP JUMPDEST SWAP3 POP DUP3 DUP3 SUB SWAP1 POP DUP2 DUP2 GT ISZERO PUSH2 0x1C1 JUMPI PUSH2 0x1C0 PUSH2 0x134 JUMP JUMPDEST JUMPDEST SWAP3 SWAP2 POP POP JUMP INVALID LOG2 PUSH5 0x6970667358 0x22 SLT KECCAK256 0xDA DUP2 0xBB ISZERO SWAP3 SWAP15 EXTSTATICCALL STATICCALL DATALOADN 0x1F4B CALLDATACOPY PUSH12 0x1B63F4C33D3B64B22283EE7E 0x2A OR 0x26 NOT CALLCODE SWAP6 0xD7 PUSH5 0x736F6C6343 STOP ADDMOD 0x1E STOP CALLER "
				},
				"gasEstimates": {
					"creation": {
						"codeDepositCost": "101800",
						"executionCost": "27255",
						"totalCost": "129055"
					},
					"external": {
						"overflow()": "infinite",
						"unchecked_overflow()": "2482",
						"unchecked_underflow()": "2437",
						"underflow()": "infinite"
					}
				},
				"methodIdentifiers": {
					"overflow()": "004264c3",
					"unchecked_overflow()": "f5f27f2e",
					"unchecked_underflow()": "498031a2",
					"underflow()": "dc75bec7"
				}
			},
			"storageLayout": {
				"storage": [
					{
						"astId": 8,
						"contract": "over_under_flow/compiler0.8.x/over_under_flow.sol:over_under_flow",
						"label": "min",
						"offset": 0,
						"slot": "0",
						"type": "t_uint256"
					},
					{
						"astId": 15,
						"contract": "over_under_flow/compiler0.8.x/over_under_flow.sol:over_under_flow",
						"label": "max",
						"offset": 0,
						"slot": "1",
						"type": "t_uint256"
					}
				],
				"types": {
					"t_uint256": {
						"encoding": "inplace",
						"label": "uint256",
						"numberOfBytes": "32"
					}
				}
			},
			"userdoc": {
				"kind": "user",
				"methods": {},
				"version": 1
			}
		}
	}
}