{
	"Week8/Ex6_16.sol": {
		"Ex6_16": {
			"abi": [
				{
					"anonymous": false,
					"inputs": [
						{
							"indexed": false,
							"internalType": "address",
							"name": "from",
							"type": "address"
						},
						{
							"indexed": false,
							"internalType": "uint256",
							"name": "amount",
							"type": "uint256"
						}
					],
					"name": "Obtain",
					"type": "event"
				},
				{
					"inputs": [],
					"name": "getBalance",
					"outputs": [
						{
							"internalType": "uint256",
							"name": "",
							"type": "uint256"
						}
					],
					"stateMutability": "view",
					"type": "function"
				},
				{
					"inputs": [],
					"name": "sendEther",
					"outputs": [],
					"stateMutability": "payable",
					"type": "function"
				},
				{
					"stateMutability": "payable",
					"type": "receive"
				}
			],
			"devdoc": {
				"kind": "dev",
				"methods": {},
				"version": 1
			},
			"evm": {
				"assembly": "    /* \"Week8/Ex6_16.sol\":72:376  contract Ex6_16 {... */\n  mstore(0x40, 0x80)\n  callvalue\n  dup1\n  iszero\n  tag_1\n  jumpi\n  revert(0x00, 0x00)\ntag_1:\n  pop\n  dataSize(sub_0)\n  dup1\n  dataOffset(sub_0)\n  0x00\n  codecopy\n  0x00\n  return\nstop\n\nsub_0: assembly {\n        /* \"Week8/Ex6_16.sol\":72:376  contract Ex6_16 {... */\n      mstore(0x40, 0x80)\n      jumpi(tag_1, lt(calldatasize, 0x04))\n      shr(0xe0, calldataload(0x00))\n      dup1\n      0x0e29df22\n      eq\n      tag_3\n      jumpi\n      dup1\n      0x12065fe0\n      eq\n      tag_4\n      jumpi\n      jump(tag_2)\n    tag_1:\n      jumpi(tag_2, calldatasize)\n        /* \"Week8/Ex6_16.sol\":168:197  Obtain(msg.sender, msg.value) */\n      0x0368838220383a15f8cb55f018fd7c72a2a7b39241ce69b3633d92b2dcb3aca7\n        /* \"Week8/Ex6_16.sol\":175:185  msg.sender */\n      caller\n        /* \"Week8/Ex6_16.sol\":187:196  msg.value */\n      callvalue\n        /* \"Week8/Ex6_16.sol\":168:197  Obtain(msg.sender, msg.value) */\n      mload(0x40)\n      tag_7\n      swap3\n      swap2\n      swap1\n      tag_8\n      jump\t// in\n    tag_7:\n      mload(0x40)\n      dup1\n      swap2\n      sub\n      swap1\n      log1\n        /* \"Week8/Ex6_16.sol\":72:376  contract Ex6_16 {... */\n      stop\n    tag_2:\n      revert(0x00, 0x00)\n        /* \"Week8/Ex6_16.sol\":288:373  function sendEther() public payable {... */\n    tag_3:\n      tag_9\n      tag_10\n      jump\t// in\n    tag_9:\n      stop\n        /* \"Week8/Ex6_16.sol\":203:286  function getBalance() public view returns(uint) {... */\n    tag_4:\n      callvalue\n      dup1\n      iszero\n      tag_11\n      jumpi\n      revert(0x00, 0x00)\n    tag_11:\n      pop\n      tag_12\n      tag_13\n      jump\t// in\n    tag_12:\n      mload(0x40)\n      tag_14\n      swap2\n      swap1\n      tag_15\n      jump\t// in\n    tag_14:\n      mload(0x40)\n      dup1\n      swap2\n      sub\n      swap1\n      return\n        /* \"Week8/Ex6_16.sol\":288:373  function sendEther() public payable {... */\n    tag_10:\n        /* \"Week8/Ex6_16.sol\":343:347  this */\n      address\n        /* \"Week8/Ex6_16.sol\":327:358  payable(address(this)).transfer */\n      0xffffffffffffffffffffffffffffffffffffffff\n      and\n        /* \"Week8/Ex6_16.sol\":327:369  payable(address(this)).transfer(msg.value) */\n      0x08fc\n        /* \"Week8/Ex6_16.sol\":359:368  msg.value */\n      callvalue\n        /* \"Week8/Ex6_16.sol\":327:369  payable(address(this)).transfer(msg.value) */\n      swap1\n      dup2\n      iszero\n      mul\n      swap1\n      mload(0x40)\n      0x00\n      mload(0x40)\n      dup1\n      dup4\n      sub\n      dup2\n      dup6\n      dup9\n      dup9\n      call\n      swap4\n      pop\n      pop\n      pop\n      pop\n      iszero\n      dup1\n      iszero\n      tag_18\n      jumpi\n      returndatacopy(0x00, 0x00, returndatasize)\n      revert(0x00, returndatasize)\n    tag_18:\n      pop\n        /* \"Week8/Ex6_16.sol\":288:373  function sendEther() public payable {... */\n      jump\t// out\n        /* \"Week8/Ex6_16.sol\":203:286  function getBalance() public view returns(uint) {... */\n    tag_13:\n        /* \"Week8/Ex6_16.sol\":245:249  uint */\n      0x00\n        /* \"Week8/Ex6_16.sol\":261:282  address(this).balance */\n      selfbalance\n        /* \"Week8/Ex6_16.sol\":254:282  return address(this).balance */\n      swap1\n      pop\n        /* \"Week8/Ex6_16.sol\":203:286  function getBalance() public view returns(uint) {... */\n      swap1\n      jump\t// out\n        /* \"#utility.yul\":7:133   */\n    tag_20:\n        /* \"#utility.yul\":44:51   */\n      0x00\n        /* \"#utility.yul\":84:126   */\n      0xffffffffffffffffffffffffffffffffffffffff\n        /* \"#utility.yul\":77:82   */\n      dup3\n        /* \"#utility.yul\":73:127   */\n      and\n        /* \"#utility.yul\":62:127   */\n      swap1\n      pop\n        /* \"#utility.yul\":7:133   */\n      swap2\n      swap1\n      pop\n      jump\t// out\n        /* \"#utility.yul\":139:235   */\n    tag_21:\n        /* \"#utility.yul\":176:183   */\n      0x00\n        /* \"#utility.yul\":205:229   */\n      tag_28\n        /* \"#utility.yul\":223:228   */\n      dup3\n        /* \"#utility.yul\":205:229   */\n      tag_20\n      jump\t// in\n    tag_28:\n        /* \"#utility.yul\":194:229   */\n      swap1\n      pop\n        /* \"#utility.yul\":139:235   */\n      swap2\n      swap1\n      pop\n      jump\t// out\n        /* \"#utility.yul\":241:359   */\n    tag_22:\n        /* \"#utility.yul\":328:352   */\n      tag_30\n        /* \"#utility.yul\":346:351   */\n      dup2\n        /* \"#utility.yul\":328:352   */\n      tag_21\n      jump\t// in\n    tag_30:\n        /* \"#utility.yul\":323:326   */\n      dup3\n        /* \"#utility.yul\":316:353   */\n      mstore\n        /* \"#utility.yul\":241:359   */\n      pop\n      pop\n      jump\t// out\n        /* \"#utility.yul\":365:442   */\n    tag_23:\n        /* \"#utility.yul\":402:409   */\n      0x00\n        /* \"#utility.yul\":431:436   */\n      dup2\n        /* \"#utility.yul\":420:436   */\n      swap1\n      pop\n        /* \"#utility.yul\":365:442   */\n      swap2\n      swap1\n      pop\n      jump\t// out\n        /* \"#utility.yul\":448:566   */\n    tag_24:\n        /* \"#utility.yul\":535:559   */\n      tag_33\n        /* \"#utility.yul\":553:558   */\n      dup2\n        /* \"#utility.yul\":535:559   */\n      tag_23\n      jump\t// in\n    tag_33:\n        /* \"#utility.yul\":530:533   */\n      dup3\n        /* \"#utility.yul\":523:560   */\n      mstore\n        /* \"#utility.yul\":448:566   */\n      pop\n      pop\n      jump\t// out\n        /* \"#utility.yul\":572:904   */\n    tag_8:\n        /* \"#utility.yul\":693:697   */\n      0x00\n        /* \"#utility.yul\":731:733   */\n      0x40\n        /* \"#utility.yul\":720:729   */\n      dup3\n        /* \"#utility.yul\":716:734   */\n      add\n        /* \"#utility.yul\":708:734   */\n      swap1\n      pop\n        /* \"#utility.yul\":744:815   */\n      tag_35\n        /* \"#utility.yul\":812:813   */\n      0x00\n        /* \"#utility.yul\":801:810   */\n      dup4\n        /* \"#utility.yul\":797:814   */\n      add\n        /* \"#utility.yul\":788:794   */\n      dup6\n        /* \"#utility.yul\":744:815   */\n      tag_22\n      jump\t// in\n    tag_35:\n        /* \"#utility.yul\":825:897   */\n      tag_36\n        /* \"#utility.yul\":893:895   */\n      0x20\n        /* \"#utility.yul\":882:891   */\n      dup4\n        /* \"#utility.yul\":878:896   */\n      add\n        /* \"#utility.yul\":869:875   */\n      dup5\n        /* \"#utility.yul\":825:897   */\n      tag_24\n      jump\t// in\n    tag_36:\n        /* \"#utility.yul\":572:904   */\n      swap4\n      swap3\n      pop\n      pop\n      pop\n      jump\t// out\n        /* \"#utility.yul\":910:1132   */\n    tag_15:\n        /* \"#utility.yul\":1003:1007   */\n      0x00\n        /* \"#utility.yul\":1041:1043   */\n      0x20\n        /* \"#utility.yul\":1030:1039   */\n      dup3\n        /* \"#utility.yul\":1026:1044   */\n      add\n        /* \"#utility.yul\":1018:1044   */\n      swap1\n      pop\n        /* \"#utility.yul\":1054:1125   */\n      tag_38\n        /* \"#utility.yul\":1122:1123   */\n      0x00\n        /* \"#utility.yul\":1111:1120   */\n      dup4\n        /* \"#utility.yul\":1107:1124   */\n      add\n        /* \"#utility.yul\":1098:1104   */\n      dup5\n        /* \"#utility.yul\":1054:1125   */\n      tag_24\n      jump\t// in\n    tag_38:\n        /* \"#utility.yul\":910:1132   */\n      swap3\n      swap2\n      pop\n      pop\n      jump\t// out\n\n    auxdata: 0xa26469706673582212206a28b36ba4c3cf8c12871a1760e6285d125e541381998ba7441bc05c17cb53e364736f6c634300081e0033\n}\n",
				"bytecode": {
					"linkReferences": {},
					"object": "6080604052348015600e575f5ffd5b506101be8061001c5f395ff3fe60806040526004361061002c575f3560e01c80630e29df221461007057806312065fe01461007a5761006c565b3661006c577f0368838220383a15f8cb55f018fd7c72a2a7b39241ce69b3633d92b2dcb3aca73334604051610062929190610148565b60405180910390a1005b5f5ffd5b6100786100a4565b005b348015610085575f5ffd5b5061008e6100ea565b60405161009b919061016f565b60405180910390f35b3073ffffffffffffffffffffffffffffffffffffffff166108fc3490811502906040515f60405180830381858888f193505050501580156100e7573d5f5f3e3d5ffd5b50565b5f47905090565b5f73ffffffffffffffffffffffffffffffffffffffff82169050919050565b5f61011a826100f1565b9050919050565b61012a81610110565b82525050565b5f819050919050565b61014281610130565b82525050565b5f60408201905061015b5f830185610121565b6101686020830184610139565b9392505050565b5f6020820190506101825f830184610139565b9291505056fea26469706673582212206a28b36ba4c3cf8c12871a1760e6285d125e541381998ba7441bc05c17cb53e364736f6c634300081e0033",
					"opcodes": "PUSH1 0x80 PUSH1 0x40 MSTORE CALLVALUE DUP1 ISZERO PUSH1 0xE JUMPI PUSH0 PUSH0 REVERT JUMPDEST POP PUSH2 0x1BE DUP1 PUSH2 0x1C PUSH0 CODECOPY PUSH0 RETURN INVALID PUSH1 0x80 PUSH1 0x40 MSTORE PUSH1 0x4 CALLDATASIZE LT PUSH2 0x2C JUMPI PUSH0 CALLDATALOAD PUSH1 0xE0 SHR DUP1 PUSH4 0xE29DF22 EQ PUSH2 0x70 JUMPI DUP1 PUSH4 0x12065FE0 EQ PUSH2 0x7A JUMPI PUSH2 0x6C JUMP JUMPDEST CALLDATASIZE PUSH2 0x6C JUMPI PUSH32 0x368838220383A15F8CB55F018FD7C72A2A7B39241CE69B3633D92B2DCB3ACA7 CALLER CALLVALUE PUSH1 0x40 MLOAD PUSH2 0x62 SWAP3 SWAP2 SWAP1 PUSH2 0x148 JUMP JUMPDEST PUSH1 0x40 MLOAD DUP1 SWAP2 SUB SWAP1 LOG1 STOP JUMPDEST PUSH0 PUSH0 REVERT JUMPDEST PUSH2 0x78 PUSH2 0xA4 JUMP JUMPDEST STOP JUMPDEST CALLVALUE DUP1 ISZERO PUSH2 0x85 JUMPI PUSH0 PUSH0 REVERT JUMPDEST POP PUSH2 0x8E PUSH2 0xEA JUMP JUMPDEST PUSH1 0x40 MLOAD PUSH2 0x9B SWAP2 SWAP1 PUSH2 0x16F JUMP JUMPDEST PUSH1 0x40 MLOAD DUP1 SWAP2 SUB SWAP1 RETURN JUMPDEST ADDRESS PUSH20 0xFFFFFFFFFFFFFFFFFFFFFFFFFFFFFFFFFFFFFFFF AND PUSH2 0x8FC CALLVALUE SWAP1 DUP2 ISZERO MUL SWAP1 PUSH1 0x40 MLOAD PUSH0 PUSH1 0x40 MLOAD DUP1 DUP4 SUB DUP2 DUP6 DUP9 DUP9 CALL SWAP4 POP POP POP POP ISZERO DUP1 ISZERO PUSH2 0xE7 JUMPI RETURNDATASIZE PUSH0 PUSH0 RETURNDATACOPY RETURNDATASIZE PUSH0 REVERT JUMPDEST POP JUMP JUMPDEST PUSH0 SELFBALANCE SWAP1 POP SWAP1 JUMP JUMPDEST PUSH0 PUSH20 0xFFFFFFFFFFFFFFFFFFFFFFFFFFFFFFFFFFFFFFFF DUP3 AND SWAP1 POP SWAP2 SWAP1 POP JUMP JUMPDEST PUSH0 PUSH2 0x11A DUP3 PUSH2 0xF1 JUMP JUMPDEST SWAP1 POP SWAP2 SWAP1 POP JUMP JUMPDEST PUSH2 0x12A DUP2 PUSH2 0x110 JUMP JUMPDEST DUP3 MSTORE POP POP JUMP JUMPDEST PUSH0 DUP2 SWAP1 POP SWAP2 SWAP1 POP JUMP JUMPDEST PUSH2 0x142 DUP2 PUSH2 0x130 JUMP JUMPDEST DUP3 MSTORE POP POP JUMP JUMPDEST PUSH0 PUSH1 0x40 DUP3 ADD SWAP1 POP PUSH2 0x15B PUSH0 DUP4 ADD DUP6 PUSH2 0x121 JUMP JUMPDEST PUSH2 0x168 PUSH1 0x20 DUP4 ADD DUP5 PUSH2 0x139 JUMP JUMPDEST SWAP4 SWAP3 POP POP POP JUMP JUMPDEST PUSH0 PUSH1 0x20 DUP3 ADD SWAP1 POP PUSH2 0x182 PUSH0 DUP4 ADD DUP5 PUSH2 0x139 JUMP JUMPDEST SWAP3 SWAP2 POP POP JUMP INVALID LOG2 PUSH5 0x6970667358 0x22 SLT KECCAK256 PUSH11 0x28B36BA4C3CF8C12871A17 PUSH1 0xE6 0x28 TSTORE SLT MCOPY SLOAD SGT DUP2 SWAP10 DUP12 0xA7 PREVRANDAO SHL 0xC0 TLOAD OR 0xCB MSTORE8 CALLF 0x6473 PUSH16 0x6C634300081E00330000000000000000 "
				},
				"gasEstimates": {
					"creation": {
						"codeDepositCost": "89200",
						"executionCost": "133",
						"totalCost": "89333"
					},
					"external": {
						"getBalance()": "334",
						"sendEther()": "infinite"
					}
				},
				"methodIdentifiers": {
					"getBalance()": "12065fe0",
					"sendEther()": "0e29df22"
				}
			},
			"storageLayout": {
				"storage": [],
				"types": null
			},
			"userdoc": {
				"kind": "user",
				"methods": {},
				"version": 1
			}
		}
	}
}