{
	"ERC721StdNFT.sol": {
		"ERC721StdNFT": {
			"abi": [
				{
					"inputs": [
						{
							"internalType": "string",
							"name": "_name",
							"type": "string"
						},
						{
							"internalType": "string",
							"name": "_symbol",
							"type": "string"
						}
					],
					"stateMutability": "nonpayable",
					"type": "constructor"
				},
				{
					"anonymous": false,
					"inputs": [
						{
							"indexed": true,
							"internalType": "address",
							"name": "_owner",
							"type": "address"
						},
						{
							"indexed": true,
							"internalType": "address",
							"name": "_approved",
							"type": "address"
						},
						{
							"indexed": true,
							"internalType": "uint256",
							"name": "_tokenId",
							"type": "uint256"
						}
					],
					"name": "Approval",
					"type": "event"
				},
				{
					"anonymous": false,
					"inputs": [
						{
							"indexed": true,
							"internalType": "address",
							"name": "_owner",
							"type": "address"
						},
						{
							"indexed": true,
							"internalType": "address",
							"name": "_operator",
							"type": "address"
						},
						{
							"indexed": false,
							"internalType": "bool",
							"name": "_approved",
							"type": "bool"
						}
					],
					"name": "ApprovalForAll",
					"type": "event"
				},
				{
					"anonymous": false,
					"inputs": [
						{
							"indexed": true,
							"internalType": "address",
							"name": "_from",
							"type": "address"
						},
						{
							"indexed": true,
							"internalType": "address",
							"name": "_to",
							"type": "address"
						},
						{
							"indexed": true,
							"internalType": "uint256",
							"name": "_tokenId",
							"type": "uint256"
						}
					],
					"name": "Transfer",
					"type": "event"
				},
				{
					"inputs": [
						{
							"internalType": "address",
							"name": "_approved",
							"type": "address"
						},
						{
							"internalType": "uint256",
							"name": "_tokenId",
							"type": "uint256"
						}
					],
					"name": "approve",
					"outputs": [],
					"stateMutability": "payable",
					"type": "function"
				},
				{
					"inputs": [
						{
							"internalType": "address",
							"name": "_owner",
							"type": "address"
						}
					],
					"name": "balanceOf",
					"outputs": [
						{
							"internalType": "uint256",
							"name": "",
							"type": "uint256"
						}
					],
					"stateMutability": "view",
					"type": "function"
				},
				{
					"inputs": [],
					"name": "founder",
					"outputs": [
						{
							"internalType": "address",
							"name": "",
							"type": "address"
						}
					],
					"stateMutability": "view",
					"type": "function"
				},
				{
					"inputs": [
						{
							"internalType": "uint256",
							"name": "_tokenId",
							"type": "uint256"
						}
					],
					"name": "getApproved",
					"outputs": [
						{
							"internalType": "address",
							"name": "",
							"type": "address"
						}
					],
					"stateMutability": "view",
					"type": "function"
				},
				{
					"inputs": [
						{
							"internalType": "address",
							"name": "_owner",
							"type": "address"
						},
						{
							"internalType": "address",
							"name": "_operator",
							"type": "address"
						}
					],
					"name": "isApprovedForAll",
					"outputs": [
						{
							"internalType": "bool",
							"name": "",
							"type": "bool"
						}
					],
					"stateMutability": "view",
					"type": "function"
				},
				{
					"inputs": [
						{
							"internalType": "address",
							"name": "to",
							"type": "address"
						},
						{
							"internalType": "uint256",
							"name": "tokenID",
							"type": "uint256"
						}
					],
					"name": "mintNFT",
					"outputs": [],
					"stateMutability": "nonpayable",
					"type": "function"
				},
				{
					"inputs": [],
					"name": "name",
					"outputs": [
						{
							"internalType": "string",
							"name": "",
							"type": "string"
						}
					],
					"stateMutability": "view",
					"type": "function"
				},
				{
					"inputs": [
						{
							"internalType": "uint256",
							"name": "_tokenId",
							"type": "uint256"
						}
					],
					"name": "ownerOf",
					"outputs": [
						{
							"internalType": "address",
							"name": "",
							"type": "address"
						}
					],
					"stateMutability": "view",
					"type": "function"
				},
				{
					"inputs": [
						{
							"internalType": "address",
							"name": "_from",
							"type": "address"
						},
						{
							"internalType": "address",
							"name": "_to",
							"type": "address"
						},
						{
							"internalType": "uint256",
							"name": "_tokenId",
							"type": "uint256"
						}
					],
					"name": "safeTransferFrom",
					"outputs": [],
					"stateMutability": "payable",
					"type": "function"
				},
				{
					"inputs": [
						{
							"internalType": "address",
							"name": "_from",
							"type": "address"
						},
						{
							"internalType": "address",
							"name": "_to",
							"type": "address"
						},
						{
							"internalType": "uint256",
							"name": "_tokenId",
							"type": "uint256"
						},
						{
							"internalType": "bytes",
							"name": "data",
							"type": "bytes"
						}
					],
					"name": "safeTransferFrom",
					"outputs": [],
					"stateMutability": "payable",
					"type": "function"
				},
				{
					"inputs": [
						{
							"internalType": "address",
							"name": "_operator",
							"type": "address"
						},
						{
							"internalType": "bool",
							"name": "_approved",
							"type": "bool"
						}
					],
					"name": "setApprovalForAll",
					"outputs": [],
					"stateMutability": "nonpayable",
					"type": "function"
				},
				{
					"inputs": [
						{
							"internalType": "bytes4",
							"name": "interfaceId",
							"type": "bytes4"
						}
					],
					"name": "supportsInterface",
					"outputs": [
						{
							"internalType": "bool",
							"name": "",
							"type": "bool"
						}
					],
					"stateMutability": "pure",
					"type": "function"
				},
				{
					"inputs": [],
					"name": "symbol",
					"outputs": [
						{
							"internalType": "string",
							"name": "",
							"type": "string"
						}
					],
					"stateMutability": "view",
					"type": "function"
				},
				{
					"inputs": [
						{
							"internalType": "address",
							"name": "_from",
							"type": "address"
						},
						{
							"internalType": "address",
							"name": "_to",
							"type": "address"
						},
						{
							"internalType": "uint256",
							"name": "_tokenId",
							"type": "uint256"
						}
					],
					"name": "transferFrom",
					"outputs": [],
					"stateMutability": "payable",
					"type": "function"
				}
			],
			"devdoc": {
				"kind": "dev",
				"methods": {},
				"version": 1
			},
			"evm": {
				"assembly": "    /* \"ERC721StdNFT.sol\":1733:8026  contract ERC721StdNFT is ERC721... */\n  mstore(0x40, 0x80)\n    /* \"ERC721StdNFT.sol\":2670:3082  constructor (string memory _name, string memory _symbol) ... */\n  callvalue\n  dup1\n  iszero\n  tag_1\n  jumpi\n  revert(0x00, 0x00)\ntag_1:\n  pop\n  mload(0x40)\n  sub(codesize, bytecodeSize)\n  dup1\n  bytecodeSize\n  dup4\n  codecopy\n  dup2\n  dup2\n  add\n  0x40\n  mstore\n  dup2\n  add\n  swap1\n  tag_2\n  swap2\n  swap1\n  tag_3\n  jump\t// in\ntag_2:\n    /* \"ERC721StdNFT.sol\":2797:2807  msg.sender */\n  caller\n    /* \"ERC721StdNFT.sol\":2787:2794  founder */\n  0x00\n  0x00\n    /* \"ERC721StdNFT.sol\":2787:2807  founder = msg.sender */\n  0x0100\n  exp\n  dup2\n  sload\n  dup2\n  0xffffffffffffffffffffffffffffffffffffffff\n  mul\n  not\n  and\n  swap1\n  dup4\n  0xffffffffffffffffffffffffffffffffffffffff\n  and\n  mul\n  or\n  swap1\n  sstore\n  pop\n    /* \"ERC721StdNFT.sol\":2861:2866  _name */\n  dup2\n    /* \"ERC721StdNFT.sol\":2854:2858  name */\n  0x05\n    /* \"ERC721StdNFT.sol\":2854:2866  name = _name */\n  swap1\n  dup2\n  tag_6\n  swap2\n  swap1\n  tag_7\n  jump\t// in\ntag_6:\n  pop\n    /* \"ERC721StdNFT.sol\":2886:2893  _symbol */\n  dup1\n    /* \"ERC721StdNFT.sol\":2877:2883  symbol */\n  0x06\n    /* \"ERC721StdNFT.sol\":2877:2893  symbol = _symbol */\n  swap1\n  dup2\n  tag_8\n  swap2\n  swap1\n  tag_7\n  jump\t// in\ntag_8:\n  pop\n    /* \"ERC721StdNFT.sol\":2973:2985  uint tokenID */\n  0x00\n    /* \"ERC721StdNFT.sol\":2986:2987  1 */\n  0x01\n    /* \"ERC721StdNFT.sol\":2973:2987  uint tokenID=1 */\n  swap1\n  pop\n    /* \"ERC721StdNFT.sol\":2968:3075  for (uint tokenID=1; tokenID<=5; tokenID++) ... */\ntag_9:\n    /* \"ERC721StdNFT.sol\":2998:2999  5 */\n  0x05\n    /* \"ERC721StdNFT.sol\":2989:2996  tokenID */\n  dup2\n    /* \"ERC721StdNFT.sol\":2989:2999  tokenID<=5 */\n  gt\n    /* \"ERC721StdNFT.sol\":2968:3075  for (uint tokenID=1; tokenID<=5; tokenID++) ... */\n  tag_10\n  jumpi\n    /* \"ERC721StdNFT.sol\":3037:3063  _mint(msg.sender, tokenID) */\n  tag_12\n    /* \"ERC721StdNFT.sol\":3043:3053  msg.sender */\n  caller\n    /* \"ERC721StdNFT.sol\":3055:3062  tokenID */\n  dup3\n    /* \"ERC721StdNFT.sol\":3037:3042  _mint */\n  shl(0x20, tag_13)\n    /* \"ERC721StdNFT.sol\":3037:3063  _mint(msg.sender, tokenID) */\n  0x20\n  shr\n  jump\t// in\ntag_12:\n    /* \"ERC721StdNFT.sol\":3001:3010  tokenID++ */\n  dup1\n  dup1\n  tag_14\n  swap1\n  tag_15\n  jump\t// in\ntag_14:\n  swap2\n  pop\n  pop\n    /* \"ERC721StdNFT.sol\":2968:3075  for (uint tokenID=1; tokenID<=5; tokenID++) ... */\n  jump(tag_9)\ntag_10:\n  pop\n    /* \"ERC721StdNFT.sol\":2670:3082  constructor (string memory _name, string memory _symbol) ... */\n  pop\n  pop\n    /* \"ERC721StdNFT.sol\":1733:8026  contract ERC721StdNFT is ERC721... */\n  jump(tag_16)\n    /* \"ERC721StdNFT.sol\":3128:3614  function _mint(address to, uint id) internal ... */\ntag_13:\n    /* \"ERC721StdNFT.sol\":3253:3254  0 */\n  0x00\n    /* \"ERC721StdNFT.sol\":3239:3255  to != address(0) */\n  0xffffffffffffffffffffffffffffffffffffffff\n  and\n    /* \"ERC721StdNFT.sol\":3239:3241  to */\n  dup3\n    /* \"ERC721StdNFT.sol\":3239:3255  to != address(0) */\n  0xffffffffffffffffffffffffffffffffffffffff\n  and\n  sub\n    /* \"ERC721StdNFT.sol\":3231:3280  require(to != address(0), \"mint to zero address\") */\n  tag_18\n  jumpi\n  mload(0x40)\n  0x08c379a000000000000000000000000000000000000000000000000000000000\n  dup2\n  mstore\n  0x04\n  add\n  tag_19\n  swap1\n  tag_20\n  jump\t// in\ntag_19:\n  mload(0x40)\n  dup1\n  swap2\n  sub\n  swap1\n  revert\ntag_18:\n    /* \"ERC721StdNFT.sol\":3371:3372  0 */\n  0x00\n    /* \"ERC721StdNFT.sol\":3347:3373  _ownerOf[id] == address(0) */\n  0xffffffffffffffffffffffffffffffffffffffff\n  and\n    /* \"ERC721StdNFT.sol\":3347:3355  _ownerOf */\n  0x01\n    /* \"ERC721StdNFT.sol\":3347:3359  _ownerOf[id] */\n  0x00\n    /* \"ERC721StdNFT.sol\":3356:3358  id */\n  dup4\n    /* \"ERC721StdNFT.sol\":3347:3359  _ownerOf[id] */\n  dup2\n  mstore\n  0x20\n  add\n  swap1\n  dup2\n  mstore\n  0x20\n  add\n  0x00\n  keccak256\n  0x00\n  swap1\n  sload\n  swap1\n  0x0100\n  exp\n  swap1\n  div\n  0xffffffffffffffffffffffffffffffffffffffff\n  and\n    /* \"ERC721StdNFT.sol\":3347:3373  _ownerOf[id] == address(0) */\n  0xffffffffffffffffffffffffffffffffffffffff\n  and\n  eq\n    /* \"ERC721StdNFT.sol\":3339:3392  require(_ownerOf[id] == address(0), \"already minted\") */\n  tag_21\n  jumpi\n  mload(0x40)\n  0x08c379a000000000000000000000000000000000000000000000000000000000\n  dup2\n  mstore\n  0x04\n  add\n  tag_22\n  swap1\n  tag_23\n  jump\t// in\ntag_22:\n  mload(0x40)\n  dup1\n  swap2\n  sub\n  swap1\n  revert\ntag_21:\n    /* \"ERC721StdNFT.sol\":3446:3456  _balanceOf */\n  0x02\n    /* \"ERC721StdNFT.sol\":3446:3460  _balanceOf[to] */\n  0x00\n    /* \"ERC721StdNFT.sol\":3457:3459  to */\n  dup4\n    /* \"ERC721StdNFT.sol\":3446:3460  _balanceOf[to] */\n  0xffffffffffffffffffffffffffffffffffffffff\n  and\n  0xffffffffffffffffffffffffffffffffffffffff\n  and\n  dup2\n  mstore\n  0x20\n  add\n  swap1\n  dup2\n  mstore\n  0x20\n  add\n  0x00\n  keccak256\n  0x00\n    /* \"ERC721StdNFT.sol\":3446:3462  _balanceOf[to]++ */\n  dup2\n  sload\n  dup1\n  swap3\n  swap2\n  swap1\n  tag_24\n  swap1\n  tag_15\n  jump\t// in\ntag_24:\n  swap2\n  swap1\n  pop\n  sstore\n  pop\n    /* \"ERC721StdNFT.sol\":3524:3526  to */\n  dup2\n    /* \"ERC721StdNFT.sol\":3509:3517  _ownerOf */\n  0x01\n    /* \"ERC721StdNFT.sol\":3509:3521  _ownerOf[id] */\n  0x00\n    /* \"ERC721StdNFT.sol\":3518:3520  id */\n  dup4\n    /* \"ERC721StdNFT.sol\":3509:3521  _ownerOf[id] */\n  dup2\n  mstore\n  0x20\n  add\n  swap1\n  dup2\n  mstore\n  0x20\n  add\n  0x00\n  keccak256\n  0x00\n    /* \"ERC721StdNFT.sol\":3509:3526  _ownerOf[id] = to */\n  0x0100\n  exp\n  dup2\n  sload\n  dup2\n  0xffffffffffffffffffffffffffffffffffffffff\n  mul\n  not\n  and\n  swap1\n  dup4\n  0xffffffffffffffffffffffffffffffffffffffff\n  and\n  mul\n  or\n  swap1\n  sstore\n  pop\n    /* \"ERC721StdNFT.sol\":3603:3605  id */\n  dup1\n    /* \"ERC721StdNFT.sol\":3599:3601  to */\n  dup3\n    /* \"ERC721StdNFT.sol\":3578:3606  Transfer(address(0), to, id) */\n  0xffffffffffffffffffffffffffffffffffffffff\n  and\n    /* \"ERC721StdNFT.sol\":3595:3596  0 */\n  0x00\n    /* \"ERC721StdNFT.sol\":3578:3606  Transfer(address(0), to, id) */\n  0xffffffffffffffffffffffffffffffffffffffff\n  and\n  0xddf252ad1be2c89b69c2b068fc378daa952ba7f163c4a11628f55a4df523b3ef\n  mload(0x40)\n  mload(0x40)\n  dup1\n  swap2\n  sub\n  swap1\n  log4\n    /* \"ERC721StdNFT.sol\":3128:3614  function _mint(address to, uint id) internal ... */\n  pop\n  pop\n  jump\t// out\n    /* \"#utility.yul\":7:82   */\ntag_25:\n    /* \"#utility.yul\":40:46   */\n  0x00\n    /* \"#utility.yul\":73:75   */\n  0x40\n    /* \"#utility.yul\":67:76   */\n  mload\n    /* \"#utility.yul\":57:76   */\n  swap1\n  pop\n    /* \"#utility.yul\":7:82   */\n  swap1\n  jump\t// out\n    /* \"#utility.yul\":88:205   */\ntag_26:\n    /* \"#utility.yul\":197:198   */\n  0x00\n    /* \"#utility.yul\":194:195   */\n  0x00\n    /* \"#utility.yul\":187:199   */\n  revert\n    /* \"#utility.yul\":211:328   */\ntag_27:\n    /* \"#utility.yul\":320:321   */\n  0x00\n    /* \"#utility.yul\":317:318   */\n  0x00\n    /* \"#utility.yul\":310:322   */\n  revert\n    /* \"#utility.yul\":334:451   */\ntag_28:\n    /* \"#utility.yul\":443:444   */\n  0x00\n    /* \"#utility.yul\":440:441   */\n  0x00\n    /* \"#utility.yul\":433:445   */\n  revert\n    /* \"#utility.yul\":457:574   */\ntag_29:\n    /* \"#utility.yul\":566:567   */\n  0x00\n    /* \"#utility.yul\":563:564   */\n  0x00\n    /* \"#utility.yul\":556:568   */\n  revert\n    /* \"#utility.yul\":580:682   */\ntag_30:\n    /* \"#utility.yul\":621:627   */\n  0x00\n    /* \"#utility.yul\":672:674   */\n  0x1f\n    /* \"#utility.yul\":668:675   */\n  not\n    /* \"#utility.yul\":663:665   */\n  0x1f\n    /* \"#utility.yul\":656:661   */\n  dup4\n    /* \"#utility.yul\":652:666   */\n  add\n    /* \"#utility.yul\":648:676   */\n  and\n    /* \"#utility.yul\":638:676   */\n  swap1\n  pop\n    /* \"#utility.yul\":580:682   */\n  swap2\n  swap1\n  pop\n  jump\t// out\n    /* \"#utility.yul\":688:868   */\ntag_31:\n    /* \"#utility.yul\":736:813   */\n  0x4e487b7100000000000000000000000000000000000000000000000000000000\n    /* \"#utility.yul\":733:734   */\n  0x00\n    /* \"#utility.yul\":726:814   */\n  mstore\n    /* \"#utility.yul\":833:837   */\n  0x41\n    /* \"#utility.yul\":830:831   */\n  0x04\n    /* \"#utility.yul\":823:838   */\n  mstore\n    /* \"#utility.yul\":857:861   */\n  0x24\n    /* \"#utility.yul\":854:855   */\n  0x00\n    /* \"#utility.yul\":847:862   */\n  revert\n    /* \"#utility.yul\":874:1155   */\ntag_32:\n    /* \"#utility.yul\":957:984   */\n  tag_72\n    /* \"#utility.yul\":979:983   */\n  dup3\n    /* \"#utility.yul\":957:984   */\n  tag_30\n  jump\t// in\ntag_72:\n    /* \"#utility.yul\":949:955   */\n  dup2\n    /* \"#utility.yul\":945:985   */\n  add\n    /* \"#utility.yul\":1087:1093   */\n  dup2\n    /* \"#utility.yul\":1075:1085   */\n  dup2\n    /* \"#utility.yul\":1072:1094   */\n  lt\n    /* \"#utility.yul\":1051:1069   */\n  0xffffffffffffffff\n    /* \"#utility.yul\":1039:1049   */\n  dup3\n    /* \"#utility.yul\":1036:1070   */\n  gt\n    /* \"#utility.yul\":1033:1095   */\n  or\n    /* \"#utility.yul\":1030:1118   */\n  iszero\n  tag_73\n  jumpi\n    /* \"#utility.yul\":1098:1116   */\n  tag_74\n  tag_31\n  jump\t// in\ntag_74:\n    /* \"#utility.yul\":1030:1118   */\ntag_73:\n    /* \"#utility.yul\":1138:1148   */\n  dup1\n    /* \"#utility.yul\":1134:1136   */\n  0x40\n    /* \"#utility.yul\":1127:1149   */\n  mstore\n    /* \"#utility.yul\":917:1155   */\n  pop\n    /* \"#utility.yul\":874:1155   */\n  pop\n  pop\n  jump\t// out\n    /* \"#utility.yul\":1161:1290   */\ntag_33:\n    /* \"#utility.yul\":1195:1201   */\n  0x00\n    /* \"#utility.yul\":1222:1242   */\n  tag_76\n  tag_25\n  jump\t// in\ntag_76:\n    /* \"#utility.yul\":1212:1242   */\n  swap1\n  pop\n    /* \"#utility.yul\":1251:1284   */\n  tag_77\n    /* \"#utility.yul\":1279:1283   */\n  dup3\n    /* \"#utility.yul\":1271:1277   */\n  dup3\n    /* \"#utility.yul\":1251:1284   */\n  tag_32\n  jump\t// in\ntag_77:\n    /* \"#utility.yul\":1161:1290   */\n  swap2\n  swap1\n  pop\n  jump\t// out\n    /* \"#utility.yul\":1296:1604   */\ntag_34:\n    /* \"#utility.yul\":1358:1362   */\n  0x00\n    /* \"#utility.yul\":1448:1466   */\n  0xffffffffffffffff\n    /* \"#utility.yul\":1440:1446   */\n  dup3\n    /* \"#utility.yul\":1437:1467   */\n  gt\n    /* \"#utility.yul\":1434:1490   */\n  iszero\n  tag_79\n  jumpi\n    /* \"#utility.yul\":1470:1488   */\n  tag_80\n  tag_31\n  jump\t// in\ntag_80:\n    /* \"#utility.yul\":1434:1490   */\ntag_79:\n    /* \"#utility.yul\":1508:1537   */\n  tag_81\n    /* \"#utility.yul\":1530:1536   */\n  dup3\n    /* \"#utility.yul\":1508:1537   */\n  tag_30\n  jump\t// in\ntag_81:\n    /* \"#utility.yul\":1500:1537   */\n  swap1\n  pop\n    /* \"#utility.yul\":1592:1596   */\n  0x20\n    /* \"#utility.yul\":1586:1590   */\n  dup2\n    /* \"#utility.yul\":1582:1597   */\n  add\n    /* \"#utility.yul\":1574:1597   */\n  swap1\n  pop\n    /* \"#utility.yul\":1296:1604   */\n  swap2\n  swap1\n  pop\n  jump\t// out\n    /* \"#utility.yul\":1610:1749   */\ntag_35:\n    /* \"#utility.yul\":1699:1705   */\n  dup3\n    /* \"#utility.yul\":1694:1697   */\n  dup2\n    /* \"#utility.yul\":1689:1692   */\n  dup4\n    /* \"#utility.yul\":1683:1706   */\n  mcopy\n    /* \"#utility.yul\":1740:1741   */\n  0x00\n    /* \"#utility.yul\":1731:1737   */\n  dup4\n    /* \"#utility.yul\":1726:1729   */\n  dup4\n    /* \"#utility.yul\":1722:1738   */\n  add\n    /* \"#utility.yul\":1715:1742   */\n  mstore\n    /* \"#utility.yul\":1610:1749   */\n  pop\n  pop\n  pop\n  jump\t// out\n    /* \"#utility.yul\":1755:2189   */\ntag_36:\n    /* \"#utility.yul\":1844:1849   */\n  0x00\n    /* \"#utility.yul\":1869:1935   */\n  tag_84\n    /* \"#utility.yul\":1885:1934   */\n  tag_85\n    /* \"#utility.yul\":1927:1933   */\n  dup5\n    /* \"#utility.yul\":1885:1934   */\n  tag_34\n  jump\t// in\ntag_85:\n    /* \"#utility.yul\":1869:1935   */\n  tag_33\n  jump\t// in\ntag_84:\n    /* \"#utility.yul\":1860:1935   */\n  swap1\n  pop\n    /* \"#utility.yul\":1958:1964   */\n  dup3\n    /* \"#utility.yul\":1951:1956   */\n  dup2\n    /* \"#utility.yul\":1944:1965   */\n  mstore\n    /* \"#utility.yul\":1996:2000   */\n  0x20\n    /* \"#utility.yul\":1989:1994   */\n  dup2\n    /* \"#utility.yul\":1985:2001   */\n  add\n    /* \"#utility.yul\":2034:2037   */\n  dup5\n    /* \"#utility.yul\":2025:2031   */\n  dup5\n    /* \"#utility.yul\":2020:2023   */\n  dup5\n    /* \"#utility.yul\":2016:2032   */\n  add\n    /* \"#utility.yul\":2013:2038   */\n  gt\n    /* \"#utility.yul\":2010:2122   */\n  iszero\n  tag_86\n  jumpi\n    /* \"#utility.yul\":2041:2120   */\n  tag_87\n  tag_29\n  jump\t// in\ntag_87:\n    /* \"#utility.yul\":2010:2122   */\ntag_86:\n    /* \"#utility.yul\":2131:2183   */\n  tag_88\n    /* \"#utility.yul\":2176:2182   */\n  dup5\n    /* \"#utility.yul\":2171:2174   */\n  dup3\n    /* \"#utility.yul\":2166:2169   */\n  dup6\n    /* \"#utility.yul\":2131:2183   */\n  tag_35\n  jump\t// in\ntag_88:\n    /* \"#utility.yul\":1850:2189   */\n  pop\n    /* \"#utility.yul\":1755:2189   */\n  swap4\n  swap3\n  pop\n  pop\n  pop\n  jump\t// out\n    /* \"#utility.yul\":2209:2564   */\ntag_37:\n    /* \"#utility.yul\":2276:2281   */\n  0x00\n    /* \"#utility.yul\":2325:2328   */\n  dup3\n    /* \"#utility.yul\":2318:2322   */\n  0x1f\n    /* \"#utility.yul\":2310:2316   */\n  dup4\n    /* \"#utility.yul\":2306:2323   */\n  add\n    /* \"#utility.yul\":2302:2329   */\n  slt\n    /* \"#utility.yul\":2292:2414   */\n  tag_90\n  jumpi\n    /* \"#utility.yul\":2333:2412   */\n  tag_91\n  tag_28\n  jump\t// in\ntag_91:\n    /* \"#utility.yul\":2292:2414   */\ntag_90:\n    /* \"#utility.yul\":2443:2449   */\n  dup2\n    /* \"#utility.yul\":2437:2450   */\n  mload\n    /* \"#utility.yul\":2468:2558   */\n  tag_92\n    /* \"#utility.yul\":2554:2557   */\n  dup5\n    /* \"#utility.yul\":2546:2552   */\n  dup3\n    /* \"#utility.yul\":2539:2543   */\n  0x20\n    /* \"#utility.yul\":2531:2537   */\n  dup7\n    /* \"#utility.yul\":2527:2544   */\n  add\n    /* \"#utility.yul\":2468:2558   */\n  tag_36\n  jump\t// in\ntag_92:\n    /* \"#utility.yul\":2459:2558   */\n  swap2\n  pop\n    /* \"#utility.yul\":2282:2564   */\n  pop\n    /* \"#utility.yul\":2209:2564   */\n  swap3\n  swap2\n  pop\n  pop\n  jump\t// out\n    /* \"#utility.yul\":2570:3423   */\ntag_3:\n    /* \"#utility.yul\":2669:2675   */\n  0x00\n    /* \"#utility.yul\":2677:2683   */\n  0x00\n    /* \"#utility.yul\":2726:2728   */\n  0x40\n    /* \"#utility.yul\":2714:2723   */\n  dup4\n    /* \"#utility.yul\":2705:2712   */\n  dup6\n    /* \"#utility.yul\":2701:2724   */\n  sub\n    /* \"#utility.yul\":2697:2729   */\n  slt\n    /* \"#utility.yul\":2694:2813   */\n  iszero\n  tag_94\n  jumpi\n    /* \"#utility.yul\":2732:2811   */\n  tag_95\n  tag_26\n  jump\t// in\ntag_95:\n    /* \"#utility.yul\":2694:2813   */\ntag_94:\n    /* \"#utility.yul\":2873:2874   */\n  0x00\n    /* \"#utility.yul\":2862:2871   */\n  dup4\n    /* \"#utility.yul\":2858:2875   */\n  add\n    /* \"#utility.yul\":2852:2876   */\n  mload\n    /* \"#utility.yul\":2903:2921   */\n  0xffffffffffffffff\n    /* \"#utility.yul\":2895:2901   */\n  dup2\n    /* \"#utility.yul\":2892:2922   */\n  gt\n    /* \"#utility.yul\":2889:3006   */\n  iszero\n  tag_96\n  jumpi\n    /* \"#utility.yul\":2925:3004   */\n  tag_97\n  tag_27\n  jump\t// in\ntag_97:\n    /* \"#utility.yul\":2889:3006   */\ntag_96:\n    /* \"#utility.yul\":3030:3104   */\n  tag_98\n    /* \"#utility.yul\":3096:3103   */\n  dup6\n    /* \"#utility.yul\":3087:3093   */\n  dup3\n    /* \"#utility.yul\":3076:3085   */\n  dup7\n    /* \"#utility.yul\":3072:3094   */\n  add\n    /* \"#utility.yul\":3030:3104   */\n  tag_37\n  jump\t// in\ntag_98:\n    /* \"#utility.yul\":3020:3104   */\n  swap3\n  pop\n    /* \"#utility.yul\":2823:3114   */\n  pop\n    /* \"#utility.yul\":3174:3176   */\n  0x20\n    /* \"#utility.yul\":3163:3172   */\n  dup4\n    /* \"#utility.yul\":3159:3177   */\n  add\n    /* \"#utility.yul\":3153:3178   */\n  mload\n    /* \"#utility.yul\":3205:3223   */\n  0xffffffffffffffff\n    /* \"#utility.yul\":3197:3203   */\n  dup2\n    /* \"#utility.yul\":3194:3224   */\n  gt\n    /* \"#utility.yul\":3191:3308   */\n  iszero\n  tag_99\n  jumpi\n    /* \"#utility.yul\":3227:3306   */\n  tag_100\n  tag_27\n  jump\t// in\ntag_100:\n    /* \"#utility.yul\":3191:3308   */\ntag_99:\n    /* \"#utility.yul\":3332:3406   */\n  tag_101\n    /* \"#utility.yul\":3398:3405   */\n  dup6\n    /* \"#utility.yul\":3389:3395   */\n  dup3\n    /* \"#utility.yul\":3378:3387   */\n  dup7\n    /* \"#utility.yul\":3374:3396   */\n  add\n    /* \"#utility.yul\":3332:3406   */\n  tag_37\n  jump\t// in\ntag_101:\n    /* \"#utility.yul\":3322:3406   */\n  swap2\n  pop\n    /* \"#utility.yul\":3124:3416   */\n  pop\n    /* \"#utility.yul\":2570:3423   */\n  swap3\n  pop\n  swap3\n  swap1\n  pop\n  jump\t// out\n    /* \"#utility.yul\":3429:3528   */\ntag_38:\n    /* \"#utility.yul\":3481:3487   */\n  0x00\n    /* \"#utility.yul\":3515:3520   */\n  dup2\n    /* \"#utility.yul\":3509:3521   */\n  mload\n    /* \"#utility.yul\":3499:3521   */\n  swap1\n  pop\n    /* \"#utility.yul\":3429:3528   */\n  swap2\n  swap1\n  pop\n  jump\t// out\n    /* \"#utility.yul\":3534:3714   */\ntag_39:\n    /* \"#utility.yul\":3582:3659   */\n  0x4e487b7100000000000000000000000000000000000000000000000000000000\n    /* \"#utility.yul\":3579:3580   */\n  0x00\n    /* \"#utility.yul\":3572:3660   */\n  mstore\n    /* \"#utility.yul\":3679:3683   */\n  0x22\n    /* \"#utility.yul\":3676:3677   */\n  0x04\n    /* \"#utility.yul\":3669:3684   */\n  mstore\n    /* \"#utility.yul\":3703:3707   */\n  0x24\n    /* \"#utility.yul\":3700:3701   */\n  0x00\n    /* \"#utility.yul\":3693:3708   */\n  revert\n    /* \"#utility.yul\":3720:4040   */\ntag_40:\n    /* \"#utility.yul\":3764:3770   */\n  0x00\n    /* \"#utility.yul\":3801:3802   */\n  0x02\n    /* \"#utility.yul\":3795:3799   */\n  dup3\n    /* \"#utility.yul\":3791:3803   */\n  div\n    /* \"#utility.yul\":3781:3803   */\n  swap1\n  pop\n    /* \"#utility.yul\":3848:3849   */\n  0x01\n    /* \"#utility.yul\":3842:3846   */\n  dup3\n    /* \"#utility.yul\":3838:3850   */\n  and\n    /* \"#utility.yul\":3869:3887   */\n  dup1\n    /* \"#utility.yul\":3859:3940   */\n  tag_105\n  jumpi\n    /* \"#utility.yul\":3925:3929   */\n  0x7f\n    /* \"#utility.yul\":3917:3923   */\n  dup3\n    /* \"#utility.yul\":3913:3930   */\n  and\n    /* \"#utility.yul\":3903:3930   */\n  swap2\n  pop\n    /* \"#utility.yul\":3859:3940   */\ntag_105:\n    /* \"#utility.yul\":3987:3989   */\n  0x20\n    /* \"#utility.yul\":3979:3985   */\n  dup3\n    /* \"#utility.yul\":3976:3990   */\n  lt\n    /* \"#utility.yul\":3956:3974   */\n  dup2\n    /* \"#utility.yul\":3953:3991   */\n  sub\n    /* \"#utility.yul\":3950:4034   */\n  tag_106\n  jumpi\n    /* \"#utility.yul\":4006:4024   */\n  tag_107\n  tag_39\n  jump\t// in\ntag_107:\n    /* \"#utility.yul\":3950:4034   */\ntag_106:\n    /* \"#utility.yul\":3771:4040   */\n  pop\n    /* \"#utility.yul\":3720:4040   */\n  swap2\n  swap1\n  pop\n  jump\t// out\n    /* \"#utility.yul\":4046:4187   */\ntag_41:\n    /* \"#utility.yul\":4095:4099   */\n  0x00\n    /* \"#utility.yul\":4118:4121   */\n  dup2\n    /* \"#utility.yul\":4110:4121   */\n  swap1\n  pop\n    /* \"#utility.yul\":4141:4144   */\n  dup2\n    /* \"#utility.yul\":4138:4139   */\n  0x00\n    /* \"#utility.yul\":4131:4145   */\n  mstore\n    /* \"#utility.yul\":4175:4179   */\n  0x20\n    /* \"#utility.yul\":4172:4173   */\n  0x00\n    /* \"#utility.yul\":4162:4180   */\n  keccak256\n    /* \"#utility.yul\":4154:4180   */\n  swap1\n  pop\n    /* \"#utility.yul\":4046:4187   */\n  swap2\n  swap1\n  pop\n  jump\t// out\n    /* \"#utility.yul\":4193:4286   */\ntag_42:\n    /* \"#utility.yul\":4230:4236   */\n  0x00\n    /* \"#utility.yul\":4277:4279   */\n  0x20\n    /* \"#utility.yul\":4272:4274   */\n  0x1f\n    /* \"#utility.yul\":4265:4270   */\n  dup4\n    /* \"#utility.yul\":4261:4275   */\n  add\n    /* \"#utility.yul\":4257:4280   */\n  div\n    /* \"#utility.yul\":4247:4280   */\n  swap1\n  pop\n    /* \"#utility.yul\":4193:4286   */\n  swap2\n  swap1\n  pop\n  jump\t// out\n    /* \"#utility.yul\":4292:4399   */\ntag_43:\n    /* \"#utility.yul\":4336:4344   */\n  0x00\n    /* \"#utility.yul\":4386:4391   */\n  dup3\n    /* \"#utility.yul\":4380:4384   */\n  dup3\n    /* \"#utility.yul\":4376:4392   */\n  shl\n    /* \"#utility.yul\":4355:4392   */\n  swap1\n  pop\n    /* \"#utility.yul\":4292:4399   */\n  swap3\n  swap2\n  pop\n  pop\n  jump\t// out\n    /* \"#utility.yul\":4405:4798   */\ntag_44:\n    /* \"#utility.yul\":4474:4480   */\n  0x00\n    /* \"#utility.yul\":4524:4525   */\n  0x08\n    /* \"#utility.yul\":4512:4522   */\n  dup4\n    /* \"#utility.yul\":4508:4526   */\n  mul\n    /* \"#utility.yul\":4547:4644   */\n  tag_112\n    /* \"#utility.yul\":4577:4643   */\n  0xffffffffffffffffffffffffffffffffffffffffffffffffffffffffffffffff\n    /* \"#utility.yul\":4566:4575   */\n  dup3\n    /* \"#utility.yul\":4547:4644   */\n  tag_43\n  jump\t// in\ntag_112:\n    /* \"#utility.yul\":4665:4704   */\n  tag_113\n    /* \"#utility.yul\":4695:4703   */\n  dup7\n    /* \"#utility.yul\":4684:4693   */\n  dup4\n    /* \"#utility.yul\":4665:4704   */\n  tag_43\n  jump\t// in\ntag_113:\n    /* \"#utility.yul\":4653:4704   */\n  swap6\n  pop\n    /* \"#utility.yul\":4737:4741   */\n  dup1\n    /* \"#utility.yul\":4733:4742   */\n  not\n    /* \"#utility.yul\":4726:4731   */\n  dup5\n    /* \"#utility.yul\":4722:4743   */\n  and\n    /* \"#utility.yul\":4713:4743   */\n  swap4\n  pop\n    /* \"#utility.yul\":4786:4790   */\n  dup1\n    /* \"#utility.yul\":4776:4784   */\n  dup7\n    /* \"#utility.yul\":4772:4791   */\n  and\n    /* \"#utility.yul\":4765:4770   */\n  dup5\n    /* \"#utility.yul\":4762:4792   */\n  or\n    /* \"#utility.yul\":4752:4792   */\n  swap3\n  pop\n    /* \"#utility.yul\":4481:4798   */\n  pop\n  pop\n    /* \"#utility.yul\":4405:4798   */\n  swap4\n  swap3\n  pop\n  pop\n  pop\n  jump\t// out\n    /* \"#utility.yul\":4804:4881   */\ntag_45:\n    /* \"#utility.yul\":4841:4848   */\n  0x00\n    /* \"#utility.yul\":4870:4875   */\n  dup2\n    /* \"#utility.yul\":4859:4875   */\n  swap1\n  pop\n    /* \"#utility.yul\":4804:4881   */\n  swap2\n  swap1\n  pop\n  jump\t// out\n    /* \"#utility.yul\":4887:4947   */\ntag_46:\n    /* \"#utility.yul\":4915:4918   */\n  0x00\n    /* \"#utility.yul\":4936:4941   */\n  dup2\n    /* \"#utility.yul\":4929:4941   */\n  swap1\n  pop\n    /* \"#utility.yul\":4887:4947   */\n  swap2\n  swap1\n  pop\n  jump\t// out\n    /* \"#utility.yul\":4953:5095   */\ntag_47:\n    /* \"#utility.yul\":5003:5012   */\n  0x00\n    /* \"#utility.yul\":5036:5089   */\n  tag_117\n    /* \"#utility.yul\":5054:5088   */\n  tag_118\n    /* \"#utility.yul\":5063:5087   */\n  tag_119\n    /* \"#utility.yul\":5081:5086   */\n  dup5\n    /* \"#utility.yul\":5063:5087   */\n  tag_45\n  jump\t// in\ntag_119:\n    /* \"#utility.yul\":5054:5088   */\n  tag_46\n  jump\t// in\ntag_118:\n    /* \"#utility.yul\":5036:5089   */\n  tag_45\n  jump\t// in\ntag_117:\n    /* \"#utility.yul\":5023:5089   */\n  swap1\n  pop\n    /* \"#utility.yul\":4953:5095   */\n  swap2\n  swap1\n  pop\n  jump\t// out\n    /* \"#utility.yul\":5101:5176   */\ntag_48:\n    /* \"#utility.yul\":5144:5147   */\n  0x00\n    /* \"#utility.yul\":5165:5170   */\n  dup2\n    /* \"#utility.yul\":5158:5170   */\n  swap1\n  pop\n    /* \"#utility.yul\":5101:5176   */\n  swap2\n  swap1\n  pop\n  jump\t// out\n    /* \"#utility.yul\":5182:5451   */\ntag_49:\n    /* \"#utility.yul\":5292:5331   */\n  tag_122\n    /* \"#utility.yul\":5323:5330   */\n  dup4\n    /* \"#utility.yul\":5292:5331   */\n  tag_47\n  jump\t// in\ntag_122:\n    /* \"#utility.yul\":5353:5444   */\n  tag_123\n    /* \"#utility.yul\":5402:5443   */\n  tag_124\n    /* \"#utility.yul\":5426:5442   */\n  dup3\n    /* \"#utility.yul\":5402:5443   */\n  tag_48\n  jump\t// in\ntag_124:\n    /* \"#utility.yul\":5394:5400   */\n  dup5\n    /* \"#utility.yul\":5387:5391   */\n  dup5\n    /* \"#utility.yul\":5381:5392   */\n  sload\n    /* \"#utility.yul\":5353:5444   */\n  tag_44\n  jump\t// in\ntag_123:\n    /* \"#utility.yul\":5347:5351   */\n  dup3\n    /* \"#utility.yul\":5340:5445   */\n  sstore\n    /* \"#utility.yul\":5258:5451   */\n  pop\n    /* \"#utility.yul\":5182:5451   */\n  pop\n  pop\n  pop\n  jump\t// out\n    /* \"#utility.yul\":5457:5530   */\ntag_50:\n    /* \"#utility.yul\":5502:5505   */\n  0x00\n    /* \"#utility.yul\":5523:5524   */\n  0x00\n    /* \"#utility.yul\":5516:5524   */\n  swap1\n  pop\n    /* \"#utility.yul\":5457:5530   */\n  swap1\n  jump\t// out\n    /* \"#utility.yul\":5536:5725   */\ntag_51:\n    /* \"#utility.yul\":5613:5645   */\n  tag_127\n  tag_50\n  jump\t// in\ntag_127:\n    /* \"#utility.yul\":5654:5719   */\n  tag_128\n    /* \"#utility.yul\":5712:5718   */\n  dup2\n    /* \"#utility.yul\":5704:5710   */\n  dup5\n    /* \"#utility.yul\":5698:5702   */\n  dup5\n    /* \"#utility.yul\":5654:5719   */\n  tag_49\n  jump\t// in\ntag_128:\n    /* \"#utility.yul\":5589:5725   */\n  pop\n    /* \"#utility.yul\":5536:5725   */\n  pop\n  pop\n  jump\t// out\n    /* \"#utility.yul\":5731:5945   */\ntag_52:\n    /* \"#utility.yul\":5816:5817   */\n  0x00\n    /* \"#utility.yul\":5801:5939   */\ntag_130:\n    /* \"#utility.yul\":5826:5835   */\n  dup3\n    /* \"#utility.yul\":5823:5824   */\n  dup2\n    /* \"#utility.yul\":5820:5836   */\n  lt\n    /* \"#utility.yul\":5801:5939   */\n  iszero\n  tag_132\n  jumpi\n    /* \"#utility.yul\":5878:5929   */\n  tag_133\n    /* \"#utility.yul\":5927:5928   */\n  0x00\n    /* \"#utility.yul\":5923:5924   */\n  dup3\n    /* \"#utility.yul\":5912:5921   */\n  dup5\n    /* \"#utility.yul\":5908:5925   */\n  add\n    /* \"#utility.yul\":5878:5929   */\n  tag_51\n  jump\t// in\ntag_133:\n    /* \"#utility.yul\":5851:5852   */\n  0x01\n    /* \"#utility.yul\":5848:5849   */\n  dup2\n    /* \"#utility.yul\":5844:5853   */\n  add\n    /* \"#utility.yul\":5839:5853   */\n  swap1\n  pop\n    /* \"#utility.yul\":5801:5939   */\n  jump(tag_130)\ntag_132:\n    /* \"#utility.yul\":5805:5819   */\n  pop\n    /* \"#utility.yul\":5731:5945   */\n  pop\n  pop\n  jump\t// out\n    /* \"#utility.yul\":5951:6697   */\ntag_53:\n    /* \"#utility.yul\":6052:6054   */\n  0x1f\n    /* \"#utility.yul\":6047:6050   */\n  dup3\n    /* \"#utility.yul\":6044:6055   */\n  gt\n    /* \"#utility.yul\":6041:6690   */\n  iszero\n  tag_135\n  jumpi\n    /* \"#utility.yul\":6081:6091   */\n  dup3\n    /* \"#utility.yul\":6076:6079   */\n  dup3\n    /* \"#utility.yul\":6073:6092   */\n  gt\n    /* \"#utility.yul\":6070:6680   */\n  iszero\n  tag_136\n  jumpi\n    /* \"#utility.yul\":6127:6165   */\n  tag_137\n    /* \"#utility.yul\":6159:6164   */\n  dup2\n    /* \"#utility.yul\":6127:6165   */\n  tag_41\n  jump\t// in\ntag_137:\n    /* \"#utility.yul\":6202:6224   */\n  tag_138\n    /* \"#utility.yul\":6220:6223   */\n  dup4\n    /* \"#utility.yul\":6202:6224   */\n  tag_42\n  jump\t// in\ntag_138:\n    /* \"#utility.yul\":6261:6290   */\n  tag_139\n    /* \"#utility.yul\":6279:6289   */\n  dup6\n    /* \"#utility.yul\":6261:6290   */\n  tag_42\n  jump\t// in\ntag_139:\n    /* \"#utility.yul\":6451:6453   */\n  0x20\n    /* \"#utility.yul\":6439:6449   */\n  dup7\n    /* \"#utility.yul\":6436:6454   */\n  lt\n    /* \"#utility.yul\":6433:6512   */\n  iszero\n  tag_140\n  jumpi\n    /* \"#utility.yul\":6493:6494   */\n  0x00\n    /* \"#utility.yul\":6477:6494   */\n  swap1\n  pop\n    /* \"#utility.yul\":6433:6512   */\ntag_140:\n    /* \"#utility.yul\":6562:6574   */\n  dup1\n    /* \"#utility.yul\":6552:6560   */\n  dup4\n    /* \"#utility.yul\":6548:6575   */\n  add\n    /* \"#utility.yul\":6592:6666   */\n  tag_141\n    /* \"#utility.yul\":6652:6664   */\n  dup3\n    /* \"#utility.yul\":6638:6650   */\n  dup5\n    /* \"#utility.yul\":6634:6665   */\n  sub\n    /* \"#utility.yul\":6621:6632   */\n  dup3\n    /* \"#utility.yul\":6592:6666   */\n  tag_52\n  jump\t// in\ntag_141:\n    /* \"#utility.yul\":6093:6680   */\n  pop\n  pop\n  pop\n  pop\n    /* \"#utility.yul\":6070:6680   */\ntag_136:\n    /* \"#utility.yul\":6041:6690   */\ntag_135:\n    /* \"#utility.yul\":5951:6697   */\n  pop\n  pop\n  pop\n  jump\t// out\n    /* \"#utility.yul\":6703:6820   */\ntag_54:\n    /* \"#utility.yul\":6757:6765   */\n  0x00\n    /* \"#utility.yul\":6807:6812   */\n  dup3\n    /* \"#utility.yul\":6801:6805   */\n  dup3\n    /* \"#utility.yul\":6797:6813   */\n  shr\n    /* \"#utility.yul\":6776:6813   */\n  swap1\n  pop\n    /* \"#utility.yul\":6703:6820   */\n  swap3\n  swap2\n  pop\n  pop\n  jump\t// out\n    /* \"#utility.yul\":6826:6995   */\ntag_55:\n    /* \"#utility.yul\":6870:6876   */\n  0x00\n    /* \"#utility.yul\":6903:6954   */\n  tag_144\n    /* \"#utility.yul\":6951:6952   */\n  0x00\n    /* \"#utility.yul\":6947:6953   */\n  not\n    /* \"#utility.yul\":6939:6944   */\n  dup5\n    /* \"#utility.yul\":6936:6937   */\n  0x08\n    /* \"#utility.yul\":6932:6945   */\n  mul\n    /* \"#utility.yul\":6903:6954   */\n  tag_54\n  jump\t// in\ntag_144:\n    /* \"#utility.yul\":6899:6955   */\n  not\n    /* \"#utility.yul\":6984:6988   */\n  dup1\n    /* \"#utility.yul\":6978:6982   */\n  dup4\n    /* \"#utility.yul\":6974:6989   */\n  and\n    /* \"#utility.yul\":6964:6989   */\n  swap2\n  pop\n    /* \"#utility.yul\":6877:6995   */\n  pop\n    /* \"#utility.yul\":6826:6995   */\n  swap3\n  swap2\n  pop\n  pop\n  jump\t// out\n    /* \"#utility.yul\":7000:7295   */\ntag_56:\n    /* \"#utility.yul\":7076:7080   */\n  0x00\n    /* \"#utility.yul\":7222:7251   */\n  tag_146\n    /* \"#utility.yul\":7247:7250   */\n  dup4\n    /* \"#utility.yul\":7241:7245   */\n  dup4\n    /* \"#utility.yul\":7222:7251   */\n  tag_55\n  jump\t// in\ntag_146:\n    /* \"#utility.yul\":7214:7251   */\n  swap2\n  pop\n    /* \"#utility.yul\":7284:7287   */\n  dup3\n    /* \"#utility.yul\":7281:7282   */\n  0x02\n    /* \"#utility.yul\":7277:7288   */\n  mul\n    /* \"#utility.yul\":7271:7275   */\n  dup3\n    /* \"#utility.yul\":7268:7289   */\n  or\n    /* \"#utility.yul\":7260:7289   */\n  swap1\n  pop\n    /* \"#utility.yul\":7000:7295   */\n  swap3\n  swap2\n  pop\n  pop\n  jump\t// out\n    /* \"#utility.yul\":7300:8695   */\ntag_7:\n    /* \"#utility.yul\":7417:7454   */\n  tag_148\n    /* \"#utility.yul\":7450:7453   */\n  dup3\n    /* \"#utility.yul\":7417:7454   */\n  tag_38\n  jump\t// in\ntag_148:\n    /* \"#utility.yul\":7519:7537   */\n  0xffffffffffffffff\n    /* \"#utility.yul\":7511:7517   */\n  dup2\n    /* \"#utility.yul\":7508:7538   */\n  gt\n    /* \"#utility.yul\":7505:7561   */\n  iszero\n  tag_149\n  jumpi\n    /* \"#utility.yul\":7541:7559   */\n  tag_150\n  tag_31\n  jump\t// in\ntag_150:\n    /* \"#utility.yul\":7505:7561   */\ntag_149:\n    /* \"#utility.yul\":7585:7623   */\n  tag_151\n    /* \"#utility.yul\":7617:7621   */\n  dup3\n    /* \"#utility.yul\":7611:7622   */\n  sload\n    /* \"#utility.yul\":7585:7623   */\n  tag_40\n  jump\t// in\ntag_151:\n    /* \"#utility.yul\":7670:7737   */\n  tag_152\n    /* \"#utility.yul\":7730:7736   */\n  dup3\n    /* \"#utility.yul\":7722:7728   */\n  dup3\n    /* \"#utility.yul\":7716:7720   */\n  dup6\n    /* \"#utility.yul\":7670:7737   */\n  tag_53\n  jump\t// in\ntag_152:\n    /* \"#utility.yul\":7764:7765   */\n  0x00\n    /* \"#utility.yul\":7788:7792   */\n  0x20\n    /* \"#utility.yul\":7775:7792   */\n  swap1\n  pop\n    /* \"#utility.yul\":7820:7822   */\n  0x1f\n    /* \"#utility.yul\":7812:7818   */\n  dup4\n    /* \"#utility.yul\":7809:7823   */\n  gt\n    /* \"#utility.yul\":7837:7838   */\n  0x01\n    /* \"#utility.yul\":7832:8450   */\n  dup2\n  eq\n  tag_154\n  jumpi\n    /* \"#utility.yul\":8494:8495   */\n  0x00\n    /* \"#utility.yul\":8511:8517   */\n  dup5\n    /* \"#utility.yul\":8508:8585   */\n  iszero\n  tag_155\n  jumpi\n    /* \"#utility.yul\":8560:8569   */\n  dup3\n    /* \"#utility.yul\":8555:8558   */\n  dup8\n    /* \"#utility.yul\":8551:8570   */\n  add\n    /* \"#utility.yul\":8545:8571   */\n  mload\n    /* \"#utility.yul\":8536:8571   */\n  swap1\n  pop\n    /* \"#utility.yul\":8508:8585   */\ntag_155:\n    /* \"#utility.yul\":8611:8678   */\n  tag_156\n    /* \"#utility.yul\":8671:8677   */\n  dup6\n    /* \"#utility.yul\":8664:8669   */\n  dup3\n    /* \"#utility.yul\":8611:8678   */\n  tag_56\n  jump\t// in\ntag_156:\n    /* \"#utility.yul\":8605:8609   */\n  dup7\n    /* \"#utility.yul\":8598:8679   */\n  sstore\n    /* \"#utility.yul\":8467:8689   */\n  pop\n    /* \"#utility.yul\":7802:8689   */\n  jump(tag_153)\n    /* \"#utility.yul\":7832:8450   */\ntag_154:\n    /* \"#utility.yul\":7884:7888   */\n  0x1f\n    /* \"#utility.yul\":7880:7889   */\n  not\n    /* \"#utility.yul\":7872:7878   */\n  dup5\n    /* \"#utility.yul\":7868:7890   */\n  and\n    /* \"#utility.yul\":7918:7955   */\n  tag_157\n    /* \"#utility.yul\":7950:7954   */\n  dup7\n    /* \"#utility.yul\":7918:7955   */\n  tag_41\n  jump\t// in\ntag_157:\n    /* \"#utility.yul\":7977:7978   */\n  0x00\n    /* \"#utility.yul\":7991:8199   */\ntag_158:\n    /* \"#utility.yul\":8005:8012   */\n  dup3\n    /* \"#utility.yul\":8002:8003   */\n  dup2\n    /* \"#utility.yul\":7999:8013   */\n  lt\n    /* \"#utility.yul\":7991:8199   */\n  iszero\n  tag_160\n  jumpi\n    /* \"#utility.yul\":8084:8093   */\n  dup5\n    /* \"#utility.yul\":8079:8082   */\n  dup10\n    /* \"#utility.yul\":8075:8094   */\n  add\n    /* \"#utility.yul\":8069:8095   */\n  mload\n    /* \"#utility.yul\":8061:8067   */\n  dup3\n    /* \"#utility.yul\":8054:8096   */\n  sstore\n    /* \"#utility.yul\":8135:8136   */\n  0x01\n    /* \"#utility.yul\":8127:8133   */\n  dup3\n    /* \"#utility.yul\":8123:8137   */\n  add\n    /* \"#utility.yul\":8113:8137   */\n  swap2\n  pop\n    /* \"#utility.yul\":8182:8184   */\n  0x20\n    /* \"#utility.yul\":8171:8180   */\n  dup6\n    /* \"#utility.yul\":8167:8185   */\n  add\n    /* \"#utility.yul\":8154:8185   */\n  swap5\n  pop\n    /* \"#utility.yul\":8028:8032   */\n  0x20\n    /* \"#utility.yul\":8025:8026   */\n  dup2\n    /* \"#utility.yul\":8021:8033   */\n  add\n    /* \"#utility.yul\":8016:8033   */\n  swap1\n  pop\n    /* \"#utility.yul\":7991:8199   */\n  jump(tag_158)\ntag_160:\n    /* \"#utility.yul\":8227:8233   */\n  dup7\n    /* \"#utility.yul\":8218:8225   */\n  dup4\n    /* \"#utility.yul\":8215:8234   */\n  lt\n    /* \"#utility.yul\":8212:8391   */\n  iszero\n  tag_161\n  jumpi\n    /* \"#utility.yul\":8285:8294   */\n  dup5\n    /* \"#utility.yul\":8280:8283   */\n  dup10\n    /* \"#utility.yul\":8276:8295   */\n  add\n    /* \"#utility.yul\":8270:8296   */\n  mload\n    /* \"#utility.yul\":8328:8376   */\n  tag_162\n    /* \"#utility.yul\":8370:8374   */\n  0x1f\n    /* \"#utility.yul\":8362:8368   */\n  dup10\n    /* \"#utility.yul\":8358:8375   */\n  and\n    /* \"#utility.yul\":8347:8356   */\n  dup3\n    /* \"#utility.yul\":8328:8376   */\n  tag_55\n  jump\t// in\ntag_162:\n    /* \"#utility.yul\":8320:8326   */\n  dup4\n    /* \"#utility.yul\":8313:8377   */\n  sstore\n    /* \"#utility.yul\":8235:8391   */\n  pop\n    /* \"#utility.yul\":8212:8391   */\ntag_161:\n    /* \"#utility.yul\":8437:8438   */\n  0x01\n    /* \"#utility.yul\":8433:8434   */\n  0x02\n    /* \"#utility.yul\":8425:8431   */\n  dup9\n    /* \"#utility.yul\":8421:8435   */\n  mul\n    /* \"#utility.yul\":8417:8439   */\n  add\n    /* \"#utility.yul\":8411:8415   */\n  dup9\n    /* \"#utility.yul\":8404:8440   */\n  sstore\n    /* \"#utility.yul\":7839:8450   */\n  pop\n  pop\n  pop\n    /* \"#utility.yul\":7802:8689   */\ntag_153:\n  pop\n    /* \"#utility.yul\":7392:8695   */\n  pop\n  pop\n  pop\n    /* \"#utility.yul\":7300:8695   */\n  pop\n  pop\n  jump\t// out\n    /* \"#utility.yul\":8701:8881   */\ntag_57:\n    /* \"#utility.yul\":8749:8826   */\n  0x4e487b7100000000000000000000000000000000000000000000000000000000\n    /* \"#utility.yul\":8746:8747   */\n  0x00\n    /* \"#utility.yul\":8739:8827   */\n  mstore\n    /* \"#utility.yul\":8846:8850   */\n  0x11\n    /* \"#utility.yul\":8843:8844   */\n  0x04\n    /* \"#utility.yul\":8836:8851   */\n  mstore\n    /* \"#utility.yul\":8870:8874   */\n  0x24\n    /* \"#utility.yul\":8867:8868   */\n  0x00\n    /* \"#utility.yul\":8860:8875   */\n  revert\n    /* \"#utility.yul\":8887:9120   */\ntag_15:\n    /* \"#utility.yul\":8926:8929   */\n  0x00\n    /* \"#utility.yul\":8949:8973   */\n  tag_165\n    /* \"#utility.yul\":8967:8972   */\n  dup3\n    /* \"#utility.yul\":8949:8973   */\n  tag_45\n  jump\t// in\ntag_165:\n    /* \"#utility.yul\":8940:8973   */\n  swap2\n  pop\n    /* \"#utility.yul\":8995:9061   */\n  0xffffffffffffffffffffffffffffffffffffffffffffffffffffffffffffffff\n    /* \"#utility.yul\":8988:8993   */\n  dup3\n    /* \"#utility.yul\":8985:9062   */\n  sub\n    /* \"#utility.yul\":8982:9085   */\n  tag_166\n  jumpi\n    /* \"#utility.yul\":9065:9083   */\n  tag_167\n  tag_57\n  jump\t// in\ntag_167:\n    /* \"#utility.yul\":8982:9085   */\ntag_166:\n    /* \"#utility.yul\":9112:9113   */\n  0x01\n    /* \"#utility.yul\":9105:9110   */\n  dup3\n    /* \"#utility.yul\":9101:9114   */\n  add\n    /* \"#utility.yul\":9094:9114   */\n  swap1\n  pop\n    /* \"#utility.yul\":8887:9120   */\n  swap2\n  swap1\n  pop\n  jump\t// out\n    /* \"#utility.yul\":9126:9295   */\ntag_58:\n    /* \"#utility.yul\":9210:9221   */\n  0x00\n    /* \"#utility.yul\":9244:9250   */\n  dup3\n    /* \"#utility.yul\":9239:9242   */\n  dup3\n    /* \"#utility.yul\":9232:9251   */\n  mstore\n    /* \"#utility.yul\":9284:9288   */\n  0x20\n    /* \"#utility.yul\":9279:9282   */\n  dup3\n    /* \"#utility.yul\":9275:9289   */\n  add\n    /* \"#utility.yul\":9260:9289   */\n  swap1\n  pop\n    /* \"#utility.yul\":9126:9295   */\n  swap3\n  swap2\n  pop\n  pop\n  jump\t// out\n    /* \"#utility.yul\":9301:9471   */\ntag_59:\n    /* \"#utility.yul\":9441:9463   */\n  0x6d696e7420746f207a65726f2061646472657373000000000000000000000000\n    /* \"#utility.yul\":9437:9438   */\n  0x00\n    /* \"#utility.yul\":9429:9435   */\n  dup3\n    /* \"#utility.yul\":9425:9439   */\n  add\n    /* \"#utility.yul\":9418:9464   */\n  mstore\n    /* \"#utility.yul\":9301:9471   */\n  pop\n  jump\t// out\n    /* \"#utility.yul\":9477:9843   */\ntag_60:\n    /* \"#utility.yul\":9619:9622   */\n  0x00\n    /* \"#utility.yul\":9640:9707   */\n  tag_171\n    /* \"#utility.yul\":9704:9706   */\n  0x14\n    /* \"#utility.yul\":9699:9702   */\n  dup4\n    /* \"#utility.yul\":9640:9707   */\n  tag_58\n  jump\t// in\ntag_171:\n    /* \"#utility.yul\":9633:9707   */\n  swap2\n  pop\n    /* \"#utility.yul\":9716:9809   */\n  tag_172\n    /* \"#utility.yul\":9805:9808   */\n  dup3\n    /* \"#utility.yul\":9716:9809   */\n  tag_59\n  jump\t// in\ntag_172:\n    /* \"#utility.yul\":9834:9836   */\n  0x20\n    /* \"#utility.yul\":9829:9832   */\n  dup3\n    /* \"#utility.yul\":9825:9837   */\n  add\n    /* \"#utility.yul\":9818:9837   */\n  swap1\n  pop\n    /* \"#utility.yul\":9477:9843   */\n  swap2\n  swap1\n  pop\n  jump\t// out\n    /* \"#utility.yul\":9849:10268   */\ntag_20:\n    /* \"#utility.yul\":10015:10019   */\n  0x00\n    /* \"#utility.yul\":10053:10055   */\n  0x20\n    /* \"#utility.yul\":10042:10051   */\n  dup3\n    /* \"#utility.yul\":10038:10056   */\n  add\n    /* \"#utility.yul\":10030:10056   */\n  swap1\n  pop\n    /* \"#utility.yul\":10102:10111   */\n  dup2\n    /* \"#utility.yul\":10096:10100   */\n  dup2\n    /* \"#utility.yul\":10092:10112   */\n  sub\n    /* \"#utility.yul\":10088:10089   */\n  0x00\n    /* \"#utility.yul\":10077:10086   */\n  dup4\n    /* \"#utility.yul\":10073:10090   */\n  add\n    /* \"#utility.yul\":10066:10113   */\n  mstore\n    /* \"#utility.yul\":10130:10261   */\n  tag_174\n    /* \"#utility.yul\":10256:10260   */\n  dup2\n    /* \"#utility.yul\":10130:10261   */\n  tag_60\n  jump\t// in\ntag_174:\n    /* \"#utility.yul\":10122:10261   */\n  swap1\n  pop\n    /* \"#utility.yul\":9849:10268   */\n  swap2\n  swap1\n  pop\n  jump\t// out\n    /* \"#utility.yul\":10274:10438   */\ntag_61:\n    /* \"#utility.yul\":10414:10430   */\n  0x616c7265616479206d696e746564000000000000000000000000000000000000\n    /* \"#utility.yul\":10410:10411   */\n  0x00\n    /* \"#utility.yul\":10402:10408   */\n  dup3\n    /* \"#utility.yul\":10398:10412   */\n  add\n    /* \"#utility.yul\":10391:10431   */\n  mstore\n    /* \"#utility.yul\":10274:10438   */\n  pop\n  jump\t// out\n    /* \"#utility.yul\":10444:10810   */\ntag_62:\n    /* \"#utility.yul\":10586:10589   */\n  0x00\n    /* \"#utility.yul\":10607:10674   */\n  tag_177\n    /* \"#utility.yul\":10671:10673   */\n  0x0e\n    /* \"#utility.yul\":10666:10669   */\n  dup4\n    /* \"#utility.yul\":10607:10674   */\n  tag_58\n  jump\t// in\ntag_177:\n    /* \"#utility.yul\":10600:10674   */\n  swap2\n  pop\n    /* \"#utility.yul\":10683:10776   */\n  tag_178\n    /* \"#utility.yul\":10772:10775   */\n  dup3\n    /* \"#utility.yul\":10683:10776   */\n  tag_61\n  jump\t// in\ntag_178:\n    /* \"#utility.yul\":10801:10803   */\n  0x20\n    /* \"#utility.yul\":10796:10799   */\n  dup3\n    /* \"#utility.yul\":10792:10804   */\n  add\n    /* \"#utility.yul\":10785:10804   */\n  swap1\n  pop\n    /* \"#utility.yul\":10444:10810   */\n  swap2\n  swap1\n  pop\n  jump\t// out\n    /* \"#utility.yul\":10816:11235   */\ntag_23:\n    /* \"#utility.yul\":10982:10986   */\n  0x00\n    /* \"#utility.yul\":11020:11022   */\n  0x20\n    /* \"#utility.yul\":11009:11018   */\n  dup3\n    /* \"#utility.yul\":11005:11023   */\n  add\n    /* \"#utility.yul\":10997:11023   */\n  swap1\n  pop\n    /* \"#utility.yul\":11069:11078   */\n  dup2\n    /* \"#utility.yul\":11063:11067   */\n  dup2\n    /* \"#utility.yul\":11059:11079   */\n  sub\n    /* \"#utility.yul\":11055:11056   */\n  0x00\n    /* \"#utility.yul\":11044:11053   */\n  dup4\n    /* \"#utility.yul\":11040:11057   */\n  add\n    /* \"#utility.yul\":11033:11080   */\n  mstore\n    /* \"#utility.yul\":11097:11228   */\n  tag_180\n    /* \"#utility.yul\":11223:11227   */\n  dup2\n    /* \"#utility.yul\":11097:11228   */\n  tag_62\n  jump\t// in\ntag_180:\n    /* \"#utility.yul\":11089:11228   */\n  swap1\n  pop\n    /* \"#utility.yul\":10816:11235   */\n  swap2\n  swap1\n  pop\n  jump\t// out\n    /* \"ERC721StdNFT.sol\":1733:8026  contract ERC721StdNFT is ERC721... */\ntag_16:\n  dataSize(sub_0)\n  dup1\n  dataOffset(sub_0)\n  0x00\n  codecopy\n  0x00\n  return\nstop\n\nsub_0: assembly {\n        /* \"ERC721StdNFT.sol\":1733:8026  contract ERC721StdNFT is ERC721... */\n      mstore(0x40, 0x80)\n      jumpi(tag_1, lt(calldatasize, 0x04))\n      shr(0xe0, calldataload(0x00))\n      dup1\n      0x4d853ee5\n      gt\n      tag_16\n      jumpi\n      dup1\n      0x95d89b41\n      gt\n      tag_17\n      jumpi\n      dup1\n      0x95d89b41\n      eq\n      tag_12\n      jumpi\n      dup1\n      0xa22cb465\n      eq\n      tag_13\n      jumpi\n      dup1\n      0xb88d4fde\n      eq\n      tag_14\n      jumpi\n      dup1\n      0xe985e9c5\n      eq\n      tag_15\n      jumpi\n      jump(tag_1)\n    tag_17:\n      dup1\n      0x4d853ee5\n      eq\n      tag_9\n      jumpi\n      dup1\n      0x6352211e\n      eq\n      tag_10\n      jumpi\n      dup1\n      0x70a08231\n      eq\n      tag_11\n      jumpi\n      jump(tag_1)\n    tag_16:\n      dup1\n      0x095ea7b3\n      gt\n      tag_18\n      jumpi\n      dup1\n      0x095ea7b3\n      eq\n      tag_5\n      jumpi\n      dup1\n      0x23b872dd\n      eq\n      tag_6\n      jumpi\n      dup1\n      0x3c168eab\n      eq\n      tag_7\n      jumpi\n      dup1\n      0x42842e0e\n      eq\n      tag_8\n      jumpi\n      jump(tag_1)\n    tag_18:\n      dup1\n      0x01ffc9a7\n      eq\n      tag_2\n      jumpi\n      dup1\n      0x06fdde03\n      eq\n      tag_3\n      jumpi\n      dup1\n      0x081812fc\n      eq\n      tag_4\n      jumpi\n    tag_1:\n      revert(0x00, 0x00)\n        /* \"ERC721StdNFT.sol\":7833:8023  function supportsInterface(bytes4 interfaceId) external pure returns (bool) ... */\n    tag_2:\n      callvalue\n      dup1\n      iszero\n      tag_19\n      jumpi\n      revert(0x00, 0x00)\n    tag_19:\n      pop\n      tag_20\n      0x04\n      dup1\n      calldatasize\n      sub\n      dup2\n      add\n      swap1\n      tag_21\n      swap2\n      swap1\n      tag_22\n      jump\t// in\n    tag_21:\n      tag_23\n      jump\t// in\n    tag_20:\n      mload(0x40)\n      tag_24\n      swap2\n      swap1\n      tag_25\n      jump\t// in\n    tag_24:\n      mload(0x40)\n      dup1\n      swap2\n      sub\n      swap1\n      return\n        /* \"ERC721StdNFT.sol\":2575:2593  string public name */\n    tag_3:\n      callvalue\n      dup1\n      iszero\n      tag_26\n      jumpi\n      revert(0x00, 0x00)\n    tag_26:\n      pop\n      tag_27\n      tag_28\n      jump\t// in\n    tag_27:\n      mload(0x40)\n      tag_29\n      swap2\n      swap1\n      tag_30\n      jump\t// in\n    tag_29:\n      mload(0x40)\n      dup1\n      swap2\n      sub\n      swap1\n      return\n        /* \"ERC721StdNFT.sol\":4426:4624  function getApproved(uint256 _tokenId) external view returns (address) ... */\n    tag_4:\n      callvalue\n      dup1\n      iszero\n      tag_31\n      jumpi\n      revert(0x00, 0x00)\n    tag_31:\n      pop\n      tag_32\n      0x04\n      dup1\n      calldatasize\n      sub\n      dup2\n      add\n      swap1\n      tag_33\n      swap2\n      swap1\n      tag_34\n      jump\t// in\n    tag_33:\n      tag_35\n      jump\t// in\n    tag_32:\n      mload(0x40)\n      tag_36\n      swap2\n      swap1\n      tag_37\n      jump\t// in\n    tag_36:\n      mload(0x40)\n      dup1\n      swap2\n      sub\n      swap1\n      return\n        /* \"ERC721StdNFT.sol\":5011:5366  function approve(address _approved, uint256 _tokenId) external payable {... */\n    tag_5:\n      tag_38\n      0x04\n      dup1\n      calldatasize\n      sub\n      dup2\n      add\n      swap1\n      tag_39\n      swap2\n      swap1\n      tag_40\n      jump\t// in\n    tag_39:\n      tag_41\n      jump\t// in\n    tag_38:\n      stop\n        /* \"ERC721StdNFT.sol\":5707:5853  function transferFrom(address _from, address _to, uint256 _tokenId) external payable ... */\n    tag_6:\n      tag_42\n      0x04\n      dup1\n      calldatasize\n      sub\n      dup2\n      add\n      swap1\n      tag_43\n      swap2\n      swap1\n      tag_44\n      jump\t// in\n    tag_43:\n      tag_45\n      jump\t// in\n    tag_42:\n      stop\n        /* \"ERC721StdNFT.sol\":3689:3854  function mintNFT(address to, uint256 tokenID) public ... */\n    tag_7:\n      callvalue\n      dup1\n      iszero\n      tag_46\n      jumpi\n      revert(0x00, 0x00)\n    tag_46:\n      pop\n      tag_47\n      0x04\n      dup1\n      calldatasize\n      sub\n      dup2\n      add\n      swap1\n      tag_48\n      swap2\n      swap1\n      tag_40\n      jump\t// in\n    tag_48:\n      tag_49\n      jump\t// in\n    tag_47:\n      stop\n        /* \"ERC721StdNFT.sol\":6785:6941  function safeTransferFrom(address _from, address _to, uint256 _tokenId) external payable ... */\n    tag_8:\n      tag_50\n      0x04\n      dup1\n      calldatasize\n      sub\n      dup2\n      add\n      swap1\n      tag_51\n      swap2\n      swap1\n      tag_44\n      jump\t// in\n    tag_51:\n      tag_52\n      jump\t// in\n    tag_50:\n      stop\n        /* \"ERC721StdNFT.sol\":1804:1826  address public founder */\n    tag_9:\n      callvalue\n      dup1\n      iszero\n      tag_53\n      jumpi\n      revert(0x00, 0x00)\n    tag_53:\n      pop\n      tag_54\n      tag_55\n      jump\t// in\n    tag_54:\n      mload(0x40)\n      tag_56\n      swap2\n      swap1\n      tag_37\n      jump\t// in\n    tag_56:\n      mload(0x40)\n      dup1\n      swap2\n      sub\n      swap1\n      return\n        /* \"ERC721StdNFT.sol\":3899:4110  function ownerOf(uint256 _tokenId) external view returns (address) ... */\n    tag_10:\n      callvalue\n      dup1\n      iszero\n      tag_57\n      jumpi\n      revert(0x00, 0x00)\n    tag_57:\n      pop\n      tag_58\n      0x04\n      dup1\n      calldatasize\n      sub\n      dup2\n      add\n      swap1\n      tag_59\n      swap2\n      swap1\n      tag_34\n      jump\t// in\n    tag_59:\n      tag_60\n      jump\t// in\n    tag_58:\n      mload(0x40)\n      tag_61\n      swap2\n      swap1\n      tag_37\n      jump\t// in\n    tag_61:\n      mload(0x40)\n      dup1\n      swap2\n      sub\n      swap1\n      return\n        /* \"ERC721StdNFT.sol\":4164:4359  function balanceOf(address _owner) external view returns (uint256) ... */\n    tag_11:\n      callvalue\n      dup1\n      iszero\n      tag_62\n      jumpi\n      revert(0x00, 0x00)\n    tag_62:\n      pop\n      tag_63\n      0x04\n      dup1\n      calldatasize\n      sub\n      dup2\n      add\n      swap1\n      tag_64\n      swap2\n      swap1\n      tag_65\n      jump\t// in\n    tag_64:\n      tag_66\n      jump\t// in\n    tag_63:\n      mload(0x40)\n      tag_67\n      swap2\n      swap1\n      tag_68\n      jump\t// in\n    tag_67:\n      mload(0x40)\n      dup1\n      swap2\n      sub\n      swap1\n      return\n        /* \"ERC721StdNFT.sol\":2600:2620  string public symbol */\n    tag_12:\n      callvalue\n      dup1\n      iszero\n      tag_69\n      jumpi\n      revert(0x00, 0x00)\n    tag_69:\n      pop\n      tag_70\n      tag_71\n      jump\t// in\n    tag_70:\n      mload(0x40)\n      tag_72\n      swap2\n      swap1\n      tag_30\n      jump\t// in\n    tag_72:\n      mload(0x40)\n      dup1\n      swap2\n      sub\n      swap1\n      return\n        /* \"ERC721StdNFT.sol\":5430:5643  function setApprovalForAll(address _operator, bool _approved) external ... */\n    tag_13:\n      callvalue\n      dup1\n      iszero\n      tag_73\n      jumpi\n      revert(0x00, 0x00)\n    tag_73:\n      pop\n      tag_74\n      0x04\n      dup1\n      calldatasize\n      sub\n      dup2\n      add\n      swap1\n      tag_75\n      swap2\n      swap1\n      tag_76\n      jump\t// in\n    tag_75:\n      tag_77\n      jump\t// in\n    tag_74:\n      stop\n        /* \"ERC721StdNFT.sol\":7178:7739  function safeTransferFrom(address _from, address _to, uint256 _tokenId, bytes memory data) public payable ... */\n    tag_14:\n      tag_78\n      0x04\n      dup1\n      calldatasize\n      sub\n      dup2\n      add\n      swap1\n      tag_79\n      swap2\n      swap1\n      tag_80\n      jump\t// in\n    tag_79:\n      tag_81\n      jump\t// in\n    tag_78:\n      stop\n        /* \"ERC721StdNFT.sol\":4698:4857  function isApprovedForAll(address _owner, address _operator) external view returns (bool) ... */\n    tag_15:\n      callvalue\n      dup1\n      iszero\n      tag_82\n      jumpi\n      revert(0x00, 0x00)\n    tag_82:\n      pop\n      tag_83\n      0x04\n      dup1\n      calldatasize\n      sub\n      dup2\n      add\n      swap1\n      tag_84\n      swap2\n      swap1\n      tag_85\n      jump\t// in\n    tag_84:\n      tag_86\n      jump\t// in\n    tag_83:\n      mload(0x40)\n      tag_87\n      swap2\n      swap1\n      tag_25\n      jump\t// in\n    tag_87:\n      mload(0x40)\n      dup1\n      swap2\n      sub\n      swap1\n      return\n        /* \"ERC721StdNFT.sol\":7833:8023  function supportsInterface(bytes4 interfaceId) external pure returns (bool) ... */\n    tag_23:\n        /* \"ERC721StdNFT.sol\":7903:7907  bool */\n      0x00\n        /* \"ERC721StdNFT.sol\":7948:7972  type(ERC721).interfaceId */\n      0x80ac58cd00000000000000000000000000000000000000000000000000000000\n        /* \"ERC721StdNFT.sol\":7933:7972  interfaceId == type(ERC721).interfaceId */\n      not(0xffffffffffffffffffffffffffffffffffffffffffffffffffffffff)\n      and\n        /* \"ERC721StdNFT.sol\":7933:7944  interfaceId */\n      dup3\n        /* \"ERC721StdNFT.sol\":7933:7972  interfaceId == type(ERC721).interfaceId */\n      not(0xffffffffffffffffffffffffffffffffffffffffffffffffffffffff)\n      and\n      eq\n        /* \"ERC721StdNFT.sol\":7933:8015  interfaceId == type(ERC721).interfaceId || interfaceId == type(ERC165).interfaceId */\n      dup1\n      tag_89\n      jumpi\n      pop\n        /* \"ERC721StdNFT.sol\":7991:8015  type(ERC165).interfaceId */\n      0x01ffc9a700000000000000000000000000000000000000000000000000000000\n        /* \"ERC721StdNFT.sol\":7976:8015  interfaceId == type(ERC165).interfaceId */\n      not(0xffffffffffffffffffffffffffffffffffffffffffffffffffffffff)\n      and\n        /* \"ERC721StdNFT.sol\":7976:7987  interfaceId */\n      dup3\n        /* \"ERC721StdNFT.sol\":7976:8015  interfaceId == type(ERC165).interfaceId */\n      not(0xffffffffffffffffffffffffffffffffffffffffffffffffffffffff)\n      and\n      eq\n        /* \"ERC721StdNFT.sol\":7933:8015  interfaceId == type(ERC721).interfaceId || interfaceId == type(ERC165).interfaceId */\n    tag_89:\n        /* \"ERC721StdNFT.sol\":7926:8015  return interfaceId == type(ERC721).interfaceId || interfaceId == type(ERC165).interfaceId */\n      swap1\n      pop\n        /* \"ERC721StdNFT.sol\":7833:8023  function supportsInterface(bytes4 interfaceId) external pure returns (bool) ... */\n      swap2\n      swap1\n      pop\n      jump\t// out\n        /* \"ERC721StdNFT.sol\":2575:2593  string public name */\n    tag_28:\n      0x05\n      dup1\n      sload\n      tag_90\n      swap1\n      tag_91\n      jump\t// in\n    tag_90:\n      dup1\n      0x1f\n      add\n      0x20\n      dup1\n      swap2\n      div\n      mul\n      0x20\n      add\n      mload(0x40)\n      swap1\n      dup2\n      add\n      0x40\n      mstore\n      dup1\n      swap3\n      swap2\n      swap1\n      dup2\n      dup2\n      mstore\n      0x20\n      add\n      dup3\n      dup1\n      sload\n      tag_92\n      swap1\n      tag_91\n      jump\t// in\n    tag_92:\n      dup1\n      iszero\n      tag_93\n      jumpi\n      dup1\n      0x1f\n      lt\n      tag_94\n      jumpi\n      0x0100\n      dup1\n      dup4\n      sload\n      div\n      mul\n      dup4\n      mstore\n      swap2\n      0x20\n      add\n      swap2\n      jump(tag_93)\n    tag_94:\n      dup3\n      add\n      swap2\n      swap1\n      0x00\n      mstore\n      keccak256(0x00, 0x20)\n      swap1\n    tag_95:\n      dup2\n      sload\n      dup2\n      mstore\n      swap1\n      0x01\n      add\n      swap1\n      0x20\n      add\n      dup1\n      dup4\n      gt\n      tag_95\n      jumpi\n      dup3\n      swap1\n      sub\n      0x1f\n      and\n      dup3\n      add\n      swap2\n    tag_93:\n      pop\n      pop\n      pop\n      pop\n      pop\n      dup2\n      jump\t// out\n        /* \"ERC721StdNFT.sol\":4426:4624  function getApproved(uint256 _tokenId) external view returns (address) ... */\n    tag_35:\n        /* \"ERC721StdNFT.sol\":4488:4495  address */\n      0x00\n        /* \"ERC721StdNFT.sol\":4552:4553  0 */\n      0x00\n        /* \"ERC721StdNFT.sol\":4522:4554  _ownerOf[_tokenId] != address(0) */\n      0xffffffffffffffffffffffffffffffffffffffff\n      and\n        /* \"ERC721StdNFT.sol\":4522:4530  _ownerOf */\n      0x01\n        /* \"ERC721StdNFT.sol\":4522:4540  _ownerOf[_tokenId] */\n      0x00\n        /* \"ERC721StdNFT.sol\":4531:4539  _tokenId */\n      dup5\n        /* \"ERC721StdNFT.sol\":4522:4540  _ownerOf[_tokenId] */\n      dup2\n      mstore\n      0x20\n      add\n      swap1\n      dup2\n      mstore\n      0x20\n      add\n      0x00\n      keccak256\n      0x00\n      swap1\n      sload\n      swap1\n      0x0100\n      exp\n      swap1\n      div\n      0xffffffffffffffffffffffffffffffffffffffff\n      and\n        /* \"ERC721StdNFT.sol\":4522:4554  _ownerOf[_tokenId] != address(0) */\n      0xffffffffffffffffffffffffffffffffffffffff\n      and\n      sub\n        /* \"ERC721StdNFT.sol\":4514:4578  require(_ownerOf[_tokenId] != address(0), \"token doesn't exist\") */\n      tag_97\n      jumpi\n      mload(0x40)\n      0x08c379a000000000000000000000000000000000000000000000000000000000\n      dup2\n      mstore\n      0x04\n      add\n      tag_98\n      swap1\n      tag_99\n      jump\t// in\n    tag_98:\n      mload(0x40)\n      dup1\n      swap2\n      sub\n      swap1\n      revert\n    tag_97:\n        /* \"ERC721StdNFT.sol\":4596:4606  _approvals */\n      0x03\n        /* \"ERC721StdNFT.sol\":4596:4616  _approvals[_tokenId] */\n      0x00\n        /* \"ERC721StdNFT.sol\":4607:4615  _tokenId */\n      dup4\n        /* \"ERC721StdNFT.sol\":4596:4616  _approvals[_tokenId] */\n      dup2\n      mstore\n      0x20\n      add\n      swap1\n      dup2\n      mstore\n      0x20\n      add\n      0x00\n      keccak256\n      0x00\n      swap1\n      sload\n      swap1\n      0x0100\n      exp\n      swap1\n      div\n      0xffffffffffffffffffffffffffffffffffffffff\n      and\n        /* \"ERC721StdNFT.sol\":4589:4616  return _approvals[_tokenId] */\n      swap1\n      pop\n        /* \"ERC721StdNFT.sol\":4426:4624  function getApproved(uint256 _tokenId) external view returns (address) ... */\n      swap2\n      swap1\n      pop\n      jump\t// out\n        /* \"ERC721StdNFT.sol\":5011:5366  function approve(address _approved, uint256 _tokenId) external payable {... */\n    tag_41:\n        /* \"ERC721StdNFT.sol\":5093:5106  address owner */\n      0x00\n        /* \"ERC721StdNFT.sol\":5109:5117  _ownerOf */\n      0x01\n        /* \"ERC721StdNFT.sol\":5109:5127  _ownerOf[_tokenId] */\n      0x00\n        /* \"ERC721StdNFT.sol\":5118:5126  _tokenId */\n      dup4\n        /* \"ERC721StdNFT.sol\":5109:5127  _ownerOf[_tokenId] */\n      dup2\n      mstore\n      0x20\n      add\n      swap1\n      dup2\n      mstore\n      0x20\n      add\n      0x00\n      keccak256\n      0x00\n      swap1\n      sload\n      swap1\n      0x0100\n      exp\n      swap1\n      div\n      0xffffffffffffffffffffffffffffffffffffffff\n      and\n        /* \"ERC721StdNFT.sol\":5093:5127  address owner = _ownerOf[_tokenId] */\n      swap1\n      pop\n        /* \"ERC721StdNFT.sol\":5160:5165  owner */\n      dup1\n        /* \"ERC721StdNFT.sol\":5146:5165  msg.sender == owner */\n      0xffffffffffffffffffffffffffffffffffffffff\n      and\n        /* \"ERC721StdNFT.sol\":5146:5156  msg.sender */\n      caller\n        /* \"ERC721StdNFT.sol\":5146:5165  msg.sender == owner */\n      0xffffffffffffffffffffffffffffffffffffffff\n      and\n      eq\n        /* \"ERC721StdNFT.sol\":5146:5206  msg.sender == owner || _operatorApprovals[owner][msg.sender] */\n      dup1\n      tag_101\n      jumpi\n      pop\n        /* \"ERC721StdNFT.sol\":5169:5187  _operatorApprovals */\n      0x04\n        /* \"ERC721StdNFT.sol\":5169:5194  _operatorApprovals[owner] */\n      0x00\n        /* \"ERC721StdNFT.sol\":5188:5193  owner */\n      dup3\n        /* \"ERC721StdNFT.sol\":5169:5194  _operatorApprovals[owner] */\n      0xffffffffffffffffffffffffffffffffffffffff\n      and\n      0xffffffffffffffffffffffffffffffffffffffff\n      and\n      dup2\n      mstore\n      0x20\n      add\n      swap1\n      dup2\n      mstore\n      0x20\n      add\n      0x00\n      keccak256\n        /* \"ERC721StdNFT.sol\":5169:5206  _operatorApprovals[owner][msg.sender] */\n      0x00\n        /* \"ERC721StdNFT.sol\":5195:5205  msg.sender */\n      caller\n        /* \"ERC721StdNFT.sol\":5169:5206  _operatorApprovals[owner][msg.sender] */\n      0xffffffffffffffffffffffffffffffffffffffff\n      and\n      0xffffffffffffffffffffffffffffffffffffffff\n      and\n      dup2\n      mstore\n      0x20\n      add\n      swap1\n      dup2\n      mstore\n      0x20\n      add\n      0x00\n      keccak256\n      0x00\n      swap1\n      sload\n      swap1\n      0x0100\n      exp\n      swap1\n      div\n      0xff\n      and\n        /* \"ERC721StdNFT.sol\":5146:5206  msg.sender == owner || _operatorApprovals[owner][msg.sender] */\n    tag_101:\n        /* \"ERC721StdNFT.sol\":5138:5224  require(msg.sender == owner || _operatorApprovals[owner][msg.sender],\"not authorized\") */\n      tag_102\n      jumpi\n      mload(0x40)\n      0x08c379a000000000000000000000000000000000000000000000000000000000\n      dup2\n      mstore\n      0x04\n      add\n      tag_103\n      swap1\n      tag_104\n      jump\t// in\n    tag_103:\n      mload(0x40)\n      dup1\n      swap2\n      sub\n      swap1\n      revert\n    tag_102:\n        /* \"ERC721StdNFT.sol\":5297:5306  _approved */\n      dup3\n        /* \"ERC721StdNFT.sol\":5274:5284  _approvals */\n      0x03\n        /* \"ERC721StdNFT.sol\":5274:5294  _approvals[_tokenId] */\n      0x00\n        /* \"ERC721StdNFT.sol\":5285:5293  _tokenId */\n      dup5\n        /* \"ERC721StdNFT.sol\":5274:5294  _approvals[_tokenId] */\n      dup2\n      mstore\n      0x20\n      add\n      swap1\n      dup2\n      mstore\n      0x20\n      add\n      0x00\n      keccak256\n      0x00\n        /* \"ERC721StdNFT.sol\":5274:5306  _approvals[_tokenId] = _approved */\n      0x0100\n      exp\n      dup2\n      sload\n      dup2\n      0xffffffffffffffffffffffffffffffffffffffff\n      mul\n      not\n      and\n      swap1\n      dup4\n      0xffffffffffffffffffffffffffffffffffffffff\n      and\n      mul\n      or\n      swap1\n      sstore\n      pop\n        /* \"ERC721StdNFT.sol\":5349:5357  _tokenId */\n      dup2\n        /* \"ERC721StdNFT.sol\":5338:5347  _approved */\n      dup4\n        /* \"ERC721StdNFT.sol\":5322:5358  Approval(owner, _approved, _tokenId) */\n      0xffffffffffffffffffffffffffffffffffffffff\n      and\n        /* \"ERC721StdNFT.sol\":5331:5336  owner */\n      dup3\n        /* \"ERC721StdNFT.sol\":5322:5358  Approval(owner, _approved, _tokenId) */\n      0xffffffffffffffffffffffffffffffffffffffff\n      and\n      0x8c5be1e5ebec7d5bd14f71427d1e84f3dd0314c0f7b2291e5b200ac8c7c3b925\n      mload(0x40)\n      mload(0x40)\n      dup1\n      swap2\n      sub\n      swap1\n      log4\n        /* \"ERC721StdNFT.sol\":5082:5366  {... */\n      pop\n        /* \"ERC721StdNFT.sol\":5011:5366  function approve(address _approved, uint256 _tokenId) external payable {... */\n      pop\n      pop\n      jump\t// out\n        /* \"ERC721StdNFT.sol\":5707:5853  function transferFrom(address _from, address _to, uint256 _tokenId) external payable ... */\n    tag_45:\n        /* \"ERC721StdNFT.sol\":5809:5845  _transferFrom( _from, _to, _tokenId) */\n      tag_106\n        /* \"ERC721StdNFT.sol\":5824:5829  _from */\n      dup4\n        /* \"ERC721StdNFT.sol\":5831:5834  _to */\n      dup4\n        /* \"ERC721StdNFT.sol\":5836:5844  _tokenId */\n      dup4\n        /* \"ERC721StdNFT.sol\":5809:5822  _transferFrom */\n      tag_107\n        /* \"ERC721StdNFT.sol\":5809:5845  _transferFrom( _from, _to, _tokenId) */\n      jump\t// in\n    tag_106:\n        /* \"ERC721StdNFT.sol\":5707:5853  function transferFrom(address _from, address _to, uint256 _tokenId) external payable ... */\n      pop\n      pop\n      pop\n      jump\t// out\n        /* \"ERC721StdNFT.sol\":3689:3854  function mintNFT(address to, uint256 tokenID) public ... */\n    tag_49:\n        /* \"ERC721StdNFT.sol\":3781:3788  founder */\n      0x00\n      0x00\n      swap1\n      sload\n      swap1\n      0x0100\n      exp\n      swap1\n      div\n      0xffffffffffffffffffffffffffffffffffffffff\n      and\n        /* \"ERC721StdNFT.sol\":3767:3788  msg.sender == founder */\n      0xffffffffffffffffffffffffffffffffffffffff\n      and\n        /* \"ERC721StdNFT.sol\":3767:3777  msg.sender */\n      caller\n        /* \"ERC721StdNFT.sol\":3767:3788  msg.sender == founder */\n      0xffffffffffffffffffffffffffffffffffffffff\n      and\n      eq\n        /* \"ERC721StdNFT.sol\":3759:3817  require(msg.sender == founder, \"not an authorized minter\") */\n      tag_109\n      jumpi\n      mload(0x40)\n      0x08c379a000000000000000000000000000000000000000000000000000000000\n      dup2\n      mstore\n      0x04\n      add\n      tag_110\n      swap1\n      tag_111\n      jump\t// in\n    tag_110:\n      mload(0x40)\n      dup1\n      swap2\n      sub\n      swap1\n      revert\n    tag_109:\n        /* \"ERC721StdNFT.sol\":3828:3846  _mint(to, tokenID) */\n      tag_112\n        /* \"ERC721StdNFT.sol\":3834:3836  to */\n      dup3\n        /* \"ERC721StdNFT.sol\":3838:3845  tokenID */\n      dup3\n        /* \"ERC721StdNFT.sol\":3828:3833  _mint */\n      tag_113\n        /* \"ERC721StdNFT.sol\":3828:3846  _mint(to, tokenID) */\n      jump\t// in\n    tag_112:\n        /* \"ERC721StdNFT.sol\":3689:3854  function mintNFT(address to, uint256 tokenID) public ... */\n      pop\n      pop\n      jump\t// out\n        /* \"ERC721StdNFT.sol\":6785:6941  function safeTransferFrom(address _from, address _to, uint256 _tokenId) external payable ... */\n    tag_52:\n        /* \"ERC721StdNFT.sol\":6891:6933  safeTransferFrom(_from, _to, _tokenId, \"\") */\n      tag_115\n        /* \"ERC721StdNFT.sol\":6908:6913  _from */\n      dup4\n        /* \"ERC721StdNFT.sol\":6915:6918  _to */\n      dup4\n        /* \"ERC721StdNFT.sol\":6920:6928  _tokenId */\n      dup4\n        /* \"ERC721StdNFT.sol\":6891:6933  safeTransferFrom(_from, _to, _tokenId, \"\") */\n      mload(0x40)\n      dup1\n      0x20\n      add\n      0x40\n      mstore\n      dup1\n      0x00\n      dup2\n      mstore\n      pop\n        /* \"ERC721StdNFT.sol\":6891:6907  safeTransferFrom */\n      tag_81\n        /* \"ERC721StdNFT.sol\":6891:6933  safeTransferFrom(_from, _to, _tokenId, \"\") */\n      jump\t// in\n    tag_115:\n        /* \"ERC721StdNFT.sol\":6785:6941  function safeTransferFrom(address _from, address _to, uint256 _tokenId) external payable ... */\n      pop\n      pop\n      pop\n      jump\t// out\n        /* \"ERC721StdNFT.sol\":1804:1826  address public founder */\n    tag_55:\n      0x00\n      0x00\n      swap1\n      sload\n      swap1\n      0x0100\n      exp\n      swap1\n      div\n      0xffffffffffffffffffffffffffffffffffffffff\n      and\n      dup2\n      jump\t// out\n        /* \"ERC721StdNFT.sol\":3899:4110  function ownerOf(uint256 _tokenId) external view returns (address) ... */\n    tag_60:\n        /* \"ERC721StdNFT.sol\":3957:3964  address */\n      0x00\n        /* \"ERC721StdNFT.sol\":3983:3996  address owner */\n      0x00\n        /* \"ERC721StdNFT.sol\":3999:4007  _ownerOf */\n      0x01\n        /* \"ERC721StdNFT.sol\":3999:4017  _ownerOf[_tokenId] */\n      0x00\n        /* \"ERC721StdNFT.sol\":4008:4016  _tokenId */\n      dup5\n        /* \"ERC721StdNFT.sol\":3999:4017  _ownerOf[_tokenId] */\n      dup2\n      mstore\n      0x20\n      add\n      swap1\n      dup2\n      mstore\n      0x20\n      add\n      0x00\n      keccak256\n      0x00\n      swap1\n      sload\n      swap1\n      0x0100\n      exp\n      swap1\n      div\n      0xffffffffffffffffffffffffffffffffffffffff\n      and\n        /* \"ERC721StdNFT.sol\":3983:4017  address owner = _ownerOf[_tokenId] */\n      swap1\n      pop\n        /* \"ERC721StdNFT.sol\":4053:4054  0 */\n      0x00\n        /* \"ERC721StdNFT.sol\":4036:4055  owner != address(0) */\n      0xffffffffffffffffffffffffffffffffffffffff\n      and\n        /* \"ERC721StdNFT.sol\":4036:4041  owner */\n      dup2\n        /* \"ERC721StdNFT.sol\":4036:4055  owner != address(0) */\n      0xffffffffffffffffffffffffffffffffffffffff\n      and\n      sub\n        /* \"ERC721StdNFT.sol\":4028:4079  require(owner != address(0), \"token doesn't exist\") */\n      tag_117\n      jumpi\n      mload(0x40)\n      0x08c379a000000000000000000000000000000000000000000000000000000000\n      dup2\n      mstore\n      0x04\n      add\n      tag_118\n      swap1\n      tag_99\n      jump\t// in\n    tag_118:\n      mload(0x40)\n      dup1\n      swap2\n      sub\n      swap1\n      revert\n    tag_117:\n        /* \"ERC721StdNFT.sol\":4097:4102  owner */\n      dup1\n        /* \"ERC721StdNFT.sol\":4090:4102  return owner */\n      swap2\n      pop\n      pop\n        /* \"ERC721StdNFT.sol\":3899:4110  function ownerOf(uint256 _tokenId) external view returns (address) ... */\n      swap2\n      swap1\n      pop\n      jump\t// out\n        /* \"ERC721StdNFT.sol\":4164:4359  function balanceOf(address _owner) external view returns (uint256) ... */\n    tag_66:\n        /* \"ERC721StdNFT.sol\":4222:4229  uint256 */\n      0x00\n        /* \"ERC721StdNFT.sol\":4274:4275  0 */\n      0x00\n        /* \"ERC721StdNFT.sol\":4256:4276  _owner != address(0) */\n      0xffffffffffffffffffffffffffffffffffffffff\n      and\n        /* \"ERC721StdNFT.sol\":4256:4262  _owner */\n      dup3\n        /* \"ERC721StdNFT.sol\":4256:4276  _owner != address(0) */\n      0xffffffffffffffffffffffffffffffffffffffff\n      and\n      sub\n        /* \"ERC721StdNFT.sol\":4248:4315  require(_owner != address(0), \"balance query for the zero address\") */\n      tag_120\n      jumpi\n      mload(0x40)\n      0x08c379a000000000000000000000000000000000000000000000000000000000\n      dup2\n      mstore\n      0x04\n      add\n      tag_121\n      swap1\n      tag_122\n      jump\t// in\n    tag_121:\n      mload(0x40)\n      dup1\n      swap2\n      sub\n      swap1\n      revert\n    tag_120:\n        /* \"ERC721StdNFT.sol\":4333:4343  _balanceOf */\n      0x02\n        /* \"ERC721StdNFT.sol\":4333:4351  _balanceOf[_owner] */\n      0x00\n        /* \"ERC721StdNFT.sol\":4344:4350  _owner */\n      dup4\n        /* \"ERC721StdNFT.sol\":4333:4351  _balanceOf[_owner] */\n      0xffffffffffffffffffffffffffffffffffffffff\n      and\n      0xffffffffffffffffffffffffffffffffffffffff\n      and\n      dup2\n      mstore\n      0x20\n      add\n      swap1\n      dup2\n      mstore\n      0x20\n      add\n      0x00\n      keccak256\n      sload\n        /* \"ERC721StdNFT.sol\":4326:4351  return _balanceOf[_owner] */\n      swap1\n      pop\n        /* \"ERC721StdNFT.sol\":4164:4359  function balanceOf(address _owner) external view returns (uint256) ... */\n      swap2\n      swap1\n      pop\n      jump\t// out\n        /* \"ERC721StdNFT.sol\":2600:2620  string public symbol */\n    tag_71:\n      0x06\n      dup1\n      sload\n      tag_123\n      swap1\n      tag_91\n      jump\t// in\n    tag_123:\n      dup1\n      0x1f\n      add\n      0x20\n      dup1\n      swap2\n      div\n      mul\n      0x20\n      add\n      mload(0x40)\n      swap1\n      dup2\n      add\n      0x40\n      mstore\n      dup1\n      swap3\n      swap2\n      swap1\n      dup2\n      dup2\n      mstore\n      0x20\n      add\n      dup3\n      dup1\n      sload\n      tag_124\n      swap1\n      tag_91\n      jump\t// in\n    tag_124:\n      dup1\n      iszero\n      tag_125\n      jumpi\n      dup1\n      0x1f\n      lt\n      tag_126\n      jumpi\n      0x0100\n      dup1\n      dup4\n      sload\n      div\n      mul\n      dup4\n      mstore\n      swap2\n      0x20\n      add\n      swap2\n      jump(tag_125)\n    tag_126:\n      dup3\n      add\n      swap2\n      swap1\n      0x00\n      mstore\n      keccak256(0x00, 0x20)\n      swap1\n    tag_127:\n      dup2\n      sload\n      dup2\n      mstore\n      swap1\n      0x01\n      add\n      swap1\n      0x20\n      add\n      dup1\n      dup4\n      gt\n      tag_127\n      jumpi\n      dup3\n      swap1\n      sub\n      0x1f\n      and\n      dup3\n      add\n      swap2\n    tag_125:\n      pop\n      pop\n      pop\n      pop\n      pop\n      dup2\n      jump\t// out\n        /* \"ERC721StdNFT.sol\":5430:5643  function setApprovalForAll(address _operator, bool _approved) external ... */\n    tag_77:\n        /* \"ERC721StdNFT.sol\":5562:5571  _approved */\n      dup1\n        /* \"ERC721StdNFT.sol\":5518:5536  _operatorApprovals */\n      0x04\n        /* \"ERC721StdNFT.sol\":5518:5548  _operatorApprovals[msg.sender] */\n      0x00\n        /* \"ERC721StdNFT.sol\":5537:5547  msg.sender */\n      caller\n        /* \"ERC721StdNFT.sol\":5518:5548  _operatorApprovals[msg.sender] */\n      0xffffffffffffffffffffffffffffffffffffffff\n      and\n      0xffffffffffffffffffffffffffffffffffffffff\n      and\n      dup2\n      mstore\n      0x20\n      add\n      swap1\n      dup2\n      mstore\n      0x20\n      add\n      0x00\n      keccak256\n        /* \"ERC721StdNFT.sol\":5518:5559  _operatorApprovals[msg.sender][_operator] */\n      0x00\n        /* \"ERC721StdNFT.sol\":5549:5558  _operator */\n      dup5\n        /* \"ERC721StdNFT.sol\":5518:5559  _operatorApprovals[msg.sender][_operator] */\n      0xffffffffffffffffffffffffffffffffffffffff\n      and\n      0xffffffffffffffffffffffffffffffffffffffff\n      and\n      dup2\n      mstore\n      0x20\n      add\n      swap1\n      dup2\n      mstore\n      0x20\n      add\n      0x00\n      keccak256\n      0x00\n        /* \"ERC721StdNFT.sol\":5518:5571  _operatorApprovals[msg.sender][_operator] = _approved */\n      0x0100\n      exp\n      dup2\n      sload\n      dup2\n      0xff\n      mul\n      not\n      and\n      swap1\n      dup4\n      iszero\n      iszero\n      mul\n      or\n      swap1\n      sstore\n      pop\n        /* \"ERC721StdNFT.sol\":5614:5623  _operator */\n      dup2\n        /* \"ERC721StdNFT.sol\":5587:5635  ApprovalForAll(msg.sender, _operator, _approved) */\n      0xffffffffffffffffffffffffffffffffffffffff\n      and\n        /* \"ERC721StdNFT.sol\":5602:5612  msg.sender */\n      caller\n        /* \"ERC721StdNFT.sol\":5587:5635  ApprovalForAll(msg.sender, _operator, _approved) */\n      0xffffffffffffffffffffffffffffffffffffffff\n      and\n      0x17307eab39ab6107e8899845ad3d59bd9653f200f220920489ca2b5937696c31\n        /* \"ERC721StdNFT.sol\":5625:5634  _approved */\n      dup4\n        /* \"ERC721StdNFT.sol\":5587:5635  ApprovalForAll(msg.sender, _operator, _approved) */\n      mload(0x40)\n      tag_129\n      swap2\n      swap1\n      tag_25\n      jump\t// in\n    tag_129:\n      mload(0x40)\n      dup1\n      swap2\n      sub\n      swap1\n      log3\n        /* \"ERC721StdNFT.sol\":5430:5643  function setApprovalForAll(address _operator, bool _approved) external ... */\n      pop\n      pop\n      jump\t// out\n        /* \"ERC721StdNFT.sol\":7178:7739  function safeTransferFrom(address _from, address _to, uint256 _tokenId, bytes memory data) public payable ... */\n    tag_81:\n        /* \"ERC721StdNFT.sol\":7344:7379  _transferFrom(_from, _to, _tokenId) */\n      tag_131\n        /* \"ERC721StdNFT.sol\":7358:7363  _from */\n      dup5\n        /* \"ERC721StdNFT.sol\":7365:7368  _to */\n      dup5\n        /* \"ERC721StdNFT.sol\":7370:7378  _tokenId */\n      dup5\n        /* \"ERC721StdNFT.sol\":7344:7357  _transferFrom */\n      tag_107\n        /* \"ERC721StdNFT.sol\":7344:7379  _transferFrom(_from, _to, _tokenId) */\n      jump\t// in\n    tag_131:\n        /* \"ERC721StdNFT.sol\":7582:7583  0 */\n      0x00\n        /* \"ERC721StdNFT.sol\":7563:7566  _to */\n      dup4\n        /* \"ERC721StdNFT.sol\":7563:7578  _to.code.length */\n      0xffffffffffffffffffffffffffffffffffffffff\n      and\n      extcodesize\n        /* \"ERC721StdNFT.sol\":7563:7583  _to.code.length == 0 */\n      eq\n        /* \"ERC721StdNFT.sol\":7563:7711  _to.code.length == 0 || ERC721TokenReceiver(_to).onERC721Received(msg.sender, _from, _tokenId, data) ==ERC721TokenReceiver.onERC721Received.selector */\n      dup1\n      tag_132\n      jumpi\n      pop\n        /* \"ERC721StdNFT.sol\":7666:7711  ERC721TokenReceiver.onERC721Received.selector */\n      shl(0xe0, 0x150b7a02)\n        /* \"ERC721StdNFT.sol\":7587:7711  ERC721TokenReceiver(_to).onERC721Received(msg.sender, _from, _tokenId, data) ==ERC721TokenReceiver.onERC721Received.selector */\n      not(0xffffffffffffffffffffffffffffffffffffffffffffffffffffffff)\n      and\n        /* \"ERC721StdNFT.sol\":7607:7610  _to */\n      dup4\n        /* \"ERC721StdNFT.sol\":7587:7628  ERC721TokenReceiver(_to).onERC721Received */\n      0xffffffffffffffffffffffffffffffffffffffff\n      and\n      0x150b7a02\n        /* \"ERC721StdNFT.sol\":7629:7639  msg.sender */\n      caller\n        /* \"ERC721StdNFT.sol\":7641:7646  _from */\n      dup8\n        /* \"ERC721StdNFT.sol\":7648:7656  _tokenId */\n      dup7\n        /* \"ERC721StdNFT.sol\":7658:7662  data */\n      dup7\n        /* \"ERC721StdNFT.sol\":7587:7663  ERC721TokenReceiver(_to).onERC721Received(msg.sender, _from, _tokenId, data) */\n      mload(0x40)\n      dup6\n      0xffffffff\n      and\n      0xe0\n      shl\n      dup2\n      mstore\n      0x04\n      add\n      tag_133\n      swap5\n      swap4\n      swap3\n      swap2\n      swap1\n      tag_134\n      jump\t// in\n    tag_133:\n      0x20\n      mload(0x40)\n      dup1\n      dup4\n      sub\n      dup2\n      0x00\n      dup8\n      gas\n      call\n      iszero\n      dup1\n      iszero\n      tag_136\n      jumpi\n      returndatacopy(0x00, 0x00, returndatasize)\n      revert(0x00, returndatasize)\n    tag_136:\n      pop\n      pop\n      pop\n      pop\n      mload(0x40)\n      returndatasize\n      not(0x1f)\n      0x1f\n      dup3\n      add\n      and\n      dup3\n      add\n      dup1\n      0x40\n      mstore\n      pop\n      dup2\n      add\n      swap1\n      tag_137\n      swap2\n      swap1\n      tag_138\n      jump\t// in\n    tag_137:\n        /* \"ERC721StdNFT.sol\":7587:7711  ERC721TokenReceiver(_to).onERC721Received(msg.sender, _from, _tokenId, data) ==ERC721TokenReceiver.onERC721Received.selector */\n      not(0xffffffffffffffffffffffffffffffffffffffffffffffffffffffff)\n      and\n      eq\n        /* \"ERC721StdNFT.sol\":7563:7711  _to.code.length == 0 || ERC721TokenReceiver(_to).onERC721Received(msg.sender, _from, _tokenId, data) ==ERC721TokenReceiver.onERC721Received.selector */\n    tag_132:\n        /* \"ERC721StdNFT.sol\":7555:7731  require(_to.code.length == 0 || ERC721TokenReceiver(_to).onERC721Received(msg.sender, _from, _tokenId, data) ==ERC721TokenReceiver.onERC721Received.selector,\"unsafe recipient\") */\n      tag_139\n      jumpi\n      mload(0x40)\n      0x08c379a000000000000000000000000000000000000000000000000000000000\n      dup2\n      mstore\n      0x04\n      add\n      tag_140\n      swap1\n      tag_141\n      jump\t// in\n    tag_140:\n      mload(0x40)\n      dup1\n      swap2\n      sub\n      swap1\n      revert\n    tag_139:\n        /* \"ERC721StdNFT.sol\":7178:7739  function safeTransferFrom(address _from, address _to, uint256 _tokenId, bytes memory data) public payable ... */\n      pop\n      pop\n      pop\n      pop\n      jump\t// out\n        /* \"ERC721StdNFT.sol\":4698:4857  function isApprovedForAll(address _owner, address _operator) external view returns (bool) ... */\n    tag_86:\n        /* \"ERC721StdNFT.sol\":4782:4786  bool */\n      0x00\n        /* \"ERC721StdNFT.sol\":4812:4830  _operatorApprovals */\n      0x04\n        /* \"ERC721StdNFT.sol\":4812:4838  _operatorApprovals[_owner] */\n      0x00\n        /* \"ERC721StdNFT.sol\":4831:4837  _owner */\n      dup5\n        /* \"ERC721StdNFT.sol\":4812:4838  _operatorApprovals[_owner] */\n      0xffffffffffffffffffffffffffffffffffffffff\n      and\n      0xffffffffffffffffffffffffffffffffffffffff\n      and\n      dup2\n      mstore\n      0x20\n      add\n      swap1\n      dup2\n      mstore\n      0x20\n      add\n      0x00\n      keccak256\n        /* \"ERC721StdNFT.sol\":4812:4849  _operatorApprovals[_owner][_operator] */\n      0x00\n        /* \"ERC721StdNFT.sol\":4839:4848  _operator */\n      dup4\n        /* \"ERC721StdNFT.sol\":4812:4849  _operatorApprovals[_owner][_operator] */\n      0xffffffffffffffffffffffffffffffffffffffff\n      and\n      0xffffffffffffffffffffffffffffffffffffffff\n      and\n      dup2\n      mstore\n      0x20\n      add\n      swap1\n      dup2\n      mstore\n      0x20\n      add\n      0x00\n      keccak256\n      0x00\n      swap1\n      sload\n      swap1\n      0x0100\n      exp\n      swap1\n      div\n      0xff\n      and\n        /* \"ERC721StdNFT.sol\":4805:4849  return _operatorApprovals[_owner][_operator] */\n      swap1\n      pop\n        /* \"ERC721StdNFT.sol\":4698:4857  function isApprovedForAll(address _owner, address _operator) external view returns (bool) ... */\n      swap3\n      swap2\n      pop\n      pop\n      jump\t// out\n        /* \"ERC721StdNFT.sol\":5923:6726  function _transferFrom(address _from, address _to, uint256 _tokenId) private ... */\n    tag_107:\n        /* \"ERC721StdNFT.sol\":6017:6030  address owner */\n      0x00\n        /* \"ERC721StdNFT.sol\":6033:6041  _ownerOf */\n      0x01\n        /* \"ERC721StdNFT.sol\":6033:6051  _ownerOf[_tokenId] */\n      0x00\n        /* \"ERC721StdNFT.sol\":6042:6050  _tokenId */\n      dup4\n        /* \"ERC721StdNFT.sol\":6033:6051  _ownerOf[_tokenId] */\n      dup2\n      mstore\n      0x20\n      add\n      swap1\n      dup2\n      mstore\n      0x20\n      add\n      0x00\n      keccak256\n      0x00\n      swap1\n      sload\n      swap1\n      0x0100\n      exp\n      swap1\n      div\n      0xffffffffffffffffffffffffffffffffffffffff\n      and\n        /* \"ERC721StdNFT.sol\":6017:6051  address owner = _ownerOf[_tokenId] */\n      swap1\n      pop\n        /* \"ERC721StdNFT.sol\":6108:6113  owner */\n      dup1\n        /* \"ERC721StdNFT.sol\":6099:6113  _from == owner */\n      0xffffffffffffffffffffffffffffffffffffffff\n      and\n        /* \"ERC721StdNFT.sol\":6099:6104  _from */\n      dup5\n        /* \"ERC721StdNFT.sol\":6099:6113  _from == owner */\n      0xffffffffffffffffffffffffffffffffffffffff\n      and\n      eq\n        /* \"ERC721StdNFT.sol\":6091:6131  require(_from == owner, \"from != owner\") */\n      tag_144\n      jumpi\n      mload(0x40)\n      0x08c379a000000000000000000000000000000000000000000000000000000000\n      dup2\n      mstore\n      0x04\n      add\n      tag_145\n      swap1\n      tag_146\n      jump\t// in\n    tag_145:\n      mload(0x40)\n      dup1\n      swap2\n      sub\n      swap1\n      revert\n    tag_144:\n        /* \"ERC721StdNFT.sol\":6165:6166  0 */\n      0x00\n        /* \"ERC721StdNFT.sol\":6150:6167  _to != address(0) */\n      0xffffffffffffffffffffffffffffffffffffffff\n      and\n        /* \"ERC721StdNFT.sol\":6150:6153  _to */\n      dup4\n        /* \"ERC721StdNFT.sol\":6150:6167  _to != address(0) */\n      0xffffffffffffffffffffffffffffffffffffffff\n      and\n      sub\n        /* \"ERC721StdNFT.sol\":6142:6196  require(_to != address(0), \"transfer to zero address\") */\n      tag_147\n      jumpi\n      mload(0x40)\n      0x08c379a000000000000000000000000000000000000000000000000000000000\n      dup2\n      mstore\n      0x04\n      add\n      tag_148\n      swap1\n      tag_149\n      jump\t// in\n    tag_148:\n      mload(0x40)\n      dup1\n      swap2\n      sub\n      swap1\n      revert\n    tag_147:\n        /* \"ERC721StdNFT.sol\":6255:6260  owner */\n      dup1\n        /* \"ERC721StdNFT.sol\":6241:6260  msg.sender == owner */\n      0xffffffffffffffffffffffffffffffffffffffff\n      and\n        /* \"ERC721StdNFT.sol\":6241:6251  msg.sender */\n      caller\n        /* \"ERC721StdNFT.sol\":6241:6260  msg.sender == owner */\n      0xffffffffffffffffffffffffffffffffffffffff\n      and\n      eq\n        /* \"ERC721StdNFT.sol\":6241:6298  msg.sender == owner || msg.sender == _approvals[_tokenId] */\n      dup1\n      tag_150\n      jumpi\n      pop\n        /* \"ERC721StdNFT.sol\":6278:6288  _approvals */\n      0x03\n        /* \"ERC721StdNFT.sol\":6278:6298  _approvals[_tokenId] */\n      0x00\n        /* \"ERC721StdNFT.sol\":6289:6297  _tokenId */\n      dup4\n        /* \"ERC721StdNFT.sol\":6278:6298  _approvals[_tokenId] */\n      dup2\n      mstore\n      0x20\n      add\n      swap1\n      dup2\n      mstore\n      0x20\n      add\n      0x00\n      keccak256\n      0x00\n      swap1\n      sload\n      swap1\n      0x0100\n      exp\n      swap1\n      div\n      0xffffffffffffffffffffffffffffffffffffffff\n      and\n        /* \"ERC721StdNFT.sol\":6264:6298  msg.sender == _approvals[_tokenId] */\n      0xffffffffffffffffffffffffffffffffffffffff\n      and\n        /* \"ERC721StdNFT.sol\":6264:6274  msg.sender */\n      caller\n        /* \"ERC721StdNFT.sol\":6264:6298  msg.sender == _approvals[_tokenId] */\n      0xffffffffffffffffffffffffffffffffffffffff\n      and\n      eq\n        /* \"ERC721StdNFT.sol\":6241:6298  msg.sender == owner || msg.sender == _approvals[_tokenId] */\n    tag_150:\n        /* \"ERC721StdNFT.sol\":6241:6339  msg.sender == owner || msg.sender == _approvals[_tokenId] || _operatorApprovals[owner][msg.sender] */\n      dup1\n      tag_151\n      jumpi\n      pop\n        /* \"ERC721StdNFT.sol\":6302:6320  _operatorApprovals */\n      0x04\n        /* \"ERC721StdNFT.sol\":6302:6327  _operatorApprovals[owner] */\n      0x00\n        /* \"ERC721StdNFT.sol\":6321:6326  owner */\n      dup3\n        /* \"ERC721StdNFT.sol\":6302:6327  _operatorApprovals[owner] */\n      0xffffffffffffffffffffffffffffffffffffffff\n      and\n      0xffffffffffffffffffffffffffffffffffffffff\n      and\n      dup2\n      mstore\n      0x20\n      add\n      swap1\n      dup2\n      mstore\n      0x20\n      add\n      0x00\n      keccak256\n        /* \"ERC721StdNFT.sol\":6302:6339  _operatorApprovals[owner][msg.sender] */\n      0x00\n        /* \"ERC721StdNFT.sol\":6328:6338  msg.sender */\n      caller\n        /* \"ERC721StdNFT.sol\":6302:6339  _operatorApprovals[owner][msg.sender] */\n      0xffffffffffffffffffffffffffffffffffffffff\n      and\n      0xffffffffffffffffffffffffffffffffffffffff\n      and\n      dup2\n      mstore\n      0x20\n      add\n      swap1\n      dup2\n      mstore\n      0x20\n      add\n      0x00\n      keccak256\n      0x00\n      swap1\n      sload\n      swap1\n      0x0100\n      exp\n      swap1\n      div\n      0xff\n      and\n        /* \"ERC721StdNFT.sol\":6241:6339  msg.sender == owner || msg.sender == _approvals[_tokenId] || _operatorApprovals[owner][msg.sender] */\n    tag_151:\n        /* \"ERC721StdNFT.sol\":6233:6358  require(msg.sender == owner || msg.sender == _approvals[_tokenId] || _operatorApprovals[owner][msg.sender], \"not authorized\") */\n      tag_152\n      jumpi\n      mload(0x40)\n      0x08c379a000000000000000000000000000000000000000000000000000000000\n      dup2\n      mstore\n      0x04\n      add\n      tag_153\n      swap1\n      tag_104\n      jump\t// in\n    tag_153:\n      mload(0x40)\n      dup1\n      swap2\n      sub\n      swap1\n      revert\n    tag_152:\n        /* \"ERC721StdNFT.sol\":6369:6379  _balanceOf */\n      0x02\n        /* \"ERC721StdNFT.sol\":6369:6386  _balanceOf[_from] */\n      0x00\n        /* \"ERC721StdNFT.sol\":6380:6385  _from */\n      dup6\n        /* \"ERC721StdNFT.sol\":6369:6386  _balanceOf[_from] */\n      0xffffffffffffffffffffffffffffffffffffffff\n      and\n      0xffffffffffffffffffffffffffffffffffffffff\n      and\n      dup2\n      mstore\n      0x20\n      add\n      swap1\n      dup2\n      mstore\n      0x20\n      add\n      0x00\n      keccak256\n      0x00\n        /* \"ERC721StdNFT.sol\":6369:6388  _balanceOf[_from]-- */\n      dup2\n      sload\n      dup1\n      swap3\n      swap2\n      swap1\n      tag_154\n      swap1\n      tag_155\n      jump\t// in\n    tag_154:\n      swap2\n      swap1\n      pop\n      sstore\n      pop\n        /* \"ERC721StdNFT.sol\":6441:6451  _balanceOf */\n      0x02\n        /* \"ERC721StdNFT.sol\":6441:6456  _balanceOf[_to] */\n      0x00\n        /* \"ERC721StdNFT.sol\":6452:6455  _to */\n      dup5\n        /* \"ERC721StdNFT.sol\":6441:6456  _balanceOf[_to] */\n      0xffffffffffffffffffffffffffffffffffffffff\n      and\n      0xffffffffffffffffffffffffffffffffffffffff\n      and\n      dup2\n      mstore\n      0x20\n      add\n      swap1\n      dup2\n      mstore\n      0x20\n      add\n      0x00\n      keccak256\n      0x00\n        /* \"ERC721StdNFT.sol\":6441:6458  _balanceOf[_to]++ */\n      dup2\n      sload\n      dup1\n      swap3\n      swap2\n      swap1\n      tag_156\n      swap1\n      tag_157\n      jump\t// in\n    tag_156:\n      swap2\n      swap1\n      pop\n      sstore\n      pop\n        /* \"ERC721StdNFT.sol\":6531:6534  _to */\n      dup3\n        /* \"ERC721StdNFT.sol\":6510:6518  _ownerOf */\n      0x01\n        /* \"ERC721StdNFT.sol\":6510:6528  _ownerOf[_tokenId] */\n      0x00\n        /* \"ERC721StdNFT.sol\":6519:6527  _tokenId */\n      dup5\n        /* \"ERC721StdNFT.sol\":6510:6528  _ownerOf[_tokenId] */\n      dup2\n      mstore\n      0x20\n      add\n      swap1\n      dup2\n      mstore\n      0x20\n      add\n      0x00\n      keccak256\n      0x00\n        /* \"ERC721StdNFT.sol\":6510:6534  _ownerOf[_tokenId] = _to */\n      0x0100\n      exp\n      dup2\n      sload\n      dup2\n      0xffffffffffffffffffffffffffffffffffffffff\n      mul\n      not\n      and\n      swap1\n      dup4\n      0xffffffffffffffffffffffffffffffffffffffff\n      and\n      mul\n      or\n      swap1\n      sstore\n      pop\n        /* \"ERC721StdNFT.sol\":6581:6591  _approvals */\n      0x03\n        /* \"ERC721StdNFT.sol\":6581:6601  _approvals[_tokenId] */\n      0x00\n        /* \"ERC721StdNFT.sol\":6592:6600  _tokenId */\n      dup4\n        /* \"ERC721StdNFT.sol\":6581:6601  _approvals[_tokenId] */\n      dup2\n      mstore\n      0x20\n      add\n      swap1\n      dup2\n      mstore\n      0x20\n      add\n      0x00\n      keccak256\n      0x00\n        /* \"ERC721StdNFT.sol\":6574:6601  delete _approvals[_tokenId] */\n      0x0100\n      exp\n      dup2\n      sload\n      swap1\n      0xffffffffffffffffffffffffffffffffffffffff\n      mul\n      not\n      and\n      swap1\n      sstore\n        /* \"ERC721StdNFT.sol\":6709:6717  _tokenId */\n      dup2\n        /* \"ERC721StdNFT.sol\":6704:6707  _to */\n      dup4\n        /* \"ERC721StdNFT.sol\":6688:6718  Transfer(_from, _to, _tokenId) */\n      0xffffffffffffffffffffffffffffffffffffffff\n      and\n        /* \"ERC721StdNFT.sol\":6697:6702  _from */\n      dup6\n        /* \"ERC721StdNFT.sol\":6688:6718  Transfer(_from, _to, _tokenId) */\n      0xffffffffffffffffffffffffffffffffffffffff\n      and\n      0xddf252ad1be2c89b69c2b068fc378daa952ba7f163c4a11628f55a4df523b3ef\n      mload(0x40)\n      mload(0x40)\n      dup1\n      swap2\n      sub\n      swap1\n      log4\n        /* \"ERC721StdNFT.sol\":6006:6726  {... */\n      pop\n        /* \"ERC721StdNFT.sol\":5923:6726  function _transferFrom(address _from, address _to, uint256 _tokenId) private ... */\n      pop\n      pop\n      pop\n      jump\t// out\n        /* \"ERC721StdNFT.sol\":3128:3614  function _mint(address to, uint id) internal ... */\n    tag_113:\n        /* \"ERC721StdNFT.sol\":3253:3254  0 */\n      0x00\n        /* \"ERC721StdNFT.sol\":3239:3255  to != address(0) */\n      0xffffffffffffffffffffffffffffffffffffffff\n      and\n        /* \"ERC721StdNFT.sol\":3239:3241  to */\n      dup3\n        /* \"ERC721StdNFT.sol\":3239:3255  to != address(0) */\n      0xffffffffffffffffffffffffffffffffffffffff\n      and\n      sub\n        /* \"ERC721StdNFT.sol\":3231:3280  require(to != address(0), \"mint to zero address\") */\n      tag_159\n      jumpi\n      mload(0x40)\n      0x08c379a000000000000000000000000000000000000000000000000000000000\n      dup2\n      mstore\n      0x04\n      add\n      tag_160\n      swap1\n      tag_161\n      jump\t// in\n    tag_160:\n      mload(0x40)\n      dup1\n      swap2\n      sub\n      swap1\n      revert\n    tag_159:\n        /* \"ERC721StdNFT.sol\":3371:3372  0 */\n      0x00\n        /* \"ERC721StdNFT.sol\":3347:3373  _ownerOf[id] == address(0) */\n      0xffffffffffffffffffffffffffffffffffffffff\n      and\n        /* \"ERC721StdNFT.sol\":3347:3355  _ownerOf */\n      0x01\n        /* \"ERC721StdNFT.sol\":3347:3359  _ownerOf[id] */\n      0x00\n        /* \"ERC721StdNFT.sol\":3356:3358  id */\n      dup4\n        /* \"ERC721StdNFT.sol\":3347:3359  _ownerOf[id] */\n      dup2\n      mstore\n      0x20\n      add\n      swap1\n      dup2\n      mstore\n      0x20\n      add\n      0x00\n      keccak256\n      0x00\n      swap1\n      sload\n      swap1\n      0x0100\n      exp\n      swap1\n      div\n      0xffffffffffffffffffffffffffffffffffffffff\n      and\n        /* \"ERC721StdNFT.sol\":3347:3373  _ownerOf[id] == address(0) */\n      0xffffffffffffffffffffffffffffffffffffffff\n      and\n      eq\n        /* \"ERC721StdNFT.sol\":3339:3392  require(_ownerOf[id] == address(0), \"already minted\") */\n      tag_162\n      jumpi\n      mload(0x40)\n      0x08c379a000000000000000000000000000000000000000000000000000000000\n      dup2\n      mstore\n      0x04\n      add\n      tag_163\n      swap1\n      tag_164\n      jump\t// in\n    tag_163:\n      mload(0x40)\n      dup1\n      swap2\n      sub\n      swap1\n      revert\n    tag_162:\n        /* \"ERC721StdNFT.sol\":3446:3456  _balanceOf */\n      0x02\n        /* \"ERC721StdNFT.sol\":3446:3460  _balanceOf[to] */\n      0x00\n        /* \"ERC721StdNFT.sol\":3457:3459  to */\n      dup4\n        /* \"ERC721StdNFT.sol\":3446:3460  _balanceOf[to] */\n      0xffffffffffffffffffffffffffffffffffffffff\n      and\n      0xffffffffffffffffffffffffffffffffffffffff\n      and\n      dup2\n      mstore\n      0x20\n      add\n      swap1\n      dup2\n      mstore\n      0x20\n      add\n      0x00\n      keccak256\n      0x00\n        /* \"ERC721StdNFT.sol\":3446:3462  _balanceOf[to]++ */\n      dup2\n      sload\n      dup1\n      swap3\n      swap2\n      swap1\n      tag_165\n      swap1\n      tag_157\n      jump\t// in\n    tag_165:\n      swap2\n      swap1\n      pop\n      sstore\n      pop\n        /* \"ERC721StdNFT.sol\":3524:3526  to */\n      dup2\n        /* \"ERC721StdNFT.sol\":3509:3517  _ownerOf */\n      0x01\n        /* \"ERC721StdNFT.sol\":3509:3521  _ownerOf[id] */\n      0x00\n        /* \"ERC721StdNFT.sol\":3518:3520  id */\n      dup4\n        /* \"ERC721StdNFT.sol\":3509:3521  _ownerOf[id] */\n      dup2\n      mstore\n      0x20\n      add\n      swap1\n      dup2\n      mstore\n      0x20\n      add\n      0x00\n      keccak256\n      0x00\n        /* \"ERC721StdNFT.sol\":3509:3526  _ownerOf[id] = to */\n      0x0100\n      exp\n      dup2\n      sload\n      dup2\n      0xffffffffffffffffffffffffffffffffffffffff\n      mul\n      not\n      and\n      swap1\n      dup4\n      0xffffffffffffffffffffffffffffffffffffffff\n      and\n      mul\n      or\n      swap1\n      sstore\n      pop\n        /* \"ERC721StdNFT.sol\":3603:3605  id */\n      dup1\n        /* \"ERC721StdNFT.sol\":3599:3601  to */\n      dup3\n        /* \"ERC721StdNFT.sol\":3578:3606  Transfer(address(0), to, id) */\n      0xffffffffffffffffffffffffffffffffffffffff\n      and\n        /* \"ERC721StdNFT.sol\":3595:3596  0 */\n      0x00\n        /* \"ERC721StdNFT.sol\":3578:3606  Transfer(address(0), to, id) */\n      0xffffffffffffffffffffffffffffffffffffffff\n      and\n      0xddf252ad1be2c89b69c2b068fc378daa952ba7f163c4a11628f55a4df523b3ef\n      mload(0x40)\n      mload(0x40)\n      dup1\n      swap2\n      sub\n      swap1\n      log4\n        /* \"ERC721StdNFT.sol\":3128:3614  function _mint(address to, uint id) internal ... */\n      pop\n      pop\n      jump\t// out\n        /* \"#utility.yul\":7:82   */\n    tag_166:\n        /* \"#utility.yul\":40:46   */\n      0x00\n        /* \"#utility.yul\":73:75   */\n      0x40\n        /* \"#utility.yul\":67:76   */\n      mload\n        /* \"#utility.yul\":57:76   */\n      swap1\n      pop\n        /* \"#utility.yul\":7:82   */\n      swap1\n      jump\t// out\n        /* \"#utility.yul\":88:205   */\n    tag_167:\n        /* \"#utility.yul\":197:198   */\n      0x00\n        /* \"#utility.yul\":194:195   */\n      0x00\n        /* \"#utility.yul\":187:199   */\n      revert\n        /* \"#utility.yul\":211:328   */\n    tag_168:\n        /* \"#utility.yul\":320:321   */\n      0x00\n        /* \"#utility.yul\":317:318   */\n      0x00\n        /* \"#utility.yul\":310:322   */\n      revert\n        /* \"#utility.yul\":334:483   */\n    tag_169:\n        /* \"#utility.yul\":370:377   */\n      0x00\n        /* \"#utility.yul\":410:476   */\n      0xffffffff00000000000000000000000000000000000000000000000000000000\n        /* \"#utility.yul\":403:408   */\n      dup3\n        /* \"#utility.yul\":399:477   */\n      and\n        /* \"#utility.yul\":388:477   */\n      swap1\n      pop\n        /* \"#utility.yul\":334:483   */\n      swap2\n      swap1\n      pop\n      jump\t// out\n        /* \"#utility.yul\":489:609   */\n    tag_170:\n        /* \"#utility.yul\":561:584   */\n      tag_229\n        /* \"#utility.yul\":578:583   */\n      dup2\n        /* \"#utility.yul\":561:584   */\n      tag_169\n      jump\t// in\n    tag_229:\n        /* \"#utility.yul\":554:559   */\n      dup2\n        /* \"#utility.yul\":551:585   */\n      eq\n        /* \"#utility.yul\":541:603   */\n      tag_230\n      jumpi\n        /* \"#utility.yul\":599:600   */\n      0x00\n        /* \"#utility.yul\":596:597   */\n      0x00\n        /* \"#utility.yul\":589:601   */\n      revert\n        /* \"#utility.yul\":541:603   */\n    tag_230:\n        /* \"#utility.yul\":489:609   */\n      pop\n      jump\t// out\n        /* \"#utility.yul\":615:752   */\n    tag_171:\n        /* \"#utility.yul\":660:665   */\n      0x00\n        /* \"#utility.yul\":698:704   */\n      dup2\n        /* \"#utility.yul\":685:705   */\n      calldataload\n        /* \"#utility.yul\":676:705   */\n      swap1\n      pop\n        /* \"#utility.yul\":714:746   */\n      tag_232\n        /* \"#utility.yul\":740:745   */\n      dup2\n        /* \"#utility.yul\":714:746   */\n      tag_170\n      jump\t// in\n    tag_232:\n        /* \"#utility.yul\":615:752   */\n      swap3\n      swap2\n      pop\n      pop\n      jump\t// out\n        /* \"#utility.yul\":758:1085   */\n    tag_22:\n        /* \"#utility.yul\":816:822   */\n      0x00\n        /* \"#utility.yul\":865:867   */\n      0x20\n        /* \"#utility.yul\":853:862   */\n      dup3\n        /* \"#utility.yul\":844:851   */\n      dup5\n        /* \"#utility.yul\":840:863   */\n      sub\n        /* \"#utility.yul\":836:868   */\n      slt\n        /* \"#utility.yul\":833:952   */\n      iszero\n      tag_234\n      jumpi\n        /* \"#utility.yul\":871:950   */\n      tag_235\n      tag_167\n      jump\t// in\n    tag_235:\n        /* \"#utility.yul\":833:952   */\n    tag_234:\n        /* \"#utility.yul\":991:992   */\n      0x00\n        /* \"#utility.yul\":1016:1068   */\n      tag_236\n        /* \"#utility.yul\":1060:1067   */\n      dup5\n        /* \"#utility.yul\":1051:1057   */\n      dup3\n        /* \"#utility.yul\":1040:1049   */\n      dup6\n        /* \"#utility.yul\":1036:1058   */\n      add\n        /* \"#utility.yul\":1016:1068   */\n      tag_171\n      jump\t// in\n    tag_236:\n        /* \"#utility.yul\":1006:1068   */\n      swap2\n      pop\n        /* \"#utility.yul\":962:1078   */\n      pop\n        /* \"#utility.yul\":758:1085   */\n      swap3\n      swap2\n      pop\n      pop\n      jump\t// out\n        /* \"#utility.yul\":1091:1181   */\n    tag_172:\n        /* \"#utility.yul\":1125:1132   */\n      0x00\n        /* \"#utility.yul\":1168:1173   */\n      dup2\n        /* \"#utility.yul\":1161:1174   */\n      iszero\n        /* \"#utility.yul\":1154:1175   */\n      iszero\n        /* \"#utility.yul\":1143:1175   */\n      swap1\n      pop\n        /* \"#utility.yul\":1091:1181   */\n      swap2\n      swap1\n      pop\n      jump\t// out\n        /* \"#utility.yul\":1187:1296   */\n    tag_173:\n        /* \"#utility.yul\":1268:1289   */\n      tag_239\n        /* \"#utility.yul\":1283:1288   */\n      dup2\n        /* \"#utility.yul\":1268:1289   */\n      tag_172\n      jump\t// in\n    tag_239:\n        /* \"#utility.yul\":1263:1266   */\n      dup3\n        /* \"#utility.yul\":1256:1290   */\n      mstore\n        /* \"#utility.yul\":1187:1296   */\n      pop\n      pop\n      jump\t// out\n        /* \"#utility.yul\":1302:1512   */\n    tag_25:\n        /* \"#utility.yul\":1389:1393   */\n      0x00\n        /* \"#utility.yul\":1427:1429   */\n      0x20\n        /* \"#utility.yul\":1416:1425   */\n      dup3\n        /* \"#utility.yul\":1412:1430   */\n      add\n        /* \"#utility.yul\":1404:1430   */\n      swap1\n      pop\n        /* \"#utility.yul\":1440:1505   */\n      tag_241\n        /* \"#utility.yul\":1502:1503   */\n      0x00\n        /* \"#utility.yul\":1491:1500   */\n      dup4\n        /* \"#utility.yul\":1487:1504   */\n      add\n        /* \"#utility.yul\":1478:1484   */\n      dup5\n        /* \"#utility.yul\":1440:1505   */\n      tag_173\n      jump\t// in\n    tag_241:\n        /* \"#utility.yul\":1302:1512   */\n      swap3\n      swap2\n      pop\n      pop\n      jump\t// out\n        /* \"#utility.yul\":1518:1617   */\n    tag_174:\n        /* \"#utility.yul\":1570:1576   */\n      0x00\n        /* \"#utility.yul\":1604:1609   */\n      dup2\n        /* \"#utility.yul\":1598:1610   */\n      mload\n        /* \"#utility.yul\":1588:1610   */\n      swap1\n      pop\n        /* \"#utility.yul\":1518:1617   */\n      swap2\n      swap1\n      pop\n      jump\t// out\n        /* \"#utility.yul\":1623:1792   */\n    tag_175:\n        /* \"#utility.yul\":1707:1718   */\n      0x00\n        /* \"#utility.yul\":1741:1747   */\n      dup3\n        /* \"#utility.yul\":1736:1739   */\n      dup3\n        /* \"#utility.yul\":1729:1748   */\n      mstore\n        /* \"#utility.yul\":1781:1785   */\n      0x20\n        /* \"#utility.yul\":1776:1779   */\n      dup3\n        /* \"#utility.yul\":1772:1786   */\n      add\n        /* \"#utility.yul\":1757:1786   */\n      swap1\n      pop\n        /* \"#utility.yul\":1623:1792   */\n      swap3\n      swap2\n      pop\n      pop\n      jump\t// out\n        /* \"#utility.yul\":1798:1937   */\n    tag_176:\n        /* \"#utility.yul\":1887:1893   */\n      dup3\n        /* \"#utility.yul\":1882:1885   */\n      dup2\n        /* \"#utility.yul\":1877:1880   */\n      dup4\n        /* \"#utility.yul\":1871:1894   */\n      mcopy\n        /* \"#utility.yul\":1928:1929   */\n      0x00\n        /* \"#utility.yul\":1919:1925   */\n      dup4\n        /* \"#utility.yul\":1914:1917   */\n      dup4\n        /* \"#utility.yul\":1910:1926   */\n      add\n        /* \"#utility.yul\":1903:1930   */\n      mstore\n        /* \"#utility.yul\":1798:1937   */\n      pop\n      pop\n      pop\n      jump\t// out\n        /* \"#utility.yul\":1943:2045   */\n    tag_177:\n        /* \"#utility.yul\":1984:1990   */\n      0x00\n        /* \"#utility.yul\":2035:2037   */\n      0x1f\n        /* \"#utility.yul\":2031:2038   */\n      not\n        /* \"#utility.yul\":2026:2028   */\n      0x1f\n        /* \"#utility.yul\":2019:2024   */\n      dup4\n        /* \"#utility.yul\":2015:2029   */\n      add\n        /* \"#utility.yul\":2011:2039   */\n      and\n        /* \"#utility.yul\":2001:2039   */\n      swap1\n      pop\n        /* \"#utility.yul\":1943:2045   */\n      swap2\n      swap1\n      pop\n      jump\t// out\n        /* \"#utility.yul\":2051:2428   */\n    tag_178:\n        /* \"#utility.yul\":2139:2142   */\n      0x00\n        /* \"#utility.yul\":2167:2206   */\n      tag_247\n        /* \"#utility.yul\":2200:2205   */\n      dup3\n        /* \"#utility.yul\":2167:2206   */\n      tag_174\n      jump\t// in\n    tag_247:\n        /* \"#utility.yul\":2222:2293   */\n      tag_248\n        /* \"#utility.yul\":2286:2292   */\n      dup2\n        /* \"#utility.yul\":2281:2284   */\n      dup6\n        /* \"#utility.yul\":2222:2293   */\n      tag_175\n      jump\t// in\n    tag_248:\n        /* \"#utility.yul\":2215:2293   */\n      swap4\n      pop\n        /* \"#utility.yul\":2302:2367   */\n      tag_249\n        /* \"#utility.yul\":2360:2366   */\n      dup2\n        /* \"#utility.yul\":2355:2358   */\n      dup6\n        /* \"#utility.yul\":2348:2352   */\n      0x20\n        /* \"#utility.yul\":2341:2346   */\n      dup7\n        /* \"#utility.yul\":2337:2353   */\n      add\n        /* \"#utility.yul\":2302:2367   */\n      tag_176\n      jump\t// in\n    tag_249:\n        /* \"#utility.yul\":2392:2421   */\n      tag_250\n        /* \"#utility.yul\":2414:2420   */\n      dup2\n        /* \"#utility.yul\":2392:2421   */\n      tag_177\n      jump\t// in\n    tag_250:\n        /* \"#utility.yul\":2387:2390   */\n      dup5\n        /* \"#utility.yul\":2383:2422   */\n      add\n        /* \"#utility.yul\":2376:2422   */\n      swap2\n      pop\n        /* \"#utility.yul\":2143:2428   */\n      pop\n        /* \"#utility.yul\":2051:2428   */\n      swap3\n      swap2\n      pop\n      pop\n      jump\t// out\n        /* \"#utility.yul\":2434:2747   */\n    tag_30:\n        /* \"#utility.yul\":2547:2551   */\n      0x00\n        /* \"#utility.yul\":2585:2587   */\n      0x20\n        /* \"#utility.yul\":2574:2583   */\n      dup3\n        /* \"#utility.yul\":2570:2588   */\n      add\n        /* \"#utility.yul\":2562:2588   */\n      swap1\n      pop\n        /* \"#utility.yul\":2634:2643   */\n      dup2\n        /* \"#utility.yul\":2628:2632   */\n      dup2\n        /* \"#utility.yul\":2624:2644   */\n      sub\n        /* \"#utility.yul\":2620:2621   */\n      0x00\n        /* \"#utility.yul\":2609:2618   */\n      dup4\n        /* \"#utility.yul\":2605:2622   */\n      add\n        /* \"#utility.yul\":2598:2645   */\n      mstore\n        /* \"#utility.yul\":2662:2740   */\n      tag_252\n        /* \"#utility.yul\":2735:2739   */\n      dup2\n        /* \"#utility.yul\":2726:2732   */\n      dup5\n        /* \"#utility.yul\":2662:2740   */\n      tag_178\n      jump\t// in\n    tag_252:\n        /* \"#utility.yul\":2654:2740   */\n      swap1\n      pop\n        /* \"#utility.yul\":2434:2747   */\n      swap3\n      swap2\n      pop\n      pop\n      jump\t// out\n        /* \"#utility.yul\":2753:2830   */\n    tag_179:\n        /* \"#utility.yul\":2790:2797   */\n      0x00\n        /* \"#utility.yul\":2819:2824   */\n      dup2\n        /* \"#utility.yul\":2808:2824   */\n      swap1\n      pop\n        /* \"#utility.yul\":2753:2830   */\n      swap2\n      swap1\n      pop\n      jump\t// out\n        /* \"#utility.yul\":2836:2958   */\n    tag_180:\n        /* \"#utility.yul\":2909:2933   */\n      tag_255\n        /* \"#utility.yul\":2927:2932   */\n      dup2\n        /* \"#utility.yul\":2909:2933   */\n      tag_179\n      jump\t// in\n    tag_255:\n        /* \"#utility.yul\":2902:2907   */\n      dup2\n        /* \"#utility.yul\":2899:2934   */\n      eq\n        /* \"#utility.yul\":2889:2952   */\n      tag_256\n      jumpi\n        /* \"#utility.yul\":2948:2949   */\n      0x00\n        /* \"#utility.yul\":2945:2946   */\n      0x00\n        /* \"#utility.yul\":2938:2950   */\n      revert\n        /* \"#utility.yul\":2889:2952   */\n    tag_256:\n        /* \"#utility.yul\":2836:2958   */\n      pop\n      jump\t// out\n        /* \"#utility.yul\":2964:3103   */\n    tag_181:\n        /* \"#utility.yul\":3010:3015   */\n      0x00\n        /* \"#utility.yul\":3048:3054   */\n      dup2\n        /* \"#utility.yul\":3035:3055   */\n      calldataload\n        /* \"#utility.yul\":3026:3055   */\n      swap1\n      pop\n        /* \"#utility.yul\":3064:3097   */\n      tag_258\n        /* \"#utility.yul\":3091:3096   */\n      dup2\n        /* \"#utility.yul\":3064:3097   */\n      tag_180\n      jump\t// in\n    tag_258:\n        /* \"#utility.yul\":2964:3103   */\n      swap3\n      swap2\n      pop\n      pop\n      jump\t// out\n        /* \"#utility.yul\":3109:3438   */\n    tag_34:\n        /* \"#utility.yul\":3168:3174   */\n      0x00\n        /* \"#utility.yul\":3217:3219   */\n      0x20\n        /* \"#utility.yul\":3205:3214   */\n      dup3\n        /* \"#utility.yul\":3196:3203   */\n      dup5\n        /* \"#utility.yul\":3192:3215   */\n      sub\n        /* \"#utility.yul\":3188:3220   */\n      slt\n        /* \"#utility.yul\":3185:3304   */\n      iszero\n      tag_260\n      jumpi\n        /* \"#utility.yul\":3223:3302   */\n      tag_261\n      tag_167\n      jump\t// in\n    tag_261:\n        /* \"#utility.yul\":3185:3304   */\n    tag_260:\n        /* \"#utility.yul\":3343:3344   */\n      0x00\n        /* \"#utility.yul\":3368:3421   */\n      tag_262\n        /* \"#utility.yul\":3413:3420   */\n      dup5\n        /* \"#utility.yul\":3404:3410   */\n      dup3\n        /* \"#utility.yul\":3393:3402   */\n      dup6\n        /* \"#utility.yul\":3389:3411   */\n      add\n        /* \"#utility.yul\":3368:3421   */\n      tag_181\n      jump\t// in\n    tag_262:\n        /* \"#utility.yul\":3358:3421   */\n      swap2\n      pop\n        /* \"#utility.yul\":3314:3431   */\n      pop\n        /* \"#utility.yul\":3109:3438   */\n      swap3\n      swap2\n      pop\n      pop\n      jump\t// out\n        /* \"#utility.yul\":3444:3570   */\n    tag_182:\n        /* \"#utility.yul\":3481:3488   */\n      0x00\n        /* \"#utility.yul\":3521:3563   */\n      0xffffffffffffffffffffffffffffffffffffffff\n        /* \"#utility.yul\":3514:3519   */\n      dup3\n        /* \"#utility.yul\":3510:3564   */\n      and\n        /* \"#utility.yul\":3499:3564   */\n      swap1\n      pop\n        /* \"#utility.yul\":3444:3570   */\n      swap2\n      swap1\n      pop\n      jump\t// out\n        /* \"#utility.yul\":3576:3672   */\n    tag_183:\n        /* \"#utility.yul\":3613:3620   */\n      0x00\n        /* \"#utility.yul\":3642:3666   */\n      tag_265\n        /* \"#utility.yul\":3660:3665   */\n      dup3\n        /* \"#utility.yul\":3642:3666   */\n      tag_182\n      jump\t// in\n    tag_265:\n        /* \"#utility.yul\":3631:3666   */\n      swap1\n      pop\n        /* \"#utility.yul\":3576:3672   */\n      swap2\n      swap1\n      pop\n      jump\t// out\n        /* \"#utility.yul\":3678:3796   */\n    tag_184:\n        /* \"#utility.yul\":3765:3789   */\n      tag_267\n        /* \"#utility.yul\":3783:3788   */\n      dup2\n        /* \"#utility.yul\":3765:3789   */\n      tag_183\n      jump\t// in\n    tag_267:\n        /* \"#utility.yul\":3760:3763   */\n      dup3\n        /* \"#utility.yul\":3753:3790   */\n      mstore\n        /* \"#utility.yul\":3678:3796   */\n      pop\n      pop\n      jump\t// out\n        /* \"#utility.yul\":3802:4024   */\n    tag_37:\n        /* \"#utility.yul\":3895:3899   */\n      0x00\n        /* \"#utility.yul\":3933:3935   */\n      0x20\n        /* \"#utility.yul\":3922:3931   */\n      dup3\n        /* \"#utility.yul\":3918:3936   */\n      add\n        /* \"#utility.yul\":3910:3936   */\n      swap1\n      pop\n        /* \"#utility.yul\":3946:4017   */\n      tag_269\n        /* \"#utility.yul\":4014:4015   */\n      0x00\n        /* \"#utility.yul\":4003:4012   */\n      dup4\n        /* \"#utility.yul\":3999:4016   */\n      add\n        /* \"#utility.yul\":3990:3996   */\n      dup5\n        /* \"#utility.yul\":3946:4017   */\n      tag_184\n      jump\t// in\n    tag_269:\n        /* \"#utility.yul\":3802:4024   */\n      swap3\n      swap2\n      pop\n      pop\n      jump\t// out\n        /* \"#utility.yul\":4030:4152   */\n    tag_185:\n        /* \"#utility.yul\":4103:4127   */\n      tag_271\n        /* \"#utility.yul\":4121:4126   */\n      dup2\n        /* \"#utility.yul\":4103:4127   */\n      tag_183\n      jump\t// in\n    tag_271:\n        /* \"#utility.yul\":4096:4101   */\n      dup2\n        /* \"#utility.yul\":4093:4128   */\n      eq\n        /* \"#utility.yul\":4083:4146   */\n      tag_272\n      jumpi\n        /* \"#utility.yul\":4142:4143   */\n      0x00\n        /* \"#utility.yul\":4139:4140   */\n      0x00\n        /* \"#utility.yul\":4132:4144   */\n      revert\n        /* \"#utility.yul\":4083:4146   */\n    tag_272:\n        /* \"#utility.yul\":4030:4152   */\n      pop\n      jump\t// out\n        /* \"#utility.yul\":4158:4297   */\n    tag_186:\n        /* \"#utility.yul\":4204:4209   */\n      0x00\n        /* \"#utility.yul\":4242:4248   */\n      dup2\n        /* \"#utility.yul\":4229:4249   */\n      calldataload\n        /* \"#utility.yul\":4220:4249   */\n      swap1\n      pop\n        /* \"#utility.yul\":4258:4291   */\n      tag_274\n        /* \"#utility.yul\":4285:4290   */\n      dup2\n        /* \"#utility.yul\":4258:4291   */\n      tag_185\n      jump\t// in\n    tag_274:\n        /* \"#utility.yul\":4158:4297   */\n      swap3\n      swap2\n      pop\n      pop\n      jump\t// out\n        /* \"#utility.yul\":4303:4777   */\n    tag_40:\n        /* \"#utility.yul\":4371:4377   */\n      0x00\n        /* \"#utility.yul\":4379:4385   */\n      0x00\n        /* \"#utility.yul\":4428:4430   */\n      0x40\n        /* \"#utility.yul\":4416:4425   */\n      dup4\n        /* \"#utility.yul\":4407:4414   */\n      dup6\n        /* \"#utility.yul\":4403:4426   */\n      sub\n        /* \"#utility.yul\":4399:4431   */\n      slt\n        /* \"#utility.yul\":4396:4515   */\n      iszero\n      tag_276\n      jumpi\n        /* \"#utility.yul\":4434:4513   */\n      tag_277\n      tag_167\n      jump\t// in\n    tag_277:\n        /* \"#utility.yul\":4396:4515   */\n    tag_276:\n        /* \"#utility.yul\":4554:4555   */\n      0x00\n        /* \"#utility.yul\":4579:4632   */\n      tag_278\n        /* \"#utility.yul\":4624:4631   */\n      dup6\n        /* \"#utility.yul\":4615:4621   */\n      dup3\n        /* \"#utility.yul\":4604:4613   */\n      dup7\n        /* \"#utility.yul\":4600:4622   */\n      add\n        /* \"#utility.yul\":4579:4632   */\n      tag_186\n      jump\t// in\n    tag_278:\n        /* \"#utility.yul\":4569:4632   */\n      swap3\n      pop\n        /* \"#utility.yul\":4525:4642   */\n      pop\n        /* \"#utility.yul\":4681:4683   */\n      0x20\n        /* \"#utility.yul\":4707:4760   */\n      tag_279\n        /* \"#utility.yul\":4752:4759   */\n      dup6\n        /* \"#utility.yul\":4743:4749   */\n      dup3\n        /* \"#utility.yul\":4732:4741   */\n      dup7\n        /* \"#utility.yul\":4728:4750   */\n      add\n        /* \"#utility.yul\":4707:4760   */\n      tag_181\n      jump\t// in\n    tag_279:\n        /* \"#utility.yul\":4697:4760   */\n      swap2\n      pop\n        /* \"#utility.yul\":4652:4770   */\n      pop\n        /* \"#utility.yul\":4303:4777   */\n      swap3\n      pop\n      swap3\n      swap1\n      pop\n      jump\t// out\n        /* \"#utility.yul\":4783:5402   */\n    tag_44:\n        /* \"#utility.yul\":4860:4866   */\n      0x00\n        /* \"#utility.yul\":4868:4874   */\n      0x00\n        /* \"#utility.yul\":4876:4882   */\n      0x00\n        /* \"#utility.yul\":4925:4927   */\n      0x60\n        /* \"#utility.yul\":4913:4922   */\n      dup5\n        /* \"#utility.yul\":4904:4911   */\n      dup7\n        /* \"#utility.yul\":4900:4923   */\n      sub\n        /* \"#utility.yul\":4896:4928   */\n      slt\n        /* \"#utility.yul\":4893:5012   */\n      iszero\n      tag_281\n      jumpi\n        /* \"#utility.yul\":4931:5010   */\n      tag_282\n      tag_167\n      jump\t// in\n    tag_282:\n        /* \"#utility.yul\":4893:5012   */\n    tag_281:\n        /* \"#utility.yul\":5051:5052   */\n      0x00\n        /* \"#utility.yul\":5076:5129   */\n      tag_283\n        /* \"#utility.yul\":5121:5128   */\n      dup7\n        /* \"#utility.yul\":5112:5118   */\n      dup3\n        /* \"#utility.yul\":5101:5110   */\n      dup8\n        /* \"#utility.yul\":5097:5119   */\n      add\n        /* \"#utility.yul\":5076:5129   */\n      tag_186\n      jump\t// in\n    tag_283:\n        /* \"#utility.yul\":5066:5129   */\n      swap4\n      pop\n        /* \"#utility.yul\":5022:5139   */\n      pop\n        /* \"#utility.yul\":5178:5180   */\n      0x20\n        /* \"#utility.yul\":5204:5257   */\n      tag_284\n        /* \"#utility.yul\":5249:5256   */\n      dup7\n        /* \"#utility.yul\":5240:5246   */\n      dup3\n        /* \"#utility.yul\":5229:5238   */\n      dup8\n        /* \"#utility.yul\":5225:5247   */\n      add\n        /* \"#utility.yul\":5204:5257   */\n      tag_186\n      jump\t// in\n    tag_284:\n        /* \"#utility.yul\":5194:5257   */\n      swap3\n      pop\n        /* \"#utility.yul\":5149:5267   */\n      pop\n        /* \"#utility.yul\":5306:5308   */\n      0x40\n        /* \"#utility.yul\":5332:5385   */\n      tag_285\n        /* \"#utility.yul\":5377:5384   */\n      dup7\n        /* \"#utility.yul\":5368:5374   */\n      dup3\n        /* \"#utility.yul\":5357:5366   */\n      dup8\n        /* \"#utility.yul\":5353:5375   */\n      add\n        /* \"#utility.yul\":5332:5385   */\n      tag_181\n      jump\t// in\n    tag_285:\n        /* \"#utility.yul\":5322:5385   */\n      swap2\n      pop\n        /* \"#utility.yul\":5277:5395   */\n      pop\n        /* \"#utility.yul\":4783:5402   */\n      swap3\n      pop\n      swap3\n      pop\n      swap3\n      jump\t// out\n        /* \"#utility.yul\":5408:5737   */\n    tag_65:\n        /* \"#utility.yul\":5467:5473   */\n      0x00\n        /* \"#utility.yul\":5516:5518   */\n      0x20\n        /* \"#utility.yul\":5504:5513   */\n      dup3\n        /* \"#utility.yul\":5495:5502   */\n      dup5\n        /* \"#utility.yul\":5491:5514   */\n      sub\n        /* \"#utility.yul\":5487:5519   */\n      slt\n        /* \"#utility.yul\":5484:5603   */\n      iszero\n      tag_287\n      jumpi\n        /* \"#utility.yul\":5522:5601   */\n      tag_288\n      tag_167\n      jump\t// in\n    tag_288:\n        /* \"#utility.yul\":5484:5603   */\n    tag_287:\n        /* \"#utility.yul\":5642:5643   */\n      0x00\n        /* \"#utility.yul\":5667:5720   */\n      tag_289\n        /* \"#utility.yul\":5712:5719   */\n      dup5\n        /* \"#utility.yul\":5703:5709   */\n      dup3\n        /* \"#utility.yul\":5692:5701   */\n      dup6\n        /* \"#utility.yul\":5688:5710   */\n      add\n        /* \"#utility.yul\":5667:5720   */\n      tag_186\n      jump\t// in\n    tag_289:\n        /* \"#utility.yul\":5657:5720   */\n      swap2\n      pop\n        /* \"#utility.yul\":5613:5730   */\n      pop\n        /* \"#utility.yul\":5408:5737   */\n      swap3\n      swap2\n      pop\n      pop\n      jump\t// out\n        /* \"#utility.yul\":5743:5861   */\n    tag_187:\n        /* \"#utility.yul\":5830:5854   */\n      tag_291\n        /* \"#utility.yul\":5848:5853   */\n      dup2\n        /* \"#utility.yul\":5830:5854   */\n      tag_179\n      jump\t// in\n    tag_291:\n        /* \"#utility.yul\":5825:5828   */\n      dup3\n        /* \"#utility.yul\":5818:5855   */\n      mstore\n        /* \"#utility.yul\":5743:5861   */\n      pop\n      pop\n      jump\t// out\n        /* \"#utility.yul\":5867:6089   */\n    tag_68:\n        /* \"#utility.yul\":5960:5964   */\n      0x00\n        /* \"#utility.yul\":5998:6000   */\n      0x20\n        /* \"#utility.yul\":5987:5996   */\n      dup3\n        /* \"#utility.yul\":5983:6001   */\n      add\n        /* \"#utility.yul\":5975:6001   */\n      swap1\n      pop\n        /* \"#utility.yul\":6011:6082   */\n      tag_293\n        /* \"#utility.yul\":6079:6080   */\n      0x00\n        /* \"#utility.yul\":6068:6077   */\n      dup4\n        /* \"#utility.yul\":6064:6081   */\n      add\n        /* \"#utility.yul\":6055:6061   */\n      dup5\n        /* \"#utility.yul\":6011:6082   */\n      tag_187\n      jump\t// in\n    tag_293:\n        /* \"#utility.yul\":5867:6089   */\n      swap3\n      swap2\n      pop\n      pop\n      jump\t// out\n        /* \"#utility.yul\":6095:6211   */\n    tag_188:\n        /* \"#utility.yul\":6165:6186   */\n      tag_295\n        /* \"#utility.yul\":6180:6185   */\n      dup2\n        /* \"#utility.yul\":6165:6186   */\n      tag_172\n      jump\t// in\n    tag_295:\n        /* \"#utility.yul\":6158:6163   */\n      dup2\n        /* \"#utility.yul\":6155:6187   */\n      eq\n        /* \"#utility.yul\":6145:6205   */\n      tag_296\n      jumpi\n        /* \"#utility.yul\":6201:6202   */\n      0x00\n        /* \"#utility.yul\":6198:6199   */\n      0x00\n        /* \"#utility.yul\":6191:6203   */\n      revert\n        /* \"#utility.yul\":6145:6205   */\n    tag_296:\n        /* \"#utility.yul\":6095:6211   */\n      pop\n      jump\t// out\n        /* \"#utility.yul\":6217:6350   */\n    tag_189:\n        /* \"#utility.yul\":6260:6265   */\n      0x00\n        /* \"#utility.yul\":6298:6304   */\n      dup2\n        /* \"#utility.yul\":6285:6305   */\n      calldataload\n        /* \"#utility.yul\":6276:6305   */\n      swap1\n      pop\n        /* \"#utility.yul\":6314:6344   */\n      tag_298\n        /* \"#utility.yul\":6338:6343   */\n      dup2\n        /* \"#utility.yul\":6314:6344   */\n      tag_188\n      jump\t// in\n    tag_298:\n        /* \"#utility.yul\":6217:6350   */\n      swap3\n      swap2\n      pop\n      pop\n      jump\t// out\n        /* \"#utility.yul\":6356:6824   */\n    tag_76:\n        /* \"#utility.yul\":6421:6427   */\n      0x00\n        /* \"#utility.yul\":6429:6435   */\n      0x00\n        /* \"#utility.yul\":6478:6480   */\n      0x40\n        /* \"#utility.yul\":6466:6475   */\n      dup4\n        /* \"#utility.yul\":6457:6464   */\n      dup6\n        /* \"#utility.yul\":6453:6476   */\n      sub\n        /* \"#utility.yul\":6449:6481   */\n      slt\n        /* \"#utility.yul\":6446:6565   */\n      iszero\n      tag_300\n      jumpi\n        /* \"#utility.yul\":6484:6563   */\n      tag_301\n      tag_167\n      jump\t// in\n    tag_301:\n        /* \"#utility.yul\":6446:6565   */\n    tag_300:\n        /* \"#utility.yul\":6604:6605   */\n      0x00\n        /* \"#utility.yul\":6629:6682   */\n      tag_302\n        /* \"#utility.yul\":6674:6681   */\n      dup6\n        /* \"#utility.yul\":6665:6671   */\n      dup3\n        /* \"#utility.yul\":6654:6663   */\n      dup7\n        /* \"#utility.yul\":6650:6672   */\n      add\n        /* \"#utility.yul\":6629:6682   */\n      tag_186\n      jump\t// in\n    tag_302:\n        /* \"#utility.yul\":6619:6682   */\n      swap3\n      pop\n        /* \"#utility.yul\":6575:6692   */\n      pop\n        /* \"#utility.yul\":6731:6733   */\n      0x20\n        /* \"#utility.yul\":6757:6807   */\n      tag_303\n        /* \"#utility.yul\":6799:6806   */\n      dup6\n        /* \"#utility.yul\":6790:6796   */\n      dup3\n        /* \"#utility.yul\":6779:6788   */\n      dup7\n        /* \"#utility.yul\":6775:6797   */\n      add\n        /* \"#utility.yul\":6757:6807   */\n      tag_189\n      jump\t// in\n    tag_303:\n        /* \"#utility.yul\":6747:6807   */\n      swap2\n      pop\n        /* \"#utility.yul\":6702:6817   */\n      pop\n        /* \"#utility.yul\":6356:6824   */\n      swap3\n      pop\n      swap3\n      swap1\n      pop\n      jump\t// out\n        /* \"#utility.yul\":6830:6947   */\n    tag_190:\n        /* \"#utility.yul\":6939:6940   */\n      0x00\n        /* \"#utility.yul\":6936:6937   */\n      0x00\n        /* \"#utility.yul\":6929:6941   */\n      revert\n        /* \"#utility.yul\":6953:7070   */\n    tag_191:\n        /* \"#utility.yul\":7062:7063   */\n      0x00\n        /* \"#utility.yul\":7059:7060   */\n      0x00\n        /* \"#utility.yul\":7052:7064   */\n      revert\n        /* \"#utility.yul\":7076:7256   */\n    tag_192:\n        /* \"#utility.yul\":7124:7201   */\n      0x4e487b7100000000000000000000000000000000000000000000000000000000\n        /* \"#utility.yul\":7121:7122   */\n      0x00\n        /* \"#utility.yul\":7114:7202   */\n      mstore\n        /* \"#utility.yul\":7221:7225   */\n      0x41\n        /* \"#utility.yul\":7218:7219   */\n      0x04\n        /* \"#utility.yul\":7211:7226   */\n      mstore\n        /* \"#utility.yul\":7245:7249   */\n      0x24\n        /* \"#utility.yul\":7242:7243   */\n      0x00\n        /* \"#utility.yul\":7235:7250   */\n      revert\n        /* \"#utility.yul\":7262:7543   */\n    tag_193:\n        /* \"#utility.yul\":7345:7372   */\n      tag_308\n        /* \"#utility.yul\":7367:7371   */\n      dup3\n        /* \"#utility.yul\":7345:7372   */\n      tag_177\n      jump\t// in\n    tag_308:\n        /* \"#utility.yul\":7337:7343   */\n      dup2\n        /* \"#utility.yul\":7333:7373   */\n      add\n        /* \"#utility.yul\":7475:7481   */\n      dup2\n        /* \"#utility.yul\":7463:7473   */\n      dup2\n        /* \"#utility.yul\":7460:7482   */\n      lt\n        /* \"#utility.yul\":7439:7457   */\n      0xffffffffffffffff\n        /* \"#utility.yul\":7427:7437   */\n      dup3\n        /* \"#utility.yul\":7424:7458   */\n      gt\n        /* \"#utility.yul\":7421:7483   */\n      or\n        /* \"#utility.yul\":7418:7506   */\n      iszero\n      tag_309\n      jumpi\n        /* \"#utility.yul\":7486:7504   */\n      tag_310\n      tag_192\n      jump\t// in\n    tag_310:\n        /* \"#utility.yul\":7418:7506   */\n    tag_309:\n        /* \"#utility.yul\":7526:7536   */\n      dup1\n        /* \"#utility.yul\":7522:7524   */\n      0x40\n        /* \"#utility.yul\":7515:7537   */\n      mstore\n        /* \"#utility.yul\":7305:7543   */\n      pop\n        /* \"#utility.yul\":7262:7543   */\n      pop\n      pop\n      jump\t// out\n        /* \"#utility.yul\":7549:7678   */\n    tag_194:\n        /* \"#utility.yul\":7583:7589   */\n      0x00\n        /* \"#utility.yul\":7610:7630   */\n      tag_312\n      tag_166\n      jump\t// in\n    tag_312:\n        /* \"#utility.yul\":7600:7630   */\n      swap1\n      pop\n        /* \"#utility.yul\":7639:7672   */\n      tag_313\n        /* \"#utility.yul\":7667:7671   */\n      dup3\n        /* \"#utility.yul\":7659:7665   */\n      dup3\n        /* \"#utility.yul\":7639:7672   */\n      tag_193\n      jump\t// in\n    tag_313:\n        /* \"#utility.yul\":7549:7678   */\n      swap2\n      swap1\n      pop\n      jump\t// out\n        /* \"#utility.yul\":7684:7991   */\n    tag_195:\n        /* \"#utility.yul\":7745:7749   */\n      0x00\n        /* \"#utility.yul\":7835:7853   */\n      0xffffffffffffffff\n        /* \"#utility.yul\":7827:7833   */\n      dup3\n        /* \"#utility.yul\":7824:7854   */\n      gt\n        /* \"#utility.yul\":7821:7877   */\n      iszero\n      tag_315\n      jumpi\n        /* \"#utility.yul\":7857:7875   */\n      tag_316\n      tag_192\n      jump\t// in\n    tag_316:\n        /* \"#utility.yul\":7821:7877   */\n    tag_315:\n        /* \"#utility.yul\":7895:7924   */\n      tag_317\n        /* \"#utility.yul\":7917:7923   */\n      dup3\n        /* \"#utility.yul\":7895:7924   */\n      tag_177\n      jump\t// in\n    tag_317:\n        /* \"#utility.yul\":7887:7924   */\n      swap1\n      pop\n        /* \"#utility.yul\":7979:7983   */\n      0x20\n        /* \"#utility.yul\":7973:7977   */\n      dup2\n        /* \"#utility.yul\":7969:7984   */\n      add\n        /* \"#utility.yul\":7961:7984   */\n      swap1\n      pop\n        /* \"#utility.yul\":7684:7991   */\n      swap2\n      swap1\n      pop\n      jump\t// out\n        /* \"#utility.yul\":7997:8145   */\n    tag_196:\n        /* \"#utility.yul\":8095:8101   */\n      dup3\n        /* \"#utility.yul\":8090:8093   */\n      dup2\n        /* \"#utility.yul\":8085:8088   */\n      dup4\n        /* \"#utility.yul\":8072:8102   */\n      calldatacopy\n        /* \"#utility.yul\":8136:8137   */\n      0x00\n        /* \"#utility.yul\":8127:8133   */\n      dup4\n        /* \"#utility.yul\":8122:8125   */\n      dup4\n        /* \"#utility.yul\":8118:8134   */\n      add\n        /* \"#utility.yul\":8111:8138   */\n      mstore\n        /* \"#utility.yul\":7997:8145   */\n      pop\n      pop\n      pop\n      jump\t// out\n        /* \"#utility.yul\":8151:8574   */\n    tag_197:\n        /* \"#utility.yul\":8228:8233   */\n      0x00\n        /* \"#utility.yul\":8253:8318   */\n      tag_320\n        /* \"#utility.yul\":8269:8317   */\n      tag_321\n        /* \"#utility.yul\":8310:8316   */\n      dup5\n        /* \"#utility.yul\":8269:8317   */\n      tag_195\n      jump\t// in\n    tag_321:\n        /* \"#utility.yul\":8253:8318   */\n      tag_194\n      jump\t// in\n    tag_320:\n        /* \"#utility.yul\":8244:8318   */\n      swap1\n      pop\n        /* \"#utility.yul\":8341:8347   */\n      dup3\n        /* \"#utility.yul\":8334:8339   */\n      dup2\n        /* \"#utility.yul\":8327:8348   */\n      mstore\n        /* \"#utility.yul\":8379:8383   */\n      0x20\n        /* \"#utility.yul\":8372:8377   */\n      dup2\n        /* \"#utility.yul\":8368:8384   */\n      add\n        /* \"#utility.yul\":8417:8420   */\n      dup5\n        /* \"#utility.yul\":8408:8414   */\n      dup5\n        /* \"#utility.yul\":8403:8406   */\n      dup5\n        /* \"#utility.yul\":8399:8415   */\n      add\n        /* \"#utility.yul\":8396:8421   */\n      gt\n        /* \"#utility.yul\":8393:8505   */\n      iszero\n      tag_322\n      jumpi\n        /* \"#utility.yul\":8424:8503   */\n      tag_323\n      tag_191\n      jump\t// in\n    tag_323:\n        /* \"#utility.yul\":8393:8505   */\n    tag_322:\n        /* \"#utility.yul\":8514:8568   */\n      tag_324\n        /* \"#utility.yul\":8561:8567   */\n      dup5\n        /* \"#utility.yul\":8556:8559   */\n      dup3\n        /* \"#utility.yul\":8551:8554   */\n      dup6\n        /* \"#utility.yul\":8514:8568   */\n      tag_196\n      jump\t// in\n    tag_324:\n        /* \"#utility.yul\":8234:8574   */\n      pop\n        /* \"#utility.yul\":8151:8574   */\n      swap4\n      swap3\n      pop\n      pop\n      pop\n      jump\t// out\n        /* \"#utility.yul\":8593:8931   */\n    tag_198:\n        /* \"#utility.yul\":8648:8653   */\n      0x00\n        /* \"#utility.yul\":8697:8700   */\n      dup3\n        /* \"#utility.yul\":8690:8694   */\n      0x1f\n        /* \"#utility.yul\":8682:8688   */\n      dup4\n        /* \"#utility.yul\":8678:8695   */\n      add\n        /* \"#utility.yul\":8674:8701   */\n      slt\n        /* \"#utility.yul\":8664:8786   */\n      tag_326\n      jumpi\n        /* \"#utility.yul\":8705:8784   */\n      tag_327\n      tag_190\n      jump\t// in\n    tag_327:\n        /* \"#utility.yul\":8664:8786   */\n    tag_326:\n        /* \"#utility.yul\":8822:8828   */\n      dup2\n        /* \"#utility.yul\":8809:8829   */\n      calldataload\n        /* \"#utility.yul\":8847:8925   */\n      tag_328\n        /* \"#utility.yul\":8921:8924   */\n      dup5\n        /* \"#utility.yul\":8913:8919   */\n      dup3\n        /* \"#utility.yul\":8906:8910   */\n      0x20\n        /* \"#utility.yul\":8898:8904   */\n      dup7\n        /* \"#utility.yul\":8894:8911   */\n      add\n        /* \"#utility.yul\":8847:8925   */\n      tag_197\n      jump\t// in\n    tag_328:\n        /* \"#utility.yul\":8838:8925   */\n      swap2\n      pop\n        /* \"#utility.yul\":8654:8931   */\n      pop\n        /* \"#utility.yul\":8593:8931   */\n      swap3\n      swap2\n      pop\n      pop\n      jump\t// out\n        /* \"#utility.yul\":8937:9880   */\n    tag_80:\n        /* \"#utility.yul\":9032:9038   */\n      0x00\n        /* \"#utility.yul\":9040:9046   */\n      0x00\n        /* \"#utility.yul\":9048:9054   */\n      0x00\n        /* \"#utility.yul\":9056:9062   */\n      0x00\n        /* \"#utility.yul\":9105:9108   */\n      0x80\n        /* \"#utility.yul\":9093:9102   */\n      dup6\n        /* \"#utility.yul\":9084:9091   */\n      dup8\n        /* \"#utility.yul\":9080:9103   */\n      sub\n        /* \"#utility.yul\":9076:9109   */\n      slt\n        /* \"#utility.yul\":9073:9193   */\n      iszero\n      tag_330\n      jumpi\n        /* \"#utility.yul\":9112:9191   */\n      tag_331\n      tag_167\n      jump\t// in\n    tag_331:\n        /* \"#utility.yul\":9073:9193   */\n    tag_330:\n        /* \"#utility.yul\":9232:9233   */\n      0x00\n        /* \"#utility.yul\":9257:9310   */\n      tag_332\n        /* \"#utility.yul\":9302:9309   */\n      dup8\n        /* \"#utility.yul\":9293:9299   */\n      dup3\n        /* \"#utility.yul\":9282:9291   */\n      dup9\n        /* \"#utility.yul\":9278:9300   */\n      add\n        /* \"#utility.yul\":9257:9310   */\n      tag_186\n      jump\t// in\n    tag_332:\n        /* \"#utility.yul\":9247:9310   */\n      swap5\n      pop\n        /* \"#utility.yul\":9203:9320   */\n      pop\n        /* \"#utility.yul\":9359:9361   */\n      0x20\n        /* \"#utility.yul\":9385:9438   */\n      tag_333\n        /* \"#utility.yul\":9430:9437   */\n      dup8\n        /* \"#utility.yul\":9421:9427   */\n      dup3\n        /* \"#utility.yul\":9410:9419   */\n      dup9\n        /* \"#utility.yul\":9406:9428   */\n      add\n        /* \"#utility.yul\":9385:9438   */\n      tag_186\n      jump\t// in\n    tag_333:\n        /* \"#utility.yul\":9375:9438   */\n      swap4\n      pop\n        /* \"#utility.yul\":9330:9448   */\n      pop\n        /* \"#utility.yul\":9487:9489   */\n      0x40\n        /* \"#utility.yul\":9513:9566   */\n      tag_334\n        /* \"#utility.yul\":9558:9565   */\n      dup8\n        /* \"#utility.yul\":9549:9555   */\n      dup3\n        /* \"#utility.yul\":9538:9547   */\n      dup9\n        /* \"#utility.yul\":9534:9556   */\n      add\n        /* \"#utility.yul\":9513:9566   */\n      tag_181\n      jump\t// in\n    tag_334:\n        /* \"#utility.yul\":9503:9566   */\n      swap3\n      pop\n        /* \"#utility.yul\":9458:9576   */\n      pop\n        /* \"#utility.yul\":9643:9645   */\n      0x60\n        /* \"#utility.yul\":9632:9641   */\n      dup6\n        /* \"#utility.yul\":9628:9646   */\n      add\n        /* \"#utility.yul\":9615:9647   */\n      calldataload\n        /* \"#utility.yul\":9674:9692   */\n      0xffffffffffffffff\n        /* \"#utility.yul\":9666:9672   */\n      dup2\n        /* \"#utility.yul\":9663:9693   */\n      gt\n        /* \"#utility.yul\":9660:9777   */\n      iszero\n      tag_335\n      jumpi\n        /* \"#utility.yul\":9696:9775   */\n      tag_336\n      tag_168\n      jump\t// in\n    tag_336:\n        /* \"#utility.yul\":9660:9777   */\n    tag_335:\n        /* \"#utility.yul\":9801:9863   */\n      tag_337\n        /* \"#utility.yul\":9855:9862   */\n      dup8\n        /* \"#utility.yul\":9846:9852   */\n      dup3\n        /* \"#utility.yul\":9835:9844   */\n      dup9\n        /* \"#utility.yul\":9831:9853   */\n      add\n        /* \"#utility.yul\":9801:9863   */\n      tag_198\n      jump\t// in\n    tag_337:\n        /* \"#utility.yul\":9791:9863   */\n      swap2\n      pop\n        /* \"#utility.yul\":9586:9873   */\n      pop\n        /* \"#utility.yul\":8937:9880   */\n      swap3\n      swap6\n      swap2\n      swap5\n      pop\n      swap3\n      pop\n      jump\t// out\n        /* \"#utility.yul\":9886:10360   */\n    tag_85:\n        /* \"#utility.yul\":9954:9960   */\n      0x00\n        /* \"#utility.yul\":9962:9968   */\n      0x00\n        /* \"#utility.yul\":10011:10013   */\n      0x40\n        /* \"#utility.yul\":9999:10008   */\n      dup4\n        /* \"#utility.yul\":9990:9997   */\n      dup6\n        /* \"#utility.yul\":9986:10009   */\n      sub\n        /* \"#utility.yul\":9982:10014   */\n      slt\n        /* \"#utility.yul\":9979:10098   */\n      iszero\n      tag_339\n      jumpi\n        /* \"#utility.yul\":10017:10096   */\n      tag_340\n      tag_167\n      jump\t// in\n    tag_340:\n        /* \"#utility.yul\":9979:10098   */\n    tag_339:\n        /* \"#utility.yul\":10137:10138   */\n      0x00\n        /* \"#utility.yul\":10162:10215   */\n      tag_341\n        /* \"#utility.yul\":10207:10214   */\n      dup6\n        /* \"#utility.yul\":10198:10204   */\n      dup3\n        /* \"#utility.yul\":10187:10196   */\n      dup7\n        /* \"#utility.yul\":10183:10205   */\n      add\n        /* \"#utility.yul\":10162:10215   */\n      tag_186\n      jump\t// in\n    tag_341:\n        /* \"#utility.yul\":10152:10215   */\n      swap3\n      pop\n        /* \"#utility.yul\":10108:10225   */\n      pop\n        /* \"#utility.yul\":10264:10266   */\n      0x20\n        /* \"#utility.yul\":10290:10343   */\n      tag_342\n        /* \"#utility.yul\":10335:10342   */\n      dup6\n        /* \"#utility.yul\":10326:10332   */\n      dup3\n        /* \"#utility.yul\":10315:10324   */\n      dup7\n        /* \"#utility.yul\":10311:10333   */\n      add\n        /* \"#utility.yul\":10290:10343   */\n      tag_186\n      jump\t// in\n    tag_342:\n        /* \"#utility.yul\":10280:10343   */\n      swap2\n      pop\n        /* \"#utility.yul\":10235:10353   */\n      pop\n        /* \"#utility.yul\":9886:10360   */\n      swap3\n      pop\n      swap3\n      swap1\n      pop\n      jump\t// out\n        /* \"#utility.yul\":10366:10546   */\n    tag_199:\n        /* \"#utility.yul\":10414:10491   */\n      0x4e487b7100000000000000000000000000000000000000000000000000000000\n        /* \"#utility.yul\":10411:10412   */\n      0x00\n        /* \"#utility.yul\":10404:10492   */\n      mstore\n        /* \"#utility.yul\":10511:10515   */\n      0x22\n        /* \"#utility.yul\":10508:10509   */\n      0x04\n        /* \"#utility.yul\":10501:10516   */\n      mstore\n        /* \"#utility.yul\":10535:10539   */\n      0x24\n        /* \"#utility.yul\":10532:10533   */\n      0x00\n        /* \"#utility.yul\":10525:10540   */\n      revert\n        /* \"#utility.yul\":10552:10872   */\n    tag_91:\n        /* \"#utility.yul\":10596:10602   */\n      0x00\n        /* \"#utility.yul\":10633:10634   */\n      0x02\n        /* \"#utility.yul\":10627:10631   */\n      dup3\n        /* \"#utility.yul\":10623:10635   */\n      div\n        /* \"#utility.yul\":10613:10635   */\n      swap1\n      pop\n        /* \"#utility.yul\":10680:10681   */\n      0x01\n        /* \"#utility.yul\":10674:10678   */\n      dup3\n        /* \"#utility.yul\":10670:10682   */\n      and\n        /* \"#utility.yul\":10701:10719   */\n      dup1\n        /* \"#utility.yul\":10691:10772   */\n      tag_345\n      jumpi\n        /* \"#utility.yul\":10757:10761   */\n      0x7f\n        /* \"#utility.yul\":10749:10755   */\n      dup3\n        /* \"#utility.yul\":10745:10762   */\n      and\n        /* \"#utility.yul\":10735:10762   */\n      swap2\n      pop\n        /* \"#utility.yul\":10691:10772   */\n    tag_345:\n        /* \"#utility.yul\":10819:10821   */\n      0x20\n        /* \"#utility.yul\":10811:10817   */\n      dup3\n        /* \"#utility.yul\":10808:10822   */\n      lt\n        /* \"#utility.yul\":10788:10806   */\n      dup2\n        /* \"#utility.yul\":10785:10823   */\n      sub\n        /* \"#utility.yul\":10782:10866   */\n      tag_346\n      jumpi\n        /* \"#utility.yul\":10838:10856   */\n      tag_347\n      tag_199\n      jump\t// in\n    tag_347:\n        /* \"#utility.yul\":10782:10866   */\n    tag_346:\n        /* \"#utility.yul\":10603:10872   */\n      pop\n        /* \"#utility.yul\":10552:10872   */\n      swap2\n      swap1\n      pop\n      jump\t// out\n        /* \"#utility.yul\":10878:11047   */\n    tag_200:\n        /* \"#utility.yul\":11018:11039   */\n      0x746f6b656e20646f65736e277420657869737400000000000000000000000000\n        /* \"#utility.yul\":11014:11015   */\n      0x00\n        /* \"#utility.yul\":11006:11012   */\n      dup3\n        /* \"#utility.yul\":11002:11016   */\n      add\n        /* \"#utility.yul\":10995:11040   */\n      mstore\n        /* \"#utility.yul\":10878:11047   */\n      pop\n      jump\t// out\n        /* \"#utility.yul\":11053:11419   */\n    tag_201:\n        /* \"#utility.yul\":11195:11198   */\n      0x00\n        /* \"#utility.yul\":11216:11283   */\n      tag_350\n        /* \"#utility.yul\":11280:11282   */\n      0x13\n        /* \"#utility.yul\":11275:11278   */\n      dup4\n        /* \"#utility.yul\":11216:11283   */\n      tag_175\n      jump\t// in\n    tag_350:\n        /* \"#utility.yul\":11209:11283   */\n      swap2\n      pop\n        /* \"#utility.yul\":11292:11385   */\n      tag_351\n        /* \"#utility.yul\":11381:11384   */\n      dup3\n        /* \"#utility.yul\":11292:11385   */\n      tag_200\n      jump\t// in\n    tag_351:\n        /* \"#utility.yul\":11410:11412   */\n      0x20\n        /* \"#utility.yul\":11405:11408   */\n      dup3\n        /* \"#utility.yul\":11401:11413   */\n      add\n        /* \"#utility.yul\":11394:11413   */\n      swap1\n      pop\n        /* \"#utility.yul\":11053:11419   */\n      swap2\n      swap1\n      pop\n      jump\t// out\n        /* \"#utility.yul\":11425:11844   */\n    tag_99:\n        /* \"#utility.yul\":11591:11595   */\n      0x00\n        /* \"#utility.yul\":11629:11631   */\n      0x20\n        /* \"#utility.yul\":11618:11627   */\n      dup3\n        /* \"#utility.yul\":11614:11632   */\n      add\n        /* \"#utility.yul\":11606:11632   */\n      swap1\n      pop\n        /* \"#utility.yul\":11678:11687   */\n      dup2\n        /* \"#utility.yul\":11672:11676   */\n      dup2\n        /* \"#utility.yul\":11668:11688   */\n      sub\n        /* \"#utility.yul\":11664:11665   */\n      0x00\n        /* \"#utility.yul\":11653:11662   */\n      dup4\n        /* \"#utility.yul\":11649:11666   */\n      add\n        /* \"#utility.yul\":11642:11689   */\n      mstore\n        /* \"#utility.yul\":11706:11837   */\n      tag_353\n        /* \"#utility.yul\":11832:11836   */\n      dup2\n        /* \"#utility.yul\":11706:11837   */\n      tag_201\n      jump\t// in\n    tag_353:\n        /* \"#utility.yul\":11698:11837   */\n      swap1\n      pop\n        /* \"#utility.yul\":11425:11844   */\n      swap2\n      swap1\n      pop\n      jump\t// out\n        /* \"#utility.yul\":11850:12014   */\n    tag_202:\n        /* \"#utility.yul\":11990:12006   */\n      0x6e6f7420617574686f72697a6564000000000000000000000000000000000000\n        /* \"#utility.yul\":11986:11987   */\n      0x00\n        /* \"#utility.yul\":11978:11984   */\n      dup3\n        /* \"#utility.yul\":11974:11988   */\n      add\n        /* \"#utility.yul\":11967:12007   */\n      mstore\n        /* \"#utility.yul\":11850:12014   */\n      pop\n      jump\t// out\n        /* \"#utility.yul\":12020:12386   */\n    tag_203:\n        /* \"#utility.yul\":12162:12165   */\n      0x00\n        /* \"#utility.yul\":12183:12250   */\n      tag_356\n        /* \"#utility.yul\":12247:12249   */\n      0x0e\n        /* \"#utility.yul\":12242:12245   */\n      dup4\n        /* \"#utility.yul\":12183:12250   */\n      tag_175\n      jump\t// in\n    tag_356:\n        /* \"#utility.yul\":12176:12250   */\n      swap2\n      pop\n        /* \"#utility.yul\":12259:12352   */\n      tag_357\n        /* \"#utility.yul\":12348:12351   */\n      dup3\n        /* \"#utility.yul\":12259:12352   */\n      tag_202\n      jump\t// in\n    tag_357:\n        /* \"#utility.yul\":12377:12379   */\n      0x20\n        /* \"#utility.yul\":12372:12375   */\n      dup3\n        /* \"#utility.yul\":12368:12380   */\n      add\n        /* \"#utility.yul\":12361:12380   */\n      swap1\n      pop\n        /* \"#utility.yul\":12020:12386   */\n      swap2\n      swap1\n      pop\n      jump\t// out\n        /* \"#utility.yul\":12392:12811   */\n    tag_104:\n        /* \"#utility.yul\":12558:12562   */\n      0x00\n        /* \"#utility.yul\":12596:12598   */\n      0x20\n        /* \"#utility.yul\":12585:12594   */\n      dup3\n        /* \"#utility.yul\":12581:12599   */\n      add\n        /* \"#utility.yul\":12573:12599   */\n      swap1\n      pop\n        /* \"#utility.yul\":12645:12654   */\n      dup2\n        /* \"#utility.yul\":12639:12643   */\n      dup2\n        /* \"#utility.yul\":12635:12655   */\n      sub\n        /* \"#utility.yul\":12631:12632   */\n      0x00\n        /* \"#utility.yul\":12620:12629   */\n      dup4\n        /* \"#utility.yul\":12616:12633   */\n      add\n        /* \"#utility.yul\":12609:12656   */\n      mstore\n        /* \"#utility.yul\":12673:12804   */\n      tag_359\n        /* \"#utility.yul\":12799:12803   */\n      dup2\n        /* \"#utility.yul\":12673:12804   */\n      tag_203\n      jump\t// in\n    tag_359:\n        /* \"#utility.yul\":12665:12804   */\n      swap1\n      pop\n        /* \"#utility.yul\":12392:12811   */\n      swap2\n      swap1\n      pop\n      jump\t// out\n        /* \"#utility.yul\":12817:12991   */\n    tag_204:\n        /* \"#utility.yul\":12957:12983   */\n      0x6e6f7420616e20617574686f72697a6564206d696e7465720000000000000000\n        /* \"#utility.yul\":12953:12954   */\n      0x00\n        /* \"#utility.yul\":12945:12951   */\n      dup3\n        /* \"#utility.yul\":12941:12955   */\n      add\n        /* \"#utility.yul\":12934:12984   */\n      mstore\n        /* \"#utility.yul\":12817:12991   */\n      pop\n      jump\t// out\n        /* \"#utility.yul\":12997:13363   */\n    tag_205:\n        /* \"#utility.yul\":13139:13142   */\n      0x00\n        /* \"#utility.yul\":13160:13227   */\n      tag_362\n        /* \"#utility.yul\":13224:13226   */\n      0x18\n        /* \"#utility.yul\":13219:13222   */\n      dup4\n        /* \"#utility.yul\":13160:13227   */\n      tag_175\n      jump\t// in\n    tag_362:\n        /* \"#utility.yul\":13153:13227   */\n      swap2\n      pop\n        /* \"#utility.yul\":13236:13329   */\n      tag_363\n        /* \"#utility.yul\":13325:13328   */\n      dup3\n        /* \"#utility.yul\":13236:13329   */\n      tag_204\n      jump\t// in\n    tag_363:\n        /* \"#utility.yul\":13354:13356   */\n      0x20\n        /* \"#utility.yul\":13349:13352   */\n      dup3\n        /* \"#utility.yul\":13345:13357   */\n      add\n        /* \"#utility.yul\":13338:13357   */\n      swap1\n      pop\n        /* \"#utility.yul\":12997:13363   */\n      swap2\n      swap1\n      pop\n      jump\t// out\n        /* \"#utility.yul\":13369:13788   */\n    tag_111:\n        /* \"#utility.yul\":13535:13539   */\n      0x00\n        /* \"#utility.yul\":13573:13575   */\n      0x20\n        /* \"#utility.yul\":13562:13571   */\n      dup3\n        /* \"#utility.yul\":13558:13576   */\n      add\n        /* \"#utility.yul\":13550:13576   */\n      swap1\n      pop\n        /* \"#utility.yul\":13622:13631   */\n      dup2\n        /* \"#utility.yul\":13616:13620   */\n      dup2\n        /* \"#utility.yul\":13612:13632   */\n      sub\n        /* \"#utility.yul\":13608:13609   */\n      0x00\n        /* \"#utility.yul\":13597:13606   */\n      dup4\n        /* \"#utility.yul\":13593:13610   */\n      add\n        /* \"#utility.yul\":13586:13633   */\n      mstore\n        /* \"#utility.yul\":13650:13781   */\n      tag_365\n        /* \"#utility.yul\":13776:13780   */\n      dup2\n        /* \"#utility.yul\":13650:13781   */\n      tag_205\n      jump\t// in\n    tag_365:\n        /* \"#utility.yul\":13642:13781   */\n      swap1\n      pop\n        /* \"#utility.yul\":13369:13788   */\n      swap2\n      swap1\n      pop\n      jump\t// out\n        /* \"#utility.yul\":13794:14015   */\n    tag_206:\n        /* \"#utility.yul\":13934:13968   */\n      0x62616c616e636520717565727920666f7220746865207a65726f206164647265\n        /* \"#utility.yul\":13930:13931   */\n      0x00\n        /* \"#utility.yul\":13922:13928   */\n      dup3\n        /* \"#utility.yul\":13918:13932   */\n      add\n        /* \"#utility.yul\":13911:13969   */\n      mstore\n        /* \"#utility.yul\":14003:14007   */\n      0x7373000000000000000000000000000000000000000000000000000000000000\n        /* \"#utility.yul\":13998:14000   */\n      0x20\n        /* \"#utility.yul\":13990:13996   */\n      dup3\n        /* \"#utility.yul\":13986:14001   */\n      add\n        /* \"#utility.yul\":13979:14008   */\n      mstore\n        /* \"#utility.yul\":13794:14015   */\n      pop\n      jump\t// out\n        /* \"#utility.yul\":14021:14387   */\n    tag_207:\n        /* \"#utility.yul\":14163:14166   */\n      0x00\n        /* \"#utility.yul\":14184:14251   */\n      tag_368\n        /* \"#utility.yul\":14248:14250   */\n      0x22\n        /* \"#utility.yul\":14243:14246   */\n      dup4\n        /* \"#utility.yul\":14184:14251   */\n      tag_175\n      jump\t// in\n    tag_368:\n        /* \"#utility.yul\":14177:14251   */\n      swap2\n      pop\n        /* \"#utility.yul\":14260:14353   */\n      tag_369\n        /* \"#utility.yul\":14349:14352   */\n      dup3\n        /* \"#utility.yul\":14260:14353   */\n      tag_206\n      jump\t// in\n    tag_369:\n        /* \"#utility.yul\":14378:14380   */\n      0x40\n        /* \"#utility.yul\":14373:14376   */\n      dup3\n        /* \"#utility.yul\":14369:14381   */\n      add\n        /* \"#utility.yul\":14362:14381   */\n      swap1\n      pop\n        /* \"#utility.yul\":14021:14387   */\n      swap2\n      swap1\n      pop\n      jump\t// out\n        /* \"#utility.yul\":14393:14812   */\n    tag_122:\n        /* \"#utility.yul\":14559:14563   */\n      0x00\n        /* \"#utility.yul\":14597:14599   */\n      0x20\n        /* \"#utility.yul\":14586:14595   */\n      dup3\n        /* \"#utility.yul\":14582:14600   */\n      add\n        /* \"#utility.yul\":14574:14600   */\n      swap1\n      pop\n        /* \"#utility.yul\":14646:14655   */\n      dup2\n        /* \"#utility.yul\":14640:14644   */\n      dup2\n        /* \"#utility.yul\":14636:14656   */\n      sub\n        /* \"#utility.yul\":14632:14633   */\n      0x00\n        /* \"#utility.yul\":14621:14630   */\n      dup4\n        /* \"#utility.yul\":14617:14634   */\n      add\n        /* \"#utility.yul\":14610:14657   */\n      mstore\n        /* \"#utility.yul\":14674:14805   */\n      tag_371\n        /* \"#utility.yul\":14800:14804   */\n      dup2\n        /* \"#utility.yul\":14674:14805   */\n      tag_207\n      jump\t// in\n    tag_371:\n        /* \"#utility.yul\":14666:14805   */\n      swap1\n      pop\n        /* \"#utility.yul\":14393:14812   */\n      swap2\n      swap1\n      pop\n      jump\t// out\n        /* \"#utility.yul\":14818:14916   */\n    tag_208:\n        /* \"#utility.yul\":14869:14875   */\n      0x00\n        /* \"#utility.yul\":14903:14908   */\n      dup2\n        /* \"#utility.yul\":14897:14909   */\n      mload\n        /* \"#utility.yul\":14887:14909   */\n      swap1\n      pop\n        /* \"#utility.yul\":14818:14916   */\n      swap2\n      swap1\n      pop\n      jump\t// out\n        /* \"#utility.yul\":14922:15090   */\n    tag_209:\n        /* \"#utility.yul\":15005:15016   */\n      0x00\n        /* \"#utility.yul\":15039:15045   */\n      dup3\n        /* \"#utility.yul\":15034:15037   */\n      dup3\n        /* \"#utility.yul\":15027:15046   */\n      mstore\n        /* \"#utility.yul\":15079:15083   */\n      0x20\n        /* \"#utility.yul\":15074:15077   */\n      dup3\n        /* \"#utility.yul\":15070:15084   */\n      add\n        /* \"#utility.yul\":15055:15084   */\n      swap1\n      pop\n        /* \"#utility.yul\":14922:15090   */\n      swap3\n      swap2\n      pop\n      pop\n      jump\t// out\n        /* \"#utility.yul\":15096:15469   */\n    tag_210:\n        /* \"#utility.yul\":15182:15185   */\n      0x00\n        /* \"#utility.yul\":15210:15248   */\n      tag_375\n        /* \"#utility.yul\":15242:15247   */\n      dup3\n        /* \"#utility.yul\":15210:15248   */\n      tag_208\n      jump\t// in\n    tag_375:\n        /* \"#utility.yul\":15264:15334   */\n      tag_376\n        /* \"#utility.yul\":15327:15333   */\n      dup2\n        /* \"#utility.yul\":15322:15325   */\n      dup6\n        /* \"#utility.yul\":15264:15334   */\n      tag_209\n      jump\t// in\n    tag_376:\n        /* \"#utility.yul\":15257:15334   */\n      swap4\n      pop\n        /* \"#utility.yul\":15343:15408   */\n      tag_377\n        /* \"#utility.yul\":15401:15407   */\n      dup2\n        /* \"#utility.yul\":15396:15399   */\n      dup6\n        /* \"#utility.yul\":15389:15393   */\n      0x20\n        /* \"#utility.yul\":15382:15387   */\n      dup7\n        /* \"#utility.yul\":15378:15394   */\n      add\n        /* \"#utility.yul\":15343:15408   */\n      tag_176\n      jump\t// in\n    tag_377:\n        /* \"#utility.yul\":15433:15462   */\n      tag_378\n        /* \"#utility.yul\":15455:15461   */\n      dup2\n        /* \"#utility.yul\":15433:15462   */\n      tag_177\n      jump\t// in\n    tag_378:\n        /* \"#utility.yul\":15428:15431   */\n      dup5\n        /* \"#utility.yul\":15424:15463   */\n      add\n        /* \"#utility.yul\":15417:15463   */\n      swap2\n      pop\n        /* \"#utility.yul\":15186:15469   */\n      pop\n        /* \"#utility.yul\":15096:15469   */\n      swap3\n      swap2\n      pop\n      pop\n      jump\t// out\n        /* \"#utility.yul\":15475:16115   */\n    tag_134:\n        /* \"#utility.yul\":15670:15674   */\n      0x00\n        /* \"#utility.yul\":15708:15711   */\n      0x80\n        /* \"#utility.yul\":15697:15706   */\n      dup3\n        /* \"#utility.yul\":15693:15712   */\n      add\n        /* \"#utility.yul\":15685:15712   */\n      swap1\n      pop\n        /* \"#utility.yul\":15722:15793   */\n      tag_380\n        /* \"#utility.yul\":15790:15791   */\n      0x00\n        /* \"#utility.yul\":15779:15788   */\n      dup4\n        /* \"#utility.yul\":15775:15792   */\n      add\n        /* \"#utility.yul\":15766:15772   */\n      dup8\n        /* \"#utility.yul\":15722:15793   */\n      tag_184\n      jump\t// in\n    tag_380:\n        /* \"#utility.yul\":15803:15875   */\n      tag_381\n        /* \"#utility.yul\":15871:15873   */\n      0x20\n        /* \"#utility.yul\":15860:15869   */\n      dup4\n        /* \"#utility.yul\":15856:15874   */\n      add\n        /* \"#utility.yul\":15847:15853   */\n      dup7\n        /* \"#utility.yul\":15803:15875   */\n      tag_184\n      jump\t// in\n    tag_381:\n        /* \"#utility.yul\":15885:15957   */\n      tag_382\n        /* \"#utility.yul\":15953:15955   */\n      0x40\n        /* \"#utility.yul\":15942:15951   */\n      dup4\n        /* \"#utility.yul\":15938:15956   */\n      add\n        /* \"#utility.yul\":15929:15935   */\n      dup6\n        /* \"#utility.yul\":15885:15957   */\n      tag_187\n      jump\t// in\n    tag_382:\n        /* \"#utility.yul\":16004:16013   */\n      dup2\n        /* \"#utility.yul\":15998:16002   */\n      dup2\n        /* \"#utility.yul\":15994:16014   */\n      sub\n        /* \"#utility.yul\":15989:15991   */\n      0x60\n        /* \"#utility.yul\":15978:15987   */\n      dup4\n        /* \"#utility.yul\":15974:15992   */\n      add\n        /* \"#utility.yul\":15967:16015   */\n      mstore\n        /* \"#utility.yul\":16032:16108   */\n      tag_383\n        /* \"#utility.yul\":16103:16107   */\n      dup2\n        /* \"#utility.yul\":16094:16100   */\n      dup5\n        /* \"#utility.yul\":16032:16108   */\n      tag_210\n      jump\t// in\n    tag_383:\n        /* \"#utility.yul\":16024:16108   */\n      swap1\n      pop\n        /* \"#utility.yul\":15475:16115   */\n      swap6\n      swap5\n      pop\n      pop\n      pop\n      pop\n      pop\n      jump\t// out\n        /* \"#utility.yul\":16121:16262   */\n    tag_211:\n        /* \"#utility.yul\":16177:16182   */\n      0x00\n        /* \"#utility.yul\":16208:16214   */\n      dup2\n        /* \"#utility.yul\":16202:16215   */\n      mload\n        /* \"#utility.yul\":16193:16215   */\n      swap1\n      pop\n        /* \"#utility.yul\":16224:16256   */\n      tag_385\n        /* \"#utility.yul\":16250:16255   */\n      dup2\n        /* \"#utility.yul\":16224:16256   */\n      tag_170\n      jump\t// in\n    tag_385:\n        /* \"#utility.yul\":16121:16262   */\n      swap3\n      swap2\n      pop\n      pop\n      jump\t// out\n        /* \"#utility.yul\":16268:16617   */\n    tag_138:\n        /* \"#utility.yul\":16337:16343   */\n      0x00\n        /* \"#utility.yul\":16386:16388   */\n      0x20\n        /* \"#utility.yul\":16374:16383   */\n      dup3\n        /* \"#utility.yul\":16365:16372   */\n      dup5\n        /* \"#utility.yul\":16361:16384   */\n      sub\n        /* \"#utility.yul\":16357:16389   */\n      slt\n        /* \"#utility.yul\":16354:16473   */\n      iszero\n      tag_387\n      jumpi\n        /* \"#utility.yul\":16392:16471   */\n      tag_388\n      tag_167\n      jump\t// in\n    tag_388:\n        /* \"#utility.yul\":16354:16473   */\n    tag_387:\n        /* \"#utility.yul\":16512:16513   */\n      0x00\n        /* \"#utility.yul\":16537:16600   */\n      tag_389\n        /* \"#utility.yul\":16592:16599   */\n      dup5\n        /* \"#utility.yul\":16583:16589   */\n      dup3\n        /* \"#utility.yul\":16572:16581   */\n      dup6\n        /* \"#utility.yul\":16568:16590   */\n      add\n        /* \"#utility.yul\":16537:16600   */\n      tag_211\n      jump\t// in\n    tag_389:\n        /* \"#utility.yul\":16527:16600   */\n      swap2\n      pop\n        /* \"#utility.yul\":16483:16610   */\n      pop\n        /* \"#utility.yul\":16268:16617   */\n      swap3\n      swap2\n      pop\n      pop\n      jump\t// out\n        /* \"#utility.yul\":16623:16789   */\n    tag_212:\n        /* \"#utility.yul\":16763:16781   */\n      0x756e7361666520726563697069656e7400000000000000000000000000000000\n        /* \"#utility.yul\":16759:16760   */\n      0x00\n        /* \"#utility.yul\":16751:16757   */\n      dup3\n        /* \"#utility.yul\":16747:16761   */\n      add\n        /* \"#utility.yul\":16740:16782   */\n      mstore\n        /* \"#utility.yul\":16623:16789   */\n      pop\n      jump\t// out\n        /* \"#utility.yul\":16795:17161   */\n    tag_213:\n        /* \"#utility.yul\":16937:16940   */\n      0x00\n        /* \"#utility.yul\":16958:17025   */\n      tag_392\n        /* \"#utility.yul\":17022:17024   */\n      0x10\n        /* \"#utility.yul\":17017:17020   */\n      dup4\n        /* \"#utility.yul\":16958:17025   */\n      tag_175\n      jump\t// in\n    tag_392:\n        /* \"#utility.yul\":16951:17025   */\n      swap2\n      pop\n        /* \"#utility.yul\":17034:17127   */\n      tag_393\n        /* \"#utility.yul\":17123:17126   */\n      dup3\n        /* \"#utility.yul\":17034:17127   */\n      tag_212\n      jump\t// in\n    tag_393:\n        /* \"#utility.yul\":17152:17154   */\n      0x20\n        /* \"#utility.yul\":17147:17150   */\n      dup3\n        /* \"#utility.yul\":17143:17155   */\n      add\n        /* \"#utility.yul\":17136:17155   */\n      swap1\n      pop\n        /* \"#utility.yul\":16795:17161   */\n      swap2\n      swap1\n      pop\n      jump\t// out\n        /* \"#utility.yul\":17167:17586   */\n    tag_141:\n        /* \"#utility.yul\":17333:17337   */\n      0x00\n        /* \"#utility.yul\":17371:17373   */\n      0x20\n        /* \"#utility.yul\":17360:17369   */\n      dup3\n        /* \"#utility.yul\":17356:17374   */\n      add\n        /* \"#utility.yul\":17348:17374   */\n      swap1\n      pop\n        /* \"#utility.yul\":17420:17429   */\n      dup2\n        /* \"#utility.yul\":17414:17418   */\n      dup2\n        /* \"#utility.yul\":17410:17430   */\n      sub\n        /* \"#utility.yul\":17406:17407   */\n      0x00\n        /* \"#utility.yul\":17395:17404   */\n      dup4\n        /* \"#utility.yul\":17391:17408   */\n      add\n        /* \"#utility.yul\":17384:17431   */\n      mstore\n        /* \"#utility.yul\":17448:17579   */\n      tag_395\n        /* \"#utility.yul\":17574:17578   */\n      dup2\n        /* \"#utility.yul\":17448:17579   */\n      tag_213\n      jump\t// in\n    tag_395:\n        /* \"#utility.yul\":17440:17579   */\n      swap1\n      pop\n        /* \"#utility.yul\":17167:17586   */\n      swap2\n      swap1\n      pop\n      jump\t// out\n        /* \"#utility.yul\":17592:17755   */\n    tag_214:\n        /* \"#utility.yul\":17732:17747   */\n      0x66726f6d20213d206f776e657200000000000000000000000000000000000000\n        /* \"#utility.yul\":17728:17729   */\n      0x00\n        /* \"#utility.yul\":17720:17726   */\n      dup3\n        /* \"#utility.yul\":17716:17730   */\n      add\n        /* \"#utility.yul\":17709:17748   */\n      mstore\n        /* \"#utility.yul\":17592:17755   */\n      pop\n      jump\t// out\n        /* \"#utility.yul\":17761:18127   */\n    tag_215:\n        /* \"#utility.yul\":17903:17906   */\n      0x00\n        /* \"#utility.yul\":17924:17991   */\n      tag_398\n        /* \"#utility.yul\":17988:17990   */\n      0x0d\n        /* \"#utility.yul\":17983:17986   */\n      dup4\n        /* \"#utility.yul\":17924:17991   */\n      tag_175\n      jump\t// in\n    tag_398:\n        /* \"#utility.yul\":17917:17991   */\n      swap2\n      pop\n        /* \"#utility.yul\":18000:18093   */\n      tag_399\n        /* \"#utility.yul\":18089:18092   */\n      dup3\n        /* \"#utility.yul\":18000:18093   */\n      tag_214\n      jump\t// in\n    tag_399:\n        /* \"#utility.yul\":18118:18120   */\n      0x20\n        /* \"#utility.yul\":18113:18116   */\n      dup3\n        /* \"#utility.yul\":18109:18121   */\n      add\n        /* \"#utility.yul\":18102:18121   */\n      swap1\n      pop\n        /* \"#utility.yul\":17761:18127   */\n      swap2\n      swap1\n      pop\n      jump\t// out\n        /* \"#utility.yul\":18133:18552   */\n    tag_146:\n        /* \"#utility.yul\":18299:18303   */\n      0x00\n        /* \"#utility.yul\":18337:18339   */\n      0x20\n        /* \"#utility.yul\":18326:18335   */\n      dup3\n        /* \"#utility.yul\":18322:18340   */\n      add\n        /* \"#utility.yul\":18314:18340   */\n      swap1\n      pop\n        /* \"#utility.yul\":18386:18395   */\n      dup2\n        /* \"#utility.yul\":18380:18384   */\n      dup2\n        /* \"#utility.yul\":18376:18396   */\n      sub\n        /* \"#utility.yul\":18372:18373   */\n      0x00\n        /* \"#utility.yul\":18361:18370   */\n      dup4\n        /* \"#utility.yul\":18357:18374   */\n      add\n        /* \"#utility.yul\":18350:18397   */\n      mstore\n        /* \"#utility.yul\":18414:18545   */\n      tag_401\n        /* \"#utility.yul\":18540:18544   */\n      dup2\n        /* \"#utility.yul\":18414:18545   */\n      tag_215\n      jump\t// in\n    tag_401:\n        /* \"#utility.yul\":18406:18545   */\n      swap1\n      pop\n        /* \"#utility.yul\":18133:18552   */\n      swap2\n      swap1\n      pop\n      jump\t// out\n        /* \"#utility.yul\":18558:18732   */\n    tag_216:\n        /* \"#utility.yul\":18698:18724   */\n      0x7472616e7366657220746f207a65726f20616464726573730000000000000000\n        /* \"#utility.yul\":18694:18695   */\n      0x00\n        /* \"#utility.yul\":18686:18692   */\n      dup3\n        /* \"#utility.yul\":18682:18696   */\n      add\n        /* \"#utility.yul\":18675:18725   */\n      mstore\n        /* \"#utility.yul\":18558:18732   */\n      pop\n      jump\t// out\n        /* \"#utility.yul\":18738:19104   */\n    tag_217:\n        /* \"#utility.yul\":18880:18883   */\n      0x00\n        /* \"#utility.yul\":18901:18968   */\n      tag_404\n        /* \"#utility.yul\":18965:18967   */\n      0x18\n        /* \"#utility.yul\":18960:18963   */\n      dup4\n        /* \"#utility.yul\":18901:18968   */\n      tag_175\n      jump\t// in\n    tag_404:\n        /* \"#utility.yul\":18894:18968   */\n      swap2\n      pop\n        /* \"#utility.yul\":18977:19070   */\n      tag_405\n        /* \"#utility.yul\":19066:19069   */\n      dup3\n        /* \"#utility.yul\":18977:19070   */\n      tag_216\n      jump\t// in\n    tag_405:\n        /* \"#utility.yul\":19095:19097   */\n      0x20\n        /* \"#utility.yul\":19090:19093   */\n      dup3\n        /* \"#utility.yul\":19086:19098   */\n      add\n        /* \"#utility.yul\":19079:19098   */\n      swap1\n      pop\n        /* \"#utility.yul\":18738:19104   */\n      swap2\n      swap1\n      pop\n      jump\t// out\n        /* \"#utility.yul\":19110:19529   */\n    tag_149:\n        /* \"#utility.yul\":19276:19280   */\n      0x00\n        /* \"#utility.yul\":19314:19316   */\n      0x20\n        /* \"#utility.yul\":19303:19312   */\n      dup3\n        /* \"#utility.yul\":19299:19317   */\n      add\n        /* \"#utility.yul\":19291:19317   */\n      swap1\n      pop\n        /* \"#utility.yul\":19363:19372   */\n      dup2\n        /* \"#utility.yul\":19357:19361   */\n      dup2\n        /* \"#utility.yul\":19353:19373   */\n      sub\n        /* \"#utility.yul\":19349:19350   */\n      0x00\n        /* \"#utility.yul\":19338:19347   */\n      dup4\n        /* \"#utility.yul\":19334:19351   */\n      add\n        /* \"#utility.yul\":19327:19374   */\n      mstore\n        /* \"#utility.yul\":19391:19522   */\n      tag_407\n        /* \"#utility.yul\":19517:19521   */\n      dup2\n        /* \"#utility.yul\":19391:19522   */\n      tag_217\n      jump\t// in\n    tag_407:\n        /* \"#utility.yul\":19383:19522   */\n      swap1\n      pop\n        /* \"#utility.yul\":19110:19529   */\n      swap2\n      swap1\n      pop\n      jump\t// out\n        /* \"#utility.yul\":19535:19715   */\n    tag_218:\n        /* \"#utility.yul\":19583:19660   */\n      0x4e487b7100000000000000000000000000000000000000000000000000000000\n        /* \"#utility.yul\":19580:19581   */\n      0x00\n        /* \"#utility.yul\":19573:19661   */\n      mstore\n        /* \"#utility.yul\":19680:19684   */\n      0x11\n        /* \"#utility.yul\":19677:19678   */\n      0x04\n        /* \"#utility.yul\":19670:19685   */\n      mstore\n        /* \"#utility.yul\":19704:19708   */\n      0x24\n        /* \"#utility.yul\":19701:19702   */\n      0x00\n        /* \"#utility.yul\":19694:19709   */\n      revert\n        /* \"#utility.yul\":19721:19892   */\n    tag_155:\n        /* \"#utility.yul\":19760:19763   */\n      0x00\n        /* \"#utility.yul\":19783:19807   */\n      tag_410\n        /* \"#utility.yul\":19801:19806   */\n      dup3\n        /* \"#utility.yul\":19783:19807   */\n      tag_179\n      jump\t// in\n    tag_410:\n        /* \"#utility.yul\":19774:19807   */\n      swap2\n      pop\n        /* \"#utility.yul\":19829:19833   */\n      0x00\n        /* \"#utility.yul\":19822:19827   */\n      dup3\n        /* \"#utility.yul\":19819:19834   */\n      sub\n        /* \"#utility.yul\":19816:19857   */\n      tag_411\n      jumpi\n        /* \"#utility.yul\":19837:19855   */\n      tag_412\n      tag_218\n      jump\t// in\n    tag_412:\n        /* \"#utility.yul\":19816:19857   */\n    tag_411:\n        /* \"#utility.yul\":19884:19885   */\n      0x01\n        /* \"#utility.yul\":19877:19882   */\n      dup3\n        /* \"#utility.yul\":19873:19886   */\n      sub\n        /* \"#utility.yul\":19866:19886   */\n      swap1\n      pop\n        /* \"#utility.yul\":19721:19892   */\n      swap2\n      swap1\n      pop\n      jump\t// out\n        /* \"#utility.yul\":19898:20131   */\n    tag_157:\n        /* \"#utility.yul\":19937:19940   */\n      0x00\n        /* \"#utility.yul\":19960:19984   */\n      tag_414\n        /* \"#utility.yul\":19978:19983   */\n      dup3\n        /* \"#utility.yul\":19960:19984   */\n      tag_179\n      jump\t// in\n    tag_414:\n        /* \"#utility.yul\":19951:19984   */\n      swap2\n      pop\n        /* \"#utility.yul\":20006:20072   */\n      0xffffffffffffffffffffffffffffffffffffffffffffffffffffffffffffffff\n        /* \"#utility.yul\":19999:20004   */\n      dup3\n        /* \"#utility.yul\":19996:20073   */\n      sub\n        /* \"#utility.yul\":19993:20096   */\n      tag_415\n      jumpi\n        /* \"#utility.yul\":20076:20094   */\n      tag_416\n      tag_218\n      jump\t// in\n    tag_416:\n        /* \"#utility.yul\":19993:20096   */\n    tag_415:\n        /* \"#utility.yul\":20123:20124   */\n      0x01\n        /* \"#utility.yul\":20116:20121   */\n      dup3\n        /* \"#utility.yul\":20112:20125   */\n      add\n        /* \"#utility.yul\":20105:20125   */\n      swap1\n      pop\n        /* \"#utility.yul\":19898:20131   */\n      swap2\n      swap1\n      pop\n      jump\t// out\n        /* \"#utility.yul\":20137:20307   */\n    tag_219:\n        /* \"#utility.yul\":20277:20299   */\n      0x6d696e7420746f207a65726f2061646472657373000000000000000000000000\n        /* \"#utility.yul\":20273:20274   */\n      0x00\n        /* \"#utility.yul\":20265:20271   */\n      dup3\n        /* \"#utility.yul\":20261:20275   */\n      add\n        /* \"#utility.yul\":20254:20300   */\n      mstore\n        /* \"#utility.yul\":20137:20307   */\n      pop\n      jump\t// out\n        /* \"#utility.yul\":20313:20679   */\n    tag_220:\n        /* \"#utility.yul\":20455:20458   */\n      0x00\n        /* \"#utility.yul\":20476:20543   */\n      tag_419\n        /* \"#utility.yul\":20540:20542   */\n      0x14\n        /* \"#utility.yul\":20535:20538   */\n      dup4\n        /* \"#utility.yul\":20476:20543   */\n      tag_175\n      jump\t// in\n    tag_419:\n        /* \"#utility.yul\":20469:20543   */\n      swap2\n      pop\n        /* \"#utility.yul\":20552:20645   */\n      tag_420\n        /* \"#utility.yul\":20641:20644   */\n      dup3\n        /* \"#utility.yul\":20552:20645   */\n      tag_219\n      jump\t// in\n    tag_420:\n        /* \"#utility.yul\":20670:20672   */\n      0x20\n        /* \"#utility.yul\":20665:20668   */\n      dup3\n        /* \"#utility.yul\":20661:20673   */\n      add\n        /* \"#utility.yul\":20654:20673   */\n      swap1\n      pop\n        /* \"#utility.yul\":20313:20679   */\n      swap2\n      swap1\n      pop\n      jump\t// out\n        /* \"#utility.yul\":20685:21104   */\n    tag_161:\n        /* \"#utility.yul\":20851:20855   */\n      0x00\n        /* \"#utility.yul\":20889:20891   */\n      0x20\n        /* \"#utility.yul\":20878:20887   */\n      dup3\n        /* \"#utility.yul\":20874:20892   */\n      add\n        /* \"#utility.yul\":20866:20892   */\n      swap1\n      pop\n        /* \"#utility.yul\":20938:20947   */\n      dup2\n        /* \"#utility.yul\":20932:20936   */\n      dup2\n        /* \"#utility.yul\":20928:20948   */\n      sub\n        /* \"#utility.yul\":20924:20925   */\n      0x00\n        /* \"#utility.yul\":20913:20922   */\n      dup4\n        /* \"#utility.yul\":20909:20926   */\n      add\n        /* \"#utility.yul\":20902:20949   */\n      mstore\n        /* \"#utility.yul\":20966:21097   */\n      tag_422\n        /* \"#utility.yul\":21092:21096   */\n      dup2\n        /* \"#utility.yul\":20966:21097   */\n      tag_220\n      jump\t// in\n    tag_422:\n        /* \"#utility.yul\":20958:21097   */\n      swap1\n      pop\n        /* \"#utility.yul\":20685:21104   */\n      swap2\n      swap1\n      pop\n      jump\t// out\n        /* \"#utility.yul\":21110:21274   */\n    tag_221:\n        /* \"#utility.yul\":21250:21266   */\n      0x616c7265616479206d696e746564000000000000000000000000000000000000\n        /* \"#utility.yul\":21246:21247   */\n      0x00\n        /* \"#utility.yul\":21238:21244   */\n      dup3\n        /* \"#utility.yul\":21234:21248   */\n      add\n        /* \"#utility.yul\":21227:21267   */\n      mstore\n        /* \"#utility.yul\":21110:21274   */\n      pop\n      jump\t// out\n        /* \"#utility.yul\":21280:21646   */\n    tag_222:\n        /* \"#utility.yul\":21422:21425   */\n      0x00\n        /* \"#utility.yul\":21443:21510   */\n      tag_425\n        /* \"#utility.yul\":21507:21509   */\n      0x0e\n        /* \"#utility.yul\":21502:21505   */\n      dup4\n        /* \"#utility.yul\":21443:21510   */\n      tag_175\n      jump\t// in\n    tag_425:\n        /* \"#utility.yul\":21436:21510   */\n      swap2\n      pop\n        /* \"#utility.yul\":21519:21612   */\n      tag_426\n        /* \"#utility.yul\":21608:21611   */\n      dup3\n        /* \"#utility.yul\":21519:21612   */\n      tag_221\n      jump\t// in\n    tag_426:\n        /* \"#utility.yul\":21637:21639   */\n      0x20\n        /* \"#utility.yul\":21632:21635   */\n      dup3\n        /* \"#utility.yul\":21628:21640   */\n      add\n        /* \"#utility.yul\":21621:21640   */\n      swap1\n      pop\n        /* \"#utility.yul\":21280:21646   */\n      swap2\n      swap1\n      pop\n      jump\t// out\n        /* \"#utility.yul\":21652:22071   */\n    tag_164:\n        /* \"#utility.yul\":21818:21822   */\n      0x00\n        /* \"#utility.yul\":21856:21858   */\n      0x20\n        /* \"#utility.yul\":21845:21854   */\n      dup3\n        /* \"#utility.yul\":21841:21859   */\n      add\n        /* \"#utility.yul\":21833:21859   */\n      swap1\n      pop\n        /* \"#utility.yul\":21905:21914   */\n      dup2\n        /* \"#utility.yul\":21899:21903   */\n      dup2\n        /* \"#utility.yul\":21895:21915   */\n      sub\n        /* \"#utility.yul\":21891:21892   */\n      0x00\n        /* \"#utility.yul\":21880:21889   */\n      dup4\n        /* \"#utility.yul\":21876:21893   */\n      add\n        /* \"#utility.yul\":21869:21916   */\n      mstore\n        /* \"#utility.yul\":21933:22064   */\n      tag_428\n        /* \"#utility.yul\":22059:22063   */\n      dup2\n        /* \"#utility.yul\":21933:22064   */\n      tag_222\n      jump\t// in\n    tag_428:\n        /* \"#utility.yul\":21925:22064   */\n      swap1\n      pop\n        /* \"#utility.yul\":21652:22071   */\n      swap2\n      swap1\n      pop\n      jump\t// out\n\n    auxdata: 0xa2646970667358221220a645c0e6b974efca0e032cd02473dc81dd6d4c2fc30faf7c0a645fb90c818a4464736f6c63430008200033\n}\n",
				"bytecode": {
					"linkReferences": {},
					"object": "608060405234801561000f575f5ffd5b5060405161271d38038061271d83398181016040528101906100319190610422565b335f5f6101000a81548173ffffffffffffffffffffffffffffffffffffffff021916908373ffffffffffffffffffffffffffffffffffffffff160217905550816005908161007f91906106b9565b50806006908161008f91906106b9565b505f600190505b600581116100c1576100ae33826100c960201b60201c565b80806100b9906107b5565b915050610096565b5050506108dc565b5f73ffffffffffffffffffffffffffffffffffffffff168273ffffffffffffffffffffffffffffffffffffffff1603610137576040517f08c379a000000000000000000000000000000000000000000000000000000000815260040161012e90610856565b60405180910390fd5b5f73ffffffffffffffffffffffffffffffffffffffff1660015f8381526020019081526020015f205f9054906101000a900473ffffffffffffffffffffffffffffffffffffffff1673ffffffffffffffffffffffffffffffffffffffff16146101d5576040517f08c379a00000000000000000000000000000000000000000000000000000000081526004016101cc906108be565b60405180910390fd5b60025f8373ffffffffffffffffffffffffffffffffffffffff1673ffffffffffffffffffffffffffffffffffffffff1681526020019081526020015f205f815480929190610222906107b5565b91905055508160015f8381526020019081526020015f205f6101000a81548173ffffffffffffffffffffffffffffffffffffffff021916908373ffffffffffffffffffffffffffffffffffffffff160217905550808273ffffffffffffffffffffffffffffffffffffffff165f73ffffffffffffffffffffffffffffffffffffffff167fddf252ad1be2c89b69c2b068fc378daa952ba7f163c4a11628f55a4df523b3ef60405160405180910390a45050565b5f604051905090565b5f5ffd5b5f5ffd5b5f5ffd5b5f5ffd5b5f601f19601f8301169050919050565b7f4e487b71000000000000000000000000000000000000000000000000000000005f52604160045260245ffd5b610334826102ee565b810181811067ffffffffffffffff82111715610353576103526102fe565b5b80604052505050565b5f6103656102d5565b9050610371828261032b565b919050565b5f67ffffffffffffffff8211156103905761038f6102fe565b5b610399826102ee565b9050602081019050919050565b8281835e5f83830152505050565b5f6103c66103c184610376565b61035c565b9050828152602081018484840111156103e2576103e16102ea565b5b6103ed8482856103a6565b509392505050565b5f82601f830112610409576104086102e6565b5b81516104198482602086016103b4565b91505092915050565b5f5f60408385031215610438576104376102de565b5b5f83015167ffffffffffffffff811115610455576104546102e2565b5b610461858286016103f5565b925050602083015167ffffffffffffffff811115610482576104816102e2565b5b61048e858286016103f5565b9150509250929050565b5f81519050919050565b7f4e487b71000000000000000000000000000000000000000000000000000000005f52602260045260245ffd5b5f60028204905060018216806104e657607f821691505b6020821081036104f9576104f86104a2565b5b50919050565b5f819050815f5260205f209050919050565b5f6020601f8301049050919050565b5f82821b905092915050565b5f6008830261055b7fffffffffffffffffffffffffffffffffffffffffffffffffffffffffffffffff82610520565b6105658683610520565b95508019841693508086168417925050509392505050565b5f819050919050565b5f819050919050565b5f6105a96105a461059f8461057d565b610586565b61057d565b9050919050565b5f819050919050565b6105c28361058f565b6105d66105ce826105b0565b84845461052c565b825550505050565b5f5f905090565b6105ed6105de565b6105f88184846105b9565b505050565b5f5b8281101561061e576106135f8284016105e5565b6001810190506105ff565b505050565b601f82111561067157828211156106705761063d816104ff565b61064683610511565b61064f85610511565b602086101561065c575f90505b80830161066b828403826105fd565b505050505b5b505050565b5f82821c905092915050565b5f6106915f1984600802610676565b1980831691505092915050565b5f6106a98383610682565b9150826002028217905092915050565b6106c282610498565b67ffffffffffffffff8111156106db576106da6102fe565b5b6106e582546104cf565b6106f0828285610623565b5f60209050601f831160018114610721575f841561070f578287015190505b610719858261069e565b865550610780565b601f19841661072f866104ff565b5f5b8281101561075657848901518255600182019150602085019450602081019050610731565b86831015610773578489015161076f601f891682610682565b8355505b6001600288020188555050505b505050505050565b7f4e487b71000000000000000000000000000000000000000000000000000000005f52601160045260245ffd5b5f6107bf8261057d565b91507fffffffffffffffffffffffffffffffffffffffffffffffffffffffffffffffff82036107f1576107f0610788565b5b600182019050919050565b5f82825260208201905092915050565b7f6d696e7420746f207a65726f20616464726573730000000000000000000000005f82015250565b5f6108406014836107fc565b915061084b8261080c565b602082019050919050565b5f6020820190508181035f83015261086d81610834565b9050919050565b7f616c7265616479206d696e7465640000000000000000000000000000000000005f82015250565b5f6108a8600e836107fc565b91506108b382610874565b602082019050919050565b5f6020820190508181035f8301526108d58161089c565b9050919050565b611e34806108e95f395ff3fe6080604052600436106100dc575f3560e01c80634d853ee51161007e57806395d89b411161005857806395d89b41146102a0578063a22cb465146102ca578063b88d4fde146102f2578063e985e9c51461030e576100dc565b80634d853ee5146101fe5780636352211e1461022857806370a0823114610264576100dc565b8063095ea7b3116100ba578063095ea7b31461018257806323b872dd1461019e5780633c168eab146101ba57806342842e0e146101e2576100dc565b806301ffc9a7146100e057806306fdde031461011c578063081812fc14610146575b5f5ffd5b3480156100eb575f5ffd5b506101066004803603810190610101919061135c565b61034a565b60405161011391906113a1565b60405180910390f35b348015610127575f5ffd5b5061013061041b565b60405161013d919061142a565b60405180910390f35b348015610151575f5ffd5b5061016c6004803603810190610167919061147d565b6104a7565b60405161017991906114e7565b60405180910390f35b61019c6004803603810190610197919061152a565b61057e565b005b6101b860048036038101906101b39190611568565b61075b565b005b3480156101c5575f5ffd5b506101e060048036038101906101db919061152a565b61076b565b005b6101fc60048036038101906101f79190611568565b610807565b005b348015610209575f5ffd5b50610212610826565b60405161021f91906114e7565b60405180910390f35b348015610233575f5ffd5b5061024e6004803603810190610249919061147d565b61084a565b60405161025b91906114e7565b60405180910390f35b34801561026f575f5ffd5b5061028a600480360381019061028591906115b8565b6108f6565b60405161029791906115f2565b60405180910390f35b3480156102ab575f5ffd5b506102b46109aa565b6040516102c1919061142a565b60405180910390f35b3480156102d5575f5ffd5b506102f060048036038101906102eb9190611635565b610a36565b005b61030c6004803603810190610307919061179f565b610b2e565b005b348015610319575f5ffd5b50610334600480360381019061032f919061181f565b610c65565b60405161034191906113a1565b60405180910390f35b5f7f80ac58cd000000000000000000000000000000000000000000000000000000007bffffffffffffffffffffffffffffffffffffffffffffffffffffffff1916827bffffffffffffffffffffffffffffffffffffffffffffffffffffffff1916148061041457507f01ffc9a7000000000000000000000000000000000000000000000000000000007bffffffffffffffffffffffffffffffffffffffffffffffffffffffff1916827bffffffffffffffffffffffffffffffffffffffffffffffffffffffff1916145b9050919050565b600580546104289061188a565b80601f01602080910402602001604051908101604052809291908181526020018280546104549061188a565b801561049f5780601f106104765761010080835404028352916020019161049f565b820191905f5260205f20905b81548152906001019060200180831161048257829003601f168201915b505050505081565b5f5f73ffffffffffffffffffffffffffffffffffffffff1660015f8481526020019081526020015f205f9054906101000a900473ffffffffffffffffffffffffffffffffffffffff1673ffffffffffffffffffffffffffffffffffffffff1603610546576040517f08c379a000000000000000000000000000000000000000000000000000000000815260040161053d90611904565b60405180910390fd5b60035f8381526020019081526020015f205f9054906101000a900473ffffffffffffffffffffffffffffffffffffffff169050919050565b5f60015f8381526020019081526020015f205f9054906101000a900473ffffffffffffffffffffffffffffffffffffffff1690508073ffffffffffffffffffffffffffffffffffffffff163373ffffffffffffffffffffffffffffffffffffffff16148061066d575060045f8273ffffffffffffffffffffffffffffffffffffffff1673ffffffffffffffffffffffffffffffffffffffff1681526020019081526020015f205f3373ffffffffffffffffffffffffffffffffffffffff1673ffffffffffffffffffffffffffffffffffffffff1681526020019081526020015f205f9054906101000a900460ff165b6106ac576040517f08c379a00000000000000000000000000000000000000000000000000000000081526004016106a39061196c565b60405180910390fd5b8260035f8481526020019081526020015f205f6101000a81548173ffffffffffffffffffffffffffffffffffffffff021916908373ffffffffffffffffffffffffffffffffffffffff160217905550818373ffffffffffffffffffffffffffffffffffffffff168273ffffffffffffffffffffffffffffffffffffffff167f8c5be1e5ebec7d5bd14f71427d1e84f3dd0314c0f7b2291e5b200ac8c7c3b92560405160405180910390a4505050565b610766838383610cf3565b505050565b5f5f9054906101000a900473ffffffffffffffffffffffffffffffffffffffff1673ffffffffffffffffffffffffffffffffffffffff163373ffffffffffffffffffffffffffffffffffffffff16146107f9576040517f08c379a00000000000000000000000000000000000000000000000000000000081526004016107f0906119d4565b60405180910390fd5b61080382826110ea565b5050565b61082183838360405180602001604052805f815250610b2e565b505050565b5f5f9054906101000a900473ffffffffffffffffffffffffffffffffffffffff1681565b5f5f60015f8481526020019081526020015f205f9054906101000a900473ffffffffffffffffffffffffffffffffffffffff1690505f73ffffffffffffffffffffffffffffffffffffffff168173ffffffffffffffffffffffffffffffffffffffff16036108ed576040517f08c379a00000000000000000000000000000000000000000000000000000000081526004016108e490611904565b60405180910390fd5b80915050919050565b5f5f73ffffffffffffffffffffffffffffffffffffffff168273ffffffffffffffffffffffffffffffffffffffff1603610965576040517f08c379a000000000000000000000000000000000000000000000000000000000815260040161095c90611a62565b60405180910390fd5b60025f8373ffffffffffffffffffffffffffffffffffffffff1673ffffffffffffffffffffffffffffffffffffffff1681526020019081526020015f20549050919050565b600680546109b79061188a565b80601f01602080910402602001604051908101604052809291908181526020018280546109e39061188a565b8015610a2e5780601f10610a0557610100808354040283529160200191610a2e565b820191905f5260205f20905b815481529060010190602001808311610a1157829003601f168201915b505050505081565b8060045f3373ffffffffffffffffffffffffffffffffffffffff1673ffffffffffffffffffffffffffffffffffffffff1681526020019081526020015f205f8473ffffffffffffffffffffffffffffffffffffffff1673ffffffffffffffffffffffffffffffffffffffff1681526020019081526020015f205f6101000a81548160ff0219169083151502179055508173ffffffffffffffffffffffffffffffffffffffff163373ffffffffffffffffffffffffffffffffffffffff167f17307eab39ab6107e8899845ad3d59bd9653f200f220920489ca2b5937696c3183604051610b2291906113a1565b60405180910390a35050565b610b39848484610cf3565b5f8373ffffffffffffffffffffffffffffffffffffffff163b1480610c20575063150b7a0260e01b7bffffffffffffffffffffffffffffffffffffffffffffffffffffffff19168373ffffffffffffffffffffffffffffffffffffffff1663150b7a02338786866040518563ffffffff1660e01b8152600401610bbf9493929190611ad2565b6020604051808303815f875af1158015610bdb573d5f5f3e3d5ffd5b505050506040513d601f19601f82011682018060405250810190610bff9190611b30565b7bffffffffffffffffffffffffffffffffffffffffffffffffffffffff1916145b610c5f576040517f08c379a0000000000000000000000000000000000000000000000000000000008152600401610c5690611ba5565b60405180910390fd5b50505050565b5f60045f8473ffffffffffffffffffffffffffffffffffffffff1673ffffffffffffffffffffffffffffffffffffffff1681526020019081526020015f205f8373ffffffffffffffffffffffffffffffffffffffff1673ffffffffffffffffffffffffffffffffffffffff1681526020019081526020015f205f9054906101000a900460ff16905092915050565b5f60015f8381526020019081526020015f205f9054906101000a900473ffffffffffffffffffffffffffffffffffffffff1690508073ffffffffffffffffffffffffffffffffffffffff168473ffffffffffffffffffffffffffffffffffffffff1614610d95576040517f08c379a0000000000000000000000000000000000000000000000000000000008152600401610d8c90611c0d565b60405180910390fd5b5f73ffffffffffffffffffffffffffffffffffffffff168373ffffffffffffffffffffffffffffffffffffffff1603610e03576040517f08c379a0000000000000000000000000000000000000000000000000000000008152600401610dfa90611c75565b60405180910390fd5b8073ffffffffffffffffffffffffffffffffffffffff163373ffffffffffffffffffffffffffffffffffffffff161480610e98575060035f8381526020019081526020015f205f9054906101000a900473ffffffffffffffffffffffffffffffffffffffff1673ffffffffffffffffffffffffffffffffffffffff163373ffffffffffffffffffffffffffffffffffffffff16145b80610f24575060045f8273ffffffffffffffffffffffffffffffffffffffff1673ffffffffffffffffffffffffffffffffffffffff1681526020019081526020015f205f3373ffffffffffffffffffffffffffffffffffffffff1673ffffffffffffffffffffffffffffffffffffffff1681526020019081526020015f205f9054906101000a900460ff165b610f63576040517f08c379a0000000000000000000000000000000000000000000000000000000008152600401610f5a9061196c565b60405180910390fd5b60025f8573ffffffffffffffffffffffffffffffffffffffff1673ffffffffffffffffffffffffffffffffffffffff1681526020019081526020015f205f815480929190610fb090611cc0565b919050555060025f8473ffffffffffffffffffffffffffffffffffffffff1673ffffffffffffffffffffffffffffffffffffffff1681526020019081526020015f205f81548092919061100290611ce7565b91905055508260015f8481526020019081526020015f205f6101000a81548173ffffffffffffffffffffffffffffffffffffffff021916908373ffffffffffffffffffffffffffffffffffffffff16021790555060035f8381526020019081526020015f205f6101000a81549073ffffffffffffffffffffffffffffffffffffffff0219169055818373ffffffffffffffffffffffffffffffffffffffff168573ffffffffffffffffffffffffffffffffffffffff167fddf252ad1be2c89b69c2b068fc378daa952ba7f163c4a11628f55a4df523b3ef60405160405180910390a450505050565b5f73ffffffffffffffffffffffffffffffffffffffff168273ffffffffffffffffffffffffffffffffffffffff1603611158576040517f08c379a000000000000000000000000000000000000000000000000000000000815260040161114f90611d78565b60405180910390fd5b5f73ffffffffffffffffffffffffffffffffffffffff1660015f8381526020019081526020015f205f9054906101000a900473ffffffffffffffffffffffffffffffffffffffff1673ffffffffffffffffffffffffffffffffffffffff16146111f6576040517f08c379a00000000000000000000000000000000000000000000000000000000081526004016111ed90611de0565b60405180910390fd5b60025f8373ffffffffffffffffffffffffffffffffffffffff1673ffffffffffffffffffffffffffffffffffffffff1681526020019081526020015f205f81548092919061124390611ce7565b91905055508160015f8381526020019081526020015f205f6101000a81548173ffffffffffffffffffffffffffffffffffffffff021916908373ffffffffffffffffffffffffffffffffffffffff160217905550808273ffffffffffffffffffffffffffffffffffffffff165f73ffffffffffffffffffffffffffffffffffffffff167fddf252ad1be2c89b69c2b068fc378daa952ba7f163c4a11628f55a4df523b3ef60405160405180910390a45050565b5f604051905090565b5f5ffd5b5f5ffd5b5f7fffffffff0000000000000000000000000000000000000000000000000000000082169050919050565b61133b81611307565b8114611345575f5ffd5b50565b5f8135905061135681611332565b92915050565b5f60208284031215611371576113706112ff565b5b5f61137e84828501611348565b91505092915050565b5f8115159050919050565b61139b81611387565b82525050565b5f6020820190506113b45f830184611392565b92915050565b5f81519050919050565b5f82825260208201905092915050565b8281835e5f83830152505050565b5f601f19601f8301169050919050565b5f6113fc826113ba565b61140681856113c4565b93506114168185602086016113d4565b61141f816113e2565b840191505092915050565b5f6020820190508181035f83015261144281846113f2565b905092915050565b5f819050919050565b61145c8161144a565b8114611466575f5ffd5b50565b5f8135905061147781611453565b92915050565b5f60208284031215611492576114916112ff565b5b5f61149f84828501611469565b91505092915050565b5f73ffffffffffffffffffffffffffffffffffffffff82169050919050565b5f6114d1826114a8565b9050919050565b6114e1816114c7565b82525050565b5f6020820190506114fa5f8301846114d8565b92915050565b611509816114c7565b8114611513575f5ffd5b50565b5f8135905061152481611500565b92915050565b5f5f604083850312156115405761153f6112ff565b5b5f61154d85828601611516565b925050602061155e85828601611469565b9150509250929050565b5f5f5f6060848603121561157f5761157e6112ff565b5b5f61158c86828701611516565b935050602061159d86828701611516565b92505060406115ae86828701611469565b9150509250925092565b5f602082840312156115cd576115cc6112ff565b5b5f6115da84828501611516565b91505092915050565b6115ec8161144a565b82525050565b5f6020820190506116055f8301846115e3565b92915050565b61161481611387565b811461161e575f5ffd5b50565b5f8135905061162f8161160b565b92915050565b5f5f6040838503121561164b5761164a6112ff565b5b5f61165885828601611516565b925050602061166985828601611621565b9150509250929050565b5f5ffd5b5f5ffd5b7f4e487b71000000000000000000000000000000000000000000000000000000005f52604160045260245ffd5b6116b1826113e2565b810181811067ffffffffffffffff821117156116d0576116cf61167b565b5b80604052505050565b5f6116e26112f6565b90506116ee82826116a8565b919050565b5f67ffffffffffffffff82111561170d5761170c61167b565b5b611716826113e2565b9050602081019050919050565b828183375f83830152505050565b5f61174361173e846116f3565b6116d9565b90508281526020810184848401111561175f5761175e611677565b5b61176a848285611723565b509392505050565b5f82601f83011261178657611785611673565b5b8135611796848260208601611731565b91505092915050565b5f5f5f5f608085870312156117b7576117b66112ff565b5b5f6117c487828801611516565b94505060206117d587828801611516565b93505060406117e687828801611469565b925050606085013567ffffffffffffffff81111561180757611806611303565b5b61181387828801611772565b91505092959194509250565b5f5f60408385031215611835576118346112ff565b5b5f61184285828601611516565b925050602061185385828601611516565b9150509250929050565b7f4e487b71000000000000000000000000000000000000000000000000000000005f52602260045260245ffd5b5f60028204905060018216806118a157607f821691505b6020821081036118b4576118b361185d565b5b50919050565b7f746f6b656e20646f65736e2774206578697374000000000000000000000000005f82015250565b5f6118ee6013836113c4565b91506118f9826118ba565b602082019050919050565b5f6020820190508181035f83015261191b816118e2565b9050919050565b7f6e6f7420617574686f72697a65640000000000000000000000000000000000005f82015250565b5f611956600e836113c4565b915061196182611922565b602082019050919050565b5f6020820190508181035f8301526119838161194a565b9050919050565b7f6e6f7420616e20617574686f72697a6564206d696e74657200000000000000005f82015250565b5f6119be6018836113c4565b91506119c98261198a565b602082019050919050565b5f6020820190508181035f8301526119eb816119b2565b9050919050565b7f62616c616e636520717565727920666f7220746865207a65726f2061646472655f8201527f7373000000000000000000000000000000000000000000000000000000000000602082015250565b5f611a4c6022836113c4565b9150611a57826119f2565b604082019050919050565b5f6020820190508181035f830152611a7981611a40565b9050919050565b5f81519050919050565b5f82825260208201905092915050565b5f611aa482611a80565b611aae8185611a8a565b9350611abe8185602086016113d4565b611ac7816113e2565b840191505092915050565b5f608082019050611ae55f8301876114d8565b611af260208301866114d8565b611aff60408301856115e3565b8181036060830152611b118184611a9a565b905095945050505050565b5f81519050611b2a81611332565b92915050565b5f60208284031215611b4557611b446112ff565b5b5f611b5284828501611b1c565b91505092915050565b7f756e7361666520726563697069656e74000000000000000000000000000000005f82015250565b5f611b8f6010836113c4565b9150611b9a82611b5b565b602082019050919050565b5f6020820190508181035f830152611bbc81611b83565b9050919050565b7f66726f6d20213d206f776e6572000000000000000000000000000000000000005f82015250565b5f611bf7600d836113c4565b9150611c0282611bc3565b602082019050919050565b5f6020820190508181035f830152611c2481611beb565b9050919050565b7f7472616e7366657220746f207a65726f206164647265737300000000000000005f82015250565b5f611c5f6018836113c4565b9150611c6a82611c2b565b602082019050919050565b5f6020820190508181035f830152611c8c81611c53565b9050919050565b7f4e487b71000000000000000000000000000000000000000000000000000000005f52601160045260245ffd5b5f611cca8261144a565b91505f8203611cdc57611cdb611c93565b5b600182039050919050565b5f611cf18261144a565b91507fffffffffffffffffffffffffffffffffffffffffffffffffffffffffffffffff8203611d2357611d22611c93565b5b600182019050919050565b7f6d696e7420746f207a65726f20616464726573730000000000000000000000005f82015250565b5f611d626014836113c4565b9150611d6d82611d2e565b602082019050919050565b5f6020820190508181035f830152611d8f81611d56565b9050919050565b7f616c7265616479206d696e7465640000000000000000000000000000000000005f82015250565b5f611dca600e836113c4565b9150611dd582611d96565b602082019050919050565b5f6020820190508181035f830152611df781611dbe565b905091905056fea2646970667358221220a645c0e6b974efca0e032cd02473dc81dd6d4c2fc30faf7c0a645fb90c818a4464736f6c63430008200033",
					"opcodes": "PUSH1 0x80 PUSH1 0x40 MSTORE CALLVALUE DUP1 ISZERO PUSH2 0xF JUMPI PUSH0 PUSH0 REVERT JUMPDEST POP PUSH1 0x40 MLOAD PUSH2 0x271D CODESIZE SUB DUP1 PUSH2 0x271D DUP4 CODECOPY DUP2 DUP2 ADD PUSH1 0x40 MSTORE DUP2 ADD SWAP1 PUSH2 0x31 SWAP2 SWAP1 PUSH2 0x422 JUMP JUMPDEST CALLER PUSH0 PUSH0 PUSH2 0x100 EXP DUP2 SLOAD DUP2 PUSH20 0xFFFFFFFFFFFFFFFFFFFFFFFFFFFFFFFFFFFFFFFF MUL NOT AND SWAP1 DUP4 PUSH20 0xFFFFFFFFFFFFFFFFFFFFFFFFFFFFFFFFFFFFFFFF AND MUL OR SWAP1 SSTORE POP DUP2 PUSH1 0x5 SWAP1 DUP2 PUSH2 0x7F SWAP2 SWAP1 PUSH2 0x6B9 JUMP JUMPDEST POP DUP1 PUSH1 0x6 SWAP1 DUP2 PUSH2 0x8F SWAP2 SWAP1 PUSH2 0x6B9 JUMP JUMPDEST POP PUSH0 PUSH1 0x1 SWAP1 POP JUMPDEST PUSH1 0x5 DUP2 GT PUSH2 0xC1 JUMPI PUSH2 0xAE CALLER DUP3 PUSH2 0xC9 PUSH1 0x20 SHL PUSH1 0x20 SHR JUMP JUMPDEST DUP1 DUP1 PUSH2 0xB9 SWAP1 PUSH2 0x7B5 JUMP JUMPDEST SWAP2 POP POP PUSH2 0x96 JUMP JUMPDEST POP POP POP PUSH2 0x8DC JUMP JUMPDEST PUSH0 PUSH20 0xFFFFFFFFFFFFFFFFFFFFFFFFFFFFFFFFFFFFFFFF AND DUP3 PUSH20 0xFFFFFFFFFFFFFFFFFFFFFFFFFFFFFFFFFFFFFFFF AND SUB PUSH2 0x137 JUMPI PUSH1 0x40 MLOAD PUSH32 0x8C379A000000000000000000000000000000000000000000000000000000000 DUP2 MSTORE PUSH1 0x4 ADD PUSH2 0x12E SWAP1 PUSH2 0x856 JUMP JUMPDEST PUSH1 0x40 MLOAD DUP1 SWAP2 SUB SWAP1 REVERT JUMPDEST PUSH0 PUSH20 0xFFFFFFFFFFFFFFFFFFFFFFFFFFFFFFFFFFFFFFFF AND PUSH1 0x1 PUSH0 DUP4 DUP2 MSTORE PUSH1 0x20 ADD SWAP1 DUP2 MSTORE PUSH1 0x20 ADD PUSH0 KECCAK256 PUSH0 SWAP1 SLOAD SWAP1 PUSH2 0x100 EXP SWAP1 DIV PUSH20 0xFFFFFFFFFFFFFFFFFFFFFFFFFFFFFFFFFFFFFFFF AND PUSH20 0xFFFFFFFFFFFFFFFFFFFFFFFFFFFFFFFFFFFFFFFF AND EQ PUSH2 0x1D5 JUMPI PUSH1 0x40 MLOAD PUSH32 0x8C379A000000000000000000000000000000000000000000000000000000000 DUP2 MSTORE PUSH1 0x4 ADD PUSH2 0x1CC SWAP1 PUSH2 0x8BE JUMP JUMPDEST PUSH1 0x40 MLOAD DUP1 SWAP2 SUB SWAP1 REVERT JUMPDEST PUSH1 0x2 PUSH0 DUP4 PUSH20 0xFFFFFFFFFFFFFFFFFFFFFFFFFFFFFFFFFFFFFFFF AND PUSH20 0xFFFFFFFFFFFFFFFFFFFFFFFFFFFFFFFFFFFFFFFF AND DUP2 MSTORE PUSH1 0x20 ADD SWAP1 DUP2 MSTORE PUSH1 0x20 ADD PUSH0 KECCAK256 PUSH0 DUP2 SLOAD DUP1 SWAP3 SWAP2 SWAP1 PUSH2 0x222 SWAP1 PUSH2 0x7B5 JUMP JUMPDEST SWAP2 SWAP1 POP SSTORE POP DUP2 PUSH1 0x1 PUSH0 DUP4 DUP2 MSTORE PUSH1 0x20 ADD SWAP1 DUP2 MSTORE PUSH1 0x20 ADD PUSH0 KECCAK256 PUSH0 PUSH2 0x100 EXP DUP2 SLOAD DUP2 PUSH20 0xFFFFFFFFFFFFFFFFFFFFFFFFFFFFFFFFFFFFFFFF MUL NOT AND SWAP1 DUP4 PUSH20 0xFFFFFFFFFFFFFFFFFFFFFFFFFFFFFFFFFFFFFFFF AND MUL OR SWAP1 SSTORE POP DUP1 DUP3 PUSH20 0xFFFFFFFFFFFFFFFFFFFFFFFFFFFFFFFFFFFFFFFF AND PUSH0 PUSH20 0xFFFFFFFFFFFFFFFFFFFFFFFFFFFFFFFFFFFFFFFF AND PUSH32 0xDDF252AD1BE2C89B69C2B068FC378DAA952BA7F163C4A11628F55A4DF523B3EF PUSH1 0x40 MLOAD PUSH1 0x40 MLOAD DUP1 SWAP2 SUB SWAP1 LOG4 POP POP JUMP JUMPDEST PUSH0 PUSH1 0x40 MLOAD SWAP1 POP SWAP1 JUMP JUMPDEST PUSH0 PUSH0 REVERT JUMPDEST PUSH0 PUSH0 REVERT JUMPDEST PUSH0 PUSH0 REVERT JUMPDEST PUSH0 PUSH0 REVERT JUMPDEST PUSH0 PUSH1 0x1F NOT PUSH1 0x1F DUP4 ADD AND SWAP1 POP SWAP2 SWAP1 POP JUMP JUMPDEST PUSH32 0x4E487B7100000000000000000000000000000000000000000000000000000000 PUSH0 MSTORE PUSH1 0x41 PUSH1 0x4 MSTORE PUSH1 0x24 PUSH0 REVERT JUMPDEST PUSH2 0x334 DUP3 PUSH2 0x2EE JUMP JUMPDEST DUP2 ADD DUP2 DUP2 LT PUSH8 0xFFFFFFFFFFFFFFFF DUP3 GT OR ISZERO PUSH2 0x353 JUMPI PUSH2 0x352 PUSH2 0x2FE JUMP JUMPDEST JUMPDEST DUP1 PUSH1 0x40 MSTORE POP POP POP JUMP JUMPDEST PUSH0 PUSH2 0x365 PUSH2 0x2D5 JUMP JUMPDEST SWAP1 POP PUSH2 0x371 DUP3 DUP3 PUSH2 0x32B JUMP JUMPDEST SWAP2 SWAP1 POP JUMP JUMPDEST PUSH0 PUSH8 0xFFFFFFFFFFFFFFFF DUP3 GT ISZERO PUSH2 0x390 JUMPI PUSH2 0x38F PUSH2 0x2FE JUMP JUMPDEST JUMPDEST PUSH2 0x399 DUP3 PUSH2 0x2EE JUMP JUMPDEST SWAP1 POP PUSH1 0x20 DUP2 ADD SWAP1 POP SWAP2 SWAP1 POP JUMP JUMPDEST DUP3 DUP2 DUP4 MCOPY PUSH0 DUP4 DUP4 ADD MSTORE POP POP POP JUMP JUMPDEST PUSH0 PUSH2 0x3C6 PUSH2 0x3C1 DUP5 PUSH2 0x376 JUMP JUMPDEST PUSH2 0x35C JUMP JUMPDEST SWAP1 POP DUP3 DUP2 MSTORE PUSH1 0x20 DUP2 ADD DUP5 DUP5 DUP5 ADD GT ISZERO PUSH2 0x3E2 JUMPI PUSH2 0x3E1 PUSH2 0x2EA JUMP JUMPDEST JUMPDEST PUSH2 0x3ED DUP5 DUP3 DUP6 PUSH2 0x3A6 JUMP JUMPDEST POP SWAP4 SWAP3 POP POP POP JUMP JUMPDEST PUSH0 DUP3 PUSH1 0x1F DUP4 ADD SLT PUSH2 0x409 JUMPI PUSH2 0x408 PUSH2 0x2E6 JUMP JUMPDEST JUMPDEST DUP2 MLOAD PUSH2 0x419 DUP5 DUP3 PUSH1 0x20 DUP7 ADD PUSH2 0x3B4 JUMP JUMPDEST SWAP2 POP POP SWAP3 SWAP2 POP POP JUMP JUMPDEST PUSH0 PUSH0 PUSH1 0x40 DUP4 DUP6 SUB SLT ISZERO PUSH2 0x438 JUMPI PUSH2 0x437 PUSH2 0x2DE JUMP JUMPDEST JUMPDEST PUSH0 DUP4 ADD MLOAD PUSH8 0xFFFFFFFFFFFFFFFF DUP2 GT ISZERO PUSH2 0x455 JUMPI PUSH2 0x454 PUSH2 0x2E2 JUMP JUMPDEST JUMPDEST PUSH2 0x461 DUP6 DUP3 DUP7 ADD PUSH2 0x3F5 JUMP JUMPDEST SWAP3 POP POP PUSH1 0x20 DUP4 ADD MLOAD PUSH8 0xFFFFFFFFFFFFFFFF DUP2 GT ISZERO PUSH2 0x482 JUMPI PUSH2 0x481 PUSH2 0x2E2 JUMP JUMPDEST JUMPDEST PUSH2 0x48E DUP6 DUP3 DUP7 ADD PUSH2 0x3F5 JUMP JUMPDEST SWAP2 POP POP SWAP3 POP SWAP3 SWAP1 POP JUMP JUMPDEST PUSH0 DUP2 MLOAD SWAP1 POP SWAP2 SWAP1 POP JUMP JUMPDEST PUSH32 0x4E487B7100000000000000000000000000000000000000000000000000000000 PUSH0 MSTORE PUSH1 0x22 PUSH1 0x4 MSTORE PUSH1 0x24 PUSH0 REVERT JUMPDEST PUSH0 PUSH1 0x2 DUP3 DIV SWAP1 POP PUSH1 0x1 DUP3 AND DUP1 PUSH2 0x4E6 JUMPI PUSH1 0x7F DUP3 AND SWAP2 POP JUMPDEST PUSH1 0x20 DUP3 LT DUP2 SUB PUSH2 0x4F9 JUMPI PUSH2 0x4F8 PUSH2 0x4A2 JUMP JUMPDEST JUMPDEST POP SWAP2 SWAP1 POP JUMP JUMPDEST PUSH0 DUP2 SWAP1 POP DUP2 PUSH0 MSTORE PUSH1 0x20 PUSH0 KECCAK256 SWAP1 POP SWAP2 SWAP1 POP JUMP JUMPDEST PUSH0 PUSH1 0x20 PUSH1 0x1F DUP4 ADD DIV SWAP1 POP SWAP2 SWAP1 POP JUMP JUMPDEST PUSH0 DUP3 DUP3 SHL SWAP1 POP SWAP3 SWAP2 POP POP JUMP JUMPDEST PUSH0 PUSH1 0x8 DUP4 MUL PUSH2 0x55B PUSH32 0xFFFFFFFFFFFFFFFFFFFFFFFFFFFFFFFFFFFFFFFFFFFFFFFFFFFFFFFFFFFFFFFF DUP3 PUSH2 0x520 JUMP JUMPDEST PUSH2 0x565 DUP7 DUP4 PUSH2 0x520 JUMP JUMPDEST SWAP6 POP DUP1 NOT DUP5 AND SWAP4 POP DUP1 DUP7 AND DUP5 OR SWAP3 POP POP POP SWAP4 SWAP3 POP POP POP JUMP JUMPDEST PUSH0 DUP2 SWAP1 POP SWAP2 SWAP1 POP JUMP JUMPDEST PUSH0 DUP2 SWAP1 POP SWAP2 SWAP1 POP JUMP JUMPDEST PUSH0 PUSH2 0x5A9 PUSH2 0x5A4 PUSH2 0x59F DUP5 PUSH2 0x57D JUMP JUMPDEST PUSH2 0x586 JUMP JUMPDEST PUSH2 0x57D JUMP JUMPDEST SWAP1 POP SWAP2 SWAP1 POP JUMP JUMPDEST PUSH0 DUP2 SWAP1 POP SWAP2 SWAP1 POP JUMP JUMPDEST PUSH2 0x5C2 DUP4 PUSH2 0x58F JUMP JUMPDEST PUSH2 0x5D6 PUSH2 0x5CE DUP3 PUSH2 0x5B0 JUMP JUMPDEST DUP5 DUP5 SLOAD PUSH2 0x52C JUMP JUMPDEST DUP3 SSTORE POP POP POP POP JUMP JUMPDEST PUSH0 PUSH0 SWAP1 POP SWAP1 JUMP JUMPDEST PUSH2 0x5ED PUSH2 0x5DE JUMP JUMPDEST PUSH2 0x5F8 DUP2 DUP5 DUP5 PUSH2 0x5B9 JUMP JUMPDEST POP POP POP JUMP JUMPDEST PUSH0 JUMPDEST DUP3 DUP2 LT ISZERO PUSH2 0x61E JUMPI PUSH2 0x613 PUSH0 DUP3 DUP5 ADD PUSH2 0x5E5 JUMP JUMPDEST PUSH1 0x1 DUP2 ADD SWAP1 POP PUSH2 0x5FF JUMP JUMPDEST POP POP POP JUMP JUMPDEST PUSH1 0x1F DUP3 GT ISZERO PUSH2 0x671 JUMPI DUP3 DUP3 GT ISZERO PUSH2 0x670 JUMPI PUSH2 0x63D DUP2 PUSH2 0x4FF JUMP JUMPDEST PUSH2 0x646 DUP4 PUSH2 0x511 JUMP JUMPDEST PUSH2 0x64F DUP6 PUSH2 0x511 JUMP JUMPDEST PUSH1 0x20 DUP7 LT ISZERO PUSH2 0x65C JUMPI PUSH0 SWAP1 POP JUMPDEST DUP1 DUP4 ADD PUSH2 0x66B DUP3 DUP5 SUB DUP3 PUSH2 0x5FD JUMP JUMPDEST POP POP POP POP JUMPDEST JUMPDEST POP POP POP JUMP JUMPDEST PUSH0 DUP3 DUP3 SHR SWAP1 POP SWAP3 SWAP2 POP POP JUMP JUMPDEST PUSH0 PUSH2 0x691 PUSH0 NOT DUP5 PUSH1 0x8 MUL PUSH2 0x676 JUMP JUMPDEST NOT DUP1 DUP4 AND SWAP2 POP POP SWAP3 SWAP2 POP POP JUMP JUMPDEST PUSH0 PUSH2 0x6A9 DUP4 DUP4 PUSH2 0x682 JUMP JUMPDEST SWAP2 POP DUP3 PUSH1 0x2 MUL DUP3 OR SWAP1 POP SWAP3 SWAP2 POP POP JUMP JUMPDEST PUSH2 0x6C2 DUP3 PUSH2 0x498 JUMP JUMPDEST PUSH8 0xFFFFFFFFFFFFFFFF DUP2 GT ISZERO PUSH2 0x6DB JUMPI PUSH2 0x6DA PUSH2 0x2FE JUMP JUMPDEST JUMPDEST PUSH2 0x6E5 DUP3 SLOAD PUSH2 0x4CF JUMP JUMPDEST PUSH2 0x6F0 DUP3 DUP3 DUP6 PUSH2 0x623 JUMP JUMPDEST PUSH0 PUSH1 0x20 SWAP1 POP PUSH1 0x1F DUP4 GT PUSH1 0x1 DUP2 EQ PUSH2 0x721 JUMPI PUSH0 DUP5 ISZERO PUSH2 0x70F JUMPI DUP3 DUP8 ADD MLOAD SWAP1 POP JUMPDEST PUSH2 0x719 DUP6 DUP3 PUSH2 0x69E JUMP JUMPDEST DUP7 SSTORE POP PUSH2 0x780 JUMP JUMPDEST PUSH1 0x1F NOT DUP5 AND PUSH2 0x72F DUP7 PUSH2 0x4FF JUMP JUMPDEST PUSH0 JUMPDEST DUP3 DUP2 LT ISZERO PUSH2 0x756 JUMPI DUP5 DUP10 ADD MLOAD DUP3 SSTORE PUSH1 0x1 DUP3 ADD SWAP2 POP PUSH1 0x20 DUP6 ADD SWAP5 POP PUSH1 0x20 DUP2 ADD SWAP1 POP PUSH2 0x731 JUMP JUMPDEST DUP7 DUP4 LT ISZERO PUSH2 0x773 JUMPI DUP5 DUP10 ADD MLOAD PUSH2 0x76F PUSH1 0x1F DUP10 AND DUP3 PUSH2 0x682 JUMP JUMPDEST DUP4 SSTORE POP JUMPDEST PUSH1 0x1 PUSH1 0x2 DUP9 MUL ADD DUP9 SSTORE POP POP POP JUMPDEST POP POP POP POP POP POP JUMP JUMPDEST PUSH32 0x4E487B7100000000000000000000000000000000000000000000000000000000 PUSH0 MSTORE PUSH1 0x11 PUSH1 0x4 MSTORE PUSH1 0x24 PUSH0 REVERT JUMPDEST PUSH0 PUSH2 0x7BF DUP3 PUSH2 0x57D JUMP JUMPDEST SWAP2 POP PUSH32 0xFFFFFFFFFFFFFFFFFFFFFFFFFFFFFFFFFFFFFFFFFFFFFFFFFFFFFFFFFFFFFFFF DUP3 SUB PUSH2 0x7F1 JUMPI PUSH2 0x7F0 PUSH2 0x788 JUMP JUMPDEST JUMPDEST PUSH1 0x1 DUP3 ADD SWAP1 POP SWAP2 SWAP1 POP JUMP JUMPDEST PUSH0 DUP3 DUP3 MSTORE PUSH1 0x20 DUP3 ADD SWAP1 POP SWAP3 SWAP2 POP POP JUMP JUMPDEST PUSH32 0x6D696E7420746F207A65726F2061646472657373000000000000000000000000 PUSH0 DUP3 ADD MSTORE POP JUMP JUMPDEST PUSH0 PUSH2 0x840 PUSH1 0x14 DUP4 PUSH2 0x7FC JUMP JUMPDEST SWAP2 POP PUSH2 0x84B DUP3 PUSH2 0x80C JUMP JUMPDEST PUSH1 0x20 DUP3 ADD SWAP1 POP SWAP2 SWAP1 POP JUMP JUMPDEST PUSH0 PUSH1 0x20 DUP3 ADD SWAP1 POP DUP2 DUP2 SUB PUSH0 DUP4 ADD MSTORE PUSH2 0x86D DUP2 PUSH2 0x834 JUMP JUMPDEST SWAP1 POP SWAP2 SWAP1 POP JUMP JUMPDEST PUSH32 0x616C7265616479206D696E746564000000000000000000000000000000000000 PUSH0 DUP3 ADD MSTORE POP JUMP JUMPDEST PUSH0 PUSH2 0x8A8 PUSH1 0xE DUP4 PUSH2 0x7FC JUMP JUMPDEST SWAP2 POP PUSH2 0x8B3 DUP3 PUSH2 0x874 JUMP JUMPDEST PUSH1 0x20 DUP3 ADD SWAP1 POP SWAP2 SWAP1 POP JUMP JUMPDEST PUSH0 PUSH1 0x20 DUP3 ADD SWAP1 POP DUP2 DUP2 SUB PUSH0 DUP4 ADD MSTORE PUSH2 0x8D5 DUP2 PUSH2 0x89C JUMP JUMPDEST SWAP1 POP SWAP2 SWAP1 POP JUMP JUMPDEST PUSH2 0x1E34 DUP1 PUSH2 0x8E9 PUSH0 CODECOPY PUSH0 RETURN INVALID PUSH1 0x80 PUSH1 0x40 MSTORE PUSH1 0x4 CALLDATASIZE LT PUSH2 0xDC JUMPI PUSH0 CALLDATALOAD PUSH1 0xE0 SHR DUP1 PUSH4 0x4D853EE5 GT PUSH2 0x7E JUMPI DUP1 PUSH4 0x95D89B41 GT PUSH2 0x58 JUMPI DUP1 PUSH4 0x95D89B41 EQ PUSH2 0x2A0 JUMPI DUP1 PUSH4 0xA22CB465 EQ PUSH2 0x2CA JUMPI DUP1 PUSH4 0xB88D4FDE EQ PUSH2 0x2F2 JUMPI DUP1 PUSH4 0xE985E9C5 EQ PUSH2 0x30E JUMPI PUSH2 0xDC JUMP JUMPDEST DUP1 PUSH4 0x4D853EE5 EQ PUSH2 0x1FE JUMPI DUP1 PUSH4 0x6352211E EQ PUSH2 0x228 JUMPI DUP1 PUSH4 0x70A08231 EQ PUSH2 0x264 JUMPI PUSH2 0xDC JUMP JUMPDEST DUP1 PUSH4 0x95EA7B3 GT PUSH2 0xBA JUMPI DUP1 PUSH4 0x95EA7B3 EQ PUSH2 0x182 JUMPI DUP1 PUSH4 0x23B872DD EQ PUSH2 0x19E JUMPI DUP1 PUSH4 0x3C168EAB EQ PUSH2 0x1BA JUMPI DUP1 PUSH4 0x42842E0E EQ PUSH2 0x1E2 JUMPI PUSH2 0xDC JUMP JUMPDEST DUP1 PUSH4 0x1FFC9A7 EQ PUSH2 0xE0 JUMPI DUP1 PUSH4 0x6FDDE03 EQ PUSH2 0x11C JUMPI DUP1 PUSH4 0x81812FC EQ PUSH2 0x146 JUMPI JUMPDEST PUSH0 PUSH0 REVERT JUMPDEST CALLVALUE DUP1 ISZERO PUSH2 0xEB JUMPI PUSH0 PUSH0 REVERT JUMPDEST POP PUSH2 0x106 PUSH1 0x4 DUP1 CALLDATASIZE SUB DUP2 ADD SWAP1 PUSH2 0x101 SWAP2 SWAP1 PUSH2 0x135C JUMP JUMPDEST PUSH2 0x34A JUMP JUMPDEST PUSH1 0x40 MLOAD PUSH2 0x113 SWAP2 SWAP1 PUSH2 0x13A1 JUMP JUMPDEST PUSH1 0x40 MLOAD DUP1 SWAP2 SUB SWAP1 RETURN JUMPDEST CALLVALUE DUP1 ISZERO PUSH2 0x127 JUMPI PUSH0 PUSH0 REVERT JUMPDEST POP PUSH2 0x130 PUSH2 0x41B JUMP JUMPDEST PUSH1 0x40 MLOAD PUSH2 0x13D SWAP2 SWAP1 PUSH2 0x142A JUMP JUMPDEST PUSH1 0x40 MLOAD DUP1 SWAP2 SUB SWAP1 RETURN JUMPDEST CALLVALUE DUP1 ISZERO PUSH2 0x151 JUMPI PUSH0 PUSH0 REVERT JUMPDEST POP PUSH2 0x16C PUSH1 0x4 DUP1 CALLDATASIZE SUB DUP2 ADD SWAP1 PUSH2 0x167 SWAP2 SWAP1 PUSH2 0x147D JUMP JUMPDEST PUSH2 0x4A7 JUMP JUMPDEST PUSH1 0x40 MLOAD PUSH2 0x179 SWAP2 SWAP1 PUSH2 0x14E7 JUMP JUMPDEST PUSH1 0x40 MLOAD DUP1 SWAP2 SUB SWAP1 RETURN JUMPDEST PUSH2 0x19C PUSH1 0x4 DUP1 CALLDATASIZE SUB DUP2 ADD SWAP1 PUSH2 0x197 SWAP2 SWAP1 PUSH2 0x152A JUMP JUMPDEST PUSH2 0x57E JUMP JUMPDEST STOP JUMPDEST PUSH2 0x1B8 PUSH1 0x4 DUP1 CALLDATASIZE SUB DUP2 ADD SWAP1 PUSH2 0x1B3 SWAP2 SWAP1 PUSH2 0x1568 JUMP JUMPDEST PUSH2 0x75B JUMP JUMPDEST STOP JUMPDEST CALLVALUE DUP1 ISZERO PUSH2 0x1C5 JUMPI PUSH0 PUSH0 REVERT JUMPDEST POP PUSH2 0x1E0 PUSH1 0x4 DUP1 CALLDATASIZE SUB DUP2 ADD SWAP1 PUSH2 0x1DB SWAP2 SWAP1 PUSH2 0x152A JUMP JUMPDEST PUSH2 0x76B JUMP JUMPDEST STOP JUMPDEST PUSH2 0x1FC PUSH1 0x4 DUP1 CALLDATASIZE SUB DUP2 ADD SWAP1 PUSH2 0x1F7 SWAP2 SWAP1 PUSH2 0x1568 JUMP JUMPDEST PUSH2 0x807 JUMP JUMPDEST STOP JUMPDEST CALLVALUE DUP1 ISZERO PUSH2 0x209 JUMPI PUSH0 PUSH0 REVERT JUMPDEST POP PUSH2 0x212 PUSH2 0x826 JUMP JUMPDEST PUSH1 0x40 MLOAD PUSH2 0x21F SWAP2 SWAP1 PUSH2 0x14E7 JUMP JUMPDEST PUSH1 0x40 MLOAD DUP1 SWAP2 SUB SWAP1 RETURN JUMPDEST CALLVALUE DUP1 ISZERO PUSH2 0x233 JUMPI PUSH0 PUSH0 REVERT JUMPDEST POP PUSH2 0x24E PUSH1 0x4 DUP1 CALLDATASIZE SUB DUP2 ADD SWAP1 PUSH2 0x249 SWAP2 SWAP1 PUSH2 0x147D JUMP JUMPDEST PUSH2 0x84A JUMP JUMPDEST PUSH1 0x40 MLOAD PUSH2 0x25B SWAP2 SWAP1 PUSH2 0x14E7 JUMP JUMPDEST PUSH1 0x40 MLOAD DUP1 SWAP2 SUB SWAP1 RETURN JUMPDEST CALLVALUE DUP1 ISZERO PUSH2 0x26F JUMPI PUSH0 PUSH0 REVERT JUMPDEST POP PUSH2 0x28A PUSH1 0x4 DUP1 CALLDATASIZE SUB DUP2 ADD SWAP1 PUSH2 0x285 SWAP2 SWAP1 PUSH2 0x15B8 JUMP JUMPDEST PUSH2 0x8F6 JUMP JUMPDEST PUSH1 0x40 MLOAD PUSH2 0x297 SWAP2 SWAP1 PUSH2 0x15F2 JUMP JUMPDEST PUSH1 0x40 MLOAD DUP1 SWAP2 SUB SWAP1 RETURN JUMPDEST CALLVALUE DUP1 ISZERO PUSH2 0x2AB JUMPI PUSH0 PUSH0 REVERT JUMPDEST POP PUSH2 0x2B4 PUSH2 0x9AA JUMP JUMPDEST PUSH1 0x40 MLOAD PUSH2 0x2C1 SWAP2 SWAP1 PUSH2 0x142A JUMP JUMPDEST PUSH1 0x40 MLOAD DUP1 SWAP2 SUB SWAP1 RETURN JUMPDEST CALLVALUE DUP1 ISZERO PUSH2 0x2D5 JUMPI PUSH0 PUSH0 REVERT JUMPDEST POP PUSH2 0x2F0 PUSH1 0x4 DUP1 CALLDATASIZE SUB DUP2 ADD SWAP1 PUSH2 0x2EB SWAP2 SWAP1 PUSH2 0x1635 JUMP JUMPDEST PUSH2 0xA36 JUMP JUMPDEST STOP JUMPDEST PUSH2 0x30C PUSH1 0x4 DUP1 CALLDATASIZE SUB DUP2 ADD SWAP1 PUSH2 0x307 SWAP2 SWAP1 PUSH2 0x179F JUMP JUMPDEST PUSH2 0xB2E JUMP JUMPDEST STOP JUMPDEST CALLVALUE DUP1 ISZERO PUSH2 0x319 JUMPI PUSH0 PUSH0 REVERT JUMPDEST POP PUSH2 0x334 PUSH1 0x4 DUP1 CALLDATASIZE SUB DUP2 ADD SWAP1 PUSH2 0x32F SWAP2 SWAP1 PUSH2 0x181F JUMP JUMPDEST PUSH2 0xC65 JUMP JUMPDEST PUSH1 0x40 MLOAD PUSH2 0x341 SWAP2 SWAP1 PUSH2 0x13A1 JUMP JUMPDEST PUSH1 0x40 MLOAD DUP1 SWAP2 SUB SWAP1 RETURN JUMPDEST PUSH0 PUSH32 0x80AC58CD00000000000000000000000000000000000000000000000000000000 PUSH28 0xFFFFFFFFFFFFFFFFFFFFFFFFFFFFFFFFFFFFFFFFFFFFFFFFFFFFFFFF NOT AND DUP3 PUSH28 0xFFFFFFFFFFFFFFFFFFFFFFFFFFFFFFFFFFFFFFFFFFFFFFFFFFFFFFFF NOT AND EQ DUP1 PUSH2 0x414 JUMPI POP PUSH32 0x1FFC9A700000000000000000000000000000000000000000000000000000000 PUSH28 0xFFFFFFFFFFFFFFFFFFFFFFFFFFFFFFFFFFFFFFFFFFFFFFFFFFFFFFFF NOT AND DUP3 PUSH28 0xFFFFFFFFFFFFFFFFFFFFFFFFFFFFFFFFFFFFFFFFFFFFFFFFFFFFFFFF NOT AND EQ JUMPDEST SWAP1 POP SWAP2 SWAP1 POP JUMP JUMPDEST PUSH1 0x5 DUP1 SLOAD PUSH2 0x428 SWAP1 PUSH2 0x188A JUMP JUMPDEST DUP1 PUSH1 0x1F ADD PUSH1 0x20 DUP1 SWAP2 DIV MUL PUSH1 0x20 ADD PUSH1 0x40 MLOAD SWAP1 DUP2 ADD PUSH1 0x40 MSTORE DUP1 SWAP3 SWAP2 SWAP1 DUP2 DUP2 MSTORE PUSH1 0x20 ADD DUP3 DUP1 SLOAD PUSH2 0x454 SWAP1 PUSH2 0x188A JUMP JUMPDEST DUP1 ISZERO PUSH2 0x49F JUMPI DUP1 PUSH1 0x1F LT PUSH2 0x476 JUMPI PUSH2 0x100 DUP1 DUP4 SLOAD DIV MUL DUP4 MSTORE SWAP2 PUSH1 0x20 ADD SWAP2 PUSH2 0x49F JUMP JUMPDEST DUP3 ADD SWAP2 SWAP1 PUSH0 MSTORE PUSH1 0x20 PUSH0 KECCAK256 SWAP1 JUMPDEST DUP2 SLOAD DUP2 MSTORE SWAP1 PUSH1 0x1 ADD SWAP1 PUSH1 0x20 ADD DUP1 DUP4 GT PUSH2 0x482 JUMPI DUP3 SWAP1 SUB PUSH1 0x1F AND DUP3 ADD SWAP2 JUMPDEST POP POP POP POP POP DUP2 JUMP JUMPDEST PUSH0 PUSH0 PUSH20 0xFFFFFFFFFFFFFFFFFFFFFFFFFFFFFFFFFFFFFFFF AND PUSH1 0x1 PUSH0 DUP5 DUP2 MSTORE PUSH1 0x20 ADD SWAP1 DUP2 MSTORE PUSH1 0x20 ADD PUSH0 KECCAK256 PUSH0 SWAP1 SLOAD SWAP1 PUSH2 0x100 EXP SWAP1 DIV PUSH20 0xFFFFFFFFFFFFFFFFFFFFFFFFFFFFFFFFFFFFFFFF AND PUSH20 0xFFFFFFFFFFFFFFFFFFFFFFFFFFFFFFFFFFFFFFFF AND SUB PUSH2 0x546 JUMPI PUSH1 0x40 MLOAD PUSH32 0x8C379A000000000000000000000000000000000000000000000000000000000 DUP2 MSTORE PUSH1 0x4 ADD PUSH2 0x53D SWAP1 PUSH2 0x1904 JUMP JUMPDEST PUSH1 0x40 MLOAD DUP1 SWAP2 SUB SWAP1 REVERT JUMPDEST PUSH1 0x3 PUSH0 DUP4 DUP2 MSTORE PUSH1 0x20 ADD SWAP1 DUP2 MSTORE PUSH1 0x20 ADD PUSH0 KECCAK256 PUSH0 SWAP1 SLOAD SWAP1 PUSH2 0x100 EXP SWAP1 DIV PUSH20 0xFFFFFFFFFFFFFFFFFFFFFFFFFFFFFFFFFFFFFFFF AND SWAP1 POP SWAP2 SWAP1 POP JUMP JUMPDEST PUSH0 PUSH1 0x1 PUSH0 DUP4 DUP2 MSTORE PUSH1 0x20 ADD SWAP1 DUP2 MSTORE PUSH1 0x20 ADD PUSH0 KECCAK256 PUSH0 SWAP1 SLOAD SWAP1 PUSH2 0x100 EXP SWAP1 DIV PUSH20 0xFFFFFFFFFFFFFFFFFFFFFFFFFFFFFFFFFFFFFFFF AND SWAP1 POP DUP1 PUSH20 0xFFFFFFFFFFFFFFFFFFFFFFFFFFFFFFFFFFFFFFFF AND CALLER PUSH20 0xFFFFFFFFFFFFFFFFFFFFFFFFFFFFFFFFFFFFFFFF AND EQ DUP1 PUSH2 0x66D JUMPI POP PUSH1 0x4 PUSH0 DUP3 PUSH20 0xFFFFFFFFFFFFFFFFFFFFFFFFFFFFFFFFFFFFFFFF AND PUSH20 0xFFFFFFFFFFFFFFFFFFFFFFFFFFFFFFFFFFFFFFFF AND DUP2 MSTORE PUSH1 0x20 ADD SWAP1 DUP2 MSTORE PUSH1 0x20 ADD PUSH0 KECCAK256 PUSH0 CALLER PUSH20 0xFFFFFFFFFFFFFFFFFFFFFFFFFFFFFFFFFFFFFFFF AND PUSH20 0xFFFFFFFFFFFFFFFFFFFFFFFFFFFFFFFFFFFFFFFF AND DUP2 MSTORE PUSH1 0x20 ADD SWAP1 DUP2 MSTORE PUSH1 0x20 ADD PUSH0 KECCAK256 PUSH0 SWAP1 SLOAD SWAP1 PUSH2 0x100 EXP SWAP1 DIV PUSH1 0xFF AND JUMPDEST PUSH2 0x6AC JUMPI PUSH1 0x40 MLOAD PUSH32 0x8C379A000000000000000000000000000000000000000000000000000000000 DUP2 MSTORE PUSH1 0x4 ADD PUSH2 0x6A3 SWAP1 PUSH2 0x196C JUMP JUMPDEST PUSH1 0x40 MLOAD DUP1 SWAP2 SUB SWAP1 REVERT JUMPDEST DUP3 PUSH1 0x3 PUSH0 DUP5 DUP2 MSTORE PUSH1 0x20 ADD SWAP1 DUP2 MSTORE PUSH1 0x20 ADD PUSH0 KECCAK256 PUSH0 PUSH2 0x100 EXP DUP2 SLOAD DUP2 PUSH20 0xFFFFFFFFFFFFFFFFFFFFFFFFFFFFFFFFFFFFFFFF MUL NOT AND SWAP1 DUP4 PUSH20 0xFFFFFFFFFFFFFFFFFFFFFFFFFFFFFFFFFFFFFFFF AND MUL OR SWAP1 SSTORE POP DUP2 DUP4 PUSH20 0xFFFFFFFFFFFFFFFFFFFFFFFFFFFFFFFFFFFFFFFF AND DUP3 PUSH20 0xFFFFFFFFFFFFFFFFFFFFFFFFFFFFFFFFFFFFFFFF AND PUSH32 0x8C5BE1E5EBEC7D5BD14F71427D1E84F3DD0314C0F7B2291E5B200AC8C7C3B925 PUSH1 0x40 MLOAD PUSH1 0x40 MLOAD DUP1 SWAP2 SUB SWAP1 LOG4 POP POP POP JUMP JUMPDEST PUSH2 0x766 DUP4 DUP4 DUP4 PUSH2 0xCF3 JUMP JUMPDEST POP POP POP JUMP JUMPDEST PUSH0 PUSH0 SWAP1 SLOAD SWAP1 PUSH2 0x100 EXP SWAP1 DIV PUSH20 0xFFFFFFFFFFFFFFFFFFFFFFFFFFFFFFFFFFFFFFFF AND PUSH20 0xFFFFFFFFFFFFFFFFFFFFFFFFFFFFFFFFFFFFFFFF AND CALLER PUSH20 0xFFFFFFFFFFFFFFFFFFFFFFFFFFFFFFFFFFFFFFFF AND EQ PUSH2 0x7F9 JUMPI PUSH1 0x40 MLOAD PUSH32 0x8C379A000000000000000000000000000000000000000000000000000000000 DUP2 MSTORE PUSH1 0x4 ADD PUSH2 0x7F0 SWAP1 PUSH2 0x19D4 JUMP JUMPDEST PUSH1 0x40 MLOAD DUP1 SWAP2 SUB SWAP1 REVERT JUMPDEST PUSH2 0x803 DUP3 DUP3 PUSH2 0x10EA JUMP JUMPDEST POP POP JUMP JUMPDEST PUSH2 0x821 DUP4 DUP4 DUP4 PUSH1 0x40 MLOAD DUP1 PUSH1 0x20 ADD PUSH1 0x40 MSTORE DUP1 PUSH0 DUP2 MSTORE POP PUSH2 0xB2E JUMP JUMPDEST POP POP POP JUMP JUMPDEST PUSH0 PUSH0 SWAP1 SLOAD SWAP1 PUSH2 0x100 EXP SWAP1 DIV PUSH20 0xFFFFFFFFFFFFFFFFFFFFFFFFFFFFFFFFFFFFFFFF AND DUP2 JUMP JUMPDEST PUSH0 PUSH0 PUSH1 0x1 PUSH0 DUP5 DUP2 MSTORE PUSH1 0x20 ADD SWAP1 DUP2 MSTORE PUSH1 0x20 ADD PUSH0 KECCAK256 PUSH0 SWAP1 SLOAD SWAP1 PUSH2 0x100 EXP SWAP1 DIV PUSH20 0xFFFFFFFFFFFFFFFFFFFFFFFFFFFFFFFFFFFFFFFF AND SWAP1 POP PUSH0 PUSH20 0xFFFFFFFFFFFFFFFFFFFFFFFFFFFFFFFFFFFFFFFF AND DUP2 PUSH20 0xFFFFFFFFFFFFFFFFFFFFFFFFFFFFFFFFFFFFFFFF AND SUB PUSH2 0x8ED JUMPI PUSH1 0x40 MLOAD PUSH32 0x8C379A000000000000000000000000000000000000000000000000000000000 DUP2 MSTORE PUSH1 0x4 ADD PUSH2 0x8E4 SWAP1 PUSH2 0x1904 JUMP JUMPDEST PUSH1 0x40 MLOAD DUP1 SWAP2 SUB SWAP1 REVERT JUMPDEST DUP1 SWAP2 POP POP SWAP2 SWAP1 POP JUMP JUMPDEST PUSH0 PUSH0 PUSH20 0xFFFFFFFFFFFFFFFFFFFFFFFFFFFFFFFFFFFFFFFF AND DUP3 PUSH20 0xFFFFFFFFFFFFFFFFFFFFFFFFFFFFFFFFFFFFFFFF AND SUB PUSH2 0x965 JUMPI PUSH1 0x40 MLOAD PUSH32 0x8C379A000000000000000000000000000000000000000000000000000000000 DUP2 MSTORE PUSH1 0x4 ADD PUSH2 0x95C SWAP1 PUSH2 0x1A62 JUMP JUMPDEST PUSH1 0x40 MLOAD DUP1 SWAP2 SUB SWAP1 REVERT JUMPDEST PUSH1 0x2 PUSH0 DUP4 PUSH20 0xFFFFFFFFFFFFFFFFFFFFFFFFFFFFFFFFFFFFFFFF AND PUSH20 0xFFFFFFFFFFFFFFFFFFFFFFFFFFFFFFFFFFFFFFFF AND DUP2 MSTORE PUSH1 0x20 ADD SWAP1 DUP2 MSTORE PUSH1 0x20 ADD PUSH0 KECCAK256 SLOAD SWAP1 POP SWAP2 SWAP1 POP JUMP JUMPDEST PUSH1 0x6 DUP1 SLOAD PUSH2 0x9B7 SWAP1 PUSH2 0x188A JUMP JUMPDEST DUP1 PUSH1 0x1F ADD PUSH1 0x20 DUP1 SWAP2 DIV MUL PUSH1 0x20 ADD PUSH1 0x40 MLOAD SWAP1 DUP2 ADD PUSH1 0x40 MSTORE DUP1 SWAP3 SWAP2 SWAP1 DUP2 DUP2 MSTORE PUSH1 0x20 ADD DUP3 DUP1 SLOAD PUSH2 0x9E3 SWAP1 PUSH2 0x188A JUMP JUMPDEST DUP1 ISZERO PUSH2 0xA2E JUMPI DUP1 PUSH1 0x1F LT PUSH2 0xA05 JUMPI PUSH2 0x100 DUP1 DUP4 SLOAD DIV MUL DUP4 MSTORE SWAP2 PUSH1 0x20 ADD SWAP2 PUSH2 0xA2E JUMP JUMPDEST DUP3 ADD SWAP2 SWAP1 PUSH0 MSTORE PUSH1 0x20 PUSH0 KECCAK256 SWAP1 JUMPDEST DUP2 SLOAD DUP2 MSTORE SWAP1 PUSH1 0x1 ADD SWAP1 PUSH1 0x20 ADD DUP1 DUP4 GT PUSH2 0xA11 JUMPI DUP3 SWAP1 SUB PUSH1 0x1F AND DUP3 ADD SWAP2 JUMPDEST POP POP POP POP POP DUP2 JUMP JUMPDEST DUP1 PUSH1 0x4 PUSH0 CALLER PUSH20 0xFFFFFFFFFFFFFFFFFFFFFFFFFFFFFFFFFFFFFFFF AND PUSH20 0xFFFFFFFFFFFFFFFFFFFFFFFFFFFFFFFFFFFFFFFF AND DUP2 MSTORE PUSH1 0x20 ADD SWAP1 DUP2 MSTORE PUSH1 0x20 ADD PUSH0 KECCAK256 PUSH0 DUP5 PUSH20 0xFFFFFFFFFFFFFFFFFFFFFFFFFFFFFFFFFFFFFFFF AND PUSH20 0xFFFFFFFFFFFFFFFFFFFFFFFFFFFFFFFFFFFFFFFF AND DUP2 MSTORE PUSH1 0x20 ADD SWAP1 DUP2 MSTORE PUSH1 0x20 ADD PUSH0 KECCAK256 PUSH0 PUSH2 0x100 EXP DUP2 SLOAD DUP2 PUSH1 0xFF MUL NOT AND SWAP1 DUP4 ISZERO ISZERO MUL OR SWAP1 SSTORE POP DUP2 PUSH20 0xFFFFFFFFFFFFFFFFFFFFFFFFFFFFFFFFFFFFFFFF AND CALLER PUSH20 0xFFFFFFFFFFFFFFFFFFFFFFFFFFFFFFFFFFFFFFFF AND PUSH32 0x17307EAB39AB6107E8899845AD3D59BD9653F200F220920489CA2B5937696C31 DUP4 PUSH1 0x40 MLOAD PUSH2 0xB22 SWAP2 SWAP1 PUSH2 0x13A1 JUMP JUMPDEST PUSH1 0x40 MLOAD DUP1 SWAP2 SUB SWAP1 LOG3 POP POP JUMP JUMPDEST PUSH2 0xB39 DUP5 DUP5 DUP5 PUSH2 0xCF3 JUMP JUMPDEST PUSH0 DUP4 PUSH20 0xFFFFFFFFFFFFFFFFFFFFFFFFFFFFFFFFFFFFFFFF AND EXTCODESIZE EQ DUP1 PUSH2 0xC20 JUMPI POP PUSH4 0x150B7A02 PUSH1 0xE0 SHL PUSH28 0xFFFFFFFFFFFFFFFFFFFFFFFFFFFFFFFFFFFFFFFFFFFFFFFFFFFFFFFF NOT AND DUP4 PUSH20 0xFFFFFFFFFFFFFFFFFFFFFFFFFFFFFFFFFFFFFFFF AND PUSH4 0x150B7A02 CALLER DUP8 DUP7 DUP7 PUSH1 0x40 MLOAD DUP6 PUSH4 0xFFFFFFFF AND PUSH1 0xE0 SHL DUP2 MSTORE PUSH1 0x4 ADD PUSH2 0xBBF SWAP5 SWAP4 SWAP3 SWAP2 SWAP1 PUSH2 0x1AD2 JUMP JUMPDEST PUSH1 0x20 PUSH1 0x40 MLOAD DUP1 DUP4 SUB DUP2 PUSH0 DUP8 GAS CALL ISZERO DUP1 ISZERO PUSH2 0xBDB JUMPI RETURNDATASIZE PUSH0 PUSH0 RETURNDATACOPY RETURNDATASIZE PUSH0 REVERT JUMPDEST POP POP POP POP PUSH1 0x40 MLOAD RETURNDATASIZE PUSH1 0x1F NOT PUSH1 0x1F DUP3 ADD AND DUP3 ADD DUP1 PUSH1 0x40 MSTORE POP DUP2 ADD SWAP1 PUSH2 0xBFF SWAP2 SWAP1 PUSH2 0x1B30 JUMP JUMPDEST PUSH28 0xFFFFFFFFFFFFFFFFFFFFFFFFFFFFFFFFFFFFFFFFFFFFFFFFFFFFFFFF NOT AND EQ JUMPDEST PUSH2 0xC5F JUMPI PUSH1 0x40 MLOAD PUSH32 0x8C379A000000000000000000000000000000000000000000000000000000000 DUP2 MSTORE PUSH1 0x4 ADD PUSH2 0xC56 SWAP1 PUSH2 0x1BA5 JUMP JUMPDEST PUSH1 0x40 MLOAD DUP1 SWAP2 SUB SWAP1 REVERT JUMPDEST POP POP POP POP JUMP JUMPDEST PUSH0 PUSH1 0x4 PUSH0 DUP5 PUSH20 0xFFFFFFFFFFFFFFFFFFFFFFFFFFFFFFFFFFFFFFFF AND PUSH20 0xFFFFFFFFFFFFFFFFFFFFFFFFFFFFFFFFFFFFFFFF AND DUP2 MSTORE PUSH1 0x20 ADD SWAP1 DUP2 MSTORE PUSH1 0x20 ADD PUSH0 KECCAK256 PUSH0 DUP4 PUSH20 0xFFFFFFFFFFFFFFFFFFFFFFFFFFFFFFFFFFFFFFFF AND PUSH20 0xFFFFFFFFFFFFFFFFFFFFFFFFFFFFFFFFFFFFFFFF AND DUP2 MSTORE PUSH1 0x20 ADD SWAP1 DUP2 MSTORE PUSH1 0x20 ADD PUSH0 KECCAK256 PUSH0 SWAP1 SLOAD SWAP1 PUSH2 0x100 EXP SWAP1 DIV PUSH1 0xFF AND SWAP1 POP SWAP3 SWAP2 POP POP JUMP JUMPDEST PUSH0 PUSH1 0x1 PUSH0 DUP4 DUP2 MSTORE PUSH1 0x20 ADD SWAP1 DUP2 MSTORE PUSH1 0x20 ADD PUSH0 KECCAK256 PUSH0 SWAP1 SLOAD SWAP1 PUSH2 0x100 EXP SWAP1 DIV PUSH20 0xFFFFFFFFFFFFFFFFFFFFFFFFFFFFFFFFFFFFFFFF AND SWAP1 POP DUP1 PUSH20 0xFFFFFFFFFFFFFFFFFFFFFFFFFFFFFFFFFFFFFFFF AND DUP5 PUSH20 0xFFFFFFFFFFFFFFFFFFFFFFFFFFFFFFFFFFFFFFFF AND EQ PUSH2 0xD95 JUMPI PUSH1 0x40 MLOAD PUSH32 0x8C379A000000000000000000000000000000000000000000000000000000000 DUP2 MSTORE PUSH1 0x4 ADD PUSH2 0xD8C SWAP1 PUSH2 0x1C0D JUMP JUMPDEST PUSH1 0x40 MLOAD DUP1 SWAP2 SUB SWAP1 REVERT JUMPDEST PUSH0 PUSH20 0xFFFFFFFFFFFFFFFFFFFFFFFFFFFFFFFFFFFFFFFF AND DUP4 PUSH20 0xFFFFFFFFFFFFFFFFFFFFFFFFFFFFFFFFFFFFFFFF AND SUB PUSH2 0xE03 JUMPI PUSH1 0x40 MLOAD PUSH32 0x8C379A000000000000000000000000000000000000000000000000000000000 DUP2 MSTORE PUSH1 0x4 ADD PUSH2 0xDFA SWAP1 PUSH2 0x1C75 JUMP JUMPDEST PUSH1 0x40 MLOAD DUP1 SWAP2 SUB SWAP1 REVERT JUMPDEST DUP1 PUSH20 0xFFFFFFFFFFFFFFFFFFFFFFFFFFFFFFFFFFFFFFFF AND CALLER PUSH20 0xFFFFFFFFFFFFFFFFFFFFFFFFFFFFFFFFFFFFFFFF AND EQ DUP1 PUSH2 0xE98 JUMPI POP PUSH1 0x3 PUSH0 DUP4 DUP2 MSTORE PUSH1 0x20 ADD SWAP1 DUP2 MSTORE PUSH1 0x20 ADD PUSH0 KECCAK256 PUSH0 SWAP1 SLOAD SWAP1 PUSH2 0x100 EXP SWAP1 DIV PUSH20 0xFFFFFFFFFFFFFFFFFFFFFFFFFFFFFFFFFFFFFFFF AND PUSH20 0xFFFFFFFFFFFFFFFFFFFFFFFFFFFFFFFFFFFFFFFF AND CALLER PUSH20 0xFFFFFFFFFFFFFFFFFFFFFFFFFFFFFFFFFFFFFFFF AND EQ JUMPDEST DUP1 PUSH2 0xF24 JUMPI POP PUSH1 0x4 PUSH0 DUP3 PUSH20 0xFFFFFFFFFFFFFFFFFFFFFFFFFFFFFFFFFFFFFFFF AND PUSH20 0xFFFFFFFFFFFFFFFFFFFFFFFFFFFFFFFFFFFFFFFF AND DUP2 MSTORE PUSH1 0x20 ADD SWAP1 DUP2 MSTORE PUSH1 0x20 ADD PUSH0 KECCAK256 PUSH0 CALLER PUSH20 0xFFFFFFFFFFFFFFFFFFFFFFFFFFFFFFFFFFFFFFFF AND PUSH20 0xFFFFFFFFFFFFFFFFFFFFFFFFFFFFFFFFFFFFFFFF AND DUP2 MSTORE PUSH1 0x20 ADD SWAP1 DUP2 MSTORE PUSH1 0x20 ADD PUSH0 KECCAK256 PUSH0 SWAP1 SLOAD SWAP1 PUSH2 0x100 EXP SWAP1 DIV PUSH1 0xFF AND JUMPDEST PUSH2 0xF63 JUMPI PUSH1 0x40 MLOAD PUSH32 0x8C379A000000000000000000000000000000000000000000000000000000000 DUP2 MSTORE PUSH1 0x4 ADD PUSH2 0xF5A SWAP1 PUSH2 0x196C JUMP JUMPDEST PUSH1 0x40 MLOAD DUP1 SWAP2 SUB SWAP1 REVERT JUMPDEST PUSH1 0x2 PUSH0 DUP6 PUSH20 0xFFFFFFFFFFFFFFFFFFFFFFFFFFFFFFFFFFFFFFFF AND PUSH20 0xFFFFFFFFFFFFFFFFFFFFFFFFFFFFFFFFFFFFFFFF AND DUP2 MSTORE PUSH1 0x20 ADD SWAP1 DUP2 MSTORE PUSH1 0x20 ADD PUSH0 KECCAK256 PUSH0 DUP2 SLOAD DUP1 SWAP3 SWAP2 SWAP1 PUSH2 0xFB0 SWAP1 PUSH2 0x1CC0 JUMP JUMPDEST SWAP2 SWAP1 POP SSTORE POP PUSH1 0x2 PUSH0 DUP5 PUSH20 0xFFFFFFFFFFFFFFFFFFFFFFFFFFFFFFFFFFFFFFFF AND PUSH20 0xFFFFFFFFFFFFFFFFFFFFFFFFFFFFFFFFFFFFFFFF AND DUP2 MSTORE PUSH1 0x20 ADD SWAP1 DUP2 MSTORE PUSH1 0x20 ADD PUSH0 KECCAK256 PUSH0 DUP2 SLOAD DUP1 SWAP3 SWAP2 SWAP1 PUSH2 0x1002 SWAP1 PUSH2 0x1CE7 JUMP JUMPDEST SWAP2 SWAP1 POP SSTORE POP DUP3 PUSH1 0x1 PUSH0 DUP5 DUP2 MSTORE PUSH1 0x20 ADD SWAP1 DUP2 MSTORE PUSH1 0x20 ADD PUSH0 KECCAK256 PUSH0 PUSH2 0x100 EXP DUP2 SLOAD DUP2 PUSH20 0xFFFFFFFFFFFFFFFFFFFFFFFFFFFFFFFFFFFFFFFF MUL NOT AND SWAP1 DUP4 PUSH20 0xFFFFFFFFFFFFFFFFFFFFFFFFFFFFFFFFFFFFFFFF AND MUL OR SWAP1 SSTORE POP PUSH1 0x3 PUSH0 DUP4 DUP2 MSTORE PUSH1 0x20 ADD SWAP1 DUP2 MSTORE PUSH1 0x20 ADD PUSH0 KECCAK256 PUSH0 PUSH2 0x100 EXP DUP2 SLOAD SWAP1 PUSH20 0xFFFFFFFFFFFFFFFFFFFFFFFFFFFFFFFFFFFFFFFF MUL NOT AND SWAP1 SSTORE DUP2 DUP4 PUSH20 0xFFFFFFFFFFFFFFFFFFFFFFFFFFFFFFFFFFFFFFFF AND DUP6 PUSH20 0xFFFFFFFFFFFFFFFFFFFFFFFFFFFFFFFFFFFFFFFF AND PUSH32 0xDDF252AD1BE2C89B69C2B068FC378DAA952BA7F163C4A11628F55A4DF523B3EF PUSH1 0x40 MLOAD PUSH1 0x40 MLOAD DUP1 SWAP2 SUB SWAP1 LOG4 POP POP POP POP JUMP JUMPDEST PUSH0 PUSH20 0xFFFFFFFFFFFFFFFFFFFFFFFFFFFFFFFFFFFFFFFF AND DUP3 PUSH20 0xFFFFFFFFFFFFFFFFFFFFFFFFFFFFFFFFFFFFFFFF AND SUB PUSH2 0x1158 JUMPI PUSH1 0x40 MLOAD PUSH32 0x8C379A000000000000000000000000000000000000000000000000000000000 DUP2 MSTORE PUSH1 0x4 ADD PUSH2 0x114F SWAP1 PUSH2 0x1D78 JUMP JUMPDEST PUSH1 0x40 MLOAD DUP1 SWAP2 SUB SWAP1 REVERT JUMPDEST PUSH0 PUSH20 0xFFFFFFFFFFFFFFFFFFFFFFFFFFFFFFFFFFFFFFFF AND PUSH1 0x1 PUSH0 DUP4 DUP2 MSTORE PUSH1 0x20 ADD SWAP1 DUP2 MSTORE PUSH1 0x20 ADD PUSH0 KECCAK256 PUSH0 SWAP1 SLOAD SWAP1 PUSH2 0x100 EXP SWAP1 DIV PUSH20 0xFFFFFFFFFFFFFFFFFFFFFFFFFFFFFFFFFFFFFFFF AND PUSH20 0xFFFFFFFFFFFFFFFFFFFFFFFFFFFFFFFFFFFFFFFF AND EQ PUSH2 0x11F6 JUMPI PUSH1 0x40 MLOAD PUSH32 0x8C379A000000000000000000000000000000000000000000000000000000000 DUP2 MSTORE PUSH1 0x4 ADD PUSH2 0x11ED SWAP1 PUSH2 0x1DE0 JUMP JUMPDEST PUSH1 0x40 MLOAD DUP1 SWAP2 SUB SWAP1 REVERT JUMPDEST PUSH1 0x2 PUSH0 DUP4 PUSH20 0xFFFFFFFFFFFFFFFFFFFFFFFFFFFFFFFFFFFFFFFF AND PUSH20 0xFFFFFFFFFFFFFFFFFFFFFFFFFFFFFFFFFFFFFFFF AND DUP2 MSTORE PUSH1 0x20 ADD SWAP1 DUP2 MSTORE PUSH1 0x20 ADD PUSH0 KECCAK256 PUSH0 DUP2 SLOAD DUP1 SWAP3 SWAP2 SWAP1 PUSH2 0x1243 SWAP1 PUSH2 0x1CE7 JUMP JUMPDEST SWAP2 SWAP1 POP SSTORE POP DUP2 PUSH1 0x1 PUSH0 DUP4 DUP2 MSTORE PUSH1 0x20 ADD SWAP1 DUP2 MSTORE PUSH1 0x20 ADD PUSH0 KECCAK256 PUSH0 PUSH2 0x100 EXP DUP2 SLOAD DUP2 PUSH20 0xFFFFFFFFFFFFFFFFFFFFFFFFFFFFFFFFFFFFFFFF MUL NOT AND SWAP1 DUP4 PUSH20 0xFFFFFFFFFFFFFFFFFFFFFFFFFFFFFFFFFFFFFFFF AND MUL OR SWAP1 SSTORE POP DUP1 DUP3 PUSH20 0xFFFFFFFFFFFFFFFFFFFFFFFFFFFFFFFFFFFFFFFF AND PUSH0 PUSH20 0xFFFFFFFFFFFFFFFFFFFFFFFFFFFFFFFFFFFFFFFF AND PUSH32 0xDDF252AD1BE2C89B69C2B068FC378DAA952BA7F163C4A11628F55A4DF523B3EF PUSH1 0x40 MLOAD PUSH1 0x40 MLOAD DUP1 SWAP2 SUB SWAP1 LOG4 POP POP JUMP JUMPDEST PUSH0 PUSH1 0x40 MLOAD SWAP1 POP SWAP1 JUMP JUMPDEST PUSH0 PUSH0 REVERT JUMPDEST PUSH0 PUSH0 REVERT JUMPDEST PUSH0 PUSH32 0xFFFFFFFF00000000000000000000000000000000000000000000000000000000 DUP3 AND SWAP1 POP SWAP2 SWAP1 POP JUMP JUMPDEST PUSH2 0x133B DUP2 PUSH2 0x1307 JUMP JUMPDEST DUP2 EQ PUSH2 0x1345 JUMPI PUSH0 PUSH0 REVERT JUMPDEST POP JUMP JUMPDEST PUSH0 DUP2 CALLDATALOAD SWAP1 POP PUSH2 0x1356 DUP2 PUSH2 0x1332 JUMP JUMPDEST SWAP3 SWAP2 POP POP JUMP JUMPDEST PUSH0 PUSH1 0x20 DUP3 DUP5 SUB SLT ISZERO PUSH2 0x1371 JUMPI PUSH2 0x1370 PUSH2 0x12FF JUMP JUMPDEST JUMPDEST PUSH0 PUSH2 0x137E DUP5 DUP3 DUP6 ADD PUSH2 0x1348 JUMP JUMPDEST SWAP2 POP POP SWAP3 SWAP2 POP POP JUMP JUMPDEST PUSH0 DUP2 ISZERO ISZERO SWAP1 POP SWAP2 SWAP1 POP JUMP JUMPDEST PUSH2 0x139B DUP2 PUSH2 0x1387 JUMP JUMPDEST DUP3 MSTORE POP POP JUMP JUMPDEST PUSH0 PUSH1 0x20 DUP3 ADD SWAP1 POP PUSH2 0x13B4 PUSH0 DUP4 ADD DUP5 PUSH2 0x1392 JUMP JUMPDEST SWAP3 SWAP2 POP POP JUMP JUMPDEST PUSH0 DUP2 MLOAD SWAP1 POP SWAP2 SWAP1 POP JUMP JUMPDEST PUSH0 DUP3 DUP3 MSTORE PUSH1 0x20 DUP3 ADD SWAP1 POP SWAP3 SWAP2 POP POP JUMP JUMPDEST DUP3 DUP2 DUP4 MCOPY PUSH0 DUP4 DUP4 ADD MSTORE POP POP POP JUMP JUMPDEST PUSH0 PUSH1 0x1F NOT PUSH1 0x1F DUP4 ADD AND SWAP1 POP SWAP2 SWAP1 POP JUMP JUMPDEST PUSH0 PUSH2 0x13FC DUP3 PUSH2 0x13BA JUMP JUMPDEST PUSH2 0x1406 DUP2 DUP6 PUSH2 0x13C4 JUMP JUMPDEST SWAP4 POP PUSH2 0x1416 DUP2 DUP6 PUSH1 0x20 DUP7 ADD PUSH2 0x13D4 JUMP JUMPDEST PUSH2 0x141F DUP2 PUSH2 0x13E2 JUMP JUMPDEST DUP5 ADD SWAP2 POP POP SWAP3 SWAP2 POP POP JUMP JUMPDEST PUSH0 PUSH1 0x20 DUP3 ADD SWAP1 POP DUP2 DUP2 SUB PUSH0 DUP4 ADD MSTORE PUSH2 0x1442 DUP2 DUP5 PUSH2 0x13F2 JUMP JUMPDEST SWAP1 POP SWAP3 SWAP2 POP POP JUMP JUMPDEST PUSH0 DUP2 SWAP1 POP SWAP2 SWAP1 POP JUMP JUMPDEST PUSH2 0x145C DUP2 PUSH2 0x144A JUMP JUMPDEST DUP2 EQ PUSH2 0x1466 JUMPI PUSH0 PUSH0 REVERT JUMPDEST POP JUMP JUMPDEST PUSH0 DUP2 CALLDATALOAD SWAP1 POP PUSH2 0x1477 DUP2 PUSH2 0x1453 JUMP JUMPDEST SWAP3 SWAP2 POP POP JUMP JUMPDEST PUSH0 PUSH1 0x20 DUP3 DUP5 SUB SLT ISZERO PUSH2 0x1492 JUMPI PUSH2 0x1491 PUSH2 0x12FF JUMP JUMPDEST JUMPDEST PUSH0 PUSH2 0x149F DUP5 DUP3 DUP6 ADD PUSH2 0x1469 JUMP JUMPDEST SWAP2 POP POP SWAP3 SWAP2 POP POP JUMP JUMPDEST PUSH0 PUSH20 0xFFFFFFFFFFFFFFFFFFFFFFFFFFFFFFFFFFFFFFFF DUP3 AND SWAP1 POP SWAP2 SWAP1 POP JUMP JUMPDEST PUSH0 PUSH2 0x14D1 DUP3 PUSH2 0x14A8 JUMP JUMPDEST SWAP1 POP SWAP2 SWAP1 POP JUMP JUMPDEST PUSH2 0x14E1 DUP2 PUSH2 0x14C7 JUMP JUMPDEST DUP3 MSTORE POP POP JUMP JUMPDEST PUSH0 PUSH1 0x20 DUP3 ADD SWAP1 POP PUSH2 0x14FA PUSH0 DUP4 ADD DUP5 PUSH2 0x14D8 JUMP JUMPDEST SWAP3 SWAP2 POP POP JUMP JUMPDEST PUSH2 0x1509 DUP2 PUSH2 0x14C7 JUMP JUMPDEST DUP2 EQ PUSH2 0x1513 JUMPI PUSH0 PUSH0 REVERT JUMPDEST POP JUMP JUMPDEST PUSH0 DUP2 CALLDATALOAD SWAP1 POP PUSH2 0x1524 DUP2 PUSH2 0x1500 JUMP JUMPDEST SWAP3 SWAP2 POP POP JUMP JUMPDEST PUSH0 PUSH0 PUSH1 0x40 DUP4 DUP6 SUB SLT ISZERO PUSH2 0x1540 JUMPI PUSH2 0x153F PUSH2 0x12FF JUMP JUMPDEST JUMPDEST PUSH0 PUSH2 0x154D DUP6 DUP3 DUP7 ADD PUSH2 0x1516 JUMP JUMPDEST SWAP3 POP POP PUSH1 0x20 PUSH2 0x155E DUP6 DUP3 DUP7 ADD PUSH2 0x1469 JUMP JUMPDEST SWAP2 POP POP SWAP3 POP SWAP3 SWAP1 POP JUMP JUMPDEST PUSH0 PUSH0 PUSH0 PUSH1 0x60 DUP5 DUP7 SUB SLT ISZERO PUSH2 0x157F JUMPI PUSH2 0x157E PUSH2 0x12FF JUMP JUMPDEST JUMPDEST PUSH0 PUSH2 0x158C DUP7 DUP3 DUP8 ADD PUSH2 0x1516 JUMP JUMPDEST SWAP4 POP POP PUSH1 0x20 PUSH2 0x159D DUP7 DUP3 DUP8 ADD PUSH2 0x1516 JUMP JUMPDEST SWAP3 POP POP PUSH1 0x40 PUSH2 0x15AE DUP7 DUP3 DUP8 ADD PUSH2 0x1469 JUMP JUMPDEST SWAP2 POP POP SWAP3 POP SWAP3 POP SWAP3 JUMP JUMPDEST PUSH0 PUSH1 0x20 DUP3 DUP5 SUB SLT ISZERO PUSH2 0x15CD JUMPI PUSH2 0x15CC PUSH2 0x12FF JUMP JUMPDEST JUMPDEST PUSH0 PUSH2 0x15DA DUP5 DUP3 DUP6 ADD PUSH2 0x1516 JUMP JUMPDEST SWAP2 POP POP SWAP3 SWAP2 POP POP JUMP JUMPDEST PUSH2 0x15EC DUP2 PUSH2 0x144A JUMP JUMPDEST DUP3 MSTORE POP POP JUMP JUMPDEST PUSH0 PUSH1 0x20 DUP3 ADD SWAP1 POP PUSH2 0x1605 PUSH0 DUP4 ADD DUP5 PUSH2 0x15E3 JUMP JUMPDEST SWAP3 SWAP2 POP POP JUMP JUMPDEST PUSH2 0x1614 DUP2 PUSH2 0x1387 JUMP JUMPDEST DUP2 EQ PUSH2 0x161E JUMPI PUSH0 PUSH0 REVERT JUMPDEST POP JUMP JUMPDEST PUSH0 DUP2 CALLDATALOAD SWAP1 POP PUSH2 0x162F DUP2 PUSH2 0x160B JUMP JUMPDEST SWAP3 SWAP2 POP POP JUMP JUMPDEST PUSH0 PUSH0 PUSH1 0x40 DUP4 DUP6 SUB SLT ISZERO PUSH2 0x164B JUMPI PUSH2 0x164A PUSH2 0x12FF JUMP JUMPDEST JUMPDEST PUSH0 PUSH2 0x1658 DUP6 DUP3 DUP7 ADD PUSH2 0x1516 JUMP JUMPDEST SWAP3 POP POP PUSH1 0x20 PUSH2 0x1669 DUP6 DUP3 DUP7 ADD PUSH2 0x1621 JUMP JUMPDEST SWAP2 POP POP SWAP3 POP SWAP3 SWAP1 POP JUMP JUMPDEST PUSH0 PUSH0 REVERT JUMPDEST PUSH0 PUSH0 REVERT JUMPDEST PUSH32 0x4E487B7100000000000000000000000000000000000000000000000000000000 PUSH0 MSTORE PUSH1 0x41 PUSH1 0x4 MSTORE PUSH1 0x24 PUSH0 REVERT JUMPDEST PUSH2 0x16B1 DUP3 PUSH2 0x13E2 JUMP JUMPDEST DUP2 ADD DUP2 DUP2 LT PUSH8 0xFFFFFFFFFFFFFFFF DUP3 GT OR ISZERO PUSH2 0x16D0 JUMPI PUSH2 0x16CF PUSH2 0x167B JUMP JUMPDEST JUMPDEST DUP1 PUSH1 0x40 MSTORE POP POP POP JUMP JUMPDEST PUSH0 PUSH2 0x16E2 PUSH2 0x12F6 JUMP JUMPDEST SWAP1 POP PUSH2 0x16EE DUP3 DUP3 PUSH2 0x16A8 JUMP JUMPDEST SWAP2 SWAP1 POP JUMP JUMPDEST PUSH0 PUSH8 0xFFFFFFFFFFFFFFFF DUP3 GT ISZERO PUSH2 0x170D JUMPI PUSH2 0x170C PUSH2 0x167B JUMP JUMPDEST JUMPDEST PUSH2 0x1716 DUP3 PUSH2 0x13E2 JUMP JUMPDEST SWAP1 POP PUSH1 0x20 DUP2 ADD SWAP1 POP SWAP2 SWAP1 POP JUMP JUMPDEST DUP3 DUP2 DUP4 CALLDATACOPY PUSH0 DUP4 DUP4 ADD MSTORE POP POP POP JUMP JUMPDEST PUSH0 PUSH2 0x1743 PUSH2 0x173E DUP5 PUSH2 0x16F3 JUMP JUMPDEST PUSH2 0x16D9 JUMP JUMPDEST SWAP1 POP DUP3 DUP2 MSTORE PUSH1 0x20 DUP2 ADD DUP5 DUP5 DUP5 ADD GT ISZERO PUSH2 0x175F JUMPI PUSH2 0x175E PUSH2 0x1677 JUMP JUMPDEST JUMPDEST PUSH2 0x176A DUP5 DUP3 DUP6 PUSH2 0x1723 JUMP JUMPDEST POP SWAP4 SWAP3 POP POP POP JUMP JUMPDEST PUSH0 DUP3 PUSH1 0x1F DUP4 ADD SLT PUSH2 0x1786 JUMPI PUSH2 0x1785 PUSH2 0x1673 JUMP JUMPDEST JUMPDEST DUP2 CALLDATALOAD PUSH2 0x1796 DUP5 DUP3 PUSH1 0x20 DUP7 ADD PUSH2 0x1731 JUMP JUMPDEST SWAP2 POP POP SWAP3 SWAP2 POP POP JUMP JUMPDEST PUSH0 PUSH0 PUSH0 PUSH0 PUSH1 0x80 DUP6 DUP8 SUB SLT ISZERO PUSH2 0x17B7 JUMPI PUSH2 0x17B6 PUSH2 0x12FF JUMP JUMPDEST JUMPDEST PUSH0 PUSH2 0x17C4 DUP8 DUP3 DUP9 ADD PUSH2 0x1516 JUMP JUMPDEST SWAP5 POP POP PUSH1 0x20 PUSH2 0x17D5 DUP8 DUP3 DUP9 ADD PUSH2 0x1516 JUMP JUMPDEST SWAP4 POP POP PUSH1 0x40 PUSH2 0x17E6 DUP8 DUP3 DUP9 ADD PUSH2 0x1469 JUMP JUMPDEST SWAP3 POP POP PUSH1 0x60 DUP6 ADD CALLDATALOAD PUSH8 0xFFFFFFFFFFFFFFFF DUP2 GT ISZERO PUSH2 0x1807 JUMPI PUSH2 0x1806 PUSH2 0x1303 JUMP JUMPDEST JUMPDEST PUSH2 0x1813 DUP8 DUP3 DUP9 ADD PUSH2 0x1772 JUMP JUMPDEST SWAP2 POP POP SWAP3 SWAP6 SWAP2 SWAP5 POP SWAP3 POP JUMP JUMPDEST PUSH0 PUSH0 PUSH1 0x40 DUP4 DUP6 SUB SLT ISZERO PUSH2 0x1835 JUMPI PUSH2 0x1834 PUSH2 0x12FF JUMP JUMPDEST JUMPDEST PUSH0 PUSH2 0x1842 DUP6 DUP3 DUP7 ADD PUSH2 0x1516 JUMP JUMPDEST SWAP3 POP POP PUSH1 0x20 PUSH2 0x1853 DUP6 DUP3 DUP7 ADD PUSH2 0x1516 JUMP JUMPDEST SWAP2 POP POP SWAP3 POP SWAP3 SWAP1 POP JUMP JUMPDEST PUSH32 0x4E487B7100000000000000000000000000000000000000000000000000000000 PUSH0 MSTORE PUSH1 0x22 PUSH1 0x4 MSTORE PUSH1 0x24 PUSH0 REVERT JUMPDEST PUSH0 PUSH1 0x2 DUP3 DIV SWAP1 POP PUSH1 0x1 DUP3 AND DUP1 PUSH2 0x18A1 JUMPI PUSH1 0x7F DUP3 AND SWAP2 POP JUMPDEST PUSH1 0x20 DUP3 LT DUP2 SUB PUSH2 0x18B4 JUMPI PUSH2 0x18B3 PUSH2 0x185D JUMP JUMPDEST JUMPDEST POP SWAP2 SWAP1 POP JUMP JUMPDEST PUSH32 0x746F6B656E20646F65736E277420657869737400000000000000000000000000 PUSH0 DUP3 ADD MSTORE POP JUMP JUMPDEST PUSH0 PUSH2 0x18EE PUSH1 0x13 DUP4 PUSH2 0x13C4 JUMP JUMPDEST SWAP2 POP PUSH2 0x18F9 DUP3 PUSH2 0x18BA JUMP JUMPDEST PUSH1 0x20 DUP3 ADD SWAP1 POP SWAP2 SWAP1 POP JUMP JUMPDEST PUSH0 PUSH1 0x20 DUP3 ADD SWAP1 POP DUP2 DUP2 SUB PUSH0 DUP4 ADD MSTORE PUSH2 0x191B DUP2 PUSH2 0x18E2 JUMP JUMPDEST SWAP1 POP SWAP2 SWAP1 POP JUMP JUMPDEST PUSH32 0x6E6F7420617574686F72697A6564000000000000000000000000000000000000 PUSH0 DUP3 ADD MSTORE POP JUMP JUMPDEST PUSH0 PUSH2 0x1956 PUSH1 0xE DUP4 PUSH2 0x13C4 JUMP JUMPDEST SWAP2 POP PUSH2 0x1961 DUP3 PUSH2 0x1922 JUMP JUMPDEST PUSH1 0x20 DUP3 ADD SWAP1 POP SWAP2 SWAP1 POP JUMP JUMPDEST PUSH0 PUSH1 0x20 DUP3 ADD SWAP1 POP DUP2 DUP2 SUB PUSH0 DUP4 ADD MSTORE PUSH2 0x1983 DUP2 PUSH2 0x194A JUMP JUMPDEST SWAP1 POP SWAP2 SWAP1 POP JUMP JUMPDEST PUSH32 0x6E6F7420616E20617574686F72697A6564206D696E7465720000000000000000 PUSH0 DUP3 ADD MSTORE POP JUMP JUMPDEST PUSH0 PUSH2 0x19BE PUSH1 0x18 DUP4 PUSH2 0x13C4 JUMP JUMPDEST SWAP2 POP PUSH2 0x19C9 DUP3 PUSH2 0x198A JUMP JUMPDEST PUSH1 0x20 DUP3 ADD SWAP1 POP SWAP2 SWAP1 POP JUMP JUMPDEST PUSH0 PUSH1 0x20 DUP3 ADD SWAP1 POP DUP2 DUP2 SUB PUSH0 DUP4 ADD MSTORE PUSH2 0x19EB DUP2 PUSH2 0x19B2 JUMP JUMPDEST SWAP1 POP SWAP2 SWAP1 POP JUMP JUMPDEST PUSH32 0x62616C616E636520717565727920666F7220746865207A65726F206164647265 PUSH0 DUP3 ADD MSTORE PUSH32 0x7373000000000000000000000000000000000000000000000000000000000000 PUSH1 0x20 DUP3 ADD MSTORE POP JUMP JUMPDEST PUSH0 PUSH2 0x1A4C PUSH1 0x22 DUP4 PUSH2 0x13C4 JUMP JUMPDEST SWAP2 POP PUSH2 0x1A57 DUP3 PUSH2 0x19F2 JUMP JUMPDEST PUSH1 0x40 DUP3 ADD SWAP1 POP SWAP2 SWAP1 POP JUMP JUMPDEST PUSH0 PUSH1 0x20 DUP3 ADD SWAP1 POP DUP2 DUP2 SUB PUSH0 DUP4 ADD MSTORE PUSH2 0x1A79 DUP2 PUSH2 0x1A40 JUMP JUMPDEST SWAP1 POP SWAP2 SWAP1 POP JUMP JUMPDEST PUSH0 DUP2 MLOAD SWAP1 POP SWAP2 SWAP1 POP JUMP JUMPDEST PUSH0 DUP3 DUP3 MSTORE PUSH1 0x20 DUP3 ADD SWAP1 POP SWAP3 SWAP2 POP POP JUMP JUMPDEST PUSH0 PUSH2 0x1AA4 DUP3 PUSH2 0x1A80 JUMP JUMPDEST PUSH2 0x1AAE DUP2 DUP6 PUSH2 0x1A8A JUMP JUMPDEST SWAP4 POP PUSH2 0x1ABE DUP2 DUP6 PUSH1 0x20 DUP7 ADD PUSH2 0x13D4 JUMP JUMPDEST PUSH2 0x1AC7 DUP2 PUSH2 0x13E2 JUMP JUMPDEST DUP5 ADD SWAP2 POP POP SWAP3 SWAP2 POP POP JUMP JUMPDEST PUSH0 PUSH1 0x80 DUP3 ADD SWAP1 POP PUSH2 0x1AE5 PUSH0 DUP4 ADD DUP8 PUSH2 0x14D8 JUMP JUMPDEST PUSH2 0x1AF2 PUSH1 0x20 DUP4 ADD DUP7 PUSH2 0x14D8 JUMP JUMPDEST PUSH2 0x1AFF PUSH1 0x40 DUP4 ADD DUP6 PUSH2 0x15E3 JUMP JUMPDEST DUP2 DUP2 SUB PUSH1 0x60 DUP4 ADD MSTORE PUSH2 0x1B11 DUP2 DUP5 PUSH2 0x1A9A JUMP JUMPDEST SWAP1 POP SWAP6 SWAP5 POP POP POP POP POP JUMP JUMPDEST PUSH0 DUP2 MLOAD SWAP1 POP PUSH2 0x1B2A DUP2 PUSH2 0x1332 JUMP JUMPDEST SWAP3 SWAP2 POP POP JUMP JUMPDEST PUSH0 PUSH1 0x20 DUP3 DUP5 SUB SLT ISZERO PUSH2 0x1B45 JUMPI PUSH2 0x1B44 PUSH2 0x12FF JUMP JUMPDEST JUMPDEST PUSH0 PUSH2 0x1B52 DUP5 DUP3 DUP6 ADD PUSH2 0x1B1C JUMP JUMPDEST SWAP2 POP POP SWAP3 SWAP2 POP POP JUMP JUMPDEST PUSH32 0x756E7361666520726563697069656E7400000000000000000000000000000000 PUSH0 DUP3 ADD MSTORE POP JUMP JUMPDEST PUSH0 PUSH2 0x1B8F PUSH1 0x10 DUP4 PUSH2 0x13C4 JUMP JUMPDEST SWAP2 POP PUSH2 0x1B9A DUP3 PUSH2 0x1B5B JUMP JUMPDEST PUSH1 0x20 DUP3 ADD SWAP1 POP SWAP2 SWAP1 POP JUMP JUMPDEST PUSH0 PUSH1 0x20 DUP3 ADD SWAP1 POP DUP2 DUP2 SUB PUSH0 DUP4 ADD MSTORE PUSH2 0x1BBC DUP2 PUSH2 0x1B83 JUMP JUMPDEST SWAP1 POP SWAP2 SWAP1 POP JUMP JUMPDEST PUSH32 0x66726F6D20213D206F776E657200000000000000000000000000000000000000 PUSH0 DUP3 ADD MSTORE POP JUMP JUMPDEST PUSH0 PUSH2 0x1BF7 PUSH1 0xD DUP4 PUSH2 0x13C4 JUMP JUMPDEST SWAP2 POP PUSH2 0x1C02 DUP3 PUSH2 0x1BC3 JUMP JUMPDEST PUSH1 0x20 DUP3 ADD SWAP1 POP SWAP2 SWAP1 POP JUMP JUMPDEST PUSH0 PUSH1 0x20 DUP3 ADD SWAP1 POP DUP2 DUP2 SUB PUSH0 DUP4 ADD MSTORE PUSH2 0x1C24 DUP2 PUSH2 0x1BEB JUMP JUMPDEST SWAP1 POP SWAP2 SWAP1 POP JUMP JUMPDEST PUSH32 0x7472616E7366657220746F207A65726F20616464726573730000000000000000 PUSH0 DUP3 ADD MSTORE POP JUMP JUMPDEST PUSH0 PUSH2 0x1C5F PUSH1 0x18 DUP4 PUSH2 0x13C4 JUMP JUMPDEST SWAP2 POP PUSH2 0x1C6A DUP3 PUSH2 0x1C2B JUMP JUMPDEST PUSH1 0x20 DUP3 ADD SWAP1 POP SWAP2 SWAP1 POP JUMP JUMPDEST PUSH0 PUSH1 0x20 DUP3 ADD SWAP1 POP DUP2 DUP2 SUB PUSH0 DUP4 ADD MSTORE PUSH2 0x1C8C DUP2 PUSH2 0x1C53 JUMP JUMPDEST SWAP1 POP SWAP2 SWAP1 POP JUMP JUMPDEST PUSH32 0x4E487B7100000000000000000000000000000000000000000000000000000000 PUSH0 MSTORE PUSH1 0x11 PUSH1 0x4 MSTORE PUSH1 0x24 PUSH0 REVERT JUMPDEST PUSH0 PUSH2 0x1CCA DUP3 PUSH2 0x144A JUMP JUMPDEST SWAP2 POP PUSH0 DUP3 SUB PUSH2 0x1CDC JUMPI PUSH2 0x1CDB PUSH2 0x1C93 JUMP JUMPDEST JUMPDEST PUSH1 0x1 DUP3 SUB SWAP1 POP SWAP2 SWAP1 POP JUMP JUMPDEST PUSH0 PUSH2 0x1CF1 DUP3 PUSH2 0x144A JUMP JUMPDEST SWAP2 POP PUSH32 0xFFFFFFFFFFFFFFFFFFFFFFFFFFFFFFFFFFFFFFFFFFFFFFFFFFFFFFFFFFFFFFFF DUP3 SUB PUSH2 0x1D23 JUMPI PUSH2 0x1D22 PUSH2 0x1C93 JUMP JUMPDEST JUMPDEST PUSH1 0x1 DUP3 ADD SWAP1 POP SWAP2 SWAP1 POP JUMP JUMPDEST PUSH32 0x6D696E7420746F207A65726F2061646472657373000000000000000000000000 PUSH0 DUP3 ADD MSTORE POP JUMP JUMPDEST PUSH0 PUSH2 0x1D62 PUSH1 0x14 DUP4 PUSH2 0x13C4 JUMP JUMPDEST SWAP2 POP PUSH2 0x1D6D DUP3 PUSH2 0x1D2E JUMP JUMPDEST PUSH1 0x20 DUP3 ADD SWAP1 POP SWAP2 SWAP1 POP JUMP JUMPDEST PUSH0 PUSH1 0x20 DUP3 ADD SWAP1 POP DUP2 DUP2 SUB PUSH0 DUP4 ADD MSTORE PUSH2 0x1D8F DUP2 PUSH2 0x1D56 JUMP JUMPDEST SWAP1 POP SWAP2 SWAP1 POP JUMP JUMPDEST PUSH32 0x616C7265616479206D696E746564000000000000000000000000000000000000 PUSH0 DUP3 ADD MSTORE POP JUMP JUMPDEST PUSH0 PUSH2 0x1DCA PUSH1 0xE DUP4 PUSH2 0x13C4 JUMP JUMPDEST SWAP2 POP PUSH2 0x1DD5 DUP3 PUSH2 0x1D96 JUMP JUMPDEST PUSH1 0x20 DUP3 ADD SWAP1 POP SWAP2 SWAP1 POP JUMP JUMPDEST PUSH0 PUSH1 0x20 DUP3 ADD SWAP1 POP DUP2 DUP2 SUB PUSH0 DUP4 ADD MSTORE PUSH2 0x1DF7 DUP2 PUSH2 0x1DBE JUMP JUMPDEST SWAP1 POP SWAP2 SWAP1 POP JUMP INVALID LOG2 PUSH5 0x6970667358 0x22 SLT KECCAK256 0xA6 GASLIMIT 0xC0 DUPN 0xB9 PUSH21 0xEFCA0E032CD02473DC81DD6D4C2FC30FAF7C0A645F 0xB9 0xC DUP2 DUP11 PREVRANDAO PUSH5 0x736F6C6343 STOP ADDMOD KECCAK256 STOP CALLER "
				},
				"gasEstimates": {
					"creation": {
						"codeDepositCost": "1546400",
						"executionCost": "infinite",
						"totalCost": "infinite"
					},
					"external": {
						"approve(address,uint256)": "31472",
						"balanceOf(address)": "2930",
						"founder()": "2530",
						"getApproved(uint256)": "5165",
						"isApprovedForAll(address,address)": "infinite",
						"mintNFT(address,uint256)": "infinite",
						"name()": "infinite",
						"ownerOf(uint256)": "2985",
						"safeTransferFrom(address,address,uint256)": "infinite",
						"safeTransferFrom(address,address,uint256,bytes)": "infinite",
						"setApprovalForAll(address,bool)": "infinite",
						"supportsInterface(bytes4)": "699",
						"symbol()": "infinite",
						"transferFrom(address,address,uint256)": "infinite"
					},
					"internal": {
						"_mint(address,uint256)": "infinite",
						"_transferFrom(address,address,uint256)": "infinite"
					}
				},
				"methodIdentifiers": {
					"approve(address,uint256)": "095ea7b3",
					"balanceOf(address)": "70a08231",
					"founder()": "4d853ee5",
					"getApproved(uint256)": "081812fc",
					"isApprovedForAll(address,address)": "e985e9c5",
					"mintNFT(address,uint256)": "3c168eab",
					"name()": "06fdde03",
					"ownerOf(uint256)": "6352211e",
					"safeTransferFrom(address,address,uint256)": "42842e0e",
					"safeTransferFrom(address,address,uint256,bytes)": "b88d4fde",
					"setApprovalForAll(address,bool)": "a22cb465",
					"supportsInterface(bytes4)": "01ffc9a7",
					"symbol()": "95d89b41",
					"transferFrom(address,address,uint256)": "23b872dd"
				}
			},
			"storageLayout": {
				"storage": [
					{
						"astId": 127,
						"contract": "ERC721StdNFT.sol:ERC721StdNFT",
						"label": "founder",
						"offset": 0,
						"slot": "0",
						"type": "t_address"
					},
					{
						"astId": 131,
						"contract": "ERC721StdNFT.sol:ERC721StdNFT",
						"label": "_ownerOf",
						"offset": 0,
						"slot": "1",
						"type": "t_mapping(t_uint256,t_address)"
					},
					{
						"astId": 135,
						"contract": "ERC721StdNFT.sol:ERC721StdNFT",
						"label": "_balanceOf",
						"offset": 0,
						"slot": "2",
						"type": "t_mapping(t_address,t_uint256)"
					},
					{
						"astId": 139,
						"contract": "ERC721StdNFT.sol:ERC721StdNFT",
						"label": "_approvals",
						"offset": 0,
						"slot": "3",
						"type": "t_mapping(t_uint256,t_address)"
					},
					{
						"astId": 145,
						"contract": "ERC721StdNFT.sol:ERC721StdNFT",
						"label": "_operatorApprovals",
						"offset": 0,
						"slot": "4",
						"type": "t_mapping(t_address,t_mapping(t_address,t_bool))"
					},
					{
						"astId": 147,
						"contract": "ERC721StdNFT.sol:ERC721StdNFT",
						"label": "name",
						"offset": 0,
						"slot": "5",
						"type": "t_string_storage"
					},
					{
						"astId": 149,
						"contract": "ERC721StdNFT.sol:ERC721StdNFT",
						"label": "symbol",
						"offset": 0,
						"slot": "6",
						"type": "t_string_storage"
					}
				],
				"types": {
					"t_address": {
						"encoding": "inplace",
						"label": "address",
						"numberOfBytes": "20"
					},
					"t_bool": {
						"encoding": "inplace",
						"label": "bool",
						"numberOfBytes": "1"
					},
					"t_mapping(t_address,t_bool)": {
						"encoding": "mapping",
						"key": "t_address",
						"label": "mapping(address => bool)",
						"numberOfBytes": "32",
						"value": "t_bool"
					},
					"t_mapping(t_address,t_mapping(t_address,t_bool))": {
						"encoding": "mapping",
						"key": "t_address",
						"label": "mapping(address => mapping(address => bool))",
						"numberOfBytes": "32",
						"value": "t_mapping(t_address,t_bool)"
					},
					"t_mapping(t_address,t_uint256)": {
						"encoding": "mapping",
						"key": "t_address",
						"label": "mapping(address => uint256)",
						"numberOfBytes": "32",
						"value": "t_uint256"
					},
					"t_mapping(t_uint256,t_address)": {
						"encoding": "mapping",
						"key": "t_uint256",
						"label": "mapping(uint256 => address)",
						"numberOfBytes": "32",
						"value": "t_address"
					},
					"t_string_storage": {
						"encoding": "bytes",
						"label": "string",
						"numberOfBytes": "32"
					},
					"t_uint256": {
						"encoding": "inplace",
						"label": "uint256",
						"numberOfBytes": "32"
					}
				}
			},
			"userdoc": {
				"kind": "user",
				"methods": {},
				"version": 1
			}
		}
	}
}