{
	"기말 공부/easy/libOverflow.sol": {
		"overflow_check": {
			"abi": [
				{
					"inputs": [
						{
							"internalType": "uint8",
							"name": "_num1",
							"type": "uint8"
						},
						{
							"internalType": "uint8",
							"name": "_num2",
							"type": "uint8"
						}
					],
					"name": "noOverflow1",
					"outputs": [
						{
							"internalType": "uint8",
							"name": "",
							"type": "uint8"
						}
					],
					"stateMutability": "pure",
					"type": "function"
				},
				{
					"inputs": [
						{
							"internalType": "uint8",
							"name": "_num1",
							"type": "uint8"
						},
						{
							"internalType": "uint8",
							"name": "_num2",
							"type": "uint8"
						}
					],
					"name": "noOverflow2",
					"outputs": [
						{
							"internalType": "uint8",
							"name": "",
							"type": "uint8"
						}
					],
					"stateMutability": "pure",
					"type": "function"
				},
				{
					"inputs": [
						{
							"internalType": "uint8",
							"name": "_num1",
							"type": "uint8"
						},
						{
							"internalType": "uint8",
							"name": "_num2",
							"type": "uint8"
						}
					],
					"name": "overflow",
					"outputs": [
						{
							"internalType": "uint8",
							"name": "",
							"type": "uint8"
						}
					],
					"stateMutability": "pure",
					"type": "function"
				}
			],
			"devdoc": {
				"kind": "dev",
				"methods": {},
				"version": 1
			},
			"evm": {
				"assembly": "    /* \"기말 공부/easy/libOverflow.sol\":365:810  contract overflow_check\r... */\n  mstore(0x40, 0x80)\n  callvalue\n  dup1\n  iszero\n  tag_1\n  jumpi\n  0x00\n  dup1\n  revert\ntag_1:\n  pop\n  dataSize(sub_0)\n  dup1\n  dataOffset(sub_0)\n  0x00\n  codecopy\n  0x00\n  return\nstop\n\nsub_0: assembly {\n        /* \"기말 공부/easy/libOverflow.sol\":365:810  contract overflow_check\r... */\n      mstore(0x40, 0x80)\n      callvalue\n      dup1\n      iszero\n      tag_1\n      jumpi\n      0x00\n      dup1\n      revert\n    tag_1:\n      pop\n      jumpi(tag_2, lt(calldatasize, 0x04))\n      shr(0xe0, calldataload(0x00))\n      dup1\n      0x50839710\n      eq\n      tag_3\n      jumpi\n      dup1\n      0x56e2778c\n      eq\n      tag_4\n      jumpi\n      dup1\n      0xb71602b3\n      eq\n      tag_5\n      jumpi\n    tag_2:\n      0x00\n      dup1\n      revert\n        /* \"기말 공부/easy/libOverflow.sol\":685:807  function noOverflow2(uint8 _num1, uint8 _num2) public pure returns (uint8)\r... */\n    tag_3:\n      tag_6\n      0x04\n      dup1\n      calldatasize\n      sub\n      0x40\n      dup2\n      lt\n      iszero\n      tag_7\n      jumpi\n      0x00\n      dup1\n      revert\n    tag_7:\n      dup2\n      add\n      swap1\n      dup1\n      dup1\n      calldataload\n      0xff\n      and\n      swap1\n      0x20\n      add\n      swap1\n      swap3\n      swap2\n      swap1\n      dup1\n      calldataload\n      0xff\n      and\n      swap1\n      0x20\n      add\n      swap1\n      swap3\n      swap2\n      swap1\n      pop\n      pop\n      pop\n      tag_8\n      jump\t// in\n    tag_6:\n      mload(0x40)\n      dup1\n      dup3\n      0xff\n      and\n      dup2\n      mstore\n      0x20\n      add\n      swap2\n      pop\n      pop\n      mload(0x40)\n      dup1\n      swap2\n      sub\n      swap1\n      return\n        /* \"기말 공부/easy/libOverflow.sol\":426:541  function overflow(uint8 _num1, uint8 _num2) public pure returns(uint8)\r... */\n    tag_4:\n      tag_9\n      0x04\n      dup1\n      calldatasize\n      sub\n      0x40\n      dup2\n      lt\n      iszero\n      tag_10\n      jumpi\n      0x00\n      dup1\n      revert\n    tag_10:\n      dup2\n      add\n      swap1\n      dup1\n      dup1\n      calldataload\n      0xff\n      and\n      swap1\n      0x20\n      add\n      swap1\n      swap3\n      swap2\n      swap1\n      dup1\n      calldataload\n      0xff\n      and\n      swap1\n      0x20\n      add\n      swap1\n      swap3\n      swap2\n      swap1\n      pop\n      pop\n      pop\n      tag_11\n      jump\t// in\n    tag_9:\n      mload(0x40)\n      dup1\n      dup3\n      0xff\n      and\n      dup2\n      mstore\n      0x20\n      add\n      swap2\n      pop\n      pop\n      mload(0x40)\n      dup1\n      swap2\n      sub\n      swap1\n      return\n        /* \"기말 공부/easy/libOverflow.sol\":549:677  function noOverflow1(uint8 _num1, uint8 _num2) public pure returns (uint8)\r... */\n    tag_5:\n      tag_12\n      0x04\n      dup1\n      calldatasize\n      sub\n      0x40\n      dup2\n      lt\n      iszero\n      tag_13\n      jumpi\n      0x00\n      dup1\n      revert\n    tag_13:\n      dup2\n      add\n      swap1\n      dup1\n      dup1\n      calldataload\n      0xff\n      and\n      swap1\n      0x20\n      add\n      swap1\n      swap3\n      swap2\n      swap1\n      dup1\n      calldataload\n      0xff\n      and\n      swap1\n      0x20\n      add\n      swap1\n      swap3\n      swap2\n      swap1\n      pop\n      pop\n      pop\n      tag_14\n      jump\t// in\n    tag_12:\n      mload(0x40)\n      dup1\n      dup3\n      0xff\n      and\n      dup2\n      mstore\n      0x20\n      add\n      swap2\n      pop\n      pop\n      mload(0x40)\n      dup1\n      swap2\n      sub\n      swap1\n      return\n        /* \"기말 공부/easy/libOverflow.sol\":685:807  function noOverflow2(uint8 _num1, uint8 _num2) public pure returns (uint8)\r... */\n    tag_8:\n        /* \"기말 공부/easy/libOverflow.sol\":753:758  uint8 */\n      0x00\n        /* \"기말 공부/easy/libOverflow.sol\":783:799  _num1.add(_num2) */\n      tag_16\n        /* \"기말 공부/easy/libOverflow.sol\":793:798  _num2 */\n      dup3\n        /* \"기말 공부/easy/libOverflow.sol\":783:788  _num1 */\n      dup5\n        /* \"기말 공부/easy/libOverflow.sol\":783:792  _num1.add */\n      0xff\n      and\n      tag_17\n      swap1\n        /* \"기말 공부/easy/libOverflow.sol\":783:799  _num1.add(_num2) */\n      swap2\n      swap1\n      0xffffffff\n      and\n      jump\t// in\n    tag_16:\n        /* \"기말 공부/easy/libOverflow.sol\":776:799  return _num1.add(_num2) */\n      swap1\n      pop\n        /* \"기말 공부/easy/libOverflow.sol\":685:807  function noOverflow2(uint8 _num1, uint8 _num2) public pure returns (uint8)\r... */\n      swap3\n      swap2\n      pop\n      pop\n      jump\t// out\n        /* \"기말 공부/easy/libOverflow.sol\":426:541  function overflow(uint8 _num1, uint8 _num2) public pure returns(uint8)\r... */\n    tag_11:\n        /* \"기말 공부/easy/libOverflow.sol\":490:495  uint8 */\n      0x00\n        /* \"기말 공부/easy/libOverflow.sol\":528:533  _num2 */\n      dup2\n        /* \"기말 공부/easy/libOverflow.sol\":520:525  _num1 */\n      dup4\n        /* \"기말 공부/easy/libOverflow.sol\":520:533  _num1 + _num2 */\n      add\n        /* \"기말 공부/easy/libOverflow.sol\":513:533  return _num1 + _num2 */\n      swap1\n      pop\n        /* \"기말 공부/easy/libOverflow.sol\":426:541  function overflow(uint8 _num1, uint8 _num2) public pure returns(uint8)\r... */\n      swap3\n      swap2\n      pop\n      pop\n      jump\t// out\n        /* \"기말 공부/easy/libOverflow.sol\":549:677  function noOverflow1(uint8 _num1, uint8 _num2) public pure returns (uint8)\r... */\n    tag_14:\n        /* \"기말 공부/easy/libOverflow.sol\":617:622  uint8 */\n      0x00\n        /* \"기말 공부/easy/libOverflow.sol\":647:669  Math.add(_num1, _num2) */\n      tag_20\n        /* \"기말 공부/easy/libOverflow.sol\":656:661  _num1 */\n      dup4\n        /* \"기말 공부/easy/libOverflow.sol\":663:668  _num2 */\n      dup4\n        /* \"기말 공부/easy/libOverflow.sol\":647:655  Math.add */\n      tag_17\n        /* \"기말 공부/easy/libOverflow.sol\":647:669  Math.add(_num1, _num2) */\n      jump\t// in\n    tag_20:\n        /* \"기말 공부/easy/libOverflow.sol\":640:669  return Math.add(_num1, _num2) */\n      swap1\n      pop\n        /* \"기말 공부/easy/libOverflow.sol\":549:677  function noOverflow1(uint8 _num1, uint8 _num2) public pure returns (uint8)\r... */\n      swap3\n      swap2\n      pop\n      pop\n      jump\t// out\n        /* \"기말 공부/easy/libOverflow.sol\":202:358  function add(uint8 a, uint8 b) internal pure returns (uint8)\r... */\n    tag_17:\n        /* \"기말 공부/easy/libOverflow.sol\":256:261  uint8 */\n      0x00\n        /* \"기말 공부/easy/libOverflow.sol\":296:297  a */\n      dup3\n        /* \"기말 공부/easy/libOverflow.sol\":287:297  a + b >= a */\n      0xff\n      and\n        /* \"기말 공부/easy/libOverflow.sol\":291:292  b */\n      dup3\n        /* \"기말 공부/easy/libOverflow.sol\":287:288  a */\n      dup5\n        /* \"기말 공부/easy/libOverflow.sol\":287:292  a + b */\n      add\n        /* \"기말 공부/easy/libOverflow.sol\":287:297  a + b >= a */\n      0xff\n      and\n      lt\n      iszero\n        /* \"기말 공부/easy/libOverflow.sol\":279:327  require(a + b >= a, \"Error : addition overflow\") */\n      tag_22\n      jumpi\n      mload(0x40)\n      0x08c379a000000000000000000000000000000000000000000000000000000000\n      dup2\n      mstore\n      0x04\n      add\n      dup1\n      dup1\n      0x20\n      add\n      dup3\n      dup2\n      sub\n      dup3\n      mstore\n      0x19\n      dup2\n      mstore\n      0x20\n      add\n      dup1\n      0x4572726f72203a206164646974696f6e206f766572666c6f7700000000000000\n      dup2\n      mstore\n      pop\n      0x20\n      add\n      swap2\n      pop\n      pop\n      mload(0x40)\n      dup1\n      swap2\n      sub\n      swap1\n      revert\n    tag_22:\n        /* \"기말 공부/easy/libOverflow.sol\":349:350  b */\n      dup2\n        /* \"기말 공부/easy/libOverflow.sol\":345:346  a */\n      dup4\n        /* \"기말 공부/easy/libOverflow.sol\":345:350  a + b */\n      add\n        /* \"기말 공부/easy/libOverflow.sol\":338:350  return a + b */\n      swap1\n      pop\n        /* \"기말 공부/easy/libOverflow.sol\":202:358  function add(uint8 a, uint8 b) internal pure returns (uint8)\r... */\n      swap3\n      swap2\n      pop\n      pop\n      jump\t// out\n\n    auxdata: 0xa2646970667358221220c3573f4e8ba8beac20882bb1fbe8169cdd1f379f17c8298319bffa9d4114f53164736f6c63430007060033\n}\n",
				"bytecode": {
					"linkReferences": {},
					"object": "608060405234801561001057600080fd5b50610247806100206000396000f3fe608060405234801561001057600080fd5b50600436106100415760003560e01c8063508397101461004657806356e2778c1461009b578063b71602b3146100f0575b600080fd5b6100826004803603604081101561005c57600080fd5b81019080803560ff169060200190929190803560ff169060200190929190505050610145565b604051808260ff16815260200191505060405180910390f35b6100d7600480360360408110156100b157600080fd5b81019080803560ff169060200190929190803560ff169060200190929190505050610165565b604051808260ff16815260200191505060405180910390f35b61012c6004803603604081101561010657600080fd5b81019080803560ff169060200190929190803560ff169060200190929190505050610172565b604051808260ff16815260200191505060405180910390f35b600061015d828460ff1661018690919063ffffffff16565b905092915050565b6000818301905092915050565b600061017e8383610186565b905092915050565b60008260ff1682840160ff161015610206576040517f08c379a00000000000000000000000000000000000000000000000000000000081526004018080602001828103825260198152602001807f4572726f72203a206164646974696f6e206f766572666c6f770000000000000081525060200191505060405180910390fd5b81830190509291505056fea2646970667358221220c3573f4e8ba8beac20882bb1fbe8169cdd1f379f17c8298319bffa9d4114f53164736f6c63430007060033",
					"opcodes": "PUSH1 0x80 PUSH1 0x40 MSTORE CALLVALUE DUP1 ISZERO PUSH2 0x10 JUMPI PUSH1 0x0 DUP1 REVERT JUMPDEST POP PUSH2 0x247 DUP1 PUSH2 0x20 PUSH1 0x0 CODECOPY PUSH1 0x0 RETURN INVALID PUSH1 0x80 PUSH1 0x40 MSTORE CALLVALUE DUP1 ISZERO PUSH2 0x10 JUMPI PUSH1 0x0 DUP1 REVERT JUMPDEST POP PUSH1 0x4 CALLDATASIZE LT PUSH2 0x41 JUMPI PUSH1 0x0 CALLDATALOAD PUSH1 0xE0 SHR DUP1 PUSH4 0x50839710 EQ PUSH2 0x46 JUMPI DUP1 PUSH4 0x56E2778C EQ PUSH2 0x9B JUMPI DUP1 PUSH4 0xB71602B3 EQ PUSH2 0xF0 JUMPI JUMPDEST PUSH1 0x0 DUP1 REVERT JUMPDEST PUSH2 0x82 PUSH1 0x4 DUP1 CALLDATASIZE SUB PUSH1 0x40 DUP2 LT ISZERO PUSH2 0x5C JUMPI PUSH1 0x0 DUP1 REVERT JUMPDEST DUP2 ADD SWAP1 DUP1 DUP1 CALLDATALOAD PUSH1 0xFF AND SWAP1 PUSH1 0x20 ADD SWAP1 SWAP3 SWAP2 SWAP1 DUP1 CALLDATALOAD PUSH1 0xFF AND SWAP1 PUSH1 0x20 ADD SWAP1 SWAP3 SWAP2 SWAP1 POP POP POP PUSH2 0x145 JUMP JUMPDEST PUSH1 0x40 MLOAD DUP1 DUP3 PUSH1 0xFF AND DUP2 MSTORE PUSH1 0x20 ADD SWAP2 POP POP PUSH1 0x40 MLOAD DUP1 SWAP2 SUB SWAP1 RETURN JUMPDEST PUSH2 0xD7 PUSH1 0x4 DUP1 CALLDATASIZE SUB PUSH1 0x40 DUP2 LT ISZERO PUSH2 0xB1 JUMPI PUSH1 0x0 DUP1 REVERT JUMPDEST DUP2 ADD SWAP1 DUP1 DUP1 CALLDATALOAD PUSH1 0xFF AND SWAP1 PUSH1 0x20 ADD SWAP1 SWAP3 SWAP2 SWAP1 DUP1 CALLDATALOAD PUSH1 0xFF AND SWAP1 PUSH1 0x20 ADD SWAP1 SWAP3 SWAP2 SWAP1 POP POP POP PUSH2 0x165 JUMP JUMPDEST PUSH1 0x40 MLOAD DUP1 DUP3 PUSH1 0xFF AND DUP2 MSTORE PUSH1 0x20 ADD SWAP2 POP POP PUSH1 0x40 MLOAD DUP1 SWAP2 SUB SWAP1 RETURN JUMPDEST PUSH2 0x12C PUSH1 0x4 DUP1 CALLDATASIZE SUB PUSH1 0x40 DUP2 LT ISZERO PUSH2 0x106 JUMPI PUSH1 0x0 DUP1 REVERT JUMPDEST DUP2 ADD SWAP1 DUP1 DUP1 CALLDATALOAD PUSH1 0xFF AND SWAP1 PUSH1 0x20 ADD SWAP1 SWAP3 SWAP2 SWAP1 DUP1 CALLDATALOAD PUSH1 0xFF AND SWAP1 PUSH1 0x20 ADD SWAP1 SWAP3 SWAP2 SWAP1 POP POP POP PUSH2 0x172 JUMP JUMPDEST PUSH1 0x40 MLOAD DUP1 DUP3 PUSH1 0xFF AND DUP2 MSTORE PUSH1 0x20 ADD SWAP2 POP POP PUSH1 0x40 MLOAD DUP1 SWAP2 SUB SWAP1 RETURN JUMPDEST PUSH1 0x0 PUSH2 0x15D DUP3 DUP5 PUSH1 0xFF AND PUSH2 0x186 SWAP1 SWAP2 SWAP1 PUSH4 0xFFFFFFFF AND JUMP JUMPDEST SWAP1 POP SWAP3 SWAP2 POP POP JUMP JUMPDEST PUSH1 0x0 DUP2 DUP4 ADD SWAP1 POP SWAP3 SWAP2 POP POP JUMP JUMPDEST PUSH1 0x0 PUSH2 0x17E DUP4 DUP4 PUSH2 0x186 JUMP JUMPDEST SWAP1 POP SWAP3 SWAP2 POP POP JUMP JUMPDEST PUSH1 0x0 DUP3 PUSH1 0xFF AND DUP3 DUP5 ADD PUSH1 0xFF AND LT ISZERO PUSH2 0x206 JUMPI PUSH1 0x40 MLOAD PUSH32 0x8C379A000000000000000000000000000000000000000000000000000000000 DUP2 MSTORE PUSH1 0x4 ADD DUP1 DUP1 PUSH1 0x20 ADD DUP3 DUP2 SUB DUP3 MSTORE PUSH1 0x19 DUP2 MSTORE PUSH1 0x20 ADD DUP1 PUSH32 0x4572726F72203A206164646974696F6E206F766572666C6F7700000000000000 DUP2 MSTORE POP PUSH1 0x20 ADD SWAP2 POP POP PUSH1 0x40 MLOAD DUP1 SWAP2 SUB SWAP1 REVERT JUMPDEST DUP2 DUP4 ADD SWAP1 POP SWAP3 SWAP2 POP POP JUMP INVALID LOG2 PUSH5 0x6970667358 0x22 SLT KECCAK256 0xC3 JUMPI EXTCODEHASH 0x4E DUP12 0xA8 0xBE 0xAC KECCAK256 DUP9 0x2B 0xB1 0xFB 0xE8 AND SWAP13 0xDD 0x1F CALLDATACOPY SWAP16 OR 0xC8 0x29 DUP4 NOT 0xBF STATICCALL SWAP14 COINBASE EQ CREATE2 BALANCE PUSH5 0x736F6C6343 STOP SMOD MOD STOP CALLER "
				},
				"gasEstimates": {
					"creation": {
						"codeDepositCost": "116600",
						"executionCost": "165",
						"totalCost": "116765"
					},
					"external": {
						"noOverflow1(uint8,uint8)": "471",
						"noOverflow2(uint8,uint8)": "infinite",
						"overflow(uint8,uint8)": "353"
					}
				},
				"methodIdentifiers": {
					"noOverflow1(uint8,uint8)": "b71602b3",
					"noOverflow2(uint8,uint8)": "50839710",
					"overflow(uint8,uint8)": "56e2778c"
				}
			},
			"storageLayout": {
				"storage": [],
				"types": null
			},
			"userdoc": {
				"kind": "user",
				"methods": {},
				"version": 1
			}
		}
	}
}