{
	"과제2/croud_funding.sol": {
		"cloud_funding": {
			"abi": [
				{
					"inputs": [
						{
							"internalType": "uint256",
							"name": "_duration",
							"type": "uint256"
						},
						{
							"internalType": "uint256",
							"name": "_goalAmount",
							"type": "uint256"
						}
					],
					"stateMutability": "nonpayable",
					"type": "constructor"
				},
				{
					"anonymous": false,
					"inputs": [
						{
							"indexed": true,
							"internalType": "address",
							"name": "investor",
							"type": "address"
						},
						{
							"indexed": false,
							"internalType": "uint256",
							"name": "amount",
							"type": "uint256"
						}
					],
					"name": "Funded",
					"type": "event"
				},
				{
					"inputs": [],
					"name": "checkGoalReached",
					"outputs": [],
					"stateMutability": "nonpayable",
					"type": "function"
				},
				{
					"inputs": [],
					"name": "deadline",
					"outputs": [
						{
							"internalType": "uint256",
							"name": "",
							"type": "uint256"
						}
					],
					"stateMutability": "view",
					"type": "function"
				},
				{
					"inputs": [],
					"name": "ended",
					"outputs": [
						{
							"internalType": "bool",
							"name": "",
							"type": "bool"
						}
					],
					"stateMutability": "view",
					"type": "function"
				},
				{
					"inputs": [],
					"name": "fund",
					"outputs": [],
					"stateMutability": "payable",
					"type": "function"
				},
				{
					"inputs": [],
					"name": "getInvestors",
					"outputs": [
						{
							"internalType": "address[]",
							"name": "",
							"type": "address[]"
						}
					],
					"stateMutability": "view",
					"type": "function"
				},
				{
					"inputs": [],
					"name": "goalAmount",
					"outputs": [
						{
							"internalType": "uint256",
							"name": "",
							"type": "uint256"
						}
					],
					"stateMutability": "view",
					"type": "function"
				},
				{
					"inputs": [
						{
							"internalType": "uint256",
							"name": "",
							"type": "uint256"
						}
					],
					"name": "investors",
					"outputs": [
						{
							"internalType": "address",
							"name": "addr",
							"type": "address"
						},
						{
							"internalType": "uint256",
							"name": "amount",
							"type": "uint256"
						}
					],
					"stateMutability": "view",
					"type": "function"
				},
				{
					"inputs": [],
					"name": "numInvestors",
					"outputs": [
						{
							"internalType": "uint256",
							"name": "",
							"type": "uint256"
						}
					],
					"stateMutability": "view",
					"type": "function"
				},
				{
					"inputs": [],
					"name": "owner",
					"outputs": [
						{
							"internalType": "address",
							"name": "",
							"type": "address"
						}
					],
					"stateMutability": "view",
					"type": "function"
				},
				{
					"inputs": [],
					"name": "status",
					"outputs": [
						{
							"internalType": "string",
							"name": "",
							"type": "string"
						}
					],
					"stateMutability": "view",
					"type": "function"
				},
				{
					"inputs": [],
					"name": "totalAmount",
					"outputs": [
						{
							"internalType": "uint256",
							"name": "",
							"type": "uint256"
						}
					],
					"stateMutability": "view",
					"type": "function"
				}
			],
			"devdoc": {
				"kind": "dev",
				"methods": {},
				"version": 1
			},
			"evm": {
				"assembly": "    /* \"\\xea\\xb3\\xbc\\xec\\xa0\\x9c2/croud_funding.sol\":61:4617  contract cloud_funding... */\n  mstore(0x40, 0x80)\n    /* \"\\xea\\xb3\\xbc\\xec\\xa0\\x9c2/croud_funding.sol\":892:1490  constructor(uint _duration, uint _goalAmount)... */\n  callvalue\n  dup1\n  iszero\n  tag_1\n  jumpi\n  revert(0x00, 0x00)\ntag_1:\n  pop\n  mload(0x40)\n  sub(codesize, bytecodeSize)\n  dup1\n  bytecodeSize\n  dup4\n  codecopy\n  dup2\n  dup2\n  add\n  0x40\n  mstore\n  dup2\n  add\n  swap1\n  tag_2\n  swap2\n  swap1\n  tag_3\n  jump\t// in\ntag_2:\n    /* \"\\xea\\xb3\\xbc\\xec\\xa0\\x9c2/croud_funding.sol\":964:974  msg.sender */\n  caller\n    /* \"\\xea\\xb3\\xbc\\xec\\xa0\\x9c2/croud_funding.sol\":956:961  owner */\n  0x01\n  0x00\n    /* \"\\xea\\xb3\\xbc\\xec\\xa0\\x9c2/croud_funding.sol\":956:974  owner = msg.sender */\n  0x0100\n  exp\n  dup2\n  sload\n  dup2\n  0xffffffffffffffffffffffffffffffffffffffff\n  mul\n  not\n  and\n  swap1\n  dup4\n  0xffffffffffffffffffffffffffffffffffffffff\n  and\n  mul\n  or\n  swap1\n  sstore\n  pop\n    /* \"\\xea\\xb3\\xbc\\xec\\xa0\\x9c2/croud_funding.sol\":1060:1069  1 seconds */\n  0x01\n    /* \"\\xea\\xb3\\xbc\\xec\\xa0\\x9c2/croud_funding.sol\":1048:1057  _duration */\n  dup3\n    /* \"\\xea\\xb3\\xbc\\xec\\xa0\\x9c2/croud_funding.sol\":1048:1069  _duration * 1 seconds */\n  tag_6\n  swap2\n  swap1\n  tag_7\n  jump\t// in\ntag_6:\n    /* \"\\xea\\xb3\\xbc\\xec\\xa0\\x9c2/croud_funding.sol\":1029:1044  block.timestamp */\n  timestamp\n    /* \"\\xea\\xb3\\xbc\\xec\\xa0\\x9c2/croud_funding.sol\":1029:1070  block.timestamp + (_duration * 1 seconds) */\n  tag_8\n  swap2\n  swap1\n  tag_9\n  jump\t// in\ntag_8:\n    /* \"\\xea\\xb3\\xbc\\xec\\xa0\\x9c2/croud_funding.sol\":1018:1026  deadline */\n  0x03\n    /* \"\\xea\\xb3\\xbc\\xec\\xa0\\x9c2/croud_funding.sol\":1018:1070  deadline = block.timestamp + (_duration * 1 seconds) */\n  dup2\n  swap1\n  sstore\n  pop\n    /* \"\\xea\\xb3\\xbc\\xec\\xa0\\x9c2/croud_funding.sol\":1122:1133  _goalAmount */\n  dup1\n    /* \"\\xea\\xb3\\xbc\\xec\\xa0\\x9c2/croud_funding.sol\":1109:1119  goalAmount */\n  0x06\n    /* \"\\xea\\xb3\\xbc\\xec\\xa0\\x9c2/croud_funding.sol\":1109:1133  goalAmount = _goalAmount */\n  dup2\n  swap1\n  sstore\n  pop\n    /* \"\\xea\\xb3\\xbc\\xec\\xa0\\x9c2/croud_funding.sol\":1188:1206  status = \"Funding\" */\n  mload(0x40)\n  dup1\n  0x40\n  add\n  0x40\n  mstore\n  dup1\n  0x07\n  dup2\n  mstore\n  0x20\n  add\n  0x46756e64696e6700000000000000000000000000000000000000000000000000\n  dup2\n  mstore\n  pop\n    /* \"\\xea\\xb3\\xbc\\xec\\xa0\\x9c2/croud_funding.sol\":1188:1194  status */\n  0x04\n    /* \"\\xea\\xb3\\xbc\\xec\\xa0\\x9c2/croud_funding.sol\":1188:1206  status = \"Funding\" */\n  swap1\n  dup2\n  tag_10\n  swap2\n  swap1\n  tag_11\n  jump\t// in\ntag_10:\n  pop\n    /* \"\\xea\\xb3\\xbc\\xec\\xa0\\x9c2/croud_funding.sol\":1281:1286  false */\n  0x00\n    /* \"\\xea\\xb3\\xbc\\xec\\xa0\\x9c2/croud_funding.sol\":1273:1278  ended */\n  0x05\n  0x00\n    /* \"\\xea\\xb3\\xbc\\xec\\xa0\\x9c2/croud_funding.sol\":1273:1286  ended = false */\n  0x0100\n  exp\n  dup2\n  sload\n  dup2\n  0xff\n  mul\n  not\n  and\n  swap1\n  dup4\n  iszero\n  iszero\n  mul\n  or\n  swap1\n  sstore\n  pop\n    /* \"\\xea\\xb3\\xbc\\xec\\xa0\\x9c2/croud_funding.sol\":1359:1360  0 */\n  0x00\n    /* \"\\xea\\xb3\\xbc\\xec\\xa0\\x9c2/croud_funding.sol\":1344:1356  numInvestors */\n  0x02\n    /* \"\\xea\\xb3\\xbc\\xec\\xa0\\x9c2/croud_funding.sol\":1344:1360  numInvestors = 0 */\n  dup2\n  swap1\n  sstore\n  pop\n    /* \"\\xea\\xb3\\xbc\\xec\\xa0\\x9c2/croud_funding.sol\":1431:1432  0 */\n  0x00\n    /* \"\\xea\\xb3\\xbc\\xec\\xa0\\x9c2/croud_funding.sol\":1417:1428  totalAmount */\n  0x07\n    /* \"\\xea\\xb3\\xbc\\xec\\xa0\\x9c2/croud_funding.sol\":1417:1432  totalAmount = 0 */\n  dup2\n  swap1\n  sstore\n  pop\n    /* \"\\xea\\xb3\\xbc\\xec\\xa0\\x9c2/croud_funding.sol\":892:1490  constructor(uint _duration, uint _goalAmount)... */\n  pop\n  pop\n    /* \"\\xea\\xb3\\xbc\\xec\\xa0\\x9c2/croud_funding.sol\":61:4617  contract cloud_funding... */\n  jump(tag_12)\n    /* \"#utility.yul\":88:205   */\ntag_14:\n    /* \"#utility.yul\":197:198   */\n  0x00\n    /* \"#utility.yul\":194:195   */\n  0x00\n    /* \"#utility.yul\":187:199   */\n  revert\n    /* \"#utility.yul\":334:411   */\ntag_16:\n    /* \"#utility.yul\":371:378   */\n  0x00\n    /* \"#utility.yul\":400:405   */\n  dup2\n    /* \"#utility.yul\":389:405   */\n  swap1\n  pop\n    /* \"#utility.yul\":334:411   */\n  swap2\n  swap1\n  pop\n  jump\t// out\n    /* \"#utility.yul\":417:539   */\ntag_17:\n    /* \"#utility.yul\":490:514   */\n  tag_45\n    /* \"#utility.yul\":508:513   */\n  dup2\n    /* \"#utility.yul\":490:514   */\n  tag_16\n  jump\t// in\ntag_45:\n    /* \"#utility.yul\":483:488   */\n  dup2\n    /* \"#utility.yul\":480:515   */\n  eq\n    /* \"#utility.yul\":470:533   */\n  tag_46\n  jumpi\n    /* \"#utility.yul\":529:530   */\n  0x00\n    /* \"#utility.yul\":526:527   */\n  0x00\n    /* \"#utility.yul\":519:531   */\n  revert\n    /* \"#utility.yul\":470:533   */\ntag_46:\n    /* \"#utility.yul\":417:539   */\n  pop\n  jump\t// out\n    /* \"#utility.yul\":545:688   */\ntag_18:\n    /* \"#utility.yul\":602:607   */\n  0x00\n    /* \"#utility.yul\":633:639   */\n  dup2\n    /* \"#utility.yul\":627:640   */\n  mload\n    /* \"#utility.yul\":618:640   */\n  swap1\n  pop\n    /* \"#utility.yul\":649:682   */\n  tag_48\n    /* \"#utility.yul\":676:681   */\n  dup2\n    /* \"#utility.yul\":649:682   */\n  tag_17\n  jump\t// in\ntag_48:\n    /* \"#utility.yul\":545:688   */\n  swap3\n  swap2\n  pop\n  pop\n  jump\t// out\n    /* \"#utility.yul\":694:1201   */\ntag_3:\n    /* \"#utility.yul\":773:779   */\n  0x00\n    /* \"#utility.yul\":781:787   */\n  0x00\n    /* \"#utility.yul\":830:832   */\n  0x40\n    /* \"#utility.yul\":818:827   */\n  dup4\n    /* \"#utility.yul\":809:816   */\n  dup6\n    /* \"#utility.yul\":805:828   */\n  sub\n    /* \"#utility.yul\":801:833   */\n  slt\n    /* \"#utility.yul\":798:917   */\n  iszero\n  tag_50\n  jumpi\n    /* \"#utility.yul\":836:915   */\n  tag_51\n  tag_14\n  jump\t// in\ntag_51:\n    /* \"#utility.yul\":798:917   */\ntag_50:\n    /* \"#utility.yul\":956:957   */\n  0x00\n    /* \"#utility.yul\":981:1045   */\n  tag_52\n    /* \"#utility.yul\":1037:1044   */\n  dup6\n    /* \"#utility.yul\":1028:1034   */\n  dup3\n    /* \"#utility.yul\":1017:1026   */\n  dup7\n    /* \"#utility.yul\":1013:1035   */\n  add\n    /* \"#utility.yul\":981:1045   */\n  tag_18\n  jump\t// in\ntag_52:\n    /* \"#utility.yul\":971:1045   */\n  swap3\n  pop\n    /* \"#utility.yul\":927:1055   */\n  pop\n    /* \"#utility.yul\":1094:1096   */\n  0x20\n    /* \"#utility.yul\":1120:1184   */\n  tag_53\n    /* \"#utility.yul\":1176:1183   */\n  dup6\n    /* \"#utility.yul\":1167:1173   */\n  dup3\n    /* \"#utility.yul\":1156:1165   */\n  dup7\n    /* \"#utility.yul\":1152:1174   */\n  add\n    /* \"#utility.yul\":1120:1184   */\n  tag_18\n  jump\t// in\ntag_53:\n    /* \"#utility.yul\":1110:1184   */\n  swap2\n  pop\n    /* \"#utility.yul\":1065:1194   */\n  pop\n    /* \"#utility.yul\":694:1201   */\n  swap3\n  pop\n  swap3\n  swap1\n  pop\n  jump\t// out\n    /* \"#utility.yul\":1207:1387   */\ntag_19:\n    /* \"#utility.yul\":1255:1332   */\n  0x4e487b7100000000000000000000000000000000000000000000000000000000\n    /* \"#utility.yul\":1252:1253   */\n  0x00\n    /* \"#utility.yul\":1245:1333   */\n  mstore\n    /* \"#utility.yul\":1352:1356   */\n  0x11\n    /* \"#utility.yul\":1349:1350   */\n  0x04\n    /* \"#utility.yul\":1342:1357   */\n  mstore\n    /* \"#utility.yul\":1376:1380   */\n  0x24\n    /* \"#utility.yul\":1373:1374   */\n  0x00\n    /* \"#utility.yul\":1366:1381   */\n  revert\n    /* \"#utility.yul\":1393:1803   */\ntag_7:\n    /* \"#utility.yul\":1433:1440   */\n  0x00\n    /* \"#utility.yul\":1456:1476   */\n  tag_56\n    /* \"#utility.yul\":1474:1475   */\n  dup3\n    /* \"#utility.yul\":1456:1476   */\n  tag_16\n  jump\t// in\ntag_56:\n    /* \"#utility.yul\":1451:1476   */\n  swap2\n  pop\n    /* \"#utility.yul\":1490:1510   */\n  tag_57\n    /* \"#utility.yul\":1508:1509   */\n  dup4\n    /* \"#utility.yul\":1490:1510   */\n  tag_16\n  jump\t// in\ntag_57:\n    /* \"#utility.yul\":1485:1510   */\n  swap3\n  pop\n    /* \"#utility.yul\":1545:1546   */\n  dup3\n    /* \"#utility.yul\":1542:1543   */\n  dup3\n    /* \"#utility.yul\":1538:1547   */\n  mul\n    /* \"#utility.yul\":1567:1597   */\n  tag_58\n    /* \"#utility.yul\":1585:1596   */\n  dup2\n    /* \"#utility.yul\":1567:1597   */\n  tag_16\n  jump\t// in\ntag_58:\n    /* \"#utility.yul\":1556:1597   */\n  swap2\n  pop\n    /* \"#utility.yul\":1746:1747   */\n  dup3\n    /* \"#utility.yul\":1737:1744   */\n  dup3\n    /* \"#utility.yul\":1733:1748   */\n  div\n    /* \"#utility.yul\":1730:1731   */\n  dup5\n    /* \"#utility.yul\":1727:1749   */\n  eq\n    /* \"#utility.yul\":1707:1708   */\n  dup4\n    /* \"#utility.yul\":1700:1709   */\n  iszero\n    /* \"#utility.yul\":1680:1763   */\n  or\n    /* \"#utility.yul\":1657:1796   */\n  tag_59\n  jumpi\n    /* \"#utility.yul\":1776:1794   */\n  tag_60\n  tag_19\n  jump\t// in\ntag_60:\n    /* \"#utility.yul\":1657:1796   */\ntag_59:\n    /* \"#utility.yul\":1441:1803   */\n  pop\n    /* \"#utility.yul\":1393:1803   */\n  swap3\n  swap2\n  pop\n  pop\n  jump\t// out\n    /* \"#utility.yul\":1809:2000   */\ntag_9:\n    /* \"#utility.yul\":1849:1852   */\n  0x00\n    /* \"#utility.yul\":1868:1888   */\n  tag_62\n    /* \"#utility.yul\":1886:1887   */\n  dup3\n    /* \"#utility.yul\":1868:1888   */\n  tag_16\n  jump\t// in\ntag_62:\n    /* \"#utility.yul\":1863:1888   */\n  swap2\n  pop\n    /* \"#utility.yul\":1902:1922   */\n  tag_63\n    /* \"#utility.yul\":1920:1921   */\n  dup4\n    /* \"#utility.yul\":1902:1922   */\n  tag_16\n  jump\t// in\ntag_63:\n    /* \"#utility.yul\":1897:1922   */\n  swap3\n  pop\n    /* \"#utility.yul\":1945:1946   */\n  dup3\n    /* \"#utility.yul\":1942:1943   */\n  dup3\n    /* \"#utility.yul\":1938:1947   */\n  add\n    /* \"#utility.yul\":1931:1947   */\n  swap1\n  pop\n    /* \"#utility.yul\":1966:1969   */\n  dup1\n    /* \"#utility.yul\":1963:1964   */\n  dup3\n    /* \"#utility.yul\":1960:1970   */\n  gt\n    /* \"#utility.yul\":1957:1993   */\n  iszero\n  tag_64\n  jumpi\n    /* \"#utility.yul\":1973:1991   */\n  tag_65\n  tag_19\n  jump\t// in\ntag_65:\n    /* \"#utility.yul\":1957:1993   */\ntag_64:\n    /* \"#utility.yul\":1809:2000   */\n  swap3\n  swap2\n  pop\n  pop\n  jump\t// out\n    /* \"#utility.yul\":2006:2105   */\ntag_20:\n    /* \"#utility.yul\":2058:2064   */\n  0x00\n    /* \"#utility.yul\":2092:2097   */\n  dup2\n    /* \"#utility.yul\":2086:2098   */\n  mload\n    /* \"#utility.yul\":2076:2098   */\n  swap1\n  pop\n    /* \"#utility.yul\":2006:2105   */\n  swap2\n  swap1\n  pop\n  jump\t// out\n    /* \"#utility.yul\":2111:2291   */\ntag_21:\n    /* \"#utility.yul\":2159:2236   */\n  0x4e487b7100000000000000000000000000000000000000000000000000000000\n    /* \"#utility.yul\":2156:2157   */\n  0x00\n    /* \"#utility.yul\":2149:2237   */\n  mstore\n    /* \"#utility.yul\":2256:2260   */\n  0x41\n    /* \"#utility.yul\":2253:2254   */\n  0x04\n    /* \"#utility.yul\":2246:2261   */\n  mstore\n    /* \"#utility.yul\":2280:2284   */\n  0x24\n    /* \"#utility.yul\":2277:2278   */\n  0x00\n    /* \"#utility.yul\":2270:2285   */\n  revert\n    /* \"#utility.yul\":2297:2477   */\ntag_22:\n    /* \"#utility.yul\":2345:2422   */\n  0x4e487b7100000000000000000000000000000000000000000000000000000000\n    /* \"#utility.yul\":2342:2343   */\n  0x00\n    /* \"#utility.yul\":2335:2423   */\n  mstore\n    /* \"#utility.yul\":2442:2446   */\n  0x22\n    /* \"#utility.yul\":2439:2440   */\n  0x04\n    /* \"#utility.yul\":2432:2447   */\n  mstore\n    /* \"#utility.yul\":2466:2470   */\n  0x24\n    /* \"#utility.yul\":2463:2464   */\n  0x00\n    /* \"#utility.yul\":2456:2471   */\n  revert\n    /* \"#utility.yul\":2483:2803   */\ntag_23:\n    /* \"#utility.yul\":2527:2533   */\n  0x00\n    /* \"#utility.yul\":2564:2565   */\n  0x02\n    /* \"#utility.yul\":2558:2562   */\n  dup3\n    /* \"#utility.yul\":2554:2566   */\n  div\n    /* \"#utility.yul\":2544:2566   */\n  swap1\n  pop\n    /* \"#utility.yul\":2611:2612   */\n  0x01\n    /* \"#utility.yul\":2605:2609   */\n  dup3\n    /* \"#utility.yul\":2601:2613   */\n  and\n    /* \"#utility.yul\":2632:2650   */\n  dup1\n    /* \"#utility.yul\":2622:2703   */\n  tag_70\n  jumpi\n    /* \"#utility.yul\":2688:2692   */\n  0x7f\n    /* \"#utility.yul\":2680:2686   */\n  dup3\n    /* \"#utility.yul\":2676:2693   */\n  and\n    /* \"#utility.yul\":2666:2693   */\n  swap2\n  pop\n    /* \"#utility.yul\":2622:2703   */\ntag_70:\n    /* \"#utility.yul\":2750:2752   */\n  0x20\n    /* \"#utility.yul\":2742:2748   */\n  dup3\n    /* \"#utility.yul\":2739:2753   */\n  lt\n    /* \"#utility.yul\":2719:2737   */\n  dup2\n    /* \"#utility.yul\":2716:2754   */\n  sub\n    /* \"#utility.yul\":2713:2797   */\n  tag_71\n  jumpi\n    /* \"#utility.yul\":2769:2787   */\n  tag_72\n  tag_22\n  jump\t// in\ntag_72:\n    /* \"#utility.yul\":2713:2797   */\ntag_71:\n    /* \"#utility.yul\":2534:2803   */\n  pop\n    /* \"#utility.yul\":2483:2803   */\n  swap2\n  swap1\n  pop\n  jump\t// out\n    /* \"#utility.yul\":2809:2950   */\ntag_24:\n    /* \"#utility.yul\":2858:2862   */\n  0x00\n    /* \"#utility.yul\":2881:2884   */\n  dup2\n    /* \"#utility.yul\":2873:2884   */\n  swap1\n  pop\n    /* \"#utility.yul\":2904:2907   */\n  dup2\n    /* \"#utility.yul\":2901:2902   */\n  0x00\n    /* \"#utility.yul\":2894:2908   */\n  mstore\n    /* \"#utility.yul\":2938:2942   */\n  0x20\n    /* \"#utility.yul\":2935:2936   */\n  0x00\n    /* \"#utility.yul\":2925:2943   */\n  keccak256\n    /* \"#utility.yul\":2917:2943   */\n  swap1\n  pop\n    /* \"#utility.yul\":2809:2950   */\n  swap2\n  swap1\n  pop\n  jump\t// out\n    /* \"#utility.yul\":2956:3049   */\ntag_25:\n    /* \"#utility.yul\":2993:2999   */\n  0x00\n    /* \"#utility.yul\":3040:3042   */\n  0x20\n    /* \"#utility.yul\":3035:3037   */\n  0x1f\n    /* \"#utility.yul\":3028:3033   */\n  dup4\n    /* \"#utility.yul\":3024:3038   */\n  add\n    /* \"#utility.yul\":3020:3043   */\n  div\n    /* \"#utility.yul\":3010:3043   */\n  swap1\n  pop\n    /* \"#utility.yul\":2956:3049   */\n  swap2\n  swap1\n  pop\n  jump\t// out\n    /* \"#utility.yul\":3055:3162   */\ntag_26:\n    /* \"#utility.yul\":3099:3107   */\n  0x00\n    /* \"#utility.yul\":3149:3154   */\n  dup3\n    /* \"#utility.yul\":3143:3147   */\n  dup3\n    /* \"#utility.yul\":3139:3155   */\n  shl\n    /* \"#utility.yul\":3118:3155   */\n  swap1\n  pop\n    /* \"#utility.yul\":3055:3162   */\n  swap3\n  swap2\n  pop\n  pop\n  jump\t// out\n    /* \"#utility.yul\":3168:3561   */\ntag_27:\n    /* \"#utility.yul\":3237:3243   */\n  0x00\n    /* \"#utility.yul\":3287:3288   */\n  0x08\n    /* \"#utility.yul\":3275:3285   */\n  dup4\n    /* \"#utility.yul\":3271:3289   */\n  mul\n    /* \"#utility.yul\":3310:3407   */\n  tag_77\n    /* \"#utility.yul\":3340:3406   */\n  0xffffffffffffffffffffffffffffffffffffffffffffffffffffffffffffffff\n    /* \"#utility.yul\":3329:3338   */\n  dup3\n    /* \"#utility.yul\":3310:3407   */\n  tag_26\n  jump\t// in\ntag_77:\n    /* \"#utility.yul\":3428:3467   */\n  tag_78\n    /* \"#utility.yul\":3458:3466   */\n  dup7\n    /* \"#utility.yul\":3447:3456   */\n  dup4\n    /* \"#utility.yul\":3428:3467   */\n  tag_26\n  jump\t// in\ntag_78:\n    /* \"#utility.yul\":3416:3467   */\n  swap6\n  pop\n    /* \"#utility.yul\":3500:3504   */\n  dup1\n    /* \"#utility.yul\":3496:3505   */\n  not\n    /* \"#utility.yul\":3489:3494   */\n  dup5\n    /* \"#utility.yul\":3485:3506   */\n  and\n    /* \"#utility.yul\":3476:3506   */\n  swap4\n  pop\n    /* \"#utility.yul\":3549:3553   */\n  dup1\n    /* \"#utility.yul\":3539:3547   */\n  dup7\n    /* \"#utility.yul\":3535:3554   */\n  and\n    /* \"#utility.yul\":3528:3533   */\n  dup5\n    /* \"#utility.yul\":3525:3555   */\n  or\n    /* \"#utility.yul\":3515:3555   */\n  swap3\n  pop\n    /* \"#utility.yul\":3244:3561   */\n  pop\n  pop\n    /* \"#utility.yul\":3168:3561   */\n  swap4\n  swap3\n  pop\n  pop\n  pop\n  jump\t// out\n    /* \"#utility.yul\":3567:3627   */\ntag_28:\n    /* \"#utility.yul\":3595:3598   */\n  0x00\n    /* \"#utility.yul\":3616:3621   */\n  dup2\n    /* \"#utility.yul\":3609:3621   */\n  swap1\n  pop\n    /* \"#utility.yul\":3567:3627   */\n  swap2\n  swap1\n  pop\n  jump\t// out\n    /* \"#utility.yul\":3633:3775   */\ntag_29:\n    /* \"#utility.yul\":3683:3692   */\n  0x00\n    /* \"#utility.yul\":3716:3769   */\n  tag_81\n    /* \"#utility.yul\":3734:3768   */\n  tag_82\n    /* \"#utility.yul\":3743:3767   */\n  tag_83\n    /* \"#utility.yul\":3761:3766   */\n  dup5\n    /* \"#utility.yul\":3743:3767   */\n  tag_16\n  jump\t// in\ntag_83:\n    /* \"#utility.yul\":3734:3768   */\n  tag_28\n  jump\t// in\ntag_82:\n    /* \"#utility.yul\":3716:3769   */\n  tag_16\n  jump\t// in\ntag_81:\n    /* \"#utility.yul\":3703:3769   */\n  swap1\n  pop\n    /* \"#utility.yul\":3633:3775   */\n  swap2\n  swap1\n  pop\n  jump\t// out\n    /* \"#utility.yul\":3781:3856   */\ntag_30:\n    /* \"#utility.yul\":3824:3827   */\n  0x00\n    /* \"#utility.yul\":3845:3850   */\n  dup2\n    /* \"#utility.yul\":3838:3850   */\n  swap1\n  pop\n    /* \"#utility.yul\":3781:3856   */\n  swap2\n  swap1\n  pop\n  jump\t// out\n    /* \"#utility.yul\":3862:4131   */\ntag_31:\n    /* \"#utility.yul\":3972:4011   */\n  tag_86\n    /* \"#utility.yul\":4003:4010   */\n  dup4\n    /* \"#utility.yul\":3972:4011   */\n  tag_29\n  jump\t// in\ntag_86:\n    /* \"#utility.yul\":4033:4124   */\n  tag_87\n    /* \"#utility.yul\":4082:4123   */\n  tag_88\n    /* \"#utility.yul\":4106:4122   */\n  dup3\n    /* \"#utility.yul\":4082:4123   */\n  tag_30\n  jump\t// in\ntag_88:\n    /* \"#utility.yul\":4074:4080   */\n  dup5\n    /* \"#utility.yul\":4067:4071   */\n  dup5\n    /* \"#utility.yul\":4061:4072   */\n  sload\n    /* \"#utility.yul\":4033:4124   */\n  tag_27\n  jump\t// in\ntag_87:\n    /* \"#utility.yul\":4027:4031   */\n  dup3\n    /* \"#utility.yul\":4020:4125   */\n  sstore\n    /* \"#utility.yul\":3938:4131   */\n  pop\n    /* \"#utility.yul\":3862:4131   */\n  pop\n  pop\n  pop\n  jump\t// out\n    /* \"#utility.yul\":4137:4210   */\ntag_32:\n    /* \"#utility.yul\":4182:4185   */\n  0x00\n    /* \"#utility.yul\":4203:4204   */\n  0x00\n    /* \"#utility.yul\":4196:4204   */\n  swap1\n  pop\n    /* \"#utility.yul\":4137:4210   */\n  swap1\n  jump\t// out\n    /* \"#utility.yul\":4216:4405   */\ntag_33:\n    /* \"#utility.yul\":4293:4325   */\n  tag_91\n  tag_32\n  jump\t// in\ntag_91:\n    /* \"#utility.yul\":4334:4399   */\n  tag_92\n    /* \"#utility.yul\":4392:4398   */\n  dup2\n    /* \"#utility.yul\":4384:4390   */\n  dup5\n    /* \"#utility.yul\":4378:4382   */\n  dup5\n    /* \"#utility.yul\":4334:4399   */\n  tag_31\n  jump\t// in\ntag_92:\n    /* \"#utility.yul\":4269:4405   */\n  pop\n    /* \"#utility.yul\":4216:4405   */\n  pop\n  pop\n  jump\t// out\n    /* \"#utility.yul\":4411:4625   */\ntag_34:\n    /* \"#utility.yul\":4496:4497   */\n  0x00\n    /* \"#utility.yul\":4481:4619   */\ntag_94:\n    /* \"#utility.yul\":4506:4515   */\n  dup3\n    /* \"#utility.yul\":4503:4504   */\n  dup2\n    /* \"#utility.yul\":4500:4516   */\n  lt\n    /* \"#utility.yul\":4481:4619   */\n  iszero\n  tag_96\n  jumpi\n    /* \"#utility.yul\":4558:4609   */\n  tag_97\n    /* \"#utility.yul\":4607:4608   */\n  0x00\n    /* \"#utility.yul\":4603:4604   */\n  dup3\n    /* \"#utility.yul\":4592:4601   */\n  dup5\n    /* \"#utility.yul\":4588:4605   */\n  add\n    /* \"#utility.yul\":4558:4609   */\n  tag_33\n  jump\t// in\ntag_97:\n    /* \"#utility.yul\":4531:4532   */\n  0x01\n    /* \"#utility.yul\":4528:4529   */\n  dup2\n    /* \"#utility.yul\":4524:4533   */\n  add\n    /* \"#utility.yul\":4519:4533   */\n  swap1\n  pop\n    /* \"#utility.yul\":4481:4619   */\n  jump(tag_94)\ntag_96:\n    /* \"#utility.yul\":4485:4499   */\n  pop\n    /* \"#utility.yul\":4411:4625   */\n  pop\n  pop\n  jump\t// out\n    /* \"#utility.yul\":4631:5377   */\ntag_35:\n    /* \"#utility.yul\":4732:4734   */\n  0x1f\n    /* \"#utility.yul\":4727:4730   */\n  dup3\n    /* \"#utility.yul\":4724:4735   */\n  gt\n    /* \"#utility.yul\":4721:5370   */\n  iszero\n  tag_99\n  jumpi\n    /* \"#utility.yul\":4761:4771   */\n  dup3\n    /* \"#utility.yul\":4756:4759   */\n  dup3\n    /* \"#utility.yul\":4753:4772   */\n  gt\n    /* \"#utility.yul\":4750:5360   */\n  iszero\n  tag_100\n  jumpi\n    /* \"#utility.yul\":4807:4845   */\n  tag_101\n    /* \"#utility.yul\":4839:4844   */\n  dup2\n    /* \"#utility.yul\":4807:4845   */\n  tag_24\n  jump\t// in\ntag_101:\n    /* \"#utility.yul\":4882:4904   */\n  tag_102\n    /* \"#utility.yul\":4900:4903   */\n  dup4\n    /* \"#utility.yul\":4882:4904   */\n  tag_25\n  jump\t// in\ntag_102:\n    /* \"#utility.yul\":4941:4970   */\n  tag_103\n    /* \"#utility.yul\":4959:4969   */\n  dup6\n    /* \"#utility.yul\":4941:4970   */\n  tag_25\n  jump\t// in\ntag_103:\n    /* \"#utility.yul\":5131:5133   */\n  0x20\n    /* \"#utility.yul\":5119:5129   */\n  dup7\n    /* \"#utility.yul\":5116:5134   */\n  lt\n    /* \"#utility.yul\":5113:5192   */\n  iszero\n  tag_104\n  jumpi\n    /* \"#utility.yul\":5173:5174   */\n  0x00\n    /* \"#utility.yul\":5157:5174   */\n  swap1\n  pop\n    /* \"#utility.yul\":5113:5192   */\ntag_104:\n    /* \"#utility.yul\":5242:5254   */\n  dup1\n    /* \"#utility.yul\":5232:5240   */\n  dup4\n    /* \"#utility.yul\":5228:5255   */\n  add\n    /* \"#utility.yul\":5272:5346   */\n  tag_105\n    /* \"#utility.yul\":5332:5344   */\n  dup3\n    /* \"#utility.yul\":5318:5330   */\n  dup5\n    /* \"#utility.yul\":5314:5345   */\n  sub\n    /* \"#utility.yul\":5301:5312   */\n  dup3\n    /* \"#utility.yul\":5272:5346   */\n  tag_34\n  jump\t// in\ntag_105:\n    /* \"#utility.yul\":4773:5360   */\n  pop\n  pop\n  pop\n  pop\n    /* \"#utility.yul\":4750:5360   */\ntag_100:\n    /* \"#utility.yul\":4721:5370   */\ntag_99:\n    /* \"#utility.yul\":4631:5377   */\n  pop\n  pop\n  pop\n  jump\t// out\n    /* \"#utility.yul\":5383:5500   */\ntag_36:\n    /* \"#utility.yul\":5437:5445   */\n  0x00\n    /* \"#utility.yul\":5487:5492   */\n  dup3\n    /* \"#utility.yul\":5481:5485   */\n  dup3\n    /* \"#utility.yul\":5477:5493   */\n  shr\n    /* \"#utility.yul\":5456:5493   */\n  swap1\n  pop\n    /* \"#utility.yul\":5383:5500   */\n  swap3\n  swap2\n  pop\n  pop\n  jump\t// out\n    /* \"#utility.yul\":5506:5675   */\ntag_37:\n    /* \"#utility.yul\":5550:5556   */\n  0x00\n    /* \"#utility.yul\":5583:5634   */\n  tag_108\n    /* \"#utility.yul\":5631:5632   */\n  0x00\n    /* \"#utility.yul\":5627:5633   */\n  not\n    /* \"#utility.yul\":5619:5624   */\n  dup5\n    /* \"#utility.yul\":5616:5617   */\n  0x08\n    /* \"#utility.yul\":5612:5625   */\n  mul\n    /* \"#utility.yul\":5583:5634   */\n  tag_36\n  jump\t// in\ntag_108:\n    /* \"#utility.yul\":5579:5635   */\n  not\n    /* \"#utility.yul\":5664:5668   */\n  dup1\n    /* \"#utility.yul\":5658:5662   */\n  dup4\n    /* \"#utility.yul\":5654:5669   */\n  and\n    /* \"#utility.yul\":5644:5669   */\n  swap2\n  pop\n    /* \"#utility.yul\":5557:5675   */\n  pop\n    /* \"#utility.yul\":5506:5675   */\n  swap3\n  swap2\n  pop\n  pop\n  jump\t// out\n    /* \"#utility.yul\":5680:5975   */\ntag_38:\n    /* \"#utility.yul\":5756:5760   */\n  0x00\n    /* \"#utility.yul\":5902:5931   */\n  tag_110\n    /* \"#utility.yul\":5927:5930   */\n  dup4\n    /* \"#utility.yul\":5921:5925   */\n  dup4\n    /* \"#utility.yul\":5902:5931   */\n  tag_37\n  jump\t// in\ntag_110:\n    /* \"#utility.yul\":5894:5931   */\n  swap2\n  pop\n    /* \"#utility.yul\":5964:5967   */\n  dup3\n    /* \"#utility.yul\":5961:5962   */\n  0x02\n    /* \"#utility.yul\":5957:5968   */\n  mul\n    /* \"#utility.yul\":5951:5955   */\n  dup3\n    /* \"#utility.yul\":5948:5969   */\n  or\n    /* \"#utility.yul\":5940:5969   */\n  swap1\n  pop\n    /* \"#utility.yul\":5680:5975   */\n  swap3\n  swap2\n  pop\n  pop\n  jump\t// out\n    /* \"#utility.yul\":5980:7375   */\ntag_11:\n    /* \"#utility.yul\":6097:6134   */\n  tag_112\n    /* \"#utility.yul\":6130:6133   */\n  dup3\n    /* \"#utility.yul\":6097:6134   */\n  tag_20\n  jump\t// in\ntag_112:\n    /* \"#utility.yul\":6199:6217   */\n  0xffffffffffffffff\n    /* \"#utility.yul\":6191:6197   */\n  dup2\n    /* \"#utility.yul\":6188:6218   */\n  gt\n    /* \"#utility.yul\":6185:6241   */\n  iszero\n  tag_113\n  jumpi\n    /* \"#utility.yul\":6221:6239   */\n  tag_114\n  tag_21\n  jump\t// in\ntag_114:\n    /* \"#utility.yul\":6185:6241   */\ntag_113:\n    /* \"#utility.yul\":6265:6303   */\n  tag_115\n    /* \"#utility.yul\":6297:6301   */\n  dup3\n    /* \"#utility.yul\":6291:6302   */\n  sload\n    /* \"#utility.yul\":6265:6303   */\n  tag_23\n  jump\t// in\ntag_115:\n    /* \"#utility.yul\":6350:6417   */\n  tag_116\n    /* \"#utility.yul\":6410:6416   */\n  dup3\n    /* \"#utility.yul\":6402:6408   */\n  dup3\n    /* \"#utility.yul\":6396:6400   */\n  dup6\n    /* \"#utility.yul\":6350:6417   */\n  tag_35\n  jump\t// in\ntag_116:\n    /* \"#utility.yul\":6444:6445   */\n  0x00\n    /* \"#utility.yul\":6468:6472   */\n  0x20\n    /* \"#utility.yul\":6455:6472   */\n  swap1\n  pop\n    /* \"#utility.yul\":6500:6502   */\n  0x1f\n    /* \"#utility.yul\":6492:6498   */\n  dup4\n    /* \"#utility.yul\":6489:6503   */\n  gt\n    /* \"#utility.yul\":6517:6518   */\n  0x01\n    /* \"#utility.yul\":6512:7130   */\n  dup2\n  eq\n  tag_118\n  jumpi\n    /* \"#utility.yul\":7174:7175   */\n  0x00\n    /* \"#utility.yul\":7191:7197   */\n  dup5\n    /* \"#utility.yul\":7188:7265   */\n  iszero\n  tag_119\n  jumpi\n    /* \"#utility.yul\":7240:7249   */\n  dup3\n    /* \"#utility.yul\":7235:7238   */\n  dup8\n    /* \"#utility.yul\":7231:7250   */\n  add\n    /* \"#utility.yul\":7225:7251   */\n  mload\n    /* \"#utility.yul\":7216:7251   */\n  swap1\n  pop\n    /* \"#utility.yul\":7188:7265   */\ntag_119:\n    /* \"#utility.yul\":7291:7358   */\n  tag_120\n    /* \"#utility.yul\":7351:7357   */\n  dup6\n    /* \"#utility.yul\":7344:7349   */\n  dup3\n    /* \"#utility.yul\":7291:7358   */\n  tag_38\n  jump\t// in\ntag_120:\n    /* \"#utility.yul\":7285:7289   */\n  dup7\n    /* \"#utility.yul\":7278:7359   */\n  sstore\n    /* \"#utility.yul\":7147:7369   */\n  pop\n    /* \"#utility.yul\":6482:7369   */\n  jump(tag_117)\n    /* \"#utility.yul\":6512:7130   */\ntag_118:\n    /* \"#utility.yul\":6564:6568   */\n  0x1f\n    /* \"#utility.yul\":6560:6569   */\n  not\n    /* \"#utility.yul\":6552:6558   */\n  dup5\n    /* \"#utility.yul\":6548:6570   */\n  and\n    /* \"#utility.yul\":6598:6635   */\n  tag_121\n    /* \"#utility.yul\":6630:6634   */\n  dup7\n    /* \"#utility.yul\":6598:6635   */\n  tag_24\n  jump\t// in\ntag_121:\n    /* \"#utility.yul\":6657:6658   */\n  0x00\n    /* \"#utility.yul\":6671:6879   */\ntag_122:\n    /* \"#utility.yul\":6685:6692   */\n  dup3\n    /* \"#utility.yul\":6682:6683   */\n  dup2\n    /* \"#utility.yul\":6679:6693   */\n  lt\n    /* \"#utility.yul\":6671:6879   */\n  iszero\n  tag_124\n  jumpi\n    /* \"#utility.yul\":6764:6773   */\n  dup5\n    /* \"#utility.yul\":6759:6762   */\n  dup10\n    /* \"#utility.yul\":6755:6774   */\n  add\n    /* \"#utility.yul\":6749:6775   */\n  mload\n    /* \"#utility.yul\":6741:6747   */\n  dup3\n    /* \"#utility.yul\":6734:6776   */\n  sstore\n    /* \"#utility.yul\":6815:6816   */\n  0x01\n    /* \"#utility.yul\":6807:6813   */\n  dup3\n    /* \"#utility.yul\":6803:6817   */\n  add\n    /* \"#utility.yul\":6793:6817   */\n  swap2\n  pop\n    /* \"#utility.yul\":6862:6864   */\n  0x20\n    /* \"#utility.yul\":6851:6860   */\n  dup6\n    /* \"#utility.yul\":6847:6865   */\n  add\n    /* \"#utility.yul\":6834:6865   */\n  swap5\n  pop\n    /* \"#utility.yul\":6708:6712   */\n  0x20\n    /* \"#utility.yul\":6705:6706   */\n  dup2\n    /* \"#utility.yul\":6701:6713   */\n  add\n    /* \"#utility.yul\":6696:6713   */\n  swap1\n  pop\n    /* \"#utility.yul\":6671:6879   */\n  jump(tag_122)\ntag_124:\n    /* \"#utility.yul\":6907:6913   */\n  dup7\n    /* \"#utility.yul\":6898:6905   */\n  dup4\n    /* \"#utility.yul\":6895:6914   */\n  lt\n    /* \"#utility.yul\":6892:7071   */\n  iszero\n  tag_125\n  jumpi\n    /* \"#utility.yul\":6965:6974   */\n  dup5\n    /* \"#utility.yul\":6960:6963   */\n  dup10\n    /* \"#utility.yul\":6956:6975   */\n  add\n    /* \"#utility.yul\":6950:6976   */\n  mload\n    /* \"#utility.yul\":7008:7056   */\n  tag_126\n    /* \"#utility.yul\":7050:7054   */\n  0x1f\n    /* \"#utility.yul\":7042:7048   */\n  dup10\n    /* \"#utility.yul\":7038:7055   */\n  and\n    /* \"#utility.yul\":7027:7036   */\n  dup3\n    /* \"#utility.yul\":7008:7056   */\n  tag_37\n  jump\t// in\ntag_126:\n    /* \"#utility.yul\":7000:7006   */\n  dup4\n    /* \"#utility.yul\":6993:7057   */\n  sstore\n    /* \"#utility.yul\":6915:7071   */\n  pop\n    /* \"#utility.yul\":6892:7071   */\ntag_125:\n    /* \"#utility.yul\":7117:7118   */\n  0x01\n    /* \"#utility.yul\":7113:7114   */\n  0x02\n    /* \"#utility.yul\":7105:7111   */\n  dup9\n    /* \"#utility.yul\":7101:7115   */\n  mul\n    /* \"#utility.yul\":7097:7119   */\n  add\n    /* \"#utility.yul\":7091:7095   */\n  dup9\n    /* \"#utility.yul\":7084:7120   */\n  sstore\n    /* \"#utility.yul\":6519:7130   */\n  pop\n  pop\n  pop\n    /* \"#utility.yul\":6482:7369   */\ntag_117:\n  pop\n    /* \"#utility.yul\":6072:7375   */\n  pop\n  pop\n  pop\n    /* \"#utility.yul\":5980:7375   */\n  pop\n  pop\n  jump\t// out\n    /* \"\\xea\\xb3\\xbc\\xec\\xa0\\x9c2/croud_funding.sol\":61:4617  contract cloud_funding... */\ntag_12:\n  dataSize(sub_0)\n  dup1\n  dataOffset(sub_0)\n  0x00\n  codecopy\n  0x00\n  return\nstop\n\nsub_0: assembly {\n        /* \"\\xea\\xb3\\xbc\\xec\\xa0\\x9c2/croud_funding.sol\":61:4617  contract cloud_funding... */\n      mstore(0x40, 0x80)\n      jumpi(tag_1, lt(calldatasize, 0x04))\n      shr(0xe0, calldataload(0x00))\n      dup1\n      0x2636b945\n      gt\n      tag_13\n      jumpi\n      dup1\n      0x2636b945\n      eq\n      tag_7\n      jumpi\n      dup1\n      0x29dcb0cf\n      eq\n      tag_8\n      jumpi\n      dup1\n      0x3feb5f2b\n      eq\n      tag_9\n      jumpi\n      dup1\n      0x8da5cb5b\n      eq\n      tag_10\n      jumpi\n      dup1\n      0xb2f5a54c\n      eq\n      tag_11\n      jumpi\n      dup1\n      0xb60d4288\n      eq\n      tag_12\n      jumpi\n      jump(tag_1)\n    tag_13:\n      dup1\n      0x01cb3b20\n      eq\n      tag_2\n      jumpi\n      dup1\n      0x12fa6feb\n      eq\n      tag_3\n      jumpi\n      dup1\n      0x132ae5e9\n      eq\n      tag_4\n      jumpi\n      dup1\n      0x1a39d8ef\n      eq\n      tag_5\n      jumpi\n      dup1\n      0x200d2ed2\n      eq\n      tag_6\n      jumpi\n    tag_1:\n      revert(0x00, 0x00)\n        /* \"\\xea\\xb3\\xbc\\xec\\xa0\\x9c2/croud_funding.sol\":3424:4614  function checkGoalReached () public onlyOwner... */\n    tag_2:\n      callvalue\n      dup1\n      iszero\n      tag_14\n      jumpi\n      revert(0x00, 0x00)\n    tag_14:\n      pop\n      tag_15\n      tag_16\n      jump\t// in\n    tag_15:\n      stop\n        /* \"\\xea\\xb3\\xbc\\xec\\xa0\\x9c2/croud_funding.sol\":669:686  bool public ended */\n    tag_3:\n      callvalue\n      dup1\n      iszero\n      tag_17\n      jumpi\n      revert(0x00, 0x00)\n    tag_17:\n      pop\n      tag_18\n      tag_19\n      jump\t// in\n    tag_18:\n      mload(0x40)\n      tag_20\n      swap2\n      swap1\n      tag_21\n      jump\t// in\n    tag_20:\n      mload(0x40)\n      dup1\n      swap2\n      sub\n      swap1\n      return\n        /* \"\\xea\\xb3\\xbc\\xec\\xa0\\x9c2/croud_funding.sol\":477:501  uint public numInvestors */\n    tag_4:\n      callvalue\n      dup1\n      iszero\n      tag_22\n      jumpi\n      revert(0x00, 0x00)\n    tag_22:\n      pop\n      tag_23\n      tag_24\n      jump\t// in\n    tag_23:\n      mload(0x40)\n      tag_25\n      swap2\n      swap1\n      tag_26\n      jump\t// in\n    tag_25:\n      mload(0x40)\n      dup1\n      swap2\n      sub\n      swap1\n      return\n        /* \"\\xea\\xb3\\xbc\\xec\\xa0\\x9c2/croud_funding.sol\":771:794  uint public totalAmount */\n    tag_5:\n      callvalue\n      dup1\n      iszero\n      tag_27\n      jumpi\n      revert(0x00, 0x00)\n    tag_27:\n      pop\n      tag_28\n      tag_29\n      jump\t// in\n    tag_28:\n      mload(0x40)\n      tag_30\n      swap2\n      swap1\n      tag_26\n      jump\t// in\n    tag_30:\n      mload(0x40)\n      dup1\n      swap2\n      sub\n      swap1\n      return\n        /* \"\\xea\\xb3\\xbc\\xec\\xa0\\x9c2/croud_funding.sol\":572:592  string public status */\n    tag_6:\n      callvalue\n      dup1\n      iszero\n      tag_31\n      jumpi\n      revert(0x00, 0x00)\n    tag_31:\n      pop\n      tag_32\n      tag_33\n      jump\t// in\n    tag_32:\n      mload(0x40)\n      tag_34\n      swap2\n      swap1\n      tag_35\n      jump\t// in\n    tag_34:\n      mload(0x40)\n      dup1\n      swap2\n      sub\n      swap1\n      return\n        /* \"\\xea\\xb3\\xbc\\xec\\xa0\\x9c2/croud_funding.sol\":717:739  uint public goalAmount */\n    tag_7:\n      callvalue\n      dup1\n      iszero\n      tag_36\n      jumpi\n      revert(0x00, 0x00)\n    tag_36:\n      pop\n      tag_37\n      tag_38\n      jump\t// in\n    tag_37:\n      mload(0x40)\n      tag_39\n      swap2\n      swap1\n      tag_26\n      jump\t// in\n    tag_39:\n      mload(0x40)\n      dup1\n      swap2\n      sub\n      swap1\n      return\n        /* \"\\xea\\xb3\\xbc\\xec\\xa0\\x9c2/croud_funding.sol\":525:545  uint public deadline */\n    tag_8:\n      callvalue\n      dup1\n      iszero\n      tag_40\n      jumpi\n      revert(0x00, 0x00)\n    tag_40:\n      pop\n      tag_41\n      tag_42\n      jump\t// in\n    tag_41:\n      mload(0x40)\n      tag_43\n      swap2\n      swap1\n      tag_26\n      jump\t// in\n    tag_43:\n      mload(0x40)\n      dup1\n      swap2\n      sub\n      swap1\n      return\n        /* \"\\xea\\xb3\\xbc\\xec\\xa0\\x9c2/croud_funding.sol\":335:377  mapping(uint => Investor) public investors */\n    tag_9:\n      callvalue\n      dup1\n      iszero\n      tag_44\n      jumpi\n      revert(0x00, 0x00)\n    tag_44:\n      pop\n      tag_45\n      0x04\n      dup1\n      calldatasize\n      sub\n      dup2\n      add\n      swap1\n      tag_46\n      swap2\n      swap1\n      tag_47\n      jump\t// in\n    tag_46:\n      tag_48\n      jump\t// in\n    tag_45:\n      mload(0x40)\n      tag_49\n      swap3\n      swap2\n      swap1\n      tag_50\n      jump\t// in\n    tag_49:\n      mload(0x40)\n      dup1\n      swap2\n      sub\n      swap1\n      return\n        /* \"\\xea\\xb3\\xbc\\xec\\xa0\\x9c2/croud_funding.sol\":424:444  address public owner */\n    tag_10:\n      callvalue\n      dup1\n      iszero\n      tag_51\n      jumpi\n      revert(0x00, 0x00)\n    tag_51:\n      pop\n      tag_52\n      tag_53\n      jump\t// in\n    tag_52:\n      mload(0x40)\n      tag_54\n      swap2\n      swap1\n      tag_55\n      jump\t// in\n    tag_54:\n      mload(0x40)\n      dup1\n      swap2\n      sub\n      swap1\n      return\n        /* \"\\xea\\xb3\\xbc\\xec\\xa0\\x9c2/croud_funding.sol\":2758:3130  function getInvestors() public view returns (address[] memory) ... */\n    tag_11:\n      callvalue\n      dup1\n      iszero\n      tag_56\n      jumpi\n      revert(0x00, 0x00)\n    tag_56:\n      pop\n      tag_57\n      tag_58\n      jump\t// in\n    tag_57:\n      mload(0x40)\n      tag_59\n      swap2\n      swap1\n      tag_60\n      jump\t// in\n    tag_59:\n      mload(0x40)\n      dup1\n      swap2\n      sub\n      swap1\n      return\n        /* \"\\xea\\xb3\\xbc\\xec\\xa0\\x9c2/croud_funding.sol\":1834:2676  function fund() public payable... */\n    tag_12:\n      tag_61\n      tag_62\n      jump\t// in\n    tag_61:\n      stop\n        /* \"\\xea\\xb3\\xbc\\xec\\xa0\\x9c2/croud_funding.sol\":3424:4614  function checkGoalReached () public onlyOwner... */\n    tag_16:\n        /* \"\\xea\\xb3\\xbc\\xec\\xa0\\x9c2/croud_funding.sol\":1716:1721  owner */\n      0x01\n      0x00\n      swap1\n      sload\n      swap1\n      0x0100\n      exp\n      swap1\n      div\n      0xffffffffffffffffffffffffffffffffffffffff\n      and\n        /* \"\\xea\\xb3\\xbc\\xec\\xa0\\x9c2/croud_funding.sol\":1702:1721  msg.sender == owner */\n      0xffffffffffffffffffffffffffffffffffffffff\n      and\n        /* \"\\xea\\xb3\\xbc\\xec\\xa0\\x9c2/croud_funding.sol\":1702:1712  msg.sender */\n      caller\n        /* \"\\xea\\xb3\\xbc\\xec\\xa0\\x9c2/croud_funding.sol\":1702:1721  msg.sender == owner */\n      0xffffffffffffffffffffffffffffffffffffffff\n      and\n      eq\n        /* \"\\xea\\xb3\\xbc\\xec\\xa0\\x9c2/croud_funding.sol\":1694:1751  require(msg.sender == owner,\"You are not owner [Failed]\") */\n      tag_64\n      jumpi\n      mload(0x40)\n      0x08c379a000000000000000000000000000000000000000000000000000000000\n      dup2\n      mstore\n      0x04\n      add\n      tag_65\n      swap1\n      tag_66\n      jump\t// in\n    tag_65:\n      mload(0x40)\n      dup1\n      swap2\n      sub\n      swap1\n      revert\n    tag_64:\n        /* \"\\xea\\xb3\\xbc\\xec\\xa0\\x9c2/croud_funding.sol\":3603:3618  block.timestamp */\n      timestamp\n        /* \"\\xea\\xb3\\xbc\\xec\\xa0\\x9c2/croud_funding.sol\":3592:3600  deadline */\n      sload(0x03)\n        /* \"\\xea\\xb3\\xbc\\xec\\xa0\\x9c2/croud_funding.sol\":3592:3618  deadline < block.timestamp */\n      lt\n        /* \"\\xea\\xb3\\xbc\\xec\\xa0\\x9c2/croud_funding.sol\":3584:3643  require(deadline < block.timestamp, \"Funding is not ended\") */\n      tag_68\n      jumpi\n      mload(0x40)\n      0x08c379a000000000000000000000000000000000000000000000000000000000\n      dup2\n      mstore\n      0x04\n      add\n      tag_69\n      swap1\n      tag_70\n      jump\t// in\n    tag_69:\n      mload(0x40)\n      dup1\n      swap2\n      sub\n      swap1\n      revert\n    tag_68:\n        /* \"\\xea\\xb3\\xbc\\xec\\xa0\\x9c2/croud_funding.sol\":3680:3691  totalAmount */\n      sload(0x07)\n        /* \"\\xea\\xb3\\xbc\\xec\\xa0\\x9c2/croud_funding.sol\":3670:3677  1 ether */\n      0x0de0b6b3a7640000\n        /* \"\\xea\\xb3\\xbc\\xec\\xa0\\x9c2/croud_funding.sol\":3657:3667  goalAmount */\n      sload(0x06)\n        /* \"\\xea\\xb3\\xbc\\xec\\xa0\\x9c2/croud_funding.sol\":3657:3677  goalAmount * 1 ether */\n      tag_71\n      swap2\n      swap1\n      tag_72\n      jump\t// in\n    tag_71:\n        /* \"\\xea\\xb3\\xbc\\xec\\xa0\\x9c2/croud_funding.sol\":3657:3691  goalAmount * 1 ether > totalAmount */\n      gt\n        /* \"\\xea\\xb3\\xbc\\xec\\xa0\\x9c2/croud_funding.sol\":3654:4496  if(goalAmount * 1 ether > totalAmount)    // 모금에서 목표액이 달성 못했을 경우... */\n      iszero\n      tag_73\n      jumpi\n        /* \"\\xea\\xb3\\xbc\\xec\\xa0\\x9c2/croud_funding.sol\":3916:3922  uint i */\n      0x00\n        /* \"\\xea\\xb3\\xbc\\xec\\xa0\\x9c2/croud_funding.sol\":3925:3937  numInvestors */\n      sload(0x02)\n        /* \"\\xea\\xb3\\xbc\\xec\\xa0\\x9c2/croud_funding.sol\":3916:3937  uint i = numInvestors */\n      swap1\n      pop\n        /* \"\\xea\\xb3\\xbc\\xec\\xa0\\x9c2/croud_funding.sol\":3911:4094  for (uint i = numInvestors; i > 0; i--)... */\n    tag_74:\n        /* \"\\xea\\xb3\\xbc\\xec\\xa0\\x9c2/croud_funding.sol\":3943:3944  0 */\n      0x00\n        /* \"\\xea\\xb3\\xbc\\xec\\xa0\\x9c2/croud_funding.sol\":3939:3940  i */\n      dup2\n        /* \"\\xea\\xb3\\xbc\\xec\\xa0\\x9c2/croud_funding.sol\":3939:3944  i > 0 */\n      gt\n        /* \"\\xea\\xb3\\xbc\\xec\\xa0\\x9c2/croud_funding.sol\":3911:4094  for (uint i = numInvestors; i > 0; i--)... */\n      iszero\n      tag_75\n      jumpi\n        /* \"\\xea\\xb3\\xbc\\xec\\xa0\\x9c2/croud_funding.sol\":3983:3991  uint idx */\n      0x00\n        /* \"\\xea\\xb3\\xbc\\xec\\xa0\\x9c2/croud_funding.sol\":3998:3999  1 */\n      0x01\n        /* \"\\xea\\xb3\\xbc\\xec\\xa0\\x9c2/croud_funding.sol\":3994:3995  i */\n      dup3\n        /* \"\\xea\\xb3\\xbc\\xec\\xa0\\x9c2/croud_funding.sol\":3994:3999  i - 1 */\n      tag_77\n      swap2\n      swap1\n      tag_78\n      jump\t// in\n    tag_77:\n        /* \"\\xea\\xb3\\xbc\\xec\\xa0\\x9c2/croud_funding.sol\":3983:3999  uint idx = i - 1 */\n      swap1\n      pop\n        /* \"\\xea\\xb3\\xbc\\xec\\xa0\\x9c2/croud_funding.sol\":4026:4035  investors */\n      0x00\n        /* \"\\xea\\xb3\\xbc\\xec\\xa0\\x9c2/croud_funding.sol\":4026:4040  investors[idx] */\n      0x00\n        /* \"\\xea\\xb3\\xbc\\xec\\xa0\\x9c2/croud_funding.sol\":4036:4039  idx */\n      dup3\n        /* \"\\xea\\xb3\\xbc\\xec\\xa0\\x9c2/croud_funding.sol\":4026:4040  investors[idx] */\n      dup2\n      mstore\n      0x20\n      add\n      swap1\n      dup2\n      mstore\n      0x20\n      add\n      0x00\n      keccak256\n        /* \"\\xea\\xb3\\xbc\\xec\\xa0\\x9c2/croud_funding.sol\":4026:4045  investors[idx].addr */\n      0x00\n      add\n      0x00\n      swap1\n      sload\n      swap1\n      0x0100\n      exp\n      swap1\n      div\n      0xffffffffffffffffffffffffffffffffffffffff\n      and\n        /* \"\\xea\\xb3\\xbc\\xec\\xa0\\x9c2/croud_funding.sol\":4018:4055  payable(investors[idx].addr).transfer */\n      0xffffffffffffffffffffffffffffffffffffffff\n      and\n        /* \"\\xea\\xb3\\xbc\\xec\\xa0\\x9c2/croud_funding.sol\":4018:4078  payable(investors[idx].addr).transfer(investors[idx].amount) */\n      0x08fc\n        /* \"\\xea\\xb3\\xbc\\xec\\xa0\\x9c2/croud_funding.sol\":4056:4065  investors */\n      0x00\n        /* \"\\xea\\xb3\\xbc\\xec\\xa0\\x9c2/croud_funding.sol\":4056:4070  investors[idx] */\n      0x00\n        /* \"\\xea\\xb3\\xbc\\xec\\xa0\\x9c2/croud_funding.sol\":4066:4069  idx */\n      dup5\n        /* \"\\xea\\xb3\\xbc\\xec\\xa0\\x9c2/croud_funding.sol\":4056:4070  investors[idx] */\n      dup2\n      mstore\n      0x20\n      add\n      swap1\n      dup2\n      mstore\n      0x20\n      add\n      0x00\n      keccak256\n        /* \"\\xea\\xb3\\xbc\\xec\\xa0\\x9c2/croud_funding.sol\":4056:4077  investors[idx].amount */\n      0x01\n      add\n      sload\n        /* \"\\xea\\xb3\\xbc\\xec\\xa0\\x9c2/croud_funding.sol\":4018:4078  payable(investors[idx].addr).transfer(investors[idx].amount) */\n      swap1\n      dup2\n      iszero\n      mul\n      swap1\n      mload(0x40)\n      0x00\n      mload(0x40)\n      dup1\n      dup4\n      sub\n      dup2\n      dup6\n      dup9\n      dup9\n      call\n      swap4\n      pop\n      pop\n      pop\n      pop\n      iszero\n      dup1\n      iszero\n      tag_80\n      jumpi\n      returndatacopy(0x00, 0x00, returndatasize)\n      revert(0x00, returndatasize)\n    tag_80:\n      pop\n        /* \"\\xea\\xb3\\xbc\\xec\\xa0\\x9c2/croud_funding.sol\":3964:4094  {... */\n      pop\n        /* \"\\xea\\xb3\\xbc\\xec\\xa0\\x9c2/croud_funding.sol\":3946:3949  i-- */\n      dup1\n      dup1\n      tag_81\n      swap1\n      tag_82\n      jump\t// in\n    tag_81:\n      swap2\n      pop\n      pop\n        /* \"\\xea\\xb3\\xbc\\xec\\xa0\\x9c2/croud_funding.sol\":3911:4094  for (uint i = numInvestors; i > 0; i--)... */\n      jump(tag_74)\n    tag_75:\n      pop\n        /* \"\\xea\\xb3\\xbc\\xec\\xa0\\x9c2/croud_funding.sol\":4164:4190  status = \"Campaign Failed\" */\n      mload(0x40)\n      dup1\n      0x40\n      add\n      0x40\n      mstore\n      dup1\n      0x0f\n      dup2\n      mstore\n      0x20\n      add\n      0x43616d706169676e204661696c65640000000000000000000000000000000000\n      dup2\n      mstore\n      pop\n        /* \"\\xea\\xb3\\xbc\\xec\\xa0\\x9c2/croud_funding.sol\":4164:4170  status */\n      0x04\n        /* \"\\xea\\xb3\\xbc\\xec\\xa0\\x9c2/croud_funding.sol\":4164:4190  status = \"Campaign Failed\" */\n      swap1\n      dup2\n      tag_83\n      swap2\n      swap1\n      tag_84\n      jump\t// in\n    tag_83:\n      pop\n        /* \"\\xea\\xb3\\xbc\\xec\\xa0\\x9c2/croud_funding.sol\":3654:4496  if(goalAmount * 1 ether > totalAmount)    // 모금에서 목표액이 달성 못했을 경우... */\n      jump(tag_85)\n    tag_73:\n        /* \"\\xea\\xb3\\xbc\\xec\\xa0\\x9c2/croud_funding.sol\":4298:4308  msg.sender */\n      caller\n        /* \"\\xea\\xb3\\xbc\\xec\\xa0\\x9c2/croud_funding.sol\":4290:4318  payable(msg.sender).transfer */\n      0xffffffffffffffffffffffffffffffffffffffff\n      and\n        /* \"\\xea\\xb3\\xbc\\xec\\xa0\\x9c2/croud_funding.sol\":4290:4331  payable(msg.sender).transfer(totalAmount) */\n      0x08fc\n        /* \"\\xea\\xb3\\xbc\\xec\\xa0\\x9c2/croud_funding.sol\":4319:4330  totalAmount */\n      sload(0x07)\n        /* \"\\xea\\xb3\\xbc\\xec\\xa0\\x9c2/croud_funding.sol\":4290:4331  payable(msg.sender).transfer(totalAmount) */\n      swap1\n      dup2\n      iszero\n      mul\n      swap1\n      mload(0x40)\n      0x00\n      mload(0x40)\n      dup1\n      dup4\n      sub\n      dup2\n      dup6\n      dup9\n      dup9\n      call\n      swap4\n      pop\n      pop\n      pop\n      pop\n      iszero\n      dup1\n      iszero\n      tag_87\n      jumpi\n      returndatacopy(0x00, 0x00, returndatasize)\n      revert(0x00, returndatasize)\n    tag_87:\n      pop\n        /* \"\\xea\\xb3\\xbc\\xec\\xa0\\x9c2/croud_funding.sol\":4408:4437  status = \"Campaign Succeeded\" */\n      mload(0x40)\n      dup1\n      0x40\n      add\n      0x40\n      mstore\n      dup1\n      0x12\n      dup2\n      mstore\n      0x20\n      add\n      0x43616d706169676e205375636365656465640000000000000000000000000000\n      dup2\n      mstore\n      pop\n        /* \"\\xea\\xb3\\xbc\\xec\\xa0\\x9c2/croud_funding.sol\":4408:4414  status */\n      0x04\n        /* \"\\xea\\xb3\\xbc\\xec\\xa0\\x9c2/croud_funding.sol\":4408:4437  status = \"Campaign Succeeded\" */\n      swap1\n      dup2\n      tag_88\n      swap2\n      swap1\n      tag_84\n      jump\t// in\n    tag_88:\n      pop\n        /* \"\\xea\\xb3\\xbc\\xec\\xa0\\x9c2/croud_funding.sol\":3654:4496  if(goalAmount * 1 ether > totalAmount)    // 모금에서 목표액이 달성 못했을 경우... */\n    tag_85:\n        /* \"\\xea\\xb3\\xbc\\xec\\xa0\\x9c2/croud_funding.sol\":4602:4606  true */\n      0x01\n        /* \"\\xea\\xb3\\xbc\\xec\\xa0\\x9c2/croud_funding.sol\":4594:4599  ended */\n      0x05\n      0x00\n        /* \"\\xea\\xb3\\xbc\\xec\\xa0\\x9c2/croud_funding.sol\":4594:4606  ended = true */\n      0x0100\n      exp\n      dup2\n      sload\n      dup2\n      0xff\n      mul\n      not\n      and\n      swap1\n      dup4\n      iszero\n      iszero\n      mul\n      or\n      swap1\n      sstore\n      pop\n        /* \"\\xea\\xb3\\xbc\\xec\\xa0\\x9c2/croud_funding.sol\":3424:4614  function checkGoalReached () public onlyOwner... */\n      jump\t// out\n        /* \"\\xea\\xb3\\xbc\\xec\\xa0\\x9c2/croud_funding.sol\":669:686  bool public ended */\n    tag_19:\n      0x05\n      0x00\n      swap1\n      sload\n      swap1\n      0x0100\n      exp\n      swap1\n      div\n      0xff\n      and\n      dup2\n      jump\t// out\n        /* \"\\xea\\xb3\\xbc\\xec\\xa0\\x9c2/croud_funding.sol\":477:501  uint public numInvestors */\n    tag_24:\n      sload(0x02)\n      dup2\n      jump\t// out\n        /* \"\\xea\\xb3\\xbc\\xec\\xa0\\x9c2/croud_funding.sol\":771:794  uint public totalAmount */\n    tag_29:\n      sload(0x07)\n      dup2\n      jump\t// out\n        /* \"\\xea\\xb3\\xbc\\xec\\xa0\\x9c2/croud_funding.sol\":572:592  string public status */\n    tag_33:\n      0x04\n      dup1\n      sload\n      tag_89\n      swap1\n      tag_90\n      jump\t// in\n    tag_89:\n      dup1\n      0x1f\n      add\n      0x20\n      dup1\n      swap2\n      div\n      mul\n      0x20\n      add\n      mload(0x40)\n      swap1\n      dup2\n      add\n      0x40\n      mstore\n      dup1\n      swap3\n      swap2\n      swap1\n      dup2\n      dup2\n      mstore\n      0x20\n      add\n      dup3\n      dup1\n      sload\n      tag_91\n      swap1\n      tag_90\n      jump\t// in\n    tag_91:\n      dup1\n      iszero\n      tag_92\n      jumpi\n      dup1\n      0x1f\n      lt\n      tag_93\n      jumpi\n      0x0100\n      dup1\n      dup4\n      sload\n      div\n      mul\n      dup4\n      mstore\n      swap2\n      0x20\n      add\n      swap2\n      jump(tag_92)\n    tag_93:\n      dup3\n      add\n      swap2\n      swap1\n      0x00\n      mstore\n      keccak256(0x00, 0x20)\n      swap1\n    tag_94:\n      dup2\n      sload\n      dup2\n      mstore\n      swap1\n      0x01\n      add\n      swap1\n      0x20\n      add\n      dup1\n      dup4\n      gt\n      tag_94\n      jumpi\n      dup3\n      swap1\n      sub\n      0x1f\n      and\n      dup3\n      add\n      swap2\n    tag_92:\n      pop\n      pop\n      pop\n      pop\n      pop\n      dup2\n      jump\t// out\n        /* \"\\xea\\xb3\\xbc\\xec\\xa0\\x9c2/croud_funding.sol\":717:739  uint public goalAmount */\n    tag_38:\n      sload(0x06)\n      dup2\n      jump\t// out\n        /* \"\\xea\\xb3\\xbc\\xec\\xa0\\x9c2/croud_funding.sol\":525:545  uint public deadline */\n    tag_42:\n      sload(0x03)\n      dup2\n      jump\t// out\n        /* \"\\xea\\xb3\\xbc\\xec\\xa0\\x9c2/croud_funding.sol\":335:377  mapping(uint => Investor) public investors */\n    tag_48:\n      mstore(0x20, 0x00)\n      dup1\n      0x00\n      mstore\n      keccak256(0x00, 0x40)\n      0x00\n      swap2\n      pop\n      swap1\n      pop\n      dup1\n      0x00\n      add\n      0x00\n      swap1\n      sload\n      swap1\n      0x0100\n      exp\n      swap1\n      div\n      0xffffffffffffffffffffffffffffffffffffffff\n      and\n      swap1\n      dup1\n      0x01\n      add\n      sload\n      swap1\n      pop\n      dup3\n      jump\t// out\n        /* \"\\xea\\xb3\\xbc\\xec\\xa0\\x9c2/croud_funding.sol\":424:444  address public owner */\n    tag_53:\n      0x01\n      0x00\n      swap1\n      sload\n      swap1\n      0x0100\n      exp\n      swap1\n      div\n      0xffffffffffffffffffffffffffffffffffffffff\n      and\n      dup2\n      jump\t// out\n        /* \"\\xea\\xb3\\xbc\\xec\\xa0\\x9c2/croud_funding.sol\":2758:3130  function getInvestors() public view returns (address[] memory) ... */\n    tag_58:\n        /* \"\\xea\\xb3\\xbc\\xec\\xa0\\x9c2/croud_funding.sol\":2803:2819  address[] memory */\n      0x60\n        /* \"\\xea\\xb3\\xbc\\xec\\xa0\\x9c2/croud_funding.sol\":2838:2860  address[] memory addrs */\n      0x00\n        /* \"\\xea\\xb3\\xbc\\xec\\xa0\\x9c2/croud_funding.sol\":2877:2889  numInvestors */\n      sload(0x02)\n        /* \"\\xea\\xb3\\xbc\\xec\\xa0\\x9c2/croud_funding.sol\":2863:2890  new address[](numInvestors) */\n      0xffffffffffffffff\n      dup2\n      gt\n      iszero\n      tag_96\n      jumpi\n      tag_97\n      tag_98\n      jump\t// in\n    tag_97:\n    tag_96:\n      mload(0x40)\n      swap1\n      dup1\n      dup3\n      mstore\n      dup1\n      0x20\n      mul\n      0x20\n      add\n      dup3\n      add\n      0x40\n      mstore\n      dup1\n      iszero\n      tag_99\n      jumpi\n      dup2\n      0x20\n      add\n      0x20\n      dup3\n      mul\n      dup1\n      calldatasize\n      dup4\n      calldatacopy\n      dup1\n      dup3\n      add\n      swap2\n      pop\n      pop\n      swap1\n      pop\n    tag_99:\n      pop\n        /* \"\\xea\\xb3\\xbc\\xec\\xa0\\x9c2/croud_funding.sol\":2838:2890  address[] memory addrs = new address[](numInvestors) */\n      swap1\n      pop\n        /* \"\\xea\\xb3\\xbc\\xec\\xa0\\x9c2/croud_funding.sol\":2943:2949  uint i */\n      0x00\n        /* \"\\xea\\xb3\\xbc\\xec\\xa0\\x9c2/croud_funding.sol\":2952:2953  0 */\n      0x00\n        /* \"\\xea\\xb3\\xbc\\xec\\xa0\\x9c2/croud_funding.sol\":2943:2953  uint i = 0 */\n      swap1\n      pop\n        /* \"\\xea\\xb3\\xbc\\xec\\xa0\\x9c2/croud_funding.sol\":2938:3100  for (uint i = 0; i < numInvestors; i++) ... */\n    tag_100:\n        /* \"\\xea\\xb3\\xbc\\xec\\xa0\\x9c2/croud_funding.sol\":2959:2971  numInvestors */\n      sload(0x02)\n        /* \"\\xea\\xb3\\xbc\\xec\\xa0\\x9c2/croud_funding.sol\":2955:2956  i */\n      dup2\n        /* \"\\xea\\xb3\\xbc\\xec\\xa0\\x9c2/croud_funding.sol\":2955:2971  i < numInvestors */\n      lt\n        /* \"\\xea\\xb3\\xbc\\xec\\xa0\\x9c2/croud_funding.sol\":2938:3100  for (uint i = 0; i < numInvestors; i++) ... */\n      iszero\n      tag_101\n      jumpi\n        /* \"\\xea\\xb3\\xbc\\xec\\xa0\\x9c2/croud_funding.sol\":3014:3023  investors */\n      0x00\n        /* \"\\xea\\xb3\\xbc\\xec\\xa0\\x9c2/croud_funding.sol\":3014:3026  investors[i] */\n      0x00\n        /* \"\\xea\\xb3\\xbc\\xec\\xa0\\x9c2/croud_funding.sol\":3024:3025  i */\n      dup3\n        /* \"\\xea\\xb3\\xbc\\xec\\xa0\\x9c2/croud_funding.sol\":3014:3026  investors[i] */\n      dup2\n      mstore\n      0x20\n      add\n      swap1\n      dup2\n      mstore\n      0x20\n      add\n      0x00\n      keccak256\n        /* \"\\xea\\xb3\\xbc\\xec\\xa0\\x9c2/croud_funding.sol\":3014:3031  investors[i].addr */\n      0x00\n      add\n      0x00\n      swap1\n      sload\n      swap1\n      0x0100\n      exp\n      swap1\n      div\n      0xffffffffffffffffffffffffffffffffffffffff\n      and\n        /* \"\\xea\\xb3\\xbc\\xec\\xa0\\x9c2/croud_funding.sol\":3003:3008  addrs */\n      dup3\n        /* \"\\xea\\xb3\\xbc\\xec\\xa0\\x9c2/croud_funding.sol\":3009:3010  i */\n      dup3\n        /* \"\\xea\\xb3\\xbc\\xec\\xa0\\x9c2/croud_funding.sol\":3003:3011  addrs[i] */\n      dup2\n      mload\n      dup2\n      lt\n      tag_103\n      jumpi\n      tag_104\n      tag_105\n      jump\t// in\n    tag_104:\n    tag_103:\n      0x20\n      mul\n      0x20\n      add\n      add\n        /* \"\\xea\\xb3\\xbc\\xec\\xa0\\x9c2/croud_funding.sol\":3003:3031  addrs[i] = investors[i].addr */\n      swap1\n      0xffffffffffffffffffffffffffffffffffffffff\n      and\n      swap1\n      dup2\n      0xffffffffffffffffffffffffffffffffffffffff\n      and\n      dup2\n      mstore\n      pop\n      pop\n        /* \"\\xea\\xb3\\xbc\\xec\\xa0\\x9c2/croud_funding.sol\":2973:2976  i++ */\n      dup1\n      dup1\n      0x01\n      add\n      swap2\n      pop\n      pop\n        /* \"\\xea\\xb3\\xbc\\xec\\xa0\\x9c2/croud_funding.sol\":2938:3100  for (uint i = 0; i < numInvestors; i++) ... */\n      jump(tag_100)\n    tag_101:\n      pop\n        /* \"\\xea\\xb3\\xbc\\xec\\xa0\\x9c2/croud_funding.sol\":3117:3122  addrs */\n      dup1\n        /* \"\\xea\\xb3\\xbc\\xec\\xa0\\x9c2/croud_funding.sol\":3110:3122  return addrs */\n      swap2\n      pop\n      pop\n        /* \"\\xea\\xb3\\xbc\\xec\\xa0\\x9c2/croud_funding.sol\":2758:3130  function getInvestors() public view returns (address[] memory) ... */\n      swap1\n      jump\t// out\n        /* \"\\xea\\xb3\\xbc\\xec\\xa0\\x9c2/croud_funding.sol\":1834:2676  function fund() public payable... */\n    tag_62:\n        /* \"\\xea\\xb3\\xbc\\xec\\xa0\\x9c2/croud_funding.sol\":2001:2006  ended */\n      0x05\n      0x00\n      swap1\n      sload\n      swap1\n      0x0100\n      exp\n      swap1\n      div\n      0xff\n      and\n        /* \"\\xea\\xb3\\xbc\\xec\\xa0\\x9c2/croud_funding.sol\":2000:2006  !ended */\n      iszero\n        /* \"\\xea\\xb3\\xbc\\xec\\xa0\\x9c2/croud_funding.sol\":1992:2028  require(!ended, \"Funding was ended\") */\n      tag_107\n      jumpi\n      mload(0x40)\n      0x08c379a000000000000000000000000000000000000000000000000000000000\n      dup2\n      mstore\n      0x04\n      add\n      tag_108\n      swap1\n      tag_109\n      jump\t// in\n    tag_108:\n      mload(0x40)\n      dup1\n      swap2\n      sub\n      swap1\n      revert\n    tag_107:\n        /* \"\\xea\\xb3\\xbc\\xec\\xa0\\x9c2/croud_funding.sol\":2152:2167  block.timestamp */\n      timestamp\n        /* \"\\xea\\xb3\\xbc\\xec\\xa0\\x9c2/croud_funding.sol\":2141:2149  deadline */\n      sload(0x03)\n        /* \"\\xea\\xb3\\xbc\\xec\\xa0\\x9c2/croud_funding.sol\":2141:2167  deadline > block.timestamp */\n      gt\n        /* \"\\xea\\xb3\\xbc\\xec\\xa0\\x9c2/croud_funding.sol\":2133:2189  require(deadline > block.timestamp, \"Funding was ended\") */\n      tag_110\n      jumpi\n      mload(0x40)\n      0x08c379a000000000000000000000000000000000000000000000000000000000\n      dup2\n      mstore\n      0x04\n      add\n      tag_111\n      swap1\n      tag_109\n      jump\t// in\n    tag_111:\n      mload(0x40)\n      dup1\n      swap2\n      sub\n      swap1\n      revert\n    tag_110:\n        /* \"\\xea\\xb3\\xbc\\xec\\xa0\\x9c2/croud_funding.sol\":2290:2300  msg.sender */\n      caller\n        /* \"\\xea\\xb3\\xbc\\xec\\xa0\\x9c2/croud_funding.sol\":2259:2268  investors */\n      0x00\n        /* \"\\xea\\xb3\\xbc\\xec\\xa0\\x9c2/croud_funding.sol\":2259:2282  investors[numInvestors] */\n      0x00\n        /* \"\\xea\\xb3\\xbc\\xec\\xa0\\x9c2/croud_funding.sol\":2269:2281  numInvestors */\n      sload(0x02)\n        /* \"\\xea\\xb3\\xbc\\xec\\xa0\\x9c2/croud_funding.sol\":2259:2282  investors[numInvestors] */\n      dup2\n      mstore\n      0x20\n      add\n      swap1\n      dup2\n      mstore\n      0x20\n      add\n      0x00\n      keccak256\n        /* \"\\xea\\xb3\\xbc\\xec\\xa0\\x9c2/croud_funding.sol\":2259:2287  investors[numInvestors].addr */\n      0x00\n      add\n      0x00\n        /* \"\\xea\\xb3\\xbc\\xec\\xa0\\x9c2/croud_funding.sol\":2259:2300  investors[numInvestors].addr = msg.sender */\n      0x0100\n      exp\n      dup2\n      sload\n      dup2\n      0xffffffffffffffffffffffffffffffffffffffff\n      mul\n      not\n      and\n      swap1\n      dup4\n      0xffffffffffffffffffffffffffffffffffffffff\n      and\n      mul\n      or\n      swap1\n      sstore\n      pop\n        /* \"\\xea\\xb3\\xbc\\xec\\xa0\\x9c2/croud_funding.sol\":2400:2409  msg.value */\n      callvalue\n        /* \"\\xea\\xb3\\xbc\\xec\\xa0\\x9c2/croud_funding.sol\":2367:2376  investors */\n      0x00\n        /* \"\\xea\\xb3\\xbc\\xec\\xa0\\x9c2/croud_funding.sol\":2367:2390  investors[numInvestors] */\n      0x00\n        /* \"\\xea\\xb3\\xbc\\xec\\xa0\\x9c2/croud_funding.sol\":2377:2389  numInvestors */\n      sload(0x02)\n        /* \"\\xea\\xb3\\xbc\\xec\\xa0\\x9c2/croud_funding.sol\":2367:2390  investors[numInvestors] */\n      dup2\n      mstore\n      0x20\n      add\n      swap1\n      dup2\n      mstore\n      0x20\n      add\n      0x00\n      keccak256\n        /* \"\\xea\\xb3\\xbc\\xec\\xa0\\x9c2/croud_funding.sol\":2367:2397  investors[numInvestors].amount */\n      0x01\n      add\n        /* \"\\xea\\xb3\\xbc\\xec\\xa0\\x9c2/croud_funding.sol\":2367:2409  investors[numInvestors].amount = msg.value */\n      dup2\n      swap1\n      sstore\n      pop\n        /* \"\\xea\\xb3\\xbc\\xec\\xa0\\x9c2/croud_funding.sol\":2481:2490  msg.value */\n      callvalue\n        /* \"\\xea\\xb3\\xbc\\xec\\xa0\\x9c2/croud_funding.sol\":2466:2477  totalAmount */\n      0x07\n      0x00\n        /* \"\\xea\\xb3\\xbc\\xec\\xa0\\x9c2/croud_funding.sol\":2466:2490  totalAmount += msg.value */\n      dup3\n      dup3\n      sload\n      tag_112\n      swap2\n      swap1\n      tag_113\n      jump\t// in\n    tag_112:\n      swap3\n      pop\n      pop\n      dup2\n      swap1\n      sstore\n      pop\n        /* \"\\xea\\xb3\\xbc\\xec\\xa0\\x9c2/croud_funding.sol\":2560:2561  1 */\n      0x01\n        /* \"\\xea\\xb3\\xbc\\xec\\xa0\\x9c2/croud_funding.sol\":2544:2556  numInvestors */\n      0x02\n      0x00\n        /* \"\\xea\\xb3\\xbc\\xec\\xa0\\x9c2/croud_funding.sol\":2544:2561  numInvestors += 1 */\n      dup3\n      dup3\n      sload\n      tag_114\n      swap2\n      swap1\n      tag_113\n      jump\t// in\n    tag_114:\n      swap3\n      pop\n      pop\n      dup2\n      swap1\n      sstore\n      pop\n        /* \"\\xea\\xb3\\xbc\\xec\\xa0\\x9c2/croud_funding.sol\":2646:2656  msg.sender */\n      caller\n        /* \"\\xea\\xb3\\xbc\\xec\\xa0\\x9c2/croud_funding.sol\":2639:2668  Funded(msg.sender, msg.value) */\n      0xffffffffffffffffffffffffffffffffffffffff\n      and\n      0x5af8184bef8e4b45eb9f6ed7734d04da38ced226495548f46e0c8ff8d7d9a524\n        /* \"\\xea\\xb3\\xbc\\xec\\xa0\\x9c2/croud_funding.sol\":2658:2667  msg.value */\n      callvalue\n        /* \"\\xea\\xb3\\xbc\\xec\\xa0\\x9c2/croud_funding.sol\":2639:2668  Funded(msg.sender, msg.value) */\n      mload(0x40)\n      tag_115\n      swap2\n      swap1\n      tag_26\n      jump\t// in\n    tag_115:\n      mload(0x40)\n      dup1\n      swap2\n      sub\n      swap1\n      log2\n        /* \"\\xea\\xb3\\xbc\\xec\\xa0\\x9c2/croud_funding.sol\":1834:2676  function fund() public payable... */\n      jump\t// out\n        /* \"#utility.yul\":7:97   */\n    tag_116:\n        /* \"#utility.yul\":41:48   */\n      0x00\n        /* \"#utility.yul\":84:89   */\n      dup2\n        /* \"#utility.yul\":77:90   */\n      iszero\n        /* \"#utility.yul\":70:91   */\n      iszero\n        /* \"#utility.yul\":59:91   */\n      swap1\n      pop\n        /* \"#utility.yul\":7:97   */\n      swap2\n      swap1\n      pop\n      jump\t// out\n        /* \"#utility.yul\":103:212   */\n    tag_117:\n        /* \"#utility.yul\":184:205   */\n      tag_166\n        /* \"#utility.yul\":199:204   */\n      dup2\n        /* \"#utility.yul\":184:205   */\n      tag_116\n      jump\t// in\n    tag_166:\n        /* \"#utility.yul\":179:182   */\n      dup3\n        /* \"#utility.yul\":172:206   */\n      mstore\n        /* \"#utility.yul\":103:212   */\n      pop\n      pop\n      jump\t// out\n        /* \"#utility.yul\":218:428   */\n    tag_21:\n        /* \"#utility.yul\":305:309   */\n      0x00\n        /* \"#utility.yul\":343:345   */\n      0x20\n        /* \"#utility.yul\":332:341   */\n      dup3\n        /* \"#utility.yul\":328:346   */\n      add\n        /* \"#utility.yul\":320:346   */\n      swap1\n      pop\n        /* \"#utility.yul\":356:421   */\n      tag_168\n        /* \"#utility.yul\":418:419   */\n      0x00\n        /* \"#utility.yul\":407:416   */\n      dup4\n        /* \"#utility.yul\":403:420   */\n      add\n        /* \"#utility.yul\":394:400   */\n      dup5\n        /* \"#utility.yul\":356:421   */\n      tag_117\n      jump\t// in\n    tag_168:\n        /* \"#utility.yul\":218:428   */\n      swap3\n      swap2\n      pop\n      pop\n      jump\t// out\n        /* \"#utility.yul\":434:511   */\n    tag_118:\n        /* \"#utility.yul\":471:478   */\n      0x00\n        /* \"#utility.yul\":500:505   */\n      dup2\n        /* \"#utility.yul\":489:505   */\n      swap1\n      pop\n        /* \"#utility.yul\":434:511   */\n      swap2\n      swap1\n      pop\n      jump\t// out\n        /* \"#utility.yul\":517:635   */\n    tag_119:\n        /* \"#utility.yul\":604:628   */\n      tag_171\n        /* \"#utility.yul\":622:627   */\n      dup2\n        /* \"#utility.yul\":604:628   */\n      tag_118\n      jump\t// in\n    tag_171:\n        /* \"#utility.yul\":599:602   */\n      dup3\n        /* \"#utility.yul\":592:629   */\n      mstore\n        /* \"#utility.yul\":517:635   */\n      pop\n      pop\n      jump\t// out\n        /* \"#utility.yul\":641:863   */\n    tag_26:\n        /* \"#utility.yul\":734:738   */\n      0x00\n        /* \"#utility.yul\":772:774   */\n      0x20\n        /* \"#utility.yul\":761:770   */\n      dup3\n        /* \"#utility.yul\":757:775   */\n      add\n        /* \"#utility.yul\":749:775   */\n      swap1\n      pop\n        /* \"#utility.yul\":785:856   */\n      tag_173\n        /* \"#utility.yul\":853:854   */\n      0x00\n        /* \"#utility.yul\":842:851   */\n      dup4\n        /* \"#utility.yul\":838:855   */\n      add\n        /* \"#utility.yul\":829:835   */\n      dup5\n        /* \"#utility.yul\":785:856   */\n      tag_119\n      jump\t// in\n    tag_173:\n        /* \"#utility.yul\":641:863   */\n      swap3\n      swap2\n      pop\n      pop\n      jump\t// out\n        /* \"#utility.yul\":869:968   */\n    tag_120:\n        /* \"#utility.yul\":921:927   */\n      0x00\n        /* \"#utility.yul\":955:960   */\n      dup2\n        /* \"#utility.yul\":949:961   */\n      mload\n        /* \"#utility.yul\":939:961   */\n      swap1\n      pop\n        /* \"#utility.yul\":869:968   */\n      swap2\n      swap1\n      pop\n      jump\t// out\n        /* \"#utility.yul\":974:1143   */\n    tag_121:\n        /* \"#utility.yul\":1058:1069   */\n      0x00\n        /* \"#utility.yul\":1092:1098   */\n      dup3\n        /* \"#utility.yul\":1087:1090   */\n      dup3\n        /* \"#utility.yul\":1080:1099   */\n      mstore\n        /* \"#utility.yul\":1132:1136   */\n      0x20\n        /* \"#utility.yul\":1127:1130   */\n      dup3\n        /* \"#utility.yul\":1123:1137   */\n      add\n        /* \"#utility.yul\":1108:1137   */\n      swap1\n      pop\n        /* \"#utility.yul\":974:1143   */\n      swap3\n      swap2\n      pop\n      pop\n      jump\t// out\n        /* \"#utility.yul\":1149:1288   */\n    tag_122:\n        /* \"#utility.yul\":1238:1244   */\n      dup3\n        /* \"#utility.yul\":1233:1236   */\n      dup2\n        /* \"#utility.yul\":1228:1231   */\n      dup4\n        /* \"#utility.yul\":1222:1245   */\n      mcopy\n        /* \"#utility.yul\":1279:1280   */\n      0x00\n        /* \"#utility.yul\":1270:1276   */\n      dup4\n        /* \"#utility.yul\":1265:1268   */\n      dup4\n        /* \"#utility.yul\":1261:1277   */\n      add\n        /* \"#utility.yul\":1254:1281   */\n      mstore\n        /* \"#utility.yul\":1149:1288   */\n      pop\n      pop\n      pop\n      jump\t// out\n        /* \"#utility.yul\":1294:1396   */\n    tag_123:\n        /* \"#utility.yul\":1335:1341   */\n      0x00\n        /* \"#utility.yul\":1386:1388   */\n      0x1f\n        /* \"#utility.yul\":1382:1389   */\n      not\n        /* \"#utility.yul\":1377:1379   */\n      0x1f\n        /* \"#utility.yul\":1370:1375   */\n      dup4\n        /* \"#utility.yul\":1366:1380   */\n      add\n        /* \"#utility.yul\":1362:1390   */\n      and\n        /* \"#utility.yul\":1352:1390   */\n      swap1\n      pop\n        /* \"#utility.yul\":1294:1396   */\n      swap2\n      swap1\n      pop\n      jump\t// out\n        /* \"#utility.yul\":1402:1779   */\n    tag_124:\n        /* \"#utility.yul\":1490:1493   */\n      0x00\n        /* \"#utility.yul\":1518:1557   */\n      tag_179\n        /* \"#utility.yul\":1551:1556   */\n      dup3\n        /* \"#utility.yul\":1518:1557   */\n      tag_120\n      jump\t// in\n    tag_179:\n        /* \"#utility.yul\":1573:1644   */\n      tag_180\n        /* \"#utility.yul\":1637:1643   */\n      dup2\n        /* \"#utility.yul\":1632:1635   */\n      dup6\n        /* \"#utility.yul\":1573:1644   */\n      tag_121\n      jump\t// in\n    tag_180:\n        /* \"#utility.yul\":1566:1644   */\n      swap4\n      pop\n        /* \"#utility.yul\":1653:1718   */\n      tag_181\n        /* \"#utility.yul\":1711:1717   */\n      dup2\n        /* \"#utility.yul\":1706:1709   */\n      dup6\n        /* \"#utility.yul\":1699:1703   */\n      0x20\n        /* \"#utility.yul\":1692:1697   */\n      dup7\n        /* \"#utility.yul\":1688:1704   */\n      add\n        /* \"#utility.yul\":1653:1718   */\n      tag_122\n      jump\t// in\n    tag_181:\n        /* \"#utility.yul\":1743:1772   */\n      tag_182\n        /* \"#utility.yul\":1765:1771   */\n      dup2\n        /* \"#utility.yul\":1743:1772   */\n      tag_123\n      jump\t// in\n    tag_182:\n        /* \"#utility.yul\":1738:1741   */\n      dup5\n        /* \"#utility.yul\":1734:1773   */\n      add\n        /* \"#utility.yul\":1727:1773   */\n      swap2\n      pop\n        /* \"#utility.yul\":1494:1779   */\n      pop\n        /* \"#utility.yul\":1402:1779   */\n      swap3\n      swap2\n      pop\n      pop\n      jump\t// out\n        /* \"#utility.yul\":1785:2098   */\n    tag_35:\n        /* \"#utility.yul\":1898:1902   */\n      0x00\n        /* \"#utility.yul\":1936:1938   */\n      0x20\n        /* \"#utility.yul\":1925:1934   */\n      dup3\n        /* \"#utility.yul\":1921:1939   */\n      add\n        /* \"#utility.yul\":1913:1939   */\n      swap1\n      pop\n        /* \"#utility.yul\":1985:1994   */\n      dup2\n        /* \"#utility.yul\":1979:1983   */\n      dup2\n        /* \"#utility.yul\":1975:1995   */\n      sub\n        /* \"#utility.yul\":1971:1972   */\n      0x00\n        /* \"#utility.yul\":1960:1969   */\n      dup4\n        /* \"#utility.yul\":1956:1973   */\n      add\n        /* \"#utility.yul\":1949:1996   */\n      mstore\n        /* \"#utility.yul\":2013:2091   */\n      tag_184\n        /* \"#utility.yul\":2086:2090   */\n      dup2\n        /* \"#utility.yul\":2077:2083   */\n      dup5\n        /* \"#utility.yul\":2013:2091   */\n      tag_124\n      jump\t// in\n    tag_184:\n        /* \"#utility.yul\":2005:2091   */\n      swap1\n      pop\n        /* \"#utility.yul\":1785:2098   */\n      swap3\n      swap2\n      pop\n      pop\n      jump\t// out\n        /* \"#utility.yul\":2185:2302   */\n    tag_126:\n        /* \"#utility.yul\":2294:2295   */\n      0x00\n        /* \"#utility.yul\":2291:2292   */\n      0x00\n        /* \"#utility.yul\":2284:2296   */\n      revert\n        /* \"#utility.yul\":2431:2553   */\n    tag_128:\n        /* \"#utility.yul\":2504:2528   */\n      tag_189\n        /* \"#utility.yul\":2522:2527   */\n      dup2\n        /* \"#utility.yul\":2504:2528   */\n      tag_118\n      jump\t// in\n    tag_189:\n        /* \"#utility.yul\":2497:2502   */\n      dup2\n        /* \"#utility.yul\":2494:2529   */\n      eq\n        /* \"#utility.yul\":2484:2547   */\n      tag_190\n      jumpi\n        /* \"#utility.yul\":2543:2544   */\n      0x00\n        /* \"#utility.yul\":2540:2541   */\n      0x00\n        /* \"#utility.yul\":2533:2545   */\n      revert\n        /* \"#utility.yul\":2484:2547   */\n    tag_190:\n        /* \"#utility.yul\":2431:2553   */\n      pop\n      jump\t// out\n        /* \"#utility.yul\":2559:2698   */\n    tag_129:\n        /* \"#utility.yul\":2605:2610   */\n      0x00\n        /* \"#utility.yul\":2643:2649   */\n      dup2\n        /* \"#utility.yul\":2630:2650   */\n      calldataload\n        /* \"#utility.yul\":2621:2650   */\n      swap1\n      pop\n        /* \"#utility.yul\":2659:2692   */\n      tag_192\n        /* \"#utility.yul\":2686:2691   */\n      dup2\n        /* \"#utility.yul\":2659:2692   */\n      tag_128\n      jump\t// in\n    tag_192:\n        /* \"#utility.yul\":2559:2698   */\n      swap3\n      swap2\n      pop\n      pop\n      jump\t// out\n        /* \"#utility.yul\":2704:3033   */\n    tag_47:\n        /* \"#utility.yul\":2763:2769   */\n      0x00\n        /* \"#utility.yul\":2812:2814   */\n      0x20\n        /* \"#utility.yul\":2800:2809   */\n      dup3\n        /* \"#utility.yul\":2791:2798   */\n      dup5\n        /* \"#utility.yul\":2787:2810   */\n      sub\n        /* \"#utility.yul\":2783:2815   */\n      slt\n        /* \"#utility.yul\":2780:2899   */\n      iszero\n      tag_194\n      jumpi\n        /* \"#utility.yul\":2818:2897   */\n      tag_195\n      tag_126\n      jump\t// in\n    tag_195:\n        /* \"#utility.yul\":2780:2899   */\n    tag_194:\n        /* \"#utility.yul\":2938:2939   */\n      0x00\n        /* \"#utility.yul\":2963:3016   */\n      tag_196\n        /* \"#utility.yul\":3008:3015   */\n      dup5\n        /* \"#utility.yul\":2999:3005   */\n      dup3\n        /* \"#utility.yul\":2988:2997   */\n      dup6\n        /* \"#utility.yul\":2984:3006   */\n      add\n        /* \"#utility.yul\":2963:3016   */\n      tag_129\n      jump\t// in\n    tag_196:\n        /* \"#utility.yul\":2953:3016   */\n      swap2\n      pop\n        /* \"#utility.yul\":2909:3026   */\n      pop\n        /* \"#utility.yul\":2704:3033   */\n      swap3\n      swap2\n      pop\n      pop\n      jump\t// out\n        /* \"#utility.yul\":3039:3165   */\n    tag_130:\n        /* \"#utility.yul\":3076:3083   */\n      0x00\n        /* \"#utility.yul\":3116:3158   */\n      0xffffffffffffffffffffffffffffffffffffffff\n        /* \"#utility.yul\":3109:3114   */\n      dup3\n        /* \"#utility.yul\":3105:3159   */\n      and\n        /* \"#utility.yul\":3094:3159   */\n      swap1\n      pop\n        /* \"#utility.yul\":3039:3165   */\n      swap2\n      swap1\n      pop\n      jump\t// out\n        /* \"#utility.yul\":3171:3267   */\n    tag_131:\n        /* \"#utility.yul\":3208:3215   */\n      0x00\n        /* \"#utility.yul\":3237:3261   */\n      tag_199\n        /* \"#utility.yul\":3255:3260   */\n      dup3\n        /* \"#utility.yul\":3237:3261   */\n      tag_130\n      jump\t// in\n    tag_199:\n        /* \"#utility.yul\":3226:3261   */\n      swap1\n      pop\n        /* \"#utility.yul\":3171:3267   */\n      swap2\n      swap1\n      pop\n      jump\t// out\n        /* \"#utility.yul\":3273:3391   */\n    tag_132:\n        /* \"#utility.yul\":3360:3384   */\n      tag_201\n        /* \"#utility.yul\":3378:3383   */\n      dup2\n        /* \"#utility.yul\":3360:3384   */\n      tag_131\n      jump\t// in\n    tag_201:\n        /* \"#utility.yul\":3355:3358   */\n      dup3\n        /* \"#utility.yul\":3348:3385   */\n      mstore\n        /* \"#utility.yul\":3273:3391   */\n      pop\n      pop\n      jump\t// out\n        /* \"#utility.yul\":3397:3729   */\n    tag_50:\n        /* \"#utility.yul\":3518:3522   */\n      0x00\n        /* \"#utility.yul\":3556:3558   */\n      0x40\n        /* \"#utility.yul\":3545:3554   */\n      dup3\n        /* \"#utility.yul\":3541:3559   */\n      add\n        /* \"#utility.yul\":3533:3559   */\n      swap1\n      pop\n        /* \"#utility.yul\":3569:3640   */\n      tag_203\n        /* \"#utility.yul\":3637:3638   */\n      0x00\n        /* \"#utility.yul\":3626:3635   */\n      dup4\n        /* \"#utility.yul\":3622:3639   */\n      add\n        /* \"#utility.yul\":3613:3619   */\n      dup6\n        /* \"#utility.yul\":3569:3640   */\n      tag_132\n      jump\t// in\n    tag_203:\n        /* \"#utility.yul\":3650:3722   */\n      tag_204\n        /* \"#utility.yul\":3718:3720   */\n      0x20\n        /* \"#utility.yul\":3707:3716   */\n      dup4\n        /* \"#utility.yul\":3703:3721   */\n      add\n        /* \"#utility.yul\":3694:3700   */\n      dup5\n        /* \"#utility.yul\":3650:3722   */\n      tag_119\n      jump\t// in\n    tag_204:\n        /* \"#utility.yul\":3397:3729   */\n      swap4\n      swap3\n      pop\n      pop\n      pop\n      jump\t// out\n        /* \"#utility.yul\":3735:3957   */\n    tag_55:\n        /* \"#utility.yul\":3828:3832   */\n      0x00\n        /* \"#utility.yul\":3866:3868   */\n      0x20\n        /* \"#utility.yul\":3855:3864   */\n      dup3\n        /* \"#utility.yul\":3851:3869   */\n      add\n        /* \"#utility.yul\":3843:3869   */\n      swap1\n      pop\n        /* \"#utility.yul\":3879:3950   */\n      tag_206\n        /* \"#utility.yul\":3947:3948   */\n      0x00\n        /* \"#utility.yul\":3936:3945   */\n      dup4\n        /* \"#utility.yul\":3932:3949   */\n      add\n        /* \"#utility.yul\":3923:3929   */\n      dup5\n        /* \"#utility.yul\":3879:3950   */\n      tag_132\n      jump\t// in\n    tag_206:\n        /* \"#utility.yul\":3735:3957   */\n      swap3\n      swap2\n      pop\n      pop\n      jump\t// out\n        /* \"#utility.yul\":3963:4077   */\n    tag_133:\n        /* \"#utility.yul\":4030:4036   */\n      0x00\n        /* \"#utility.yul\":4064:4069   */\n      dup2\n        /* \"#utility.yul\":4058:4070   */\n      mload\n        /* \"#utility.yul\":4048:4070   */\n      swap1\n      pop\n        /* \"#utility.yul\":3963:4077   */\n      swap2\n      swap1\n      pop\n      jump\t// out\n        /* \"#utility.yul\":4083:4267   */\n    tag_134:\n        /* \"#utility.yul\":4182:4193   */\n      0x00\n        /* \"#utility.yul\":4216:4222   */\n      dup3\n        /* \"#utility.yul\":4211:4214   */\n      dup3\n        /* \"#utility.yul\":4204:4223   */\n      mstore\n        /* \"#utility.yul\":4256:4260   */\n      0x20\n        /* \"#utility.yul\":4251:4254   */\n      dup3\n        /* \"#utility.yul\":4247:4261   */\n      add\n        /* \"#utility.yul\":4232:4261   */\n      swap1\n      pop\n        /* \"#utility.yul\":4083:4267   */\n      swap3\n      swap2\n      pop\n      pop\n      jump\t// out\n        /* \"#utility.yul\":4273:4405   */\n    tag_135:\n        /* \"#utility.yul\":4340:4344   */\n      0x00\n        /* \"#utility.yul\":4363:4366   */\n      dup2\n        /* \"#utility.yul\":4355:4366   */\n      swap1\n      pop\n        /* \"#utility.yul\":4393:4397   */\n      0x20\n        /* \"#utility.yul\":4388:4391   */\n      dup3\n        /* \"#utility.yul\":4384:4398   */\n      add\n        /* \"#utility.yul\":4376:4398   */\n      swap1\n      pop\n        /* \"#utility.yul\":4273:4405   */\n      swap2\n      swap1\n      pop\n      jump\t// out\n        /* \"#utility.yul\":4411:4519   */\n    tag_136:\n        /* \"#utility.yul\":4488:4512   */\n      tag_211\n        /* \"#utility.yul\":4506:4511   */\n      dup2\n        /* \"#utility.yul\":4488:4512   */\n      tag_131\n      jump\t// in\n    tag_211:\n        /* \"#utility.yul\":4483:4486   */\n      dup3\n        /* \"#utility.yul\":4476:4513   */\n      mstore\n        /* \"#utility.yul\":4411:4519   */\n      pop\n      pop\n      jump\t// out\n        /* \"#utility.yul\":4525:4704   */\n    tag_137:\n        /* \"#utility.yul\":4594:4604   */\n      0x00\n        /* \"#utility.yul\":4615:4661   */\n      tag_213\n        /* \"#utility.yul\":4657:4660   */\n      dup4\n        /* \"#utility.yul\":4649:4655   */\n      dup4\n        /* \"#utility.yul\":4615:4661   */\n      tag_136\n      jump\t// in\n    tag_213:\n        /* \"#utility.yul\":4693:4697   */\n      0x20\n        /* \"#utility.yul\":4688:4691   */\n      dup4\n        /* \"#utility.yul\":4684:4698   */\n      add\n        /* \"#utility.yul\":4670:4698   */\n      swap1\n      pop\n        /* \"#utility.yul\":4525:4704   */\n      swap3\n      swap2\n      pop\n      pop\n      jump\t// out\n        /* \"#utility.yul\":4710:4823   */\n    tag_138:\n        /* \"#utility.yul\":4780:4784   */\n      0x00\n        /* \"#utility.yul\":4812:4816   */\n      0x20\n        /* \"#utility.yul\":4807:4810   */\n      dup3\n        /* \"#utility.yul\":4803:4817   */\n      add\n        /* \"#utility.yul\":4795:4817   */\n      swap1\n      pop\n        /* \"#utility.yul\":4710:4823   */\n      swap2\n      swap1\n      pop\n      jump\t// out\n        /* \"#utility.yul\":4859:5591   */\n    tag_139:\n        /* \"#utility.yul\":4978:4981   */\n      0x00\n        /* \"#utility.yul\":5007:5061   */\n      tag_216\n        /* \"#utility.yul\":5055:5060   */\n      dup3\n        /* \"#utility.yul\":5007:5061   */\n      tag_133\n      jump\t// in\n    tag_216:\n        /* \"#utility.yul\":5077:5163   */\n      tag_217\n        /* \"#utility.yul\":5156:5162   */\n      dup2\n        /* \"#utility.yul\":5151:5154   */\n      dup6\n        /* \"#utility.yul\":5077:5163   */\n      tag_134\n      jump\t// in\n    tag_217:\n        /* \"#utility.yul\":5070:5163   */\n      swap4\n      pop\n        /* \"#utility.yul\":5187:5243   */\n      tag_218\n        /* \"#utility.yul\":5237:5242   */\n      dup4\n        /* \"#utility.yul\":5187:5243   */\n      tag_135\n      jump\t// in\n    tag_218:\n        /* \"#utility.yul\":5266:5273   */\n      dup1\n        /* \"#utility.yul\":5297:5298   */\n      0x00\n        /* \"#utility.yul\":5282:5566   */\n    tag_219:\n        /* \"#utility.yul\":5307:5313   */\n      dup4\n        /* \"#utility.yul\":5304:5305   */\n      dup2\n        /* \"#utility.yul\":5301:5314   */\n      lt\n        /* \"#utility.yul\":5282:5566   */\n      iszero\n      tag_221\n      jumpi\n        /* \"#utility.yul\":5383:5389   */\n      dup2\n        /* \"#utility.yul\":5377:5390   */\n      mload\n        /* \"#utility.yul\":5410:5473   */\n      tag_222\n        /* \"#utility.yul\":5469:5472   */\n      dup9\n        /* \"#utility.yul\":5454:5467   */\n      dup3\n        /* \"#utility.yul\":5410:5473   */\n      tag_137\n      jump\t// in\n    tag_222:\n        /* \"#utility.yul\":5403:5473   */\n      swap8\n      pop\n        /* \"#utility.yul\":5496:5556   */\n      tag_223\n        /* \"#utility.yul\":5549:5555   */\n      dup4\n        /* \"#utility.yul\":5496:5556   */\n      tag_138\n      jump\t// in\n    tag_223:\n        /* \"#utility.yul\":5486:5556   */\n      swap3\n      pop\n        /* \"#utility.yul\":5342:5566   */\n      pop\n        /* \"#utility.yul\":5329:5330   */\n      0x01\n        /* \"#utility.yul\":5326:5327   */\n      dup2\n        /* \"#utility.yul\":5322:5331   */\n      add\n        /* \"#utility.yul\":5317:5331   */\n      swap1\n      pop\n        /* \"#utility.yul\":5282:5566   */\n      jump(tag_219)\n    tag_221:\n        /* \"#utility.yul\":5286:5300   */\n      pop\n        /* \"#utility.yul\":5582:5585   */\n      dup6\n        /* \"#utility.yul\":5575:5585   */\n      swap4\n      pop\n        /* \"#utility.yul\":4983:5591   */\n      pop\n      pop\n      pop\n        /* \"#utility.yul\":4859:5591   */\n      swap3\n      swap2\n      pop\n      pop\n      jump\t// out\n        /* \"#utility.yul\":5597:5970   */\n    tag_60:\n        /* \"#utility.yul\":5740:5744   */\n      0x00\n        /* \"#utility.yul\":5778:5780   */\n      0x20\n        /* \"#utility.yul\":5767:5776   */\n      dup3\n        /* \"#utility.yul\":5763:5781   */\n      add\n        /* \"#utility.yul\":5755:5781   */\n      swap1\n      pop\n        /* \"#utility.yul\":5827:5836   */\n      dup2\n        /* \"#utility.yul\":5821:5825   */\n      dup2\n        /* \"#utility.yul\":5817:5837   */\n      sub\n        /* \"#utility.yul\":5813:5814   */\n      0x00\n        /* \"#utility.yul\":5802:5811   */\n      dup4\n        /* \"#utility.yul\":5798:5815   */\n      add\n        /* \"#utility.yul\":5791:5838   */\n      mstore\n        /* \"#utility.yul\":5855:5963   */\n      tag_225\n        /* \"#utility.yul\":5958:5962   */\n      dup2\n        /* \"#utility.yul\":5949:5955   */\n      dup5\n        /* \"#utility.yul\":5855:5963   */\n      tag_139\n      jump\t// in\n    tag_225:\n        /* \"#utility.yul\":5847:5963   */\n      swap1\n      pop\n        /* \"#utility.yul\":5597:5970   */\n      swap3\n      swap2\n      pop\n      pop\n      jump\t// out\n        /* \"#utility.yul\":5976:6152   */\n    tag_140:\n        /* \"#utility.yul\":6116:6144   */\n      0x596f7520617265206e6f74206f776e6572205b4661696c65645d000000000000\n        /* \"#utility.yul\":6112:6113   */\n      0x00\n        /* \"#utility.yul\":6104:6110   */\n      dup3\n        /* \"#utility.yul\":6100:6114   */\n      add\n        /* \"#utility.yul\":6093:6145   */\n      mstore\n        /* \"#utility.yul\":5976:6152   */\n      pop\n      jump\t// out\n        /* \"#utility.yul\":6158:6524   */\n    tag_141:\n        /* \"#utility.yul\":6300:6303   */\n      0x00\n        /* \"#utility.yul\":6321:6388   */\n      tag_228\n        /* \"#utility.yul\":6385:6387   */\n      0x1a\n        /* \"#utility.yul\":6380:6383   */\n      dup4\n        /* \"#utility.yul\":6321:6388   */\n      tag_121\n      jump\t// in\n    tag_228:\n        /* \"#utility.yul\":6314:6388   */\n      swap2\n      pop\n        /* \"#utility.yul\":6397:6490   */\n      tag_229\n        /* \"#utility.yul\":6486:6489   */\n      dup3\n        /* \"#utility.yul\":6397:6490   */\n      tag_140\n      jump\t// in\n    tag_229:\n        /* \"#utility.yul\":6515:6517   */\n      0x20\n        /* \"#utility.yul\":6510:6513   */\n      dup3\n        /* \"#utility.yul\":6506:6518   */\n      add\n        /* \"#utility.yul\":6499:6518   */\n      swap1\n      pop\n        /* \"#utility.yul\":6158:6524   */\n      swap2\n      swap1\n      pop\n      jump\t// out\n        /* \"#utility.yul\":6530:6949   */\n    tag_66:\n        /* \"#utility.yul\":6696:6700   */\n      0x00\n        /* \"#utility.yul\":6734:6736   */\n      0x20\n        /* \"#utility.yul\":6723:6732   */\n      dup3\n        /* \"#utility.yul\":6719:6737   */\n      add\n        /* \"#utility.yul\":6711:6737   */\n      swap1\n      pop\n        /* \"#utility.yul\":6783:6792   */\n      dup2\n        /* \"#utility.yul\":6777:6781   */\n      dup2\n        /* \"#utility.yul\":6773:6793   */\n      sub\n        /* \"#utility.yul\":6769:6770   */\n      0x00\n        /* \"#utility.yul\":6758:6767   */\n      dup4\n        /* \"#utility.yul\":6754:6771   */\n      add\n        /* \"#utility.yul\":6747:6794   */\n      mstore\n        /* \"#utility.yul\":6811:6942   */\n      tag_231\n        /* \"#utility.yul\":6937:6941   */\n      dup2\n        /* \"#utility.yul\":6811:6942   */\n      tag_141\n      jump\t// in\n    tag_231:\n        /* \"#utility.yul\":6803:6942   */\n      swap1\n      pop\n        /* \"#utility.yul\":6530:6949   */\n      swap2\n      swap1\n      pop\n      jump\t// out\n        /* \"#utility.yul\":6955:7125   */\n    tag_142:\n        /* \"#utility.yul\":7095:7117   */\n      0x46756e64696e67206973206e6f7420656e646564000000000000000000000000\n        /* \"#utility.yul\":7091:7092   */\n      0x00\n        /* \"#utility.yul\":7083:7089   */\n      dup3\n        /* \"#utility.yul\":7079:7093   */\n      add\n        /* \"#utility.yul\":7072:7118   */\n      mstore\n        /* \"#utility.yul\":6955:7125   */\n      pop\n      jump\t// out\n        /* \"#utility.yul\":7131:7497   */\n    tag_143:\n        /* \"#utility.yul\":7273:7276   */\n      0x00\n        /* \"#utility.yul\":7294:7361   */\n      tag_234\n        /* \"#utility.yul\":7358:7360   */\n      0x14\n        /* \"#utility.yul\":7353:7356   */\n      dup4\n        /* \"#utility.yul\":7294:7361   */\n      tag_121\n      jump\t// in\n    tag_234:\n        /* \"#utility.yul\":7287:7361   */\n      swap2\n      pop\n        /* \"#utility.yul\":7370:7463   */\n      tag_235\n        /* \"#utility.yul\":7459:7462   */\n      dup3\n        /* \"#utility.yul\":7370:7463   */\n      tag_142\n      jump\t// in\n    tag_235:\n        /* \"#utility.yul\":7488:7490   */\n      0x20\n        /* \"#utility.yul\":7483:7486   */\n      dup3\n        /* \"#utility.yul\":7479:7491   */\n      add\n        /* \"#utility.yul\":7472:7491   */\n      swap1\n      pop\n        /* \"#utility.yul\":7131:7497   */\n      swap2\n      swap1\n      pop\n      jump\t// out\n        /* \"#utility.yul\":7503:7922   */\n    tag_70:\n        /* \"#utility.yul\":7669:7673   */\n      0x00\n        /* \"#utility.yul\":7707:7709   */\n      0x20\n        /* \"#utility.yul\":7696:7705   */\n      dup3\n        /* \"#utility.yul\":7692:7710   */\n      add\n        /* \"#utility.yul\":7684:7710   */\n      swap1\n      pop\n        /* \"#utility.yul\":7756:7765   */\n      dup2\n        /* \"#utility.yul\":7750:7754   */\n      dup2\n        /* \"#utility.yul\":7746:7766   */\n      sub\n        /* \"#utility.yul\":7742:7743   */\n      0x00\n        /* \"#utility.yul\":7731:7740   */\n      dup4\n        /* \"#utility.yul\":7727:7744   */\n      add\n        /* \"#utility.yul\":7720:7767   */\n      mstore\n        /* \"#utility.yul\":7784:7915   */\n      tag_237\n        /* \"#utility.yul\":7910:7914   */\n      dup2\n        /* \"#utility.yul\":7784:7915   */\n      tag_143\n      jump\t// in\n    tag_237:\n        /* \"#utility.yul\":7776:7915   */\n      swap1\n      pop\n        /* \"#utility.yul\":7503:7922   */\n      swap2\n      swap1\n      pop\n      jump\t// out\n        /* \"#utility.yul\":7928:8108   */\n    tag_144:\n        /* \"#utility.yul\":7976:8053   */\n      0x4e487b7100000000000000000000000000000000000000000000000000000000\n        /* \"#utility.yul\":7973:7974   */\n      0x00\n        /* \"#utility.yul\":7966:8054   */\n      mstore\n        /* \"#utility.yul\":8073:8077   */\n      0x11\n        /* \"#utility.yul\":8070:8071   */\n      0x04\n        /* \"#utility.yul\":8063:8078   */\n      mstore\n        /* \"#utility.yul\":8097:8101   */\n      0x24\n        /* \"#utility.yul\":8094:8095   */\n      0x00\n        /* \"#utility.yul\":8087:8102   */\n      revert\n        /* \"#utility.yul\":8114:8524   */\n    tag_72:\n        /* \"#utility.yul\":8154:8161   */\n      0x00\n        /* \"#utility.yul\":8177:8197   */\n      tag_240\n        /* \"#utility.yul\":8195:8196   */\n      dup3\n        /* \"#utility.yul\":8177:8197   */\n      tag_118\n      jump\t// in\n    tag_240:\n        /* \"#utility.yul\":8172:8197   */\n      swap2\n      pop\n        /* \"#utility.yul\":8211:8231   */\n      tag_241\n        /* \"#utility.yul\":8229:8230   */\n      dup4\n        /* \"#utility.yul\":8211:8231   */\n      tag_118\n      jump\t// in\n    tag_241:\n        /* \"#utility.yul\":8206:8231   */\n      swap3\n      pop\n        /* \"#utility.yul\":8266:8267   */\n      dup3\n        /* \"#utility.yul\":8263:8264   */\n      dup3\n        /* \"#utility.yul\":8259:8268   */\n      mul\n        /* \"#utility.yul\":8288:8318   */\n      tag_242\n        /* \"#utility.yul\":8306:8317   */\n      dup2\n        /* \"#utility.yul\":8288:8318   */\n      tag_118\n      jump\t// in\n    tag_242:\n        /* \"#utility.yul\":8277:8318   */\n      swap2\n      pop\n        /* \"#utility.yul\":8467:8468   */\n      dup3\n        /* \"#utility.yul\":8458:8465   */\n      dup3\n        /* \"#utility.yul\":8454:8469   */\n      div\n        /* \"#utility.yul\":8451:8452   */\n      dup5\n        /* \"#utility.yul\":8448:8470   */\n      eq\n        /* \"#utility.yul\":8428:8429   */\n      dup4\n        /* \"#utility.yul\":8421:8430   */\n      iszero\n        /* \"#utility.yul\":8401:8484   */\n      or\n        /* \"#utility.yul\":8378:8517   */\n      tag_243\n      jumpi\n        /* \"#utility.yul\":8497:8515   */\n      tag_244\n      tag_144\n      jump\t// in\n    tag_244:\n        /* \"#utility.yul\":8378:8517   */\n    tag_243:\n        /* \"#utility.yul\":8162:8524   */\n      pop\n        /* \"#utility.yul\":8114:8524   */\n      swap3\n      swap2\n      pop\n      pop\n      jump\t// out\n        /* \"#utility.yul\":8530:8724   */\n    tag_78:\n        /* \"#utility.yul\":8570:8574   */\n      0x00\n        /* \"#utility.yul\":8590:8610   */\n      tag_246\n        /* \"#utility.yul\":8608:8609   */\n      dup3\n        /* \"#utility.yul\":8590:8610   */\n      tag_118\n      jump\t// in\n    tag_246:\n        /* \"#utility.yul\":8585:8610   */\n      swap2\n      pop\n        /* \"#utility.yul\":8624:8644   */\n      tag_247\n        /* \"#utility.yul\":8642:8643   */\n      dup4\n        /* \"#utility.yul\":8624:8644   */\n      tag_118\n      jump\t// in\n    tag_247:\n        /* \"#utility.yul\":8619:8644   */\n      swap3\n      pop\n        /* \"#utility.yul\":8668:8669   */\n      dup3\n        /* \"#utility.yul\":8665:8666   */\n      dup3\n        /* \"#utility.yul\":8661:8670   */\n      sub\n        /* \"#utility.yul\":8653:8670   */\n      swap1\n      pop\n        /* \"#utility.yul\":8692:8693   */\n      dup2\n        /* \"#utility.yul\":8686:8690   */\n      dup2\n        /* \"#utility.yul\":8683:8694   */\n      gt\n        /* \"#utility.yul\":8680:8717   */\n      iszero\n      tag_248\n      jumpi\n        /* \"#utility.yul\":8697:8715   */\n      tag_249\n      tag_144\n      jump\t// in\n    tag_249:\n        /* \"#utility.yul\":8680:8717   */\n    tag_248:\n        /* \"#utility.yul\":8530:8724   */\n      swap3\n      swap2\n      pop\n      pop\n      jump\t// out\n        /* \"#utility.yul\":8730:8901   */\n    tag_82:\n        /* \"#utility.yul\":8769:8772   */\n      0x00\n        /* \"#utility.yul\":8792:8816   */\n      tag_251\n        /* \"#utility.yul\":8810:8815   */\n      dup3\n        /* \"#utility.yul\":8792:8816   */\n      tag_118\n      jump\t// in\n    tag_251:\n        /* \"#utility.yul\":8783:8816   */\n      swap2\n      pop\n        /* \"#utility.yul\":8838:8842   */\n      0x00\n        /* \"#utility.yul\":8831:8836   */\n      dup3\n        /* \"#utility.yul\":8828:8843   */\n      sub\n        /* \"#utility.yul\":8825:8866   */\n      tag_252\n      jumpi\n        /* \"#utility.yul\":8846:8864   */\n      tag_253\n      tag_144\n      jump\t// in\n    tag_253:\n        /* \"#utility.yul\":8825:8866   */\n    tag_252:\n        /* \"#utility.yul\":8893:8894   */\n      0x01\n        /* \"#utility.yul\":8886:8891   */\n      dup3\n        /* \"#utility.yul\":8882:8895   */\n      sub\n        /* \"#utility.yul\":8875:8895   */\n      swap1\n      pop\n        /* \"#utility.yul\":8730:8901   */\n      swap2\n      swap1\n      pop\n      jump\t// out\n        /* \"#utility.yul\":8907:9087   */\n    tag_98:\n        /* \"#utility.yul\":8955:9032   */\n      0x4e487b7100000000000000000000000000000000000000000000000000000000\n        /* \"#utility.yul\":8952:8953   */\n      0x00\n        /* \"#utility.yul\":8945:9033   */\n      mstore\n        /* \"#utility.yul\":9052:9056   */\n      0x41\n        /* \"#utility.yul\":9049:9050   */\n      0x04\n        /* \"#utility.yul\":9042:9057   */\n      mstore\n        /* \"#utility.yul\":9076:9080   */\n      0x24\n        /* \"#utility.yul\":9073:9074   */\n      0x00\n        /* \"#utility.yul\":9066:9081   */\n      revert\n        /* \"#utility.yul\":9093:9273   */\n    tag_145:\n        /* \"#utility.yul\":9141:9218   */\n      0x4e487b7100000000000000000000000000000000000000000000000000000000\n        /* \"#utility.yul\":9138:9139   */\n      0x00\n        /* \"#utility.yul\":9131:9219   */\n      mstore\n        /* \"#utility.yul\":9238:9242   */\n      0x22\n        /* \"#utility.yul\":9235:9236   */\n      0x04\n        /* \"#utility.yul\":9228:9243   */\n      mstore\n        /* \"#utility.yul\":9262:9266   */\n      0x24\n        /* \"#utility.yul\":9259:9260   */\n      0x00\n        /* \"#utility.yul\":9252:9267   */\n      revert\n        /* \"#utility.yul\":9279:9599   */\n    tag_90:\n        /* \"#utility.yul\":9323:9329   */\n      0x00\n        /* \"#utility.yul\":9360:9361   */\n      0x02\n        /* \"#utility.yul\":9354:9358   */\n      dup3\n        /* \"#utility.yul\":9350:9362   */\n      div\n        /* \"#utility.yul\":9340:9362   */\n      swap1\n      pop\n        /* \"#utility.yul\":9407:9408   */\n      0x01\n        /* \"#utility.yul\":9401:9405   */\n      dup3\n        /* \"#utility.yul\":9397:9409   */\n      and\n        /* \"#utility.yul\":9428:9446   */\n      dup1\n        /* \"#utility.yul\":9418:9499   */\n      tag_257\n      jumpi\n        /* \"#utility.yul\":9484:9488   */\n      0x7f\n        /* \"#utility.yul\":9476:9482   */\n      dup3\n        /* \"#utility.yul\":9472:9489   */\n      and\n        /* \"#utility.yul\":9462:9489   */\n      swap2\n      pop\n        /* \"#utility.yul\":9418:9499   */\n    tag_257:\n        /* \"#utility.yul\":9546:9548   */\n      0x20\n        /* \"#utility.yul\":9538:9544   */\n      dup3\n        /* \"#utility.yul\":9535:9549   */\n      lt\n        /* \"#utility.yul\":9515:9533   */\n      dup2\n        /* \"#utility.yul\":9512:9550   */\n      sub\n        /* \"#utility.yul\":9509:9593   */\n      tag_258\n      jumpi\n        /* \"#utility.yul\":9565:9583   */\n      tag_259\n      tag_145\n      jump\t// in\n    tag_259:\n        /* \"#utility.yul\":9509:9593   */\n    tag_258:\n        /* \"#utility.yul\":9330:9599   */\n      pop\n        /* \"#utility.yul\":9279:9599   */\n      swap2\n      swap1\n      pop\n      jump\t// out\n        /* \"#utility.yul\":9605:9746   */\n    tag_146:\n        /* \"#utility.yul\":9654:9658   */\n      0x00\n        /* \"#utility.yul\":9677:9680   */\n      dup2\n        /* \"#utility.yul\":9669:9680   */\n      swap1\n      pop\n        /* \"#utility.yul\":9700:9703   */\n      dup2\n        /* \"#utility.yul\":9697:9698   */\n      0x00\n        /* \"#utility.yul\":9690:9704   */\n      mstore\n        /* \"#utility.yul\":9734:9738   */\n      0x20\n        /* \"#utility.yul\":9731:9732   */\n      0x00\n        /* \"#utility.yul\":9721:9739   */\n      keccak256\n        /* \"#utility.yul\":9713:9739   */\n      swap1\n      pop\n        /* \"#utility.yul\":9605:9746   */\n      swap2\n      swap1\n      pop\n      jump\t// out\n        /* \"#utility.yul\":9752:9845   */\n    tag_147:\n        /* \"#utility.yul\":9789:9795   */\n      0x00\n        /* \"#utility.yul\":9836:9838   */\n      0x20\n        /* \"#utility.yul\":9831:9833   */\n      0x1f\n        /* \"#utility.yul\":9824:9829   */\n      dup4\n        /* \"#utility.yul\":9820:9834   */\n      add\n        /* \"#utility.yul\":9816:9839   */\n      div\n        /* \"#utility.yul\":9806:9839   */\n      swap1\n      pop\n        /* \"#utility.yul\":9752:9845   */\n      swap2\n      swap1\n      pop\n      jump\t// out\n        /* \"#utility.yul\":9851:9958   */\n    tag_148:\n        /* \"#utility.yul\":9895:9903   */\n      0x00\n        /* \"#utility.yul\":9945:9950   */\n      dup3\n        /* \"#utility.yul\":9939:9943   */\n      dup3\n        /* \"#utility.yul\":9935:9951   */\n      shl\n        /* \"#utility.yul\":9914:9951   */\n      swap1\n      pop\n        /* \"#utility.yul\":9851:9958   */\n      swap3\n      swap2\n      pop\n      pop\n      jump\t// out\n        /* \"#utility.yul\":9964:10357   */\n    tag_149:\n        /* \"#utility.yul\":10033:10039   */\n      0x00\n        /* \"#utility.yul\":10083:10084   */\n      0x08\n        /* \"#utility.yul\":10071:10081   */\n      dup4\n        /* \"#utility.yul\":10067:10085   */\n      mul\n        /* \"#utility.yul\":10106:10203   */\n      tag_264\n        /* \"#utility.yul\":10136:10202   */\n      0xffffffffffffffffffffffffffffffffffffffffffffffffffffffffffffffff\n        /* \"#utility.yul\":10125:10134   */\n      dup3\n        /* \"#utility.yul\":10106:10203   */\n      tag_148\n      jump\t// in\n    tag_264:\n        /* \"#utility.yul\":10224:10263   */\n      tag_265\n        /* \"#utility.yul\":10254:10262   */\n      dup7\n        /* \"#utility.yul\":10243:10252   */\n      dup4\n        /* \"#utility.yul\":10224:10263   */\n      tag_148\n      jump\t// in\n    tag_265:\n        /* \"#utility.yul\":10212:10263   */\n      swap6\n      pop\n        /* \"#utility.yul\":10296:10300   */\n      dup1\n        /* \"#utility.yul\":10292:10301   */\n      not\n        /* \"#utility.yul\":10285:10290   */\n      dup5\n        /* \"#utility.yul\":10281:10302   */\n      and\n        /* \"#utility.yul\":10272:10302   */\n      swap4\n      pop\n        /* \"#utility.yul\":10345:10349   */\n      dup1\n        /* \"#utility.yul\":10335:10343   */\n      dup7\n        /* \"#utility.yul\":10331:10350   */\n      and\n        /* \"#utility.yul\":10324:10329   */\n      dup5\n        /* \"#utility.yul\":10321:10351   */\n      or\n        /* \"#utility.yul\":10311:10351   */\n      swap3\n      pop\n        /* \"#utility.yul\":10040:10357   */\n      pop\n      pop\n        /* \"#utility.yul\":9964:10357   */\n      swap4\n      swap3\n      pop\n      pop\n      pop\n      jump\t// out\n        /* \"#utility.yul\":10363:10423   */\n    tag_150:\n        /* \"#utility.yul\":10391:10394   */\n      0x00\n        /* \"#utility.yul\":10412:10417   */\n      dup2\n        /* \"#utility.yul\":10405:10417   */\n      swap1\n      pop\n        /* \"#utility.yul\":10363:10423   */\n      swap2\n      swap1\n      pop\n      jump\t// out\n        /* \"#utility.yul\":10429:10571   */\n    tag_151:\n        /* \"#utility.yul\":10479:10488   */\n      0x00\n        /* \"#utility.yul\":10512:10565   */\n      tag_268\n        /* \"#utility.yul\":10530:10564   */\n      tag_269\n        /* \"#utility.yul\":10539:10563   */\n      tag_270\n        /* \"#utility.yul\":10557:10562   */\n      dup5\n        /* \"#utility.yul\":10539:10563   */\n      tag_118\n      jump\t// in\n    tag_270:\n        /* \"#utility.yul\":10530:10564   */\n      tag_150\n      jump\t// in\n    tag_269:\n        /* \"#utility.yul\":10512:10565   */\n      tag_118\n      jump\t// in\n    tag_268:\n        /* \"#utility.yul\":10499:10565   */\n      swap1\n      pop\n        /* \"#utility.yul\":10429:10571   */\n      swap2\n      swap1\n      pop\n      jump\t// out\n        /* \"#utility.yul\":10577:10652   */\n    tag_152:\n        /* \"#utility.yul\":10620:10623   */\n      0x00\n        /* \"#utility.yul\":10641:10646   */\n      dup2\n        /* \"#utility.yul\":10634:10646   */\n      swap1\n      pop\n        /* \"#utility.yul\":10577:10652   */\n      swap2\n      swap1\n      pop\n      jump\t// out\n        /* \"#utility.yul\":10658:10927   */\n    tag_153:\n        /* \"#utility.yul\":10768:10807   */\n      tag_273\n        /* \"#utility.yul\":10799:10806   */\n      dup4\n        /* \"#utility.yul\":10768:10807   */\n      tag_151\n      jump\t// in\n    tag_273:\n        /* \"#utility.yul\":10829:10920   */\n      tag_274\n        /* \"#utility.yul\":10878:10919   */\n      tag_275\n        /* \"#utility.yul\":10902:10918   */\n      dup3\n        /* \"#utility.yul\":10878:10919   */\n      tag_152\n      jump\t// in\n    tag_275:\n        /* \"#utility.yul\":10870:10876   */\n      dup5\n        /* \"#utility.yul\":10863:10867   */\n      dup5\n        /* \"#utility.yul\":10857:10868   */\n      sload\n        /* \"#utility.yul\":10829:10920   */\n      tag_149\n      jump\t// in\n    tag_274:\n        /* \"#utility.yul\":10823:10827   */\n      dup3\n        /* \"#utility.yul\":10816:10921   */\n      sstore\n        /* \"#utility.yul\":10734:10927   */\n      pop\n        /* \"#utility.yul\":10658:10927   */\n      pop\n      pop\n      pop\n      jump\t// out\n        /* \"#utility.yul\":10933:11006   */\n    tag_154:\n        /* \"#utility.yul\":10978:10981   */\n      0x00\n        /* \"#utility.yul\":10999:11000   */\n      0x00\n        /* \"#utility.yul\":10992:11000   */\n      swap1\n      pop\n        /* \"#utility.yul\":10933:11006   */\n      swap1\n      jump\t// out\n        /* \"#utility.yul\":11012:11201   */\n    tag_155:\n        /* \"#utility.yul\":11089:11121   */\n      tag_278\n      tag_154\n      jump\t// in\n    tag_278:\n        /* \"#utility.yul\":11130:11195   */\n      tag_279\n        /* \"#utility.yul\":11188:11194   */\n      dup2\n        /* \"#utility.yul\":11180:11186   */\n      dup5\n        /* \"#utility.yul\":11174:11178   */\n      dup5\n        /* \"#utility.yul\":11130:11195   */\n      tag_153\n      jump\t// in\n    tag_279:\n        /* \"#utility.yul\":11065:11201   */\n      pop\n        /* \"#utility.yul\":11012:11201   */\n      pop\n      pop\n      jump\t// out\n        /* \"#utility.yul\":11207:11421   */\n    tag_156:\n        /* \"#utility.yul\":11292:11293   */\n      0x00\n        /* \"#utility.yul\":11277:11415   */\n    tag_281:\n        /* \"#utility.yul\":11302:11311   */\n      dup3\n        /* \"#utility.yul\":11299:11300   */\n      dup2\n        /* \"#utility.yul\":11296:11312   */\n      lt\n        /* \"#utility.yul\":11277:11415   */\n      iszero\n      tag_283\n      jumpi\n        /* \"#utility.yul\":11354:11405   */\n      tag_284\n        /* \"#utility.yul\":11403:11404   */\n      0x00\n        /* \"#utility.yul\":11399:11400   */\n      dup3\n        /* \"#utility.yul\":11388:11397   */\n      dup5\n        /* \"#utility.yul\":11384:11401   */\n      add\n        /* \"#utility.yul\":11354:11405   */\n      tag_155\n      jump\t// in\n    tag_284:\n        /* \"#utility.yul\":11327:11328   */\n      0x01\n        /* \"#utility.yul\":11324:11325   */\n      dup2\n        /* \"#utility.yul\":11320:11329   */\n      add\n        /* \"#utility.yul\":11315:11329   */\n      swap1\n      pop\n        /* \"#utility.yul\":11277:11415   */\n      jump(tag_281)\n    tag_283:\n        /* \"#utility.yul\":11281:11295   */\n      pop\n        /* \"#utility.yul\":11207:11421   */\n      pop\n      pop\n      jump\t// out\n        /* \"#utility.yul\":11427:12173   */\n    tag_157:\n        /* \"#utility.yul\":11528:11530   */\n      0x1f\n        /* \"#utility.yul\":11523:11526   */\n      dup3\n        /* \"#utility.yul\":11520:11531   */\n      gt\n        /* \"#utility.yul\":11517:12166   */\n      iszero\n      tag_286\n      jumpi\n        /* \"#utility.yul\":11557:11567   */\n      dup3\n        /* \"#utility.yul\":11552:11555   */\n      dup3\n        /* \"#utility.yul\":11549:11568   */\n      gt\n        /* \"#utility.yul\":11546:12156   */\n      iszero\n      tag_287\n      jumpi\n        /* \"#utility.yul\":11603:11641   */\n      tag_288\n        /* \"#utility.yul\":11635:11640   */\n      dup2\n        /* \"#utility.yul\":11603:11641   */\n      tag_146\n      jump\t// in\n    tag_288:\n        /* \"#utility.yul\":11678:11700   */\n      tag_289\n        /* \"#utility.yul\":11696:11699   */\n      dup4\n        /* \"#utility.yul\":11678:11700   */\n      tag_147\n      jump\t// in\n    tag_289:\n        /* \"#utility.yul\":11737:11766   */\n      tag_290\n        /* \"#utility.yul\":11755:11765   */\n      dup6\n        /* \"#utility.yul\":11737:11766   */\n      tag_147\n      jump\t// in\n    tag_290:\n        /* \"#utility.yul\":11927:11929   */\n      0x20\n        /* \"#utility.yul\":11915:11925   */\n      dup7\n        /* \"#utility.yul\":11912:11930   */\n      lt\n        /* \"#utility.yul\":11909:11988   */\n      iszero\n      tag_291\n      jumpi\n        /* \"#utility.yul\":11969:11970   */\n      0x00\n        /* \"#utility.yul\":11953:11970   */\n      swap1\n      pop\n        /* \"#utility.yul\":11909:11988   */\n    tag_291:\n        /* \"#utility.yul\":12038:12050   */\n      dup1\n        /* \"#utility.yul\":12028:12036   */\n      dup4\n        /* \"#utility.yul\":12024:12051   */\n      add\n        /* \"#utility.yul\":12068:12142   */\n      tag_292\n        /* \"#utility.yul\":12128:12140   */\n      dup3\n        /* \"#utility.yul\":12114:12126   */\n      dup5\n        /* \"#utility.yul\":12110:12141   */\n      sub\n        /* \"#utility.yul\":12097:12108   */\n      dup3\n        /* \"#utility.yul\":12068:12142   */\n      tag_156\n      jump\t// in\n    tag_292:\n        /* \"#utility.yul\":11569:12156   */\n      pop\n      pop\n      pop\n      pop\n        /* \"#utility.yul\":11546:12156   */\n    tag_287:\n        /* \"#utility.yul\":11517:12166   */\n    tag_286:\n        /* \"#utility.yul\":11427:12173   */\n      pop\n      pop\n      pop\n      jump\t// out\n        /* \"#utility.yul\":12179:12296   */\n    tag_158:\n        /* \"#utility.yul\":12233:12241   */\n      0x00\n        /* \"#utility.yul\":12283:12288   */\n      dup3\n        /* \"#utility.yul\":12277:12281   */\n      dup3\n        /* \"#utility.yul\":12273:12289   */\n      shr\n        /* \"#utility.yul\":12252:12289   */\n      swap1\n      pop\n        /* \"#utility.yul\":12179:12296   */\n      swap3\n      swap2\n      pop\n      pop\n      jump\t// out\n        /* \"#utility.yul\":12302:12471   */\n    tag_159:\n        /* \"#utility.yul\":12346:12352   */\n      0x00\n        /* \"#utility.yul\":12379:12430   */\n      tag_295\n        /* \"#utility.yul\":12427:12428   */\n      0x00\n        /* \"#utility.yul\":12423:12429   */\n      not\n        /* \"#utility.yul\":12415:12420   */\n      dup5\n        /* \"#utility.yul\":12412:12413   */\n      0x08\n        /* \"#utility.yul\":12408:12421   */\n      mul\n        /* \"#utility.yul\":12379:12430   */\n      tag_158\n      jump\t// in\n    tag_295:\n        /* \"#utility.yul\":12375:12431   */\n      not\n        /* \"#utility.yul\":12460:12464   */\n      dup1\n        /* \"#utility.yul\":12454:12458   */\n      dup4\n        /* \"#utility.yul\":12450:12465   */\n      and\n        /* \"#utility.yul\":12440:12465   */\n      swap2\n      pop\n        /* \"#utility.yul\":12353:12471   */\n      pop\n        /* \"#utility.yul\":12302:12471   */\n      swap3\n      swap2\n      pop\n      pop\n      jump\t// out\n        /* \"#utility.yul\":12476:12771   */\n    tag_160:\n        /* \"#utility.yul\":12552:12556   */\n      0x00\n        /* \"#utility.yul\":12698:12727   */\n      tag_297\n        /* \"#utility.yul\":12723:12726   */\n      dup4\n        /* \"#utility.yul\":12717:12721   */\n      dup4\n        /* \"#utility.yul\":12698:12727   */\n      tag_159\n      jump\t// in\n    tag_297:\n        /* \"#utility.yul\":12690:12727   */\n      swap2\n      pop\n        /* \"#utility.yul\":12760:12763   */\n      dup3\n        /* \"#utility.yul\":12757:12758   */\n      0x02\n        /* \"#utility.yul\":12753:12764   */\n      mul\n        /* \"#utility.yul\":12747:12751   */\n      dup3\n        /* \"#utility.yul\":12744:12765   */\n      or\n        /* \"#utility.yul\":12736:12765   */\n      swap1\n      pop\n        /* \"#utility.yul\":12476:12771   */\n      swap3\n      swap2\n      pop\n      pop\n      jump\t// out\n        /* \"#utility.yul\":12776:14171   */\n    tag_84:\n        /* \"#utility.yul\":12893:12930   */\n      tag_299\n        /* \"#utility.yul\":12926:12929   */\n      dup3\n        /* \"#utility.yul\":12893:12930   */\n      tag_120\n      jump\t// in\n    tag_299:\n        /* \"#utility.yul\":12995:13013   */\n      0xffffffffffffffff\n        /* \"#utility.yul\":12987:12993   */\n      dup2\n        /* \"#utility.yul\":12984:13014   */\n      gt\n        /* \"#utility.yul\":12981:13037   */\n      iszero\n      tag_300\n      jumpi\n        /* \"#utility.yul\":13017:13035   */\n      tag_301\n      tag_98\n      jump\t// in\n    tag_301:\n        /* \"#utility.yul\":12981:13037   */\n    tag_300:\n        /* \"#utility.yul\":13061:13099   */\n      tag_302\n        /* \"#utility.yul\":13093:13097   */\n      dup3\n        /* \"#utility.yul\":13087:13098   */\n      sload\n        /* \"#utility.yul\":13061:13099   */\n      tag_90\n      jump\t// in\n    tag_302:\n        /* \"#utility.yul\":13146:13213   */\n      tag_303\n        /* \"#utility.yul\":13206:13212   */\n      dup3\n        /* \"#utility.yul\":13198:13204   */\n      dup3\n        /* \"#utility.yul\":13192:13196   */\n      dup6\n        /* \"#utility.yul\":13146:13213   */\n      tag_157\n      jump\t// in\n    tag_303:\n        /* \"#utility.yul\":13240:13241   */\n      0x00\n        /* \"#utility.yul\":13264:13268   */\n      0x20\n        /* \"#utility.yul\":13251:13268   */\n      swap1\n      pop\n        /* \"#utility.yul\":13296:13298   */\n      0x1f\n        /* \"#utility.yul\":13288:13294   */\n      dup4\n        /* \"#utility.yul\":13285:13299   */\n      gt\n        /* \"#utility.yul\":13313:13314   */\n      0x01\n        /* \"#utility.yul\":13308:13926   */\n      dup2\n      eq\n      tag_305\n      jumpi\n        /* \"#utility.yul\":13970:13971   */\n      0x00\n        /* \"#utility.yul\":13987:13993   */\n      dup5\n        /* \"#utility.yul\":13984:14061   */\n      iszero\n      tag_306\n      jumpi\n        /* \"#utility.yul\":14036:14045   */\n      dup3\n        /* \"#utility.yul\":14031:14034   */\n      dup8\n        /* \"#utility.yul\":14027:14046   */\n      add\n        /* \"#utility.yul\":14021:14047   */\n      mload\n        /* \"#utility.yul\":14012:14047   */\n      swap1\n      pop\n        /* \"#utility.yul\":13984:14061   */\n    tag_306:\n        /* \"#utility.yul\":14087:14154   */\n      tag_307\n        /* \"#utility.yul\":14147:14153   */\n      dup6\n        /* \"#utility.yul\":14140:14145   */\n      dup3\n        /* \"#utility.yul\":14087:14154   */\n      tag_160\n      jump\t// in\n    tag_307:\n        /* \"#utility.yul\":14081:14085   */\n      dup7\n        /* \"#utility.yul\":14074:14155   */\n      sstore\n        /* \"#utility.yul\":13943:14165   */\n      pop\n        /* \"#utility.yul\":13278:14165   */\n      jump(tag_304)\n        /* \"#utility.yul\":13308:13926   */\n    tag_305:\n        /* \"#utility.yul\":13360:13364   */\n      0x1f\n        /* \"#utility.yul\":13356:13365   */\n      not\n        /* \"#utility.yul\":13348:13354   */\n      dup5\n        /* \"#utility.yul\":13344:13366   */\n      and\n        /* \"#utility.yul\":13394:13431   */\n      tag_308\n        /* \"#utility.yul\":13426:13430   */\n      dup7\n        /* \"#utility.yul\":13394:13431   */\n      tag_146\n      jump\t// in\n    tag_308:\n        /* \"#utility.yul\":13453:13454   */\n      0x00\n        /* \"#utility.yul\":13467:13675   */\n    tag_309:\n        /* \"#utility.yul\":13481:13488   */\n      dup3\n        /* \"#utility.yul\":13478:13479   */\n      dup2\n        /* \"#utility.yul\":13475:13489   */\n      lt\n        /* \"#utility.yul\":13467:13675   */\n      iszero\n      tag_311\n      jumpi\n        /* \"#utility.yul\":13560:13569   */\n      dup5\n        /* \"#utility.yul\":13555:13558   */\n      dup10\n        /* \"#utility.yul\":13551:13570   */\n      add\n        /* \"#utility.yul\":13545:13571   */\n      mload\n        /* \"#utility.yul\":13537:13543   */\n      dup3\n        /* \"#utility.yul\":13530:13572   */\n      sstore\n        /* \"#utility.yul\":13611:13612   */\n      0x01\n        /* \"#utility.yul\":13603:13609   */\n      dup3\n        /* \"#utility.yul\":13599:13613   */\n      add\n        /* \"#utility.yul\":13589:13613   */\n      swap2\n      pop\n        /* \"#utility.yul\":13658:13660   */\n      0x20\n        /* \"#utility.yul\":13647:13656   */\n      dup6\n        /* \"#utility.yul\":13643:13661   */\n      add\n        /* \"#utility.yul\":13630:13661   */\n      swap5\n      pop\n        /* \"#utility.yul\":13504:13508   */\n      0x20\n        /* \"#utility.yul\":13501:13502   */\n      dup2\n        /* \"#utility.yul\":13497:13509   */\n      add\n        /* \"#utility.yul\":13492:13509   */\n      swap1\n      pop\n        /* \"#utility.yul\":13467:13675   */\n      jump(tag_309)\n    tag_311:\n        /* \"#utility.yul\":13703:13709   */\n      dup7\n        /* \"#utility.yul\":13694:13701   */\n      dup4\n        /* \"#utility.yul\":13691:13710   */\n      lt\n        /* \"#utility.yul\":13688:13867   */\n      iszero\n      tag_312\n      jumpi\n        /* \"#utility.yul\":13761:13770   */\n      dup5\n        /* \"#utility.yul\":13756:13759   */\n      dup10\n        /* \"#utility.yul\":13752:13771   */\n      add\n        /* \"#utility.yul\":13746:13772   */\n      mload\n        /* \"#utility.yul\":13804:13852   */\n      tag_313\n        /* \"#utility.yul\":13846:13850   */\n      0x1f\n        /* \"#utility.yul\":13838:13844   */\n      dup10\n        /* \"#utility.yul\":13834:13851   */\n      and\n        /* \"#utility.yul\":13823:13832   */\n      dup3\n        /* \"#utility.yul\":13804:13852   */\n      tag_159\n      jump\t// in\n    tag_313:\n        /* \"#utility.yul\":13796:13802   */\n      dup4\n        /* \"#utility.yul\":13789:13853   */\n      sstore\n        /* \"#utility.yul\":13711:13867   */\n      pop\n        /* \"#utility.yul\":13688:13867   */\n    tag_312:\n        /* \"#utility.yul\":13913:13914   */\n      0x01\n        /* \"#utility.yul\":13909:13910   */\n      0x02\n        /* \"#utility.yul\":13901:13907   */\n      dup9\n        /* \"#utility.yul\":13897:13911   */\n      mul\n        /* \"#utility.yul\":13893:13915   */\n      add\n        /* \"#utility.yul\":13887:13891   */\n      dup9\n        /* \"#utility.yul\":13880:13916   */\n      sstore\n        /* \"#utility.yul\":13315:13926   */\n      pop\n      pop\n      pop\n        /* \"#utility.yul\":13278:14165   */\n    tag_304:\n      pop\n        /* \"#utility.yul\":12868:14171   */\n      pop\n      pop\n      pop\n        /* \"#utility.yul\":12776:14171   */\n      pop\n      pop\n      jump\t// out\n        /* \"#utility.yul\":14177:14357   */\n    tag_105:\n        /* \"#utility.yul\":14225:14302   */\n      0x4e487b7100000000000000000000000000000000000000000000000000000000\n        /* \"#utility.yul\":14222:14223   */\n      0x00\n        /* \"#utility.yul\":14215:14303   */\n      mstore\n        /* \"#utility.yul\":14322:14326   */\n      0x32\n        /* \"#utility.yul\":14319:14320   */\n      0x04\n        /* \"#utility.yul\":14312:14327   */\n      mstore\n        /* \"#utility.yul\":14346:14350   */\n      0x24\n        /* \"#utility.yul\":14343:14344   */\n      0x00\n        /* \"#utility.yul\":14336:14351   */\n      revert\n        /* \"#utility.yul\":14363:14530   */\n    tag_161:\n        /* \"#utility.yul\":14503:14522   */\n      0x46756e64696e672077617320656e646564000000000000000000000000000000\n        /* \"#utility.yul\":14499:14500   */\n      0x00\n        /* \"#utility.yul\":14491:14497   */\n      dup3\n        /* \"#utility.yul\":14487:14501   */\n      add\n        /* \"#utility.yul\":14480:14523   */\n      mstore\n        /* \"#utility.yul\":14363:14530   */\n      pop\n      jump\t// out\n        /* \"#utility.yul\":14536:14902   */\n    tag_162:\n        /* \"#utility.yul\":14678:14681   */\n      0x00\n        /* \"#utility.yul\":14699:14766   */\n      tag_317\n        /* \"#utility.yul\":14763:14765   */\n      0x11\n        /* \"#utility.yul\":14758:14761   */\n      dup4\n        /* \"#utility.yul\":14699:14766   */\n      tag_121\n      jump\t// in\n    tag_317:\n        /* \"#utility.yul\":14692:14766   */\n      swap2\n      pop\n        /* \"#utility.yul\":14775:14868   */\n      tag_318\n        /* \"#utility.yul\":14864:14867   */\n      dup3\n        /* \"#utility.yul\":14775:14868   */\n      tag_161\n      jump\t// in\n    tag_318:\n        /* \"#utility.yul\":14893:14895   */\n      0x20\n        /* \"#utility.yul\":14888:14891   */\n      dup3\n        /* \"#utility.yul\":14884:14896   */\n      add\n        /* \"#utility.yul\":14877:14896   */\n      swap1\n      pop\n        /* \"#utility.yul\":14536:14902   */\n      swap2\n      swap1\n      pop\n      jump\t// out\n        /* \"#utility.yul\":14908:15327   */\n    tag_109:\n        /* \"#utility.yul\":15074:15078   */\n      0x00\n        /* \"#utility.yul\":15112:15114   */\n      0x20\n        /* \"#utility.yul\":15101:15110   */\n      dup3\n        /* \"#utility.yul\":15097:15115   */\n      add\n        /* \"#utility.yul\":15089:15115   */\n      swap1\n      pop\n        /* \"#utility.yul\":15161:15170   */\n      dup2\n        /* \"#utility.yul\":15155:15159   */\n      dup2\n        /* \"#utility.yul\":15151:15171   */\n      sub\n        /* \"#utility.yul\":15147:15148   */\n      0x00\n        /* \"#utility.yul\":15136:15145   */\n      dup4\n        /* \"#utility.yul\":15132:15149   */\n      add\n        /* \"#utility.yul\":15125:15172   */\n      mstore\n        /* \"#utility.yul\":15189:15320   */\n      tag_320\n        /* \"#utility.yul\":15315:15319   */\n      dup2\n        /* \"#utility.yul\":15189:15320   */\n      tag_162\n      jump\t// in\n    tag_320:\n        /* \"#utility.yul\":15181:15320   */\n      swap1\n      pop\n        /* \"#utility.yul\":14908:15327   */\n      swap2\n      swap1\n      pop\n      jump\t// out\n        /* \"#utility.yul\":15333:15524   */\n    tag_113:\n        /* \"#utility.yul\":15373:15376   */\n      0x00\n        /* \"#utility.yul\":15392:15412   */\n      tag_322\n        /* \"#utility.yul\":15410:15411   */\n      dup3\n        /* \"#utility.yul\":15392:15412   */\n      tag_118\n      jump\t// in\n    tag_322:\n        /* \"#utility.yul\":15387:15412   */\n      swap2\n      pop\n        /* \"#utility.yul\":15426:15446   */\n      tag_323\n        /* \"#utility.yul\":15444:15445   */\n      dup4\n        /* \"#utility.yul\":15426:15446   */\n      tag_118\n      jump\t// in\n    tag_323:\n        /* \"#utility.yul\":15421:15446   */\n      swap3\n      pop\n        /* \"#utility.yul\":15469:15470   */\n      dup3\n        /* \"#utility.yul\":15466:15467   */\n      dup3\n        /* \"#utility.yul\":15462:15471   */\n      add\n        /* \"#utility.yul\":15455:15471   */\n      swap1\n      pop\n        /* \"#utility.yul\":15490:15493   */\n      dup1\n        /* \"#utility.yul\":15487:15488   */\n      dup3\n        /* \"#utility.yul\":15484:15494   */\n      gt\n        /* \"#utility.yul\":15481:15517   */\n      iszero\n      tag_324\n      jumpi\n        /* \"#utility.yul\":15497:15515   */\n      tag_325\n      tag_144\n      jump\t// in\n    tag_325:\n        /* \"#utility.yul\":15481:15517   */\n    tag_324:\n        /* \"#utility.yul\":15333:15524   */\n      swap3\n      swap2\n      pop\n      pop\n      jump\t// out\n\n    auxdata: 0xa264697066735822122003e9bf88320fd901b5689e57abda221b907de27aa5f18415b74b09160109cb6a64736f6c63430008200033\n}\n",
				"bytecode": {
					"linkReferences": {},
					"object": "608060405234801561000f575f5ffd5b506040516115fb3803806115fb83398181016040528101906100319190610140565b3360015f6101000a81548173ffffffffffffffffffffffffffffffffffffffff021916908373ffffffffffffffffffffffffffffffffffffffff16021790555060018261007e91906101ab565b4261008991906101ec565b600381905550806006819055506040518060400160405280600781526020017f46756e64696e6700000000000000000000000000000000000000000000000000815250600490816100da9190610464565b505f60055f6101000a81548160ff0219169083151502179055505f6002819055505f6007819055505050610533565b5f5ffd5b5f819050919050565b61011f8161010d565b8114610129575f5ffd5b50565b5f8151905061013a81610116565b92915050565b5f5f6040838503121561015657610155610109565b5b5f6101638582860161012c565b92505060206101748582860161012c565b9150509250929050565b7f4e487b71000000000000000000000000000000000000000000000000000000005f52601160045260245ffd5b5f6101b58261010d565b91506101c08361010d565b92508282026101ce8161010d565b915082820484148315176101e5576101e461017e565b5b5092915050565b5f6101f68261010d565b91506102018361010d565b92508282019050808211156102195761021861017e565b5b92915050565b5f81519050919050565b7f4e487b71000000000000000000000000000000000000000000000000000000005f52604160045260245ffd5b7f4e487b71000000000000000000000000000000000000000000000000000000005f52602260045260245ffd5b5f600282049050600182168061029a57607f821691505b6020821081036102ad576102ac610256565b5b50919050565b5f819050815f5260205f209050919050565b5f6020601f8301049050919050565b5f82821b905092915050565b5f6008830261030f7fffffffffffffffffffffffffffffffffffffffffffffffffffffffffffffffff826102d4565b61031986836102d4565b95508019841693508086168417925050509392505050565b5f819050919050565b5f61035461034f61034a8461010d565b610331565b61010d565b9050919050565b5f819050919050565b61036d8361033a565b6103816103798261035b565b8484546102e0565b825550505050565b5f5f905090565b610398610389565b6103a3818484610364565b505050565b5f5b828110156103c9576103be5f828401610390565b6001810190506103aa565b505050565b601f82111561041c578282111561041b576103e8816102b3565b6103f1836102c5565b6103fa856102c5565b6020861015610407575f90505b808301610416828403826103a8565b505050505b5b505050565b5f82821c905092915050565b5f61043c5f1984600802610421565b1980831691505092915050565b5f610454838361042d565b9150826002028217905092915050565b61046d8261021f565b67ffffffffffffffff81111561048657610485610229565b5b6104908254610283565b61049b8282856103ce565b5f60209050601f8311600181146104cc575f84156104ba578287015190505b6104c48582610449565b86555061052b565b601f1984166104da866102b3565b5f5b82811015610501578489015182556001820191506020850194506020810190506104dc565b8683101561051e578489015161051a601f89168261042d565b8355505b6001600288020188555050505b505050505050565b6110bb806105405f395ff3fe60806040526004361061009b575f3560e01c80632636b945116100635780632636b9451461015d57806329dcb0cf146101875780633feb5f2b146101b15780638da5cb5b146101ee578063b2f5a54c14610218578063b60d4288146102425761009b565b806301cb3b201461009f57806312fa6feb146100b5578063132ae5e9146100df5780631a39d8ef14610109578063200d2ed214610133575b5f5ffd5b3480156100aa575f5ffd5b506100b361024c565b005b3480156100c0575f5ffd5b506100c96104ec565b6040516100d69190610892565b60405180910390f35b3480156100ea575f5ffd5b506100f36104fe565b60405161010091906108c3565b60405180910390f35b348015610114575f5ffd5b5061011d610504565b60405161012a91906108c3565b60405180910390f35b34801561013e575f5ffd5b5061014761050a565b604051610154919061094c565b60405180910390f35b348015610168575f5ffd5b50610171610596565b60405161017e91906108c3565b60405180910390f35b348015610192575f5ffd5b5061019b61059c565b6040516101a891906108c3565b60405180910390f35b3480156101bc575f5ffd5b506101d760048036038101906101d2919061099a565b6105a2565b6040516101e5929190610a04565b60405180910390f35b3480156101f9575f5ffd5b506102026105e0565b60405161020f9190610a2b565b60405180910390f35b348015610223575f5ffd5b5061022c610605565b6040516102399190610afb565b60405180910390f35b61024a6106f8565b005b60015f9054906101000a900473ffffffffffffffffffffffffffffffffffffffff1673ffffffffffffffffffffffffffffffffffffffff163373ffffffffffffffffffffffffffffffffffffffff16146102db576040517f08c379a00000000000000000000000000000000000000000000000000000000081526004016102d290610b65565b60405180910390fd5b426003541061031f576040517f08c379a000000000000000000000000000000000000000000000000000000000815260040161031690610bcd565b60405180910390fd5b600754670de0b6b3a76400006006546103389190610c18565b1115610444575f60025490505b5f8111156103f9575f60018261035b9190610c59565b90505f5f8281526020019081526020015f205f015f9054906101000a900473ffffffffffffffffffffffffffffffffffffffff1673ffffffffffffffffffffffffffffffffffffffff166108fc5f5f8481526020019081526020015f206001015490811502906040515f60405180830381858888f193505050501580156103e4573d5f5f3e3d5ffd5b505080806103f190610c8c565b915050610345565b506040518060400160405280600f81526020017f43616d706169676e204661696c656400000000000000000000000000000000008152506004908161043e9190610eee565b506104d0565b3373ffffffffffffffffffffffffffffffffffffffff166108fc60075490811502906040515f60405180830381858888f19350505050158015610489573d5f5f3e3d5ffd5b506040518060400160405280601281526020017f43616d706169676e205375636365656465640000000000000000000000000000815250600490816104ce9190610eee565b505b600160055f6101000a81548160ff021916908315150217905550565b60055f9054906101000a900460ff1681565b60025481565b60075481565b6004805461051790610d0d565b80601f016020809104026020016040519081016040528092919081815260200182805461054390610d0d565b801561058e5780601f106105655761010080835404028352916020019161058e565b820191905f5260205f20905b81548152906001019060200180831161057157829003601f168201915b505050505081565b60065481565b60035481565b5f602052805f5260405f205f91509050805f015f9054906101000a900473ffffffffffffffffffffffffffffffffffffffff16908060010154905082565b60015f9054906101000a900473ffffffffffffffffffffffffffffffffffffffff1681565b60605f60025467ffffffffffffffff81111561062457610623610cb3565b5b6040519080825280602002602001820160405280156106525781602001602082028036833780820191505090505b5090505f5f90505b6002548110156106f0575f5f8281526020019081526020015f205f015f9054906101000a900473ffffffffffffffffffffffffffffffffffffffff168282815181106106a9576106a8610fbd565b5b602002602001019073ffffffffffffffffffffffffffffffffffffffff16908173ffffffffffffffffffffffffffffffffffffffff1681525050808060010191505061065a565b508091505090565b60055f9054906101000a900460ff1615610747576040517f08c379a000000000000000000000000000000000000000000000000000000000815260040161073e90611034565b60405180910390fd5b426003541161078b576040517f08c379a000000000000000000000000000000000000000000000000000000000815260040161078290611034565b60405180910390fd5b335f5f60025481526020019081526020015f205f015f6101000a81548173ffffffffffffffffffffffffffffffffffffffff021916908373ffffffffffffffffffffffffffffffffffffffff160217905550345f5f60025481526020019081526020015f20600101819055503460075f8282546108089190611052565b92505081905550600160025f8282546108219190611052565b925050819055503373ffffffffffffffffffffffffffffffffffffffff167f5af8184bef8e4b45eb9f6ed7734d04da38ced226495548f46e0c8ff8d7d9a5243460405161086e91906108c3565b60405180910390a2565b5f8115159050919050565b61088c81610878565b82525050565b5f6020820190506108a55f830184610883565b92915050565b5f819050919050565b6108bd816108ab565b82525050565b5f6020820190506108d65f8301846108b4565b92915050565b5f81519050919050565b5f82825260208201905092915050565b8281835e5f83830152505050565b5f601f19601f8301169050919050565b5f61091e826108dc565b61092881856108e6565b93506109388185602086016108f6565b61094181610904565b840191505092915050565b5f6020820190508181035f8301526109648184610914565b905092915050565b5f5ffd5b610979816108ab565b8114610983575f5ffd5b50565b5f8135905061099481610970565b92915050565b5f602082840312156109af576109ae61096c565b5b5f6109bc84828501610986565b91505092915050565b5f73ffffffffffffffffffffffffffffffffffffffff82169050919050565b5f6109ee826109c5565b9050919050565b6109fe816109e4565b82525050565b5f604082019050610a175f8301856109f5565b610a2460208301846108b4565b9392505050565b5f602082019050610a3e5f8301846109f5565b92915050565b5f81519050919050565b5f82825260208201905092915050565b5f819050602082019050919050565b610a76816109e4565b82525050565b5f610a878383610a6d565b60208301905092915050565b5f602082019050919050565b5f610aa982610a44565b610ab38185610a4e565b9350610abe83610a5e565b805f5b83811015610aee578151610ad58882610a7c565b9750610ae083610a93565b925050600181019050610ac1565b5085935050505092915050565b5f6020820190508181035f830152610b138184610a9f565b905092915050565b7f596f7520617265206e6f74206f776e6572205b4661696c65645d0000000000005f82015250565b5f610b4f601a836108e6565b9150610b5a82610b1b565b602082019050919050565b5f6020820190508181035f830152610b7c81610b43565b9050919050565b7f46756e64696e67206973206e6f7420656e6465640000000000000000000000005f82015250565b5f610bb76014836108e6565b9150610bc282610b83565b602082019050919050565b5f6020820190508181035f830152610be481610bab565b9050919050565b7f4e487b71000000000000000000000000000000000000000000000000000000005f52601160045260245ffd5b5f610c22826108ab565b9150610c2d836108ab565b9250828202610c3b816108ab565b91508282048414831517610c5257610c51610beb565b5b5092915050565b5f610c63826108ab565b9150610c6e836108ab565b9250828203905081811115610c8657610c85610beb565b5b92915050565b5f610c96826108ab565b91505f8203610ca857610ca7610beb565b5b600182039050919050565b7f4e487b71000000000000000000000000000000000000000000000000000000005f52604160045260245ffd5b7f4e487b71000000000000000000000000000000000000000000000000000000005f52602260045260245ffd5b5f6002820490506001821680610d2457607f821691505b602082108103610d3757610d36610ce0565b5b50919050565b5f819050815f5260205f209050919050565b5f6020601f8301049050919050565b5f82821b905092915050565b5f60088302610d997fffffffffffffffffffffffffffffffffffffffffffffffffffffffffffffffff82610d5e565b610da38683610d5e565b95508019841693508086168417925050509392505050565b5f819050919050565b5f610dde610dd9610dd4846108ab565b610dbb565b6108ab565b9050919050565b5f819050919050565b610df783610dc4565b610e0b610e0382610de5565b848454610d6a565b825550505050565b5f5f905090565b610e22610e13565b610e2d818484610dee565b505050565b5f5b82811015610e5357610e485f828401610e1a565b600181019050610e34565b505050565b601f821115610ea65782821115610ea557610e7281610d3d565b610e7b83610d4f565b610e8485610d4f565b6020861015610e91575f90505b808301610ea082840382610e32565b505050505b5b505050565b5f82821c905092915050565b5f610ec65f1984600802610eab565b1980831691505092915050565b5f610ede8383610eb7565b9150826002028217905092915050565b610ef7826108dc565b67ffffffffffffffff811115610f1057610f0f610cb3565b5b610f1a8254610d0d565b610f25828285610e58565b5f60209050601f831160018114610f56575f8415610f44578287015190505b610f4e8582610ed3565b865550610fb5565b601f198416610f6486610d3d565b5f5b82811015610f8b57848901518255600182019150602085019450602081019050610f66565b86831015610fa85784890151610fa4601f891682610eb7565b8355505b6001600288020188555050505b505050505050565b7f4e487b71000000000000000000000000000000000000000000000000000000005f52603260045260245ffd5b7f46756e64696e672077617320656e6465640000000000000000000000000000005f82015250565b5f61101e6011836108e6565b915061102982610fea565b602082019050919050565b5f6020820190508181035f83015261104b81611012565b9050919050565b5f61105c826108ab565b9150611067836108ab565b925082820190508082111561107f5761107e610beb565b5b9291505056fea264697066735822122003e9bf88320fd901b5689e57abda221b907de27aa5f18415b74b09160109cb6a64736f6c63430008200033",
					"opcodes": "PUSH1 0x80 PUSH1 0x40 MSTORE CALLVALUE DUP1 ISZERO PUSH2 0xF JUMPI PUSH0 PUSH0 REVERT JUMPDEST POP PUSH1 0x40 MLOAD PUSH2 0x15FB CODESIZE SUB DUP1 PUSH2 0x15FB DUP4 CODECOPY DUP2 DUP2 ADD PUSH1 0x40 MSTORE DUP2 ADD SWAP1 PUSH2 0x31 SWAP2 SWAP1 PUSH2 0x140 JUMP JUMPDEST CALLER PUSH1 0x1 PUSH0 PUSH2 0x100 EXP DUP2 SLOAD DUP2 PUSH20 0xFFFFFFFFFFFFFFFFFFFFFFFFFFFFFFFFFFFFFFFF MUL NOT AND SWAP1 DUP4 PUSH20 0xFFFFFFFFFFFFFFFFFFFFFFFFFFFFFFFFFFFFFFFF AND MUL OR SWAP1 SSTORE POP PUSH1 0x1 DUP3 PUSH2 0x7E SWAP2 SWAP1 PUSH2 0x1AB JUMP JUMPDEST TIMESTAMP PUSH2 0x89 SWAP2 SWAP1 PUSH2 0x1EC JUMP JUMPDEST PUSH1 0x3 DUP2 SWAP1 SSTORE POP DUP1 PUSH1 0x6 DUP2 SWAP1 SSTORE POP PUSH1 0x40 MLOAD DUP1 PUSH1 0x40 ADD PUSH1 0x40 MSTORE DUP1 PUSH1 0x7 DUP2 MSTORE PUSH1 0x20 ADD PUSH32 0x46756E64696E6700000000000000000000000000000000000000000000000000 DUP2 MSTORE POP PUSH1 0x4 SWAP1 DUP2 PUSH2 0xDA SWAP2 SWAP1 PUSH2 0x464 JUMP JUMPDEST POP PUSH0 PUSH1 0x5 PUSH0 PUSH2 0x100 EXP DUP2 SLOAD DUP2 PUSH1 0xFF MUL NOT AND SWAP1 DUP4 ISZERO ISZERO MUL OR SWAP1 SSTORE POP PUSH0 PUSH1 0x2 DUP2 SWAP1 SSTORE POP PUSH0 PUSH1 0x7 DUP2 SWAP1 SSTORE POP POP POP PUSH2 0x533 JUMP JUMPDEST PUSH0 PUSH0 REVERT JUMPDEST PUSH0 DUP2 SWAP1 POP SWAP2 SWAP1 POP JUMP JUMPDEST PUSH2 0x11F DUP2 PUSH2 0x10D JUMP JUMPDEST DUP2 EQ PUSH2 0x129 JUMPI PUSH0 PUSH0 REVERT JUMPDEST POP JUMP JUMPDEST PUSH0 DUP2 MLOAD SWAP1 POP PUSH2 0x13A DUP2 PUSH2 0x116 JUMP JUMPDEST SWAP3 SWAP2 POP POP JUMP JUMPDEST PUSH0 PUSH0 PUSH1 0x40 DUP4 DUP6 SUB SLT ISZERO PUSH2 0x156 JUMPI PUSH2 0x155 PUSH2 0x109 JUMP JUMPDEST JUMPDEST PUSH0 PUSH2 0x163 DUP6 DUP3 DUP7 ADD PUSH2 0x12C JUMP JUMPDEST SWAP3 POP POP PUSH1 0x20 PUSH2 0x174 DUP6 DUP3 DUP7 ADD PUSH2 0x12C JUMP JUMPDEST SWAP2 POP POP SWAP3 POP SWAP3 SWAP1 POP JUMP JUMPDEST PUSH32 0x4E487B7100000000000000000000000000000000000000000000000000000000 PUSH0 MSTORE PUSH1 0x11 PUSH1 0x4 MSTORE PUSH1 0x24 PUSH0 REVERT JUMPDEST PUSH0 PUSH2 0x1B5 DUP3 PUSH2 0x10D JUMP JUMPDEST SWAP2 POP PUSH2 0x1C0 DUP4 PUSH2 0x10D JUMP JUMPDEST SWAP3 POP DUP3 DUP3 MUL PUSH2 0x1CE DUP2 PUSH2 0x10D JUMP JUMPDEST SWAP2 POP DUP3 DUP3 DIV DUP5 EQ DUP4 ISZERO OR PUSH2 0x1E5 JUMPI PUSH2 0x1E4 PUSH2 0x17E JUMP JUMPDEST JUMPDEST POP SWAP3 SWAP2 POP POP JUMP JUMPDEST PUSH0 PUSH2 0x1F6 DUP3 PUSH2 0x10D JUMP JUMPDEST SWAP2 POP PUSH2 0x201 DUP4 PUSH2 0x10D JUMP JUMPDEST SWAP3 POP DUP3 DUP3 ADD SWAP1 POP DUP1 DUP3 GT ISZERO PUSH2 0x219 JUMPI PUSH2 0x218 PUSH2 0x17E JUMP JUMPDEST JUMPDEST SWAP3 SWAP2 POP POP JUMP JUMPDEST PUSH0 DUP2 MLOAD SWAP1 POP SWAP2 SWAP1 POP JUMP JUMPDEST PUSH32 0x4E487B7100000000000000000000000000000000000000000000000000000000 PUSH0 MSTORE PUSH1 0x41 PUSH1 0x4 MSTORE PUSH1 0x24 PUSH0 REVERT JUMPDEST PUSH32 0x4E487B7100000000000000000000000000000000000000000000000000000000 PUSH0 MSTORE PUSH1 0x22 PUSH1 0x4 MSTORE PUSH1 0x24 PUSH0 REVERT JUMPDEST PUSH0 PUSH1 0x2 DUP3 DIV SWAP1 POP PUSH1 0x1 DUP3 AND DUP1 PUSH2 0x29A JUMPI PUSH1 0x7F DUP3 AND SWAP2 POP JUMPDEST PUSH1 0x20 DUP3 LT DUP2 SUB PUSH2 0x2AD JUMPI PUSH2 0x2AC PUSH2 0x256 JUMP JUMPDEST JUMPDEST POP SWAP2 SWAP1 POP JUMP JUMPDEST PUSH0 DUP2 SWAP1 POP DUP2 PUSH0 MSTORE PUSH1 0x20 PUSH0 KECCAK256 SWAP1 POP SWAP2 SWAP1 POP JUMP JUMPDEST PUSH0 PUSH1 0x20 PUSH1 0x1F DUP4 ADD DIV SWAP1 POP SWAP2 SWAP1 POP JUMP JUMPDEST PUSH0 DUP3 DUP3 SHL SWAP1 POP SWAP3 SWAP2 POP POP JUMP JUMPDEST PUSH0 PUSH1 0x8 DUP4 MUL PUSH2 0x30F PUSH32 0xFFFFFFFFFFFFFFFFFFFFFFFFFFFFFFFFFFFFFFFFFFFFFFFFFFFFFFFFFFFFFFFF DUP3 PUSH2 0x2D4 JUMP JUMPDEST PUSH2 0x319 DUP7 DUP4 PUSH2 0x2D4 JUMP JUMPDEST SWAP6 POP DUP1 NOT DUP5 AND SWAP4 POP DUP1 DUP7 AND DUP5 OR SWAP3 POP POP POP SWAP4 SWAP3 POP POP POP JUMP JUMPDEST PUSH0 DUP2 SWAP1 POP SWAP2 SWAP1 POP JUMP JUMPDEST PUSH0 PUSH2 0x354 PUSH2 0x34F PUSH2 0x34A DUP5 PUSH2 0x10D JUMP JUMPDEST PUSH2 0x331 JUMP JUMPDEST PUSH2 0x10D JUMP JUMPDEST SWAP1 POP SWAP2 SWAP1 POP JUMP JUMPDEST PUSH0 DUP2 SWAP1 POP SWAP2 SWAP1 POP JUMP JUMPDEST PUSH2 0x36D DUP4 PUSH2 0x33A JUMP JUMPDEST PUSH2 0x381 PUSH2 0x379 DUP3 PUSH2 0x35B JUMP JUMPDEST DUP5 DUP5 SLOAD PUSH2 0x2E0 JUMP JUMPDEST DUP3 SSTORE POP POP POP POP JUMP JUMPDEST PUSH0 PUSH0 SWAP1 POP SWAP1 JUMP JUMPDEST PUSH2 0x398 PUSH2 0x389 JUMP JUMPDEST PUSH2 0x3A3 DUP2 DUP5 DUP5 PUSH2 0x364 JUMP JUMPDEST POP POP POP JUMP JUMPDEST PUSH0 JUMPDEST DUP3 DUP2 LT ISZERO PUSH2 0x3C9 JUMPI PUSH2 0x3BE PUSH0 DUP3 DUP5 ADD PUSH2 0x390 JUMP JUMPDEST PUSH1 0x1 DUP2 ADD SWAP1 POP PUSH2 0x3AA JUMP JUMPDEST POP POP POP JUMP JUMPDEST PUSH1 0x1F DUP3 GT ISZERO PUSH2 0x41C JUMPI DUP3 DUP3 GT ISZERO PUSH2 0x41B JUMPI PUSH2 0x3E8 DUP2 PUSH2 0x2B3 JUMP JUMPDEST PUSH2 0x3F1 DUP4 PUSH2 0x2C5 JUMP JUMPDEST PUSH2 0x3FA DUP6 PUSH2 0x2C5 JUMP JUMPDEST PUSH1 0x20 DUP7 LT ISZERO PUSH2 0x407 JUMPI PUSH0 SWAP1 POP JUMPDEST DUP1 DUP4 ADD PUSH2 0x416 DUP3 DUP5 SUB DUP3 PUSH2 0x3A8 JUMP JUMPDEST POP POP POP POP JUMPDEST JUMPDEST POP POP POP JUMP JUMPDEST PUSH0 DUP3 DUP3 SHR SWAP1 POP SWAP3 SWAP2 POP POP JUMP JUMPDEST PUSH0 PUSH2 0x43C PUSH0 NOT DUP5 PUSH1 0x8 MUL PUSH2 0x421 JUMP JUMPDEST NOT DUP1 DUP4 AND SWAP2 POP POP SWAP3 SWAP2 POP POP JUMP JUMPDEST PUSH0 PUSH2 0x454 DUP4 DUP4 PUSH2 0x42D JUMP JUMPDEST SWAP2 POP DUP3 PUSH1 0x2 MUL DUP3 OR SWAP1 POP SWAP3 SWAP2 POP POP JUMP JUMPDEST PUSH2 0x46D DUP3 PUSH2 0x21F JUMP JUMPDEST PUSH8 0xFFFFFFFFFFFFFFFF DUP2 GT ISZERO PUSH2 0x486 JUMPI PUSH2 0x485 PUSH2 0x229 JUMP JUMPDEST JUMPDEST PUSH2 0x490 DUP3 SLOAD PUSH2 0x283 JUMP JUMPDEST PUSH2 0x49B DUP3 DUP3 DUP6 PUSH2 0x3CE JUMP JUMPDEST PUSH0 PUSH1 0x20 SWAP1 POP PUSH1 0x1F DUP4 GT PUSH1 0x1 DUP2 EQ PUSH2 0x4CC JUMPI PUSH0 DUP5 ISZERO PUSH2 0x4BA JUMPI DUP3 DUP8 ADD MLOAD SWAP1 POP JUMPDEST PUSH2 0x4C4 DUP6 DUP3 PUSH2 0x449 JUMP JUMPDEST DUP7 SSTORE POP PUSH2 0x52B JUMP JUMPDEST PUSH1 0x1F NOT DUP5 AND PUSH2 0x4DA DUP7 PUSH2 0x2B3 JUMP JUMPDEST PUSH0 JUMPDEST DUP3 DUP2 LT ISZERO PUSH2 0x501 JUMPI DUP5 DUP10 ADD MLOAD DUP3 SSTORE PUSH1 0x1 DUP3 ADD SWAP2 POP PUSH1 0x20 DUP6 ADD SWAP5 POP PUSH1 0x20 DUP2 ADD SWAP1 POP PUSH2 0x4DC JUMP JUMPDEST DUP7 DUP4 LT ISZERO PUSH2 0x51E JUMPI DUP5 DUP10 ADD MLOAD PUSH2 0x51A PUSH1 0x1F DUP10 AND DUP3 PUSH2 0x42D JUMP JUMPDEST DUP4 SSTORE POP JUMPDEST PUSH1 0x1 PUSH1 0x2 DUP9 MUL ADD DUP9 SSTORE POP POP POP JUMPDEST POP POP POP POP POP POP JUMP JUMPDEST PUSH2 0x10BB DUP1 PUSH2 0x540 PUSH0 CODECOPY PUSH0 RETURN INVALID PUSH1 0x80 PUSH1 0x40 MSTORE PUSH1 0x4 CALLDATASIZE LT PUSH2 0x9B JUMPI PUSH0 CALLDATALOAD PUSH1 0xE0 SHR DUP1 PUSH4 0x2636B945 GT PUSH2 0x63 JUMPI DUP1 PUSH4 0x2636B945 EQ PUSH2 0x15D JUMPI DUP1 PUSH4 0x29DCB0CF EQ PUSH2 0x187 JUMPI DUP1 PUSH4 0x3FEB5F2B EQ PUSH2 0x1B1 JUMPI DUP1 PUSH4 0x8DA5CB5B EQ PUSH2 0x1EE JUMPI DUP1 PUSH4 0xB2F5A54C EQ PUSH2 0x218 JUMPI DUP1 PUSH4 0xB60D4288 EQ PUSH2 0x242 JUMPI PUSH2 0x9B JUMP JUMPDEST DUP1 PUSH4 0x1CB3B20 EQ PUSH2 0x9F JUMPI DUP1 PUSH4 0x12FA6FEB EQ PUSH2 0xB5 JUMPI DUP1 PUSH4 0x132AE5E9 EQ PUSH2 0xDF JUMPI DUP1 PUSH4 0x1A39D8EF EQ PUSH2 0x109 JUMPI DUP1 PUSH4 0x200D2ED2 EQ PUSH2 0x133 JUMPI JUMPDEST PUSH0 PUSH0 REVERT JUMPDEST CALLVALUE DUP1 ISZERO PUSH2 0xAA JUMPI PUSH0 PUSH0 REVERT JUMPDEST POP PUSH2 0xB3 PUSH2 0x24C JUMP JUMPDEST STOP JUMPDEST CALLVALUE DUP1 ISZERO PUSH2 0xC0 JUMPI PUSH0 PUSH0 REVERT JUMPDEST POP PUSH2 0xC9 PUSH2 0x4EC JUMP JUMPDEST PUSH1 0x40 MLOAD PUSH2 0xD6 SWAP2 SWAP1 PUSH2 0x892 JUMP JUMPDEST PUSH1 0x40 MLOAD DUP1 SWAP2 SUB SWAP1 RETURN JUMPDEST CALLVALUE DUP1 ISZERO PUSH2 0xEA JUMPI PUSH0 PUSH0 REVERT JUMPDEST POP PUSH2 0xF3 PUSH2 0x4FE JUMP JUMPDEST PUSH1 0x40 MLOAD PUSH2 0x100 SWAP2 SWAP1 PUSH2 0x8C3 JUMP JUMPDEST PUSH1 0x40 MLOAD DUP1 SWAP2 SUB SWAP1 RETURN JUMPDEST CALLVALUE DUP1 ISZERO PUSH2 0x114 JUMPI PUSH0 PUSH0 REVERT JUMPDEST POP PUSH2 0x11D PUSH2 0x504 JUMP JUMPDEST PUSH1 0x40 MLOAD PUSH2 0x12A SWAP2 SWAP1 PUSH2 0x8C3 JUMP JUMPDEST PUSH1 0x40 MLOAD DUP1 SWAP2 SUB SWAP1 RETURN JUMPDEST CALLVALUE DUP1 ISZERO PUSH2 0x13E JUMPI PUSH0 PUSH0 REVERT JUMPDEST POP PUSH2 0x147 PUSH2 0x50A JUMP JUMPDEST PUSH1 0x40 MLOAD PUSH2 0x154 SWAP2 SWAP1 PUSH2 0x94C JUMP JUMPDEST PUSH1 0x40 MLOAD DUP1 SWAP2 SUB SWAP1 RETURN JUMPDEST CALLVALUE DUP1 ISZERO PUSH2 0x168 JUMPI PUSH0 PUSH0 REVERT JUMPDEST POP PUSH2 0x171 PUSH2 0x596 JUMP JUMPDEST PUSH1 0x40 MLOAD PUSH2 0x17E SWAP2 SWAP1 PUSH2 0x8C3 JUMP JUMPDEST PUSH1 0x40 MLOAD DUP1 SWAP2 SUB SWAP1 RETURN JUMPDEST CALLVALUE DUP1 ISZERO PUSH2 0x192 JUMPI PUSH0 PUSH0 REVERT JUMPDEST POP PUSH2 0x19B PUSH2 0x59C JUMP JUMPDEST PUSH1 0x40 MLOAD PUSH2 0x1A8 SWAP2 SWAP1 PUSH2 0x8C3 JUMP JUMPDEST PUSH1 0x40 MLOAD DUP1 SWAP2 SUB SWAP1 RETURN JUMPDEST CALLVALUE DUP1 ISZERO PUSH2 0x1BC JUMPI PUSH0 PUSH0 REVERT JUMPDEST POP PUSH2 0x1D7 PUSH1 0x4 DUP1 CALLDATASIZE SUB DUP2 ADD SWAP1 PUSH2 0x1D2 SWAP2 SWAP1 PUSH2 0x99A JUMP JUMPDEST PUSH2 0x5A2 JUMP JUMPDEST PUSH1 0x40 MLOAD PUSH2 0x1E5 SWAP3 SWAP2 SWAP1 PUSH2 0xA04 JUMP JUMPDEST PUSH1 0x40 MLOAD DUP1 SWAP2 SUB SWAP1 RETURN JUMPDEST CALLVALUE DUP1 ISZERO PUSH2 0x1F9 JUMPI PUSH0 PUSH0 REVERT JUMPDEST POP PUSH2 0x202 PUSH2 0x5E0 JUMP JUMPDEST PUSH1 0x40 MLOAD PUSH2 0x20F SWAP2 SWAP1 PUSH2 0xA2B JUMP JUMPDEST PUSH1 0x40 MLOAD DUP1 SWAP2 SUB SWAP1 RETURN JUMPDEST CALLVALUE DUP1 ISZERO PUSH2 0x223 JUMPI PUSH0 PUSH0 REVERT JUMPDEST POP PUSH2 0x22C PUSH2 0x605 JUMP JUMPDEST PUSH1 0x40 MLOAD PUSH2 0x239 SWAP2 SWAP1 PUSH2 0xAFB JUMP JUMPDEST PUSH1 0x40 MLOAD DUP1 SWAP2 SUB SWAP1 RETURN JUMPDEST PUSH2 0x24A PUSH2 0x6F8 JUMP JUMPDEST STOP JUMPDEST PUSH1 0x1 PUSH0 SWAP1 SLOAD SWAP1 PUSH2 0x100 EXP SWAP1 DIV PUSH20 0xFFFFFFFFFFFFFFFFFFFFFFFFFFFFFFFFFFFFFFFF AND PUSH20 0xFFFFFFFFFFFFFFFFFFFFFFFFFFFFFFFFFFFFFFFF AND CALLER PUSH20 0xFFFFFFFFFFFFFFFFFFFFFFFFFFFFFFFFFFFFFFFF AND EQ PUSH2 0x2DB JUMPI PUSH1 0x40 MLOAD PUSH32 0x8C379A000000000000000000000000000000000000000000000000000000000 DUP2 MSTORE PUSH1 0x4 ADD PUSH2 0x2D2 SWAP1 PUSH2 0xB65 JUMP JUMPDEST PUSH1 0x40 MLOAD DUP1 SWAP2 SUB SWAP1 REVERT JUMPDEST TIMESTAMP PUSH1 0x3 SLOAD LT PUSH2 0x31F JUMPI PUSH1 0x40 MLOAD PUSH32 0x8C379A000000000000000000000000000000000000000000000000000000000 DUP2 MSTORE PUSH1 0x4 ADD PUSH2 0x316 SWAP1 PUSH2 0xBCD JUMP JUMPDEST PUSH1 0x40 MLOAD DUP1 SWAP2 SUB SWAP1 REVERT JUMPDEST PUSH1 0x7 SLOAD PUSH8 0xDE0B6B3A7640000 PUSH1 0x6 SLOAD PUSH2 0x338 SWAP2 SWAP1 PUSH2 0xC18 JUMP JUMPDEST GT ISZERO PUSH2 0x444 JUMPI PUSH0 PUSH1 0x2 SLOAD SWAP1 POP JUMPDEST PUSH0 DUP2 GT ISZERO PUSH2 0x3F9 JUMPI PUSH0 PUSH1 0x1 DUP3 PUSH2 0x35B SWAP2 SWAP1 PUSH2 0xC59 JUMP JUMPDEST SWAP1 POP PUSH0 PUSH0 DUP3 DUP2 MSTORE PUSH1 0x20 ADD SWAP1 DUP2 MSTORE PUSH1 0x20 ADD PUSH0 KECCAK256 PUSH0 ADD PUSH0 SWAP1 SLOAD SWAP1 PUSH2 0x100 EXP SWAP1 DIV PUSH20 0xFFFFFFFFFFFFFFFFFFFFFFFFFFFFFFFFFFFFFFFF AND PUSH20 0xFFFFFFFFFFFFFFFFFFFFFFFFFFFFFFFFFFFFFFFF AND PUSH2 0x8FC PUSH0 PUSH0 DUP5 DUP2 MSTORE PUSH1 0x20 ADD SWAP1 DUP2 MSTORE PUSH1 0x20 ADD PUSH0 KECCAK256 PUSH1 0x1 ADD SLOAD SWAP1 DUP2 ISZERO MUL SWAP1 PUSH1 0x40 MLOAD PUSH0 PUSH1 0x40 MLOAD DUP1 DUP4 SUB DUP2 DUP6 DUP9 DUP9 CALL SWAP4 POP POP POP POP ISZERO DUP1 ISZERO PUSH2 0x3E4 JUMPI RETURNDATASIZE PUSH0 PUSH0 RETURNDATACOPY RETURNDATASIZE PUSH0 REVERT JUMPDEST POP POP DUP1 DUP1 PUSH2 0x3F1 SWAP1 PUSH2 0xC8C JUMP JUMPDEST SWAP2 POP POP PUSH2 0x345 JUMP JUMPDEST POP PUSH1 0x40 MLOAD DUP1 PUSH1 0x40 ADD PUSH1 0x40 MSTORE DUP1 PUSH1 0xF DUP2 MSTORE PUSH1 0x20 ADD PUSH32 0x43616D706169676E204661696C65640000000000000000000000000000000000 DUP2 MSTORE POP PUSH1 0x4 SWAP1 DUP2 PUSH2 0x43E SWAP2 SWAP1 PUSH2 0xEEE JUMP JUMPDEST POP PUSH2 0x4D0 JUMP JUMPDEST CALLER PUSH20 0xFFFFFFFFFFFFFFFFFFFFFFFFFFFFFFFFFFFFFFFF AND PUSH2 0x8FC PUSH1 0x7 SLOAD SWAP1 DUP2 ISZERO MUL SWAP1 PUSH1 0x40 MLOAD PUSH0 PUSH1 0x40 MLOAD DUP1 DUP4 SUB DUP2 DUP6 DUP9 DUP9 CALL SWAP4 POP POP POP POP ISZERO DUP1 ISZERO PUSH2 0x489 JUMPI RETURNDATASIZE PUSH0 PUSH0 RETURNDATACOPY RETURNDATASIZE PUSH0 REVERT JUMPDEST POP PUSH1 0x40 MLOAD DUP1 PUSH1 0x40 ADD PUSH1 0x40 MSTORE DUP1 PUSH1 0x12 DUP2 MSTORE PUSH1 0x20 ADD PUSH32 0x43616D706169676E205375636365656465640000000000000000000000000000 DUP2 MSTORE POP PUSH1 0x4 SWAP1 DUP2 PUSH2 0x4CE SWAP2 SWAP1 PUSH2 0xEEE JUMP JUMPDEST POP JUMPDEST PUSH1 0x1 PUSH1 0x5 PUSH0 PUSH2 0x100 EXP DUP2 SLOAD DUP2 PUSH1 0xFF MUL NOT AND SWAP1 DUP4 ISZERO ISZERO MUL OR SWAP1 SSTORE POP JUMP JUMPDEST PUSH1 0x5 PUSH0 SWAP1 SLOAD SWAP1 PUSH2 0x100 EXP SWAP1 DIV PUSH1 0xFF AND DUP2 JUMP JUMPDEST PUSH1 0x2 SLOAD DUP2 JUMP JUMPDEST PUSH1 0x7 SLOAD DUP2 JUMP JUMPDEST PUSH1 0x4 DUP1 SLOAD PUSH2 0x517 SWAP1 PUSH2 0xD0D JUMP JUMPDEST DUP1 PUSH1 0x1F ADD PUSH1 0x20 DUP1 SWAP2 DIV MUL PUSH1 0x20 ADD PUSH1 0x40 MLOAD SWAP1 DUP2 ADD PUSH1 0x40 MSTORE DUP1 SWAP3 SWAP2 SWAP1 DUP2 DUP2 MSTORE PUSH1 0x20 ADD DUP3 DUP1 SLOAD PUSH2 0x543 SWAP1 PUSH2 0xD0D JUMP JUMPDEST DUP1 ISZERO PUSH2 0x58E JUMPI DUP1 PUSH1 0x1F LT PUSH2 0x565 JUMPI PUSH2 0x100 DUP1 DUP4 SLOAD DIV MUL DUP4 MSTORE SWAP2 PUSH1 0x20 ADD SWAP2 PUSH2 0x58E JUMP JUMPDEST DUP3 ADD SWAP2 SWAP1 PUSH0 MSTORE PUSH1 0x20 PUSH0 KECCAK256 SWAP1 JUMPDEST DUP2 SLOAD DUP2 MSTORE SWAP1 PUSH1 0x1 ADD SWAP1 PUSH1 0x20 ADD DUP1 DUP4 GT PUSH2 0x571 JUMPI DUP3 SWAP1 SUB PUSH1 0x1F AND DUP3 ADD SWAP2 JUMPDEST POP POP POP POP POP DUP2 JUMP JUMPDEST PUSH1 0x6 SLOAD DUP2 JUMP JUMPDEST PUSH1 0x3 SLOAD DUP2 JUMP JUMPDEST PUSH0 PUSH1 0x20 MSTORE DUP1 PUSH0 MSTORE PUSH1 0x40 PUSH0 KECCAK256 PUSH0 SWAP2 POP SWAP1 POP DUP1 PUSH0 ADD PUSH0 SWAP1 SLOAD SWAP1 PUSH2 0x100 EXP SWAP1 DIV PUSH20 0xFFFFFFFFFFFFFFFFFFFFFFFFFFFFFFFFFFFFFFFF AND SWAP1 DUP1 PUSH1 0x1 ADD SLOAD SWAP1 POP DUP3 JUMP JUMPDEST PUSH1 0x1 PUSH0 SWAP1 SLOAD SWAP1 PUSH2 0x100 EXP SWAP1 DIV PUSH20 0xFFFFFFFFFFFFFFFFFFFFFFFFFFFFFFFFFFFFFFFF AND DUP2 JUMP JUMPDEST PUSH1 0x60 PUSH0 PUSH1 0x2 SLOAD PUSH8 0xFFFFFFFFFFFFFFFF DUP2 GT ISZERO PUSH2 0x624 JUMPI PUSH2 0x623 PUSH2 0xCB3 JUMP JUMPDEST JUMPDEST PUSH1 0x40 MLOAD SWAP1 DUP1 DUP3 MSTORE DUP1 PUSH1 0x20 MUL PUSH1 0x20 ADD DUP3 ADD PUSH1 0x40 MSTORE DUP1 ISZERO PUSH2 0x652 JUMPI DUP2 PUSH1 0x20 ADD PUSH1 0x20 DUP3 MUL DUP1 CALLDATASIZE DUP4 CALLDATACOPY DUP1 DUP3 ADD SWAP2 POP POP SWAP1 POP JUMPDEST POP SWAP1 POP PUSH0 PUSH0 SWAP1 POP JUMPDEST PUSH1 0x2 SLOAD DUP2 LT ISZERO PUSH2 0x6F0 JUMPI PUSH0 PUSH0 DUP3 DUP2 MSTORE PUSH1 0x20 ADD SWAP1 DUP2 MSTORE PUSH1 0x20 ADD PUSH0 KECCAK256 PUSH0 ADD PUSH0 SWAP1 SLOAD SWAP1 PUSH2 0x100 EXP SWAP1 DIV PUSH20 0xFFFFFFFFFFFFFFFFFFFFFFFFFFFFFFFFFFFFFFFF AND DUP3 DUP3 DUP2 MLOAD DUP2 LT PUSH2 0x6A9 JUMPI PUSH2 0x6A8 PUSH2 0xFBD JUMP JUMPDEST JUMPDEST PUSH1 0x20 MUL PUSH1 0x20 ADD ADD SWAP1 PUSH20 0xFFFFFFFFFFFFFFFFFFFFFFFFFFFFFFFFFFFFFFFF AND SWAP1 DUP2 PUSH20 0xFFFFFFFFFFFFFFFFFFFFFFFFFFFFFFFFFFFFFFFF AND DUP2 MSTORE POP POP DUP1 DUP1 PUSH1 0x1 ADD SWAP2 POP POP PUSH2 0x65A JUMP JUMPDEST POP DUP1 SWAP2 POP POP SWAP1 JUMP JUMPDEST PUSH1 0x5 PUSH0 SWAP1 SLOAD SWAP1 PUSH2 0x100 EXP SWAP1 DIV PUSH1 0xFF AND ISZERO PUSH2 0x747 JUMPI PUSH1 0x40 MLOAD PUSH32 0x8C379A000000000000000000000000000000000000000000000000000000000 DUP2 MSTORE PUSH1 0x4 ADD PUSH2 0x73E SWAP1 PUSH2 0x1034 JUMP JUMPDEST PUSH1 0x40 MLOAD DUP1 SWAP2 SUB SWAP1 REVERT JUMPDEST TIMESTAMP PUSH1 0x3 SLOAD GT PUSH2 0x78B JUMPI PUSH1 0x40 MLOAD PUSH32 0x8C379A000000000000000000000000000000000000000000000000000000000 DUP2 MSTORE PUSH1 0x4 ADD PUSH2 0x782 SWAP1 PUSH2 0x1034 JUMP JUMPDEST PUSH1 0x40 MLOAD DUP1 SWAP2 SUB SWAP1 REVERT JUMPDEST CALLER PUSH0 PUSH0 PUSH1 0x2 SLOAD DUP2 MSTORE PUSH1 0x20 ADD SWAP1 DUP2 MSTORE PUSH1 0x20 ADD PUSH0 KECCAK256 PUSH0 ADD PUSH0 PUSH2 0x100 EXP DUP2 SLOAD DUP2 PUSH20 0xFFFFFFFFFFFFFFFFFFFFFFFFFFFFFFFFFFFFFFFF MUL NOT AND SWAP1 DUP4 PUSH20 0xFFFFFFFFFFFFFFFFFFFFFFFFFFFFFFFFFFFFFFFF AND MUL OR SWAP1 SSTORE POP CALLVALUE PUSH0 PUSH0 PUSH1 0x2 SLOAD DUP2 MSTORE PUSH1 0x20 ADD SWAP1 DUP2 MSTORE PUSH1 0x20 ADD PUSH0 KECCAK256 PUSH1 0x1 ADD DUP2 SWAP1 SSTORE POP CALLVALUE PUSH1 0x7 PUSH0 DUP3 DUP3 SLOAD PUSH2 0x808 SWAP2 SWAP1 PUSH2 0x1052 JUMP JUMPDEST SWAP3 POP POP DUP2 SWAP1 SSTORE POP PUSH1 0x1 PUSH1 0x2 PUSH0 DUP3 DUP3 SLOAD PUSH2 0x821 SWAP2 SWAP1 PUSH2 0x1052 JUMP JUMPDEST SWAP3 POP POP DUP2 SWAP1 SSTORE POP CALLER PUSH20 0xFFFFFFFFFFFFFFFFFFFFFFFFFFFFFFFFFFFFFFFF AND PUSH32 0x5AF8184BEF8E4B45EB9F6ED7734D04DA38CED226495548F46E0C8FF8D7D9A524 CALLVALUE PUSH1 0x40 MLOAD PUSH2 0x86E SWAP2 SWAP1 PUSH2 0x8C3 JUMP JUMPDEST PUSH1 0x40 MLOAD DUP1 SWAP2 SUB SWAP1 LOG2 JUMP JUMPDEST PUSH0 DUP2 ISZERO ISZERO SWAP1 POP SWAP2 SWAP1 POP JUMP JUMPDEST PUSH2 0x88C DUP2 PUSH2 0x878 JUMP JUMPDEST DUP3 MSTORE POP POP JUMP JUMPDEST PUSH0 PUSH1 0x20 DUP3 ADD SWAP1 POP PUSH2 0x8A5 PUSH0 DUP4 ADD DUP5 PUSH2 0x883 JUMP JUMPDEST SWAP3 SWAP2 POP POP JUMP JUMPDEST PUSH0 DUP2 SWAP1 POP SWAP2 SWAP1 POP JUMP JUMPDEST PUSH2 0x8BD DUP2 PUSH2 0x8AB JUMP JUMPDEST DUP3 MSTORE POP POP JUMP JUMPDEST PUSH0 PUSH1 0x20 DUP3 ADD SWAP1 POP PUSH2 0x8D6 PUSH0 DUP4 ADD DUP5 PUSH2 0x8B4 JUMP JUMPDEST SWAP3 SWAP2 POP POP JUMP JUMPDEST PUSH0 DUP2 MLOAD SWAP1 POP SWAP2 SWAP1 POP JUMP JUMPDEST PUSH0 DUP3 DUP3 MSTORE PUSH1 0x20 DUP3 ADD SWAP1 POP SWAP3 SWAP2 POP POP JUMP JUMPDEST DUP3 DUP2 DUP4 MCOPY PUSH0 DUP4 DUP4 ADD MSTORE POP POP POP JUMP JUMPDEST PUSH0 PUSH1 0x1F NOT PUSH1 0x1F DUP4 ADD AND SWAP1 POP SWAP2 SWAP1 POP JUMP JUMPDEST PUSH0 PUSH2 0x91E DUP3 PUSH2 0x8DC JUMP JUMPDEST PUSH2 0x928 DUP2 DUP6 PUSH2 0x8E6 JUMP JUMPDEST SWAP4 POP PUSH2 0x938 DUP2 DUP6 PUSH1 0x20 DUP7 ADD PUSH2 0x8F6 JUMP JUMPDEST PUSH2 0x941 DUP2 PUSH2 0x904 JUMP JUMPDEST DUP5 ADD SWAP2 POP POP SWAP3 SWAP2 POP POP JUMP JUMPDEST PUSH0 PUSH1 0x20 DUP3 ADD SWAP1 POP DUP2 DUP2 SUB PUSH0 DUP4 ADD MSTORE PUSH2 0x964 DUP2 DUP5 PUSH2 0x914 JUMP JUMPDEST SWAP1 POP SWAP3 SWAP2 POP POP JUMP JUMPDEST PUSH0 PUSH0 REVERT JUMPDEST PUSH2 0x979 DUP2 PUSH2 0x8AB JUMP JUMPDEST DUP2 EQ PUSH2 0x983 JUMPI PUSH0 PUSH0 REVERT JUMPDEST POP JUMP JUMPDEST PUSH0 DUP2 CALLDATALOAD SWAP1 POP PUSH2 0x994 DUP2 PUSH2 0x970 JUMP JUMPDEST SWAP3 SWAP2 POP POP JUMP JUMPDEST PUSH0 PUSH1 0x20 DUP3 DUP5 SUB SLT ISZERO PUSH2 0x9AF JUMPI PUSH2 0x9AE PUSH2 0x96C JUMP JUMPDEST JUMPDEST PUSH0 PUSH2 0x9BC DUP5 DUP3 DUP6 ADD PUSH2 0x986 JUMP JUMPDEST SWAP2 POP POP SWAP3 SWAP2 POP POP JUMP JUMPDEST PUSH0 PUSH20 0xFFFFFFFFFFFFFFFFFFFFFFFFFFFFFFFFFFFFFFFF DUP3 AND SWAP1 POP SWAP2 SWAP1 POP JUMP JUMPDEST PUSH0 PUSH2 0x9EE DUP3 PUSH2 0x9C5 JUMP JUMPDEST SWAP1 POP SWAP2 SWAP1 POP JUMP JUMPDEST PUSH2 0x9FE DUP2 PUSH2 0x9E4 JUMP JUMPDEST DUP3 MSTORE POP POP JUMP JUMPDEST PUSH0 PUSH1 0x40 DUP3 ADD SWAP1 POP PUSH2 0xA17 PUSH0 DUP4 ADD DUP6 PUSH2 0x9F5 JUMP JUMPDEST PUSH2 0xA24 PUSH1 0x20 DUP4 ADD DUP5 PUSH2 0x8B4 JUMP JUMPDEST SWAP4 SWAP3 POP POP POP JUMP JUMPDEST PUSH0 PUSH1 0x20 DUP3 ADD SWAP1 POP PUSH2 0xA3E PUSH0 DUP4 ADD DUP5 PUSH2 0x9F5 JUMP JUMPDEST SWAP3 SWAP2 POP POP JUMP JUMPDEST PUSH0 DUP2 MLOAD SWAP1 POP SWAP2 SWAP1 POP JUMP JUMPDEST PUSH0 DUP3 DUP3 MSTORE PUSH1 0x20 DUP3 ADD SWAP1 POP SWAP3 SWAP2 POP POP JUMP JUMPDEST PUSH0 DUP2 SWAP1 POP PUSH1 0x20 DUP3 ADD SWAP1 POP SWAP2 SWAP1 POP JUMP JUMPDEST PUSH2 0xA76 DUP2 PUSH2 0x9E4 JUMP JUMPDEST DUP3 MSTORE POP POP JUMP JUMPDEST PUSH0 PUSH2 0xA87 DUP4 DUP4 PUSH2 0xA6D JUMP JUMPDEST PUSH1 0x20 DUP4 ADD SWAP1 POP SWAP3 SWAP2 POP POP JUMP JUMPDEST PUSH0 PUSH1 0x20 DUP3 ADD SWAP1 POP SWAP2 SWAP1 POP JUMP JUMPDEST PUSH0 PUSH2 0xAA9 DUP3 PUSH2 0xA44 JUMP JUMPDEST PUSH2 0xAB3 DUP2 DUP6 PUSH2 0xA4E JUMP JUMPDEST SWAP4 POP PUSH2 0xABE DUP4 PUSH2 0xA5E JUMP JUMPDEST DUP1 PUSH0 JUMPDEST DUP4 DUP2 LT ISZERO PUSH2 0xAEE JUMPI DUP2 MLOAD PUSH2 0xAD5 DUP9 DUP3 PUSH2 0xA7C JUMP JUMPDEST SWAP8 POP PUSH2 0xAE0 DUP4 PUSH2 0xA93 JUMP JUMPDEST SWAP3 POP POP PUSH1 0x1 DUP2 ADD SWAP1 POP PUSH2 0xAC1 JUMP JUMPDEST POP DUP6 SWAP4 POP POP POP POP SWAP3 SWAP2 POP POP JUMP JUMPDEST PUSH0 PUSH1 0x20 DUP3 ADD SWAP1 POP DUP2 DUP2 SUB PUSH0 DUP4 ADD MSTORE PUSH2 0xB13 DUP2 DUP5 PUSH2 0xA9F JUMP JUMPDEST SWAP1 POP SWAP3 SWAP2 POP POP JUMP JUMPDEST PUSH32 0x596F7520617265206E6F74206F776E6572205B4661696C65645D000000000000 PUSH0 DUP3 ADD MSTORE POP JUMP JUMPDEST PUSH0 PUSH2 0xB4F PUSH1 0x1A DUP4 PUSH2 0x8E6 JUMP JUMPDEST SWAP2 POP PUSH2 0xB5A DUP3 PUSH2 0xB1B JUMP JUMPDEST PUSH1 0x20 DUP3 ADD SWAP1 POP SWAP2 SWAP1 POP JUMP JUMPDEST PUSH0 PUSH1 0x20 DUP3 ADD SWAP1 POP DUP2 DUP2 SUB PUSH0 DUP4 ADD MSTORE PUSH2 0xB7C DUP2 PUSH2 0xB43 JUMP JUMPDEST SWAP1 POP SWAP2 SWAP1 POP JUMP JUMPDEST PUSH32 0x46756E64696E67206973206E6F7420656E646564000000000000000000000000 PUSH0 DUP3 ADD MSTORE POP JUMP JUMPDEST PUSH0 PUSH2 0xBB7 PUSH1 0x14 DUP4 PUSH2 0x8E6 JUMP JUMPDEST SWAP2 POP PUSH2 0xBC2 DUP3 PUSH2 0xB83 JUMP JUMPDEST PUSH1 0x20 DUP3 ADD SWAP1 POP SWAP2 SWAP1 POP JUMP JUMPDEST PUSH0 PUSH1 0x20 DUP3 ADD SWAP1 POP DUP2 DUP2 SUB PUSH0 DUP4 ADD MSTORE PUSH2 0xBE4 DUP2 PUSH2 0xBAB JUMP JUMPDEST SWAP1 POP SWAP2 SWAP1 POP JUMP JUMPDEST PUSH32 0x4E487B7100000000000000000000000000000000000000000000000000000000 PUSH0 MSTORE PUSH1 0x11 PUSH1 0x4 MSTORE PUSH1 0x24 PUSH0 REVERT JUMPDEST PUSH0 PUSH2 0xC22 DUP3 PUSH2 0x8AB JUMP JUMPDEST SWAP2 POP PUSH2 0xC2D DUP4 PUSH2 0x8AB JUMP JUMPDEST SWAP3 POP DUP3 DUP3 MUL PUSH2 0xC3B DUP2 PUSH2 0x8AB JUMP JUMPDEST SWAP2 POP DUP3 DUP3 DIV DUP5 EQ DUP4 ISZERO OR PUSH2 0xC52 JUMPI PUSH2 0xC51 PUSH2 0xBEB JUMP JUMPDEST JUMPDEST POP SWAP3 SWAP2 POP POP JUMP JUMPDEST PUSH0 PUSH2 0xC63 DUP3 PUSH2 0x8AB JUMP JUMPDEST SWAP2 POP PUSH2 0xC6E DUP4 PUSH2 0x8AB JUMP JUMPDEST SWAP3 POP DUP3 DUP3 SUB SWAP1 POP DUP2 DUP2 GT ISZERO PUSH2 0xC86 JUMPI PUSH2 0xC85 PUSH2 0xBEB JUMP JUMPDEST JUMPDEST SWAP3 SWAP2 POP POP JUMP JUMPDEST PUSH0 PUSH2 0xC96 DUP3 PUSH2 0x8AB JUMP JUMPDEST SWAP2 POP PUSH0 DUP3 SUB PUSH2 0xCA8 JUMPI PUSH2 0xCA7 PUSH2 0xBEB JUMP JUMPDEST JUMPDEST PUSH1 0x1 DUP3 SUB SWAP1 POP SWAP2 SWAP1 POP JUMP JUMPDEST PUSH32 0x4E487B7100000000000000000000000000000000000000000000000000000000 PUSH0 MSTORE PUSH1 0x41 PUSH1 0x4 MSTORE PUSH1 0x24 PUSH0 REVERT JUMPDEST PUSH32 0x4E487B7100000000000000000000000000000000000000000000000000000000 PUSH0 MSTORE PUSH1 0x22 PUSH1 0x4 MSTORE PUSH1 0x24 PUSH0 REVERT JUMPDEST PUSH0 PUSH1 0x2 DUP3 DIV SWAP1 POP PUSH1 0x1 DUP3 AND DUP1 PUSH2 0xD24 JUMPI PUSH1 0x7F DUP3 AND SWAP2 POP JUMPDEST PUSH1 0x20 DUP3 LT DUP2 SUB PUSH2 0xD37 JUMPI PUSH2 0xD36 PUSH2 0xCE0 JUMP JUMPDEST JUMPDEST POP SWAP2 SWAP1 POP JUMP JUMPDEST PUSH0 DUP2 SWAP1 POP DUP2 PUSH0 MSTORE PUSH1 0x20 PUSH0 KECCAK256 SWAP1 POP SWAP2 SWAP1 POP JUMP JUMPDEST PUSH0 PUSH1 0x20 PUSH1 0x1F DUP4 ADD DIV SWAP1 POP SWAP2 SWAP1 POP JUMP JUMPDEST PUSH0 DUP3 DUP3 SHL SWAP1 POP SWAP3 SWAP2 POP POP JUMP JUMPDEST PUSH0 PUSH1 0x8 DUP4 MUL PUSH2 0xD99 PUSH32 0xFFFFFFFFFFFFFFFFFFFFFFFFFFFFFFFFFFFFFFFFFFFFFFFFFFFFFFFFFFFFFFFF DUP3 PUSH2 0xD5E JUMP JUMPDEST PUSH2 0xDA3 DUP7 DUP4 PUSH2 0xD5E JUMP JUMPDEST SWAP6 POP DUP1 NOT DUP5 AND SWAP4 POP DUP1 DUP7 AND DUP5 OR SWAP3 POP POP POP SWAP4 SWAP3 POP POP POP JUMP JUMPDEST PUSH0 DUP2 SWAP1 POP SWAP2 SWAP1 POP JUMP JUMPDEST PUSH0 PUSH2 0xDDE PUSH2 0xDD9 PUSH2 0xDD4 DUP5 PUSH2 0x8AB JUMP JUMPDEST PUSH2 0xDBB JUMP JUMPDEST PUSH2 0x8AB JUMP JUMPDEST SWAP1 POP SWAP2 SWAP1 POP JUMP JUMPDEST PUSH0 DUP2 SWAP1 POP SWAP2 SWAP1 POP JUMP JUMPDEST PUSH2 0xDF7 DUP4 PUSH2 0xDC4 JUMP JUMPDEST PUSH2 0xE0B PUSH2 0xE03 DUP3 PUSH2 0xDE5 JUMP JUMPDEST DUP5 DUP5 SLOAD PUSH2 0xD6A JUMP JUMPDEST DUP3 SSTORE POP POP POP POP JUMP JUMPDEST PUSH0 PUSH0 SWAP1 POP SWAP1 JUMP JUMPDEST PUSH2 0xE22 PUSH2 0xE13 JUMP JUMPDEST PUSH2 0xE2D DUP2 DUP5 DUP5 PUSH2 0xDEE JUMP JUMPDEST POP POP POP JUMP JUMPDEST PUSH0 JUMPDEST DUP3 DUP2 LT ISZERO PUSH2 0xE53 JUMPI PUSH2 0xE48 PUSH0 DUP3 DUP5 ADD PUSH2 0xE1A JUMP JUMPDEST PUSH1 0x1 DUP2 ADD SWAP1 POP PUSH2 0xE34 JUMP JUMPDEST POP POP POP JUMP JUMPDEST PUSH1 0x1F DUP3 GT ISZERO PUSH2 0xEA6 JUMPI DUP3 DUP3 GT ISZERO PUSH2 0xEA5 JUMPI PUSH2 0xE72 DUP2 PUSH2 0xD3D JUMP JUMPDEST PUSH2 0xE7B DUP4 PUSH2 0xD4F JUMP JUMPDEST PUSH2 0xE84 DUP6 PUSH2 0xD4F JUMP JUMPDEST PUSH1 0x20 DUP7 LT ISZERO PUSH2 0xE91 JUMPI PUSH0 SWAP1 POP JUMPDEST DUP1 DUP4 ADD PUSH2 0xEA0 DUP3 DUP5 SUB DUP3 PUSH2 0xE32 JUMP JUMPDEST POP POP POP POP JUMPDEST JUMPDEST POP POP POP JUMP JUMPDEST PUSH0 DUP3 DUP3 SHR SWAP1 POP SWAP3 SWAP2 POP POP JUMP JUMPDEST PUSH0 PUSH2 0xEC6 PUSH0 NOT DUP5 PUSH1 0x8 MUL PUSH2 0xEAB JUMP JUMPDEST NOT DUP1 DUP4 AND SWAP2 POP POP SWAP3 SWAP2 POP POP JUMP JUMPDEST PUSH0 PUSH2 0xEDE DUP4 DUP4 PUSH2 0xEB7 JUMP JUMPDEST SWAP2 POP DUP3 PUSH1 0x2 MUL DUP3 OR SWAP1 POP SWAP3 SWAP2 POP POP JUMP JUMPDEST PUSH2 0xEF7 DUP3 PUSH2 0x8DC JUMP JUMPDEST PUSH8 0xFFFFFFFFFFFFFFFF DUP2 GT ISZERO PUSH2 0xF10 JUMPI PUSH2 0xF0F PUSH2 0xCB3 JUMP JUMPDEST JUMPDEST PUSH2 0xF1A DUP3 SLOAD PUSH2 0xD0D JUMP JUMPDEST PUSH2 0xF25 DUP3 DUP3 DUP6 PUSH2 0xE58 JUMP JUMPDEST PUSH0 PUSH1 0x20 SWAP1 POP PUSH1 0x1F DUP4 GT PUSH1 0x1 DUP2 EQ PUSH2 0xF56 JUMPI PUSH0 DUP5 ISZERO PUSH2 0xF44 JUMPI DUP3 DUP8 ADD MLOAD SWAP1 POP JUMPDEST PUSH2 0xF4E DUP6 DUP3 PUSH2 0xED3 JUMP JUMPDEST DUP7 SSTORE POP PUSH2 0xFB5 JUMP JUMPDEST PUSH1 0x1F NOT DUP5 AND PUSH2 0xF64 DUP7 PUSH2 0xD3D JUMP JUMPDEST PUSH0 JUMPDEST DUP3 DUP2 LT ISZERO PUSH2 0xF8B JUMPI DUP5 DUP10 ADD MLOAD DUP3 SSTORE PUSH1 0x1 DUP3 ADD SWAP2 POP PUSH1 0x20 DUP6 ADD SWAP5 POP PUSH1 0x20 DUP2 ADD SWAP1 POP PUSH2 0xF66 JUMP JUMPDEST DUP7 DUP4 LT ISZERO PUSH2 0xFA8 JUMPI DUP5 DUP10 ADD MLOAD PUSH2 0xFA4 PUSH1 0x1F DUP10 AND DUP3 PUSH2 0xEB7 JUMP JUMPDEST DUP4 SSTORE POP JUMPDEST PUSH1 0x1 PUSH1 0x2 DUP9 MUL ADD DUP9 SSTORE POP POP POP JUMPDEST POP POP POP POP POP POP JUMP JUMPDEST PUSH32 0x4E487B7100000000000000000000000000000000000000000000000000000000 PUSH0 MSTORE PUSH1 0x32 PUSH1 0x4 MSTORE PUSH1 0x24 PUSH0 REVERT JUMPDEST PUSH32 0x46756E64696E672077617320656E646564000000000000000000000000000000 PUSH0 DUP3 ADD MSTORE POP JUMP JUMPDEST PUSH0 PUSH2 0x101E PUSH1 0x11 DUP4 PUSH2 0x8E6 JUMP JUMPDEST SWAP2 POP PUSH2 0x1029 DUP3 PUSH2 0xFEA JUMP JUMPDEST PUSH1 0x20 DUP3 ADD SWAP1 POP SWAP2 SWAP1 POP JUMP JUMPDEST PUSH0 PUSH1 0x20 DUP3 ADD SWAP1 POP DUP2 DUP2 SUB PUSH0 DUP4 ADD MSTORE PUSH2 0x104B DUP2 PUSH2 0x1012 JUMP JUMPDEST SWAP1 POP SWAP2 SWAP1 POP JUMP JUMPDEST PUSH0 PUSH2 0x105C DUP3 PUSH2 0x8AB JUMP JUMPDEST SWAP2 POP PUSH2 0x1067 DUP4 PUSH2 0x8AB JUMP JUMPDEST SWAP3 POP DUP3 DUP3 ADD SWAP1 POP DUP1 DUP3 GT ISZERO PUSH2 0x107F JUMPI PUSH2 0x107E PUSH2 0xBEB JUMP JUMPDEST JUMPDEST SWAP3 SWAP2 POP POP JUMP INVALID LOG2 PUSH5 0x6970667358 0x22 SLT KECCAK256 SUB 0xE9 0xBF DUP9 ORIGIN 0xF 0xD9 ADD 0xB5 PUSH9 0x9E57ABDA221B907DE2 PUSH27 0xA5F18415B74B09160109CB6A64736F6C6343000820003300000000 "
				},
				"gasEstimates": {
					"creation": {
						"codeDepositCost": "856600",
						"executionCost": "infinite",
						"totalCost": "infinite"
					},
					"external": {
						"checkGoalReached()": "infinite",
						"deadline()": "2447",
						"ended()": "2489",
						"fund()": "infinite",
						"getInvestors()": "infinite",
						"goalAmount()": "2425",
						"investors(uint256)": "infinite",
						"numInvestors()": "2470",
						"owner()": "2574",
						"status()": "infinite",
						"totalAmount()": "2492"
					}
				},
				"methodIdentifiers": {
					"checkGoalReached()": "01cb3b20",
					"deadline()": "29dcb0cf",
					"ended()": "12fa6feb",
					"fund()": "b60d4288",
					"getInvestors()": "b2f5a54c",
					"goalAmount()": "2636b945",
					"investors(uint256)": "3feb5f2b",
					"numInvestors()": "132ae5e9",
					"owner()": "8da5cb5b",
					"status()": "200d2ed2",
					"totalAmount()": "1a39d8ef"
				}
			},
			"storageLayout": {
				"storage": [
					{
						"astId": 17,
						"contract": "과제2/croud_funding.sol:cloud_funding",
						"label": "investors",
						"offset": 0,
						"slot": "0",
						"type": "t_mapping(t_uint256,t_struct(Investor)6_storage)"
					},
					{
						"astId": 19,
						"contract": "과제2/croud_funding.sol:cloud_funding",
						"label": "owner",
						"offset": 0,
						"slot": "1",
						"type": "t_address"
					},
					{
						"astId": 21,
						"contract": "과제2/croud_funding.sol:cloud_funding",
						"label": "numInvestors",
						"offset": 0,
						"slot": "2",
						"type": "t_uint256"
					},
					{
						"astId": 23,
						"contract": "과제2/croud_funding.sol:cloud_funding",
						"label": "deadline",
						"offset": 0,
						"slot": "3",
						"type": "t_uint256"
					},
					{
						"astId": 25,
						"contract": "과제2/croud_funding.sol:cloud_funding",
						"label": "status",
						"offset": 0,
						"slot": "4",
						"type": "t_string_storage"
					},
					{
						"astId": 27,
						"contract": "과제2/croud_funding.sol:cloud_funding",
						"label": "ended",
						"offset": 0,
						"slot": "5",
						"type": "t_bool"
					},
					{
						"astId": 29,
						"contract": "과제2/croud_funding.sol:cloud_funding",
						"label": "goalAmount",
						"offset": 0,
						"slot": "6",
						"type": "t_uint256"
					},
					{
						"astId": 31,
						"contract": "과제2/croud_funding.sol:cloud_funding",
						"label": "totalAmount",
						"offset": 0,
						"slot": "7",
						"type": "t_uint256"
					}
				],
				"types": {
					"t_address": {
						"encoding": "inplace",
						"label": "address",
						"numberOfBytes": "20"
					},
					"t_bool": {
						"encoding": "inplace",
						"label": "bool",
						"numberOfBytes": "1"
					},
					"t_mapping(t_uint256,t_struct(Investor)6_storage)": {
						"encoding": "mapping",
						"key": "t_uint256",
						"label": "mapping(uint256 => struct cloud_funding.Investor)",
						"numberOfBytes": "32",
						"value": "t_struct(Investor)6_storage"
					},
					"t_string_storage": {
						"encoding": "bytes",
						"label": "string",
						"numberOfBytes": "32"
					},
					"t_struct(Investor)6_storage": {
						"encoding": "inplace",
						"label": "struct cloud_funding.Investor",
						"members": [
							{
								"astId": 3,
								"contract": "과제2/croud_funding.sol:cloud_funding",
								"label": "addr",
								"offset": 0,
								"slot": "0",
								"type": "t_address"
							},
							{
								"astId": 5,
								"contract": "과제2/croud_funding.sol:cloud_funding",
								"label": "amount",
								"offset": 0,
								"slot": "1",
								"type": "t_uint256"
							}
						],
						"numberOfBytes": "64"
					},
					"t_uint256": {
						"encoding": "inplace",
						"label": "uint256",
						"numberOfBytes": "32"
					}
				}
			},
			"userdoc": {
				"kind": "user",
				"methods": {},
				"version": 1
			}
		}
	}
}