{
	"기말 공부/HW/test.sol": {
		"call": {
			"abi": [
				{
					"inputs": [
						{
							"internalType": "address",
							"name": "_address",
							"type": "address"
						}
					],
					"name": "ethDelivery",
					"outputs": [],
					"stateMutability": "payable",
					"type": "function"
				},
				{
					"inputs": [
						{
							"internalType": "address",
							"name": "_address",
							"type": "address"
						}
					],
					"name": "getBalance",
					"outputs": [
						{
							"internalType": "uint256",
							"name": "",
							"type": "uint256"
						}
					],
					"stateMutability": "view",
					"type": "function"
				}
			],
			"devdoc": {
				"kind": "dev",
				"methods": {},
				"version": 1
			},
			"evm": {
				"assembly": "    /* \"기말 공부/HW/test.sol\":805:1130  contract call\r... */\n  mstore(0x40, 0x80)\n  callvalue\n  dup1\n  iszero\n  tag_1\n  jumpi\n  0x00\n  dup1\n  revert\ntag_1:\n  pop\n  dataSize(sub_0)\n  dup1\n  dataOffset(sub_0)\n  0x00\n  codecopy\n  0x00\n  return\nstop\n\nsub_0: assembly {\n        /* \"기말 공부/HW/test.sol\":805:1130  contract call\r... */\n      mstore(0x40, 0x80)\n      jumpi(tag_1, lt(calldatasize, 0x04))\n      shr(0xe0, calldataload(0x00))\n      dup1\n      0x9433c92a\n      eq\n      tag_2\n      jumpi\n      dup1\n      0xf8b2cb4f\n      eq\n      tag_3\n      jumpi\n    tag_1:\n      0x00\n      dup1\n      revert\n        /* \"기말 공부/HW/test.sol\":948:1127  function ethDelivery(address _address) public payable \r... */\n    tag_2:\n      tag_4\n      0x04\n      dup1\n      calldatasize\n      sub\n      0x20\n      dup2\n      lt\n      iszero\n      tag_5\n      jumpi\n      0x00\n      dup1\n      revert\n    tag_5:\n      dup2\n      add\n      swap1\n      dup1\n      dup1\n      calldataload\n      0xffffffffffffffffffffffffffffffffffffffff\n      and\n      swap1\n      0x20\n      add\n      swap1\n      swap3\n      swap2\n      swap1\n      pop\n      pop\n      pop\n      tag_6\n      jump\t// in\n    tag_4:\n      stop\n        /* \"기말 공부/HW/test.sol\":827:940  function getBalance(address _address) public view returns (uint) \r... */\n    tag_3:\n      callvalue\n      dup1\n      iszero\n      tag_7\n      jumpi\n      0x00\n      dup1\n      revert\n    tag_7:\n      pop\n      tag_8\n      0x04\n      dup1\n      calldatasize\n      sub\n      0x20\n      dup2\n      lt\n      iszero\n      tag_9\n      jumpi\n      0x00\n      dup1\n      revert\n    tag_9:\n      dup2\n      add\n      swap1\n      dup1\n      dup1\n      calldataload\n      0xffffffffffffffffffffffffffffffffffffffff\n      and\n      swap1\n      0x20\n      add\n      swap1\n      swap3\n      swap2\n      swap1\n      pop\n      pop\n      pop\n      tag_10\n      jump\t// in\n    tag_8:\n      mload(0x40)\n      dup1\n      dup3\n      dup2\n      mstore\n      0x20\n      add\n      swap2\n      pop\n      pop\n      mload(0x40)\n      dup1\n      swap2\n      sub\n      swap1\n      return\n        /* \"기말 공부/HW/test.sol\":948:1127  function ethDelivery(address _address) public payable \r... */\n    tag_6:\n        /* \"기말 공부/HW/test.sol\":1020:1031  bool result */\n      0x00\n        /* \"기말 공부/HW/test.sol\":1037:1045  _address */\n      dup2\n        /* \"기말 공부/HW/test.sol\":1037:1050  _address.call */\n      0xffffffffffffffffffffffffffffffffffffffff\n      and\n        /* \"기말 공부/HW/test.sol\":1057:1066  msg.value */\n      callvalue\n        /* \"기말 공부/HW/test.sol\":1073:1078  30000 */\n      0x7530\n        /* \"기말 공부/HW/test.sol\":1037:1083  _address.call{value:msg.value, gas: 30000}(\"\") */\n      swap1\n      mload(0x40)\n      dup1\n      0x00\n      add\n      swap1\n      pop\n      0x00\n      mload(0x40)\n      dup1\n      dup4\n      sub\n      dup2\n      dup6\n      dup9\n      dup9\n      call\n      swap4\n      pop\n      pop\n      pop\n      pop\n      returndatasize\n      dup1\n      0x00\n      dup2\n      eq\n      tag_14\n      jumpi\n      mload(0x40)\n      swap2\n      pop\n      and(add(returndatasize, 0x3f), not(0x1f))\n      dup3\n      add\n      0x40\n      mstore\n      returndatasize\n      dup3\n      mstore\n      returndatasize\n      0x00\n      0x20\n      dup5\n      add\n      returndatacopy\n      jump(tag_13)\n    tag_14:\n      0x60\n      swap2\n      pop\n    tag_13:\n      pop\n        /* \"기말 공부/HW/test.sol\":1019:1083  (bool result, ) = _address.call{value:msg.value, gas: 30000}(\"\") */\n      pop\n      swap1\n      pop\n        /* \"기말 공부/HW/test.sol\":1102:1108  result */\n      dup1\n        /* \"기말 공부/HW/test.sol\":1094:1119  require(result, \"Failed\") */\n      tag_15\n      jumpi\n      mload(0x40)\n      0x08c379a000000000000000000000000000000000000000000000000000000000\n      dup2\n      mstore\n      0x04\n      add\n      dup1\n      dup1\n      0x20\n      add\n      dup3\n      dup2\n      sub\n      dup3\n      mstore\n      0x06\n      dup2\n      mstore\n      0x20\n      add\n      dup1\n      0x4661696c65640000000000000000000000000000000000000000000000000000\n      dup2\n      mstore\n      pop\n      0x20\n      add\n      swap2\n      pop\n      pop\n      mload(0x40)\n      dup1\n      swap2\n      sub\n      swap1\n      revert\n    tag_15:\n        /* \"기말 공부/HW/test.sol\":948:1127  function ethDelivery(address _address) public payable \r... */\n      pop\n      pop\n      jump\t// out\n        /* \"기말 공부/HW/test.sol\":827:940  function getBalance(address _address) public view returns (uint) \r... */\n    tag_10:\n        /* \"기말 공부/HW/test.sol\":886:890  uint */\n      0x00\n        /* \"기말 공부/HW/test.sol\":916:924  _address */\n      dup2\n        /* \"기말 공부/HW/test.sol\":916:932  _address.balance */\n      0xffffffffffffffffffffffffffffffffffffffff\n      and\n      balance\n        /* \"기말 공부/HW/test.sol\":909:932  return _address.balance */\n      swap1\n      pop\n        /* \"기말 공부/HW/test.sol\":827:940  function getBalance(address _address) public view returns (uint) \r... */\n      swap2\n      swap1\n      pop\n      jump\t// out\n\n    auxdata: 0xa26469706673582212204cb6a6b8046acf53fefbc7aea1e9bb946fc6b1e2ce68fe48a08b0126807c773764736f6c63430007060033\n}\n",
				"bytecode": {
					"linkReferences": {},
					"object": "608060405234801561001057600080fd5b50610213806100206000396000f3fe6080604052600436106100295760003560e01c80639433c92a1461002e578063f8b2cb4f14610072575b600080fd5b6100706004803603602081101561004457600080fd5b81019080803573ffffffffffffffffffffffffffffffffffffffff1690602001909291905050506100d7565b005b34801561007e57600080fd5b506100c16004803603602081101561009557600080fd5b81019080803573ffffffffffffffffffffffffffffffffffffffff1690602001909291905050506101bc565b6040518082815260200191505060405180910390f35b60008173ffffffffffffffffffffffffffffffffffffffff163461753090604051806000019050600060405180830381858888f193505050503d806000811461013c576040519150601f19603f3d011682016040523d82523d6000602084013e610141565b606091505b50509050806101b8576040517f08c379a00000000000000000000000000000000000000000000000000000000081526004018080602001828103825260068152602001807f4661696c6564000000000000000000000000000000000000000000000000000081525060200191505060405180910390fd5b5050565b60008173ffffffffffffffffffffffffffffffffffffffff1631905091905056fea26469706673582212204cb6a6b8046acf53fefbc7aea1e9bb946fc6b1e2ce68fe48a08b0126807c773764736f6c63430007060033",
					"opcodes": "PUSH1 0x80 PUSH1 0x40 MSTORE CALLVALUE DUP1 ISZERO PUSH2 0x10 JUMPI PUSH1 0x0 DUP1 REVERT JUMPDEST POP PUSH2 0x213 DUP1 PUSH2 0x20 PUSH1 0x0 CODECOPY PUSH1 0x0 RETURN INVALID PUSH1 0x80 PUSH1 0x40 MSTORE PUSH1 0x4 CALLDATASIZE LT PUSH2 0x29 JUMPI PUSH1 0x0 CALLDATALOAD PUSH1 0xE0 SHR DUP1 PUSH4 0x9433C92A EQ PUSH2 0x2E JUMPI DUP1 PUSH4 0xF8B2CB4F EQ PUSH2 0x72 JUMPI JUMPDEST PUSH1 0x0 DUP1 REVERT JUMPDEST PUSH2 0x70 PUSH1 0x4 DUP1 CALLDATASIZE SUB PUSH1 0x20 DUP2 LT ISZERO PUSH2 0x44 JUMPI PUSH1 0x0 DUP1 REVERT JUMPDEST DUP2 ADD SWAP1 DUP1 DUP1 CALLDATALOAD PUSH20 0xFFFFFFFFFFFFFFFFFFFFFFFFFFFFFFFFFFFFFFFF AND SWAP1 PUSH1 0x20 ADD SWAP1 SWAP3 SWAP2 SWAP1 POP POP POP PUSH2 0xD7 JUMP JUMPDEST STOP JUMPDEST CALLVALUE DUP1 ISZERO PUSH2 0x7E JUMPI PUSH1 0x0 DUP1 REVERT JUMPDEST POP PUSH2 0xC1 PUSH1 0x4 DUP1 CALLDATASIZE SUB PUSH1 0x20 DUP2 LT ISZERO PUSH2 0x95 JUMPI PUSH1 0x0 DUP1 REVERT JUMPDEST DUP2 ADD SWAP1 DUP1 DUP1 CALLDATALOAD PUSH20 0xFFFFFFFFFFFFFFFFFFFFFFFFFFFFFFFFFFFFFFFF AND SWAP1 PUSH1 0x20 ADD SWAP1 SWAP3 SWAP2 SWAP1 POP POP POP PUSH2 0x1BC JUMP JUMPDEST PUSH1 0x40 MLOAD DUP1 DUP3 DUP2 MSTORE PUSH1 0x20 ADD SWAP2 POP POP PUSH1 0x40 MLOAD DUP1 SWAP2 SUB SWAP1 RETURN JUMPDEST PUSH1 0x0 DUP2 PUSH20 0xFFFFFFFFFFFFFFFFFFFFFFFFFFFFFFFFFFFFFFFF AND CALLVALUE PUSH2 0x7530 SWAP1 PUSH1 0x40 MLOAD DUP1 PUSH1 0x0 ADD SWAP1 POP PUSH1 0x0 PUSH1 0x40 MLOAD DUP1 DUP4 SUB DUP2 DUP6 DUP9 DUP9 CALL SWAP4 POP POP POP POP RETURNDATASIZE DUP1 PUSH1 0x0 DUP2 EQ PUSH2 0x13C JUMPI PUSH1 0x40 MLOAD SWAP2 POP PUSH1 0x1F NOT PUSH1 0x3F RETURNDATASIZE ADD AND DUP3 ADD PUSH1 0x40 MSTORE RETURNDATASIZE DUP3 MSTORE RETURNDATASIZE PUSH1 0x0 PUSH1 0x20 DUP5 ADD RETURNDATACOPY PUSH2 0x141 JUMP JUMPDEST PUSH1 0x60 SWAP2 POP JUMPDEST POP POP SWAP1 POP DUP1 PUSH2 0x1B8 JUMPI PUSH1 0x40 MLOAD PUSH32 0x8C379A000000000000000000000000000000000000000000000000000000000 DUP2 MSTORE PUSH1 0x4 ADD DUP1 DUP1 PUSH1 0x20 ADD DUP3 DUP2 SUB DUP3 MSTORE PUSH1 0x6 DUP2 MSTORE PUSH1 0x20 ADD DUP1 PUSH32 0x4661696C65640000000000000000000000000000000000000000000000000000 DUP2 MSTORE POP PUSH1 0x20 ADD SWAP2 POP POP PUSH1 0x40 MLOAD DUP1 SWAP2 SUB SWAP1 REVERT JUMPDEST POP POP JUMP JUMPDEST PUSH1 0x0 DUP2 PUSH20 0xFFFFFFFFFFFFFFFFFFFFFFFFFFFFFFFFFFFFFFFF AND BALANCE SWAP1 POP SWAP2 SWAP1 POP JUMP INVALID LOG2 PUSH5 0x6970667358 0x22 SLT KECCAK256 0x4C 0xB6 0xA6 0xB8 DIV PUSH11 0xCF53FEFBC7AEA1E9BB946F 0xC6 0xB1 0xE2 0xCE PUSH9 0xFE48A08B0126807C77 CALLDATACOPY PUSH5 0x736F6C6343 STOP SMOD MOD STOP CALLER "
				},
				"gasEstimates": {
					"creation": {
						"codeDepositCost": "106200",
						"executionCost": "153",
						"totalCost": "106353"
					},
					"external": {
						"ethDelivery(address)": "infinite",
						"getBalance(address)": "1012"
					}
				},
				"methodIdentifiers": {
					"ethDelivery(address)": "9433c92a",
					"getBalance(address)": "f8b2cb4f"
				}
			},
			"storageLayout": {
				"storage": [],
				"types": null
			},
			"userdoc": {
				"kind": "user",
				"methods": {},
				"version": 1
			}
		}
	}
}