{
	"data": {
		"bytecode": {
			"linkReferences": {},
			"object": "60806040525f60035f6101000a81548160ff02191690836003811115610028576100276100f7565b5b0217905550348015610038575f5ffd5b50604051610ef7380380610ef7833981810160405281019061005a919061015b565b335f5f6101000a81548173ffffffffffffffffffffffffffffffffffffffff021916908373ffffffffffffffffffffffffffffffffffffffff1602179055505f5f90505b818110156100f057600260405180602001604052805f815250908060018154018082558091505060019003905f5260205f20015f909190919091505f820151815f01555050808060010191505061009e565b5050610186565b7f4e487b71000000000000000000000000000000000000000000000000000000005f52602160045260245ffd5b5f5ffd5b5f819050919050565b61013a81610128565b8114610144575f5ffd5b50565b5f8151905061015581610131565b92915050565b5f602082840312156101705761016f610124565b5b5f61017d84828501610147565b91505092915050565b610d64806101935f395ff3fe608060405234801561000f575f5ffd5b5060043610610086575f3560e01c8063508b30c911610059578063508b30c914610110578063a3ec138d1461012e578063be25a71814610160578063c19d93fb1461016a57610086565b80630121b93f1461008a578063013cf08b146100a65780632e4176cf146100d65780634420e486146100f4575b5f5ffd5b6100a4600480360381019061009f9190610846565b610188565b005b6100c060048036038101906100bb9190610846565b61037d565b6040516100cd9190610880565b60405180910390f35b6100de6103a2565b6040516100eb91906108d8565b60405180910390f35b61010e6004803603810190610109919061091b565b6103c6565b005b61011861051c565b6040516101259190610880565b60405180910390f35b6101486004803603810190610143919061091b565b610590565b60405161015793929190610960565b60405180910390f35b6101686105c2565b005b6101726107fd565b60405161017f9190610a08565b60405180910390f35b5f60015f3373ffffffffffffffffffffffffffffffffffffffff1673ffffffffffffffffffffffffffffffffffffffff1681526020019081526020015f205f015411610209576040517f08c379a000000000000000000000000000000000000000000000000000000000815260040161020090610a7b565b60405180910390fd5b60015f3373ffffffffffffffffffffffffffffffffffffffff1673ffffffffffffffffffffffffffffffffffffffff1681526020019081526020015f206001015f9054906101000a900460ff1615610296576040517f08c379a000000000000000000000000000000000000000000000000000000000815260040161028d90610ae3565b60405180910390fd5b5f60015f3373ffffffffffffffffffffffffffffffffffffffff1673ffffffffffffffffffffffffffffffffffffffff1681526020019081526020015f209050600280549050821061031d576040517f08c379a000000000000000000000000000000000000000000000000000000000815260040161031490610b4b565b60405180910390fd5b6001816001015f6101000a81548160ff021916908315150217905550818160020181905550805f01546002838154811061035a57610359610b69565b5b905f5260205f20015f015f8282546103729190610bc3565b925050819055505050565b6002818154811061038c575f80fd5b905f5260205f20015f91509050805f0154905081565b5f5f9054906101000a900473ffffffffffffffffffffffffffffffffffffffff1681565b5f5f9054906101000a900473ffffffffffffffffffffffffffffffffffffffff1673ffffffffffffffffffffffffffffffffffffffff163373ffffffffffffffffffffffffffffffffffffffff1614610454576040517f08c379a000000000000000000000000000000000000000000000000000000000815260040161044b90610c40565b60405180910390fd5b5f60015f8373ffffffffffffffffffffffffffffffffffffffff1673ffffffffffffffffffffffffffffffffffffffff1681526020019081526020015f205f0154146104d5576040517f08c379a00000000000000000000000000000000000000000000000000000000081526004016104cc90610ca8565b60405180910390fd5b6001805f8373ffffffffffffffffffffffffffffffffffffffff1673ffffffffffffffffffffffffffffffffffffffff1681526020019081526020015f205f018190555050565b5f5f5f90505f5f90505b60028054905081101561058b57816002828154811061054857610547610b69565b5b905f5260205f20015f0154111561057e576002818154811061056d5761056c610b69565b5b905f5260205f20015f015491508092505b8080600101915050610526565b505090565b6001602052805f5260405f205f91509050805f015490806001015f9054906101000a900460ff16908060020154905083565b5f5f9054906101000a900473ffffffffffffffffffffffffffffffffffffffff1673ffffffffffffffffffffffffffffffffffffffff163373ffffffffffffffffffffffffffffffffffffffff1614610650576040517f08c379a000000000000000000000000000000000000000000000000000000000815260040161064790610c40565b60405180910390fd5b60038081111561066357610662610995565b5b60035f9054906101000a900460ff16600381111561068457610683610995565b5b036106c4576040517f08c379a00000000000000000000000000000000000000000000000000000000081526004016106bb90610d10565b60405180910390fd5b5f60038111156106d7576106d6610995565b5b60035f9054906101000a900460ff1660038111156106f8576106f7610995565b5b0361072c57600160035f6101000a81548160ff0219169083600381111561072257610721610995565b5b02179055506107fb565b600160038111156107405761073f610995565b5b60035f9054906101000a900460ff16600381111561076157610760610995565b5b0361079557600260035f6101000a81548160ff0219169083600381111561078b5761078a610995565b5b02179055506107fa565b600260038111156107a9576107a8610995565b5b60035f9054906101000a900460ff1660038111156107ca576107c9610995565b5b036107f9576003805f6101000a81548160ff021916908360038111156107f3576107f2610995565b5b02179055505b5b5b565b60035f9054906101000a900460ff1681565b5f5ffd5b5f819050919050565b61082581610813565b811461082f575f5ffd5b50565b5f813590506108408161081c565b92915050565b5f6020828403121561085b5761085a61080f565b5b5f61086884828501610832565b91505092915050565b61087a81610813565b82525050565b5f6020820190506108935f830184610871565b92915050565b5f73ffffffffffffffffffffffffffffffffffffffff82169050919050565b5f6108c282610899565b9050919050565b6108d2816108b8565b82525050565b5f6020820190506108eb5f8301846108c9565b92915050565b6108fa816108b8565b8114610904575f5ffd5b50565b5f81359050610915816108f1565b92915050565b5f602082840312156109305761092f61080f565b5b5f61093d84828501610907565b91505092915050565b5f8115159050919050565b61095a81610946565b82525050565b5f6060820190506109735f830186610871565b6109806020830185610951565b61098d6040830184610871565b949350505050565b7f4e487b71000000000000000000000000000000000000000000000000000000005f52602160045260245ffd5b600481106109d3576109d2610995565b5b50565b5f8190506109e3826109c2565b919050565b5f6109f2826109d6565b9050919050565b610a02816109e8565b82525050565b5f602082019050610a1b5f8301846109f9565b92915050565b5f82825260208201905092915050565b7f4e6f20726967687420746f20766f7465000000000000000000000000000000005f82015250565b5f610a65601083610a21565b9150610a7082610a31565b602082019050919050565b5f6020820190508181035f830152610a9281610a59565b9050919050565b7f416c726561647920766f746564000000000000000000000000000000000000005f82015250565b5f610acd600d83610a21565b9150610ad882610a99565b602082019050919050565b5f6020820190508181035f830152610afa81610ac1565b9050919050565b7f496e76616c69642070726f706f73616c000000000000000000000000000000005f82015250565b5f610b35601083610a21565b9150610b4082610b01565b602082019050919050565b5f6020820190508181035f830152610b6281610b29565b9050919050565b7f4e487b71000000000000000000000000000000000000000000000000000000005f52603260045260245ffd5b7f4e487b71000000000000000000000000000000000000000000000000000000005f52601160045260245ffd5b5f610bcd82610813565b9150610bd883610813565b9250828201905080821115610bf057610bef610b96565b5b92915050565b7f4f6e6c79206368616972706572736f6e2063616e2063616c6c20746869732e005f82015250565b5f610c2a601f83610a21565b9150610c3582610bf6565b602082019050919050565b5f6020820190508181035f830152610c5781610c1e565b9050919050565b7f416c7265616479207265676973746572656400000000000000000000000000005f82015250565b5f610c92601283610a21565b9150610c9d82610c5e565b602082019050919050565b5f6020820190508181035f830152610cbf81610c86565b9050919050565b7f42616c6c6f742069732066696e697368656400000000000000000000000000005f82015250565b5f610cfa601283610a21565b9150610d0582610cc6565b602082019050919050565b5f6020820190508181035f830152610d2781610cee565b905091905056fea2646970667358221220937ddfa5b80a3f9a82971e51a75e273efcc2285625b851dad7372cdc6ec4afae64736f6c63430008200033",
			"opcodes": "PUSH1 0x80 PUSH1 0x40 MSTORE PUSH0 PUSH1 0x3 PUSH0 PUSH2 0x100 EXP DUP2 SLOAD DUP2 PUSH1 0xFF MUL NOT AND SWAP1 DUP4 PUSH1 0x3 DUP2 GT ISZERO PUSH2 0x28 JUMPI PUSH2 0x27 PUSH2 0xF7 JUMP JUMPDEST JUMPDEST MUL OR SWAP1 SSTORE POP CALLVALUE DUP1 ISZERO PUSH2 0x38 JUMPI PUSH0 PUSH0 REVERT JUMPDEST POP PUSH1 0x40 MLOAD PUSH2 0xEF7 CODESIZE SUB DUP1 PUSH2 0xEF7 DUP4 CODECOPY DUP2 DUP2 ADD PUSH1 0x40 MSTORE DUP2 ADD SWAP1 PUSH2 0x5A SWAP2 SWAP1 PUSH2 0x15B JUMP JUMPDEST CALLER PUSH0 PUSH0 PUSH2 0x100 EXP DUP2 SLOAD DUP2 PUSH20 0xFFFFFFFFFFFFFFFFFFFFFFFFFFFFFFFFFFFFFFFF MUL NOT AND SWAP1 DUP4 PUSH20 0xFFFFFFFFFFFFFFFFFFFFFFFFFFFFFFFFFFFFFFFF AND MUL OR SWAP1 SSTORE POP PUSH0 PUSH0 SWAP1 POP JUMPDEST DUP2 DUP2 LT ISZERO PUSH2 0xF0 JUMPI PUSH1 0x2 PUSH1 0x40 MLOAD DUP1 PUSH1 0x20 ADD PUSH1 0x40 MSTORE DUP1 PUSH0 DUP2 MSTORE POP SWAP1 DUP1 PUSH1 0x1 DUP2 SLOAD ADD DUP1 DUP3 SSTORE DUP1 SWAP2 POP POP PUSH1 0x1 SWAP1 SUB SWAP1 PUSH0 MSTORE PUSH1 0x20 PUSH0 KECCAK256 ADD PUSH0 SWAP1 SWAP2 SWAP1 SWAP2 SWAP1 SWAP2 POP PUSH0 DUP3 ADD MLOAD DUP2 PUSH0 ADD SSTORE POP POP DUP1 DUP1 PUSH1 0x1 ADD SWAP2 POP POP PUSH2 0x9E JUMP JUMPDEST POP POP PUSH2 0x186 JUMP JUMPDEST PUSH32 0x4E487B7100000000000000000000000000000000000000000000000000000000 PUSH0 MSTORE PUSH1 0x21 PUSH1 0x4 MSTORE PUSH1 0x24 PUSH0 REVERT JUMPDEST PUSH0 PUSH0 REVERT JUMPDEST PUSH0 DUP2 SWAP1 POP SWAP2 SWAP1 POP JUMP JUMPDEST PUSH2 0x13A DUP2 PUSH2 0x128 JUMP JUMPDEST DUP2 EQ PUSH2 0x144 JUMPI PUSH0 PUSH0 REVERT JUMPDEST POP JUMP JUMPDEST PUSH0 DUP2 MLOAD SWAP1 POP PUSH2 0x155 DUP2 PUSH2 0x131 JUMP JUMPDEST SWAP3 SWAP2 POP POP JUMP JUMPDEST PUSH0 PUSH1 0x20 DUP3 DUP5 SUB SLT ISZERO PUSH2 0x170 JUMPI PUSH2 0x16F PUSH2 0x124 JUMP JUMPDEST JUMPDEST PUSH0 PUSH2 0x17D DUP5 DUP3 DUP6 ADD PUSH2 0x147 JUMP JUMPDEST SWAP2 POP POP SWAP3 SWAP2 POP POP JUMP JUMPDEST PUSH2 0xD64 DUP1 PUSH2 0x193 PUSH0 CODECOPY PUSH0 RETURN INVALID PUSH1 0x80 PUSH1 0x40 MSTORE CALLVALUE DUP1 ISZERO PUSH2 0xF JUMPI PUSH0 PUSH0 REVERT JUMPDEST POP PUSH1 0x4 CALLDATASIZE LT PUSH2 0x86 JUMPI PUSH0 CALLDATALOAD PUSH1 0xE0 SHR DUP1 PUSH4 0x508B30C9 GT PUSH2 0x59 JUMPI DUP1 PUSH4 0x508B30C9 EQ PUSH2 0x110 JUMPI DUP1 PUSH4 0xA3EC138D EQ PUSH2 0x12E JUMPI DUP1 PUSH4 0xBE25A718 EQ PUSH2 0x160 JUMPI DUP1 PUSH4 0xC19D93FB EQ PUSH2 0x16A JUMPI PUSH2 0x86 JUMP JUMPDEST DUP1 PUSH4 0x121B93F EQ PUSH2 0x8A JUMPI DUP1 PUSH4 0x13CF08B EQ PUSH2 0xA6 JUMPI DUP1 PUSH4 0x2E4176CF EQ PUSH2 0xD6 JUMPI DUP1 PUSH4 0x4420E486 EQ PUSH2 0xF4 JUMPI JUMPDEST PUSH0 PUSH0 REVERT JUMPDEST PUSH2 0xA4 PUSH1 0x4 DUP1 CALLDATASIZE SUB DUP2 ADD SWAP1 PUSH2 0x9F SWAP2 SWAP1 PUSH2 0x846 JUMP JUMPDEST PUSH2 0x188 JUMP JUMPDEST STOP JUMPDEST PUSH2 0xC0 PUSH1 0x4 DUP1 CALLDATASIZE SUB DUP2 ADD SWAP1 PUSH2 0xBB SWAP2 SWAP1 PUSH2 0x846 JUMP JUMPDEST PUSH2 0x37D JUMP JUMPDEST PUSH1 0x40 MLOAD PUSH2 0xCD SWAP2 SWAP1 PUSH2 0x880 JUMP JUMPDEST PUSH1 0x40 MLOAD DUP1 SWAP2 SUB SWAP1 RETURN JUMPDEST PUSH2 0xDE PUSH2 0x3A2 JUMP JUMPDEST PUSH1 0x40 MLOAD PUSH2 0xEB SWAP2 SWAP1 PUSH2 0x8D8 JUMP JUMPDEST PUSH1 0x40 MLOAD DUP1 SWAP2 SUB SWAP1 RETURN JUMPDEST PUSH2 0x10E PUSH1 0x4 DUP1 CALLDATASIZE SUB DUP2 ADD SWAP1 PUSH2 0x109 SWAP2 SWAP1 PUSH2 0x91B JUMP JUMPDEST PUSH2 0x3C6 JUMP JUMPDEST STOP JUMPDEST PUSH2 0x118 PUSH2 0x51C JUMP JUMPDEST PUSH1 0x40 MLOAD PUSH2 0x125 SWAP2 SWAP1 PUSH2 0x880 JUMP JUMPDEST PUSH1 0x40 MLOAD DUP1 SWAP2 SUB SWAP1 RETURN JUMPDEST PUSH2 0x148 PUSH1 0x4 DUP1 CALLDATASIZE SUB DUP2 ADD SWAP1 PUSH2 0x143 SWAP2 SWAP1 PUSH2 0x91B JUMP JUMPDEST PUSH2 0x590 JUMP JUMPDEST PUSH1 0x40 MLOAD PUSH2 0x157 SWAP4 SWAP3 SWAP2 SWAP1 PUSH2 0x960 JUMP JUMPDEST PUSH1 0x40 MLOAD DUP1 SWAP2 SUB SWAP1 RETURN JUMPDEST PUSH2 0x168 PUSH2 0x5C2 JUMP JUMPDEST STOP JUMPDEST PUSH2 0x172 PUSH2 0x7FD JUMP JUMPDEST PUSH1 0x40 MLOAD PUSH2 0x17F SWAP2 SWAP1 PUSH2 0xA08 JUMP JUMPDEST PUSH1 0x40 MLOAD DUP1 SWAP2 SUB SWAP1 RETURN JUMPDEST PUSH0 PUSH1 0x1 PUSH0 CALLER PUSH20 0xFFFFFFFFFFFFFFFFFFFFFFFFFFFFFFFFFFFFFFFF AND PUSH20 0xFFFFFFFFFFFFFFFFFFFFFFFFFFFFFFFFFFFFFFFF AND DUP2 MSTORE PUSH1 0x20 ADD SWAP1 DUP2 MSTORE PUSH1 0x20 ADD PUSH0 KECCAK256 PUSH0 ADD SLOAD GT PUSH2 0x209 JUMPI PUSH1 0x40 MLOAD PUSH32 0x8C379A000000000000000000000000000000000000000000000000000000000 DUP2 MSTORE PUSH1 0x4 ADD PUSH2 0x200 SWAP1 PUSH2 0xA7B JUMP JUMPDEST PUSH1 0x40 MLOAD DUP1 SWAP2 SUB SWAP1 REVERT JUMPDEST PUSH1 0x1 PUSH0 CALLER PUSH20 0xFFFFFFFFFFFFFFFFFFFFFFFFFFFFFFFFFFFFFFFF AND PUSH20 0xFFFFFFFFFFFFFFFFFFFFFFFFFFFFFFFFFFFFFFFF AND DUP2 MSTORE PUSH1 0x20 ADD SWAP1 DUP2 MSTORE PUSH1 0x20 ADD PUSH0 KECCAK256 PUSH1 0x1 ADD PUSH0 SWAP1 SLOAD SWAP1 PUSH2 0x100 EXP SWAP1 DIV PUSH1 0xFF AND ISZERO PUSH2 0x296 JUMPI PUSH1 0x40 MLOAD PUSH32 0x8C379A000000000000000000000000000000000000000000000000000000000 DUP2 MSTORE PUSH1 0x4 ADD PUSH2 0x28D SWAP1 PUSH2 0xAE3 JUMP JUMPDEST PUSH1 0x40 MLOAD DUP1 SWAP2 SUB SWAP1 REVERT JUMPDEST PUSH0 PUSH1 0x1 PUSH0 CALLER PUSH20 0xFFFFFFFFFFFFFFFFFFFFFFFFFFFFFFFFFFFFFFFF AND PUSH20 0xFFFFFFFFFFFFFFFFFFFFFFFFFFFFFFFFFFFFFFFF AND DUP2 MSTORE PUSH1 0x20 ADD SWAP1 DUP2 MSTORE PUSH1 0x20 ADD PUSH0 KECCAK256 SWAP1 POP PUSH1 0x2 DUP1 SLOAD SWAP1 POP DUP3 LT PUSH2 0x31D JUMPI PUSH1 0x40 MLOAD PUSH32 0x8C379A000000000000000000000000000000000000000000000000000000000 DUP2 MSTORE PUSH1 0x4 ADD PUSH2 0x314 SWAP1 PUSH2 0xB4B JUMP JUMPDEST PUSH1 0x40 MLOAD DUP1 SWAP2 SUB SWAP1 REVERT JUMPDEST PUSH1 0x1 DUP2 PUSH1 0x1 ADD PUSH0 PUSH2 0x100 EXP DUP2 SLOAD DUP2 PUSH1 0xFF MUL NOT AND SWAP1 DUP4 ISZERO ISZERO MUL OR SWAP1 SSTORE POP DUP2 DUP2 PUSH1 0x2 ADD DUP2 SWAP1 SSTORE POP DUP1 PUSH0 ADD SLOAD PUSH1 0x2 DUP4 DUP2 SLOAD DUP2 LT PUSH2 0x35A JUMPI PUSH2 0x359 PUSH2 0xB69 JUMP JUMPDEST JUMPDEST SWAP1 PUSH0 MSTORE PUSH1 0x20 PUSH0 KECCAK256 ADD PUSH0 ADD PUSH0 DUP3 DUP3 SLOAD PUSH2 0x372 SWAP2 SWAP1 PUSH2 0xBC3 JUMP JUMPDEST SWAP3 POP POP DUP2 SWAP1 SSTORE POP POP POP JUMP JUMPDEST PUSH1 0x2 DUP2 DUP2 SLOAD DUP2 LT PUSH2 0x38C JUMPI PUSH0 DUP1 REVERT JUMPDEST SWAP1 PUSH0 MSTORE PUSH1 0x20 PUSH0 KECCAK256 ADD PUSH0 SWAP2 POP SWAP1 POP DUP1 PUSH0 ADD SLOAD SWAP1 POP DUP2 JUMP JUMPDEST PUSH0 PUSH0 SWAP1 SLOAD SWAP1 PUSH2 0x100 EXP SWAP1 DIV PUSH20 0xFFFFFFFFFFFFFFFFFFFFFFFFFFFFFFFFFFFFFFFF AND DUP2 JUMP JUMPDEST PUSH0 PUSH0 SWAP1 SLOAD SWAP1 PUSH2 0x100 EXP SWAP1 DIV PUSH20 0xFFFFFFFFFFFFFFFFFFFFFFFFFFFFFFFFFFFFFFFF AND PUSH20 0xFFFFFFFFFFFFFFFFFFFFFFFFFFFFFFFFFFFFFFFF AND CALLER PUSH20 0xFFFFFFFFFFFFFFFFFFFFFFFFFFFFFFFFFFFFFFFF AND EQ PUSH2 0x454 JUMPI PUSH1 0x40 MLOAD PUSH32 0x8C379A000000000000000000000000000000000000000000000000000000000 DUP2 MSTORE PUSH1 0x4 ADD PUSH2 0x44B SWAP1 PUSH2 0xC40 JUMP JUMPDEST PUSH1 0x40 MLOAD DUP1 SWAP2 SUB SWAP1 REVERT JUMPDEST PUSH0 PUSH1 0x1 PUSH0 DUP4 PUSH20 0xFFFFFFFFFFFFFFFFFFFFFFFFFFFFFFFFFFFFFFFF AND PUSH20 0xFFFFFFFFFFFFFFFFFFFFFFFFFFFFFFFFFFFFFFFF AND DUP2 MSTORE PUSH1 0x20 ADD SWAP1 DUP2 MSTORE PUSH1 0x20 ADD PUSH0 KECCAK256 PUSH0 ADD SLOAD EQ PUSH2 0x4D5 JUMPI PUSH1 0x40 MLOAD PUSH32 0x8C379A000000000000000000000000000000000000000000000000000000000 DUP2 MSTORE PUSH1 0x4 ADD PUSH2 0x4CC SWAP1 PUSH2 0xCA8 JUMP JUMPDEST PUSH1 0x40 MLOAD DUP1 SWAP2 SUB SWAP1 REVERT JUMPDEST PUSH1 0x1 DUP1 PUSH0 DUP4 PUSH20 0xFFFFFFFFFFFFFFFFFFFFFFFFFFFFFFFFFFFFFFFF AND PUSH20 0xFFFFFFFFFFFFFFFFFFFFFFFFFFFFFFFFFFFFFFFF AND DUP2 MSTORE PUSH1 0x20 ADD SWAP1 DUP2 MSTORE PUSH1 0x20 ADD PUSH0 KECCAK256 PUSH0 ADD DUP2 SWAP1 SSTORE POP POP JUMP JUMPDEST PUSH0 PUSH0 PUSH0 SWAP1 POP PUSH0 PUSH0 SWAP1 POP JUMPDEST PUSH1 0x2 DUP1 SLOAD SWAP1 POP DUP2 LT ISZERO PUSH2 0x58B JUMPI DUP2 PUSH1 0x2 DUP3 DUP2 SLOAD DUP2 LT PUSH2 0x548 JUMPI PUSH2 0x547 PUSH2 0xB69 JUMP JUMPDEST JUMPDEST SWAP1 PUSH0 MSTORE PUSH1 0x20 PUSH0 KECCAK256 ADD PUSH0 ADD SLOAD GT ISZERO PUSH2 0x57E JUMPI PUSH1 0x2 DUP2 DUP2 SLOAD DUP2 LT PUSH2 0x56D JUMPI PUSH2 0x56C PUSH2 0xB69 JUMP JUMPDEST JUMPDEST SWAP1 PUSH0 MSTORE PUSH1 0x20 PUSH0 KECCAK256 ADD PUSH0 ADD SLOAD SWAP2 POP DUP1 SWAP3 POP JUMPDEST DUP1 DUP1 PUSH1 0x1 ADD SWAP2 POP POP PUSH2 0x526 JUMP JUMPDEST POP POP SWAP1 JUMP JUMPDEST PUSH1 0x1 PUSH1 0x20 MSTORE DUP1 PUSH0 MSTORE PUSH1 0x40 PUSH0 KECCAK256 PUSH0 SWAP2 POP SWAP1 POP DUP1 PUSH0 ADD SLOAD SWAP1 DUP1 PUSH1 0x1 ADD PUSH0 SWAP1 SLOAD SWAP1 PUSH2 0x100 EXP SWAP1 DIV PUSH1 0xFF AND SWAP1 DUP1 PUSH1 0x2 ADD SLOAD SWAP1 POP DUP4 JUMP JUMPDEST PUSH0 PUSH0 SWAP1 SLOAD SWAP1 PUSH2 0x100 EXP SWAP1 DIV PUSH20 0xFFFFFFFFFFFFFFFFFFFFFFFFFFFFFFFFFFFFFFFF AND PUSH20 0xFFFFFFFFFFFFFFFFFFFFFFFFFFFFFFFFFFFFFFFF AND CALLER PUSH20 0xFFFFFFFFFFFFFFFFFFFFFFFFFFFFFFFFFFFFFFFF AND EQ PUSH2 0x650 JUMPI PUSH1 0x40 MLOAD PUSH32 0x8C379A000000000000000000000000000000000000000000000000000000000 DUP2 MSTORE PUSH1 0x4 ADD PUSH2 0x647 SWAP1 PUSH2 0xC40 JUMP JUMPDEST PUSH1 0x40 MLOAD DUP1 SWAP2 SUB SWAP1 REVERT JUMPDEST PUSH1 0x3 DUP1 DUP2 GT ISZERO PUSH2 0x663 JUMPI PUSH2 0x662 PUSH2 0x995 JUMP JUMPDEST JUMPDEST PUSH1 0x3 PUSH0 SWAP1 SLOAD SWAP1 PUSH2 0x100 EXP SWAP1 DIV PUSH1 0xFF AND PUSH1 0x3 DUP2 GT ISZERO PUSH2 0x684 JUMPI PUSH2 0x683 PUSH2 0x995 JUMP JUMPDEST JUMPDEST SUB PUSH2 0x6C4 JUMPI PUSH1 0x40 MLOAD PUSH32 0x8C379A000000000000000000000000000000000000000000000000000000000 DUP2 MSTORE PUSH1 0x4 ADD PUSH2 0x6BB SWAP1 PUSH2 0xD10 JUMP JUMPDEST PUSH1 0x40 MLOAD DUP1 SWAP2 SUB SWAP1 REVERT JUMPDEST PUSH0 PUSH1 0x3 DUP2 GT ISZERO PUSH2 0x6D7 JUMPI PUSH2 0x6D6 PUSH2 0x995 JUMP JUMPDEST JUMPDEST PUSH1 0x3 PUSH0 SWAP1 SLOAD SWAP1 PUSH2 0x100 EXP SWAP1 DIV PUSH1 0xFF AND PUSH1 0x3 DUP2 GT ISZERO PUSH2 0x6F8 JUMPI PUSH2 0x6F7 PUSH2 0x995 JUMP JUMPDEST JUMPDEST SUB PUSH2 0x72C JUMPI PUSH1 0x1 PUSH1 0x3 PUSH0 PUSH2 0x100 EXP DUP2 SLOAD DUP2 PUSH1 0xFF MUL NOT AND SWAP1 DUP4 PUSH1 0x3 DUP2 GT ISZERO PUSH2 0x722 JUMPI PUSH2 0x721 PUSH2 0x995 JUMP JUMPDEST JUMPDEST MUL OR SWAP1 SSTORE POP PUSH2 0x7FB JUMP JUMPDEST PUSH1 0x1 PUSH1 0x3 DUP2 GT ISZERO PUSH2 0x740 JUMPI PUSH2 0x73F PUSH2 0x995 JUMP JUMPDEST JUMPDEST PUSH1 0x3 PUSH0 SWAP1 SLOAD SWAP1 PUSH2 0x100 EXP SWAP1 DIV PUSH1 0xFF AND PUSH1 0x3 DUP2 GT ISZERO PUSH2 0x761 JUMPI PUSH2 0x760 PUSH2 0x995 JUMP JUMPDEST JUMPDEST SUB PUSH2 0x795 JUMPI PUSH1 0x2 PUSH1 0x3 PUSH0 PUSH2 0x100 EXP DUP2 SLOAD DUP2 PUSH1 0xFF MUL NOT AND SWAP1 DUP4 PUSH1 0x3 DUP2 GT ISZERO PUSH2 0x78B JUMPI PUSH2 0x78A PUSH2 0x995 JUMP JUMPDEST JUMPDEST MUL OR SWAP1 SSTORE POP PUSH2 0x7FA JUMP JUMPDEST PUSH1 0x2 PUSH1 0x3 DUP2 GT ISZERO PUSH2 0x7A9 JUMPI PUSH2 0x7A8 PUSH2 0x995 JUMP JUMPDEST JUMPDEST PUSH1 0x3 PUSH0 SWAP1 SLOAD SWAP1 PUSH2 0x100 EXP SWAP1 DIV PUSH1 0xFF AND PUSH1 0x3 DUP2 GT ISZERO PUSH2 0x7CA JUMPI PUSH2 0x7C9 PUSH2 0x995 JUMP JUMPDEST JUMPDEST SUB PUSH2 0x7F9 JUMPI PUSH1 0x3 DUP1 PUSH0 PUSH2 0x100 EXP DUP2 SLOAD DUP2 PUSH1 0xFF MUL NOT AND SWAP1 DUP4 PUSH1 0x3 DUP2 GT ISZERO PUSH2 0x7F3 JUMPI PUSH2 0x7F2 PUSH2 0x995 JUMP JUMPDEST JUMPDEST MUL OR SWAP1 SSTORE POP JUMPDEST JUMPDEST JUMPDEST JUMP JUMPDEST PUSH1 0x3 PUSH0 SWAP1 SLOAD SWAP1 PUSH2 0x100 EXP SWAP1 DIV PUSH1 0xFF AND DUP2 JUMP JUMPDEST PUSH0 PUSH0 REVERT JUMPDEST PUSH0 DUP2 SWAP1 POP SWAP2 SWAP1 POP JUMP JUMPDEST PUSH2 0x825 DUP2 PUSH2 0x813 JUMP JUMPDEST DUP2 EQ PUSH2 0x82F JUMPI PUSH0 PUSH0 REVERT JUMPDEST POP JUMP JUMPDEST PUSH0 DUP2 CALLDATALOAD SWAP1 POP PUSH2 0x840 DUP2 PUSH2 0x81C JUMP JUMPDEST SWAP3 SWAP2 POP POP JUMP JUMPDEST PUSH0 PUSH1 0x20 DUP3 DUP5 SUB SLT ISZERO PUSH2 0x85B JUMPI PUSH2 0x85A PUSH2 0x80F JUMP JUMPDEST JUMPDEST PUSH0 PUSH2 0x868 DUP5 DUP3 DUP6 ADD PUSH2 0x832 JUMP JUMPDEST SWAP2 POP POP SWAP3 SWAP2 POP POP JUMP JUMPDEST PUSH2 0x87A DUP2 PUSH2 0x813 JUMP JUMPDEST DUP3 MSTORE POP POP JUMP JUMPDEST PUSH0 PUSH1 0x20 DUP3 ADD SWAP1 POP PUSH2 0x893 PUSH0 DUP4 ADD DUP5 PUSH2 0x871 JUMP JUMPDEST SWAP3 SWAP2 POP POP JUMP JUMPDEST PUSH0 PUSH20 0xFFFFFFFFFFFFFFFFFFFFFFFFFFFFFFFFFFFFFFFF DUP3 AND SWAP1 POP SWAP2 SWAP1 POP JUMP JUMPDEST PUSH0 PUSH2 0x8C2 DUP3 PUSH2 0x899 JUMP JUMPDEST SWAP1 POP SWAP2 SWAP1 POP JUMP JUMPDEST PUSH2 0x8D2 DUP2 PUSH2 0x8B8 JUMP JUMPDEST DUP3 MSTORE POP POP JUMP JUMPDEST PUSH0 PUSH1 0x20 DUP3 ADD SWAP1 POP PUSH2 0x8EB PUSH0 DUP4 ADD DUP5 PUSH2 0x8C9 JUMP JUMPDEST SWAP3 SWAP2 POP POP JUMP JUMPDEST PUSH2 0x8FA DUP2 PUSH2 0x8B8 JUMP JUMPDEST DUP2 EQ PUSH2 0x904 JUMPI PUSH0 PUSH0 REVERT JUMPDEST POP JUMP JUMPDEST PUSH0 DUP2 CALLDATALOAD SWAP1 POP PUSH2 0x915 DUP2 PUSH2 0x8F1 JUMP JUMPDEST SWAP3 SWAP2 POP POP JUMP JUMPDEST PUSH0 PUSH1 0x20 DUP3 DUP5 SUB SLT ISZERO PUSH2 0x930 JUMPI PUSH2 0x92F PUSH2 0x80F JUMP JUMPDEST JUMPDEST PUSH0 PUSH2 0x93D DUP5 DUP3 DUP6 ADD PUSH2 0x907 JUMP JUMPDEST SWAP2 POP POP SWAP3 SWAP2 POP POP JUMP JUMPDEST PUSH0 DUP2 ISZERO ISZERO SWAP1 POP SWAP2 SWAP1 POP JUMP JUMPDEST PUSH2 0x95A DUP2 PUSH2 0x946 JUMP JUMPDEST DUP3 MSTORE POP POP JUMP JUMPDEST PUSH0 PUSH1 0x60 DUP3 ADD SWAP1 POP PUSH2 0x973 PUSH0 DUP4 ADD DUP7 PUSH2 0x871 JUMP JUMPDEST PUSH2 0x980 PUSH1 0x20 DUP4 ADD DUP6 PUSH2 0x951 JUMP JUMPDEST PUSH2 0x98D PUSH1 0x40 DUP4 ADD DUP5 PUSH2 0x871 JUMP JUMPDEST SWAP5 SWAP4 POP POP POP POP JUMP JUMPDEST PUSH32 0x4E487B7100000000000000000000000000000000000000000000000000000000 PUSH0 MSTORE PUSH1 0x21 PUSH1 0x4 MSTORE PUSH1 0x24 PUSH0 REVERT JUMPDEST PUSH1 0x4 DUP2 LT PUSH2 0x9D3 JUMPI PUSH2 0x9D2 PUSH2 0x995 JUMP JUMPDEST JUMPDEST POP JUMP JUMPDEST PUSH0 DUP2 SWAP1 POP PUSH2 0x9E3 DUP3 PUSH2 0x9C2 JUMP JUMPDEST SWAP2 SWAP1 POP JUMP JUMPDEST PUSH0 PUSH2 0x9F2 DUP3 PUSH2 0x9D6 JUMP JUMPDEST SWAP1 POP SWAP2 SWAP1 POP JUMP JUMPDEST PUSH2 0xA02 DUP2 PUSH2 0x9E8 JUMP JUMPDEST DUP3 MSTORE POP POP JUMP JUMPDEST PUSH0 PUSH1 0x20 DUP3 ADD SWAP1 POP PUSH2 0xA1B PUSH0 DUP4 ADD DUP5 PUSH2 0x9F9 JUMP JUMPDEST SWAP3 SWAP2 POP POP JUMP JUMPDEST PUSH0 DUP3 DUP3 MSTORE PUSH1 0x20 DUP3 ADD SWAP1 POP SWAP3 SWAP2 POP POP JUMP JUMPDEST PUSH32 0x4E6F20726967687420746F20766F746500000000000000000000000000000000 PUSH0 DUP3 ADD MSTORE POP JUMP JUMPDEST PUSH0 PUSH2 0xA65 PUSH1 0x10 DUP4 PUSH2 0xA21 JUMP JUMPDEST SWAP2 POP PUSH2 0xA70 DUP3 PUSH2 0xA31 JUMP JUMPDEST PUSH1 0x20 DUP3 ADD SWAP1 POP SWAP2 SWAP1 POP JUMP JUMPDEST PUSH0 PUSH1 0x20 DUP3 ADD SWAP1 POP DUP2 DUP2 SUB PUSH0 DUP4 ADD MSTORE PUSH2 0xA92 DUP2 PUSH2 0xA59 JUMP JUMPDEST SWAP1 POP SWAP2 SWAP1 POP JUMP JUMPDEST PUSH32 0x416C726561647920766F74656400000000000000000000000000000000000000 PUSH0 DUP3 ADD MSTORE POP JUMP JUMPDEST PUSH0 PUSH2 0xACD PUSH1 0xD DUP4 PUSH2 0xA21 JUMP JUMPDEST SWAP2 POP PUSH2 0xAD8 DUP3 PUSH2 0xA99 JUMP JUMPDEST PUSH1 0x20 DUP3 ADD SWAP1 POP SWAP2 SWAP1 POP JUMP JUMPDEST PUSH0 PUSH1 0x20 DUP3 ADD SWAP1 POP DUP2 DUP2 SUB PUSH0 DUP4 ADD MSTORE PUSH2 0xAFA DUP2 PUSH2 0xAC1 JUMP JUMPDEST SWAP1 POP SWAP2 SWAP1 POP JUMP JUMPDEST PUSH32 0x496E76616C69642070726F706F73616C00000000000000000000000000000000 PUSH0 DUP3 ADD MSTORE POP JUMP JUMPDEST PUSH0 PUSH2 0xB35 PUSH1 0x10 DUP4 PUSH2 0xA21 JUMP JUMPDEST SWAP2 POP PUSH2 0xB40 DUP3 PUSH2 0xB01 JUMP JUMPDEST PUSH1 0x20 DUP3 ADD SWAP1 POP SWAP2 SWAP1 POP JUMP JUMPDEST PUSH0 PUSH1 0x20 DUP3 ADD SWAP1 POP DUP2 DUP2 SUB PUSH0 DUP4 ADD MSTORE PUSH2 0xB62 DUP2 PUSH2 0xB29 JUMP JUMPDEST SWAP1 POP SWAP2 SWAP1 POP JUMP JUMPDEST PUSH32 0x4E487B7100000000000000000000000000000000000000000000000000000000 PUSH0 MSTORE PUSH1 0x32 PUSH1 0x4 MSTORE PUSH1 0x24 PUSH0 REVERT JUMPDEST PUSH32 0x4E487B7100000000000000000000000000000000000000000000000000000000 PUSH0 MSTORE PUSH1 0x11 PUSH1 0x4 MSTORE PUSH1 0x24 PUSH0 REVERT JUMPDEST PUSH0 PUSH2 0xBCD DUP3 PUSH2 0x813 JUMP JUMPDEST SWAP2 POP PUSH2 0xBD8 DUP4 PUSH2 0x813 JUMP JUMPDEST SWAP3 POP DUP3 DUP3 ADD SWAP1 POP DUP1 DUP3 GT ISZERO PUSH2 0xBF0 JUMPI PUSH2 0xBEF PUSH2 0xB96 JUMP JUMPDEST JUMPDEST SWAP3 SWAP2 POP POP JUMP JUMPDEST PUSH32 0x4F6E6C79206368616972706572736F6E2063616E2063616C6C20746869732E00 PUSH0 DUP3 ADD MSTORE POP JUMP JUMPDEST PUSH0 PUSH2 0xC2A PUSH1 0x1F DUP4 PUSH2 0xA21 JUMP JUMPDEST SWAP2 POP PUSH2 0xC35 DUP3 PUSH2 0xBF6 JUMP JUMPDEST PUSH1 0x20 DUP3 ADD SWAP1 POP SWAP2 SWAP1 POP JUMP JUMPDEST PUSH0 PUSH1 0x20 DUP3 ADD SWAP1 POP DUP2 DUP2 SUB PUSH0 DUP4 ADD MSTORE PUSH2 0xC57 DUP2 PUSH2 0xC1E JUMP JUMPDEST SWAP1 POP SWAP2 SWAP1 POP JUMP JUMPDEST PUSH32 0x416C726561647920726567697374657265640000000000000000000000000000 PUSH0 DUP3 ADD MSTORE POP JUMP JUMPDEST PUSH0 PUSH2 0xC92 PUSH1 0x12 DUP4 PUSH2 0xA21 JUMP JUMPDEST SWAP2 POP PUSH2 0xC9D DUP3 PUSH2 0xC5E JUMP JUMPDEST PUSH1 0x20 DUP3 ADD SWAP1 POP SWAP2 SWAP1 POP JUMP JUMPDEST PUSH0 PUSH1 0x20 DUP3 ADD SWAP1 POP DUP2 DUP2 SUB PUSH0 DUP4 ADD MSTORE PUSH2 0xCBF DUP2 PUSH2 0xC86 JUMP JUMPDEST SWAP1 POP SWAP2 SWAP1 POP JUMP JUMPDEST PUSH32 0x42616C6C6F742069732066696E69736865640000000000000000000000000000 PUSH0 DUP3 ADD MSTORE POP JUMP JUMPDEST PUSH0 PUSH2 0xCFA PUSH1 0x12 DUP4 PUSH2 0xA21 JUMP JUMPDEST SWAP2 POP PUSH2 0xD05 DUP3 PUSH2 0xCC6 JUMP JUMPDEST PUSH1 0x20 DUP3 ADD SWAP1 POP SWAP2 SWAP1 POP JUMP JUMPDEST PUSH0 PUSH1 0x20 DUP3 ADD SWAP1 POP DUP2 DUP2 SUB PUSH0 DUP4 ADD MSTORE PUSH2 0xD27 DUP2 PUSH2 0xCEE JUMP JUMPDEST SWAP1 POP SWAP2 SWAP1 POP JUMP INVALID LOG2 PUSH5 0x6970667358 0x22 SLT KECCAK256 SWAP4 PUSH30 0xDFA5B80A3F9A82971E51A75E273EFCC2285625B851DAD7372CDC6EC4AFAE PUSH5 0x736F6C6343 STOP ADDMOD KECCAK256 STOP CALLER "
		},
		"gasEstimates": {
			"creation": {
				"codeDepositCost": "685600",
				"executionCost": "infinite",
				"totalCost": "infinite"
			},
			"external": {
				"advancePhase()": "35482",
				"chairperson()": "2552",
				"proposals(uint256)": "infinite",
				"register(address)": "27106",
				"reqWinner()": "infinite",
				"state()": "2620",
				"vote(uint256)": "infinite",
				"voters(address)": "infinite"
			}
		},
		"methodIdentifiers": {
			"advancePhase()": "be25a718",
			"chairperson()": "2e4176cf",
			"proposals(uint256)": "013cf08b",
			"register(address)": "4420e486",
			"reqWinner()": "508b30c9",
			"state()": "c19d93fb",
			"vote(uint256)": "0121b93f",
			"voters(address)": "a3ec138d"
		}
	},
	"abi": [
		{
			"inputs": [
				{
					"internalType": "uint256",
					"name": "numProposals",
					"type": "uint256"
				}
			],
			"stateMutability": "nonpayable",
			"type": "constructor"
		},
		{
			"inputs": [],
			"name": "advancePhase",
			"outputs": [],
			"stateMutability": "nonpayable",
			"type": "function"
		},
		{
			"inputs": [],
			"name": "chairperson",
			"outputs": [
				{
					"internalType": "address",
					"name": "",
					"type": "address"
				}
			],
			"stateMutability": "view",
			"type": "function"
		},
		{
			"inputs": [
				{
					"internalType": "uint256",
					"name": "",
					"type": "uint256"
				}
			],
			"name": "proposals",
			"outputs": [
				{
					"internalType": "uint256",
					"name": "voteCount",
					"type": "uint256"
				}
			],
			"stateMutability": "view",
			"type": "function"
		},
		{
			"inputs": [
				{
					"internalType": "address",
					"name": "voter",
					"type": "address"
				}
			],
			"name": "register",
			"outputs": [],
			"stateMutability": "nonpayable",
			"type": "function"
		},
		{
			"inputs": [],
			"name": "reqWinner",
			"outputs": [
				{
					"internalType": "uint256",
					"name": "winningProposal",
					"type": "uint256"
				}
			],
			"stateMutability": "view",
			"type": "function"
		},
		{
			"inputs": [],
			"name": "state",
			"outputs": [
				{
					"internalType": "enum Ballot.Phase",
					"name": "",
					"type": "uint8"
				}
			],
			"stateMutability": "view",
			"type": "function"
		},
		{
			"inputs": [
				{
					"internalType": "uint256",
					"name": "toProposal",
					"type": "uint256"
				}
			],
			"name": "vote",
			"outputs": [],
			"stateMutability": "nonpayable",
			"type": "function"
		},
		{
			"inputs": [
				{
					"internalType": "address",
					"name": "",
					"type": "address"
				}
			],
			"name": "voters",
			"outputs": [
				{
					"internalType": "uint256",
					"name": "weight",
					"type": "uint256"
				},
				{
					"internalType": "bool",
					"name": "voted",
					"type": "bool"
				},
				{
					"internalType": "uint256",
					"name": "vote",
					"type": "uint256"
				}
			],
			"stateMutability": "view",
			"type": "function"
		}
	]
}