{
	"data": {
		"bytecode": {
			"linkReferences": {},
			"object": "60806040525f5f557fffffffffffffffffffffffffffffffffffffffffffffffffffffffffffffffff6001553480156035575f5ffd5b50610253806100435f395ff3fe608060405234801561000f575f5ffd5b5060043610610054575f3560e01c80624264c314610058578063498031a214610076578063dc75bec714610094578063f25d631c146100b2578063f5f27f2e146100d0575b5f5ffd5b6100606100ee565b60405161006d9190610171565b60405180910390f35b61007e610102565b60405161008b9190610171565b60405180910390f35b61009c61010d565b6040516100a99190610171565b60405180910390f35b6100ba610121565b6040516100c79190610171565b60405180910390f35b6100d861014e565b6040516100e59190610171565b60405180910390f35b5f600180546100fd91906101b7565b905090565b5f60015f5403905090565b5f60015f5461011c91906101ea565b905090565b5f5f6001805461013191906101b7565b9050600154811015610147576101456100ee565b505b8091505090565b5f6001805401905090565b5f819050919050565b61016b81610159565b82525050565b5f6020820190506101845f830184610162565b92915050565b7f4e487b71000000000000000000000000000000000000000000000000000000005f52601160045260245ffd5b5f6101c182610159565b91506101cc83610159565b92508282019050808211156101e4576101e361018a565b5b92915050565b5f6101f482610159565b91506101ff83610159565b92508282039050818111156102175761021661018a565b5b9291505056fea26469706673582212207152aec99883d6b8a7ad102c2d5eadf524698cf63b756d068194b423784425f364736f6c634300081f0033",
			"opcodes": "PUSH1 0x80 PUSH1 0x40 MSTORE PUSH0 PUSH0 SSTORE PUSH32 0xFFFFFFFFFFFFFFFFFFFFFFFFFFFFFFFFFFFFFFFFFFFFFFFFFFFFFFFFFFFFFFFF PUSH1 0x1 SSTORE CALLVALUE DUP1 ISZERO PUSH1 0x35 JUMPI PUSH0 PUSH0 REVERT JUMPDEST POP PUSH2 0x253 DUP1 PUSH2 0x43 PUSH0 CODECOPY PUSH0 RETURN INVALID PUSH1 0x80 PUSH1 0x40 MSTORE CALLVALUE DUP1 ISZERO PUSH2 0xF JUMPI PUSH0 PUSH0 REVERT JUMPDEST POP PUSH1 0x4 CALLDATASIZE LT PUSH2 0x54 JUMPI PUSH0 CALLDATALOAD PUSH1 0xE0 SHR DUP1 PUSH3 0x4264C3 EQ PUSH2 0x58 JUMPI DUP1 PUSH4 0x498031A2 EQ PUSH2 0x76 JUMPI DUP1 PUSH4 0xDC75BEC7 EQ PUSH2 0x94 JUMPI DUP1 PUSH4 0xF25D631C EQ PUSH2 0xB2 JUMPI DUP1 PUSH4 0xF5F27F2E EQ PUSH2 0xD0 JUMPI JUMPDEST PUSH0 PUSH0 REVERT JUMPDEST PUSH2 0x60 PUSH2 0xEE JUMP JUMPDEST PUSH1 0x40 MLOAD PUSH2 0x6D SWAP2 SWAP1 PUSH2 0x171 JUMP JUMPDEST PUSH1 0x40 MLOAD DUP1 SWAP2 SUB SWAP1 RETURN JUMPDEST PUSH2 0x7E PUSH2 0x102 JUMP JUMPDEST PUSH1 0x40 MLOAD PUSH2 0x8B SWAP2 SWAP1 PUSH2 0x171 JUMP JUMPDEST PUSH1 0x40 MLOAD DUP1 SWAP2 SUB SWAP1 RETURN JUMPDEST PUSH2 0x9C PUSH2 0x10D JUMP JUMPDEST PUSH1 0x40 MLOAD PUSH2 0xA9 SWAP2 SWAP1 PUSH2 0x171 JUMP JUMPDEST PUSH1 0x40 MLOAD DUP1 SWAP2 SUB SWAP1 RETURN JUMPDEST PUSH2 0xBA PUSH2 0x121 JUMP JUMPDEST PUSH1 0x40 MLOAD PUSH2 0xC7 SWAP2 SWAP1 PUSH2 0x171 JUMP JUMPDEST PUSH1 0x40 MLOAD DUP1 SWAP2 SUB SWAP1 RETURN JUMPDEST PUSH2 0xD8 PUSH2 0x14E JUMP JUMPDEST PUSH1 0x40 MLOAD PUSH2 0xE5 SWAP2 SWAP1 PUSH2 0x171 JUMP JUMPDEST PUSH1 0x40 MLOAD DUP1 SWAP2 SUB SWAP1 RETURN JUMPDEST PUSH0 PUSH1 0x1 DUP1 SLOAD PUSH2 0xFD SWAP2 SWAP1 PUSH2 0x1B7 JUMP JUMPDEST SWAP1 POP SWAP1 JUMP JUMPDEST PUSH0 PUSH1 0x1 PUSH0 SLOAD SUB SWAP1 POP SWAP1 JUMP JUMPDEST PUSH0 PUSH1 0x1 PUSH0 SLOAD PUSH2 0x11C SWAP2 SWAP1 PUSH2 0x1EA JUMP JUMPDEST SWAP1 POP SWAP1 JUMP JUMPDEST PUSH0 PUSH0 PUSH1 0x1 DUP1 SLOAD PUSH2 0x131 SWAP2 SWAP1 PUSH2 0x1B7 JUMP JUMPDEST SWAP1 POP PUSH1 0x1 SLOAD DUP2 LT ISZERO PUSH2 0x147 JUMPI PUSH2 0x145 PUSH2 0xEE JUMP JUMPDEST POP JUMPDEST DUP1 SWAP2 POP POP SWAP1 JUMP JUMPDEST PUSH0 PUSH1 0x1 DUP1 SLOAD ADD SWAP1 POP SWAP1 JUMP JUMPDEST PUSH0 DUP2 SWAP1 POP SWAP2 SWAP1 POP JUMP JUMPDEST PUSH2 0x16B DUP2 PUSH2 0x159 JUMP JUMPDEST DUP3 MSTORE POP POP JUMP JUMPDEST PUSH0 PUSH1 0x20 DUP3 ADD SWAP1 POP PUSH2 0x184 PUSH0 DUP4 ADD DUP5 PUSH2 0x162 JUMP JUMPDEST SWAP3 SWAP2 POP POP JUMP JUMPDEST PUSH32 0x4E487B7100000000000000000000000000000000000000000000000000000000 PUSH0 MSTORE PUSH1 0x11 PUSH1 0x4 MSTORE PUSH1 0x24 PUSH0 REVERT JUMPDEST PUSH0 PUSH2 0x1C1 DUP3 PUSH2 0x159 JUMP JUMPDEST SWAP2 POP PUSH2 0x1CC DUP4 PUSH2 0x159 JUMP JUMPDEST SWAP3 POP DUP3 DUP3 ADD SWAP1 POP DUP1 DUP3 GT ISZERO PUSH2 0x1E4 JUMPI PUSH2 0x1E3 PUSH2 0x18A JUMP JUMPDEST JUMPDEST SWAP3 SWAP2 POP POP JUMP JUMPDEST PUSH0 PUSH2 0x1F4 DUP3 PUSH2 0x159 JUMP JUMPDEST SWAP2 POP PUSH2 0x1FF DUP4 PUSH2 0x159 JUMP JUMPDEST SWAP3 POP DUP3 DUP3 SUB SWAP1 POP DUP2 DUP2 GT ISZERO PUSH2 0x217 JUMPI PUSH2 0x216 PUSH2 0x18A JUMP JUMPDEST JUMPDEST SWAP3 SWAP2 POP POP JUMP INVALID LOG2 PUSH5 0x6970667358 0x22 SLT KECCAK256 PUSH18 0x52AEC99883D6B8A7AD102C2D5EADF524698C 0xF6 EXTCODESIZE PUSH22 0x6D068194B423784425F364736F6C634300081F003300 "
		},
		"gasEstimates": {
			"creation": {
				"codeDepositCost": "119000",
				"executionCost": "27273",
				"totalCost": "146273"
			},
			"external": {
				"overflow()": "infinite",
				"unchecked_error_overflow()": "infinite",
				"unchecked_overflow()": "2504",
				"unchecked_underflow()": "2437",
				"underflow()": "infinite"
			}
		},
		"methodIdentifiers": {
			"overflow()": "004264c3",
			"unchecked_error_overflow()": "f25d631c",
			"unchecked_overflow()": "f5f27f2e",
			"unchecked_underflow()": "498031a2",
			"underflow()": "dc75bec7"
		}
	},
	"abi": [
		{
			"inputs": [],
			"name": "Overflow",
			"type": "error"
		},
		{
			"inputs": [],
			"name": "overflow",
			"outputs": [
				{
					"internalType": "uint256",
					"name": "",
					"type": "uint256"
				}
			],
			"stateMutability": "view",
			"type": "function"
		},
		{
			"inputs": [],
			"name": "unchecked_error_overflow",
			"outputs": [
				{
					"internalType": "uint256",
					"name": "",
					"type": "uint256"
				}
			],
			"stateMutability": "view",
			"type": "function"
		},
		{
			"inputs": [],
			"name": "unchecked_overflow",
			"outputs": [
				{
					"internalType": "uint256",
					"name": "",
					"type": "uint256"
				}
			],
			"stateMutability": "view",
			"type": "function"
		},
		{
			"inputs": [],
			"name": "unchecked_underflow",
			"outputs": [
				{
					"internalType": "uint256",
					"name": "",
					"type": "uint256"
				}
			],
			"stateMutability": "view",
			"type": "function"
		},
		{
			"inputs": [],
			"name": "underflow",
			"outputs": [
				{
					"internalType": "uint256",
					"name": "",
					"type": "uint256"
				}
			],
			"stateMutability": "view",
			"type": "function"
		}
	]
}