{
	"data": {
		"bytecode": {
			"linkReferences": {},
			"object": "6080604052600080557fffffffffffffffffffffffffffffffffffffffffffffffffffffffffffffffff60015534801561003857600080fd5b5060be806100476000396000f3fe6080604052348015600f57600080fd5b506004361060325760003560e01c80634ed939c2146037578063e2c31055146053575b600080fd5b603d606f565b6040518082815260200191505060405180910390f35b6059607c565b6040518082815260200191505060405180910390f35b6000600160005403905090565b6000600180540190509056fea2646970667358221220b1f22757a4992afd1c3463e1c2ae801cb6fef3f4e792bae303137575af1a526964736f6c63430007060033",
			"opcodes": "PUSH1 0x80 PUSH1 0x40 MSTORE PUSH1 0x0 DUP1 SSTORE PUSH32 0xFFFFFFFFFFFFFFFFFFFFFFFFFFFFFFFFFFFFFFFFFFFFFFFFFFFFFFFFFFFFFFFF PUSH1 0x1 SSTORE CALLVALUE DUP1 ISZERO PUSH2 0x38 JUMPI PUSH1 0x0 DUP1 REVERT JUMPDEST POP PUSH1 0xBE DUP1 PUSH2 0x47 PUSH1 0x0 CODECOPY PUSH1 0x0 RETURN INVALID PUSH1 0x80 PUSH1 0x40 MSTORE CALLVALUE DUP1 ISZERO PUSH1 0xF JUMPI PUSH1 0x0 DUP1 REVERT JUMPDEST POP PUSH1 0x4 CALLDATASIZE LT PUSH1 0x32 JUMPI PUSH1 0x0 CALLDATALOAD PUSH1 0xE0 SHR DUP1 PUSH4 0x4ED939C2 EQ PUSH1 0x37 JUMPI DUP1 PUSH4 0xE2C31055 EQ PUSH1 0x53 JUMPI JUMPDEST PUSH1 0x0 DUP1 REVERT JUMPDEST PUSH1 0x3D PUSH1 0x6F JUMP JUMPDEST PUSH1 0x40 MLOAD DUP1 DUP3 DUP2 MSTORE PUSH1 0x20 ADD SWAP2 POP POP PUSH1 0x40 MLOAD DUP1 SWAP2 SUB SWAP1 RETURN JUMPDEST PUSH1 0x59 PUSH1 0x7C JUMP JUMPDEST PUSH1 0x40 MLOAD DUP1 DUP3 DUP2 MSTORE PUSH1 0x20 ADD SWAP2 POP POP PUSH1 0x40 MLOAD DUP1 SWAP2 SUB SWAP1 RETURN JUMPDEST PUSH1 0x0 PUSH1 0x1 PUSH1 0x0 SLOAD SUB SWAP1 POP SWAP1 JUMP JUMPDEST PUSH1 0x0 PUSH1 0x1 DUP1 SLOAD ADD SWAP1 POP SWAP1 JUMP INVALID LOG2 PUSH5 0x6970667358 0x22 SLT KECCAK256 0xB1 CALLCODE 0x27 JUMPI LOG4 SWAP10 0x2A REVERT SHR CALLVALUE PUSH4 0xE1C2AE80 SHR 0xB6 INVALID RETURN DELEGATECALL 0xE7 SWAP3 0xBA 0xE3 SUB SGT PUSH22 0x75AF1A526964736F6C63430007060033000000000000 "
		},
		"gasEstimates": {
			"creation": {
				"codeDepositCost": "38000",
				"executionCost": "25099",
				"totalCost": "63099"
			},
			"external": {
				"uint_max_overflow()": "1019",
				"uint_min_underflow()": "997"
			}
		},
		"methodIdentifiers": {
			"uint_max_overflow()": "e2c31055",
			"uint_min_underflow()": "4ed939c2"
		}
	},
	"abi": [
		{
			"inputs": [],
			"name": "uint_max_overflow",
			"outputs": [
				{
					"internalType": "uint256",
					"name": "",
					"type": "uint256"
				}
			],
			"stateMutability": "view",
			"type": "function"
		},
		{
			"inputs": [],
			"name": "uint_min_underflow",
			"outputs": [
				{
					"internalType": "uint256",
					"name": "",
					"type": "uint256"
				}
			],
			"stateMutability": "view",
			"type": "function"
		}
	]
}